{
  "_format": "hh3-artifact-1",
  "contractName": "WEVMOS9TestCaller",
  "sourceName": "solidity/precompiles/werc20/testdata/WEVMOS9TestCaller.sol",
  "abi": [
    {
      "inputs": [
        {
          "internalType": "address payable",
          "name": "_wrappedTokenAddress",
          "type": "address"
        }
      ],
      "stateMutability": "nonpayable",
      "type": "constructor"
    },
    {
      "anonymous": false,
      "inputs": [
        {
          "indexed": false,
          "internalType": "string",
          "name": "message",
          "type": "string"
        }
      ],
      "name": "Log",
      "type": "event"
    },
    {
      "inputs": [],
      "name": "WEVMOS",
      "outputs": [
        {
          "internalType": "address payable",
          "name": "",
          "type": "address"
        }
      ],
      "stateMutability": "view",
      "type": "function"
    },
    {
      "inputs": [],
      "name": "counter",
      "outputs": [
        {
          "internalType": "uint256",
          "name": "",
          "type": "uint256"
        }
      ],
      "stateMutability": "view",
      "type": "function"
    },
    {
      "inputs": [
        {
          "internalType": "bool",
          "name": "before",
          "type": "bool"
        },
        {
          "internalType": "bool",
          "name": "aft",
          "type": "bool"
        }
      ],
      "name": "depositWithRevert",
      "outputs": [],
      "stateMutability": "payable",
      "type": "function"
    }
  ],
  "bytecode": "0x60a034606e57601f61029f38819003918201601f19168301916001600160401b03831184841017607257808492602094604052833981010312606e57516001600160a01b0381168103606e576080525f8055604051610218908161008782396080518181816054015260db0152f35b5f80fd5b634e487b7160e01b5f52604160045260245ffdfe6080806040526004361015610012575f80fd5b5f905f3560e01c9081635dab6f8c146100a35750806361bc221a1461008657637cf5b4fc1461003f575f80fd5b346100835780600319360112610083576040517f00000000000000000000000000000000000000000000000000000000000000006001600160a01b03168152602090f35b80fd5b503461008357806003193601126100835760209054604051908152f35b9050604036600319011261019757600435801515810361019757602435918215158303610197575f545f19811461019b576001015f557f00000000000000000000000000000000000000000000000000000000000000006001600160a01b0316803b1561019757816004815f93630d0e30db60e41b825234905af1801561018c5761015b575b506101425781548015610147575f190182556101425780f35b6101af565b634e487b7160e01b83526011600452602483fd5b90925067ffffffffffffffff8111610178576040525f915f610129565b634e487b7160e01b5f52604160045260245ffd5b6040513d5f823e3d90fd5b5f80fd5b634e487b7160e01b5f52601160045260245ffd5b60405162461bcd60e51b815260206004820152600b60248201526a726576657274206865726560a81b6044820152606490fdfea2646970667358221220c2d6afd17930d8f9626b88afbb1372f014752a5db1fc67b28f16c42922ec2f6464736f6c634300081c0033",
  "linkReferences": {},
  "deployedLinkReferences": {},
  "immutableReferences": {
    "23165": [
      {
        "length": 32,
        "start": 84
      },
      {
        "length": 32,
        "start": 219
      }
    ]
  },
  "inputSourceName": "project/solidity/precompiles/werc20/testdata/WEVMOS9TestCaller.sol",
  "buildInfoId": "solc-0_8_28-e55ad96646b3bb5046840fe24a1f6856fc44be2c"
}