{
  "_format": "hh3-artifact-1",
  "contractName": "WEVMOS9TestCaller",
  "sourceName": "solidity/precompiles/werc20/testdata/WEVMOS9TestCaller.sol",
  "abi": [
    {
      "inputs": [
        {
          "internalType": "address payable",
          "name": "_wrappedTokenAddress",
          "type": "address"
        }
      ],
      "stateMutability": "nonpayable",
      "type": "constructor"
    },
    {
      "anonymous": false,
      "inputs": [
        {
          "indexed": false,
          "internalType": "string",
          "name": "message",
          "type": "string"
        }
      ],
      "name": "Log",
      "type": "event"
    },
    {
      "inputs": [],
      "name": "WEVMOS",
      "outputs": [
        {
          "internalType": "address payable",
          "name": "",
          "type": "address"
        }
      ],
      "stateMutability": "view",
      "type": "function"
    },
    {
      "inputs": [],
      "name": "counter",
      "outputs": [
        {
          "internalType": "uint256",
          "name": "",
          "type": "uint256"
        }
      ],
      "stateMutability": "view",
      "type": "function"
    },
    {
      "inputs": [
        {
          "internalType": "bool",
          "name": "before",
          "type": "bool"
        },
        {
          "internalType": "bool",
          "name": "aft",
          "type": "bool"
        }
      ],
      "name": "depositWithRevert",
      "outputs": [],
      "stateMutability": "payable",
      "type": "function"
    }
  ],
  "bytecode": "0x60a03461007257601f6102a938819003918201601f19168301916001600160401b038311848410176100765780849260209460405283398101031261007257516001600160a01b0381168103610072576080525f805560405161021e908161008b82396080518181816055015260e00152f35b5f80fd5b634e487b7160e01b5f52604160045260245ffdfe60806040818152600480361015610014575f80fd5b5f92833560e01c9182635dab6f8c146100a4575050806361bc221a1461008857637cf5b4fc14610042575f80fd5b34610084578160031936011261008457517f00000000000000000000000000000000000000000000000000000000000000006001600160a01b03168152602090f35b5080fd5b5034610084578160031936011261008457602091549051908152f35b90928092506003193601126101b157803580151581036101ad576024359384151585036101a95785545f199490858114610196576001018755867f00000000000000000000000000000000000000000000000000000000000000006001600160a01b0316803b156100845785848092630d0e30db60e41b825234905af1801561018c5761015e575b505061014657835490811561014b57500182556101465780f35b6101b5565b634e487b7160e01b855260119052602484fd5b67ffffffffffffffff82979397116101795752935f8061012c565b634e487b7160e01b835260418452602483fd5b81513d89823e3d90fd5b634e487b7160e01b885260118552602488fd5b8580fd5b8480fd5b8380fd5b60405162461bcd60e51b815260206004820152600b60248201526a726576657274206865726560a81b6044820152606490fdfea2646970667358221220b61679582c73d8cde4ccc82560b7e5e9ad3f55af9a260ea5b850423fe4c95ee564736f6c63430008140033",
  "linkReferences": {},
  "deployedLinkReferences": {},
  "immutableReferences": {
    "18145": [
      {
        "length": 32,
        "start": 85
      },
      {
        "length": 32,
        "start": 224
      }
    ]
  },
  "inputSourceName": "project/solidity/precompiles/werc20/testdata/WEVMOS9TestCaller.sol",
  "buildInfoId": "solc-0_8_20-fda2ffeb444d7d9486f659e7e357f970dc6ac662"
}