{
  "_format": "hh3-artifact-1",
  "contractName": "SimpleEntryPoint",
  "sourceName": "solidity/tests/contracts/account_abstraction/entrypoint/SimpleEntryPoint.sol",
  "abi": [
    {
      "anonymous": false,
      "inputs": [
        {
          "indexed": true,
          "internalType": "bytes32",
          "name": "userOpHash",
          "type": "bytes32"
        },
        {
          "indexed": true,
          "internalType": "address",
          "name": "sender",
          "type": "address"
        },
        {
          "indexed": false,
          "internalType": "bool",
          "name": "success",
          "type": "bool"
        }
      ],
      "name": "UserOperationEvent",
      "type": "event"
    },
    {
      "inputs": [
        {
          "components": [
            {
              "internalType": "address",
              "name": "sender",
              "type": "address"
            },
            {
              "internalType": "uint256",
              "name": "nonce",
              "type": "uint256"
            },
            {
              "internalType": "bytes",
              "name": "initCode",
              "type": "bytes"
            },
            {
              "internalType": "bytes",
              "name": "callData",
              "type": "bytes"
            },
            {
              "internalType": "uint256",
              "name": "callGasLimit",
              "type": "uint256"
            },
            {
              "internalType": "uint256",
              "name": "verificationGasLimit",
              "type": "uint256"
            },
            {
              "internalType": "uint256",
              "name": "preVerificationGas",
              "type": "uint256"
            },
            {
              "internalType": "uint256",
              "name": "maxFeePerGas",
              "type": "uint256"
            },
            {
              "internalType": "uint256",
              "name": "maxPriorityFeePerGas",
              "type": "uint256"
            },
            {
              "internalType": "bytes",
              "name": "paymasterAndData",
              "type": "bytes"
            },
            {
              "internalType": "bytes",
              "name": "signature",
              "type": "bytes"
            }
          ],
          "internalType": "struct UserOperation[]",
          "name": "ops",
          "type": "tuple[]"
        }
      ],
      "name": "handleOps",
      "outputs": [],
      "stateMutability": "nonpayable",
      "type": "function"
    }
  ],
  "bytecode": "0x6080806040523460155761067b908161001a8239f35b5f80fdfe60a06040526004361015610011575f80fd5b5f3560e01c63532d3ac914610024575f80fd5b34610502576020366003190112610502576004356001600160401b03811161050257366023820112156105025780600401356001600160401b038111610502573660248260051b84010111610502573682900361018219015f5b828110156105485760248160051b850101356080528160805112156105025760805184016024810191903603602319016101608112610502576040519261016084018481106001600160401b03821117610534576040526100de8161057f565b845260446080518801013591826020860152606460805189010180356001600160401b0381116105025761011c90602436916080518d0101016105ff565b956040810196875260846080518b0101908135926001600160401b038411610502576024848d60805101010198610153368b6105ff565b606084019081528d608085019160a460805183010135835260c4608051830101359560a081019287845260c082019560e460805183010135875260e083019161010460805182010135835261012460805182010135610100850152610144608051820101356001600160401b038111610502576101da9060243691608051850101016105ff565b610120850152610164608051820101356001600160401b03811161050257369160805101016024019061020c916105ff565b6101408401525180519060200120925180519060200120956101208301518051906020012094600160a01b600190038451169760208501519751915192519351946101000151956040519860208a019a8b5260408a01526060890152608088015260a087015260c086015260e0850152610100840152610120830152610140820152306101608201524661018082015261018081526102ad6101a08261055e565b519020968c6001600160a01b036102c38961054a565b604051633a871cdd60e01b81526060600482015296911694869485949192916001600160a01b036102f38d61057f565b1660648701526084860152610308908b610593565b60a4860161016090526101c4860190610320926105c4565b9061032b908b610593565b8583036063190160c487015261034192916105c4565b916080510160a4013560e48401526101048301528d6080510160e401356101248301528d6080510161010401356101448301528d6080510161012401356101648301528d60805101610144016103979089610593565b838303606319016101848501526103ae92916105c4565b8d60805101610164016103c19089610593565b838303606319016101a48501526103d892916105c4565b886024830152604482015f905203815a6020945f91f19081610506575b506104455750600194506001600160a01b0391610412915061054a565b16907f980a558f47f59a27189b156378a6cc54c9db5693b11ac559c5fa9fb29eb7871960206040515f8152a35b0161007e565b61045083949361054a565b91601e19011315610502578435946001600160401b03861161050257602001908536038213610502575f8060209288827f980a558f47f59a27189b156378a6cc54c9db5693b11ac559c5fa9fb29eb787199660019b6040519384928337810182815203925af1933d156104fd573d6104c7816105e4565b906104d5604051928361055e565b81525f833d92013e5b6104ed878060a01b039161054a565b16936040519015158152a361043f565b6104de565b5f80fd5b6020813d821161052c575b8161051e6020938361055e565b8101031261050257516103f5565b3d9150610511565b634e487b7160e01b5f52604160045260245ffd5b005b356001600160a01b03811681036105025790565b90601f801991011681019081106001600160401b0382111761053457604052565b35906001600160a01b038216820361050257565b9035601e19823603018112156105025701602081359101916001600160401b03821161050257813603831361050257565b908060209392818452848401375f828201840152601f01601f1916010190565b6001600160401b03811161053457601f01601f191660200190565b81601f8201121561050257803590610616826105e4565b92610624604051948561055e565b8284526020838301011161050257815f92602080930183860137830101529056fea264697066735822122041bd0cbb6d939b792c50624a576cfef7babc90729d8d67cd4e2e62b13c3c354564736f6c634300081a0033",
  "linkReferences": {},
  "deployedLinkReferences": {},
  "immutableReferences": {},
  "inputSourceName": "project/solidity/tests/contracts/account_abstraction/entrypoint/SimpleEntryPoint.sol",
  "buildInfoId": "solc-0_8_26-6ec4f0c6b3691526d7b3a3a19b37097670fc2b6e"
}