{
  "_format": "hh-sol-artifact-1",
  "contractName": "SimpleEntryPoint",
  "sourceName": "solidity/tests/contracts/account_abstraction/entrypoint/SimpleEntryPoint.sol",
  "abi": [
    {
      "anonymous": false,
      "inputs": [
        {
          "indexed": true,
          "internalType": "bytes32",
          "name": "userOpHash",
          "type": "bytes32"
        },
        {
          "indexed": true,
          "internalType": "address",
          "name": "sender",
          "type": "address"
        },
        {
          "indexed": false,
          "internalType": "bool",
          "name": "success",
          "type": "bool"
        }
      ],
      "name": "UserOperationEvent",
      "type": "event"
    },
    {
      "inputs": [
        {
          "components": [
            {
              "internalType": "address",
              "name": "sender",
              "type": "address"
            },
            {
              "internalType": "uint256",
              "name": "nonce",
              "type": "uint256"
            },
            {
              "internalType": "bytes",
              "name": "initCode",
              "type": "bytes"
            },
            {
              "internalType": "bytes",
              "name": "callData",
              "type": "bytes"
            },
            {
              "internalType": "uint256",
              "name": "callGasLimit",
              "type": "uint256"
            },
            {
              "internalType": "uint256",
              "name": "verificationGasLimit",
              "type": "uint256"
            },
            {
              "internalType": "uint256",
              "name": "preVerificationGas",
              "type": "uint256"
            },
            {
              "internalType": "uint256",
              "name": "maxFeePerGas",
              "type": "uint256"
            },
            {
              "internalType": "uint256",
              "name": "maxPriorityFeePerGas",
              "type": "uint256"
            },
            {
              "internalType": "bytes",
              "name": "paymasterAndData",
              "type": "bytes"
            },
            {
              "internalType": "bytes",
              "name": "signature",
              "type": "bytes"
            }
          ],
          "internalType": "struct UserOperation[]",
          "name": "ops",
          "type": "tuple[]"
        }
      ],
      "name": "handleOps",
      "outputs": [],
      "stateMutability": "nonpayable",
      "type": "function"
    }
  ],
  "bytecode": "0x608080604052346100165761073d908161001c8239f35b600080fdfe6080604052600436101561001257600080fd5b60003560e01c63532d3ac91461002757600080fd5b346105c05760203660031901126105c0576001600160401b03600435116105c0573660236004350112156105c0576001600160401b0360043560040135116105c0573660246004356004013560051b6004350101116105c05760005b60043560040135811061009257005b60248160051b600435010135610182196004353603018112156105c0576101606004358201360360231901126105c0576040519061016082018281106001600160401b038211176105f4576040526100f0602482600435010161063f565b8252600435810160448101356020840152606401356001600160401b0381116105c0576101279060243691846004350101016106c0565b60408301526001600160401b03608482600435010135116105c0576101593660043583016084810135016024016106c0565b6060830152600435810160a4810135608084015260c481013560a084015260e481013560c084015261010481013560e084015261012481013561010084015261014401356001600160401b0381116105c0576101bf9060243691846004350101016106c0565b610120830152610164816004350101356001600160401b0381116105c0576101f19060243691846004350101016106c0565b61014083015260408201516020815191012091606081015160208151910120610120820151602081519101209160018060a01b0381511694602082015192608083015160a08401519160c08501519361010060e0870151960151966040519a60208c015260408b015260608a0152608089015260a088015260c087015260e08601526101008501526101208401526101408301523061016083015261018046818401528252816101a08101106001600160401b036101a0840111176105f4576101a082016040528151602083012091602060018060a01b036102d9602485600435010161060a565b633a871cdd60e01b6101a085015260606101a4850152166001600160a01b03610308600435860160240161063f565b16610204840152600435840160448101356102248501526104059061034c90610338906064810190602401610653565b610160610244880152610364870191610684565b6103de61037d61036760043589016084810190602401610653565b6102031989860381016102648b01529491610684565b600435880160a481013561028489015260c48101356102a489015260e48101356102c48901526101048101356102e48901526101248101356103048901526103cd90610144810190602401610653565b9084898403016103248a0152610684565b906103f56004358801610164810190602401610653565b9187840301610344880152610684565b90856101c485015260006101e48501526101a08401918461019f199103019060006101a08601915af190816105c5575b506104a8576001600160a01b0390610453906004350160240161060a565b16907f980a558f47f59a27189b156378a6cc54c9db5693b11ac559c5fa9fb29eb78719602060405160008152a35b600019811461049257600101610083565b634e487b7160e01b600052601160045260246000fd5b906104b9602483600435010161060a565b6004358301368190036042190160849091013512156105c0576001600160401b03600435840160848101350160240135116105c0576004358301608481013501602481013536036044909101136105c0576040517f980a558f47f59a27189b156378a6cc54c9db5693b11ac559c5fa9fb29eb787199160209160009182916004358801608481013501602481013590604401823760043588016084810135016024013581018381528190039183905af1933d156105bb573d61057a816106a5565b90610588604051928361061e565b81526000833d92013e5b6001600160a01b03906105ab906004350160240161060a565b16936040519015158152a3610481565b610592565b600080fd5b602090813d83116105ed575b6105df816101a0840161061e565b810103126105c05738610435565b503d6105d1565b634e487b7160e01b600052604160045260246000fd5b356001600160a01b03811681036105c05790565b90601f801991011681019081106001600160401b038211176105f457604052565b35906001600160a01b03821682036105c057565b9035601e19823603018112156105c05701602081359101916001600160401b0382116105c05781360383136105c057565b908060209392818452848401376000828201840152601f01601f1916010190565b6001600160401b0381116105f457601f01601f191660200190565b81601f820112156105c0578035906106d7826106a5565b926106e5604051948561061e565b828452602083830101116105c05781600092602080930183860137830101529056fea2646970667358221220c4b6d97a83251131b51c92a705d4c503ff52fc23bef26ad77a1630a1a983a4b964736f6c63430008140033",
  "linkReferences": {},
  "deployedLinkReferences": {}
}