{
  "_format": "hh3-artifact-1",
  "contractName": "StakingCaller",
  "sourceName": "solidity/precompiles/staking/testdata/StakingCaller.sol",
  "abi": [
    {
      "inputs": [
        {
          "internalType": "address",
          "name": "_contract",
          "type": "address"
        },
        {
          "internalType": "string",
          "name": "_validatorAddr",
          "type": "string"
        },
        {
          "internalType": "uint256",
          "name": "_amount",
          "type": "uint256"
        }
      ],
      "name": "callERC20AndDelegate",
      "outputs": [],
      "stateMutability": "payable",
      "type": "function"
    },
    {
      "inputs": [],
      "name": "counter",
      "outputs": [
        {
          "internalType": "uint256",
          "name": "",
          "type": "uint256"
        }
      ],
      "stateMutability": "view",
      "type": "function"
    },
    {
      "inputs": [
        {
          "internalType": "address",
          "name": "",
          "type": "address"
        },
        {
          "internalType": "string",
          "name": "",
          "type": "string"
        }
      ],
      "name": "delegations",
      "outputs": [
        {
          "internalType": "uint256",
          "name": "",
          "type": "uint256"
        }
      ],
      "stateMutability": "view",
      "type": "function"
    },
    {
      "inputs": [
        {
          "internalType": "address",
          "name": "_delegatorAddr",
          "type": "address"
        },
        {
          "internalType": "string",
          "name": "_validatorAddr",
          "type": "string"
        }
      ],
      "name": "getDelegation",
      "outputs": [
        {
          "internalType": "uint256",
          "name": "shares",
          "type": "uint256"
        },
        {
          "components": [
            {
              "internalType": "string",
              "name": "denom",
              "type": "string"
            },
            {
              "internalType": "uint256",
              "name": "amount",
              "type": "uint256"
            }
          ],
          "internalType": "struct Coin",
          "name": "balance",
          "type": "tuple"
        }
      ],
      "stateMutability": "view",
      "type": "function"
    },
    {
      "inputs": [
        {
          "internalType": "address",
          "name": "_delegatorAddr",
          "type": "address"
        },
        {
          "internalType": "string",
          "name": "_validatorSrcAddr",
          "type": "string"
        },
        {
          "internalType": "string",
          "name": "_validatorDstAddr",
          "type": "string"
        }
      ],
      "name": "getRedelegation",
      "outputs": [
        {
          "components": [
            {
              "internalType": "string",
              "name": "delegatorAddress",
              "type": "string"
            },
            {
              "internalType": "string",
              "name": "validatorSrcAddress",
              "type": "string"
            },
            {
              "internalType": "string",
              "name": "validatorDstAddress",
              "type": "string"
            },
            {
              "components": [
                {
                  "internalType": "int64",
                  "name": "creationHeight",
                  "type": "int64"
                },
                {
                  "internalType": "int64",
                  "name": "completionTime",
                  "type": "int64"
                },
                {
                  "internalType": "uint256",
                  "name": "initialBalance",
                  "type": "uint256"
                },
                {
                  "internalType": "uint256",
                  "name": "sharesDst",
                  "type": "uint256"
                }
              ],
              "internalType": "struct RedelegationEntry[]",
              "name": "entries",
              "type": "tuple[]"
            }
          ],
          "internalType": "struct RedelegationOutput",
          "name": "redelegation",
          "type": "tuple"
        }
      ],
      "stateMutability": "view",
      "type": "function"
    },
    {
      "inputs": [
        {
          "internalType": "address",
          "name": "_delegatorAddr",
          "type": "address"
        },
        {
          "internalType": "string",
          "name": "_validatorSrcAddr",
          "type": "string"
        },
        {
          "internalType": "string",
          "name": "_validatorDstAddr",
          "type": "string"
        },
        {
          "components": [
            {
              "internalType": "bytes",
              "name": "key",
              "type": "bytes"
            },
            {
              "internalType": "uint64",
              "name": "offset",
              "type": "uint64"
            },
            {
              "internalType": "uint64",
              "name": "limit",
              "type": "uint64"
            },
            {
              "internalType": "bool",
              "name": "countTotal",
              "type": "bool"
            },
            {
              "internalType": "bool",
              "name": "reverse",
              "type": "bool"
            }
          ],
          "internalType": "struct PageRequest",
          "name": "_pageRequest",
          "type": "tuple"
        }
      ],
      "name": "getRedelegations",
      "outputs": [
        {
          "components": [
            {
              "components": [
                {
                  "internalType": "string",
                  "name": "delegatorAddress",
                  "type": "string"
                },
                {
                  "internalType": "string",
                  "name": "validatorSrcAddress",
                  "type": "string"
                },
                {
                  "internalType": "string",
                  "name": "validatorDstAddress",
                  "type": "string"
                },
                {
                  "components": [
                    {
                      "internalType": "int64",
                      "name": "creationHeight",
                      "type": "int64"
                    },
                    {
                      "internalType": "int64",
                      "name": "completionTime",
                      "type": "int64"
                    },
                    {
                      "internalType": "uint256",
                      "name": "initialBalance",
                      "type": "uint256"
                    },
                    {
                      "internalType": "uint256",
                      "name": "sharesDst",
                      "type": "uint256"
                    }
                  ],
                  "internalType": "struct RedelegationEntry[]",
                  "name": "entries",
                  "type": "tuple[]"
                }
              ],
              "internalType": "struct Redelegation",
              "name": "redelegation",
              "type": "tuple"
            },
            {
              "components": [
                {
                  "components": [
                    {
                      "internalType": "int64",
                      "name": "creationHeight",
                      "type": "int64"
                    },
                    {
                      "internalType": "int64",
                      "name": "completionTime",
                      "type": "int64"
                    },
                    {
                      "internalType": "uint256",
                      "name": "initialBalance",
                      "type": "uint256"
                    },
                    {
                      "internalType": "uint256",
                      "name": "sharesDst",
                      "type": "uint256"
                    }
                  ],
                  "internalType": "struct RedelegationEntry",
                  "name": "redelegationEntry",
                  "type": "tuple"
                },
                {
                  "internalType": "uint256",
                  "name": "balance",
                  "type": "uint256"
                }
              ],
              "internalType": "struct RedelegationEntryResponse[]",
              "name": "entries",
              "type": "tuple[]"
            }
          ],
          "internalType": "struct RedelegationResponse[]",
          "name": "response",
          "type": "tuple[]"
        },
        {
          "components": [
            {
              "internalType": "bytes",
              "name": "nextKey",
              "type": "bytes"
            },
            {
              "internalType": "uint64",
              "name": "total",
              "type": "uint64"
            }
          ],
          "internalType": "struct PageResponse",
          "name": "pageResponse",
          "type": "tuple"
        }
      ],
      "stateMutability": "view",
      "type": "function"
    },
    {
      "inputs": [
        {
          "internalType": "address",
          "name": "_delegatorAddr",
          "type": "address"
        },
        {
          "internalType": "string",
          "name": "_validatorAddr",
          "type": "string"
        }
      ],
      "name": "getUnbondingDelegation",
      "outputs": [
        {
          "components": [
            {
              "internalType": "string",
              "name": "delegatorAddress",
              "type": "string"
            },
            {
              "internalType": "string",
              "name": "validatorAddress",
              "type": "string"
            },
            {
              "components": [
                {
                  "internalType": "int64",
                  "name": "creationHeight",
                  "type": "int64"
                },
                {
                  "internalType": "int64",
                  "name": "completionTime",
                  "type": "int64"
                },
                {
                  "internalType": "uint256",
                  "name": "initialBalance",
                  "type": "uint256"
                },
                {
                  "internalType": "uint256",
                  "name": "balance",
                  "type": "uint256"
                },
                {
                  "internalType": "uint64",
                  "name": "unbondingId",
                  "type": "uint64"
                },
                {
                  "internalType": "int64",
                  "name": "unbondingOnHoldRefCount",
                  "type": "int64"
                }
              ],
              "internalType": "struct UnbondingDelegationEntry[]",
              "name": "entries",
              "type": "tuple[]"
            }
          ],
          "internalType": "struct UnbondingDelegationOutput",
          "name": "unbondingDelegation",
          "type": "tuple"
        }
      ],
      "stateMutability": "view",
      "type": "function"
    },
    {
      "inputs": [
        {
          "internalType": "address",
          "name": "_validatorAddr",
          "type": "address"
        }
      ],
      "name": "getValidator",
      "outputs": [
        {
          "components": [
            {
              "internalType": "string",
              "name": "operatorAddress",
              "type": "string"
            },
            {
              "internalType": "string",
              "name": "consensusPubkey",
              "type": "string"
            },
            {
              "internalType": "bool",
              "name": "jailed",
              "type": "bool"
            },
            {
              "internalType": "enum BondStatus",
              "name": "status",
              "type": "uint8"
            },
            {
              "internalType": "uint256",
              "name": "tokens",
              "type": "uint256"
            },
            {
              "internalType": "uint256",
              "name": "delegatorShares",
              "type": "uint256"
            },
            {
              "components": [
                {
                  "internalType": "string",
                  "name": "moniker",
                  "type": "string"
                },
                {
                  "internalType": "string",
                  "name": "identity",
                  "type": "string"
                },
                {
                  "internalType": "string",
                  "name": "website",
                  "type": "string"
                },
                {
                  "internalType": "string",
                  "name": "securityContact",
                  "type": "string"
                },
                {
                  "internalType": "string",
                  "name": "details",
                  "type": "string"
                }
              ],
              "internalType": "struct Description",
              "name": "description",
              "type": "tuple"
            },
            {
              "internalType": "int64",
              "name": "unbondingHeight",
              "type": "int64"
            },
            {
              "internalType": "int64",
              "name": "unbondingTime",
              "type": "int64"
            },
            {
              "internalType": "uint256",
              "name": "commission",
              "type": "uint256"
            },
            {
              "internalType": "uint256",
              "name": "minSelfDelegation",
              "type": "uint256"
            }
          ],
          "internalType": "struct Validator",
          "name": "validator",
          "type": "tuple"
        }
      ],
      "stateMutability": "view",
      "type": "function"
    },
    {
      "inputs": [
        {
          "internalType": "string",
          "name": "_status",
          "type": "string"
        },
        {
          "components": [
            {
              "internalType": "bytes",
              "name": "key",
              "type": "bytes"
            },
            {
              "internalType": "uint64",
              "name": "offset",
              "type": "uint64"
            },
            {
              "internalType": "uint64",
              "name": "limit",
              "type": "uint64"
            },
            {
              "internalType": "bool",
              "name": "countTotal",
              "type": "bool"
            },
            {
              "internalType": "bool",
              "name": "reverse",
              "type": "bool"
            }
          ],
          "internalType": "struct PageRequest",
          "name": "_pageRequest",
          "type": "tuple"
        }
      ],
      "name": "getValidators",
      "outputs": [
        {
          "components": [
            {
              "internalType": "string",
              "name": "operatorAddress",
              "type": "string"
            },
            {
              "internalType": "string",
              "name": "consensusPubkey",
              "type": "string"
            },
            {
              "internalType": "bool",
              "name": "jailed",
              "type": "bool"
            },
            {
              "internalType": "enum BondStatus",
              "name": "status",
              "type": "uint8"
            },
            {
              "internalType": "uint256",
              "name": "tokens",
              "type": "uint256"
            },
            {
              "internalType": "uint256",
              "name": "delegatorShares",
              "type": "uint256"
            },
            {
              "components": [
                {
                  "internalType": "string",
                  "name": "moniker",
                  "type": "string"
                },
                {
                  "internalType": "string",
                  "name": "identity",
                  "type": "string"
                },
                {
                  "internalType": "string",
                  "name": "website",
                  "type": "string"
                },
                {
                  "internalType": "string",
                  "name": "securityContact",
                  "type": "string"
                },
                {
                  "internalType": "string",
                  "name": "details",
                  "type": "string"
                }
              ],
              "internalType": "struct Description",
              "name": "description",
              "type": "tuple"
            },
            {
              "internalType": "int64",
              "name": "unbondingHeight",
              "type": "int64"
            },
            {
              "internalType": "int64",
              "name": "unbondingTime",
              "type": "int64"
            },
            {
              "internalType": "uint256",
              "name": "commission",
              "type": "uint256"
            },
            {
              "internalType": "uint256",
              "name": "minSelfDelegation",
              "type": "uint256"
            }
          ],
          "internalType": "struct Validator[]",
          "name": "validators",
          "type": "tuple[]"
        },
        {
          "components": [
            {
              "internalType": "bytes",
              "name": "nextKey",
              "type": "bytes"
            },
            {
              "internalType": "uint64",
              "name": "total",
              "type": "uint64"
            }
          ],
          "internalType": "struct PageResponse",
          "name": "pageResponse",
          "type": "tuple"
        }
      ],
      "stateMutability": "view",
      "type": "function"
    },
    {
      "inputs": [
        {
          "internalType": "address",
          "name": "_delegatorAddr",
          "type": "address"
        },
        {
          "internalType": "string",
          "name": "_validatorAddr",
          "type": "string"
        },
        {
          "internalType": "string",
          "name": "_calltype",
          "type": "string"
        }
      ],
      "name": "testCallDelegation",
      "outputs": [
        {
          "internalType": "uint256",
          "name": "shares",
          "type": "uint256"
        },
        {
          "components": [
            {
              "internalType": "string",
              "name": "denom",
              "type": "string"
            },
            {
              "internalType": "uint256",
              "name": "amount",
              "type": "uint256"
            }
          ],
          "internalType": "struct Coin",
          "name": "coin",
          "type": "tuple"
        }
      ],
      "stateMutability": "nonpayable",
      "type": "function"
    },
    {
      "inputs": [
        {
          "internalType": "string",
          "name": "_validatorAddr",
          "type": "string"
        },
        {
          "internalType": "uint256",
          "name": "_amount",
          "type": "uint256"
        },
        {
          "internalType": "string",
          "name": "_calltype",
          "type": "string"
        }
      ],
      "name": "testCallUndelegate",
      "outputs": [],
      "stateMutability": "nonpayable",
      "type": "function"
    },
    {
      "inputs": [
        {
          "internalType": "string",
          "name": "_validatorAddr",
          "type": "string"
        },
        {
          "internalType": "uint256",
          "name": "_amount",
          "type": "uint256"
        },
        {
          "internalType": "uint256",
          "name": "_creationHeight",
          "type": "uint256"
        }
      ],
      "name": "testCancelUnbonding",
      "outputs": [],
      "stateMutability": "nonpayable",
      "type": "function"
    },
    {
      "inputs": [
        {
          "components": [
            {
              "internalType": "string",
              "name": "moniker",
              "type": "string"
            },
            {
              "internalType": "string",
              "name": "identity",
              "type": "string"
            },
            {
              "internalType": "string",
              "name": "website",
              "type": "string"
            },
            {
              "internalType": "string",
              "name": "securityContact",
              "type": "string"
            },
            {
              "internalType": "string",
              "name": "details",
              "type": "string"
            }
          ],
          "internalType": "struct Description",
          "name": "_descr",
          "type": "tuple"
        },
        {
          "components": [
            {
              "internalType": "uint256",
              "name": "rate",
              "type": "uint256"
            },
            {
              "internalType": "uint256",
              "name": "maxRate",
              "type": "uint256"
            },
            {
              "internalType": "uint256",
              "name": "maxChangeRate",
              "type": "uint256"
            }
          ],
          "internalType": "struct CommissionRates",
          "name": "_commRates",
          "type": "tuple"
        },
        {
          "internalType": "uint256",
          "name": "_minSelfDel",
          "type": "uint256"
        },
        {
          "internalType": "address",
          "name": "_valAddr",
          "type": "address"
        },
        {
          "internalType": "string",
          "name": "_pubkey",
          "type": "string"
        },
        {
          "internalType": "uint256",
          "name": "_value",
          "type": "uint256"
        }
      ],
      "name": "testCreateValidator",
      "outputs": [
        {
          "internalType": "bool",
          "name": "",
          "type": "bool"
        }
      ],
      "stateMutability": "nonpayable",
      "type": "function"
    },
    {
      "inputs": [
        {
          "internalType": "string",
          "name": "_validatorAddr",
          "type": "string"
        }
      ],
      "name": "testDelegate",
      "outputs": [],
      "stateMutability": "payable",
      "type": "function"
    },
    {
      "inputs": [
        {
          "internalType": "string",
          "name": "_validatorAddr",
          "type": "string"
        }
      ],
      "name": "testDelegateAndFailCustomLogic",
      "outputs": [],
      "stateMutability": "payable",
      "type": "function"
    },
    {
      "inputs": [
        {
          "internalType": "string",
          "name": "_validatorAddr",
          "type": "string"
        }
      ],
      "name": "testDelegateIncrementCounter",
      "outputs": [],
      "stateMutability": "payable",
      "type": "function"
    },
    {
      "inputs": [
        {
          "components": [
            {
              "internalType": "string",
              "name": "moniker",
              "type": "string"
            },
            {
              "internalType": "string",
              "name": "identity",
              "type": "string"
            },
            {
              "internalType": "string",
              "name": "website",
              "type": "string"
            },
            {
              "internalType": "string",
              "name": "securityContact",
              "type": "string"
            },
            {
              "internalType": "string",
              "name": "details",
              "type": "string"
            }
          ],
          "internalType": "struct Description",
          "name": "_descr",
          "type": "tuple"
        },
        {
          "internalType": "address",
          "name": "_valAddr",
          "type": "address"
        },
        {
          "internalType": "int256",
          "name": "_commRate",
          "type": "int256"
        },
        {
          "internalType": "int256",
          "name": "_minSelfDel",
          "type": "int256"
        }
      ],
      "name": "testEditValidator",
      "outputs": [
        {
          "internalType": "bool",
          "name": "",
          "type": "bool"
        }
      ],
      "stateMutability": "nonpayable",
      "type": "function"
    },
    {
      "inputs": [
        {
          "internalType": "string",
          "name": "_validatorSrcAddr",
          "type": "string"
        },
        {
          "internalType": "string",
          "name": "_validatorDstAddr",
          "type": "string"
        },
        {
          "internalType": "uint256",
          "name": "_amount",
          "type": "uint256"
        }
      ],
      "name": "testRedelegate",
      "outputs": [],
      "stateMutability": "nonpayable",
      "type": "function"
    },
    {
      "inputs": [
        {
          "internalType": "string",
          "name": "_validatorAddr",
          "type": "string"
        },
        {
          "internalType": "uint256",
          "name": "_amount",
          "type": "uint256"
        }
      ],
      "name": "testUndelegate",
      "outputs": [],
      "stateMutability": "nonpayable",
      "type": "function"
    },
    {
      "inputs": [
        {
          "internalType": "address",
          "name": "",
          "type": "address"
        },
        {
          "internalType": "uint256",
          "name": "",
          "type": "uint256"
        }
      ],
      "name": "unbondingDelegations",
      "outputs": [
        {
          "internalType": "string",
          "name": "validator",
          "type": "string"
        },
        {
          "internalType": "uint256",
          "name": "amount",
          "type": "uint256"
        },
        {
          "internalType": "uint256",
          "name": "creationHeight",
          "type": "uint256"
        },
        {
          "internalType": "int64",
          "name": "completionTime",
          "type": "int64"
        }
      ],
      "stateMutability": "view",
      "type": "function"
    }
  ],
  "bytecode": "0x60803462000260576020906001600160401b03818301818111838210176200024c5760808301818110838211176200024c57604052602381527f2f636f736d6f732e7374616b696e672e763162657461312e4d736744656c656760408401526261746560e81b60608401528252600390815492600193848455808510620001ce575b505f8381528581209095869390925b868510620000a8576040516130359081620002b88239f35b8051908151838111620001ba5788918691620000c5875462000264565b948c601f96858882116200017f575b5050508c849683116001146200011a579582918697926200010e575b50505f19828c1b1c191690841b1786555b0193019401939162000090565b015190505f80620000f0565b9095601f198316898352858320925b8181106200016757509086978488959493106200014f575b505050811b01865562000101565b01515f19838e1b60f8161c191690555f808062000141565b8289015184558e978c97940193928301920162000129565b828b620001a7945220600589808701821c830193898810620001b0575b01901c01906200029f565b8c5f85620000d4565b935082936200019c565b634e487b7160e01b8a52604160045260248afd5b5f848152858088832093840193015b838110620001ee5750505062000081565b82620001fb825462000264565b806200020d575b5050018690620001dd565b601f8082116001146200022757505081555b825f62000202565b62000242908484528c8420920160051c82018583016200029f565b818355556200021f565b634e487b7160e01b5f52604160045260245ffd5b5f80fd5b90600182811c9216801562000294575b60208310146200028057565b634e487b7160e01b5f52602260045260245ffd5b91607f169162000274565b818110620002ab575050565b5f81556001016200029f56fe60806040526004361015610011575f80fd5b5f3560e01c8063088b32b1146101545780631904bb2e1461014f57806319b16c4c1461014a5780632345e7d41461014557806329e71c821461014057806331bcbcb31461013b578063455b855114610136578063464d2d0314610131578063569c21e31461012c578063570467ac1461012757806361bc221a1461012257806368ac3df31461011d578063a4603a2e14610118578063af9a90b214610113578063b13d42421461010e578063b3e9823414610109578063b61b519714610104578063cf2753cf146100ff578063ddbaf2c2146100fa5763f732b065146100f5575f80fd5b611bea565b611a7a565b6119e1565b611974565b61187c565b61173c565b6115db565b611480565b6113f9565b6113ce565b61130d565b6111f5565b61117b565b610f79565b610d73565b610c76565b610a50565b6107d3565b61059b565b6103c8565b600435906001600160a01b038216820361016f57565b5f80fd5b60a435906001600160a01b038216820361016f57565b602435906001600160a01b038216820361016f57565b80548210156101b8575f5260205f209060021b01905f90565b634e487b7160e01b5f52603260045260245ffd5b90600182811c921680156101fa575b60208310146101e657565b634e487b7160e01b5f52602260045260245ffd5b91607f16916101db565b634e487b7160e01b5f52604160045260245ffd5b61016081019081106001600160401b0382111761023457604052565b610204565b60a081019081106001600160401b0382111761023457604052565b606081019081106001600160401b0382111761023457604052565b60c081019081106001600160401b0382111761023457604052565b608081019081106001600160401b0382111761023457604052565b604081019081106001600160401b0382111761023457604052565b90601f801991011681019081106001600160401b0382111761023457604052565b9060405191825f8254926102f4846101cc565b9081845260019485811690815f1461035f575060011461031f575b505061031d925003836102c0565b565b909391505f52602090815f20935f915b81831061034757505061031d93508201015f8061030f565b8554888401850152948501948794509183019161032f565b91505061031d94506020925060ff191682840152151560051b8201015f8061030f565b5f5b8381106103935750505f910152565b8181015183820152602001610384565b906020916103bc81518092818552858086019101610382565b601f01601f1916010190565b3461016f57604036600319011261016f576103e1610159565b6001600160a01b03165f9081526001602052604090208054602435919082101561016f57610445916104129161019f565b5061041c816102e1565b906001810154906003600282015491015460070b906040519485946080865260808601906103a3565b926020850152604084015260608301520390f35b9060048210156104665752565b634e487b7160e01b5f52602160045260245ffd5b6104e39160806104d26104c06104ae61049c865160a0875260a08701906103a3565b602087015186820360208801526103a3565b604086015185820360408701526103a3565b606085015184820360608601526103a3565b9201519060808184039101526103a3565b90565b9061055661051261050084516101608086528501906103a3565b602085015184820360208601526103a3565b60408481015115159084015261053060608501516060850190610459565b6080840151608084015260a084015160a084015260c084015183820360c085015261047a565b60e08084015160070b90830152916101008181015160070b9083015261012080820151908301526101408091015191015290565b9060206104e39281815201906104e6565b3461016f57602036600319011261016f5761014061065e6105ba610159565b6040908151906105c982610218565b60608083528060208401525f958387949285878195015283818301528360808301528360a08301528651906105fd82610239565b80825260208201819052878201819052818101819052608082015260c082015260e08101839052610100810183905261012081018390520152825163111d9dbd60e11b81526001600160a01b03909116600482015292839081906024820190565b03816108005afa9182156106ac57836106839493610687575b5050519182918261058a565b0390f35b6106a49293503d8091833e61069c81836102c0565b81019061286b565b905f80610677565b611df4565b6040519061031d826102a5565b6040519061031d82610239565b6040519061031d82610218565b6040519061031d8261028a565b6001600160401b03811161023457601f01601f191660200190565b92919261070c826106e5565b9161071a60405193846102c0565b82948184528183011161016f578281602093845f960137010152565b9080601f8301121561016f578160206104e393359101610700565b606060031982011261016f576004356001600160a01b038116810361016f57916001600160401b0360243581811161016f578361079091600401610736565b9260443591821161016f576104e391600401610736565b90815260406020820152606060206107ca845160408086015260808501906103a3565b93015191015290565b3461016f576107e136610751565b5f9291926107ed612890565b506040938451916020948584019463120bba7360e11b865284610814858460248401612a29565b0390610828601f19928381018852876102c0565b88516108478161083b8b82018095611a63565b038481018352826102c0565b519020908851888101906108728161083b84600c906b19195b1959d85d1958d85b1b60a21b81520190565b51902082036108c0575050505050915f806108b293610683969551906108005af4906108a561089f612e6f565b92612f32565b80825183010191016129c9565b9290915b51928392836107a7565b8851691cdd185d1a58d8d85b1b60b21b898201908152906108e481600a840161083b565b519020820361091f575050505050915f8061091793610683969551906108005afa906108a5610911612e6f565b92612ee6565b9290916108b6565b88516318d85b1b60e21b8982019081529061093d816004840161083b565b5190208203610971575050505050915f806109179361068396955190826108005af1906108a561096b612e6f565b92612e9e565b9193955091935086516109a7878201928261099b856008906763616c6c636f646560c01b81520190565b039081018352826102c0565b51902003610a345760a460c0926109d26109bf612f88565b8051908801206001600160e01b03191690565b908787870151960151885196879586948552600485015289602485015260336044850152606484015260848301526108005af2918151926101006060840151930185521561016f5761068391610a266106b1565b9160608352820152926108b6565b845162461bcd60e51b815280610a4c60048201612e44565b0390fd5b3461016f57606036600319011261016f576001600160401b0360043581811161016f57610a81903690600401610736565b6024359160443590811161016f57610a9d903690600401610736565b91610aa6612023565b6040805160209485820192630fb6accf60e21b845282610acb86883060248501611ea4565b0391610adf601f19938481018652856102c0565b8151610afe81610af28b82018095611a63565b038581018352826102c0565b519020610b13610b0d42611f20565b60070b90565b92825189810190610b3b8161083b84600c906b19195b1959d85d1958d85b1b60a21b81520190565b5190208203610b7b5750505050935f80610b7393610b799751906108005af490610b6661089f612e6f565b8082518301019101612153565b916121aa565b005b8251691cdd185d1a58d8d85b1b60b21b8a820190815290610b9f81600a840161083b565b5190208203610bca5750505050935f80610b7393610b799751906108005afa90610b66610911612e6f565b82516318d85b1b60e21b8a820190815290610be8816004840161083b565b5190208203610c145750505050935f80610b7393610b79975190826108005af190610b6661096b612e6f565b9091929697610c3c8451918201928261099b856008906763616c6c636f646560c01b81520190565b51902003610c5f57505f9182915190826108005af21561016f57610b79926121aa565b5162461bcd60e51b815280610a4c60048201612e44565b3461016f57604036600319011261016f576004356001600160401b03811161016f57610ca6903690600401610736565b602435610cb38183612314565b610cbb612023565b604051630fb6accf60e21b81529060208280610cdc84873060048501611ea4565b03815f6108005af19182156106ac575f92610d43575b505f8260070b1315610d0757610b79926121aa565b60405162461bcd60e51b81526020600482015260146024820152734661696c656420746f20756e64656c656761746560601b6044820152606490fd5b610d6591925060203d8111610d6c575b610d5d81836102c0565b810190612153565b905f610cf2565b503d610d53565b606036600319011261016f57610d87610159565b6024356001600160401b03811161016f57610da6903690600401610736565b610dae612023565b60405163a9059cbb60e01b6020820190815233602483015260448035818401528252610df891610ddf6064826102c0565b5f94859283809351925af1610df2612e6f565b50612fc1565b6040516353266bbb60e01b81529060208280610e1934853060048501611ea4565b0381866108005af19182156106ac57610e4592610e3d918591610e48575b50611ece565b349033611f30565b80f35b610e69915060203d8111610e6f575b610e6181836102c0565b810190611cf9565b5f610e37565b503d610e57565b90604060031983011261016f576004356001600160a01b038116810361016f5791602435906001600160401b03821161016f576104e391600401610736565b906020908183528051916060928382860152610ed6608091828701906103a3565b93828401519581601f1997610ef760409889928b86830301848701526103a3565b96015197828703019101528280875195868152019601945f925b858410610f22575050505050505090565b86518051600790810b8a5281870151810b8a880152818401518a850152818501518a860152818301516001600160401b03168a84015260a091820151900b9089015260c09097019695840195600190930192610f11565b3461016f57610f8736610e76565b906040805191610f9683610254565b60609384845284836020958287820152015282519163a03ffee160e01b83528280610fc75f94859460048401612a29565b03816108005afa9384156106ac578194610fe9575b8351806106838782610eb5565b90919293503d8083853e610ffd81856102c0565b83019080848303126111415783516001600160401b039485821161114957019386858403126111455785519461103286610254565b805182811161114d57846110479183016126b8565b86528281015182811161114d57846110609183016126b8565b838701528681015191821161114957019180601f8401121561114557825196611088886128a9565b94611095885196876102c0565b888652838601928460c0809b0287010195818711611141578501935b8685106110d15750505050505050610683935082820152905f8080610fdc565b8a8583031261114157858b918b516110e88161026f565b6110f188612145565b81526110fe838901612145565b838201528c8801518d82015286880151878201526080808901519061112282611ac5565b82015260a0611132818a01612145565b908201528152019401936110b1565b8280fd5b8380fd5b8480fd5b8580fd5b602060031982011261016f57600435906001600160401b03821161016f576104e391600401610736565b61118436611151565b61118c612023565b6040516353266bbb60e01b8152806111a934843060048501611ea4565b03916020825f9481866108005af19182156106ac576111d292610e3d918591610e485750611ece565b808034156111ec575b8180809234903390f1156106ac5780f35b506108fc6111db565b6111fe36611151565b611206612023565b6040516353266bbb60e01b8152906020828061122734853060048501611ea4565b03815f6108005af19182156106ac57610b7992610e3d915f91610e485750611ece565b80519061125f608092838552838501906103a3565b606061128c61127a60209384860151888203868a01526103a3565b604085015187820360408901526103a3565b9201519360608184039101528080855193848152019401925f905b8382106112b657505050505090565b90919293948382826112ef6001948a5160608091805160070b8452602081015160070b6020850152604081015160408501520151910152565b01960194939201906112a7565b9060206104e392818152019061124a565b3461016f575f61131c36610751565b9092916113886040519261132f8461028a565b606080858180975281602082015281604082015201526113766040519687958695631f67e4e760e21b875260018060a01b03166004870152602486015260648501906103a3565b838103600319016044850152906103a3565b03816108005afa80156106ac57610683915f916113ad575b50604051918291826112fc565b6113c8913d8091833e6113c081836102c0565b810190612b8c565b5f6113a0565b3461016f575f36600319011261016f576020600254604051908152f35b908160a091031261016f5790565b3461016f5761010036600319011261016f576001600160401b0360043581811161016f5761142b9036906004016113eb565b90606036602319011261016f57611440610173565b9160c43591821161016f576106839261146061146e933690600401610736565b9060e4359260843590611dff565b60405190151581529081906020820190565b3461016f57606036600319011261016f576004356001600160401b03811161016f576114b0903690600401610736565b604435906024356114bf612023565b5f91825b335f528460018060205260405f20548310156115c757335f9081526001602052604090206114f290849061019f565b5061151385611500836102e1565b6020815191012090602081519101201490565b90816115ae575b5061152f57505061152a90611f73565b6114c3565b849550602093919492506001611548915b15151461262b565b611567604051968793849363096ac6ff60e11b855230600486016124c0565b03815f6108005af19283156106ac57610b799361158b915f91611590575b506124f3565b61253f565b6115a8915060203d8111610e6f57610e6181836102c0565b5f611585565b600301546115bf915060070b610b0d565b42105f61151a565b509293849150916115486001602094611540565b3461016f57608036600319011261016f576004356001600160401b03811161016f5761160b9036906004016113eb565b602061163c611618610189565b604051632943c16b60e21b8152608060048201529384928392916084840190611d5f565b6001600160a01b0390911660248301526044803590830152606480359083015203815f6108005af180156106ac57610683915f91611688575b5060405190151581529081906020820190565b6116a0915060203d8111610e6f57610e6181836102c0565b5f611675565b9060206001600160401b03816116c585516040865260408601906103a3565b9401511691015290565b929160408401916040855280518093526060850160608460051b870101936020809301915f905b8282106117125750505050936104e393948184039101526116a6565b90919295848061172e600193605f198d82030186528a516104e6565b9801920192019092916116f6565b3461016f576040600319818136011261016f576001600160401b0360043581811161016f5761176f903690600401610736565b6024359082821161016f575f9261178d6117bb9336906004016113eb565b94611796612890565b506080808851978896879663186b216760e01b88528b600489015260448801906103a3565b938685030160248701526117e06117d28280611d0e565b60a0875260a0870191611d3f565b948060208301356117f081611ac5565b1660208601528a82013561180381611ac5565b168a850152606081013561181681611ae1565b15156060850152013561182881611ae1565b151591015203816108005afa9182156106ac575f918293611853575b506106839051928392836116cf565b611874919350610683923d8091833e61186c81836102c0565b81019061291f565b929091611844565b3461016f5760031960603682011261016f576001600160401b039060043582811161016f576118af903690600401610736565b9160243590811161016f576118c8903690600401610736565b6119166020604435936118db8587612314565b604051809381926354b826f560e01b835230600484015260806024840152611906608484018a6103a3565b90838203016044840152866103a3565b86606483015203815f6108005af19081156106ac57610b799461194a5f6119509487948291611956575b5060070b136123b3565b336123f6565b33611f30565b61196e915060203d8111610d6c57610d5d81836102c0565b5f611940565b61197d36611151565b611985612023565b6040516353266bbb60e01b815290602082806119a634853060048501611ea4565b03815f6108005af19182156106ac576119c992610e3d915f91610e485750611ece565b600254600181018091116119dc57600255005b611f0c565b3461016f57611a185f6119f336610e76565b906119fc612890565b5060405163120bba7360e11b8152938492839260048401612a29565b03816108005afa9081156106ac575f908192611a3f575b50610683604051928392836107a7565b90611a5c92503d8091833e611a5481836102c0565b8101906129c9565b905f611a2f565b90611a7660209282815194859201610382565b0190565b3461016f576020611ab381611a8e36610e76565b9060018060a01b03165f525f825260405f208260405194838680955193849201610382565b82019081520301902054604051908152f35b6001600160401b0381160361016f57565b359061031d82611ac5565b8015150361016f57565b359061031d82611ae1565b92916040918285018386528151809152606086019060608160051b880101946020809401925f91825b848410611b3d57505050505050936104e393948184039101526116a6565b9091929394978690605f198c8203018552895182611b6282518785528785019061124a565b910151918381830391015282808351928381520192019084905b808210611b9b5750505090806001929a01940194019294939190611b1f565b919360a060019294828751611bd583825160608091805160070b8452602081015160070b6020850152604081015160408501520151910152565b01516080820152019401920189939291611b7c565b3461016f5760031960803682011261016f57611c04610159565b6001600160401b039060243582811161016f57611c25903690600401610736565b60443583811161016f57611c3d903690600401610736565b916064359484861161016f5760a090863603011261016f5760405193611c6285610239565b856004013590811161016f578501943660238701121561016f576084611cd491611c99611cde983690602460048201359101610700565b8752611ca760248201611ad6565b6020880152611cb860448201611ad6565b6040880152611cc960648201611aeb565b606088015201611aeb565b6080850152612d58565b9061068360405192839283611af6565b519061031d82611ae1565b9081602091031261016f57516104e381611ae1565b9035601e198236030181121561016f5701602081359101916001600160401b03821161016f57813603831361016f57565b908060209392818452848401375f828201840152601f01601f1916010190565b6104e391611de6611ddb611dc0611da5611d8a611d7c8780611d0e565b60a0885260a0880191611d3f565b611d976020880188611d0e565b908783036020890152611d3f565b611db26040870187611d0e565b908683036040880152611d3f565b611dcd6060860186611d0e565b908583036060870152611d3f565b926080810190611d0e565b916080818503910152611d3f565b6040513d5f823e3d90fd5b9093611e6d611e3193956020956040519788968796637be6aa8b60e11b88526101006004890152610104880190611d5f565b92602435602488015260443560448801526064356064880152608487015260018060a01b031660a48601526003198583030160c48601526103a3565b9060e483015203815f6108005af19081156106ac575f91611e8c575090565b6104e3915060203d8111610e6f57610e6181836102c0565b939291611ec99060409260018060a01b031686526060602087015260608601906103a3565b930152565b15611ed557565b60405162461bcd60e51b815260206004820152600f60248201526e19195b1959d85d194819985a5b1959608a1b6044820152606490fd5b634e487b7160e01b5f52601160045260245ffd5b90621baf8082018092116119dc57565b611f5b9160209160018060a01b03165f525f825260405f208260405194838680955193849201610382565b82019081520301902080549182018092116119dc5755565b5f1981146119dc5760010190565b818110611f8c575050565b5f8155600101611f81565b634e487b7160e01b5f525f60045260245ffd5b9061201157600381611fbd5f93546101cc565b80611fd4575b508260018201558260028201550155565b601f8111600114611fea57508281555b5f611fc3565b8390828252612008601f60208420920160051c820160018301611f81565b81835555611fe4565b611f97565b919082039182116119dc57565b5f5b335f526001602090808252604091825f20805485101561213e57846120499161019f565b509142600384015460070b111561206d575b5050505061206890611f73565b612025565b335f9081526001602052604090206120909061208a90879061019f565b90611faa565b82810154335f908152602081905260409020909451935f928154916120b4836101cc565b9282811690811561212357506001146120ee575b5050508152829003019020805461206893926120e391612016565b9055905f808061205b565b5f90815285812093945091925b8383106121125750505083019083816120686120c8565b8054878401529185019181016120fb565b60ff19168852505050801515028401915083816120686120c8565b5050505050565b51908160070b820361016f57565b9081602091031261016f576104e390612145565b9190601f811161217657505050565b61031d925f5260205f20906020601f840160051c830193106121a0575b601f0160051c0190611f81565b9091508190612193565b9190335f52600160209181835260405f2092604051956121c98761028a565b86528086019182526040860193438552606087019560070b86528054600160401b811015610234576121ff91858201815561019f565b9690966120115751908151916001600160401b0383116102345761222d836122278a546101cc565b8a612167565b81601f841160011461229e5750928260039693612275969361031d9a99965f92612293575b50505f1982891b1c191690831b1787555b51908601555160028501555160070b90565b9101906001600160401b0319825416906001600160401b0316179055565b015190505f80612252565b9190601f1984166122b28a5f5260205f2090565b935f905b8282106122fd57505093869361031d9a99969361227598938360039b98106122e6575b505050811b018755612263565b01515f19838b1b60f8161c191690555f80806122d9565b8089869782949787015181550196019401906122b6565b602061233791335f525f825260405f208260405194838680955193849201610382565b820190815203019020541061234857565b60405162461bcd60e51b815260206004820152603b60248201527f44656c65676174696f6e20646f6573206e6f74206578697374206f7220696e7360448201527f756666696369656e742064656c65676174696f6e20616d6f756e7400000000006064820152608490fd5b156123ba57565b60405162461bcd60e51b81526020600482015260146024820152734661696c656420746f20726564656c656761746560601b6044820152606490fd5b9060018060a01b0382165f525f60205260405f2091836040516020818551968287019761242481848b610382565b820190815203019020541061247b576001600160a01b03165f908152602081815260409091206124779361246693909190604051948593849251928391610382565b820190815203019020918254612016565b9055565b60405162461bcd60e51b815260206004820152601e60248201527f496e73756666696369656e742064656c65676174696f6e20616d6f756e7400006044820152606490fd5b6001600160a01b039091168152608060208201819052929493926060926124e9918301906103a3565b9460408201520152565b156124fa57565b60405162461bcd60e51b815260206004820152601a60248201527f4661696c656420746f2063616e63656c20756e626f6e64696e670000000000006044820152606490fd5b335f52600191602090838252604084815f20945f965b612563575b50505050505050565b855487101561262657612576878761019f565b509080600283015403612614575001928354918383106125c35750509061259c91612016565b809155156125af575b808080808061255a565b6125bc9161208a9161019f565b5f806125a5565b60849250519062461bcd60e51b82526004820152602560248201527f616d6f756e74206578636565647320756e626f6e64696e6720656e74727920616044820152641b5bdd5b9d60da1b6064820152fd5b90506126208297611f73565b96612555565b61255a565b1561263257565b60405162461bcd60e51b815260206004820152602360248201527f556e626f6e64696e672064656c65676174696f6e20646f6573206e6f742065786044820152621a5cdd60ea1b6064820152608490fd5b90929192612690816106e5565b9161269e60405193846102c0565b82948284528282011161016f57602061031d930190610382565b9080601f8301121561016f5781516104e392602001612683565b5190600482101561016f57565b91909160a08184031261016f576126f46106be565b9281516001600160401b039081811161016f57826127139185016126b8565b8552602083015181811161016f578261272d9185016126b8565b6020860152604083015181811161016f578261274a9185016126b8565b6040860152606083015181811161016f57826127679185016126b8565b6060860152608083015190811161016f5761278292016126b8565b6080830152565b9190916101608184031261016f5761279f6106cb565b928151906001600160401b039182811161016f57816127bf9185016126b8565b8552602083015182811161016f57816127d99185016126b8565b60208601526127ea60408401611cee565b60408601526127fb606084016126d2565b60608601526080830151608086015260a083015160a086015260c083015191821161016f5761282b9183016126df565b60c084015261283c60e08201612145565b60e084015261010061284f818301612145565b9084015261012080820151908401526101408091015190830152565b9060208282031261016f5781516001600160401b03811161016f576104e39201612789565b6040519061289d826102a5565b5f602083606081520152565b6001600160401b0381116102345760051b60200190565b91909160408184031261016f57604051906128da826102a5565b819381516001600160401b03811161016f5782019181601f8401121561016f5761290d6020939283858095519101612683565b845201519161291b83611ac5565b0152565b91909160408184031261016f578051926001600160401b039384811161016f5782019381601f8601121561016f578451612958816128a9565b9061296660405192836102c0565b808252602096878084019260051b8201019185831161016f57888201905b8382106129a457505050509483015190811161016f576104e392016128c0565b815186811161016f578a916129be89848094880101612789565b815201910190612984565b91909160408184031261016f5780519260208201516001600160401b039283821161016f570160408183031261016f5760405192612a06846102a5565b815190811161016f57602092612a1d9183016126b8565b83520151602082015290565b6001600160a01b0390911681526040602082018190526104e3929101906103a3565b919082608091031261016f57604051612a638161028a565b6060808294612a7181612145565b8452612a7f60208201612145565b6020850152604081015160408501520151910152565b81601f8201121561016f57805191612aac836128a9565b92612aba60405194856102c0565b808452602091828086019260071b8501019381851161016f578301915b848310612ae657505050505090565b83608091612af48486612a4b565b815201920191612ad7565b91909160808184031261016f57612b146106d8565b9281516001600160401b039081811161016f5782612b339185016126b8565b8552602083015181811161016f5782612b4d9185016126b8565b6020860152604083015181811161016f5782612b6a9185016126b8565b6040860152606083015190811161016f57612b859201612a95565b6060830152565b9060208282031261016f5781516001600160401b03811161016f576104e39201612aff565b9190916040808285031261016f5781516001600160401b03811161016f5784601f82850101121561016f578083015190612bea826128a9565b92612bf7815194856102c0565b82845260208401918760208560051b83890101011161016f57602081870101925b60208560051b83890101018410612c4c5750505050509260208201516001600160401b03811161016f576104e392016128c0565b83516001600160401b03811161016f578288010183601f19828c03011261016f57835190612c79826102a5565b60208101516001600160401b03811161016f578b6020612c9b92840101612aff565b825284810151906001600160401b03821161016f57018a603f8201121561016f576020810151612cca816128a9565b91612cd7875193846102c0565b818352602083018d8860a085028401011161016f57818801908e5b8960a086028501018310612d1b5750505050506020828101919091529082529384019301612c18565b8260a091031261016f5760208f9160a092612d418c5191612d3b836102a5565b86612a4b565b81526080850151838201528152019101908e612cf2565b612da194935f93612d67612890565b50604051630428a14760e21b81526001600160a01b0390931660048401526080602484015291958693849391612db49160848601906103a3565b60031992838683030160448701526103a3565b90838203016064840152608080612dd4845160a0855260a08501906103a3565b936001600160401b0380602083015116602086015260408201511660408501526060810151151560608501520151151591015203816108005afa9182156106ac575f908193612e2257509190565b90612e409293503d8091833e612e3881836102c0565b810190612bb1565b9091565b60609060208152601060208201526f696e76616c69642063616c6c7479706560801b60408201520190565b3d15612e99573d90612e80826106e5565b91612e8e60405193846102c0565b82523d5f602084013e565b606090565b15612ea557565b60405162461bcd60e51b81526020600482015260196024820152786661696c65642063616c6c20746f20707265636f6d70696c6560381b6044820152606490fd5b15612eed57565b60405162461bcd60e51b815260206004820152601f60248201527f6661696c65642073746174696363616c6c20746f20707265636f6d70696c65006044820152606490fd5b15612f3957565b60405162461bcd60e51b815260206004820152602160248201527f6661696c65642064656c656761746563616c6c20746f20707265636f6d70696c6044820152606560f81b6064820152608490fd5b60405190612f95826102a5565b601a82527f64656c65676174696f6e28616464726573732c737472696e67290000000000006020830152565b15612fc857565b60405162461bcd60e51b815260206004820152600f60248201526e1d1c985b9cd9995c8819985a5b1959608a1b6044820152606490fdfea2646970667358221220b4dd2cf4616559661f196a1be6ddc73ca9870f4f16c89734ad659171472a410d64736f6c63430008140033",
  "linkReferences": {},
  "deployedLinkReferences": {},
  "immutableReferences": {},
  "inputSourceName": "project/solidity/precompiles/staking/testdata/StakingCaller.sol",
  "buildInfoId": "solc-0_8_20-fda2ffeb444d7d9486f659e7e357f970dc6ac662"
}