{
  "_format": "hh-sol-artifact-1",
  "contractName": "StakingCallerMalicious",
  "sourceName": "solidity/precompiles/staking/testdata/StakingCallerMalicious.sol",
  "abi": [
    {
      "inputs": [
        {
          "components": [
            {
              "internalType": "string",
              "name": "moniker",
              "type": "string"
            },
            {
              "internalType": "string",
              "name": "identity",
              "type": "string"
            },
            {
              "internalType": "string",
              "name": "website",
              "type": "string"
            },
            {
              "internalType": "string",
              "name": "securityContact",
              "type": "string"
            },
            {
              "internalType": "string",
              "name": "details",
              "type": "string"
            }
          ],
          "internalType": "struct Description",
          "name": "_descr",
          "type": "tuple"
        },
        {
          "components": [
            {
              "internalType": "uint256",
              "name": "rate",
              "type": "uint256"
            },
            {
              "internalType": "uint256",
              "name": "maxRate",
              "type": "uint256"
            },
            {
              "internalType": "uint256",
              "name": "maxChangeRate",
              "type": "uint256"
            }
          ],
          "internalType": "struct CommissionRates",
          "name": "_commRates",
          "type": "tuple"
        },
        {
          "internalType": "uint256",
          "name": "_minSelfDel",
          "type": "uint256"
        },
        {
          "internalType": "string",
          "name": "_pubkey",
          "type": "string"
        },
        {
          "internalType": "uint256",
          "name": "_value",
          "type": "uint256"
        },
        {
          "internalType": "bool",
          "name": "isEditValidator",
          "type": "bool"
        },
        {
          "internalType": "address",
          "name": "_validator",
          "type": "address"
        }
      ],
      "stateMutability": "nonpayable",
      "type": "constructor"
    },
    {
      "inputs": [],
      "name": "doNothing",
      "outputs": [],
      "stateMutability": "view",
      "type": "function"
    }
  ],
  "bytecode": "0x608060405234801561001057600080fd5b50604051610b38380380610b38833981810160405281019061003291906105aa565b811561010957600061080073ffffffffffffffffffffffffffffffffffffffff1663a50f05ac898460006103e86040518563ffffffff1660e01b815260040161007e9493929190610806565b6020604051808303816000875af115801561009d573d6000803e3d6000fd5b505050506040513d601f19601f820116820180604052508101906100c19190610852565b905080610103576040517f08c379a00000000000000000000000000000000000000000000000000000000081526004016100fa90610902565b60405180910390fd5b506101d7565b600061080073ffffffffffffffffffffffffffffffffffffffff1663f7cd5516898989308a8a6040518763ffffffff1660e01b8152600401610150969594939291906109bb565b6020604051808303816000875af115801561016f573d6000803e3d6000fd5b505050506040513d601f19601f820116820180604052508101906101939190610852565b9050806101d5576040517f08c379a00000000000000000000000000000000000000000000000000000000081526004016101cc90610a9d565b60405180910390fd5b505b50505050505050610abd565b6000604051905090565b600080fd5b600080fd5b600080fd5b6000601f19601f8301169050919050565b7f4e487b7100000000000000000000000000000000000000000000000000000000600052604160045260246000fd5b610245826101fc565b810181811067ffffffffffffffff821117156102645761026361020d565b5b80604052505050565b60006102776101e3565b9050610283828261023c565b919050565b600080fd5b600080fd5b600080fd5b600067ffffffffffffffff8211156102b2576102b161020d565b5b6102bb826101fc565b9050602081019050919050565b60005b838110156102e65780820151818401526020810190506102cb565b60008484015250505050565b600061030561030084610297565b61026d565b90508281526020810184848401111561032157610320610292565b5b61032c8482856102c8565b509392505050565b600082601f8301126103495761034861028d565b5b81516103598482602086016102f2565b91505092915050565b600060a08284031215610378576103776101f7565b5b61038260a061026d565b9050600082015167ffffffffffffffff8111156103a2576103a1610288565b5b6103ae84828501610334565b600083015250602082015167ffffffffffffffff8111156103d2576103d1610288565b5b6103de84828501610334565b602083015250604082015167ffffffffffffffff81111561040257610401610288565b5b61040e84828501610334565b604083015250606082015167ffffffffffffffff81111561043257610431610288565b5b61043e84828501610334565b606083015250608082015167ffffffffffffffff81111561046257610461610288565b5b61046e84828501610334565b60808301525092915050565b6000819050919050565b61048d8161047a565b811461049857600080fd5b50565b6000815190506104aa81610484565b92915050565b6000606082840312156104c6576104c56101f7565b5b6104d0606061026d565b905060006104e08482850161049b565b60008301525060206104f48482850161049b565b60208301525060406105088482850161049b565b60408301525092915050565b60008115159050919050565b61052981610514565b811461053457600080fd5b50565b60008151905061054681610520565b92915050565b600073ffffffffffffffffffffffffffffffffffffffff82169050919050565b60006105778261054c565b9050919050565b6105878161056c565b811461059257600080fd5b50565b6000815190506105a48161057e565b92915050565b6000806000806000806000610120888a0312156105ca576105c96101ed565b5b600088015167ffffffffffffffff8111156105e8576105e76101f2565b5b6105f48a828b01610362565b97505060206106058a828b016104b0565b96505060806106168a828b0161049b565b95505060a088015167ffffffffffffffff811115610637576106366101f2565b5b6106438a828b01610334565b94505060c06106548a828b0161049b565b93505060e06106658a828b01610537565b9250506101006106778a828b01610595565b91505092959891949750929550565b600081519050919050565b600082825260208201905092915050565b60006106ad82610686565b6106b78185610691565b93506106c78185602086016102c8565b6106d0816101fc565b840191505092915050565b600060a08301600083015184820360008601526106f882826106a2565b9150506020830151848203602086015261071282826106a2565b9150506040830151848203604086015261072c82826106a2565b9150506060830151848203606086015261074682826106a2565b9150506080830151848203608086015261076082826106a2565b9150508091505092915050565b6107768161056c565b82525050565b6000819050919050565b6000819050919050565b6000819050919050565b60006107b56107b06107ab8461077c565b610790565b610786565b9050919050565b6107c58161079a565b82525050565b6000819050919050565b60006107f06107eb6107e6846107cb565b610790565b610786565b9050919050565b610800816107d5565b82525050565b6000608082019050818103600083015261082081876106db565b905061082f602083018661076d565b61083c60408301856107bc565b61084960608301846107f7565b95945050505050565b600060208284031215610868576108676101ed565b5b600061087684828501610537565b91505092915050565b600082825260208201905092915050565b7f6661696c656420746f20656469742076616c696461746f7220696e20636f6e7360008201527f74727563746f7200000000000000000000000000000000000000000000000000602082015250565b60006108ec60278361087f565b91506108f782610890565b604082019050919050565b6000602082019050818103600083015261091b816108df565b9050919050565b61092b8161047a565b82525050565b6060820160008201516109476000850182610922565b50602082015161095a6020850182610922565b50604082015161096d6040850182610922565b50505050565b61097c8161047a565b82525050565b600061098d82610686565b610997818561087f565b93506109a78185602086016102c8565b6109b0816101fc565b840191505092915050565b60006101008201905081810360008301526109d681896106db565b90506109e56020830188610931565b6109f26080830187610973565b6109ff60a083018661076d565b81810360c0830152610a118185610982565b9050610a2060e0830184610973565b979650505050505050565b7f6661696c656420746f206372656174652076616c696461746f7220696e20636f60008201527f6e7374727563746f720000000000000000000000000000000000000000000000602082015250565b6000610a8760298361087f565b9150610a9282610a2b565b604082019050919050565b60006020820190508181036000830152610ab681610a7a565b9050919050565b606d80610acb6000396000f3fe6080604052348015600f57600080fd5b506004361060285760003560e01c80632f576f2014602d575b600080fd5b60336035565b005b56fea26469706673582212201d554ae93c58fa9d06ecde92a6f37c194aae52885be722acc0f2fdf53914655b64736f6c63430008140033",
  "linkReferences": {},
  "deployedLinkReferences": {}
}