{
  "_format": "hh3-artifact-1",
  "contractName": "StakingCallerTwo",
  "sourceName": "solidity/precompiles/staking/testdata/StakingCallerTwo.sol",
  "abi": [
    {
      "inputs": [],
      "name": "counter",
      "outputs": [
        {
          "internalType": "uint256",
          "name": "",
          "type": "uint256"
        }
      ],
      "stateMutability": "view",
      "type": "function"
    },
    {
      "inputs": [
        {
          "internalType": "address",
          "name": "",
          "type": "address"
        },
        {
          "internalType": "string",
          "name": "",
          "type": "string"
        }
      ],
      "name": "delegation",
      "outputs": [
        {
          "internalType": "uint256",
          "name": "",
          "type": "uint256"
        }
      ],
      "stateMutability": "view",
      "type": "function"
    },
    {
      "inputs": [
        {
          "components": [
            {
              "internalType": "string",
              "name": "moniker",
              "type": "string"
            },
            {
              "internalType": "string",
              "name": "identity",
              "type": "string"
            },
            {
              "internalType": "string",
              "name": "website",
              "type": "string"
            },
            {
              "internalType": "string",
              "name": "securityContact",
              "type": "string"
            },
            {
              "internalType": "string",
              "name": "details",
              "type": "string"
            }
          ],
          "internalType": "struct Description",
          "name": "_descr",
          "type": "tuple"
        },
        {
          "components": [
            {
              "internalType": "uint256",
              "name": "rate",
              "type": "uint256"
            },
            {
              "internalType": "uint256",
              "name": "maxRate",
              "type": "uint256"
            },
            {
              "internalType": "uint256",
              "name": "maxChangeRate",
              "type": "uint256"
            }
          ],
          "internalType": "struct CommissionRates",
          "name": "_commRates",
          "type": "tuple"
        },
        {
          "internalType": "uint256",
          "name": "_minSelfDel",
          "type": "uint256"
        },
        {
          "internalType": "address",
          "name": "_validator",
          "type": "address"
        },
        {
          "internalType": "string",
          "name": "_pubkey",
          "type": "string"
        },
        {
          "internalType": "bool",
          "name": "_before",
          "type": "bool"
        },
        {
          "internalType": "bool",
          "name": "_after",
          "type": "bool"
        }
      ],
      "name": "testCreateValidatorWithTransfer",
      "outputs": [],
      "stateMutability": "payable",
      "type": "function"
    },
    {
      "inputs": [
        {
          "internalType": "string",
          "name": "_validatorAddr",
          "type": "string"
        },
        {
          "internalType": "bool",
          "name": "_before",
          "type": "bool"
        },
        {
          "internalType": "bool",
          "name": "_after",
          "type": "bool"
        }
      ],
      "name": "testDelegateWithCounterAndTransfer",
      "outputs": [],
      "stateMutability": "payable",
      "type": "function"
    },
    {
      "inputs": [
        {
          "internalType": "address payable",
          "name": "_dest",
          "type": "address"
        },
        {
          "internalType": "address payable",
          "name": "_delegator",
          "type": "address"
        },
        {
          "internalType": "string",
          "name": "_validatorAddr",
          "type": "string"
        },
        {
          "internalType": "bool",
          "name": "_before",
          "type": "bool"
        },
        {
          "internalType": "bool",
          "name": "_after",
          "type": "bool"
        }
      ],
      "name": "testDelegateWithTransfer",
      "outputs": [],
      "stateMutability": "payable",
      "type": "function"
    }
  ],
  "bytecode": "0x60808060405234601557610874908161001a8239f35b5f80fdfe60806040526004361015610011575f80fd5b5f3560e01c8063241774e61461057557806361bc221a1461055957806366dafc7a14610403578063b9a6bbca1461019e5763c5b75f0114610050575f80fd5b606036600319011261019a576004356001600160401b03811161019a5761007b90369060040161064c565b60243590811515820361019a5760443591821515830361019a57610175575b6040516353266bbb60e01b815290602082806100bb34853060048501610775565b03815f6108005af190811561016a576100e06020939284935f9161013d575b5061079f565b335f526001825260405f20604051938285935191829101845e82019081520301902061010d3482546107e0565b905561011557005b61011f5f54610692565b5f5561013b5f808080600f335af16101356106b4565b506106e3565b005b61015d9150843d8611610163575b61015581836105fc565b810190610739565b5f6100da565b503d61014b565b6040513d5f823e3d90fd5b61017f5f54610692565b5f556101955f808080600f335af16101356106b4565b61009a565b5f80fd5b61012036600319011261019a576004356001600160401b03811161019a578060040160a0600319833603011261019a57606036602319011261019a5760a435916001600160a01b03831680840361019a5760c4356001600160401b03811161019a5761020e90369060040161064c565b60e43593841515850361019a576101043594851515860361019a576020936102f2938861033d936103e9575b506103066040519788968796637be6aa8b60e11b8852610100600489015260846102ea6102c96102a86102868c6101a461027488806107ed565b91909260a0610104820152019161081e565b8c61029460248a01886107ed565b91610124610103198286030191015261081e565b6102b560448801866107ed565b8d830361010319016101448f01529061081e565b6102d660648701856107ed565b8c830361010319016101648e01529061081e565b9301906107ed565b87830361010319016101848901529061081e565b91602435602486015260443560448601526064356064860152608435608486015260a48501526003198483030160c4850152610751565b3460e483015203815f6108005af190811561016a575f916103ca575b50156103855761036557005b5f808080600f61013b956103798354610692565b83555af16101356106b4565b60405162461bcd60e51b815260206004820152601e60248201527f4661696c656420746f20637265617465207468652076616c696461746f7200006044820152606490fd5b6103e3915060203d6020116101635761015581836105fc565b83610359565b5f808080600f6103fd956103798354610692565b8861023a565b60a036600319011261019a576104176105e6565b6024356001600160a01b0381169081900361019a576044356001600160401b03811161019a5761044b90369060040161064c565b60643591821515830361019a5760843592831515840361019a57610529575b6040516353266bbb60e01b8152916020838061048b34853060048501610775565b03815f6108005af191821561016a576104af6020949385945f9161050c575061079f565b5f526001825260405f20604051938285935191829101845e8201908152030190206104db3482546107e0565b90556104e357005b5f808080600f61013b956104f78354610692565b83556001600160a01b03165af16101356106b4565b6105239150853d87116101635761015581836105fc565b886100da565b6105335f54610692565b5f90815561055490808080600f6001600160a01b038a165af16101356106b4565b61046a565b3461019a575f36600319011261019a5760205f54604051908152f35b3461019a57604036600319011261019a5761058e6105e6565b602435906001600160401b03821161019a5760208080926105b385369060040161064c565b9060018060a01b03165f526001825260405f20604051938285935191829101845e82019081520301902054604051908152f35b600435906001600160a01b038216820361019a57565b90601f801991011681019081106001600160401b0382111761061d57604052565b634e487b7160e01b5f52604160045260245ffd5b6001600160401b03811161061d57601f01601f191660200190565b81601f8201121561019a5780359061066382610631565b9261067160405194856105fc565b8284526020838301011161019a57815f926020809301838601378301015290565b5f1981146106a05760010190565b634e487b7160e01b5f52601160045260245ffd5b3d156106de573d906106c582610631565b916106d360405193846105fc565b82523d5f602084013e565b606090565b156106ea57565b60405162461bcd60e51b815260206004820152602160248201527f4661696c656420746f2073656e6420457468657220746f2064656c656761746f6044820152603960f91b6064820152608490fd5b9081602091031261019a5751801515810361019a5790565b805180835260209291819084018484015e5f828201840152601f01601f1916010190565b93929161079a9060409260018060a01b03168652606060208701526060860190610751565b930152565b156107a657565b60405162461bcd60e51b81526020600482015260126024820152714661696c656420746f2064656c656761746560701b6044820152606490fd5b919082018092116106a057565b9035601e198236030181121561019a5701602081359101916001600160401b03821161019a57813603831361019a57565b908060209392818452848401375f828201840152601f01601f191601019056fea2646970667358221220f5438640cde750a5bb3228200649f48a3c4282be2e6cf44e31e8527e5dd4b6f664736f6c634300081c0033",
  "linkReferences": {},
  "deployedLinkReferences": {},
  "immutableReferences": {},
  "inputSourceName": "project/solidity/precompiles/staking/testdata/StakingCallerTwo.sol",
  "buildInfoId": "solc-0_8_28-e55ad96646b3bb5046840fe24a1f6856fc44be2c"
}