{
  "_format": "hh-sol-artifact-1",
  "contractName": "StakingCaller",
  "sourceName": "solidity/precompiles/staking/testdata/StakingCaller.sol",
  "abi": [
    {
      "inputs": [
        {
          "internalType": "address",
          "name": "_contract",
          "type": "address"
        },
        {
          "internalType": "address",
          "name": "_validatorAddr",
          "type": "address"
        },
        {
          "internalType": "uint256",
          "name": "_amount",
          "type": "uint256"
        }
      ],
      "name": "callERC20AndDelegate",
      "outputs": [],
      "stateMutability": "payable",
      "type": "function"
    },
    {
      "inputs": [],
      "name": "counter",
      "outputs": [
        {
          "internalType": "uint256",
          "name": "",
          "type": "uint256"
        }
      ],
      "stateMutability": "view",
      "type": "function"
    },
    {
      "inputs": [
        {
          "internalType": "address",
          "name": "",
          "type": "address"
        },
        {
          "internalType": "address",
          "name": "",
          "type": "address"
        }
      ],
      "name": "delegations",
      "outputs": [
        {
          "internalType": "uint256",
          "name": "",
          "type": "uint256"
        }
      ],
      "stateMutability": "view",
      "type": "function"
    },
    {
      "inputs": [
        {
          "internalType": "address",
          "name": "_delegatorAddr",
          "type": "address"
        },
        {
          "internalType": "address",
          "name": "_validatorAddr",
          "type": "address"
        }
      ],
      "name": "getDelegation",
      "outputs": [
        {
          "internalType": "uint256",
          "name": "shares",
          "type": "uint256"
        },
        {
          "components": [
            {
              "internalType": "string",
              "name": "denom",
              "type": "string"
            },
            {
              "internalType": "uint256",
              "name": "amount",
              "type": "uint256"
            }
          ],
          "internalType": "struct Coin",
          "name": "balance",
          "type": "tuple"
        }
      ],
      "stateMutability": "view",
      "type": "function"
    },
    {
      "inputs": [
        {
          "internalType": "address",
          "name": "_delegatorAddr",
          "type": "address"
        },
        {
          "internalType": "address",
          "name": "_validatorSrcAddr",
          "type": "address"
        },
        {
          "internalType": "address",
          "name": "_validatorDstAddr",
          "type": "address"
        }
      ],
      "name": "getRedelegation",
      "outputs": [
        {
          "components": [
            {
              "internalType": "string",
              "name": "delegatorAddress",
              "type": "string"
            },
            {
              "internalType": "string",
              "name": "validatorSrcAddress",
              "type": "string"
            },
            {
              "internalType": "string",
              "name": "validatorDstAddress",
              "type": "string"
            },
            {
              "components": [
                {
                  "internalType": "int64",
                  "name": "creationHeight",
                  "type": "int64"
                },
                {
                  "internalType": "int64",
                  "name": "completionTime",
                  "type": "int64"
                },
                {
                  "internalType": "uint256",
                  "name": "initialBalance",
                  "type": "uint256"
                },
                {
                  "internalType": "uint256",
                  "name": "sharesDst",
                  "type": "uint256"
                }
              ],
              "internalType": "struct RedelegationEntry[]",
              "name": "entries",
              "type": "tuple[]"
            }
          ],
          "internalType": "struct RedelegationOutput",
          "name": "redelegation",
          "type": "tuple"
        }
      ],
      "stateMutability": "view",
      "type": "function"
    },
    {
      "inputs": [
        {
          "internalType": "address",
          "name": "_delegatorAddr",
          "type": "address"
        },
        {
          "internalType": "address",
          "name": "_validatorSrcAddr",
          "type": "address"
        },
        {
          "internalType": "address",
          "name": "_validatorDstAddr",
          "type": "address"
        },
        {
          "components": [
            {
              "internalType": "bytes",
              "name": "key",
              "type": "bytes"
            },
            {
              "internalType": "uint64",
              "name": "offset",
              "type": "uint64"
            },
            {
              "internalType": "uint64",
              "name": "limit",
              "type": "uint64"
            },
            {
              "internalType": "bool",
              "name": "countTotal",
              "type": "bool"
            },
            {
              "internalType": "bool",
              "name": "reverse",
              "type": "bool"
            }
          ],
          "internalType": "struct PageRequest",
          "name": "_pageRequest",
          "type": "tuple"
        }
      ],
      "name": "getRedelegations",
      "outputs": [
        {
          "components": [
            {
              "components": [
                {
                  "internalType": "string",
                  "name": "delegatorAddress",
                  "type": "string"
                },
                {
                  "internalType": "string",
                  "name": "validatorSrcAddress",
                  "type": "string"
                },
                {
                  "internalType": "string",
                  "name": "validatorDstAddress",
                  "type": "string"
                },
                {
                  "components": [
                    {
                      "internalType": "int64",
                      "name": "creationHeight",
                      "type": "int64"
                    },
                    {
                      "internalType": "int64",
                      "name": "completionTime",
                      "type": "int64"
                    },
                    {
                      "internalType": "uint256",
                      "name": "initialBalance",
                      "type": "uint256"
                    },
                    {
                      "internalType": "uint256",
                      "name": "sharesDst",
                      "type": "uint256"
                    }
                  ],
                  "internalType": "struct RedelegationEntry[]",
                  "name": "entries",
                  "type": "tuple[]"
                }
              ],
              "internalType": "struct Redelegation",
              "name": "redelegation",
              "type": "tuple"
            },
            {
              "components": [
                {
                  "components": [
                    {
                      "internalType": "int64",
                      "name": "creationHeight",
                      "type": "int64"
                    },
                    {
                      "internalType": "int64",
                      "name": "completionTime",
                      "type": "int64"
                    },
                    {
                      "internalType": "uint256",
                      "name": "initialBalance",
                      "type": "uint256"
                    },
                    {
                      "internalType": "uint256",
                      "name": "sharesDst",
                      "type": "uint256"
                    }
                  ],
                  "internalType": "struct RedelegationEntry",
                  "name": "redelegationEntry",
                  "type": "tuple"
                },
                {
                  "internalType": "uint256",
                  "name": "balance",
                  "type": "uint256"
                }
              ],
              "internalType": "struct RedelegationEntryResponse[]",
              "name": "entries",
              "type": "tuple[]"
            }
          ],
          "internalType": "struct RedelegationResponse[]",
          "name": "response",
          "type": "tuple[]"
        },
        {
          "components": [
            {
              "internalType": "bytes",
              "name": "nextKey",
              "type": "bytes"
            },
            {
              "internalType": "uint64",
              "name": "total",
              "type": "uint64"
            }
          ],
          "internalType": "struct PageResponse",
          "name": "pageResponse",
          "type": "tuple"
        }
      ],
      "stateMutability": "view",
      "type": "function"
    },
    {
      "inputs": [
        {
          "internalType": "address",
          "name": "_delegatorAddr",
          "type": "address"
        },
        {
          "internalType": "address",
          "name": "_validatorAddr",
          "type": "address"
        }
      ],
      "name": "getUnbondingDelegation",
      "outputs": [
        {
          "components": [
            {
              "internalType": "string",
              "name": "delegatorAddress",
              "type": "string"
            },
            {
              "internalType": "string",
              "name": "validatorAddress",
              "type": "string"
            },
            {
              "components": [
                {
                  "internalType": "int64",
                  "name": "creationHeight",
                  "type": "int64"
                },
                {
                  "internalType": "int64",
                  "name": "completionTime",
                  "type": "int64"
                },
                {
                  "internalType": "uint256",
                  "name": "initialBalance",
                  "type": "uint256"
                },
                {
                  "internalType": "uint256",
                  "name": "balance",
                  "type": "uint256"
                },
                {
                  "internalType": "uint64",
                  "name": "unbondingId",
                  "type": "uint64"
                },
                {
                  "internalType": "int64",
                  "name": "unbondingOnHoldRefCount",
                  "type": "int64"
                }
              ],
              "internalType": "struct UnbondingDelegationEntry[]",
              "name": "entries",
              "type": "tuple[]"
            }
          ],
          "internalType": "struct UnbondingDelegationOutput",
          "name": "unbondingDelegation",
          "type": "tuple"
        }
      ],
      "stateMutability": "view",
      "type": "function"
    },
    {
      "inputs": [
        {
          "internalType": "address",
          "name": "_validatorAddr",
          "type": "address"
        }
      ],
      "name": "getValidator",
      "outputs": [
        {
          "components": [
            {
              "internalType": "string",
              "name": "operatorAddress",
              "type": "string"
            },
            {
              "internalType": "string",
              "name": "consensusPubkey",
              "type": "string"
            },
            {
              "internalType": "bool",
              "name": "jailed",
              "type": "bool"
            },
            {
              "internalType": "enum BondStatus",
              "name": "status",
              "type": "uint8"
            },
            {
              "internalType": "uint256",
              "name": "tokens",
              "type": "uint256"
            },
            {
              "internalType": "uint256",
              "name": "delegatorShares",
              "type": "uint256"
            },
            {
              "components": [
                {
                  "internalType": "string",
                  "name": "moniker",
                  "type": "string"
                },
                {
                  "internalType": "string",
                  "name": "identity",
                  "type": "string"
                },
                {
                  "internalType": "string",
                  "name": "website",
                  "type": "string"
                },
                {
                  "internalType": "string",
                  "name": "securityContact",
                  "type": "string"
                },
                {
                  "internalType": "string",
                  "name": "details",
                  "type": "string"
                }
              ],
              "internalType": "struct Description",
              "name": "description",
              "type": "tuple"
            },
            {
              "internalType": "int64",
              "name": "unbondingHeight",
              "type": "int64"
            },
            {
              "internalType": "int64",
              "name": "unbondingTime",
              "type": "int64"
            },
            {
              "internalType": "uint256",
              "name": "commission",
              "type": "uint256"
            },
            {
              "internalType": "uint256",
              "name": "minSelfDelegation",
              "type": "uint256"
            }
          ],
          "internalType": "struct Validator",
          "name": "validator",
          "type": "tuple"
        }
      ],
      "stateMutability": "view",
      "type": "function"
    },
    {
      "inputs": [
        {
          "internalType": "string",
          "name": "_status",
          "type": "string"
        },
        {
          "components": [
            {
              "internalType": "bytes",
              "name": "key",
              "type": "bytes"
            },
            {
              "internalType": "uint64",
              "name": "offset",
              "type": "uint64"
            },
            {
              "internalType": "uint64",
              "name": "limit",
              "type": "uint64"
            },
            {
              "internalType": "bool",
              "name": "countTotal",
              "type": "bool"
            },
            {
              "internalType": "bool",
              "name": "reverse",
              "type": "bool"
            }
          ],
          "internalType": "struct PageRequest",
          "name": "_pageRequest",
          "type": "tuple"
        }
      ],
      "name": "getValidators",
      "outputs": [
        {
          "components": [
            {
              "internalType": "string",
              "name": "operatorAddress",
              "type": "string"
            },
            {
              "internalType": "string",
              "name": "consensusPubkey",
              "type": "string"
            },
            {
              "internalType": "bool",
              "name": "jailed",
              "type": "bool"
            },
            {
              "internalType": "enum BondStatus",
              "name": "status",
              "type": "uint8"
            },
            {
              "internalType": "uint256",
              "name": "tokens",
              "type": "uint256"
            },
            {
              "internalType": "uint256",
              "name": "delegatorShares",
              "type": "uint256"
            },
            {
              "components": [
                {
                  "internalType": "string",
                  "name": "moniker",
                  "type": "string"
                },
                {
                  "internalType": "string",
                  "name": "identity",
                  "type": "string"
                },
                {
                  "internalType": "string",
                  "name": "website",
                  "type": "string"
                },
                {
                  "internalType": "string",
                  "name": "securityContact",
                  "type": "string"
                },
                {
                  "internalType": "string",
                  "name": "details",
                  "type": "string"
                }
              ],
              "internalType": "struct Description",
              "name": "description",
              "type": "tuple"
            },
            {
              "internalType": "int64",
              "name": "unbondingHeight",
              "type": "int64"
            },
            {
              "internalType": "int64",
              "name": "unbondingTime",
              "type": "int64"
            },
            {
              "internalType": "uint256",
              "name": "commission",
              "type": "uint256"
            },
            {
              "internalType": "uint256",
              "name": "minSelfDelegation",
              "type": "uint256"
            }
          ],
          "internalType": "struct Validator[]",
          "name": "validators",
          "type": "tuple[]"
        },
        {
          "components": [
            {
              "internalType": "bytes",
              "name": "nextKey",
              "type": "bytes"
            },
            {
              "internalType": "uint64",
              "name": "total",
              "type": "uint64"
            }
          ],
          "internalType": "struct PageResponse",
          "name": "pageResponse",
          "type": "tuple"
        }
      ],
      "stateMutability": "view",
      "type": "function"
    },
    {
      "inputs": [
        {
          "internalType": "address",
          "name": "_delegatorAddr",
          "type": "address"
        },
        {
          "internalType": "address",
          "name": "_validatorAddr",
          "type": "address"
        },
        {
          "internalType": "string",
          "name": "_calltype",
          "type": "string"
        }
      ],
      "name": "testCallDelegation",
      "outputs": [
        {
          "internalType": "uint256",
          "name": "shares",
          "type": "uint256"
        },
        {
          "components": [
            {
              "internalType": "string",
              "name": "denom",
              "type": "string"
            },
            {
              "internalType": "uint256",
              "name": "amount",
              "type": "uint256"
            }
          ],
          "internalType": "struct Coin",
          "name": "coin",
          "type": "tuple"
        }
      ],
      "stateMutability": "nonpayable",
      "type": "function"
    },
    {
      "inputs": [
        {
          "internalType": "address",
          "name": "_validatorAddr",
          "type": "address"
        },
        {
          "internalType": "uint256",
          "name": "_amount",
          "type": "uint256"
        },
        {
          "internalType": "string",
          "name": "_calltype",
          "type": "string"
        }
      ],
      "name": "testCallUndelegate",
      "outputs": [],
      "stateMutability": "nonpayable",
      "type": "function"
    },
    {
      "inputs": [
        {
          "internalType": "address",
          "name": "_validatorAddr",
          "type": "address"
        },
        {
          "internalType": "uint256",
          "name": "_amount",
          "type": "uint256"
        },
        {
          "internalType": "uint256",
          "name": "_creationHeight",
          "type": "uint256"
        }
      ],
      "name": "testCancelUnbonding",
      "outputs": [],
      "stateMutability": "nonpayable",
      "type": "function"
    },
    {
      "inputs": [
        {
          "components": [
            {
              "internalType": "string",
              "name": "moniker",
              "type": "string"
            },
            {
              "internalType": "string",
              "name": "identity",
              "type": "string"
            },
            {
              "internalType": "string",
              "name": "website",
              "type": "string"
            },
            {
              "internalType": "string",
              "name": "securityContact",
              "type": "string"
            },
            {
              "internalType": "string",
              "name": "details",
              "type": "string"
            }
          ],
          "internalType": "struct Description",
          "name": "_descr",
          "type": "tuple"
        },
        {
          "components": [
            {
              "internalType": "uint256",
              "name": "rate",
              "type": "uint256"
            },
            {
              "internalType": "uint256",
              "name": "maxRate",
              "type": "uint256"
            },
            {
              "internalType": "uint256",
              "name": "maxChangeRate",
              "type": "uint256"
            }
          ],
          "internalType": "struct CommissionRates",
          "name": "_commRates",
          "type": "tuple"
        },
        {
          "internalType": "uint256",
          "name": "_minSelfDel",
          "type": "uint256"
        },
        {
          "internalType": "address",
          "name": "_valAddr",
          "type": "address"
        },
        {
          "internalType": "string",
          "name": "_pubkey",
          "type": "string"
        },
        {
          "internalType": "uint256",
          "name": "_value",
          "type": "uint256"
        }
      ],
      "name": "testCreateValidator",
      "outputs": [
        {
          "internalType": "bool",
          "name": "",
          "type": "bool"
        }
      ],
      "stateMutability": "nonpayable",
      "type": "function"
    },
    {
      "inputs": [
        {
          "internalType": "address",
          "name": "_validatorAddr",
          "type": "address"
        }
      ],
      "name": "testDelegate",
      "outputs": [],
      "stateMutability": "payable",
      "type": "function"
    },
    {
      "inputs": [
        {
          "internalType": "address",
          "name": "_validatorAddr",
          "type": "address"
        }
      ],
      "name": "testDelegateAndFailCustomLogic",
      "outputs": [],
      "stateMutability": "payable",
      "type": "function"
    },
    {
      "inputs": [
        {
          "internalType": "address",
          "name": "_validatorAddr",
          "type": "address"
        }
      ],
      "name": "testDelegateIncrementCounter",
      "outputs": [],
      "stateMutability": "payable",
      "type": "function"
    },
    {
      "inputs": [
        {
          "components": [
            {
              "internalType": "string",
              "name": "moniker",
              "type": "string"
            },
            {
              "internalType": "string",
              "name": "identity",
              "type": "string"
            },
            {
              "internalType": "string",
              "name": "website",
              "type": "string"
            },
            {
              "internalType": "string",
              "name": "securityContact",
              "type": "string"
            },
            {
              "internalType": "string",
              "name": "details",
              "type": "string"
            }
          ],
          "internalType": "struct Description",
          "name": "_descr",
          "type": "tuple"
        },
        {
          "internalType": "address",
          "name": "_valAddr",
          "type": "address"
        },
        {
          "internalType": "int256",
          "name": "_commRate",
          "type": "int256"
        },
        {
          "internalType": "int256",
          "name": "_minSelfDel",
          "type": "int256"
        }
      ],
      "name": "testEditValidator",
      "outputs": [
        {
          "internalType": "bool",
          "name": "",
          "type": "bool"
        }
      ],
      "stateMutability": "nonpayable",
      "type": "function"
    },
    {
      "inputs": [
        {
          "internalType": "address",
          "name": "_validatorSrcAddr",
          "type": "address"
        },
        {
          "internalType": "address",
          "name": "_validatorDstAddr",
          "type": "address"
        },
        {
          "internalType": "uint256",
          "name": "_amount",
          "type": "uint256"
        }
      ],
      "name": "testRedelegate",
      "outputs": [],
      "stateMutability": "nonpayable",
      "type": "function"
    },
    {
      "inputs": [
        {
          "internalType": "address",
          "name": "_validatorAddr",
          "type": "address"
        },
        {
          "internalType": "uint256",
          "name": "_amount",
          "type": "uint256"
        }
      ],
      "name": "testUndelegate",
      "outputs": [],
      "stateMutability": "nonpayable",
      "type": "function"
    },
    {
      "inputs": [
        {
          "internalType": "address",
          "name": "",
          "type": "address"
        },
        {
          "internalType": "uint256",
          "name": "",
          "type": "uint256"
        }
      ],
      "name": "unbondingDelegations",
      "outputs": [
        {
          "internalType": "address",
          "name": "validator",
          "type": "address"
        },
        {
          "internalType": "uint256",
          "name": "amount",
          "type": "uint256"
        },
        {
          "internalType": "uint256",
          "name": "creationHeight",
          "type": "uint256"
        },
        {
          "internalType": "int64",
          "name": "completionTime",
          "type": "int64"
        }
      ],
      "stateMutability": "view",
      "type": "function"
    }
  ],
  "bytecode": "0x60803462000260576020906001600160401b03818301818111838210176200024c5760808301818110838211176200024c57604052602381527f2f636f736d6f732e7374616b696e672e763162657461312e4d736744656c656760408401526261746560e81b60608401528252600390815492600193848455808510620001ce575b505f8381528581209095869390925b868510620000a857604051612c269081620002b88239f35b8051908151838111620001ba5788918691620000c5875462000264565b948c601f96858882116200017f575b5050508c849683116001146200011a579582918697926200010e575b50505f19828c1b1c191690841b1786555b0193019401939162000090565b015190505f80620000f0565b9095601f198316898352858320925b8181106200016757509086978488959493106200014f575b505050811b01865562000101565b01515f19838e1b60f8161c191690555f808062000141565b8289015184558e978c97940193928301920162000129565b828b620001a7945220600589808701821c830193898810620001b0575b01901c01906200029f565b8c5f85620000d4565b935082936200019c565b634e487b7160e01b8a52604160045260248afd5b5f848152858088832093840193015b838110620001ee5750505062000081565b82620001fb825462000264565b806200020d575b5050018690620001dd565b601f8082116001146200022757505081555b825f62000202565b62000242908484528c8420920160051c82018583016200029f565b818355556200021f565b634e487b7160e01b5f52604160045260245ffd5b5f80fd5b90600182811c9216801562000294575b60208310146200028057565b634e487b7160e01b5f52602260045260245ffd5b91607f169162000274565b818110620002ab575050565b5f81556001016200029f56fe60806040526004361015610011575f80fd5b5f3560e01c8063088b32b1146101545780630b7110701461014f57806315049a5a1461014a57806315b8f85e146101455780631904bb2e14610140578063280112921461013b57806359671e3d1461013657806361bc221a1461013157806368ac3df31461012c578063884011f3146101275780638fe0f16d14610122578063a7aaeead1461011d578063ac0798ab14610118578063af9a90b214610113578063b13d42421461010e578063bd972d5814610109578063c60b821314610104578063c64814dd146100ff578063d687b128146100fa5763f14be0ca146100f5575f80fd5b611aa4565b611830565b6117da565b6115e4565b61149b565b61135b565b611223565b6111ab565b6110c6565b610ea2565b610dec565b610d30565b610d05565b610c7e565b610bbf565b6109ef565b610675565b610445565b61025a565b6101e2565b600435906001600160a01b038216820361016f57565b5f80fd5b602435906001600160a01b038216820361016f57565b604435906001600160a01b038216820361016f57565b60a435906001600160a01b038216820361016f57565b80548210156101ce575f5260205f209060021b01905f90565b634e487b7160e01b5f52603260045260245ffd5b3461016f57604036600319011261016f576101fb610159565b6024359060018060a01b038091165f52600160205260405f20805483101561016f57608092610229916101b5565b5090815416906001810154906003600282015491015460070b91604051938452602084015260408301526060820152f35b3461016f57606036600319011261016f57610273610159565b60443590602435610282611e07565b6001600160a01b0380831692905f90815b335f528660018060205260405f20548310156103be57335f9081526001602052604090206102c79084906101b5565b6101b5565b50805485166001600160a01b0316891490816103a3575b506102f35750506102ee90611db8565b610293565b869750600191969450602095935061030f92505b15151461223f565b604051632f9593bf60e21b81523060048201526001600160a01b0391909116602482015260448101919091526064810194909452836084815f6108005af192831561039e5761036e93610369915f91610370575b50612107565b612153565b005b610391915060203d8111610397575b61038981836105af565b810190611b56565b5f610363565b503d61037f565b611c51565b600301546103b6915060070b5b60070b90565b42105f6102de565b50949550505060209161030f60018693610307565b5f5b8381106103e45750505f910152565b81810151838201526020016103d5565b9060209161040d815180928185528580860191016103d3565b601f01601f1916010190565b908152604060208201526060602061043c845160408086015260808501906103f4565b93015191015290565b3461016f57604036600319011261016f576104a45f610462610159565b61046a610173565b906104736124a4565b5060405163046d330760e01b81526001600160a01b0391821660048201529116602482015291829081906044820190565b03816108005afa90811561039e575f9081926104cf575b506104cb60405192839283610419565b0390f35b906104ec92503d8091833e6104e481836105af565b8101906125dd565b905f6104bb565b634e487b7160e01b5f52604160045260245ffd5b61016081019081106001600160401b0382111761052357604052565b6104f3565b60a081019081106001600160401b0382111761052357604052565b608081019081106001600160401b0382111761052357604052565b606081019081106001600160401b0382111761052357604052565b60c081019081106001600160401b0382111761052357604052565b604081019081106001600160401b0382111761052357604052565b90601f801991011681019081106001600160401b0382111761052357604052565b604051906105dd82610594565b565b604051906105dd82610528565b604051906105dd82610507565b604051906105dd82610543565b6001600160401b03811161052357601f01601f191660200190565b92919261062d82610606565b9161063b60405193846105af565b82948184528183011161016f578281602093845f960137010152565b9080601f8301121561016f5781602061067293359101610621565b90565b3461016f57606036600319011261016f5761068e610159565b602435906044356001600160401b03811161016f576106b1903690600401610657565b916106ba611e07565b6040805160209485820192630fb6accf60e21b8452826106df86883060248501611d01565b03916106f3601f19938481018652856105af565b8151610712816107068b82018095612a1e565b038581018352826105af565b5190206107216103b042611d75565b928251898101906107558161074984600c906b19195b1959d85d1958d85b1b60a21b81520190565b038481018352826105af565b51902082036107995750505050935f806107939361036e9751906108005af490610786610780612a60565b92612b23565b8082518301019101611edb565b91611eef565b8251691cdd185d1a58d8d85b1b60b21b8a8201908152906107bd81600a8401610749565b51902082036107ee5750505050935f806107939361036e9751906108005afa906107866107e8612a60565b92612ad7565b82516318d85b1b60e21b8a82019081529061080c8160048401610749565b519020820361083e5750505050935f806107939361036e975190826108005af190610786610838612a60565b92612a8f565b909192969761087284519182019282610866856008906763616c6c636f646560c01b81520190565b039081018352826105af565b5190200361089557505f9182915190826108005af21561016f5761036e92611eef565b5162461bcd60e51b8152806108ac60048201612a35565b0390fd5b9060048210156108bd5752565b634e487b7160e01b5f52602160045260245ffd5b6106729160806109296109176109056108f3865160a0875260a08701906103f4565b602087015186820360208801526103f4565b604086015185820360408701526103f4565b606085015184820360608601526103f4565b9201519060808184039101526103f4565b906109aa61096661095484516101608086528501906103f4565b602085015184820360208601526103f4565b604084810151151590840152610984606085015160608501906108b0565b6080840151608084015260a084015160a084015260c084015183820360c08501526108d1565b60e08084015160070b90830152916101008181015160070b9083015261012080820151908301526101408091015191015290565b90602061067292818152019061093a565b3461016f57602036600319011261016f57610140610ab2610a0e610159565b604090815190610a1d82610507565b60608083528060208401525f958387949285878195015283818301528360808301528360a0830152865190610a5182610528565b80825260208201819052878201819052818101819052608082015260c082015260e08101839052610100810183905261012081018390520152825163111d9dbd60e11b81526001600160a01b03909116600482015292839081906024820190565b03816108005afa91821561039e57836104cb9493610ad7575b505051918291826109de565b610af49293503d8091833e610aec81836105af565b81019061247f565b905f80610acb565b805190610b11608092838552838501906103f4565b6060610b3e610b2c60209384860151888203868a01526103f4565b604085015187820360408901526103f4565b9201519360608184039101528080855193848152019401925f905b838210610b6857505050505090565b9091929394838282610ba16001948a5160608091805160070b8452602081015160070b6020850152604081015160408501520151910152565b0196019493920190610b59565b906020610672928181520190610afc565b3461016f5760608060031936011261016f57610bd9610159565b90610be2610173565b90610beb610189565b9080604051610bf981610543565b818152816020820152816040820152015260405192630bbcb23960e11b845260018060a01b03928380921660048601521660248401521660448201525f816064816108005afa801561039e576104cb915f91610c5d575b5060405191829182610bae565b610c78913d8091833e610c7081836105af565b81019061277e565b5f610c50565b602036600319011261016f57610c92610159565b610c9a611e07565b60405163c26f3acf60e01b81529060208280610cbb34853060048501611d01565b03815f6108005af191821561039e5761036e92610cdf915f91610ce7575b50611d23565b349033611d85565b610cff915060203d81116103975761038981836105af565b5f610cd9565b3461016f575f36600319011261016f576020600254604051908152f35b908160a091031261016f5790565b3461016f5761010036600319011261016f576001600160401b0360043581811161016f57610d62903690600401610d22565b90606036602319011261016f57610d7761019f565b9160c43591821161016f576104cb92610d97610da5933690600401610657565b9060e4359260843590611c5c565b60405190151581529081906020820190565b606090600319011261016f576001600160a01b0390600435828116810361016f5791602435908116810361016f579060443590565b3461016f57610dfa36610db7565b90610e058284611f8e565b604051633bfe13fd60e11b81523060048201526001600160a01b03848116602483015282166044820152606481018390526020816084815f6108005af190811561039e5761036e94610e685f610e6e9487948291610e74575b5060070b13612021565b33612064565b33611d85565b610e95915060203d8111610e9b575b610e8d81836105af565b810190611edb565b5f610e5e565b503d610e83565b3461016f57604036600319011261016f57610ebb610159565b602435610ec88183611f8e565b610ed0611e07565b604051635015ca1360e11b81529060208280610ef184873060048501611d01565b03815f6108005af191821561039e575f92610f58575b505f8260070b1315610f1c5761036e92611eef565b60405162461bcd60e51b81526020600482015260146024820152734661696c656420746f20756e64656c656761746560601b6044820152606490fd5b610f7191925060203d8111610e9b57610e8d81836105af565b905f610f07565b6001600160401b0381160361016f57565b35906105dd82610f78565b8015150361016f57565b35906105dd82610f94565b9060206001600160401b0381610fc885516040865260408601906103f4565b9401511691015290565b92916040918285018386528151809152606086019060608160051b880101946020809401925f91825b84841061101957505050505050936106729394818403910152610fa9565b9091929394978690605f198c820301855289518261103e825187855287850190610afc565b910151918381830391015282808351928381520192019084905b8082106110775750505090806001929a01940194019294939190610ffb565b919360a0600192948287516110b183825160608091805160070b8452602081015160070b6020850152604081015160408501520151910152565b01516080820152019401920189939291611058565b3461016f5760031960803682011261016f576110e0610159565b906110e9610173565b6110f1610189565b90606435936001600160401b039384861161016f5760a090863603011261016f576040519361111f85610528565b856004013590811161016f578501943660238701121561016f5760846111919161115661119b983690602460048201359101610621565b875261116460248201610f89565b602088015261117560448201610f89565b604088015261118660648201610f9e565b606088015201610f9e565b608085015261294a565b906104cb60405192839283610fd2565b602036600319011261016f576111bf610159565b6111c7611e07565b60405163c26f3acf60e01b815290602082806111e834853060048501611d01565b03815f6108005af191821561039e5761120b92610cdf915f91610ce75750611d23565b6002546001810180911161121e57600255005b611d61565b3461016f57608036600319011261016f576004356001600160401b03811161016f57611253903690600401610d22565b6020611284611260610173565b604051632943c16b60e21b8152608060048201529384928392916084840190611bbc565b6001600160a01b0390911660248301526044803590830152606480359083015203815f6108005af1801561039e576104cb915f916112d0575b5060405190151581529081906020820190565b6112e8915060203d81116103975761038981836105af565b5f6112bd565b929160408401916040855280518093526060850160608460051b870101936020809301915f905b8282106113315750505050936106729394818403910152610fa9565b90919295848061134d600193605f198d82030186528a5161093a565b980192019201909291611315565b3461016f576040600319818136011261016f576001600160401b0360043581811161016f5761138e903690600401610657565b6024359082821161016f575f926113ac6113da933690600401610d22565b946113b56124a4565b506080808851978896879663186b216760e01b88528b600489015260448801906103f4565b938685030160248701526113ff6113f18280611b6b565b60a0875260a0870191611b9c565b9480602083013561140f81610f78565b1660208601528a82013561142281610f78565b168a850152606081013561143581610f94565b15156060850152013561144781610f94565b151591015203816108005afa91821561039e575f918293611472575b506104cb9051928392836112ee565b6114939193506104cb923d8091833e61148b81836105af565b810190612533565b929091611463565b602036600319011261016f576114af610159565b6114b7611e07565b60405163c26f3acf60e01b8152806114d434843060048501611d01565b03916020825f9481866108005af191821561039e576114fd92610cdf918591610ce75750611d23565b80803415611517575b8180809234903390f11561039e5780f35b506108fc611506565b906020908183528051916060928382860152611541608091828701906103f4565b93828401519581601f199761156260409889928b86830301848701526103f4565b96015197828703019101528280875195868152019601945f925b85841061158d575050505050505090565b86518051600790810b8a5281870151810b8a880152818401518a850152818501518a860152818301516001600160401b03168a84015260a091820151900b9089015260c0909701969584019560019093019261157c565b3461016f5760408060031936011261016f576115fe610159565b611606610173565b918051916116138361055e565b6060808452602080850182905293830181905282516397e4190760e01b81526001600160a01b039283166004820152949091166024850152925f80826044816108005afa93841561039e578194611672575b8351806104cb8782611520565b90919293503d8083853e61168681856105af565b83019080848303126117ca5783516001600160401b03948582116117d257019386858403126117ce578551946116bb8661055e565b80518281116117d657846116d09183016122cc565b8652828101518281116117d657846116e99183016122cc565b83870152868101519182116117d257019180601f840112156117ce57825196611711886124bd565b9461171e885196876105af565b888652838601928460c0809b02870101958187116117ca578501935b86851061175a57505050505050506104cb935082820152905f8080611665565b8a858303126117ca57858b918b5161177181610579565b61177a88611ecd565b8152611787838901611ecd565b838201528c8801518d8201528688015187820152608080890151906117ab82610f78565b82015260a06117bb818a01611ecd565b9082015281520194019361173a565b8280fd5b8380fd5b8480fd5b8580fd5b3461016f57604036600319011261016f5760206118276117f8610159565b611800610173565b6001600160a01b039182165f90815280855260408082209290931681526020919091522090565b54604051908152f35b3461016f57606036600319011261016f57611849610159565b611851610173565b906044356001600160401b03811161016f57611871903690600401610657565b5f61187a6124a4565b506040805163046d330760e01b60208083019182526001600160a01b03878116602485015288166044808501919091528352929692959094919391601f19906118c46064876105af565b88516118d7816107498b82018095612a1e565b519020908851888101906119028161074984600c906b19195b1959d85d1958d85b1b60a21b81520190565b519020820361194a575050505050915f8061193c936104cb969551906108005af49061192f610780612a60565b80825183010191016125dd565b9290915b5192839283610419565b8851691cdd185d1a58d8d85b1b60b21b8982019081529061196e81600a8401610749565b51902082036119a3575050505050915f8061199b936104cb969551906108005afa9061192f6107e8612a60565b929091611940565b88516318d85b1b60e21b898201908152906119c18160048401610749565b51902082036119ef575050505050915f8061199b936104cb96955190826108005af19061192f610838612a60565b919395509193508651611a198782019282610866856008906763616c6c636f646560c01b81520190565b51902003611a8c57604460c092611a44611a31612b79565b8051908801206001600160e01b03191690565b90875195869485938452600484015260248301526108005af2918151926101006060840151930185521561016f576104cb91611a7e6105d0565b916060835282015292611940565b845162461bcd60e51b8152806108ac60048201612a35565b611b04611ab036610db7565b611abc93919293611e07565b60405163a9059cbb60e01b60208201908152336024830152604480830193909352918152611aeb6064826105af565b5f94859283809351925af1611afe612a60565b50612bb2565b60405163c26f3acf60e01b81529060208280611b2534853060048501611d01565b0381866108005af191821561039e57611b4892610cdf918591610ce75750611d23565b80f35b51906105dd82610f94565b9081602091031261016f575161067281610f94565b9035601e198236030181121561016f5701602081359101916001600160401b03821161016f57813603831361016f57565b908060209392818452848401375f828201840152601f01601f1916010190565b61067291611c43611c38611c1d611c02611be7611bd98780611b6b565b60a0885260a0880191611b9c565b611bf46020880188611b6b565b908783036020890152611b9c565b611c0f6040870187611b6b565b908683036040880152611b9c565b611c2a6060860186611b6b565b908583036060870152611b9c565b926080810190611b6b565b916080818503910152611b9c565b6040513d5f823e3d90fd5b9093611cca611c8e93956020956040519788968796637be6aa8b60e11b88526101006004890152610104880190611bbc565b92602435602488015260443560448801526064356064880152608487015260018060a01b031660a48601526003198583030160c48601526103f4565b9060e483015203815f6108005af190811561039e575f91611ce9575090565b610672915060203d81116103975761038981836105af565b6001600160a01b03918216815291166020820152604081019190915260600190565b15611d2a57565b60405162461bcd60e51b815260206004820152600f60248201526e19195b1959d85d194819985a5b1959608a1b6044820152606490fd5b634e487b7160e01b5f52601160045260245ffd5b90621baf80820180921161121e57565b6001600160a01b039081165f908152602081815260408083209390941682529190915220805491820180921161121e5755565b5f19811461121e5760010190565b634e487b7160e01b5f525f60045260245ffd5b90611df5576003815f8093558260018201558260028201550155565b611dc6565b9190820391821161121e57565b5f5b335f5260019060208281526040805f2054831015611ec757335f908152600160205260409020611e599490611e3f9085906101b5565b5042600382015460070b1115611e5e575b50505050611db8565b611e09565b611ebc925f611eb493611e8e611e88896102c23360018060a01b03165f52600160205260405f2090565b90611dd9565b83015433825295525f90812091546001600160a01b031681526020919091526040902090565b918254611dfa565b90555f808080611e50565b50505050565b51908160070b820361016f57565b9081602091031261016f5761067290611ecd565b335f52600160205260405f2060405192611f0884610543565b60018060a01b038093168452602084019081526040840191438352606085019560070b86528054600160401b81101561052357611f4a916001820181556101b5565b939093611df557600394511660018060a01b03198454161783555160018301555160028201550190516001600160401b0319825416906001600160401b0316179055565b335f908152602081815260408083206001600160a01b039094168352929052205410611fb657565b60405162461bcd60e51b815260206004820152603b60248201527f44656c65676174696f6e20646f6573206e6f74206578697374206f7220696e7360448201527f756666696369656e742064656c65676174696f6e20616d6f756e7400000000006064820152608490fd5b1561202857565b60405162461bcd60e51b81526020600482015260146024820152734661696c656420746f20726564656c656761746560601b6044820152606490fd5b6001600160a01b039081165f818152602081815260408083209486168352939052918220919291849054106120c257825260208281526040928390206001600160a01b039092165f90815291905220805491820391821161121e5755565b60405162461bcd60e51b815260206004820152601e60248201527f496e73756666696369656e742064656c65676174696f6e20616d6f756e7400006044820152606490fd5b1561210e57565b60405162461bcd60e51b815260206004820152601a60248201527f4661696c656420746f2063616e63656c20756e626f6e64696e670000000000006044820152606490fd5b335f52600191602090838252604084815f20945f965b612177575b50505050505050565b855487101561223a5761218a87876101b5565b509080600283015403612228575001928354918383106121d7575050906121b091611dfa565b809155156121c3575b808080808061216e565b6121d091611e88916101b5565b5f806121b9565b60849250519062461bcd60e51b82526004820152602560248201527f616d6f756e74206578636565647320756e626f6e64696e6720656e74727920616044820152641b5bdd5b9d60da1b6064820152fd5b90506122348297611db8565b96612169565b61216e565b1561224657565b60405162461bcd60e51b815260206004820152602360248201527f556e626f6e64696e672064656c65676174696f6e20646f6573206e6f742065786044820152621a5cdd60ea1b6064820152608490fd5b909291926122a481610606565b916122b260405193846105af565b82948284528282011161016f5760206105dd9301906103d3565b9080601f8301121561016f57815161067292602001612297565b5190600482101561016f57565b91909160a08184031261016f576123086105df565b9281516001600160401b039081811161016f57826123279185016122cc565b8552602083015181811161016f57826123419185016122cc565b6020860152604083015181811161016f578261235e9185016122cc565b6040860152606083015181811161016f578261237b9185016122cc565b6060860152608083015190811161016f5761239692016122cc565b6080830152565b9190916101608184031261016f576123b36105ec565b928151906001600160401b039182811161016f57816123d39185016122cc565b8552602083015182811161016f57816123ed9185016122cc565b60208601526123fe60408401611b4b565b604086015261240f606084016122e6565b60608601526080830151608086015260a083015160a086015260c083015191821161016f5761243f9183016122f3565b60c084015261245060e08201611ecd565b60e0840152610100612463818301611ecd565b9084015261012080820151908401526101408091015190830152565b9060208282031261016f5781516001600160401b03811161016f57610672920161239d565b604051906124b182610594565b5f602083606081520152565b6001600160401b0381116105235760051b60200190565b91909160408184031261016f57604051906124ee82610594565b819381516001600160401b03811161016f5782019181601f8401121561016f576125216020939283858095519101612297565b845201519161252f83610f78565b0152565b91909160408184031261016f578051926001600160401b039384811161016f5782019381601f8601121561016f57845161256c816124bd565b9061257a60405192836105af565b808252602096878084019260051b8201019185831161016f57888201905b8382106125b857505050509483015190811161016f5761067292016124d4565b815186811161016f578a916125d28984809488010161239d565b815201910190612598565b91909160408184031261016f5780519260208201516001600160401b039283821161016f570160408183031261016f576040519261261a84610594565b815190811161016f576020926126319183016122cc565b83520151602082015290565b919082608091031261016f5760405161265581610543565b606080829461266381611ecd565b845261267160208201611ecd565b6020850152604081015160408501520151910152565b81601f8201121561016f5780519161269e836124bd565b926126ac60405194856105af565b808452602091828086019260071b8501019381851161016f578301915b8483106126d857505050505090565b836080916126e6848661263d565b8152019201916126c9565b91909160808184031261016f576127066105f9565b9281516001600160401b039081811161016f57826127259185016122cc565b8552602083015181811161016f578261273f9185016122cc565b6020860152604083015181811161016f578261275c9185016122cc565b6040860152606083015190811161016f576127779201612687565b6060830152565b9060208282031261016f5781516001600160401b03811161016f5761067292016126f1565b9190916040808285031261016f5781516001600160401b03811161016f5784601f82850101121561016f5780830151906127dc826124bd565b926127e9815194856105af565b82845260208401918760208560051b83890101011161016f57602081870101925b60208560051b8389010101841061283e5750505050509260208201516001600160401b03811161016f5761067292016124d4565b83516001600160401b03811161016f578288010183601f19828c03011261016f5783519061286b82610594565b60208101516001600160401b03811161016f578b602061288d928401016126f1565b825284810151906001600160401b03821161016f57018a603f8201121561016f5760208101516128bc816124bd565b916128c9875193846105af565b818352602083018d8860a085028401011161016f57818801908e5b8960a08602850101831061290d575050505050602082810191909152908252938401930161280a565b8260a091031261016f5760208f9160a0926129338c519161292d83610594565b8661263d565b81526080850151838201528152019101908e6128e4565b5f929194936129576124a4565b5060405163eb5643a960e01b81526001600160a01b039283166004820152958216602487015291166044850152608060648501819052815160a060848701528592839290916129ab906101248501906103f4565b916001600160401b038060208301511660a486015260408201511660c48501526060810151151560e48501520151151561010483015203816108005afa91821561039e575f9081936129fc57509190565b90612a1a9293503d8091833e612a1281836105af565b8101906127a3565b9091565b90612a31602092828151948592016103d3565b0190565b60609060208152601060208201526f696e76616c69642063616c6c7479706560801b60408201520190565b3d15612a8a573d90612a7182610606565b91612a7f60405193846105af565b82523d5f602084013e565b606090565b15612a9657565b60405162461bcd60e51b81526020600482015260196024820152786661696c65642063616c6c20746f20707265636f6d70696c6560381b6044820152606490fd5b15612ade57565b60405162461bcd60e51b815260206004820152601f60248201527f6661696c65642073746174696363616c6c20746f20707265636f6d70696c65006044820152606490fd5b15612b2a57565b60405162461bcd60e51b815260206004820152602160248201527f6661696c65642064656c656761746563616c6c20746f20707265636f6d70696c6044820152606560f81b6064820152608490fd5b60405190612b8682610594565b601b82527f64656c65676174696f6e28616464726573732c616464726573732900000000006020830152565b15612bb957565b60405162461bcd60e51b815260206004820152600f60248201526e1d1c985b9cd9995c8819985a5b1959608a1b6044820152606490fdfea26469706673582212203132aecd853f12bbe3e628fb32e36ce319600b756afb9e3ecc339eb80a2d643c64736f6c63430008140033",
  "linkReferences": {},
  "deployedLinkReferences": {}
}