{
  "_format": "hh-sol-artifact-1",
  "contractName": "StakingCallerTwo",
  "sourceName": "solidity/precompiles/staking/testdata/StakingCallerTwo.sol",
  "abi": [
    {
      "inputs": [],
      "name": "counter",
      "outputs": [
        {
          "internalType": "uint256",
          "name": "",
          "type": "uint256"
        }
      ],
      "stateMutability": "view",
      "type": "function"
    },
    {
      "inputs": [
        {
          "internalType": "address",
          "name": "",
          "type": "address"
        },
        {
          "internalType": "address",
          "name": "",
          "type": "address"
        }
      ],
      "name": "delegation",
      "outputs": [
        {
          "internalType": "uint256",
          "name": "",
          "type": "uint256"
        }
      ],
      "stateMutability": "view",
      "type": "function"
    },
    {
      "inputs": [
        {
          "components": [
            {
              "internalType": "string",
              "name": "moniker",
              "type": "string"
            },
            {
              "internalType": "string",
              "name": "identity",
              "type": "string"
            },
            {
              "internalType": "string",
              "name": "website",
              "type": "string"
            },
            {
              "internalType": "string",
              "name": "securityContact",
              "type": "string"
            },
            {
              "internalType": "string",
              "name": "details",
              "type": "string"
            }
          ],
          "internalType": "struct Description",
          "name": "_descr",
          "type": "tuple"
        },
        {
          "components": [
            {
              "internalType": "uint256",
              "name": "rate",
              "type": "uint256"
            },
            {
              "internalType": "uint256",
              "name": "maxRate",
              "type": "uint256"
            },
            {
              "internalType": "uint256",
              "name": "maxChangeRate",
              "type": "uint256"
            }
          ],
          "internalType": "struct CommissionRates",
          "name": "_commRates",
          "type": "tuple"
        },
        {
          "internalType": "uint256",
          "name": "_minSelfDel",
          "type": "uint256"
        },
        {
          "internalType": "address",
          "name": "_validator",
          "type": "address"
        },
        {
          "internalType": "string",
          "name": "_pubkey",
          "type": "string"
        },
        {
          "internalType": "bool",
          "name": "_before",
          "type": "bool"
        },
        {
          "internalType": "bool",
          "name": "_after",
          "type": "bool"
        }
      ],
      "name": "testCreateValidatorWithTransfer",
      "outputs": [],
      "stateMutability": "payable",
      "type": "function"
    },
    {
      "inputs": [
        {
          "internalType": "address",
          "name": "_validatorAddr",
          "type": "address"
        },
        {
          "internalType": "bool",
          "name": "_before",
          "type": "bool"
        },
        {
          "internalType": "bool",
          "name": "_after",
          "type": "bool"
        }
      ],
      "name": "testDelegateWithCounterAndTransfer",
      "outputs": [],
      "stateMutability": "payable",
      "type": "function"
    },
    {
      "inputs": [
        {
          "internalType": "address payable",
          "name": "_dest",
          "type": "address"
        },
        {
          "internalType": "address payable",
          "name": "_delegator",
          "type": "address"
        },
        {
          "internalType": "address",
          "name": "_validatorAddr",
          "type": "address"
        },
        {
          "internalType": "bool",
          "name": "_before",
          "type": "bool"
        },
        {
          "internalType": "bool",
          "name": "_after",
          "type": "bool"
        }
      ],
      "name": "testDelegateWithTransfer",
      "outputs": [],
      "stateMutability": "payable",
      "type": "function"
    }
  ],
  "bytecode": "0x6080806040523461001657610842908161001b8239f35b5f80fdfe604060808152600480361015610013575f80fd5b5f91823560e01c806302ccd86614610512578063046d3307146104c957806361bc221a146104ac578063b9a6bbca146101c85763e76b9a4314610054575f80fd5b829060a03660031901126101c45761006a61062b565b92610073610645565b6001600160a01b03929060443584811691908281036101c05760643580151581036101bc576084359586151587036101b8576100ed928a8a8a60209561019c575b5050875163c26f3acf60e01b8152309381019384526001600160a01b039092166020840152503460408301529283918291606090910190565b03818a6108005af190811561019257869291610110918991610164575b5061076c565b1685526001602052818520908552602052832061012e3482546107ad565b9055610138575080f35b8180600f819361015f9661014c84546106ad565b8455165af16101596106cf565b506106fe565b5f8180f35b610185915060203d811161018b575b61017d818361065b565b810190610754565b5f61010a565b503d610173565b84513d89823e3d90fd5b8180600f81936101b09661014c84546106ad565b8a8a8a6100b4565b8880fd5b8780fd5b8680fd5b5080fd5b5060031991610120368401126104a85780359267ffffffffffffffff908185116104a4578483019360a08287360301126101c05760603660231901126101c05760a435956001600160a01b0387168088036101b85760c4359485116101b857366023860112156101b857848601359361024085610691565b9061024d8551928361065b565b8582528a602497368989830101116101c4578789986020998a9301838701378401015260e435988915158a036104a0576101049485359a8d8c15158d0361049d578d91610483575b5050949290918794928751968795637be6aa8b60e11b87528c870161010090526102bf83806107ba565b9091880160a090526101a48801906102d6926107ec565b916102e3828d01826107ba565b936101031994858a8303016101248b01526102fd926107ec565b61030a60448401836107ba565b89830386016101448b015261031f92916107ec565b61032c60648401836107ba565b89830386016101648b015261034192916107ec565b9160840161034e916107ba565b909287830301610184880152610363926107ec565b9289358a86015260443560448601526064356064860152608435608486015260a48501528383030160c48401528051908183528c5b82811061046c57505080820184018c90523460e4840152601f01601f1916018190038201818b6108005af1908115610462578891610445575b501561040657868681876103e25780f35b808080600f610401956103f583546106ad565b83555af16101596106cf565b818180f35b5162461bcd60e51b815292830152601e908201527f4661696c656420746f20637265617465207468652076616c696461746f7200006044820152606490fd5b61045c9150833d851161018b5761017d818361065b565b5f6103d1565b82513d8a823e3d90fd5b818101860151848201870152889587955001610398565b808080600f610496956103f583546106ad565b8b8d610295565b80fd5b8b80fd5b8580fd5b8380fd5b8382346101c457816003193601126101c457602091549051908152f35b8382346101c457806003193601126101c457806020926104e761062b565b6104ef610645565b6001600160a01b0391821683526001865283832091168252845220549051908152f35b5060603660031901126106275761052761062b565b602435928315158403610623576044359384151585036104a457610582916020916105fe575b845163c26f3acf60e01b8152309181019182526001600160a01b03851660208301523460408301529283918291606090910190565b0381886108005af19081156105f457906105a2918691610164575061076c565b33845260016020528184209060018060a01b0316845260205282206105c83482546107ad565b90556105d15780f35b6105db81546106ad565b81556105f181808080600f335af16101596106cf565b80f35b83513d87823e3d90fd5b61060887546106ad565b875561061e87808080600f335af16101596106cf565b61054d565b8480fd5b8280fd5b600435906001600160a01b038216820361064157565b5f80fd5b602435906001600160a01b038216820361064157565b90601f8019910116810190811067ffffffffffffffff82111761067d57604052565b634e487b7160e01b5f52604160045260245ffd5b67ffffffffffffffff811161067d57601f01601f191660200190565b5f1981146106bb5760010190565b634e487b7160e01b5f52601160045260245ffd5b3d156106f9573d906106e082610691565b916106ee604051938461065b565b82523d5f602084013e565b606090565b1561070557565b60405162461bcd60e51b815260206004820152602160248201527f4661696c656420746f2073656e6420457468657220746f2064656c656761746f6044820152603960f91b6064820152608490fd5b90816020910312610641575180151581036106415790565b1561077357565b60405162461bcd60e51b81526020600482015260126024820152714661696c656420746f2064656c656761746560701b6044820152606490fd5b919082018092116106bb57565b9035601e198236030181121561064157016020813591019167ffffffffffffffff821161064157813603831361064157565b908060209392818452848401375f828201840152601f01601f191601019056fea2646970667358221220534c7786a7db6701c6a95108bdcee4eb5e8030fc857b9c4aca17d5a4bfcce12264736f6c63430008140033",
  "linkReferences": {},
  "deployedLinkReferences": {}
}