{
  "_format": "hh3-artifact-1",
  "contractName": "StakingCaller",
  "sourceName": "solidity/precompiles/staking/testdata/StakingCaller.sol",
  "abi": [
    {
      "inputs": [
        {
          "internalType": "address",
          "name": "_contract",
          "type": "address"
        },
        {
          "internalType": "string",
          "name": "_validatorAddr",
          "type": "string"
        },
        {
          "internalType": "uint256",
          "name": "_amount",
          "type": "uint256"
        }
      ],
      "name": "callERC20AndDelegate",
      "outputs": [],
      "stateMutability": "payable",
      "type": "function"
    },
    {
      "inputs": [],
      "name": "counter",
      "outputs": [
        {
          "internalType": "uint256",
          "name": "",
          "type": "uint256"
        }
      ],
      "stateMutability": "view",
      "type": "function"
    },
    {
      "inputs": [
        {
          "internalType": "address",
          "name": "",
          "type": "address"
        },
        {
          "internalType": "string",
          "name": "",
          "type": "string"
        }
      ],
      "name": "delegations",
      "outputs": [
        {
          "internalType": "uint256",
          "name": "",
          "type": "uint256"
        }
      ],
      "stateMutability": "view",
      "type": "function"
    },
    {
      "inputs": [
        {
          "internalType": "address",
          "name": "_delegatorAddr",
          "type": "address"
        },
        {
          "internalType": "string",
          "name": "_validatorAddr",
          "type": "string"
        }
      ],
      "name": "getDelegation",
      "outputs": [
        {
          "internalType": "uint256",
          "name": "shares",
          "type": "uint256"
        },
        {
          "components": [
            {
              "internalType": "string",
              "name": "denom",
              "type": "string"
            },
            {
              "internalType": "uint256",
              "name": "amount",
              "type": "uint256"
            }
          ],
          "internalType": "struct Coin",
          "name": "balance",
          "type": "tuple"
        }
      ],
      "stateMutability": "view",
      "type": "function"
    },
    {
      "inputs": [
        {
          "internalType": "address",
          "name": "_delegatorAddr",
          "type": "address"
        },
        {
          "internalType": "string",
          "name": "_validatorSrcAddr",
          "type": "string"
        },
        {
          "internalType": "string",
          "name": "_validatorDstAddr",
          "type": "string"
        }
      ],
      "name": "getRedelegation",
      "outputs": [
        {
          "components": [
            {
              "internalType": "string",
              "name": "delegatorAddress",
              "type": "string"
            },
            {
              "internalType": "string",
              "name": "validatorSrcAddress",
              "type": "string"
            },
            {
              "internalType": "string",
              "name": "validatorDstAddress",
              "type": "string"
            },
            {
              "components": [
                {
                  "internalType": "int64",
                  "name": "creationHeight",
                  "type": "int64"
                },
                {
                  "internalType": "int64",
                  "name": "completionTime",
                  "type": "int64"
                },
                {
                  "internalType": "uint256",
                  "name": "initialBalance",
                  "type": "uint256"
                },
                {
                  "internalType": "uint256",
                  "name": "sharesDst",
                  "type": "uint256"
                }
              ],
              "internalType": "struct RedelegationEntry[]",
              "name": "entries",
              "type": "tuple[]"
            }
          ],
          "internalType": "struct RedelegationOutput",
          "name": "redelegation",
          "type": "tuple"
        }
      ],
      "stateMutability": "view",
      "type": "function"
    },
    {
      "inputs": [
        {
          "internalType": "address",
          "name": "_delegatorAddr",
          "type": "address"
        },
        {
          "internalType": "string",
          "name": "_validatorSrcAddr",
          "type": "string"
        },
        {
          "internalType": "string",
          "name": "_validatorDstAddr",
          "type": "string"
        },
        {
          "components": [
            {
              "internalType": "bytes",
              "name": "key",
              "type": "bytes"
            },
            {
              "internalType": "uint64",
              "name": "offset",
              "type": "uint64"
            },
            {
              "internalType": "uint64",
              "name": "limit",
              "type": "uint64"
            },
            {
              "internalType": "bool",
              "name": "countTotal",
              "type": "bool"
            },
            {
              "internalType": "bool",
              "name": "reverse",
              "type": "bool"
            }
          ],
          "internalType": "struct PageRequest",
          "name": "_pageRequest",
          "type": "tuple"
        }
      ],
      "name": "getRedelegations",
      "outputs": [
        {
          "components": [
            {
              "components": [
                {
                  "internalType": "string",
                  "name": "delegatorAddress",
                  "type": "string"
                },
                {
                  "internalType": "string",
                  "name": "validatorSrcAddress",
                  "type": "string"
                },
                {
                  "internalType": "string",
                  "name": "validatorDstAddress",
                  "type": "string"
                },
                {
                  "components": [
                    {
                      "internalType": "int64",
                      "name": "creationHeight",
                      "type": "int64"
                    },
                    {
                      "internalType": "int64",
                      "name": "completionTime",
                      "type": "int64"
                    },
                    {
                      "internalType": "uint256",
                      "name": "initialBalance",
                      "type": "uint256"
                    },
                    {
                      "internalType": "uint256",
                      "name": "sharesDst",
                      "type": "uint256"
                    }
                  ],
                  "internalType": "struct RedelegationEntry[]",
                  "name": "entries",
                  "type": "tuple[]"
                }
              ],
              "internalType": "struct Redelegation",
              "name": "redelegation",
              "type": "tuple"
            },
            {
              "components": [
                {
                  "components": [
                    {
                      "internalType": "int64",
                      "name": "creationHeight",
                      "type": "int64"
                    },
                    {
                      "internalType": "int64",
                      "name": "completionTime",
                      "type": "int64"
                    },
                    {
                      "internalType": "uint256",
                      "name": "initialBalance",
                      "type": "uint256"
                    },
                    {
                      "internalType": "uint256",
                      "name": "sharesDst",
                      "type": "uint256"
                    }
                  ],
                  "internalType": "struct RedelegationEntry",
                  "name": "redelegationEntry",
                  "type": "tuple"
                },
                {
                  "internalType": "uint256",
                  "name": "balance",
                  "type": "uint256"
                }
              ],
              "internalType": "struct RedelegationEntryResponse[]",
              "name": "entries",
              "type": "tuple[]"
            }
          ],
          "internalType": "struct RedelegationResponse[]",
          "name": "response",
          "type": "tuple[]"
        },
        {
          "components": [
            {
              "internalType": "bytes",
              "name": "nextKey",
              "type": "bytes"
            },
            {
              "internalType": "uint64",
              "name": "total",
              "type": "uint64"
            }
          ],
          "internalType": "struct PageResponse",
          "name": "pageResponse",
          "type": "tuple"
        }
      ],
      "stateMutability": "view",
      "type": "function"
    },
    {
      "inputs": [
        {
          "internalType": "address",
          "name": "_delegatorAddr",
          "type": "address"
        },
        {
          "internalType": "string",
          "name": "_validatorAddr",
          "type": "string"
        }
      ],
      "name": "getUnbondingDelegation",
      "outputs": [
        {
          "components": [
            {
              "internalType": "string",
              "name": "delegatorAddress",
              "type": "string"
            },
            {
              "internalType": "string",
              "name": "validatorAddress",
              "type": "string"
            },
            {
              "components": [
                {
                  "internalType": "int64",
                  "name": "creationHeight",
                  "type": "int64"
                },
                {
                  "internalType": "int64",
                  "name": "completionTime",
                  "type": "int64"
                },
                {
                  "internalType": "uint256",
                  "name": "initialBalance",
                  "type": "uint256"
                },
                {
                  "internalType": "uint256",
                  "name": "balance",
                  "type": "uint256"
                },
                {
                  "internalType": "uint64",
                  "name": "unbondingId",
                  "type": "uint64"
                },
                {
                  "internalType": "int64",
                  "name": "unbondingOnHoldRefCount",
                  "type": "int64"
                }
              ],
              "internalType": "struct UnbondingDelegationEntry[]",
              "name": "entries",
              "type": "tuple[]"
            }
          ],
          "internalType": "struct UnbondingDelegationOutput",
          "name": "unbondingDelegation",
          "type": "tuple"
        }
      ],
      "stateMutability": "view",
      "type": "function"
    },
    {
      "inputs": [
        {
          "internalType": "address",
          "name": "_validatorAddr",
          "type": "address"
        }
      ],
      "name": "getValidator",
      "outputs": [
        {
          "components": [
            {
              "internalType": "string",
              "name": "operatorAddress",
              "type": "string"
            },
            {
              "internalType": "string",
              "name": "consensusPubkey",
              "type": "string"
            },
            {
              "internalType": "bool",
              "name": "jailed",
              "type": "bool"
            },
            {
              "internalType": "enum BondStatus",
              "name": "status",
              "type": "uint8"
            },
            {
              "internalType": "uint256",
              "name": "tokens",
              "type": "uint256"
            },
            {
              "internalType": "uint256",
              "name": "delegatorShares",
              "type": "uint256"
            },
            {
              "components": [
                {
                  "internalType": "string",
                  "name": "moniker",
                  "type": "string"
                },
                {
                  "internalType": "string",
                  "name": "identity",
                  "type": "string"
                },
                {
                  "internalType": "string",
                  "name": "website",
                  "type": "string"
                },
                {
                  "internalType": "string",
                  "name": "securityContact",
                  "type": "string"
                },
                {
                  "internalType": "string",
                  "name": "details",
                  "type": "string"
                }
              ],
              "internalType": "struct Description",
              "name": "description",
              "type": "tuple"
            },
            {
              "internalType": "int64",
              "name": "unbondingHeight",
              "type": "int64"
            },
            {
              "internalType": "int64",
              "name": "unbondingTime",
              "type": "int64"
            },
            {
              "internalType": "uint256",
              "name": "commission",
              "type": "uint256"
            },
            {
              "internalType": "uint256",
              "name": "minSelfDelegation",
              "type": "uint256"
            }
          ],
          "internalType": "struct Validator",
          "name": "validator",
          "type": "tuple"
        }
      ],
      "stateMutability": "view",
      "type": "function"
    },
    {
      "inputs": [
        {
          "internalType": "string",
          "name": "_status",
          "type": "string"
        },
        {
          "components": [
            {
              "internalType": "bytes",
              "name": "key",
              "type": "bytes"
            },
            {
              "internalType": "uint64",
              "name": "offset",
              "type": "uint64"
            },
            {
              "internalType": "uint64",
              "name": "limit",
              "type": "uint64"
            },
            {
              "internalType": "bool",
              "name": "countTotal",
              "type": "bool"
            },
            {
              "internalType": "bool",
              "name": "reverse",
              "type": "bool"
            }
          ],
          "internalType": "struct PageRequest",
          "name": "_pageRequest",
          "type": "tuple"
        }
      ],
      "name": "getValidators",
      "outputs": [
        {
          "components": [
            {
              "internalType": "string",
              "name": "operatorAddress",
              "type": "string"
            },
            {
              "internalType": "string",
              "name": "consensusPubkey",
              "type": "string"
            },
            {
              "internalType": "bool",
              "name": "jailed",
              "type": "bool"
            },
            {
              "internalType": "enum BondStatus",
              "name": "status",
              "type": "uint8"
            },
            {
              "internalType": "uint256",
              "name": "tokens",
              "type": "uint256"
            },
            {
              "internalType": "uint256",
              "name": "delegatorShares",
              "type": "uint256"
            },
            {
              "components": [
                {
                  "internalType": "string",
                  "name": "moniker",
                  "type": "string"
                },
                {
                  "internalType": "string",
                  "name": "identity",
                  "type": "string"
                },
                {
                  "internalType": "string",
                  "name": "website",
                  "type": "string"
                },
                {
                  "internalType": "string",
                  "name": "securityContact",
                  "type": "string"
                },
                {
                  "internalType": "string",
                  "name": "details",
                  "type": "string"
                }
              ],
              "internalType": "struct Description",
              "name": "description",
              "type": "tuple"
            },
            {
              "internalType": "int64",
              "name": "unbondingHeight",
              "type": "int64"
            },
            {
              "internalType": "int64",
              "name": "unbondingTime",
              "type": "int64"
            },
            {
              "internalType": "uint256",
              "name": "commission",
              "type": "uint256"
            },
            {
              "internalType": "uint256",
              "name": "minSelfDelegation",
              "type": "uint256"
            }
          ],
          "internalType": "struct Validator[]",
          "name": "validators",
          "type": "tuple[]"
        },
        {
          "components": [
            {
              "internalType": "bytes",
              "name": "nextKey",
              "type": "bytes"
            },
            {
              "internalType": "uint64",
              "name": "total",
              "type": "uint64"
            }
          ],
          "internalType": "struct PageResponse",
          "name": "pageResponse",
          "type": "tuple"
        }
      ],
      "stateMutability": "view",
      "type": "function"
    },
    {
      "inputs": [
        {
          "internalType": "address",
          "name": "_delegatorAddr",
          "type": "address"
        },
        {
          "internalType": "string",
          "name": "_validatorAddr",
          "type": "string"
        },
        {
          "internalType": "string",
          "name": "_calltype",
          "type": "string"
        }
      ],
      "name": "testCallDelegation",
      "outputs": [
        {
          "internalType": "uint256",
          "name": "shares",
          "type": "uint256"
        },
        {
          "components": [
            {
              "internalType": "string",
              "name": "denom",
              "type": "string"
            },
            {
              "internalType": "uint256",
              "name": "amount",
              "type": "uint256"
            }
          ],
          "internalType": "struct Coin",
          "name": "coin",
          "type": "tuple"
        }
      ],
      "stateMutability": "nonpayable",
      "type": "function"
    },
    {
      "inputs": [
        {
          "internalType": "string",
          "name": "_validatorAddr",
          "type": "string"
        },
        {
          "internalType": "uint256",
          "name": "_amount",
          "type": "uint256"
        },
        {
          "internalType": "string",
          "name": "_calltype",
          "type": "string"
        }
      ],
      "name": "testCallUndelegate",
      "outputs": [],
      "stateMutability": "nonpayable",
      "type": "function"
    },
    {
      "inputs": [
        {
          "internalType": "string",
          "name": "_validatorAddr",
          "type": "string"
        },
        {
          "internalType": "uint256",
          "name": "_amount",
          "type": "uint256"
        },
        {
          "internalType": "uint256",
          "name": "_creationHeight",
          "type": "uint256"
        }
      ],
      "name": "testCancelUnbonding",
      "outputs": [],
      "stateMutability": "nonpayable",
      "type": "function"
    },
    {
      "inputs": [
        {
          "components": [
            {
              "internalType": "string",
              "name": "moniker",
              "type": "string"
            },
            {
              "internalType": "string",
              "name": "identity",
              "type": "string"
            },
            {
              "internalType": "string",
              "name": "website",
              "type": "string"
            },
            {
              "internalType": "string",
              "name": "securityContact",
              "type": "string"
            },
            {
              "internalType": "string",
              "name": "details",
              "type": "string"
            }
          ],
          "internalType": "struct Description",
          "name": "_descr",
          "type": "tuple"
        },
        {
          "components": [
            {
              "internalType": "uint256",
              "name": "rate",
              "type": "uint256"
            },
            {
              "internalType": "uint256",
              "name": "maxRate",
              "type": "uint256"
            },
            {
              "internalType": "uint256",
              "name": "maxChangeRate",
              "type": "uint256"
            }
          ],
          "internalType": "struct CommissionRates",
          "name": "_commRates",
          "type": "tuple"
        },
        {
          "internalType": "uint256",
          "name": "_minSelfDel",
          "type": "uint256"
        },
        {
          "internalType": "address",
          "name": "_valAddr",
          "type": "address"
        },
        {
          "internalType": "string",
          "name": "_pubkey",
          "type": "string"
        },
        {
          "internalType": "uint256",
          "name": "_value",
          "type": "uint256"
        }
      ],
      "name": "testCreateValidator",
      "outputs": [
        {
          "internalType": "bool",
          "name": "",
          "type": "bool"
        }
      ],
      "stateMutability": "nonpayable",
      "type": "function"
    },
    {
      "inputs": [
        {
          "internalType": "string",
          "name": "_validatorAddr",
          "type": "string"
        }
      ],
      "name": "testDelegate",
      "outputs": [],
      "stateMutability": "payable",
      "type": "function"
    },
    {
      "inputs": [
        {
          "internalType": "string",
          "name": "_validatorAddr",
          "type": "string"
        }
      ],
      "name": "testDelegateAndFailCustomLogic",
      "outputs": [],
      "stateMutability": "payable",
      "type": "function"
    },
    {
      "inputs": [
        {
          "internalType": "string",
          "name": "_validatorAddr",
          "type": "string"
        }
      ],
      "name": "testDelegateIncrementCounter",
      "outputs": [],
      "stateMutability": "payable",
      "type": "function"
    },
    {
      "inputs": [
        {
          "components": [
            {
              "internalType": "string",
              "name": "moniker",
              "type": "string"
            },
            {
              "internalType": "string",
              "name": "identity",
              "type": "string"
            },
            {
              "internalType": "string",
              "name": "website",
              "type": "string"
            },
            {
              "internalType": "string",
              "name": "securityContact",
              "type": "string"
            },
            {
              "internalType": "string",
              "name": "details",
              "type": "string"
            }
          ],
          "internalType": "struct Description",
          "name": "_descr",
          "type": "tuple"
        },
        {
          "internalType": "address",
          "name": "_valAddr",
          "type": "address"
        },
        {
          "internalType": "int256",
          "name": "_commRate",
          "type": "int256"
        },
        {
          "internalType": "int256",
          "name": "_minSelfDel",
          "type": "int256"
        }
      ],
      "name": "testEditValidator",
      "outputs": [
        {
          "internalType": "bool",
          "name": "",
          "type": "bool"
        }
      ],
      "stateMutability": "nonpayable",
      "type": "function"
    },
    {
      "inputs": [
        {
          "internalType": "string",
          "name": "_validatorSrcAddr",
          "type": "string"
        },
        {
          "internalType": "string",
          "name": "_validatorDstAddr",
          "type": "string"
        },
        {
          "internalType": "uint256",
          "name": "_amount",
          "type": "uint256"
        }
      ],
      "name": "testRedelegate",
      "outputs": [],
      "stateMutability": "nonpayable",
      "type": "function"
    },
    {
      "inputs": [
        {
          "internalType": "string",
          "name": "_validatorAddr",
          "type": "string"
        },
        {
          "internalType": "uint256",
          "name": "_amount",
          "type": "uint256"
        }
      ],
      "name": "testUndelegate",
      "outputs": [],
      "stateMutability": "nonpayable",
      "type": "function"
    },
    {
      "inputs": [
        {
          "internalType": "address",
          "name": "",
          "type": "address"
        },
        {
          "internalType": "uint256",
          "name": "",
          "type": "uint256"
        }
      ],
      "name": "unbondingDelegations",
      "outputs": [
        {
          "internalType": "string",
          "name": "validator",
          "type": "string"
        },
        {
          "internalType": "uint256",
          "name": "amount",
          "type": "uint256"
        },
        {
          "internalType": "uint256",
          "name": "creationHeight",
          "type": "uint256"
        },
        {
          "internalType": "int64",
          "name": "completionTime",
          "type": "int64"
        }
      ],
      "stateMutability": "view",
      "type": "function"
    }
  ],
  "bytecode": "0x60806040523461027e57604051602081016001600160401b038111828210176101cc576040819052606081016001600160401b038111828210176101cc57604052602381527f2f636f736d6f732e7374616b696e672e763162657461312e4d736744656c656760208201526261746560e81b604082015281526003546001600355806001106101e0575b5060035f9081525f51602061327d5f395f51905f52915b600182106100b757604051612fac90816102d18239f35b80518051906001600160401b0382116101cc576100d48554610282565b601f8111610191575b50602090601f83116001146101285792826001949360209386955f9261011d575b50505f19600383901b1c191690841b1786555b019301910190916100a0565b015190505f806100fe565b90601f19831691865f52815f20925f5b8181106101795750936020936001969387969383889510610161575b505050811b018655610111565b01515f1960f88460031b161c191690555f8080610154565b82840151855560019094019360209384019301610138565b6101bc90865f5260205f20601f850160051c810191602086106101c2575b601f0160051c01906102ba565b5f6100dd565b90915081906101af565b634e487b7160e01b5f52604160045260245ffd5b60035f525f51602061327d5f395f51905f52017fc2575a0e9e593c00f959f8c92f12db2869c3395a3b0502d05e2516446f71f85c5b8181106102225750610089565b8061022f60019254610282565b8061023c575b5001610215565b601f8111831461025157505f81555b5f610235565b61026d90825f5283601f60205f20920160051c820191016102ba565b805f525f602081208183555561024b565b5f80fd5b90600182811c921680156102b0575b602083101461029c57565b634e487b7160e01b5f52602260045260245ffd5b91607f1691610291565b8181106102c5575050565b5f81556001016102ba56fe60806040526004361015610011575f80fd5b5f3560e01c8063088b32b1146101545780631904bb2e1461014f57806319b16c4c1461014a5780632345e7d41461014557806329e71c821461014057806331bcbcb31461013b578063455b855114610136578063464d2d0314610131578063569c21e31461012c578063570467ac1461012757806361bc221a1461012257806368ac3df31461011d578063a4603a2e14610118578063af9a90b214610113578063b13d42421461010e578063b3e9823414610109578063b61b519714610104578063cf2753cf146100ff578063ddbaf2c2146100fa5763f732b065146100f5575f80fd5b611b57565b6119f8565b611963565b6118f6565b6117fa565b6116a6565b611543565b6113f1565b611365565b61133a565b611279565b6111ac565b611135565b610f2e565b610d2f565b610c31565b610a2e565b6107b5565b610578565b6103d0565b600435906001600160a01b038216820361016f57565b5f80fd5b60a435906001600160a01b038216820361016f57565b602435906001600160a01b038216820361016f57565b80548210156101b8575f5260205f209060021b01905f90565b634e487b7160e01b5f52603260045260245ffd5b90600182811c921680156101fa575b60208310146101e657565b634e487b7160e01b5f52602260045260245ffd5b91607f16916101db565b634e487b7160e01b5f52604160045260245ffd5b61016081019081106001600160401b0382111761023457604052565b610204565b60a081019081106001600160401b0382111761023457604052565b606081019081106001600160401b0382111761023457604052565b60c081019081106001600160401b0382111761023457604052565b608081019081106001600160401b0382111761023457604052565b604081019081106001600160401b0382111761023457604052565b90601f801991011681019081106001600160401b0382111761023457604052565b9060405191825f8254926102f4846101cc565b808452936001811690811561035f575060011461031b575b50610319925003836102c0565b565b90505f9291925260205f20905f915b818310610343575050906020610319928201015f61030c565b602091935080600191548385890101520191019091849261032a565b90506020925061031994915060ff191682840152151560051b8201015f61030c565b805180835260209291819084018484015e5f828201840152601f01601f1916010190565b926103bd606093969592608086526080860190610381565b956020850152604084015260070b910152565b3461016f57604036600319011261016f576103e9610159565b6001600160a01b03165f90815260016020526040902080546024359081101561016f576104159161019f565b5061041f816102e1565b6104426001830154926003600282015491015460070b90604051948594856103a5565b0390f35b9060048210156104535752565b634e487b7160e01b5f52602160045260245ffd5b6104d09160806104bf6104ad61049b610489865160a0875260a0870190610381565b60208701518682036020880152610381565b60408601518582036040870152610381565b60608501518482036060860152610381565b920151906080818403910152610381565b90565b90610140806105376104f361048986516101608752610160870190610381565b60408681015115159086015261051160608701516060870190610446565b6080860151608086015260a086015160a086015260c086015185820360c0870152610467565b60e08086015160070b90850152936101008181015160070b90850152610120810151610120850152015191015290565b9060206104d09281815201906104d3565b3461016f57602036600319011261016f576106375f610595610159565b816101406040516105a581610218565b60608152606060208201528260408201528260608201528260808201528260a08201526040516105d481610239565b6060815260606020820152606060408201526060808201526060608082015260c08201528260e0820152826101008201528261012082015201526040518093819263111d9dbd60e11b835260048301919091602081019260018060a01b03169052565b03816108005afa801561067e57610442915f9161065c575b5060405191829182610567565b61067891503d805f833e61067081836102c0565b810190611e98565b5f61064f565b611ebd565b604051906103196040836102c0565b6040519061031960a0836102c0565b60405190610319610160836102c0565b604051906103196080836102c0565b6001600160401b03811161023457601f01601f191660200190565b9291926106e7826106c0565b916106f560405193846102c0565b82948184528183011161016f578281602093845f960137010152565b9080601f8301121561016f578160206104d0933591016106db565b606060031982011261016f576004356001600160a01b038116810361016f57916024356001600160401b03811161016f578261076a91600401610711565b91604435906001600160401b03821161016f576104d091600401610711565b90815260406020820152606060206107ac84516040808601526080850190610381565b93015191015290565b3461016f576107c33661072c565b91906107cd611ec8565b5060405191602083019363120bba7360e11b8552610801846107f3858560248401611ee1565b03601f1981018652856102c0565b604051610824816108166020820180956119e6565b03601f1981018352826102c0565b5190206040516b19195b1959d85d1958d85b1b60a21b602082019081529061084f81602c8101610816565b519020810361089a575050505f61088992819251906108005af461087a610874611f3e565b91612067565b60208082518301019101611fb5565b905b61044260405192839283610789565b604051691cdd185d1a58d8d85b1b60b21b60208201908152906108c081602a8101610816565b51902081036108f1575050505f6108eb92819251906108005afa61087a6108e5611f3e565b9161201b565b9061088b565b6040516318d85b1b60e21b60208201908152906109118160248101610816565b519020810361093d575050505f6108eb9281925190826108005af161087a610937611f3e565b91611f6d565b9193509150604051602081019061096781610816846008906763616c6c636f646560c01b81520190565b519020036109f65761098d61097a611f03565b6020815191012063ffffffff60e01b1690565b916040602082015191015191604051938452600484015260406024840152603360448401526064830152608482015260c08160a4815f6108005af290805191610100606083015192016040521561016f576109e6610683565b906060825260208201529061088b565b60405162461bcd60e51b815260206004820152601060248201526f696e76616c69642063616c6c7479706560801b6044820152606490fd5b3461016f57606036600319011261016f576004356001600160401b03811161016f57610a5e903690600401610711565b602435906044356001600160401b03811161016f57610a81903690600401610711565b91610a8a612a62565b604051630fb6accf60e21b602082019081529093610abf85610ab1858730602485016120bd565b03601f1981018752866102c0565b604051610ad4816108166020820180956119e6565b51902093610aea610ae4426120fb565b60070b90565b6040516b19195b1959d85d1958d85b1b60a21b6020820190815290610b1281602c8101610816565b5190208603610b515750610b4f94505f610b4992819251906108005af4610b3a610874611f3e565b6020808251830101910161210b565b91612b54565b005b604051691cdd185d1a58d8d85b1b60b21b6020820190815290610b7781602a8101610816565b5190208603610b9f5750610b4f94505f610b4992819251906108005afa610b3a6108e5611f3e565b6040516318d85b1b60e21b6020820190815290610bbf8160248101610816565b5190208603610be85750610b4f94505f610b499281925190826108005af1610b3a610937611f3e565b93946040516020810190610c0f81610816846008906763616c6c636f646560c01b81520190565b519020036109f6575f9182915190826108005af21561016f57610b4f92612b54565b3461016f57604036600319011261016f576004356001600160401b03811161016f57610c61903690600401610711565b602435610c6e8183612cc3565b610c76612a62565b604051630fb6accf60e21b81529060208280610c97848730600485016120bd565b03815f6108005af191821561067e575f92610cfe575b505f8260070b1315610cc257610b4f92612b54565b60405162461bcd60e51b81526020600482015260146024820152734661696c656420746f20756e64656c656761746560601b6044820152606490fd5b610d2191925060203d602011610d28575b610d1981836102c0565b81019061210b565b905f610cad565b503d610d0f565b606036600319011261016f57610d43610159565b6024356001600160401b03811161016f575f80610d67610db4933690600401610711565b93604435610d73612a62565b60405163a9059cbb60e01b6020820190815233602483015260448201929092528390610da28160648101610816565b51925af1610dae611f3e565b5061211f565b6040516353266bbb60e01b81529060208280610dd5348530600485016120bd565b03815f6108005af191821561067e57610b4f92610df9915f91610e01575b50612172565b349033612d59565b610e23915060203d602011610e29575b610e1b81836102c0565b81019061215d565b5f610df3565b503d610e11565b90604060031983011261016f576004356001600160a01b038116810361016f5791602435906001600160401b03821161016f576104d091600401610711565b90602082526040610ea4610e8f8351606060208701526080860190610381565b6020840151858203601f190184870152610381565b910151916060601f1982840301910152602080835192838152019201905f5b818110610ed05750505090565b909192602060c060019260a08751805160070b83528481015160070b8584015260408101516040840152606081015160608401526001600160401b036080820151166080840152015160070b60a08201520194019101919091610ec3565b3461016f57610f775f610f4036610e30565b90606060408051610f5081610254565b82815260208101839052015260405163a03ffee160e01b8152938492839260048401611ee1565b03816108005afa801561067e575f90610f9b575b6104429060405191829182610e6f565b503d805f833e610fab81836102c0565b81019060208183031261016f578051906001600160401b03821161016f570160608183031261016f5760405190610fe182610254565b80516001600160401b03811161016f5783610ffd918301611ca5565b825260208101516001600160401b03811161016f578361101e918301611ca5565b60208301526040810151906001600160401b03821161016f57019180601f8401121561016f57825192611050846121b0565b9161105e60405193846102c0565b848352602060c081850196028301019181831161016f57602001945b8286106110935750505061044292506040820152610f8b565b60c08683031261016f57602060c0916040516110ae8161026f565b6110b789611d9b565b81526110c4838a01611d9b565b83820152604089015160408201526060890151606082015260808901516110ea81611a3a565b60808201526110fb60a08a01611d9b565b60a082015281520195019461107a565b602060031982011261016f57600435906001600160401b03821161016f576104d091600401610711565b61113e3661110b565b611146612a62565b6040516353266bbb60e01b81529060208280611167348530600485016120bd565b03815f6108005af191821561067e5761118a92610df9915f91610e015750612172565b5f34156111a3575b5f8080809334903390f11561067e57005b506108fc611192565b6111b53661110b565b610db4612a62565b60606111fc6111ea6111d88451608087526080870190610381565b60208501518682036020880152610381565b60408401518582036040870152610381565b910151916060818303910152602080835192838152019201905f5b8181106112245750505090565b909192602060808261125d600194885160608091805160070b8452602081015160070b6020850152604081015160408501520151910152565b019401929101611217565b9060206104d09281815201906111bd565b3461016f576112e15f6112f361128e3661072c565b6060806040959395516112a08161028a565b81815281602082015281604082015201526040519586948594631f67e4e760e21b865260018060a01b03166004860152606060248601526064850190610381565b83810360031901604485015290610381565b03816108005afa801561067e57610442915f91611318575b5060405191829182611268565b61133491503d805f833e61132c81836102c0565b810190612319565b5f61130b565b3461016f575f36600319011261016f576020600254604051908152f35b908160a091031261016f5790565b3461016f5761010036600319011261016f576004356001600160401b03811161016f57611396903690600401611357565b606036602319011261016f576084356113ad610173565b9160c435916001600160401b03831161016f57610442936113d56113df943690600401610711565b9160e43593612424565b60405190151581529081906020820190565b3461016f57606036600319011261016f576004356001600160401b03811161016f57611421903690600401610711565b60243560443561142f612a62565b5f915f5b335f52600160205260405f205481101561153157335f90815260016020526040902061146590829061019f565b61019f565b5061148686611473836102e1565b6020815191012090602081519101201490565b9081611518575b5061149a57600101611433565b50915060208282946114b16001805b151514612d93565b6114d0604051968793849363096ac6ff60e11b855230600486016124ca565b03815f6108005af192831561067e57610b4f936114f4915f916114f9575b506124fd565b612e45565b611512915060203d602011610e2957610e1b81836102c0565b5f6114ee565b60030154611529915060070b610ae4565b42105f61148d565b50918282946114b160016020946114a9565b3461016f57608036600319011261016f576004356001600160401b03811161016f57611573903690600401611357565b60206115ab611580610189565b9260443593606435604051632943c16b60e21b8152608060048201529586948594608486019061238f565b6001600160a01b0390931660248501526044840152606483015203815f6108005af1801561067e57610442915f916115f1575b5060405190151581529081906020820190565b61160a915060203d602011610e2957610e1b81836102c0565b5f6115de565b9060206001600160401b038161162f8551604086526040860190610381565b9401511691015290565b929160408401936040815282518095526060810194602060608260051b8401019401905f5b81811061167b575050506104d09394506020818403910152611610565b909194602080611697600193605f19888203018c5289516104d3565b9701980191019691909661165e565b3461016f57604036600319011261016f576004356001600160401b03811161016f576116d6903690600401610711565b6024356001600160401b03811161016f576117266116f95f923690600401611357565b92611702611ec8565b50604051938492839263186b216760e01b8452604060048501526044840190610381565b828103600319016024840152608080611750611742858061233e565b60a0865260a086019161236f565b936001600160401b03602082013561176781611a3a565b1660208501526001600160401b03604082013561178381611a3a565b166040850152606081013561179781611a56565b1515606085015201356117a981611a56565b151591015203816108005afa90811561067e575f905f926117d5575b5061044260405192839283611639565b90506117f391503d805f833e6117eb81836102c0565b8101906125a8565b905f6117c5565b3461016f57606036600319011261016f576004356001600160401b03811161016f5761182a903690600401610711565b6024356001600160401b03811161016f57611849903690600401610711565b604435906118578284612cc3565b6040516354b826f560e01b815230600482015260806024820152602081806118976118856084830189610381565b82810360031901604484015286610381565b86606483015203815f6108005af190811561067e57610b4f946118cb5f6118d194879482916118d7575b5060070b1361265e565b33612ebd565b33612d59565b6118f0915060203d602011610d2857610d1981836102c0565b5f6118c1565b6118ff3661110b565b611907612a62565b6040516353266bbb60e01b81529060208280611928348530600485016120bd565b03815f6108005af191821561067e5761194b92610df9915f91610e015750612172565b6002546001810180911161195e57600255005b6120e7565b3461016f5761199a5f61197536610e30565b9061197e611ec8565b5060405163120bba7360e11b8152938492839260048401611ee1565b03816108005afa90811561067e575f905f926119c1575b5061044260405192839283610789565b90506119df91503d805f833e6119d781836102c0565b810190611fb5565b905f6119b1565b805191908290602001825e015f815290565b3461016f576020611a2a81611a0c36610e30565b9060018060a01b03165f525f825260405f20604051938480936119e6565b9081520301902054604051908152f35b6001600160401b0381160361016f57565b359061031982611a3a565b8015150361016f57565b359061031982611a56565b9291604084016040855282518091526060850190602060608260051b8801019401915f905b828210611aad57505050508360206104d094958403910152611610565b90919294605f1988820301825285516020611ad182516040855260408501906111bd565b91015182820360209384015280518083529183019201905f905b808210611b0957505050602080600192970192019201909291611a90565b909192602060a0600192828751611b4583825160608091805160070b8452602081015160070b6020850152604081015160408501520151910152565b01516080820152019401920190611aeb565b3461016f57608036600319011261016f57611b70610159565b6024356001600160401b03811161016f57611b8f903690600401610711565b906044356001600160401b03811161016f57611baf903690600401610711565b606435926001600160401b03841161016f5760a0600319853603011261016f5760405192611bdc84610239565b84600401356001600160401b03811161016f578501943660238701121561016f576084611c5591611c1a611c5f9836906024600482013591016106db565b8752611c2860248201611a4b565b6020880152611c3960448201611a4b565b6040880152611c4a60648201611a60565b606088015201611a60565b6080850152612831565b9061044260405192839283611a6b565b929192611c7b826106c0565b91611c8960405193846102c0565b82948184528183011161016f578281602093845f96015e010152565b9080601f8301121561016f5781516104d092602001611c6f565b519061031982611a56565b5190600482101561016f57565b91909160a08184031261016f57611cec610692565b9281516001600160401b03811161016f5781611d09918401611ca5565b845260208201516001600160401b03811161016f5781611d2a918401611ca5565b602085015260408201516001600160401b03811161016f5781611d4e918401611ca5565b604085015260608201516001600160401b03811161016f5781611d72918401611ca5565b606085015260808201516001600160401b03811161016f57611d949201611ca5565b6080830152565b51908160070b820361016f57565b91906101608382031261016f57611dbe6106a1565b9280516001600160401b03811161016f5782611ddb918301611ca5565b845260208101516001600160401b03811161016f5782611dfc918301611ca5565b6020850152611e0d60408201611cbf565b6040850152611e1e60608201611cca565b60608501526080810151608085015260a081015160a085015260c08101516001600160401b03811161016f5761014092611e59918301611cd7565b60c0850152611e6a60e08201611d9b565b60e0850152611e7c6101008201611d9b565b6101008501526101208101516101208501520151610140830152565b9060208282031261016f5781516001600160401b03811161016f576104d09201611da9565b6040513d5f823e3d90fd5b60405190611ed5826102a5565b5f602083606081520152565b6001600160a01b0390911681526040602082018190526104d092910190610381565b60405190611f126040836102c0565b601a82527f64656c65676174696f6e28616464726573732c737472696e67290000000000006020830152565b3d15611f68573d90611f4f826106c0565b91611f5d60405193846102c0565b82523d5f602084013e565b606090565b15611f7457565b60405162461bcd60e51b81526020600482015260196024820152786661696c65642063616c6c20746f20707265636f6d70696c6560381b6044820152606490fd5b919060408382031261016f578251926020810151906001600160401b03821161016f57019060408282031261016f5760405191611ff1836102a5565b80516001600160401b03811161016f5760209261200f918301611ca5565b83520151602082015290565b1561202257565b60405162461bcd60e51b815260206004820152601f60248201527f6661696c65642073746174696363616c6c20746f20707265636f6d70696c65006044820152606490fd5b1561206e57565b60405162461bcd60e51b815260206004820152602160248201527f6661696c65642064656c656761746563616c6c20746f20707265636f6d70696c6044820152606560f81b6064820152608490fd5b9392916120e29060409260018060a01b03168652606060208701526060860190610381565b930152565b634e487b7160e01b5f52601160045260245ffd5b90621baf80820180921161195e57565b9081602091031261016f576104d090611d9b565b1561212657565b60405162461bcd60e51b815260206004820152600f60248201526e1d1c985b9cd9995c8819985a5b1959608a1b6044820152606490fd5b9081602091031261016f57516104d081611a56565b1561217957565b60405162461bcd60e51b815260206004820152600f60248201526e19195b1959d85d194819985a5b1959608a1b6044820152606490fd5b6001600160401b0381116102345760051b60200190565b919082608091031261016f576040516121df8161028a565b60608082946121ed81611d9b565b84526121fb60208201611d9b565b6020850152604081015160408501520151910152565b81601f8201121561016f578051612227816121b0565b9261223560405194856102c0565b81845260208085019260071b8401019281841161016f57602001915b83831061225f575050505090565b602060809161226e84866121c7565b815201920191612251565b91909160808184031261016f5761228e6106b1565b9281516001600160401b03811161016f57816122ab918401611ca5565b845260208201516001600160401b03811161016f57816122cc918401611ca5565b602085015260408201516001600160401b03811161016f57816122f0918401611ca5565b604085015260608201516001600160401b03811161016f576123129201612211565b6060830152565b9060208282031261016f5781516001600160401b03811161016f576104d09201612279565b9035601e198236030181121561016f5701602081359101916001600160401b03821161016f57813603831361016f57565b908060209392818452848401375f828201840152601f01601f1916010190565b6104d09161241661240b6123f06123d56123ba6123ac878061233e565b60a0885260a088019161236f565b6123c7602088018861233e565b90878303602089015261236f565b6123e2604087018761233e565b90868303604088015261236f565b6123fd606086018661233e565b90858303606087015261236f565b92608081019061233e565b91608081850391015261236f565b909361249261245693956020956040519788968796637be6aa8b60e11b8852610100600489015261010488019061238f565b92602435602488015260443560448801526064356064880152608487015260018060a01b031660a48601526003198583030160c4860152610381565b9060e483015203815f6108005af190811561067e575f916124b1575090565b6104d0915060203d602011610e2957610e1b81836102c0565b6001600160a01b039091168152608060208201819052929493926060926124f391830190610381565b9460408201520152565b1561250457565b60405162461bcd60e51b815260206004820152601a60248201527f4661696c656420746f2063616e63656c20756e626f6e64696e670000000000006044820152606490fd5b91909160408184031261016f5760405190612563826102a5565b819381516001600160401b03811161016f5782019181601f8401121561016f576125966020939283858095519101611c6f565b84520151916125a483611a3a565b0152565b91909160408184031261016f5780516001600160401b03811161016f57810183601f8201121561016f5780516125dd816121b0565b916125eb60405193846102c0565b81835260208084019260051b8201019186831161016f5760208201905b83821061263157505050509260208201516001600160401b03811161016f576104d09201612549565b81516001600160401b03811161016f576020916126538a848094880101611da9565b815201910190612608565b1561266557565b60405162461bcd60e51b81526020600482015260146024820152734661696c656420746f20726564656c656761746560601b6044820152606490fd5b91909160408184031261016f5780516001600160401b03811161016f57810183601f8201121561016f578051906126d7826121b0565b916126e560405193846102c0565b80835260208084019160051b8301019186831161016f5760208101915b83831061272b57505050509260208201516001600160401b03811161016f576104d09201612549565b82516001600160401b03811161016f5782016040818a03601f19011261016f5760405190612758826102a5565b60208101516001600160401b03811161016f578a602061277a92840101612279565b825260408101516001600160401b03811161016f57602091010189601f8201121561016f5780516127aa816121b0565b916127b860405193846102c0565b818352602060a08185019302820101908c821161016f57602001915b8c8284106127f5575050505091816020938480940152815201920191612702565b8360a091031261016f57602060a0918e61281b60405191612815836102a5565b876121c7565b81526080860151838201528152019201916127d4565b61287a949361288c5f94612843611ec8565b50604051630428a14760e21b81526001600160a01b0390941660048501526080602485015292968794859491906084860190610381565b84810360031901604486015290610381565b6003198382030160648401526080806128ae845160a0855260a0850190610381565b936001600160401b0360208201511660208501526001600160401b0360408201511660408501526060810151151560608501520151151591015203816108005afa91821561067e575f905f9361290357509190565b90506129229192503d805f833e61291a81836102c0565b8101906126a1565b9091565b818110612931575050565b5f8155600101612926565b634e487b7160e01b5f525f60045260245ffd5b906129cb576003816129625f93546101cc565b80612979575b508260018201558260028201550155565b601f811160011461298f57508281555b5f612968565b818452602084206129ab91601f0160051c810190600101612926565b808352826020812080548260011b90831984871b1c191617835555612989565b61293c565b9060405180925f908054906129e4826101cc565b9160018116908115612a3d5750600114612a07575b505060209281520301902090565b9091505f5260205f205f905b828210612a26575050810160205f6129f9565b805482870152859350602090910190600101612a13565b60ff191685525050801515028201905060205f6129f9565b9190820391821161195e57565b5f5b335f52600160205260405f2054811015612b0e5780612a996001926114603360018060a01b03165f52600160205260405f2090565b50600381015460070b421015612ab1575b5001612a64565b335f908152600160205260409020612ad490612ace90849061019f565b9061294f565b612b06612afe8483015492612af83360018060a01b03165f525f60205260405f2090565b906129d0565b918254612a55565b90555f612aaa565b50565b9190601f8111612b2057505050565b610319925f5260205f20906020601f840160051c83019310612b4a575b601f0160051c0190612926565b9091508190612b3d565b909291335f52600160205260405f2060405192612b708461028a565b8352602083019485526040830190438252606084019260070b83528054600160401b81101561023457612ba89160018201815561019f565b9390936129cb57519485516001600160401b03811161023457612bd581612bcf87546101cc565b87612b11565b6020601f8211600114612c4f5791612c1082612c269593600397956103199a9b5f92612c44575b50508160011b915f199060031b1c19161790565b86555b5160018601555160028501555160070b90565b9101906001600160401b0319825416906001600160401b0316179055565b015190505f80612bfc565b601f19821697612c62875f5260205f2090565b985f5b818110612cab5750926103199899600397959360019383612c26999710612c94575b505050811b018655612c13565b01515f19838a1b60f8161c191690555f8080612c87565b838301518b556001909a019960209384019301612c65565b6020612cdf91335f525f825260405f20604051938480936119e6565b908152030190205410612cee57565b60405162461bcd60e51b815260206004820152603b60248201527f44656c65676174696f6e20646f6573206e6f74206578697374206f7220696e7360448201527f756666696369656e742064656c65676174696f6e20616d6f756e7400000000006064820152608490fd5b612d7d9160209160018060a01b03165f525f825260405f20604051938480936119e6565b90815203019020805491820180921161195e5755565b15612d9a57565b60405162461bcd60e51b815260206004820152602360248201527f556e626f6e64696e672064656c65676174696f6e20646f6573206e6f742065786044820152621a5cdd60ea1b6064820152608490fd5b15612df257565b60405162461bcd60e51b815260206004820152602560248201527f616d6f756e74206578636565647320756e626f6e64696e6720656e74727920616044820152641b5bdd5b9d60da1b6064820152608490fd5b90335f52600160205260405f20905f925b8254841015612eb757612e69848461019f565b509080600283015403612eab57506001612e929101918254612e8d82821015612deb565b612a55565b81555415612e9e575050565b61031991612ace9161019f565b93600191500192612e56565b50505050565b9060018060a01b0382165f525f6020528260405f2060206040518092612ee382876119e6565b908152030190205410612f31576020612f1e91612f12612f2d9460018060a01b03165f525f60205260405f2090565b604051938480936119e6565b90815203019020918254612a55565b9055565b60405162461bcd60e51b815260206004820152601e60248201527f496e73756666696369656e742064656c65676174696f6e20616d6f756e7400006044820152606490fdfea2646970667358221220a73484ad36ae0caeba229671c9989ffd65f1561501c82c607df72071a438e91b64736f6c634300081c0033c2575a0e9e593c00f959f8c92f12db2869c3395a3b0502d05e2516446f71f85b",
  "linkReferences": {},
  "deployedLinkReferences": {},
  "immutableReferences": {},
  "inputSourceName": "project/solidity/precompiles/staking/testdata/StakingCaller.sol",
  "buildInfoId": "solc-0_8_28-e55ad96646b3bb5046840fe24a1f6856fc44be2c"
}