{
  "_format": "hh3-artifact-1",
  "contractName": "StakingCallerTwo",
  "sourceName": "solidity/precompiles/staking/testdata/StakingCallerTwo.sol",
  "abi": [
    {
      "inputs": [],
      "name": "counter",
      "outputs": [
        {
          "internalType": "uint256",
          "name": "",
          "type": "uint256"
        }
      ],
      "stateMutability": "view",
      "type": "function"
    },
    {
      "inputs": [
        {
          "internalType": "address",
          "name": "",
          "type": "address"
        },
        {
          "internalType": "string",
          "name": "",
          "type": "string"
        }
      ],
      "name": "delegation",
      "outputs": [
        {
          "internalType": "uint256",
          "name": "",
          "type": "uint256"
        }
      ],
      "stateMutability": "view",
      "type": "function"
    },
    {
      "inputs": [
        {
          "components": [
            {
              "internalType": "string",
              "name": "moniker",
              "type": "string"
            },
            {
              "internalType": "string",
              "name": "identity",
              "type": "string"
            },
            {
              "internalType": "string",
              "name": "website",
              "type": "string"
            },
            {
              "internalType": "string",
              "name": "securityContact",
              "type": "string"
            },
            {
              "internalType": "string",
              "name": "details",
              "type": "string"
            }
          ],
          "internalType": "struct Description",
          "name": "_descr",
          "type": "tuple"
        },
        {
          "components": [
            {
              "internalType": "uint256",
              "name": "rate",
              "type": "uint256"
            },
            {
              "internalType": "uint256",
              "name": "maxRate",
              "type": "uint256"
            },
            {
              "internalType": "uint256",
              "name": "maxChangeRate",
              "type": "uint256"
            }
          ],
          "internalType": "struct CommissionRates",
          "name": "_commRates",
          "type": "tuple"
        },
        {
          "internalType": "uint256",
          "name": "_minSelfDel",
          "type": "uint256"
        },
        {
          "internalType": "address",
          "name": "_validator",
          "type": "address"
        },
        {
          "internalType": "string",
          "name": "_pubkey",
          "type": "string"
        },
        {
          "internalType": "bool",
          "name": "_before",
          "type": "bool"
        },
        {
          "internalType": "bool",
          "name": "_after",
          "type": "bool"
        }
      ],
      "name": "testCreateValidatorWithTransfer",
      "outputs": [],
      "stateMutability": "payable",
      "type": "function"
    },
    {
      "inputs": [
        {
          "internalType": "string",
          "name": "_validatorAddr",
          "type": "string"
        },
        {
          "internalType": "bool",
          "name": "_before",
          "type": "bool"
        },
        {
          "internalType": "bool",
          "name": "_after",
          "type": "bool"
        }
      ],
      "name": "testDelegateWithCounterAndTransfer",
      "outputs": [],
      "stateMutability": "payable",
      "type": "function"
    },
    {
      "inputs": [
        {
          "internalType": "address payable",
          "name": "_dest",
          "type": "address"
        },
        {
          "internalType": "address payable",
          "name": "_delegator",
          "type": "address"
        },
        {
          "internalType": "string",
          "name": "_validatorAddr",
          "type": "string"
        },
        {
          "internalType": "bool",
          "name": "_before",
          "type": "bool"
        },
        {
          "internalType": "bool",
          "name": "_after",
          "type": "bool"
        }
      ],
      "name": "testDelegateWithTransfer",
      "outputs": [],
      "stateMutability": "payable",
      "type": "function"
    }
  ],
  "bytecode": "0x60808060405234610016576108d8908161001b8239f35b5f80fdfe60406080815260049081361015610014575f80fd5b5f91823560e01c8063241774e6146105ad57806361bc221a146105905783816366dafc7a1461042b57508063b9a6bbca146101b75763c5b75f0114610057575f80fd5b60603660031901126101b35780356001600160401b0381116101af57610080903690830161068e565b6024359081151582036101ab576044359283151584036101a7576100c392610182575b8451906353266bbb60e01b825281806020958693863491309085016107d9565b0381896108005af1908115610178576101059495916100e991889161014b575b50610803565b33865260018352828187209151948386809551938492016106d4565b820190815203019020610119348254610844565b90556101225780f35b61012c81546106f5565b815561014881808080600f335af1610142610717565b50610746565b80f35b61016b9150853d8711610171575b610163818361063e565b81019061079c565b5f6100e3565b503d610159565b85513d88823e3d90fd5b61018c86546106f5565b86556101a286808080600f335af1610142610717565b6100a3565b8580fd5b8480fd5b8380fd5b8280fd5b506003199190610120368401126101af576001600160401b039181358381116101a757858184019160a08782360301126104275760603660231901126104275760a435966001600160a01b038816968789036101af5760c4359081116101af57610224903690880161068e565b60e4359788151589036101ab57610104928335998a15158b0361042357868c91610409575b50508751637be6aa8b60e11b81526101008a820152968795869561026d8380610851565b9091880160a090526101a488019061028492610882565b916102926024830182610851565b936101031994858a8303016101248b01526102ac92610882565b6102b96044840183610851565b89830386016101448b01526102ce9291610882565b6102db6064840183610851565b89830386016101648b01526102f09291610882565b916084016102fd91610851565b90928783030161018488015261031292610882565b91602435602486015260443560448601526064356064860152608435608486015260a48501528382030160c484015261034a916107b4565b3460e483015203815a93610800602095f19081156103ff5786916103e1575b501561039e575050829061037a5780f35b808080600f6103999561038d83546106f5565b83555af1610142610717565b5f8180f35b906020606492519162461bcd60e51b8352820152601e60248201527f4661696c656420746f20637265617465207468652076616c696461746f7200006044820152fd5b6103f9915060203d811161017157610163818361063e565b5f610369565b82513d88823e3d90fd5b808080600f61041c9561038d83546106f5565b8a86610249565b8680fd5b5080fd5b82818560a036600319011261042757610442610624565b926001600160a01b039160243583811691908290036101ab576044356001600160401b0381116101a757610479903690850161068e565b906064359283151584036104235760843594851515860361058c578888886104c397610570575b5050508251906353266bbb60e01b825281806020978893883491309085016107d9565b03818b6108005af19081156105665761050595949392916104ea918a916105495750610803565b875260018352828188209151948386809551938492016106d4565b820190815203019020610519348254610844565b9055610523575080f35b8180600f81936105449661053784546106f5565b8455165af1610142610717565b818180f35b6105609150863d881161017157610163818361063e565b8c6100e3565b83513d8a823e3d90fd5b8180600f81936105849661053784546106f5565b8888886104a0565b8780fd5b505034610427578160031936011261042757602091549051908152f35b50346101b357816003193601126101b3576105c6610624565b906024356001600160401b0381116101ab5791836020956105ee87946106139636910161068e565b6001600160a01b039093168152600184522084518251909485938290859087016106d4565b820190815203019020549051908152f35b600435906001600160a01b038216820361063a57565b5f80fd5b90601f801991011681019081106001600160401b0382111761065f57604052565b634e487b7160e01b5f52604160045260245ffd5b6001600160401b03811161065f57601f01601f191660200190565b81601f8201121561063a578035906106a582610673565b926106b3604051948561063e565b8284526020838301011161063a57815f926020809301838601378301015290565b5f5b8381106106e55750505f910152565b81810151838201526020016106d6565b5f1981146107035760010190565b634e487b7160e01b5f52601160045260245ffd5b3d15610741573d9061072882610673565b91610736604051938461063e565b82523d5f602084013e565b606090565b1561074d57565b60405162461bcd60e51b815260206004820152602160248201527f4661696c656420746f2073656e6420457468657220746f2064656c656761746f6044820152603960f91b6064820152608490fd5b9081602091031261063a5751801515810361063a5790565b906020916107cd815180928185528580860191016106d4565b601f01601f1916010190565b9392916107fe9060409260018060a01b031686526060602087015260608601906107b4565b930152565b1561080a57565b60405162461bcd60e51b81526020600482015260126024820152714661696c656420746f2064656c656761746560701b6044820152606490fd5b9190820180921161070357565b9035601e198236030181121561063a5701602081359101916001600160401b03821161063a57813603831361063a57565b908060209392818452848401375f828201840152601f01601f191601019056fea2646970667358221220915b240a2cec21562ed0109508184e92199ba56d3cd2188aaac35f911a628dbb64736f6c63430008140033",
  "linkReferences": {},
  "deployedLinkReferences": {},
  "immutableReferences": {},
  "inputSourceName": "project/solidity/precompiles/staking/testdata/StakingCallerTwo.sol",
  "buildInfoId": "solc-0_8_20-fda2ffeb444d7d9486f659e7e357f970dc6ac662"
}