{
  "_format": "hh3-artifact-1",
  "contractName": "BankCaller",
  "sourceName": "solidity/precompiles/bank/testdata/BankCaller.sol",
  "abi": [
    {
      "inputs": [
        {
          "internalType": "address",
          "name": "account",
          "type": "address"
        }
      ],
      "name": "callBalances",
      "outputs": [
        {
          "components": [
            {
              "internalType": "address",
              "name": "contractAddress",
              "type": "address"
            },
            {
              "internalType": "uint256",
              "name": "amount",
              "type": "uint256"
            }
          ],
          "internalType": "struct Balance[]",
          "name": "balances",
          "type": "tuple[]"
        }
      ],
      "stateMutability": "view",
      "type": "function"
    },
    {
      "inputs": [
        {
          "internalType": "address",
          "name": "erc20Address",
          "type": "address"
        }
      ],
      "name": "callSupplyOf",
      "outputs": [
        {
          "internalType": "uint256",
          "name": "",
          "type": "uint256"
        }
      ],
      "stateMutability": "view",
      "type": "function"
    },
    {
      "inputs": [],
      "name": "callTotalSupply",
      "outputs": [
        {
          "components": [
            {
              "internalType": "address",
              "name": "contractAddress",
              "type": "address"
            },
            {
              "internalType": "uint256",
              "name": "amount",
              "type": "uint256"
            }
          ],
          "internalType": "struct Balance[]",
          "name": "totalSupply",
          "type": "tuple[]"
        }
      ],
      "stateMutability": "view",
      "type": "function"
    }
  ],
  "bytecode": "0x60808060405234601557610326908161001a8239f35b5f80fdfe6080806040526004361015610012575f80fd5b5f3560e01c90816389129c681461014657508063acab2f94146100db5763bba60ca01461003d575f80fd5b346100c45760203660031901126100c4576004356001600160a01b038116908190036100c45760405190631890039360e21b825260048201526020816024816108045afa80156100d0575f90610099575b602090604051908152f35b506020813d6020116100c8575b816100b3602093836101ec565b810103126100c4576020905161008e565b5f80fd5b3d91506100a6565b6040513d5f823e3d90fd5b346100c4575f3660031901126100c4576040516318160ddd60e01b81525f816004816108045afa80156100d057610120915f91610124575b506040519182918261019e565b0390f35b61014091503d805f833e61013881836101ec565b810190610222565b82610113565b346100c45760203660031901126100c4576004356001600160a01b038116908190036100c4576327e235e360e01b825260048201525f816024816108045afa80156100d057610120915f916101245750604051918291825b60206040818301928281528451809452019201905f5b8181106101c15750505090565b825180516001600160a01b0316855260209081015181860152604090940193909201916001016101b4565b90601f8019910116810190811067ffffffffffffffff82111761020e57604052565b634e487b7160e01b5f52604160045260245ffd5b6020818303126100c45780519067ffffffffffffffff82116100c4570181601f820112156100c45780519067ffffffffffffffff821161020e576040519261027060208460051b01856101ec565b82845260208085019360061b830101918183116100c457602001925b82841061029a575050505090565b6040848303126100c457604051906040820182811067ffffffffffffffff82111761020e576040528451906001600160a01b03821682036100c4578260209260409452828701518382015281520193019261028c56fea2646970667358221220c97c01e228eb2489925af103ae1dcbe00ef3d4dbeeb6890475c6b2a99801785664736f6c634300081c0033",
  "linkReferences": {},
  "deployedLinkReferences": {},
  "immutableReferences": {},
  "inputSourceName": "project/solidity/precompiles/bank/testdata/BankCaller.sol",
  "buildInfoId": "solc-0_8_28-e55ad96646b3bb5046840fe24a1f6856fc44be2c"
}