{
  "_format": "hh3-artifact-1",
  "contractName": "BankCaller",
  "sourceName": "solidity/precompiles/bank/testdata/BankCaller.sol",
  "abi": [
    {
      "inputs": [
        {
          "internalType": "address",
          "name": "account",
          "type": "address"
        }
      ],
      "name": "callBalances",
      "outputs": [
        {
          "components": [
            {
              "internalType": "address",
              "name": "contractAddress",
              "type": "address"
            },
            {
              "internalType": "uint256",
              "name": "amount",
              "type": "uint256"
            }
          ],
          "internalType": "struct Balance[]",
          "name": "balances",
          "type": "tuple[]"
        }
      ],
      "stateMutability": "view",
      "type": "function"
    },
    {
      "inputs": [
        {
          "internalType": "address",
          "name": "erc20Address",
          "type": "address"
        }
      ],
      "name": "callSupplyOf",
      "outputs": [
        {
          "internalType": "uint256",
          "name": "",
          "type": "uint256"
        }
      ],
      "stateMutability": "view",
      "type": "function"
    },
    {
      "inputs": [],
      "name": "callTotalSupply",
      "outputs": [
        {
          "components": [
            {
              "internalType": "address",
              "name": "contractAddress",
              "type": "address"
            },
            {
              "internalType": "uint256",
              "name": "amount",
              "type": "uint256"
            }
          ],
          "internalType": "struct Balance[]",
          "name": "totalSupply",
          "type": "tuple[]"
        }
      ],
      "stateMutability": "view",
      "type": "function"
    },
    {
      "inputs": [
        {
          "internalType": "uint256",
          "name": "gasForward",
          "type": "uint256"
        }
      ],
      "name": "callTotalSupplyWithGas",
      "outputs": [
        {
          "internalType": "bool",
          "name": "success",
          "type": "bool"
        },
        {
          "internalType": "uint256",
          "name": "innerGasUsed",
          "type": "uint256"
        }
      ],
      "stateMutability": "view",
      "type": "function"
    }
  ],
  "bytecode": "0x608080604052346015576103db908161001a8239f35b5f80fdfe6080806040526004361015610012575f80fd5b5f3560e01c90816389129c681461020f57508063acab2f94146101a4578063bba60ca01461010a5763d470520314610048575f80fd5b34610106576020366003190112610106575a5f8060405160208101906318160ddd60e01b82526004815261007d6024826102b5565b5190610804600435fa3d15610101573d67ffffffffffffffff81116100ed57604051906100b4601f8201601f1916602001836102b5565b81525f60203d92013e5b5a82039182116100d957604091825191151582526020820152f35b634e487b7160e01b5f52601160045260245ffd5b634e487b7160e01b5f52604160045260245ffd5b6100be565b5f80fd5b34610106576020366003190112610106576004356001600160a01b038116908190036101065760405190631890039360e21b825260048201526020816024816108045afa8015610199575f90610166575b602090604051908152f35b506020813d602011610191575b81610180602093836102b5565b81010312610106576020905161015b565b3d9150610173565b6040513d5f823e3d90fd5b34610106575f366003190112610106576040516318160ddd60e01b81525f816004816108045afa8015610199576101e9915f916101ed575b5060405191829182610267565b0390f35b61020991503d805f833e61020181836102b5565b8101906102d7565b826101dc565b34610106576020366003190112610106576004356001600160a01b03811690819003610106576327e235e360e01b825260048201525f816024816108045afa8015610199576101e9915f916101ed5750604051918291825b60206040818301928281528451809452019201905f5b81811061028a5750505090565b825180516001600160a01b03168552602090810151818601526040909401939092019160010161027d565b90601f8019910116810190811067ffffffffffffffff8211176100ed57604052565b6020818303126101065780519067ffffffffffffffff8211610106570181601f820112156101065780519067ffffffffffffffff82116100ed576040519261032560208460051b01856102b5565b82845260208085019360061b8301019181831161010657602001925b82841061034f575050505090565b60408483031261010657604051906040820182811067ffffffffffffffff8211176100ed576040528451906001600160a01b0382168203610106578260209260409452828701518382015281520193019261034156fea26469706673582212201df492823921705e65849b321fae2598c3600dafab74456f106dadee538e526c64736f6c634300081a0033",
  "linkReferences": {},
  "deployedLinkReferences": {},
  "immutableReferences": {},
  "inputSourceName": "project/solidity/precompiles/bank/testdata/BankCaller.sol",
  "buildInfoId": "solc-0_8_26-6ec4f0c6b3691526d7b3a3a19b37097670fc2b6e"
}