{
  "_format": "hh3-artifact-1",
  "contractName": "BankCaller",
  "sourceName": "solidity/precompiles/bank/testdata/BankCaller.sol",
  "abi": [
    {
      "inputs": [
        {
          "internalType": "address",
          "name": "account",
          "type": "address"
        }
      ],
      "name": "callBalances",
      "outputs": [
        {
          "components": [
            {
              "internalType": "address",
              "name": "contractAddress",
              "type": "address"
            },
            {
              "internalType": "uint256",
              "name": "amount",
              "type": "uint256"
            }
          ],
          "internalType": "struct Balance[]",
          "name": "balances",
          "type": "tuple[]"
        }
      ],
      "stateMutability": "view",
      "type": "function"
    },
    {
      "inputs": [
        {
          "internalType": "address",
          "name": "erc20Address",
          "type": "address"
        }
      ],
      "name": "callSupplyOf",
      "outputs": [
        {
          "internalType": "uint256",
          "name": "",
          "type": "uint256"
        }
      ],
      "stateMutability": "view",
      "type": "function"
    },
    {
      "inputs": [],
      "name": "callTotalSupply",
      "outputs": [
        {
          "components": [
            {
              "internalType": "address",
              "name": "contractAddress",
              "type": "address"
            },
            {
              "internalType": "uint256",
              "name": "amount",
              "type": "uint256"
            }
          ],
          "internalType": "struct Balance[]",
          "name": "totalSupply",
          "type": "tuple[]"
        }
      ],
      "stateMutability": "view",
      "type": "function"
    },
    {
      "inputs": [
        {
          "internalType": "uint256",
          "name": "gasForward",
          "type": "uint256"
        }
      ],
      "name": "callTotalSupplyWithGas",
      "outputs": [
        {
          "internalType": "bool",
          "name": "success",
          "type": "bool"
        },
        {
          "internalType": "uint256",
          "name": "innerGasUsed",
          "type": "uint256"
        }
      ],
      "stateMutability": "view",
      "type": "function"
    }
  ],
  "bytecode": "0x6080806040523461001657610453908161001b8239f35b5f80fdfe608060409080825260049081361015610016575f80fd5b5f90813560e01c90816389129c681461024257508063acab2f94146101ca578063bba60ca0146101285763d47052031461004e575f80fd5b34610125576020366003190112610125575a90835192602084016318160ddd60e01b81528185528585019467ffffffffffffffff95818110878211176101125787525183918291906108048535fa933d1561010c573d9081116100f9578551906100c2601f8201601f191660200183610313565b81528260203d92013e5b5a83039283116100e6575050825191151582526020820152f35b634e487b7160e01b825260119052602490fd5b634e487b7160e01b835260418252602483fd5b506100cc565b634e487b7160e01b855260418452602485fd5b80fd5b5082346101c657602092836003193601126101c25780356001600160a01b038116908190036101be578251631890039360e21b81529182015283816024816108045afa9283156101b3578093610181575b505051908152f35b909192508382813d83116101ac575b61019a8183610313565b81010312610125575051908380610179565b503d610190565b8251903d90823e3d90fd5b8380fd5b8280fd5b5080fd5b5091346101c257826003193601126101c25782815180936318160ddd60e01b8252816108045afa918215610238578361020f9493610213575b505051918291826102c1565b0390f35b6102309293503d8091833e6102288183610313565b810190610349565b905f80610203565b81513d85823e3d90fd5b90508383346101be5760203660031901126101be5780356001600160a01b03811691908290036102bd576327e235e360e01b845283015282826024816108045afa918215610238578361020f94936102a057505051918291826102c1565b6102b59293503d8091833e6102288183610313565b908380610203565b8480fd5b60208082019080835283518092528060408094019401925f905b8382106102ea57505050505090565b845180516001600160a01b031687528301518684015294850194938201936001909101906102db565b90601f8019910116810190811067ffffffffffffffff82111761033557604052565b634e487b7160e01b5f52604160045260245ffd5b6020808284031261040557815167ffffffffffffffff9283821161040557019083601f8301121561040557815183811161033557604093845195610392848460051b0188610313565b828752838088019360061b86010194818611610405578401925b8584106103bd575050505050505090565b868483031261040557865190878201828110858211176104095788528451906001600160a01b0382168203610405578287928a945282870151838201528152019301926103ac565b5f80fd5b60245f634e487b7160e01b81526041600452fdfea264697066735822122094cdb3e46a3128001070b5dc0e00014bc45750b75141d52738bf7980e4807c6364736f6c63430008140033",
  "linkReferences": {},
  "deployedLinkReferences": {},
  "immutableReferences": {},
  "inputSourceName": "project/solidity/precompiles/bank/testdata/BankCaller.sol",
  "buildInfoId": "solc-0_8_20-fda2ffeb444d7d9486f659e7e357f970dc6ac662"
}