{
  "_format": "hh3-artifact-1",
  "contractName": "Counter",
  "sourceName": "solidity/eips/testdata/Counter.sol",
  "abi": [
    {
      "inputs": [],
      "name": "counter",
      "outputs": [
        {
          "internalType": "uint256",
          "name": "",
          "type": "uint256"
        }
      ],
      "stateMutability": "view",
      "type": "function"
    },
    {
      "inputs": [],
      "name": "decrement",
      "outputs": [],
      "stateMutability": "nonpayable",
      "type": "function"
    },
    {
      "inputs": [],
      "name": "increment",
      "outputs": [],
      "stateMutability": "nonpayable",
      "type": "function"
    }
  ],
  "bytecode": "0x6080806040523460175760015f5560d89081601c8239f35b5f80fdfe608060405260043610156010575f80fd5b5f3560e01c80632baeceb714608657806361bc221a14606c5763d09de08a146036575f80fd5b346068575f3660031901126068575f545f1981146054576001015f55005b634e487b7160e01b5f52601160045260245ffd5b5f80fd5b346068575f36600319011260685760205f54604051908152f35b346068575f3660031901126068575f5480156054575f19015f5500fea2646970667358221220dddad0a8810a89d275a619dd1bf3eba00a164e71ae2c0c6ff097120d155bfa7a64736f6c634300081a0033",
  "linkReferences": {},
  "deployedLinkReferences": {},
  "immutableReferences": {},
  "inputSourceName": "project/solidity/eips/testdata/Counter.sol",
  "buildInfoId": "solc-0_8_26-6ec4f0c6b3691526d7b3a3a19b37097670fc2b6e"
}