{
  "_format": "hh3-artifact-1",
  "contractName": "Counterfactory",
  "sourceName": "solidity/eips/testdata/CounterFactory.sol",
  "abi": [
    {
      "inputs": [],
      "stateMutability": "nonpayable",
      "type": "constructor"
    },
    {
      "inputs": [],
      "name": "counterInstance",
      "outputs": [
        {
          "internalType": "contract Counter",
          "name": "",
          "type": "address"
        }
      ],
      "stateMutability": "view",
      "type": "function"
    },
    {
      "inputs": [],
      "name": "decrementCounter",
      "outputs": [],
      "stateMutability": "nonpayable",
      "type": "function"
    },
    {
      "inputs": [],
      "name": "getCounterValue",
      "outputs": [
        {
          "internalType": "uint256",
          "name": "",
          "type": "uint256"
        }
      ],
      "stateMutability": "view",
      "type": "function"
    },
    {
      "inputs": [],
      "name": "incrementCounter",
      "outputs": [],
      "stateMutability": "nonpayable",
      "type": "function"
    }
  ],
  "bytecode": "0x60808060405234607c5760f48181016001600160401b0381118382101760685782916102b4833903905ff08015605d575f80546001600160a01b0319166001600160a01b039290921691909117905560405161023390816100818239f35b6040513d5f823e3d90fd5b634e487b7160e01b5f52604160045260245ffd5b5f80fdfe6080806040526004361015610012575f80fd5b5f905f3560e01c9081635b34b966146101655750806372142b89146100dc578063aef38e72146100b55763f5c5ad831461004a575f80fd5b346100a457806003193601126100a457805481906001600160a01b0316803b156100b257818091600460405180948193632baeceb760e01b83525af180156100a7576100935750f35b8161009d916101c7565b6100a45780f35b80fd5b6040513d84823e3d90fd5b50fd5b50346100a457806003193601126100a457546040516001600160a01b039091168152602090f35b50346100a457806003193601126100a45780546040516330de110d60e11b815290602090829060049082906001600160a01b03165afa9081156100a757829161012b575b602082604051908152f35b90506020813d60201161015d575b81610146602093836101c7565b810103126101595760209150515f610120565b5080fd5b3d9150610139565b9050346101c3575f3660031901126101c3575f546001600160a01b0316803b156101c357816004815f809463684ef04560e11b83525af180156101b8576101aa575080f35b6101b691505f906101c7565b005b6040513d5f823e3d90fd5b5f80fd5b90601f8019910116810190811067ffffffffffffffff8211176101e957604052565b634e487b7160e01b5f52604160045260245ffdfea2646970667358221220d77df5083cb7d7de8c1bc283ab59b435acc6cabb28419d9dcf8ab469349ae35764736f6c634300081c00336080806040523460175760015f5560d89081601c8239f35b5f80fdfe608060405260043610156010575f80fd5b5f3560e01c80632baeceb714608657806361bc221a14606c5763d09de08a146036575f80fd5b346068575f3660031901126068575f545f1981146054576001015f55005b634e487b7160e01b5f52601160045260245ffd5b5f80fd5b346068575f36600319011260685760205f54604051908152f35b346068575f3660031901126068575f5480156054575f19015f5500fea2646970667358221220a7cdaa5cc5752f1f292e6afcfe21411eed5f03e6499500b532bb469fae2bf20b64736f6c634300081c0033",
  "linkReferences": {},
  "deployedLinkReferences": {},
  "immutableReferences": {},
  "inputSourceName": "project/solidity/eips/testdata/CounterFactory.sol",
  "buildInfoId": "solc-0_8_28-e55ad96646b3bb5046840fe24a1f6856fc44be2c"
}