{
  "_format": "hh3-artifact-1",
  "contractName": "Counterfactory",
  "sourceName": "solidity/eips/testdata/CounterFactory.sol",
  "abi": [
    {
      "inputs": [],
      "stateMutability": "nonpayable",
      "type": "constructor"
    },
    {
      "inputs": [],
      "name": "counterInstance",
      "outputs": [
        {
          "internalType": "contract Counter",
          "name": "",
          "type": "address"
        }
      ],
      "stateMutability": "view",
      "type": "function"
    },
    {
      "inputs": [],
      "name": "decrementCounter",
      "outputs": [],
      "stateMutability": "nonpayable",
      "type": "function"
    },
    {
      "inputs": [],
      "name": "getCounterValue",
      "outputs": [
        {
          "internalType": "uint256",
          "name": "",
          "type": "uint256"
        }
      ],
      "stateMutability": "view",
      "type": "function"
    },
    {
      "inputs": [],
      "name": "incrementCounter",
      "outputs": [],
      "stateMutability": "nonpayable",
      "type": "function"
    }
  ],
  "bytecode": "0x6080806040523461007f5760fa8181016001600160401b0381118382101761006b5782916102c3833903905ff08015610060575f80546001600160a01b0319166001600160a01b039290921691909117905560405161023f90816100848239f35b6040513d5f823e3d90fd5b634e487b7160e01b5f52604160045260245ffd5b5f80fdfe608060408181526004361015610013575f80fd5b5f91823560e01c9081635b34b966146101a05750806372142b89146100e4578063aef38e72146100b95763f5c5ad831461004b575f80fd5b8190346100b657816003193601126100b65781546001600160a01b031690813b156100b2578280926004835180958193632baeceb760e01b83525af19081156100a957506100965750f35b61009f906101f5565b6100a65780f35b80fd5b513d84823e3d90fd5b5050fd5b50fd5b50346100e057816003193601126100e057905490516001600160a01b039091168152602090f35b5080fd5b50346100e057816003193601126100e057815481516330de110d60e11b81529190602090839060049082906001600160a01b03165afa918215610196578392610132575b6020838351908152f35b90915060203d811161018f575b601f8101601f1916820167ffffffffffffffff81118382101761017b576020918391855281010312610177576020925051905f610128565b8280fd5b634e487b7160e01b5f52604160045260245ffd5b503d61013f565b81513d85823e3d90fd5b91905034610177578260031936011261017757825483906001600160a01b0316803b156100e05760048483819363684ef04560e11b83525af19081156100a957506101e9575080f35b6101f2906101f5565b80f35b67ffffffffffffffff811161017b5760405256fea2646970667358221220329139bd3ae7e45b663cd3c48a976b17861ac08237b09bb6b0f3d9b11c9aea8464736f6c63430008140033608080604052346100195760015f5560dc908161001e8239f35b5f80fdfe608060405260043610156010575f80fd5b5f803560e01c80632baeceb714608857806361bc221a14606d5763d09de08a146037575f80fd5b34606a5780600319360112606a5780545f198114605657600101815580f35b634e487b7160e01b82526011600452602482fd5b80fd5b5034606a5780600319360112606a5760209054604051908152f35b5034606a5780600319360112606a57805480156056575f1901815580f3fea26469706673582212203380b41c869d476e414b90e85217644cee20d93d16f629814eccc9c3923d211064736f6c63430008140033",
  "linkReferences": {},
  "deployedLinkReferences": {},
  "immutableReferences": {},
  "inputSourceName": "project/solidity/eips/testdata/CounterFactory.sol",
  "buildInfoId": "solc-0_8_20-fda2ffeb444d7d9486f659e7e357f970dc6ac662"
}