{
  "_format": "hh3-artifact-1",
  "contractName": "SlashingCaller",
  "sourceName": "solidity/precompiles/slashing/testdata/SlashingCaller.sol",
  "abi": [
    {
      "anonymous": false,
      "inputs": [
        {
          "indexed": false,
          "internalType": "string",
          "name": "message",
          "type": "string"
        },
        {
          "indexed": false,
          "internalType": "bool",
          "name": "success",
          "type": "bool"
        }
      ],
      "name": "TestResult",
      "type": "event"
    },
    {
      "inputs": [
        {
          "internalType": "address",
          "name": "validatorAddr",
          "type": "address"
        }
      ],
      "name": "testUnjail",
      "outputs": [
        {
          "internalType": "bool",
          "name": "success",
          "type": "bool"
        }
      ],
      "stateMutability": "nonpayable",
      "type": "function"
    }
  ],
  "bytecode": "0x6080806040523461001657610126908161001b8239f35b5f80fdfe60808060405260043610156011575f80fd5b5f90813560e01c637327af90146025575f80fd5b3460c5576020918260031936011260c2576004356001600160a01b0381169081900360c55763224f67f360e11b835260048301528282602481846108065af191821560e3578192607c575b50506040519015158152f35b909150823d841160dd575b601f8101601f1916820167ffffffffffffffff81118382101760c957849183916040528101031260c5575190811515820360c257505f806070565b80fd5b5080fd5b634e487b7160e01b84526041600452602484fd5b503d6087565b50604051903d90823e3d90fdfea2646970667358221220e2615948348453409492ae463b1d8f60ec42629d9033a604e3f28fe9cec2552964736f6c63430008140033",
  "linkReferences": {},
  "deployedLinkReferences": {},
  "immutableReferences": {},
  "inputSourceName": "project/solidity/precompiles/slashing/testdata/SlashingCaller.sol",
  "buildInfoId": "solc-0_8_20-fda2ffeb444d7d9486f659e7e357f970dc6ac662"
}