{
  "_format": "hh3-artifact-1",
  "contractName": "SlashingCaller",
  "sourceName": "solidity/precompiles/slashing/testdata/SlashingCaller.sol",
  "abi": [
    {
      "anonymous": false,
      "inputs": [
        {
          "indexed": false,
          "internalType": "string",
          "name": "message",
          "type": "string"
        },
        {
          "indexed": false,
          "internalType": "bool",
          "name": "success",
          "type": "bool"
        }
      ],
      "name": "TestResult",
      "type": "event"
    },
    {
      "inputs": [
        {
          "internalType": "address",
          "name": "validatorAddr",
          "type": "address"
        }
      ],
      "name": "testUnjail",
      "outputs": [
        {
          "internalType": "bool",
          "name": "success",
          "type": "bool"
        }
      ],
      "stateMutability": "nonpayable",
      "type": "function"
    }
  ],
  "bytecode": "0x6080806040523460155761011e908161001a8239f35b5f80fdfe60808060405260043610156011575f80fd5b5f3560e01c637327af90146023575f80fd5b3460bf57602036600319011260bf576004356001600160a01b0381169081900360bf5763224f67f360e11b825260048201526020816024815f6108065af1801560dd575f906079575b6020906040519015158152f35b5060203d60201160d7575b601f8101601f1916820167ffffffffffffffff81118382101760c35760209183916040528101031260bf5751801515810360bf57602090606c565b5f80fd5b634e487b7160e01b5f52604160045260245ffd5b503d6084565b6040513d5f823e3d90fdfea2646970667358221220c060968c05fe93d8d990db08ab55fe6aff6b4aaccafe2955e04e40818ccd592d64736f6c634300081c0033",
  "linkReferences": {},
  "deployedLinkReferences": {},
  "immutableReferences": {},
  "inputSourceName": "project/solidity/precompiles/slashing/testdata/SlashingCaller.sol",
  "buildInfoId": "solc-0_8_28-e55ad96646b3bb5046840fe24a1f6856fc44be2c"
}