{
  "_format": "hh3-artifact-1",
  "contractName": "Counter",
  "sourceName": "solidity/precompiles/testutil/contracts/Counter.sol",
  "abi": [
    {
      "anonymous": false,
      "inputs": [
        {
          "indexed": false,
          "internalType": "uint256",
          "name": "counter",
          "type": "uint256"
        }
      ],
      "name": "Added",
      "type": "event"
    },
    {
      "anonymous": false,
      "inputs": [
        {
          "indexed": false,
          "internalType": "uint256",
          "name": "counter",
          "type": "uint256"
        }
      ],
      "name": "Changed",
      "type": "event"
    },
    {
      "inputs": [],
      "name": "add",
      "outputs": [],
      "stateMutability": "nonpayable",
      "type": "function"
    },
    {
      "inputs": [],
      "name": "getCounter",
      "outputs": [
        {
          "internalType": "uint256",
          "name": "",
          "type": "uint256"
        }
      ],
      "stateMutability": "view",
      "type": "function"
    },
    {
      "inputs": [],
      "name": "subtract",
      "outputs": [],
      "stateMutability": "nonpayable",
      "type": "function"
    }
  ],
  "bytecode": "0x608080604052346018575f80556101f1908161001d8239f35b5f80fdfe6080806040526004361015610012575f80fd5b5f3560e01c9081634f2be91f14610132575080636deebae31461005d57638ada066e1461003d575f80fd5b34610059575f3660031901126100595760205f54604051908152f35b5f80fd5b34610059575f366003190112610059575f5480156040516040810181811067ffffffffffffffff82111761011e57604052600f815260208101916e434f554e5445525f544f4f5f4c4f5760881b83526100e3577f938d2ee5be9cfb0f7270ee2eff90507e94b37625d9d2b3a61c97d30a4560b8296020845f1901805f55604051908152a1005b60449060405192839162461bcd60e51b8352602060048401525180918160248501528484015e5f828201840152601f01601f19168101030190fd5b634e487b7160e01b5f52604160045260245ffd5b34610059575f366003190112610059575f545f1981146101a7577f938d2ee5be9cfb0f7270ee2eff90507e94b37625d9d2b3a61c97d30a4560b829917f64a55044d1f2eddebe1b90e8e2853e8e96931cefadbfa0b2ceb34bee360619416020600181940192835f55838152a1604051908152a1005b634e487b7160e01b5f52601160045260245ffdfea264697066735822122084b24da340f7a387bb14eb64c66791adcf204a2a41ecf0ad7a109a64290d5c1164736f6c634300081a0033",
  "linkReferences": {},
  "deployedLinkReferences": {},
  "immutableReferences": {},
  "inputSourceName": "project/solidity/precompiles/testutil/contracts/Counter.sol",
  "buildInfoId": "solc-0_8_26-6ec4f0c6b3691526d7b3a3a19b37097670fc2b6e"
}