{
  "_format": "hh-sol-artifact-1",
  "contractName": "DistributionCaller",
  "sourceName": "solidity/precompiles/testutil/contracts/DistributionCaller.sol",
  "abi": [
    {
      "inputs": [],
      "name": "counter",
      "outputs": [
        {
          "internalType": "int64",
          "name": "",
          "type": "int64"
        }
      ],
      "stateMutability": "view",
      "type": "function"
    },
    {
      "inputs": [
        {
          "internalType": "address",
          "name": "_delAddr",
          "type": "address"
        },
        {
          "internalType": "string",
          "name": "_withdrawAddr",
          "type": "string"
        }
      ],
      "name": "delegateCallSetWithdrawAddress",
      "outputs": [],
      "stateMutability": "nonpayable",
      "type": "function"
    },
    {
      "inputs": [],
      "name": "deposit",
      "outputs": [],
      "stateMutability": "payable",
      "type": "function"
    },
    {
      "inputs": [
        {
          "internalType": "address",
          "name": "_delAddr",
          "type": "address"
        },
        {
          "internalType": "string",
          "name": "_valAddr",
          "type": "string"
        }
      ],
      "name": "getDelegationRewards",
      "outputs": [
        {
          "components": [
            {
              "internalType": "string",
              "name": "denom",
              "type": "string"
            },
            {
              "internalType": "uint256",
              "name": "amount",
              "type": "uint256"
            },
            {
              "internalType": "uint8",
              "name": "precision",
              "type": "uint8"
            }
          ],
          "internalType": "struct DecCoin[]",
          "name": "",
          "type": "tuple[]"
        }
      ],
      "stateMutability": "view",
      "type": "function"
    },
    {
      "inputs": [
        {
          "internalType": "address",
          "name": "_delAddr",
          "type": "address"
        }
      ],
      "name": "getDelegationTotalRewards",
      "outputs": [
        {
          "components": [
            {
              "internalType": "string",
              "name": "validatorAddress",
              "type": "string"
            },
            {
              "components": [
                {
                  "internalType": "string",
                  "name": "denom",
                  "type": "string"
                },
                {
                  "internalType": "uint256",
                  "name": "amount",
                  "type": "uint256"
                },
                {
                  "internalType": "uint8",
                  "name": "precision",
                  "type": "uint8"
                }
              ],
              "internalType": "struct DecCoin[]",
              "name": "reward",
              "type": "tuple[]"
            }
          ],
          "internalType": "struct DelegationDelegatorReward[]",
          "name": "rewards",
          "type": "tuple[]"
        },
        {
          "components": [
            {
              "internalType": "string",
              "name": "denom",
              "type": "string"
            },
            {
              "internalType": "uint256",
              "name": "amount",
              "type": "uint256"
            },
            {
              "internalType": "uint8",
              "name": "precision",
              "type": "uint8"
            }
          ],
          "internalType": "struct DecCoin[]",
          "name": "total",
          "type": "tuple[]"
        }
      ],
      "stateMutability": "view",
      "type": "function"
    },
    {
      "inputs": [
        {
          "internalType": "address",
          "name": "_delAddr",
          "type": "address"
        }
      ],
      "name": "getDelegatorValidators",
      "outputs": [
        {
          "internalType": "string[]",
          "name": "",
          "type": "string[]"
        }
      ],
      "stateMutability": "view",
      "type": "function"
    },
    {
      "inputs": [
        {
          "internalType": "address",
          "name": "_delAddr",
          "type": "address"
        }
      ],
      "name": "getDelegatorWithdrawAddress",
      "outputs": [
        {
          "internalType": "string",
          "name": "",
          "type": "string"
        }
      ],
      "stateMutability": "view",
      "type": "function"
    },
    {
      "inputs": [
        {
          "internalType": "string",
          "name": "_valAddr",
          "type": "string"
        }
      ],
      "name": "getValidatorCommission",
      "outputs": [
        {
          "components": [
            {
              "internalType": "string",
              "name": "denom",
              "type": "string"
            },
            {
              "internalType": "uint256",
              "name": "amount",
              "type": "uint256"
            },
            {
              "internalType": "uint8",
              "name": "precision",
              "type": "uint8"
            }
          ],
          "internalType": "struct DecCoin[]",
          "name": "",
          "type": "tuple[]"
        }
      ],
      "stateMutability": "view",
      "type": "function"
    },
    {
      "inputs": [
        {
          "internalType": "string",
          "name": "_valAddr",
          "type": "string"
        }
      ],
      "name": "getValidatorDistributionInfo",
      "outputs": [
        {
          "components": [
            {
              "internalType": "string",
              "name": "operatorAddress",
              "type": "string"
            },
            {
              "components": [
                {
                  "internalType": "string",
                  "name": "denom",
                  "type": "string"
                },
                {
                  "internalType": "uint256",
                  "name": "amount",
                  "type": "uint256"
                },
                {
                  "internalType": "uint8",
                  "name": "precision",
                  "type": "uint8"
                }
              ],
              "internalType": "struct DecCoin[]",
              "name": "selfBondRewards",
              "type": "tuple[]"
            },
            {
              "components": [
                {
                  "internalType": "string",
                  "name": "denom",
                  "type": "string"
                },
                {
                  "internalType": "uint256",
                  "name": "amount",
                  "type": "uint256"
                },
                {
                  "internalType": "uint8",
                  "name": "precision",
                  "type": "uint8"
                }
              ],
              "internalType": "struct DecCoin[]",
              "name": "commission",
              "type": "tuple[]"
            }
          ],
          "internalType": "struct ValidatorDistributionInfo",
          "name": "",
          "type": "tuple"
        }
      ],
      "stateMutability": "view",
      "type": "function"
    },
    {
      "inputs": [
        {
          "internalType": "string",
          "name": "_valAddr",
          "type": "string"
        }
      ],
      "name": "getValidatorOutstandingRewards",
      "outputs": [
        {
          "components": [
            {
              "internalType": "string",
              "name": "denom",
              "type": "string"
            },
            {
              "internalType": "uint256",
              "name": "amount",
              "type": "uint256"
            },
            {
              "internalType": "uint8",
              "name": "precision",
              "type": "uint8"
            }
          ],
          "internalType": "struct DecCoin[]",
          "name": "",
          "type": "tuple[]"
        }
      ],
      "stateMutability": "view",
      "type": "function"
    },
    {
      "inputs": [
        {
          "internalType": "string",
          "name": "_valAddr",
          "type": "string"
        },
        {
          "internalType": "uint64",
          "name": "_startingHeight",
          "type": "uint64"
        },
        {
          "internalType": "uint64",
          "name": "_endingHeight",
          "type": "uint64"
        },
        {
          "components": [
            {
              "internalType": "bytes",
              "name": "key",
              "type": "bytes"
            },
            {
              "internalType": "uint64",
              "name": "offset",
              "type": "uint64"
            },
            {
              "internalType": "uint64",
              "name": "limit",
              "type": "uint64"
            },
            {
              "internalType": "bool",
              "name": "countTotal",
              "type": "bool"
            },
            {
              "internalType": "bool",
              "name": "reverse",
              "type": "bool"
            }
          ],
          "internalType": "struct PageRequest",
          "name": "pageRequest",
          "type": "tuple"
        }
      ],
      "name": "getValidatorSlashes",
      "outputs": [
        {
          "components": [
            {
              "internalType": "uint64",
              "name": "validatorPeriod",
              "type": "uint64"
            },
            {
              "components": [
                {
                  "internalType": "uint256",
                  "name": "value",
                  "type": "uint256"
                },
                {
                  "internalType": "uint8",
                  "name": "precision",
                  "type": "uint8"
                }
              ],
              "internalType": "struct Dec",
              "name": "fraction",
              "type": "tuple"
            }
          ],
          "internalType": "struct ValidatorSlashEvent[]",
          "name": "",
          "type": "tuple[]"
        },
        {
          "components": [
            {
              "internalType": "bytes",
              "name": "nextKey",
              "type": "bytes"
            },
            {
              "internalType": "uint64",
              "name": "total",
              "type": "uint64"
            }
          ],
          "internalType": "struct PageResponse",
          "name": "",
          "type": "tuple"
        }
      ],
      "stateMutability": "view",
      "type": "function"
    },
    {
      "inputs": [
        {
          "internalType": "address payable",
          "name": "_delAddr",
          "type": "address"
        },
        {
          "internalType": "address payable",
          "name": "_withdrawer",
          "type": "address"
        },
        {
          "internalType": "string",
          "name": "_valAddr",
          "type": "string"
        },
        {
          "internalType": "bool",
          "name": "_after",
          "type": "bool"
        }
      ],
      "name": "revertWithdrawRewardsAndTransfer",
      "outputs": [],
      "stateMutability": "nonpayable",
      "type": "function"
    },
    {
      "inputs": [
        {
          "internalType": "address",
          "name": "_delAddr",
          "type": "address"
        }
      ],
      "name": "staticCallGetWithdrawAddress",
      "outputs": [
        {
          "internalType": "bytes",
          "name": "",
          "type": "bytes"
        }
      ],
      "stateMutability": "view",
      "type": "function"
    },
    {
      "inputs": [
        {
          "internalType": "address",
          "name": "_delAddr",
          "type": "address"
        },
        {
          "internalType": "string",
          "name": "_withdrawAddr",
          "type": "string"
        }
      ],
      "name": "staticCallSetWithdrawAddress",
      "outputs": [],
      "stateMutability": "view",
      "type": "function"
    },
    {
      "inputs": [
        {
          "internalType": "address",
          "name": "_delAddr",
          "type": "address"
        },
        {
          "internalType": "uint32",
          "name": "_maxRetrieve",
          "type": "uint32"
        }
      ],
      "name": "testClaimRewards",
      "outputs": [
        {
          "internalType": "bool",
          "name": "success",
          "type": "bool"
        }
      ],
      "stateMutability": "nonpayable",
      "type": "function"
    },
    {
      "inputs": [
        {
          "internalType": "address payable",
          "name": "_delAddr",
          "type": "address"
        },
        {
          "internalType": "uint32",
          "name": "_maxRetrieve",
          "type": "uint32"
        },
        {
          "internalType": "bool",
          "name": "_before",
          "type": "bool"
        },
        {
          "internalType": "bool",
          "name": "_after",
          "type": "bool"
        }
      ],
      "name": "testClaimRewardsWithTransfer",
      "outputs": [],
      "stateMutability": "nonpayable",
      "type": "function"
    },
    {
      "inputs": [
        {
          "internalType": "string",
          "name": "_validatorAddr",
          "type": "string"
        },
        {
          "internalType": "uint256",
          "name": "_amount",
          "type": "uint256"
        }
      ],
      "name": "testDelegateFromContract",
      "outputs": [],
      "stateMutability": "nonpayable",
      "type": "function"
    },
    {
      "inputs": [
        {
          "internalType": "address",
          "name": "depositor",
          "type": "address"
        },
        {
          "internalType": "string",
          "name": "validatorAddress",
          "type": "string"
        },
        {
          "components": [
            {
              "internalType": "string",
              "name": "denom",
              "type": "string"
            },
            {
              "internalType": "uint256",
              "name": "amount",
              "type": "uint256"
            }
          ],
          "internalType": "struct Coin[]",
          "name": "amount",
          "type": "tuple[]"
        }
      ],
      "name": "testDepositValidatorRewardsPool",
      "outputs": [
        {
          "internalType": "bool",
          "name": "success",
          "type": "bool"
        }
      ],
      "stateMutability": "nonpayable",
      "type": "function"
    },
    {
      "inputs": [
        {
          "internalType": "address payable",
          "name": "depositor",
          "type": "address"
        },
        {
          "internalType": "string",
          "name": "validatorAddress",
          "type": "string"
        },
        {
          "components": [
            {
              "internalType": "string",
              "name": "denom",
              "type": "string"
            },
            {
              "internalType": "uint256",
              "name": "amount",
              "type": "uint256"
            }
          ],
          "internalType": "struct Coin[]",
          "name": "amount",
          "type": "tuple[]"
        },
        {
          "internalType": "bool",
          "name": "_before",
          "type": "bool"
        },
        {
          "internalType": "bool",
          "name": "_after",
          "type": "bool"
        }
      ],
      "name": "testDepositValidatorRewardsPoolWithTransfer",
      "outputs": [],
      "stateMutability": "nonpayable",
      "type": "function"
    },
    {
      "inputs": [
        {
          "internalType": "address",
          "name": "depositor",
          "type": "address"
        },
        {
          "internalType": "uint256",
          "name": "amount",
          "type": "uint256"
        }
      ],
      "name": "testFundCommunityPool",
      "outputs": [
        {
          "internalType": "bool",
          "name": "success",
          "type": "bool"
        }
      ],
      "stateMutability": "nonpayable",
      "type": "function"
    },
    {
      "inputs": [
        {
          "internalType": "address payable",
          "name": "depositor",
          "type": "address"
        },
        {
          "internalType": "uint256",
          "name": "amount",
          "type": "uint256"
        },
        {
          "internalType": "bool",
          "name": "_before",
          "type": "bool"
        },
        {
          "internalType": "bool",
          "name": "_after",
          "type": "bool"
        }
      ],
      "name": "testFundCommunityPoolWithTransfer",
      "outputs": [],
      "stateMutability": "nonpayable",
      "type": "function"
    },
    {
      "inputs": [
        {
          "internalType": "string",
          "name": "_withdrawAddr",
          "type": "string"
        },
        {
          "internalType": "address",
          "name": "_delAddr",
          "type": "address"
        },
        {
          "internalType": "string",
          "name": "_valAddr",
          "type": "string"
        }
      ],
      "name": "testRevertState",
      "outputs": [
        {
          "components": [
            {
              "internalType": "string",
              "name": "denom",
              "type": "string"
            },
            {
              "internalType": "uint256",
              "name": "amount",
              "type": "uint256"
            }
          ],
          "internalType": "struct Coin[]",
          "name": "",
          "type": "tuple[]"
        }
      ],
      "stateMutability": "nonpayable",
      "type": "function"
    },
    {
      "inputs": [
        {
          "internalType": "address",
          "name": "_delAddr",
          "type": "address"
        },
        {
          "internalType": "string",
          "name": "_withdrawAddr",
          "type": "string"
        }
      ],
      "name": "testSetWithdrawAddress",
      "outputs": [
        {
          "internalType": "bool",
          "name": "",
          "type": "bool"
        }
      ],
      "stateMutability": "nonpayable",
      "type": "function"
    },
    {
      "inputs": [
        {
          "internalType": "string",
          "name": "_withdrawAddr",
          "type": "string"
        }
      ],
      "name": "testSetWithdrawAddressFromContract",
      "outputs": [
        {
          "internalType": "bool",
          "name": "",
          "type": "bool"
        }
      ],
      "stateMutability": "nonpayable",
      "type": "function"
    },
    {
      "inputs": [
        {
          "internalType": "address",
          "name": "delegatorAddress",
          "type": "address"
        },
        {
          "internalType": "uint32",
          "name": "maxRetrieve",
          "type": "uint32"
        }
      ],
      "name": "testTryClaimRewards",
      "outputs": [
        {
          "internalType": "bool",
          "name": "",
          "type": "bool"
        }
      ],
      "stateMutability": "nonpayable",
      "type": "function"
    },
    {
      "inputs": [
        {
          "internalType": "address",
          "name": "_delAddr",
          "type": "address"
        },
        {
          "internalType": "string",
          "name": "_valAddr",
          "type": "string"
        }
      ],
      "name": "testWithdrawDelegatorRewards",
      "outputs": [
        {
          "components": [
            {
              "internalType": "string",
              "name": "denom",
              "type": "string"
            },
            {
              "internalType": "uint256",
              "name": "amount",
              "type": "uint256"
            }
          ],
          "internalType": "struct Coin[]",
          "name": "",
          "type": "tuple[]"
        }
      ],
      "stateMutability": "nonpayable",
      "type": "function"
    },
    {
      "inputs": [
        {
          "internalType": "string",
          "name": "_valAddr",
          "type": "string"
        }
      ],
      "name": "testWithdrawDelegatorRewardsFromContract",
      "outputs": [
        {
          "components": [
            {
              "internalType": "string",
              "name": "denom",
              "type": "string"
            },
            {
              "internalType": "uint256",
              "name": "amount",
              "type": "uint256"
            }
          ],
          "internalType": "struct Coin[]",
          "name": "",
          "type": "tuple[]"
        }
      ],
      "stateMutability": "nonpayable",
      "type": "function"
    },
    {
      "inputs": [
        {
          "internalType": "address payable",
          "name": "_delAddr",
          "type": "address"
        },
        {
          "internalType": "string",
          "name": "_valAddr",
          "type": "string"
        },
        {
          "internalType": "bool",
          "name": "_before",
          "type": "bool"
        },
        {
          "internalType": "bool",
          "name": "_after",
          "type": "bool"
        }
      ],
      "name": "testWithdrawDelegatorRewardsWithTransfer",
      "outputs": [
        {
          "components": [
            {
              "internalType": "string",
              "name": "denom",
              "type": "string"
            },
            {
              "internalType": "uint256",
              "name": "amount",
              "type": "uint256"
            }
          ],
          "internalType": "struct Coin[]",
          "name": "coins",
          "type": "tuple[]"
        }
      ],
      "stateMutability": "nonpayable",
      "type": "function"
    },
    {
      "inputs": [
        {
          "internalType": "string",
          "name": "_valAddr",
          "type": "string"
        }
      ],
      "name": "testWithdrawValidatorCommission",
      "outputs": [
        {
          "components": [
            {
              "internalType": "string",
              "name": "denom",
              "type": "string"
            },
            {
              "internalType": "uint256",
              "name": "amount",
              "type": "uint256"
            }
          ],
          "internalType": "struct Coin[]",
          "name": "",
          "type": "tuple[]"
        }
      ],
      "stateMutability": "nonpayable",
      "type": "function"
    },
    {
      "inputs": [
        {
          "internalType": "string",
          "name": "_valAddr",
          "type": "string"
        },
        {
          "internalType": "address payable",
          "name": "_withdrawer",
          "type": "address"
        },
        {
          "internalType": "bool",
          "name": "_before",
          "type": "bool"
        },
        {
          "internalType": "bool",
          "name": "_after",
          "type": "bool"
        }
      ],
      "name": "testWithdrawValidatorCommissionWithTransfer",
      "outputs": [
        {
          "components": [
            {
              "internalType": "string",
              "name": "denom",
              "type": "string"
            },
            {
              "internalType": "uint256",
              "name": "amount",
              "type": "uint256"
            }
          ],
          "internalType": "struct Coin[]",
          "name": "coins",
          "type": "tuple[]"
        }
      ],
      "stateMutability": "nonpayable",
      "type": "function"
    },
    {
      "inputs": [
        {
          "internalType": "address",
          "name": "_delAddr",
          "type": "address"
        },
        {
          "internalType": "string",
          "name": "_valAddr",
          "type": "string"
        }
      ],
      "name": "withdrawDelegatorRewardsAndRevert",
      "outputs": [
        {
          "components": [
            {
              "internalType": "string",
              "name": "denom",
              "type": "string"
            },
            {
              "internalType": "uint256",
              "name": "amount",
              "type": "uint256"
            }
          ],
          "internalType": "struct Coin[]",
          "name": "coins",
          "type": "tuple[]"
        }
      ],
      "stateMutability": "nonpayable",
      "type": "function"
    }
  ],
  "bytecode": "0x60806040526040518060200160405280604051806060016040528060238152602001620055906023913981525060009060016200003e92919062000053565b503480156200004c57600080fd5b50620004a1565b828054828255906000526020600020908101928215620000a0579160200282015b828111156200009f5782518290816200008e9190620003ba565b509160200191906001019062000074565b5b509050620000af9190620000b3565b5090565b5b80821115620000d75760008181620000cd9190620000db565b50600101620000b4565b5090565b508054620000e990620001a9565b6000825580601f10620000fd57506200011e565b601f0160209004906000526020600020908101906200011d919062000121565b5b50565b5b808211156200013c57600081600090555060010162000122565b5090565b600081519050919050565b7f4e487b7100000000000000000000000000000000000000000000000000000000600052604160045260246000fd5b7f4e487b7100000000000000000000000000000000000000000000000000000000600052602260045260246000fd5b60006002820490506001821680620001c257607f821691505b602082108103620001d857620001d76200017a565b5b50919050565b60008190508160005260206000209050919050565b60006020601f8301049050919050565b600082821b905092915050565b600060088302620002427fffffffffffffffffffffffffffffffffffffffffffffffffffffffffffffffff8262000203565b6200024e868362000203565b95508019841693508086168417925050509392505050565b6000819050919050565b6000819050919050565b60006200029b620002956200028f8462000266565b62000270565b62000266565b9050919050565b6000819050919050565b620002b7836200027a565b620002cf620002c682620002a2565b84845462000210565b825550505050565b600090565b620002e6620002d7565b620002f3818484620002ac565b505050565b5b818110156200031b576200030f600082620002dc565b600181019050620002f9565b5050565b601f8211156200036a576200033481620001de565b6200033f84620001f3565b810160208510156200034f578190505b620003676200035e85620001f3565b830182620002f8565b50505b505050565b600082821c905092915050565b60006200038f600019846008026200036f565b1980831691505092915050565b6000620003aa83836200037c565b9150826002028217905092915050565b620003c58262000140565b67ffffffffffffffff811115620003e157620003e06200014b565b5b620003ed8254620001a9565b620003fa8282856200031f565b600060209050601f8311600181146200043257600084156200041d578287015190505b6200042985826200039c565b86555062000499565b601f1984166200044286620001de565b60005b828110156200046c5784890151825560018201915060208501945060208101905062000445565b868310156200048c578489015162000488601f8916826200037c565b8355505b6001600288020188555050505b505050505050565b6150df80620004b16000396000f3fe6080604052600436106101d85760003560e01c806388b2d58111610102578063c7804bb511610095578063dd987c2011610064578063dd987c2014610790578063ddbfa271146107b9578063e0421e39146107f6578063e236c7a614610833576101d8565b8063c7804bb5146106cf578063cb85aa0a1461070c578063d0e30db014610749578063d3f831be14610753576101d8565b8063ad5c4cdd116100d1578063ad5c4cdd146105db578063adb2378514610618578063b2d1788314610655578063b6a216ae14610692576101d8565b806388b2d581146104e657806393574cd114610524578063963516e414610561578063981945931461059e576101d8565b806346e16d341161017a5780636f669da4116101495780636f669da41461040657806378a5dfd114610443578063796b96d2146104805780637c9db0bb146104a9576101d8565b806346e16d3414610338578063613d4de81461037557806361bc221a146103b25780636cc9ac8a146103dd576101d8565b80631b050207116101b65780631b05020714610280578063296c60aa146102a95780632d0ee16a146102d2578063467253cf1461030f576101d8565b80630183e4b4146101dd57806301b68000146102065780630c05e9e414610243575b600080fd5b3480156101e957600080fd5b5061020460048036038101906101ff91906129bf565b610871565b005b34801561021257600080fd5b5061022d60048036038101906102289190612a64565b610ba0565b60405161023a9190612b21565b60405180910390f35b34801561024f57600080fd5b5061026a60048036038101906102659190612c78565b610ce8565b6040516102779190612ebb565b60405180910390f35b34801561028c57600080fd5b506102a760048036038101906102a29190612edd565b610d78565b005b3480156102b557600080fd5b506102d060048036038101906102cb9190612f60565b610eff565b005b3480156102de57600080fd5b506102f960048036038101906102f49190612c78565b611040565b60405161030691906130bb565b60405180910390f35b34801561031b57600080fd5b5061033660048036038101906103319190613265565b6110ce565b005b34801561034457600080fd5b5061035f600480360381019061035a9190612f60565b611362565b60405161036c9190613327565b60405180910390f35b34801561038157600080fd5b5061039c60048036038101906103979190613342565b6113ec565b6040516103a991906130bb565b60405180910390f35b3480156103be57600080fd5b506103c76116df565b6040516103d491906133e1565b60405180910390f35b3480156103e957600080fd5b5061040460048036038101906103ff91906133fc565b6116f2565b005b34801561041257600080fd5b5061042d60048036038101906104289190613463565b611983565b60405161043a9190613327565b60405180910390f35b34801561044f57600080fd5b5061046a60048036038101906104659190612f60565b611a0d565b6040516104779190613529565b60405180910390f35b34801561048c57600080fd5b506104a760048036038101906104a29190612f60565b611a9a565b005b3480156104b557600080fd5b506104d060048036038101906104cb9190612c78565b611bdb565b6040516104dd9190613529565b60405180910390f35b3480156104f257600080fd5b5061050d600480360381019061050891906135af565b611c65565b60405161051b9291906137f1565b60405180910390f35b34801561053057600080fd5b5061054b60048036038101906105469190613463565b611d03565b6040516105589190613327565b60405180910390f35b34801561056d57600080fd5b5061058860048036038101906105839190612c78565b611d9b565b6040516105959190613327565b60405180910390f35b3480156105aa57600080fd5b506105c560048036038101906105c09190612f60565b611e24565b6040516105d291906130bb565b60405180910390f35b3480156105e757600080fd5b5061060260048036038101906105fd9190612f60565b611eb3565b60405161060f91906130bb565b60405180910390f35b34801561062457600080fd5b5061063f600480360381019061063a9190613828565b611f3f565b60405161064c91906130bb565b60405180910390f35b34801561066157600080fd5b5061067c600480360381019061067791906138ab565b6121cc565b60405161068991906130bb565b60405180910390f35b34801561069e57600080fd5b506106b960048036038101906106b49190612a64565b612321565b6040516106c691906139f8565b60405180910390f35b3480156106db57600080fd5b506106f660048036038101906106f19190613a1a565b6123ab565b6040516107039190613327565b60405180910390f35b34801561071857600080fd5b50610733600480360381019061072e9190612a64565b6124c3565b6040516107409190613aa4565b60405180910390f35b61075161254d565b005b34801561075f57600080fd5b5061077a60048036038101906107759190612c78565b61254f565b6040516107879190613529565b60405180910390f35b34801561079c57600080fd5b506107b760048036038101906107b29190613ac6565b6125d9565b005b3480156107c557600080fd5b506107e060048036038101906107db9190613b22565b612660565b6040516107ed9190613327565b60405180910390f35b34801561080257600080fd5b5061081d60048036038101906108189190612c78565b61277b565b60405161082a91906130bb565b60405180910390f35b34801561083f57600080fd5b5061085a60048036038101906108559190612a64565b612807565b604051610868929190613cb3565b60405180910390f35b81156109a3576001600081819054906101000a900460070b8092919061089690613d19565b91906101000a81548167ffffffffffffffff021916908360070b67ffffffffffffffff160217905550503073ffffffffffffffffffffffffffffffffffffffff168473ffffffffffffffffffffffffffffffffffffffff16146109a25760008473ffffffffffffffffffffffffffffffffffffffff16600f60405161091a90613d7a565b60006040518083038185875af1925050503d8060008114610957576040519150601f19603f3d011682016040523d82523d6000602084013e61095c565b606091505b50509050806109a0576040517f08c379a000000000000000000000000000000000000000000000000000000000815260040161099790613e01565b60405180910390fd5b505b5b600061080173ffffffffffffffffffffffffffffffffffffffff16632efe8a5f86866040518363ffffffff1660e01b81526004016109e2929190613e8f565b6020604051808303816000875af1158015610a01573d6000803e3d6000fd5b505050506040513d601f19601f82011682018060405250810190610a259190613ecd565b905080610a67576040517f08c379a0000000000000000000000000000000000000000000000000000000008152600401610a5e90613f46565b60405180910390fd5b8115610b99576001600081819054906101000a900460070b80929190610a8c90613d19565b91906101000a81548167ffffffffffffffff021916908360070b67ffffffffffffffff160217905550503073ffffffffffffffffffffffffffffffffffffffff168573ffffffffffffffffffffffffffffffffffffffff1614610b985760008573ffffffffffffffffffffffffffffffffffffffff16600f604051610b1090613d7a565b60006040518083038185875af1925050503d8060008114610b4d576040519150601f19603f3d011682016040523d82523d6000602084013e610b52565b606091505b5050905080610b96576040517f08c379a0000000000000000000000000000000000000000000000000000000008152600401610b8d90613e01565b60405180910390fd5b505b5b5050505050565b606060008061080173ffffffffffffffffffffffffffffffffffffffff1684604051602401610bcf9190613f75565b6040516020818303038152906040527f5431f450000000000000000000000000000000000000000000000000000000007bffffffffffffffffffffffffffffffffffffffffffffffffffffffff19166020820180517bffffffffffffffffffffffffffffffffffffffffffffffffffffffff8381831617835250505050604051610c599190613fc1565b600060405180830381855afa9150503d8060008114610c94576040519150601f19603f3d011682016040523d82523d6000602084013e610c99565b606091505b509150915081610cde576040517f08c379a0000000000000000000000000000000000000000000000000000000008152600401610cd590614024565b60405180910390fd5b8092505050919050565b610cf0612894565b61080173ffffffffffffffffffffffffffffffffffffffff166354212a89836040518263ffffffff1660e01b8152600401610d2b9190613aa4565b600060405180830381865afa158015610d48573d6000803e3d6000fd5b505050506040513d6000823e3d601f19601f82011682018060405250810190610d71919061430e565b9050919050565b3073ffffffffffffffffffffffffffffffffffffffff1663ad5c4cdd85846040518363ffffffff1660e01b8152600401610db3929190614357565b6000604051808303816000875af1925050508015610df457506040513d6000823e3d601f19601f82011682018060405250810190610df191906144a8565b60015b15610dfb57505b8015610ef9576001600081819054906101000a900460070b80929190610e2090613d19565b91906101000a81548167ffffffffffffffff021916908360070b67ffffffffffffffff1602179055505060008373ffffffffffffffffffffffffffffffffffffffff16600f604051610e7190613d7a565b60006040518083038185875af1925050503d8060008114610eae576040519150601f19603f3d011682016040523d82523d6000602084013e610eb3565b606091505b5050905080610ef7576040517f08c379a0000000000000000000000000000000000000000000000000000000008152600401610eee90613e01565b60405180910390fd5b505b50505050565b600061080173ffffffffffffffffffffffffffffffffffffffff168383604051602401610f2d9291906144f1565b6040516020818303038152906040527f5a9d9a96000000000000000000000000000000000000000000000000000000007bffffffffffffffffffffffffffffffffffffffffffffffffffffffff19166020820180517bffffffffffffffffffffffffffffffffffffffffffffffffffffffff8381831617835250505050604051610fb79190613fc1565b600060405180830381855af49150503d8060008114610ff2576040519150601f19603f3d011682016040523d82523d6000602084013e610ff7565b606091505b505090508061103b576040517f08c379a000000000000000000000000000000000000000000000000000000000815260040161103290614593565b60405180910390fd5b505050565b606061080173ffffffffffffffffffffffffffffffffffffffff1663b46a8d6130846040518363ffffffff1660e01b815260040161107f9291906144f1565b6000604051808303816000875af115801561109e573d6000803e3d6000fd5b505050506040513d6000823e3d601f19601f820116820180604052508101906110c791906144a8565b9050919050565b81156111cc576001600081819054906101000a900460070b809291906110f390613d19565b91906101000a81548167ffffffffffffffff021916908360070b67ffffffffffffffff1602179055505060008573ffffffffffffffffffffffffffffffffffffffff16600f60405161114490613d7a565b60006040518083038185875af1925050503d8060008114611181576040519150601f19603f3d011682016040523d82523d6000602084013e611186565b606091505b50509050806111ca576040517f08c379a00000000000000000000000000000000000000000000000000000000081526004016111c190613e01565b60405180910390fd5b505b600061080173ffffffffffffffffffffffffffffffffffffffff16632eb1df528787876040518463ffffffff1660e01b815260040161120d939291906145b3565b6020604051808303816000875af115801561122c573d6000803e3d6000fd5b505050506040513d601f19601f820116820180604052508101906112509190613ecd565b90508061125c57600080fd5b811561135a576001600081819054906101000a900460070b8092919061128190613d19565b91906101000a81548167ffffffffffffffff021916908360070b67ffffffffffffffff1602179055505060008673ffffffffffffffffffffffffffffffffffffffff16600f6040516112d290613d7a565b60006040518083038185875af1925050503d806000811461130f576040519150601f19603f3d011682016040523d82523d6000602084013e611314565b606091505b5050905080611358576040517f08c379a000000000000000000000000000000000000000000000000000000000815260040161134f90613e01565b60405180910390fd5b505b505050505050565b600061080173ffffffffffffffffffffffffffffffffffffffff16635a9d9a9684846040518363ffffffff1660e01b81526004016113a19291906144f1565b6020604051808303816000875af11580156113c0573d6000803e3d6000fd5b505050506040513d601f19601f820116820180604052508101906113e49190613ecd565b905092915050565b60608215611520576001600081819054906101000a900460070b8092919061141390613d19565b91906101000a81548167ffffffffffffffff021916908360070b67ffffffffffffffff160217905550503073ffffffffffffffffffffffffffffffffffffffff168473ffffffffffffffffffffffffffffffffffffffff161461151f5760008473ffffffffffffffffffffffffffffffffffffffff16600f60405161149790613d7a565b60006040518083038185875af1925050503d80600081146114d4576040519150601f19603f3d011682016040523d82523d6000602084013e6114d9565b606091505b505090508061151d576040517f08c379a000000000000000000000000000000000000000000000000000000000815260040161151490613e01565b60405180910390fd5b505b5b61080173ffffffffffffffffffffffffffffffffffffffff16633ce4e3be866040518263ffffffff1660e01b815260040161155b9190613aa4565b6000604051808303816000875af115801561157a573d6000803e3d6000fd5b505050506040513d6000823e3d601f19601f820116820180604052508101906115a391906144a8565b905081156116d7576001600081819054906101000a900460070b809291906115ca90613d19565b91906101000a81548167ffffffffffffffff021916908360070b67ffffffffffffffff160217905550503073ffffffffffffffffffffffffffffffffffffffff168473ffffffffffffffffffffffffffffffffffffffff16146116d65760008473ffffffffffffffffffffffffffffffffffffffff16600f60405161164e90613d7a565b60006040518083038185875af1925050503d806000811461168b576040519150601f19603f3d011682016040523d82523d6000602084013e611690565b606091505b50509050806116d4576040517f08c379a00000000000000000000000000000000000000000000000000000000081526004016116cb90613e01565b60405180910390fd5b505b5b949350505050565b600160009054906101000a900460070b81565b81156117f0576001600081819054906101000a900460070b8092919061171790613d19565b91906101000a81548167ffffffffffffffff021916908360070b67ffffffffffffffff1602179055505060008473ffffffffffffffffffffffffffffffffffffffff16600f60405161176890613d7a565b60006040518083038185875af1925050503d80600081146117a5576040519150601f19603f3d011682016040523d82523d6000602084013e6117aa565b606091505b50509050806117ee576040517f08c379a00000000000000000000000000000000000000000000000000000000081526004016117e590613e01565b60405180910390fd5b505b600061080173ffffffffffffffffffffffffffffffffffffffff1663ed41d0b686866040518363ffffffff1660e01b815260040161182f929190614607565b6020604051808303816000875af115801561184e573d6000803e3d6000fd5b505050506040513d601f19601f820116820180604052508101906118729190613ecd565b90508061187e57600080fd5b811561197c576001600081819054906101000a900460070b809291906118a390613d19565b91906101000a81548167ffffffffffffffff021916908360070b67ffffffffffffffff1602179055505060008573ffffffffffffffffffffffffffffffffffffffff16600f6040516118f490613d7a565b60006040518083038185875af1925050503d8060008114611931576040519150601f19603f3d011682016040523d82523d6000602084013e611936565b606091505b505090508061197a576040517f08c379a000000000000000000000000000000000000000000000000000000000815260040161197190613e01565b60405180910390fd5b505b5050505050565b600061080173ffffffffffffffffffffffffffffffffffffffff16632efe8a5f84846040518363ffffffff1660e01b81526004016119c2929190614630565b6020604051808303816000875af11580156119e1573d6000803e3d6000fd5b505050506040513d601f19601f82011682018060405250810190611a059190613ecd565b905092915050565b606061080173ffffffffffffffffffffffffffffffffffffffff16639ad563b484846040518363ffffffff1660e01b8152600401611a4c9291906144f1565b600060405180830381865afa158015611a69573d6000803e3d6000fd5b505050506040513d6000823e3d601f19601f82011682018060405250810190611a929190614659565b905092915050565b600061080173ffffffffffffffffffffffffffffffffffffffff168383604051602401611ac89291906144f1565b6040516020818303038152906040527f5a9d9a96000000000000000000000000000000000000000000000000000000007bffffffffffffffffffffffffffffffffffffffffffffffffffffffff19166020820180517bffffffffffffffffffffffffffffffffffffffffffffffffffffffff8381831617835250505050604051611b529190613fc1565b600060405180830381855afa9150503d8060008114611b8d576040519150601f19603f3d011682016040523d82523d6000602084013e611b92565b606091505b5050905080611bd6576040517f08c379a0000000000000000000000000000000000000000000000000000000008152600401611bcd90614024565b60405180910390fd5b505050565b606061080173ffffffffffffffffffffffffffffffffffffffff16633dd40f78836040518263ffffffff1660e01b8152600401611c189190613aa4565b600060405180830381865afa158015611c35573d6000803e3d6000fd5b505050506040513d6000823e3d601f19601f82011682018060405250810190611c5e9190614659565b9050919050565b6060611c6f6128b5565b61080173ffffffffffffffffffffffffffffffffffffffff16638f2473ce878787876040518563ffffffff1660e01b8152600401611cb0949392919061482d565b600060405180830381865afa158015611ccd573d6000803e3d6000fd5b505050506040513d6000823e3d601f19601f82011682018060405250810190611cf69190614b05565b9150915094509492505050565b60008061080173ffffffffffffffffffffffffffffffffffffffff16632efe8a5f85856040518363ffffffff1660e01b8152600401611d43929190614630565b6020604051808303816000875af1925050508015611d7f57506040513d601f19601f82011682018060405250810190611d7c9190613ecd565b60015b611d8c5760009050611d91565b809150505b8091505092915050565b600061080173ffffffffffffffffffffffffffffffffffffffff16635a9d9a9630846040518363ffffffff1660e01b8152600401611dda9291906144f1565b6020604051808303816000875af1158015611df9573d6000803e3d6000fd5b505050506040513d601f19601f82011682018060405250810190611e1d9190613ecd565b9050919050565b606061080173ffffffffffffffffffffffffffffffffffffffff1663b46a8d6184846040518363ffffffff1660e01b8152600401611e639291906144f1565b6000604051808303816000875af1158015611e82573d6000803e3d6000fd5b505050506040513d6000823e3d601f19601f82011682018060405250810190611eab91906144a8565b905092915050565b606061080173ffffffffffffffffffffffffffffffffffffffff1663b46a8d6184846040518363ffffffff1660e01b8152600401611ef29291906144f1565b6000604051808303816000875af1158015611f11573d6000803e3d6000fd5b505050506040513d6000823e3d601f19601f82011682018060405250810190611f3a91906144a8565b600080fd5b6060821561203f576001600081819054906101000a900460070b80929190611f6690613d19565b91906101000a81548167ffffffffffffffff021916908360070b67ffffffffffffffff1602179055505060008573ffffffffffffffffffffffffffffffffffffffff16600f604051611fb790613d7a565b60006040518083038185875af1925050503d8060008114611ff4576040519150601f19603f3d011682016040523d82523d6000602084013e611ff9565b606091505b505090508061203d576040517f08c379a000000000000000000000000000000000000000000000000000000000815260040161203490613e01565b60405180910390fd5b505b61080173ffffffffffffffffffffffffffffffffffffffff1663b46a8d6186866040518363ffffffff1660e01b815260040161207c929190614357565b6000604051808303816000875af115801561209b573d6000803e3d6000fd5b505050506040513d6000823e3d601f19601f820116820180604052508101906120c491906144a8565b905081156121c4576001600081819054906101000a900460070b809291906120eb90613d19565b91906101000a81548167ffffffffffffffff021916908360070b67ffffffffffffffff1602179055505060008573ffffffffffffffffffffffffffffffffffffffff16600f60405161213c90613d7a565b60006040518083038185875af1925050503d8060008114612179576040519150601f19603f3d011682016040523d82523d6000602084013e61217e565b606091505b50509050806121c2576040517f08c379a00000000000000000000000000000000000000000000000000000000081526004016121b990613e01565b60405180910390fd5b505b949350505050565b6060600061080173ffffffffffffffffffffffffffffffffffffffff16635a9d9a9633876040518363ffffffff1660e01b815260040161220d9291906144f1565b6020604051808303816000875af115801561222c573d6000803e3d6000fd5b505050506040513d601f19601f820116820180604052508101906122509190613ecd565b905080612292576040517f08c379a000000000000000000000000000000000000000000000000000000000815260040161228990614bc9565b60405180910390fd5b61080173ffffffffffffffffffffffffffffffffffffffff1663b46a8d6185856040518363ffffffff1660e01b81526004016122cf9291906144f1565b6000604051808303816000875af11580156122ee573d6000803e3d6000fd5b505050506040513d6000823e3d601f19601f8201168201806040525081019061231791906144a8565b9150509392505050565b606061080173ffffffffffffffffffffffffffffffffffffffff1663a66cb605836040518263ffffffff1660e01b815260040161235e9190613f75565b600060405180830381865afa15801561237b573d6000803e3d6000fd5b505050506040513d6000823e3d601f19601f820116820180604052508101906123a49190614cca565b9050919050565b600060018060008282829054906101000a900460070b6123cb9190614d13565b92506101000a81548167ffffffffffffffff021916908360070b67ffffffffffffffff16021790555061080173ffffffffffffffffffffffffffffffffffffffff1663ed41d0b684846040518363ffffffff1660e01b8152600401612431929190614d73565b6020604051808303816000875af1158015612450573d6000803e3d6000fd5b505050506040513d601f19601f820116820180604052508101906124749190613ecd565b905060018060008282829054906101000a900460070b6124949190614d9c565b92506101000a81548167ffffffffffffffff021916908360070b67ffffffffffffffff16021790555092915050565b606061080173ffffffffffffffffffffffffffffffffffffffff16635431f450836040518263ffffffff1660e01b81526004016125009190613f75565b600060405180830381865afa15801561251d573d6000803e3d6000fd5b505050506040513d6000823e3d601f19601f820116820180604052508101906125469190614dfc565b9050919050565b565b606061080173ffffffffffffffffffffffffffffffffffffffff166385b2d2da836040518263ffffffff1660e01b815260040161258c9190613aa4565b600060405180830381865afa1580156125a9573d6000803e3d6000fd5b505050506040513d6000823e3d601f19601f820116820180604052508101906125d29190614659565b9050919050565b61080073ffffffffffffffffffffffffffffffffffffffff166353266bbb3084846040518463ffffffff1660e01b815260040161261893929190614e45565b6020604051808303816000875af1158015612637573d6000803e3d6000fd5b505050506040513d601f19601f8201168201806040525081019061265b9190613ecd565b505050565b600060018060008282829054906101000a900460070b6126809190614d13565b92506101000a81548167ffffffffffffffff021916908360070b67ffffffffffffffff16021790555061080173ffffffffffffffffffffffffffffffffffffffff16632eb1df528585856040518463ffffffff1660e01b81526004016126e893929190614e83565b6020604051808303816000875af1158015612707573d6000803e3d6000fd5b505050506040513d601f19601f8201168201806040525081019061272b9190613ecd565b905060018060008282829054906101000a900460070b61274b9190614d9c565b92506101000a81548167ffffffffffffffff021916908360070b67ffffffffffffffff1602179055509392505050565b606061080173ffffffffffffffffffffffffffffffffffffffff16633ce4e3be836040518263ffffffff1660e01b81526004016127b89190613aa4565b6000604051808303816000875af11580156127d7573d6000803e3d6000fd5b505050506040513d6000823e3d601f19601f8201168201806040525081019061280091906144a8565b9050919050565b60608061080173ffffffffffffffffffffffffffffffffffffffff166354be1a28846040518263ffffffff1660e01b81526004016128459190613f75565b600060405180830381865afa158015612862573d6000803e3d6000fd5b505050506040513d6000823e3d601f19601f8201168201806040525081019061288b9190615031565b91509150915091565b60405180606001604052806060815260200160608152602001606081525090565b604051806040016040528060608152602001600067ffffffffffffffff1681525090565b6000604051905090565b600080fd5b600080fd5b600073ffffffffffffffffffffffffffffffffffffffff82169050919050565b6000612918826128ed565b9050919050565b6129288161290d565b811461293357600080fd5b50565b6000813590506129458161291f565b92915050565b600063ffffffff82169050919050565b6129648161294b565b811461296f57600080fd5b50565b6000813590506129818161295b565b92915050565b60008115159050919050565b61299c81612987565b81146129a757600080fd5b50565b6000813590506129b981612993565b92915050565b600080600080608085870312156129d9576129d86128e3565b5b60006129e787828801612936565b94505060206129f887828801612972565b9350506040612a09878288016129aa565b9250506060612a1a878288016129aa565b91505092959194509250565b6000612a31826128ed565b9050919050565b612a4181612a26565b8114612a4c57600080fd5b50565b600081359050612a5e81612a38565b92915050565b600060208284031215612a7a57612a796128e3565b5b6000612a8884828501612a4f565b91505092915050565b600081519050919050565b600082825260208201905092915050565b60005b83811015612acb578082015181840152602081019050612ab0565b60008484015250505050565b6000601f19601f8301169050919050565b6000612af382612a91565b612afd8185612a9c565b9350612b0d818560208601612aad565b612b1681612ad7565b840191505092915050565b60006020820190508181036000830152612b3b8184612ae8565b905092915050565b600080fd5b600080fd5b7f4e487b7100000000000000000000000000000000000000000000000000000000600052604160045260246000fd5b612b8582612ad7565b810181811067ffffffffffffffff82111715612ba457612ba3612b4d565b5b80604052505050565b6000612bb76128d9565b9050612bc38282612b7c565b919050565b600067ffffffffffffffff821115612be357612be2612b4d565b5b612bec82612ad7565b9050602081019050919050565b82818337600083830152505050565b6000612c1b612c1684612bc8565b612bad565b905082815260208101848484011115612c3757612c36612b48565b5b612c42848285612bf9565b509392505050565b600082601f830112612c5f57612c5e612b43565b5b8135612c6f848260208601612c08565b91505092915050565b600060208284031215612c8e57612c8d6128e3565b5b600082013567ffffffffffffffff811115612cac57612cab6128e8565b5b612cb884828501612c4a565b91505092915050565b600081519050919050565b600082825260208201905092915050565b6000612ce882612cc1565b612cf28185612ccc565b9350612d02818560208601612aad565b612d0b81612ad7565b840191505092915050565b600081519050919050565b600082825260208201905092915050565b6000819050602082019050919050565b6000819050919050565b612d5581612d42565b82525050565b600060ff82169050919050565b612d7181612d5b565b82525050565b60006060830160008301518482036000860152612d948282612cdd565b9150506020830151612da96020860182612d4c565b506040830151612dbc6040860182612d68565b508091505092915050565b6000612dd38383612d77565b905092915050565b6000602082019050919050565b6000612df382612d16565b612dfd8185612d21565b935083602082028501612e0f85612d32565b8060005b85811015612e4b5784840389528151612e2c8582612dc7565b9450612e3783612ddb565b925060208a01995050600181019050612e13565b50829750879550505050505092915050565b60006060830160008301518482036000860152612e7a8282612cdd565b91505060208301518482036020860152612e948282612de8565b91505060408301518482036040860152612eae8282612de8565b9150508091505092915050565b60006020820190508181036000830152612ed58184612e5d565b905092915050565b60008060008060808587031215612ef757612ef66128e3565b5b6000612f0587828801612936565b9450506020612f1687828801612936565b935050604085013567ffffffffffffffff811115612f3757612f366128e8565b5b612f4387828801612c4a565b9250506060612f54878288016129aa565b91505092959194509250565b60008060408385031215612f7757612f766128e3565b5b6000612f8585828601612a4f565b925050602083013567ffffffffffffffff811115612fa657612fa56128e8565b5b612fb285828601612c4a565b9150509250929050565b600081519050919050565b600082825260208201905092915050565b6000819050602082019050919050565b600060408301600083015184820360008601526130058282612cdd565b915050602083015161301a6020860182612d4c565b508091505092915050565b60006130318383612fe8565b905092915050565b6000602082019050919050565b600061305182612fbc565b61305b8185612fc7565b93508360208202850161306d85612fd8565b8060005b858110156130a9578484038952815161308a8582613025565b945061309583613039565b925060208a01995050600181019050613071565b50829750879550505050505092915050565b600060208201905081810360008301526130d58184613046565b905092915050565b600067ffffffffffffffff8211156130f8576130f7612b4d565b5b602082029050602081019050919050565b600080fd5b600080fd5b600080fd5b61312181612d42565b811461312c57600080fd5b50565b60008135905061313e81613118565b92915050565b60006040828403121561315a5761315961310e565b5b6131646040612bad565b9050600082013567ffffffffffffffff81111561318457613183613113565b5b61319084828501612c4a565b60008301525060206131a48482850161312f565b60208301525092915050565b60006131c36131be846130dd565b612bad565b905080838252602082019050602084028301858111156131e6576131e5613109565b5b835b8181101561322d57803567ffffffffffffffff81111561320b5761320a612b43565b5b8086016132188982613144565b855260208501945050506020810190506131e8565b5050509392505050565b600082601f83011261324c5761324b612b43565b5b813561325c8482602086016131b0565b91505092915050565b600080600080600060a08688031215613281576132806128e3565b5b600061328f88828901612936565b955050602086013567ffffffffffffffff8111156132b0576132af6128e8565b5b6132bc88828901612c4a565b945050604086013567ffffffffffffffff8111156132dd576132dc6128e8565b5b6132e988828901613237565b93505060606132fa888289016129aa565b925050608061330b888289016129aa565b9150509295509295909350565b61332181612987565b82525050565b600060208201905061333c6000830184613318565b92915050565b6000806000806080858703121561335c5761335b6128e3565b5b600085013567ffffffffffffffff81111561337a576133796128e8565b5b61338687828801612c4a565b945050602061339787828801612936565b93505060406133a8878288016129aa565b92505060606133b9878288016129aa565b91505092959194509250565b60008160070b9050919050565b6133db816133c5565b82525050565b60006020820190506133f660008301846133d2565b92915050565b60008060008060808587031215613416576134156128e3565b5b600061342487828801612936565b94505060206134358782880161312f565b9350506040613446878288016129aa565b9250506060613457878288016129aa565b91505092959194509250565b6000806040838503121561347a576134796128e3565b5b600061348885828601612a4f565b925050602061349985828601612972565b9150509250929050565b600082825260208201905092915050565b60006134bf82612d16565b6134c981856134a3565b9350836020820285016134db85612d32565b8060005b8581101561351757848403895281516134f88582612dc7565b945061350383612ddb565b925060208a019950506001810190506134df565b50829750879550505050505092915050565b6000602082019050818103600083015261354381846134b4565b905092915050565b600067ffffffffffffffff82169050919050565b6135688161354b565b811461357357600080fd5b50565b6000813590506135858161355f565b92915050565b600080fd5b600060a082840312156135a6576135a561358b565b5b81905092915050565b600080600080608085870312156135c9576135c86128e3565b5b600085013567ffffffffffffffff8111156135e7576135e66128e8565b5b6135f387828801612c4a565b945050602061360487828801613576565b935050604061361587828801613576565b925050606085013567ffffffffffffffff811115613636576136356128e8565b5b61364287828801613590565b91505092959194509250565b600081519050919050565b600082825260208201905092915050565b6000819050602082019050919050565b6136838161354b565b82525050565b60408201600082015161369f6000850182612d4c565b5060208201516136b26020850182612d68565b50505050565b6060820160008201516136ce600085018261367a565b5060208201516136e16020850182613689565b50505050565b60006136f383836136b8565b60608301905092915050565b6000602082019050919050565b60006137178261364e565b6137218185613659565b935061372c8361366a565b8060005b8381101561375d57815161374488826136e7565b975061374f836136ff565b925050600181019050613730565b5085935050505092915050565b600082825260208201905092915050565b600061378682612a91565b613790818561376a565b93506137a0818560208601612aad565b6137a981612ad7565b840191505092915050565b600060408301600083015184820360008601526137d1828261377b565b91505060208301516137e6602086018261367a565b508091505092915050565b6000604082019050818103600083015261380b818561370c565b9050818103602083015261381f81846137b4565b90509392505050565b60008060008060808587031215613842576138416128e3565b5b600061385087828801612936565b945050602085013567ffffffffffffffff811115613871576138706128e8565b5b61387d87828801612c4a565b935050604061388e878288016129aa565b925050606061389f878288016129aa565b91505092959194509250565b6000806000606084860312156138c4576138c36128e3565b5b600084013567ffffffffffffffff8111156138e2576138e16128e8565b5b6138ee86828701612c4a565b93505060206138ff86828701612a4f565b925050604084013567ffffffffffffffff8111156139205761391f6128e8565b5b61392c86828701612c4a565b9150509250925092565b600081519050919050565b600082825260208201905092915050565b6000819050602082019050919050565b600061396e8383612cdd565b905092915050565b6000602082019050919050565b600061398e82613936565b6139988185613941565b9350836020820285016139aa85613952565b8060005b858110156139e657848403895281516139c78582613962565b94506139d283613976565b925060208a019950506001810190506139ae565b50829750879550505050505092915050565b60006020820190508181036000830152613a128184613983565b905092915050565b60008060408385031215613a3157613a306128e3565b5b6000613a3f85828601612a4f565b9250506020613a508582860161312f565b9150509250929050565b600082825260208201905092915050565b6000613a7682612cc1565b613a808185613a5a565b9350613a90818560208601612aad565b613a9981612ad7565b840191505092915050565b60006020820190508181036000830152613abe8184613a6b565b905092915050565b60008060408385031215613add57613adc6128e3565b5b600083013567ffffffffffffffff811115613afb57613afa6128e8565b5b613b0785828601612c4a565b9250506020613b188582860161312f565b9150509250929050565b600080600060608486031215613b3b57613b3a6128e3565b5b6000613b4986828701612a4f565b935050602084013567ffffffffffffffff811115613b6a57613b696128e8565b5b613b7686828701612c4a565b925050604084013567ffffffffffffffff811115613b9757613b966128e8565b5b613ba386828701613237565b9150509250925092565b600081519050919050565b600082825260208201905092915050565b6000819050602082019050919050565b60006040830160008301518482036000860152613bf68282612cdd565b91505060208301518482036020860152613c108282612de8565b9150508091505092915050565b6000613c298383613bd9565b905092915050565b6000602082019050919050565b6000613c4982613bad565b613c538185613bb8565b935083602082028501613c6585613bc9565b8060005b85811015613ca15784840389528151613c828582613c1d565b9450613c8d83613c31565b925060208a01995050600181019050613c69565b50829750879550505050505092915050565b60006040820190508181036000830152613ccd8185613c3e565b90508181036020830152613ce181846134b4565b90509392505050565b7f4e487b7100000000000000000000000000000000000000000000000000000000600052601160045260246000fd5b6000613d24826133c5565b9150677fffffffffffffff8203613d3e57613d3d613cea565b5b600182019050919050565b600081905092915050565b50565b6000613d64600083613d49565b9150613d6f82613d54565b600082019050919050565b6000613d8582613d57565b9150819050919050565b7f4661696c656420746f2073656e6420457468657220746f2064656c656761746f60008201527f7200000000000000000000000000000000000000000000000000000000000000602082015250565b6000613deb602183613a5a565b9150613df682613d8f565b604082019050919050565b60006020820190508181036000830152613e1a81613dde565b9050919050565b6000819050919050565b6000613e46613e41613e3c846128ed565b613e21565b6128ed565b9050919050565b6000613e5882613e2b565b9050919050565b6000613e6a82613e4d565b9050919050565b613e7a81613e5f565b82525050565b613e898161294b565b82525050565b6000604082019050613ea46000830185613e71565b613eb16020830184613e80565b9392505050565b600081519050613ec781612993565b92915050565b600060208284031215613ee357613ee26128e3565b5b6000613ef184828501613eb8565b91505092915050565b7f6661696c656420746f20636c61696d2072657761726473000000000000000000600082015250565b6000613f30601783613a5a565b9150613f3b82613efa565b602082019050919050565b60006020820190508181036000830152613f5f81613f23565b9050919050565b613f6f81612a26565b82525050565b6000602082019050613f8a6000830184613f66565b92915050565b6000613f9b82612a91565b613fa58185613d49565b9350613fb5818560208601612aad565b80840191505092915050565b6000613fcd8284613f90565b915081905092915050565b7f6661696c65642073746174696343616c6c20746f20707265636f6d70696c6500600082015250565b600061400e601f83613a5a565b915061401982613fd8565b602082019050919050565b6000602082019050818103600083015261403d81614001565b9050919050565b600061405761405284612bc8565b612bad565b90508281526020810184848401111561407357614072612b48565b5b61407e848285612aad565b509392505050565b600082601f83011261409b5761409a612b43565b5b81516140ab848260208601614044565b91505092915050565b600067ffffffffffffffff8211156140cf576140ce612b4d565b5b602082029050602081019050919050565b6000815190506140ef81613118565b92915050565b6140fe81612d5b565b811461410957600080fd5b50565b60008151905061411b816140f5565b92915050565b6000606082840312156141375761413661310e565b5b6141416060612bad565b9050600082015167ffffffffffffffff81111561416157614160613113565b5b61416d84828501614086565b6000830152506020614181848285016140e0565b60208301525060406141958482850161410c565b60408301525092915050565b60006141b46141af846140b4565b612bad565b905080838252602082019050602084028301858111156141d7576141d6613109565b5b835b8181101561421e57805167ffffffffffffffff8111156141fc576141fb612b43565b5b8086016142098982614121565b855260208501945050506020810190506141d9565b5050509392505050565b600082601f83011261423d5761423c612b43565b5b815161424d8482602086016141a1565b91505092915050565b60006060828403121561426c5761426b61310e565b5b6142766060612bad565b9050600082015167ffffffffffffffff81111561429657614295613113565b5b6142a284828501614086565b600083015250602082015167ffffffffffffffff8111156142c6576142c5613113565b5b6142d284828501614228565b602083015250604082015167ffffffffffffffff8111156142f6576142f5613113565b5b61430284828501614228565b60408301525092915050565b600060208284031215614324576143236128e3565b5b600082015167ffffffffffffffff811115614342576143416128e8565b5b61434e84828501614256565b91505092915050565b600060408201905061436c6000830185613e71565b818103602083015261437e8184613a6b565b90509392505050565b60006040828403121561439d5761439c61310e565b5b6143a76040612bad565b9050600082015167ffffffffffffffff8111156143c7576143c6613113565b5b6143d384828501614086565b60008301525060206143e7848285016140e0565b60208301525092915050565b6000614406614401846130dd565b612bad565b9050808382526020820190506020840283018581111561442957614428613109565b5b835b8181101561447057805167ffffffffffffffff81111561444e5761444d612b43565b5b80860161445b8982614387565b8552602085019450505060208101905061442b565b5050509392505050565b600082601f83011261448f5761448e612b43565b5b815161449f8482602086016143f3565b91505092915050565b6000602082840312156144be576144bd6128e3565b5b600082015167ffffffffffffffff8111156144dc576144db6128e8565b5b6144e88482850161447a565b91505092915050565b60006040820190506145066000830185613f66565b81810360208301526145188184613a6b565b90509392505050565b7f6661696c65642064656c656761746543616c6c20746f20707265636f6d70696c60008201527f6500000000000000000000000000000000000000000000000000000000000000602082015250565b600061457d602183613a5a565b915061458882614521565b604082019050919050565b600060208201905081810360008301526145ac81614570565b9050919050565b60006060820190506145c86000830186613e71565b81810360208301526145da8185613a6b565b905081810360408301526145ee8184613046565b9050949350505050565b61460181612d42565b82525050565b600060408201905061461c6000830185613e71565b61462960208301846145f8565b9392505050565b60006040820190506146456000830185613f66565b6146526020830184613e80565b9392505050565b60006020828403121561466f5761466e6128e3565b5b600082015167ffffffffffffffff81111561468d5761468c6128e8565b5b61469984828501614228565b91505092915050565b6146ab8161354b565b82525050565b600080fd5b600080fd5b600080fd5b600080833560016020038436030381126146dd576146dc6146bb565b5b83810192508235915060208301925067ffffffffffffffff821115614705576147046146b1565b5b60018202360383131561471b5761471a6146b6565b5b509250929050565b600061472f838561376a565b935061473c838584612bf9565b61474583612ad7565b840190509392505050565b600061475f6020840184613576565b905092915050565b600061477660208401846129aa565b905092915050565b61478781612987565b82525050565b600060a083016147a060008401846146c0565b85830360008701526147b3838284614723565b925050506147c46020840184614750565b6147d1602086018261367a565b506147df6040840184614750565b6147ec604086018261367a565b506147fa6060840184614767565b614807606086018261477e565b506148156080840184614767565b614822608086018261477e565b508091505092915050565b600060808201905081810360008301526148478187613a6b565b905061485660208301866146a2565b61486360408301856146a2565b8181036060830152614875818461478d565b905095945050505050565b600067ffffffffffffffff82111561489b5761489a612b4d565b5b602082029050602081019050919050565b6000815190506148bb8161355f565b92915050565b6000604082840312156148d7576148d661310e565b5b6148e16040612bad565b905060006148f1848285016140e0565b60008301525060206149058482850161410c565b60208301525092915050565b6000606082840312156149275761492661310e565b5b6149316040612bad565b90506000614941848285016148ac565b6000830152506020614955848285016148c1565b60208301525092915050565b600061497461496f84614880565b612bad565b9050808382526020820190506060840283018581111561499757614996613109565b5b835b818110156149c057806149ac8882614911565b845260208401935050606081019050614999565b5050509392505050565b600082601f8301126149df576149de612b43565b5b81516149ef848260208601614961565b91505092915050565b600067ffffffffffffffff821115614a1357614a12612b4d565b5b614a1c82612ad7565b9050602081019050919050565b6000614a3c614a37846149f8565b612bad565b905082815260208101848484011115614a5857614a57612b48565b5b614a63848285612aad565b509392505050565b600082601f830112614a8057614a7f612b43565b5b8151614a90848260208601614a29565b91505092915050565b600060408284031215614aaf57614aae61310e565b5b614ab96040612bad565b9050600082015167ffffffffffffffff811115614ad957614ad8613113565b5b614ae584828501614a6b565b6000830152506020614af9848285016148ac565b60208301525092915050565b60008060408385031215614b1c57614b1b6128e3565b5b600083015167ffffffffffffffff811115614b3a57614b396128e8565b5b614b46858286016149ca565b925050602083015167ffffffffffffffff811115614b6757614b666128e8565b5b614b7385828601614a99565b9150509250929050565b7f6661696c656420746f2073657420776974686472617720616464726573730000600082015250565b6000614bb3601e83613a5a565b9150614bbe82614b7d565b602082019050919050565b60006020820190508181036000830152614be281614ba6565b9050919050565b600067ffffffffffffffff821115614c0457614c03612b4d565b5b602082029050602081019050919050565b6000614c28614c2384614be9565b612bad565b90508083825260208201905060208402830185811115614c4b57614c4a613109565b5b835b81811015614c9257805167ffffffffffffffff811115614c7057614c6f612b43565b5b808601614c7d8982614086565b85526020850194505050602081019050614c4d565b5050509392505050565b600082601f830112614cb157614cb0612b43565b5b8151614cc1848260208601614c15565b91505092915050565b600060208284031215614ce057614cdf6128e3565b5b600082015167ffffffffffffffff811115614cfe57614cfd6128e8565b5b614d0a84828501614c9c565b91505092915050565b6000614d1e826133c5565b9150614d29836133c5565b925082820190507fffffffffffffffffffffffffffffffffffffffffffffffff80000000000000008112677fffffffffffffff82131715614d6d57614d6c613cea565b5b92915050565b6000604082019050614d886000830185613f66565b614d9560208301846145f8565b9392505050565b6000614da7826133c5565b9150614db2836133c5565b92508282039050677fffffffffffffff81137fffffffffffffffffffffffffffffffffffffffffffffffff800000000000000082121715614df657614df5613cea565b5b92915050565b600060208284031215614e1257614e116128e3565b5b600082015167ffffffffffffffff811115614e3057614e2f6128e8565b5b614e3c84828501614086565b91505092915050565b6000606082019050614e5a6000830186613f66565b8181036020830152614e6c8185613a6b565b9050614e7b60408301846145f8565b949350505050565b6000606082019050614e986000830186613f66565b8181036020830152614eaa8185613a6b565b90508181036040830152614ebe8184613046565b9050949350505050565b600067ffffffffffffffff821115614ee357614ee2612b4d565b5b602082029050602081019050919050565b600060408284031215614f0a57614f0961310e565b5b614f146040612bad565b9050600082015167ffffffffffffffff811115614f3457614f33613113565b5b614f4084828501614086565b600083015250602082015167ffffffffffffffff811115614f6457614f63613113565b5b614f7084828501614228565b60208301525092915050565b6000614f8f614f8a84614ec8565b612bad565b90508083825260208201905060208402830185811115614fb257614fb1613109565b5b835b81811015614ff957805167ffffffffffffffff811115614fd757614fd6612b43565b5b808601614fe48982614ef4565b85526020850194505050602081019050614fb4565b5050509392505050565b600082601f83011261501857615017612b43565b5b8151615028848260208601614f7c565b91505092915050565b60008060408385031215615048576150476128e3565b5b600083015167ffffffffffffffff811115615066576150656128e8565b5b61507285828601615003565b925050602083015167ffffffffffffffff811115615093576150926128e8565b5b61509f85828601614228565b915050925092905056fea26469706673582212208e26a57ffabd294ba67283ef6a14f88ea8ca2d6907d9a2f6a814836cc44f8ac464736f6c634300081400332f636f736d6f732e7374616b696e672e763162657461312e4d736744656c6567617465",
  "linkReferences": {},
  "deployedLinkReferences": {}
}