{
  "_format": "hh-sol-artifact-1",
  "contractName": "DistributionCaller",
  "sourceName": "solidity/precompiles/testutil/contracts/DistributionCaller.sol",
  "abi": [
    {
      "inputs": [],
      "name": "counter",
      "outputs": [
        {
          "internalType": "int64",
          "name": "",
          "type": "int64"
        }
      ],
      "stateMutability": "view",
      "type": "function"
    },
    {
      "inputs": [
        {
          "internalType": "address",
          "name": "_delAddr",
          "type": "address"
        },
        {
          "internalType": "string",
          "name": "_withdrawAddr",
          "type": "string"
        }
      ],
      "name": "delegateCallSetWithdrawAddress",
      "outputs": [],
      "stateMutability": "nonpayable",
      "type": "function"
    },
    {
      "inputs": [],
      "name": "deposit",
      "outputs": [],
      "stateMutability": "payable",
      "type": "function"
    },
    {
      "inputs": [],
      "name": "getCommunityPool",
      "outputs": [
        {
          "components": [
            {
              "internalType": "string",
              "name": "denom",
              "type": "string"
            },
            {
              "internalType": "uint256",
              "name": "amount",
              "type": "uint256"
            },
            {
              "internalType": "uint8",
              "name": "precision",
              "type": "uint8"
            }
          ],
          "internalType": "struct DecCoin[]",
          "name": "",
          "type": "tuple[]"
        }
      ],
      "stateMutability": "view",
      "type": "function"
    },
    {
      "inputs": [
        {
          "internalType": "address",
          "name": "_delAddr",
          "type": "address"
        },
        {
          "internalType": "string",
          "name": "_valAddr",
          "type": "string"
        }
      ],
      "name": "getDelegationRewards",
      "outputs": [
        {
          "components": [
            {
              "internalType": "string",
              "name": "denom",
              "type": "string"
            },
            {
              "internalType": "uint256",
              "name": "amount",
              "type": "uint256"
            },
            {
              "internalType": "uint8",
              "name": "precision",
              "type": "uint8"
            }
          ],
          "internalType": "struct DecCoin[]",
          "name": "",
          "type": "tuple[]"
        }
      ],
      "stateMutability": "view",
      "type": "function"
    },
    {
      "inputs": [
        {
          "internalType": "address",
          "name": "_delAddr",
          "type": "address"
        }
      ],
      "name": "getDelegationTotalRewards",
      "outputs": [
        {
          "components": [
            {
              "internalType": "string",
              "name": "validatorAddress",
              "type": "string"
            },
            {
              "components": [
                {
                  "internalType": "string",
                  "name": "denom",
                  "type": "string"
                },
                {
                  "internalType": "uint256",
                  "name": "amount",
                  "type": "uint256"
                },
                {
                  "internalType": "uint8",
                  "name": "precision",
                  "type": "uint8"
                }
              ],
              "internalType": "struct DecCoin[]",
              "name": "reward",
              "type": "tuple[]"
            }
          ],
          "internalType": "struct DelegationDelegatorReward[]",
          "name": "rewards",
          "type": "tuple[]"
        },
        {
          "components": [
            {
              "internalType": "string",
              "name": "denom",
              "type": "string"
            },
            {
              "internalType": "uint256",
              "name": "amount",
              "type": "uint256"
            },
            {
              "internalType": "uint8",
              "name": "precision",
              "type": "uint8"
            }
          ],
          "internalType": "struct DecCoin[]",
          "name": "total",
          "type": "tuple[]"
        }
      ],
      "stateMutability": "view",
      "type": "function"
    },
    {
      "inputs": [
        {
          "internalType": "address",
          "name": "_delAddr",
          "type": "address"
        }
      ],
      "name": "getDelegatorValidators",
      "outputs": [
        {
          "internalType": "string[]",
          "name": "",
          "type": "string[]"
        }
      ],
      "stateMutability": "view",
      "type": "function"
    },
    {
      "inputs": [
        {
          "internalType": "address",
          "name": "_delAddr",
          "type": "address"
        }
      ],
      "name": "getDelegatorWithdrawAddress",
      "outputs": [
        {
          "internalType": "string",
          "name": "",
          "type": "string"
        }
      ],
      "stateMutability": "view",
      "type": "function"
    },
    {
      "inputs": [
        {
          "internalType": "string",
          "name": "_valAddr",
          "type": "string"
        }
      ],
      "name": "getValidatorCommission",
      "outputs": [
        {
          "components": [
            {
              "internalType": "string",
              "name": "denom",
              "type": "string"
            },
            {
              "internalType": "uint256",
              "name": "amount",
              "type": "uint256"
            },
            {
              "internalType": "uint8",
              "name": "precision",
              "type": "uint8"
            }
          ],
          "internalType": "struct DecCoin[]",
          "name": "",
          "type": "tuple[]"
        }
      ],
      "stateMutability": "view",
      "type": "function"
    },
    {
      "inputs": [
        {
          "internalType": "string",
          "name": "_valAddr",
          "type": "string"
        }
      ],
      "name": "getValidatorDistributionInfo",
      "outputs": [
        {
          "components": [
            {
              "internalType": "string",
              "name": "operatorAddress",
              "type": "string"
            },
            {
              "components": [
                {
                  "internalType": "string",
                  "name": "denom",
                  "type": "string"
                },
                {
                  "internalType": "uint256",
                  "name": "amount",
                  "type": "uint256"
                },
                {
                  "internalType": "uint8",
                  "name": "precision",
                  "type": "uint8"
                }
              ],
              "internalType": "struct DecCoin[]",
              "name": "selfBondRewards",
              "type": "tuple[]"
            },
            {
              "components": [
                {
                  "internalType": "string",
                  "name": "denom",
                  "type": "string"
                },
                {
                  "internalType": "uint256",
                  "name": "amount",
                  "type": "uint256"
                },
                {
                  "internalType": "uint8",
                  "name": "precision",
                  "type": "uint8"
                }
              ],
              "internalType": "struct DecCoin[]",
              "name": "commission",
              "type": "tuple[]"
            }
          ],
          "internalType": "struct ValidatorDistributionInfo",
          "name": "",
          "type": "tuple"
        }
      ],
      "stateMutability": "view",
      "type": "function"
    },
    {
      "inputs": [
        {
          "internalType": "string",
          "name": "_valAddr",
          "type": "string"
        }
      ],
      "name": "getValidatorOutstandingRewards",
      "outputs": [
        {
          "components": [
            {
              "internalType": "string",
              "name": "denom",
              "type": "string"
            },
            {
              "internalType": "uint256",
              "name": "amount",
              "type": "uint256"
            },
            {
              "internalType": "uint8",
              "name": "precision",
              "type": "uint8"
            }
          ],
          "internalType": "struct DecCoin[]",
          "name": "",
          "type": "tuple[]"
        }
      ],
      "stateMutability": "view",
      "type": "function"
    },
    {
      "inputs": [
        {
          "internalType": "string",
          "name": "_valAddr",
          "type": "string"
        },
        {
          "internalType": "uint64",
          "name": "_startingHeight",
          "type": "uint64"
        },
        {
          "internalType": "uint64",
          "name": "_endingHeight",
          "type": "uint64"
        },
        {
          "components": [
            {
              "internalType": "bytes",
              "name": "key",
              "type": "bytes"
            },
            {
              "internalType": "uint64",
              "name": "offset",
              "type": "uint64"
            },
            {
              "internalType": "uint64",
              "name": "limit",
              "type": "uint64"
            },
            {
              "internalType": "bool",
              "name": "countTotal",
              "type": "bool"
            },
            {
              "internalType": "bool",
              "name": "reverse",
              "type": "bool"
            }
          ],
          "internalType": "struct PageRequest",
          "name": "pageRequest",
          "type": "tuple"
        }
      ],
      "name": "getValidatorSlashes",
      "outputs": [
        {
          "components": [
            {
              "internalType": "uint64",
              "name": "validatorPeriod",
              "type": "uint64"
            },
            {
              "components": [
                {
                  "internalType": "uint256",
                  "name": "value",
                  "type": "uint256"
                },
                {
                  "internalType": "uint8",
                  "name": "precision",
                  "type": "uint8"
                }
              ],
              "internalType": "struct Dec",
              "name": "fraction",
              "type": "tuple"
            }
          ],
          "internalType": "struct ValidatorSlashEvent[]",
          "name": "",
          "type": "tuple[]"
        },
        {
          "components": [
            {
              "internalType": "bytes",
              "name": "nextKey",
              "type": "bytes"
            },
            {
              "internalType": "uint64",
              "name": "total",
              "type": "uint64"
            }
          ],
          "internalType": "struct PageResponse",
          "name": "",
          "type": "tuple"
        }
      ],
      "stateMutability": "view",
      "type": "function"
    },
    {
      "inputs": [
        {
          "internalType": "address payable",
          "name": "_delAddr",
          "type": "address"
        },
        {
          "internalType": "address payable",
          "name": "_withdrawer",
          "type": "address"
        },
        {
          "internalType": "string",
          "name": "_valAddr",
          "type": "string"
        },
        {
          "internalType": "bool",
          "name": "_after",
          "type": "bool"
        }
      ],
      "name": "revertWithdrawRewardsAndTransfer",
      "outputs": [],
      "stateMutability": "nonpayable",
      "type": "function"
    },
    {
      "inputs": [
        {
          "internalType": "address",
          "name": "_delAddr",
          "type": "address"
        }
      ],
      "name": "staticCallGetWithdrawAddress",
      "outputs": [
        {
          "internalType": "bytes",
          "name": "",
          "type": "bytes"
        }
      ],
      "stateMutability": "view",
      "type": "function"
    },
    {
      "inputs": [
        {
          "internalType": "address",
          "name": "_delAddr",
          "type": "address"
        },
        {
          "internalType": "string",
          "name": "_withdrawAddr",
          "type": "string"
        }
      ],
      "name": "staticCallSetWithdrawAddress",
      "outputs": [],
      "stateMutability": "view",
      "type": "function"
    },
    {
      "inputs": [
        {
          "internalType": "address",
          "name": "_delAddr",
          "type": "address"
        },
        {
          "internalType": "uint32",
          "name": "_maxRetrieve",
          "type": "uint32"
        }
      ],
      "name": "testClaimRewards",
      "outputs": [
        {
          "internalType": "bool",
          "name": "success",
          "type": "bool"
        }
      ],
      "stateMutability": "nonpayable",
      "type": "function"
    },
    {
      "inputs": [
        {
          "internalType": "address payable",
          "name": "_delAddr",
          "type": "address"
        },
        {
          "internalType": "uint32",
          "name": "_maxRetrieve",
          "type": "uint32"
        },
        {
          "internalType": "bool",
          "name": "_before",
          "type": "bool"
        },
        {
          "internalType": "bool",
          "name": "_after",
          "type": "bool"
        }
      ],
      "name": "testClaimRewardsWithTransfer",
      "outputs": [],
      "stateMutability": "nonpayable",
      "type": "function"
    },
    {
      "inputs": [
        {
          "internalType": "string",
          "name": "_validatorAddr",
          "type": "string"
        },
        {
          "internalType": "uint256",
          "name": "_amount",
          "type": "uint256"
        }
      ],
      "name": "testDelegateFromContract",
      "outputs": [],
      "stateMutability": "nonpayable",
      "type": "function"
    },
    {
      "inputs": [
        {
          "internalType": "address",
          "name": "depositor",
          "type": "address"
        },
        {
          "internalType": "string",
          "name": "validatorAddress",
          "type": "string"
        },
        {
          "components": [
            {
              "internalType": "string",
              "name": "denom",
              "type": "string"
            },
            {
              "internalType": "uint256",
              "name": "amount",
              "type": "uint256"
            }
          ],
          "internalType": "struct Coin[]",
          "name": "amount",
          "type": "tuple[]"
        }
      ],
      "name": "testDepositValidatorRewardsPool",
      "outputs": [
        {
          "internalType": "bool",
          "name": "success",
          "type": "bool"
        }
      ],
      "stateMutability": "nonpayable",
      "type": "function"
    },
    {
      "inputs": [
        {
          "internalType": "address payable",
          "name": "depositor",
          "type": "address"
        },
        {
          "internalType": "string",
          "name": "validatorAddress",
          "type": "string"
        },
        {
          "components": [
            {
              "internalType": "string",
              "name": "denom",
              "type": "string"
            },
            {
              "internalType": "uint256",
              "name": "amount",
              "type": "uint256"
            }
          ],
          "internalType": "struct Coin[]",
          "name": "amount",
          "type": "tuple[]"
        },
        {
          "internalType": "bool",
          "name": "_before",
          "type": "bool"
        },
        {
          "internalType": "bool",
          "name": "_after",
          "type": "bool"
        }
      ],
      "name": "testDepositValidatorRewardsPoolWithTransfer",
      "outputs": [],
      "stateMutability": "nonpayable",
      "type": "function"
    },
    {
      "inputs": [
        {
          "internalType": "address",
          "name": "depositor",
          "type": "address"
        },
        {
          "internalType": "uint256",
          "name": "amount",
          "type": "uint256"
        }
      ],
      "name": "testFundCommunityPool",
      "outputs": [
        {
          "internalType": "bool",
          "name": "success",
          "type": "bool"
        }
      ],
      "stateMutability": "nonpayable",
      "type": "function"
    },
    {
      "inputs": [
        {
          "internalType": "address payable",
          "name": "depositor",
          "type": "address"
        },
        {
          "internalType": "uint256",
          "name": "amount",
          "type": "uint256"
        },
        {
          "internalType": "bool",
          "name": "_before",
          "type": "bool"
        },
        {
          "internalType": "bool",
          "name": "_after",
          "type": "bool"
        }
      ],
      "name": "testFundCommunityPoolWithTransfer",
      "outputs": [],
      "stateMutability": "nonpayable",
      "type": "function"
    },
    {
      "inputs": [
        {
          "internalType": "string",
          "name": "_withdrawAddr",
          "type": "string"
        },
        {
          "internalType": "address",
          "name": "_delAddr",
          "type": "address"
        },
        {
          "internalType": "string",
          "name": "_valAddr",
          "type": "string"
        }
      ],
      "name": "testRevertState",
      "outputs": [
        {
          "components": [
            {
              "internalType": "string",
              "name": "denom",
              "type": "string"
            },
            {
              "internalType": "uint256",
              "name": "amount",
              "type": "uint256"
            }
          ],
          "internalType": "struct Coin[]",
          "name": "",
          "type": "tuple[]"
        }
      ],
      "stateMutability": "nonpayable",
      "type": "function"
    },
    {
      "inputs": [
        {
          "internalType": "address",
          "name": "_delAddr",
          "type": "address"
        },
        {
          "internalType": "string",
          "name": "_withdrawAddr",
          "type": "string"
        }
      ],
      "name": "testSetWithdrawAddress",
      "outputs": [
        {
          "internalType": "bool",
          "name": "",
          "type": "bool"
        }
      ],
      "stateMutability": "nonpayable",
      "type": "function"
    },
    {
      "inputs": [
        {
          "internalType": "string",
          "name": "_withdrawAddr",
          "type": "string"
        }
      ],
      "name": "testSetWithdrawAddressFromContract",
      "outputs": [
        {
          "internalType": "bool",
          "name": "",
          "type": "bool"
        }
      ],
      "stateMutability": "nonpayable",
      "type": "function"
    },
    {
      "inputs": [
        {
          "internalType": "address",
          "name": "delegatorAddress",
          "type": "address"
        },
        {
          "internalType": "uint32",
          "name": "maxRetrieve",
          "type": "uint32"
        }
      ],
      "name": "testTryClaimRewards",
      "outputs": [
        {
          "internalType": "bool",
          "name": "",
          "type": "bool"
        }
      ],
      "stateMutability": "nonpayable",
      "type": "function"
    },
    {
      "inputs": [
        {
          "internalType": "address",
          "name": "_delAddr",
          "type": "address"
        },
        {
          "internalType": "string",
          "name": "_valAddr",
          "type": "string"
        }
      ],
      "name": "testWithdrawDelegatorRewards",
      "outputs": [
        {
          "components": [
            {
              "internalType": "string",
              "name": "denom",
              "type": "string"
            },
            {
              "internalType": "uint256",
              "name": "amount",
              "type": "uint256"
            }
          ],
          "internalType": "struct Coin[]",
          "name": "",
          "type": "tuple[]"
        }
      ],
      "stateMutability": "nonpayable",
      "type": "function"
    },
    {
      "inputs": [
        {
          "internalType": "string",
          "name": "_valAddr",
          "type": "string"
        }
      ],
      "name": "testWithdrawDelegatorRewardsFromContract",
      "outputs": [
        {
          "components": [
            {
              "internalType": "string",
              "name": "denom",
              "type": "string"
            },
            {
              "internalType": "uint256",
              "name": "amount",
              "type": "uint256"
            }
          ],
          "internalType": "struct Coin[]",
          "name": "",
          "type": "tuple[]"
        }
      ],
      "stateMutability": "nonpayable",
      "type": "function"
    },
    {
      "inputs": [
        {
          "internalType": "address payable",
          "name": "_delAddr",
          "type": "address"
        },
        {
          "internalType": "string",
          "name": "_valAddr",
          "type": "string"
        },
        {
          "internalType": "bool",
          "name": "_before",
          "type": "bool"
        },
        {
          "internalType": "bool",
          "name": "_after",
          "type": "bool"
        }
      ],
      "name": "testWithdrawDelegatorRewardsWithTransfer",
      "outputs": [
        {
          "components": [
            {
              "internalType": "string",
              "name": "denom",
              "type": "string"
            },
            {
              "internalType": "uint256",
              "name": "amount",
              "type": "uint256"
            }
          ],
          "internalType": "struct Coin[]",
          "name": "coins",
          "type": "tuple[]"
        }
      ],
      "stateMutability": "nonpayable",
      "type": "function"
    },
    {
      "inputs": [
        {
          "internalType": "string",
          "name": "_valAddr",
          "type": "string"
        }
      ],
      "name": "testWithdrawValidatorCommission",
      "outputs": [
        {
          "components": [
            {
              "internalType": "string",
              "name": "denom",
              "type": "string"
            },
            {
              "internalType": "uint256",
              "name": "amount",
              "type": "uint256"
            }
          ],
          "internalType": "struct Coin[]",
          "name": "",
          "type": "tuple[]"
        }
      ],
      "stateMutability": "nonpayable",
      "type": "function"
    },
    {
      "inputs": [
        {
          "internalType": "string",
          "name": "_valAddr",
          "type": "string"
        },
        {
          "internalType": "address payable",
          "name": "_withdrawer",
          "type": "address"
        },
        {
          "internalType": "bool",
          "name": "_before",
          "type": "bool"
        },
        {
          "internalType": "bool",
          "name": "_after",
          "type": "bool"
        }
      ],
      "name": "testWithdrawValidatorCommissionWithTransfer",
      "outputs": [
        {
          "components": [
            {
              "internalType": "string",
              "name": "denom",
              "type": "string"
            },
            {
              "internalType": "uint256",
              "name": "amount",
              "type": "uint256"
            }
          ],
          "internalType": "struct Coin[]",
          "name": "coins",
          "type": "tuple[]"
        }
      ],
      "stateMutability": "nonpayable",
      "type": "function"
    },
    {
      "inputs": [
        {
          "internalType": "address",
          "name": "_delAddr",
          "type": "address"
        },
        {
          "internalType": "string",
          "name": "_valAddr",
          "type": "string"
        }
      ],
      "name": "withdrawDelegatorRewardsAndRevert",
      "outputs": [
        {
          "components": [
            {
              "internalType": "string",
              "name": "denom",
              "type": "string"
            },
            {
              "internalType": "uint256",
              "name": "amount",
              "type": "uint256"
            }
          ],
          "internalType": "struct Coin[]",
          "name": "coins",
          "type": "tuple[]"
        }
      ],
      "stateMutability": "nonpayable",
      "type": "function"
    }
  ],
  "bytecode": "0x60806040526040518060200160405280604051806060016040528060238152602001620056436023913981525060009060016200003e92919062000053565b503480156200004c57600080fd5b50620004a1565b828054828255906000526020600020908101928215620000a0579160200282015b828111156200009f5782518290816200008e9190620003ba565b509160200191906001019062000074565b5b509050620000af9190620000b3565b5090565b5b80821115620000d75760008181620000cd9190620000db565b50600101620000b4565b5090565b508054620000e990620001a9565b6000825580601f10620000fd57506200011e565b601f0160209004906000526020600020908101906200011d919062000121565b5b50565b5b808211156200013c57600081600090555060010162000122565b5090565b600081519050919050565b7f4e487b7100000000000000000000000000000000000000000000000000000000600052604160045260246000fd5b7f4e487b7100000000000000000000000000000000000000000000000000000000600052602260045260246000fd5b60006002820490506001821680620001c257607f821691505b602082108103620001d857620001d76200017a565b5b50919050565b60008190508160005260206000209050919050565b60006020601f8301049050919050565b600082821b905092915050565b600060088302620002427fffffffffffffffffffffffffffffffffffffffffffffffffffffffffffffffff8262000203565b6200024e868362000203565b95508019841693508086168417925050509392505050565b6000819050919050565b6000819050919050565b60006200029b620002956200028f8462000266565b62000270565b62000266565b9050919050565b6000819050919050565b620002b7836200027a565b620002cf620002c682620002a2565b84845462000210565b825550505050565b600090565b620002e6620002d7565b620002f3818484620002ac565b505050565b5b818110156200031b576200030f600082620002dc565b600181019050620002f9565b5050565b601f8211156200036a576200033481620001de565b6200033f84620001f3565b810160208510156200034f578190505b620003676200035e85620001f3565b830182620002f8565b50505b505050565b600082821c905092915050565b60006200038f600019846008026200036f565b1980831691505092915050565b6000620003aa83836200037c565b9150826002028217905092915050565b620003c58262000140565b67ffffffffffffffff811115620003e157620003e06200014b565b5b620003ed8254620001a9565b620003fa8282856200031f565b600060209050601f8311600181146200043257600084156200041d578287015190505b6200042985826200039c565b86555062000499565b601f1984166200044286620001de565b60005b828110156200046c5784890151825560018201915060208501945060208101905062000445565b868310156200048c578489015162000488601f8916826200037c565b8355505b6001600288020188555050505b505050505050565b61519280620004b16000396000f3fe6080604052600436106101e35760003560e01c806388b2d58111610102578063c7804bb511610095578063dd987c2011610064578063dd987c20146107c6578063ddbfa271146107ef578063e0421e391461082c578063e236c7a614610869576101e3565b8063c7804bb514610705578063cb85aa0a14610742578063d0e30db01461077f578063d3f831be14610789576101e3565b8063ad5c4cdd116100d1578063ad5c4cdd14610611578063adb237851461064e578063b2d178831461068b578063b6a216ae146106c8576101e3565b806388b2d5811461051c57806393574cd11461055a578063963516e41461059757806398194593146105d4576101e3565b806346e16d341161017a5780636f669da4116101495780636f669da41461043c57806378a5dfd114610479578063796b96d2146104b65780637c9db0bb146104df576101e3565b806346e16d341461036e578063613d4de8146103ab57806361bc221a146103e85780636cc9ac8a14610413576101e3565b8063296c60aa116101b6578063296c60aa146102b45780632d0ee16a146102dd578063382d823c1461031a578063467253cf14610345576101e3565b80630183e4b4146101e857806301b68000146102115780630c05e9e41461024e5780631b0502071461028b575b600080fd5b3480156101f457600080fd5b5061020f600480360381019061020a9190612a72565b6108a7565b005b34801561021d57600080fd5b5061023860048036038101906102339190612b17565b610bd6565b6040516102459190612bd4565b60405180910390f35b34801561025a57600080fd5b5061027560048036038101906102709190612d2b565b610d1e565b6040516102829190612f6e565b60405180910390f35b34801561029757600080fd5b506102b260048036038101906102ad9190612f90565b610dae565b005b3480156102c057600080fd5b506102db60048036038101906102d69190613013565b610f35565b005b3480156102e957600080fd5b5061030460048036038101906102ff9190612d2b565b611076565b604051610311919061316e565b60405180910390f35b34801561032657600080fd5b5061032f611104565b60405161033c9190613216565b60405180910390f35b34801561035157600080fd5b5061036c600480360381019061036791906133c0565b611181565b005b34801561037a57600080fd5b5061039560048036038101906103909190613013565b611415565b6040516103a29190613482565b60405180910390f35b3480156103b757600080fd5b506103d260048036038101906103cd919061349d565b61149f565b6040516103df919061316e565b60405180910390f35b3480156103f457600080fd5b506103fd611792565b60405161040a919061353c565b60405180910390f35b34801561041f57600080fd5b5061043a60048036038101906104359190613557565b6117a5565b005b34801561044857600080fd5b50610463600480360381019061045e91906135be565b611a36565b6040516104709190613482565b60405180910390f35b34801561048557600080fd5b506104a0600480360381019061049b9190613013565b611ac0565b6040516104ad9190613216565b60405180910390f35b3480156104c257600080fd5b506104dd60048036038101906104d89190613013565b611b4d565b005b3480156104eb57600080fd5b5061050660048036038101906105019190612d2b565b611c8e565b6040516105139190613216565b60405180910390f35b34801561052857600080fd5b50610543600480360381019061053e9190613662565b611d18565b6040516105519291906138a4565b60405180910390f35b34801561056657600080fd5b50610581600480360381019061057c91906135be565b611db6565b60405161058e9190613482565b60405180910390f35b3480156105a357600080fd5b506105be60048036038101906105b99190612d2b565b611e4e565b6040516105cb9190613482565b60405180910390f35b3480156105e057600080fd5b506105fb60048036038101906105f69190613013565b611ed7565b604051610608919061316e565b60405180910390f35b34801561061d57600080fd5b5061063860048036038101906106339190613013565b611f66565b604051610645919061316e565b60405180910390f35b34801561065a57600080fd5b50610675600480360381019061067091906138db565b611ff2565b604051610682919061316e565b60405180910390f35b34801561069757600080fd5b506106b260048036038101906106ad919061395e565b61227f565b6040516106bf919061316e565b60405180910390f35b3480156106d457600080fd5b506106ef60048036038101906106ea9190612b17565b6123d4565b6040516106fc9190613aab565b60405180910390f35b34801561071157600080fd5b5061072c60048036038101906107279190613acd565b61245e565b6040516107399190613482565b60405180910390f35b34801561074e57600080fd5b5061076960048036038101906107649190612b17565b612576565b6040516107769190613b57565b60405180910390f35b610787612600565b005b34801561079557600080fd5b506107b060048036038101906107ab9190612d2b565b612602565b6040516107bd9190613216565b60405180910390f35b3480156107d257600080fd5b506107ed60048036038101906107e89190613b79565b61268c565b005b3480156107fb57600080fd5b5061081660048036038101906108119190613bd5565b612713565b6040516108239190613482565b60405180910390f35b34801561083857600080fd5b50610853600480360381019061084e9190612d2b565b61282e565b604051610860919061316e565b60405180910390f35b34801561087557600080fd5b50610890600480360381019061088b9190612b17565b6128ba565b60405161089e929190613d66565b60405180910390f35b81156109d9576001600081819054906101000a900460070b809291906108cc90613dcc565b91906101000a81548167ffffffffffffffff021916908360070b67ffffffffffffffff160217905550503073ffffffffffffffffffffffffffffffffffffffff168473ffffffffffffffffffffffffffffffffffffffff16146109d85760008473ffffffffffffffffffffffffffffffffffffffff16600f60405161095090613e2d565b60006040518083038185875af1925050503d806000811461098d576040519150601f19603f3d011682016040523d82523d6000602084013e610992565b606091505b50509050806109d6576040517f08c379a00000000000000000000000000000000000000000000000000000000081526004016109cd90613eb4565b60405180910390fd5b505b5b600061080173ffffffffffffffffffffffffffffffffffffffff16632efe8a5f86866040518363ffffffff1660e01b8152600401610a18929190613f42565b6020604051808303816000875af1158015610a37573d6000803e3d6000fd5b505050506040513d601f19601f82011682018060405250810190610a5b9190613f80565b905080610a9d576040517f08c379a0000000000000000000000000000000000000000000000000000000008152600401610a9490613ff9565b60405180910390fd5b8115610bcf576001600081819054906101000a900460070b80929190610ac290613dcc565b91906101000a81548167ffffffffffffffff021916908360070b67ffffffffffffffff160217905550503073ffffffffffffffffffffffffffffffffffffffff168573ffffffffffffffffffffffffffffffffffffffff1614610bce5760008573ffffffffffffffffffffffffffffffffffffffff16600f604051610b4690613e2d565b60006040518083038185875af1925050503d8060008114610b83576040519150601f19603f3d011682016040523d82523d6000602084013e610b88565b606091505b5050905080610bcc576040517f08c379a0000000000000000000000000000000000000000000000000000000008152600401610bc390613eb4565b60405180910390fd5b505b5b5050505050565b606060008061080173ffffffffffffffffffffffffffffffffffffffff1684604051602401610c059190614028565b6040516020818303038152906040527f5431f450000000000000000000000000000000000000000000000000000000007bffffffffffffffffffffffffffffffffffffffffffffffffffffffff19166020820180517bffffffffffffffffffffffffffffffffffffffffffffffffffffffff8381831617835250505050604051610c8f9190614074565b600060405180830381855afa9150503d8060008114610cca576040519150601f19603f3d011682016040523d82523d6000602084013e610ccf565b606091505b509150915081610d14576040517f08c379a0000000000000000000000000000000000000000000000000000000008152600401610d0b906140d7565b60405180910390fd5b8092505050919050565b610d26612947565b61080173ffffffffffffffffffffffffffffffffffffffff166354212a89836040518263ffffffff1660e01b8152600401610d619190613b57565b600060405180830381865afa158015610d7e573d6000803e3d6000fd5b505050506040513d6000823e3d601f19601f82011682018060405250810190610da791906143c1565b9050919050565b3073ffffffffffffffffffffffffffffffffffffffff1663ad5c4cdd85846040518363ffffffff1660e01b8152600401610de992919061440a565b6000604051808303816000875af1925050508015610e2a57506040513d6000823e3d601f19601f82011682018060405250810190610e27919061455b565b60015b15610e3157505b8015610f2f576001600081819054906101000a900460070b80929190610e5690613dcc565b91906101000a81548167ffffffffffffffff021916908360070b67ffffffffffffffff1602179055505060008373ffffffffffffffffffffffffffffffffffffffff16600f604051610ea790613e2d565b60006040518083038185875af1925050503d8060008114610ee4576040519150601f19603f3d011682016040523d82523d6000602084013e610ee9565b606091505b5050905080610f2d576040517f08c379a0000000000000000000000000000000000000000000000000000000008152600401610f2490613eb4565b60405180910390fd5b505b50505050565b600061080173ffffffffffffffffffffffffffffffffffffffff168383604051602401610f639291906145a4565b6040516020818303038152906040527f5a9d9a96000000000000000000000000000000000000000000000000000000007bffffffffffffffffffffffffffffffffffffffffffffffffffffffff19166020820180517bffffffffffffffffffffffffffffffffffffffffffffffffffffffff8381831617835250505050604051610fed9190614074565b600060405180830381855af49150503d8060008114611028576040519150601f19603f3d011682016040523d82523d6000602084013e61102d565b606091505b5050905080611071576040517f08c379a000000000000000000000000000000000000000000000000000000000815260040161106890614646565b60405180910390fd5b505050565b606061080173ffffffffffffffffffffffffffffffffffffffff1663b46a8d6130846040518363ffffffff1660e01b81526004016110b59291906145a4565b6000604051808303816000875af11580156110d4573d6000803e3d6000fd5b505050506040513d6000823e3d601f19601f820116820180604052508101906110fd919061455b565b9050919050565b606061080173ffffffffffffffffffffffffffffffffffffffff166314d140b06040518163ffffffff1660e01b8152600401600060405180830381865afa158015611153573d6000803e3d6000fd5b505050506040513d6000823e3d601f19601f8201168201806040525081019061117c9190614666565b905090565b811561127f576001600081819054906101000a900460070b809291906111a690613dcc565b91906101000a81548167ffffffffffffffff021916908360070b67ffffffffffffffff1602179055505060008573ffffffffffffffffffffffffffffffffffffffff16600f6040516111f790613e2d565b60006040518083038185875af1925050503d8060008114611234576040519150601f19603f3d011682016040523d82523d6000602084013e611239565b606091505b505090508061127d576040517f08c379a000000000000000000000000000000000000000000000000000000000815260040161127490613eb4565b60405180910390fd5b505b600061080173ffffffffffffffffffffffffffffffffffffffff16632eb1df528787876040518463ffffffff1660e01b81526004016112c0939291906146af565b6020604051808303816000875af11580156112df573d6000803e3d6000fd5b505050506040513d601f19601f820116820180604052508101906113039190613f80565b90508061130f57600080fd5b811561140d576001600081819054906101000a900460070b8092919061133490613dcc565b91906101000a81548167ffffffffffffffff021916908360070b67ffffffffffffffff1602179055505060008673ffffffffffffffffffffffffffffffffffffffff16600f60405161138590613e2d565b60006040518083038185875af1925050503d80600081146113c2576040519150601f19603f3d011682016040523d82523d6000602084013e6113c7565b606091505b505090508061140b576040517f08c379a000000000000000000000000000000000000000000000000000000000815260040161140290613eb4565b60405180910390fd5b505b505050505050565b600061080173ffffffffffffffffffffffffffffffffffffffff16635a9d9a9684846040518363ffffffff1660e01b81526004016114549291906145a4565b6020604051808303816000875af1158015611473573d6000803e3d6000fd5b505050506040513d601f19601f820116820180604052508101906114979190613f80565b905092915050565b606082156115d3576001600081819054906101000a900460070b809291906114c690613dcc565b91906101000a81548167ffffffffffffffff021916908360070b67ffffffffffffffff160217905550503073ffffffffffffffffffffffffffffffffffffffff168473ffffffffffffffffffffffffffffffffffffffff16146115d25760008473ffffffffffffffffffffffffffffffffffffffff16600f60405161154a90613e2d565b60006040518083038185875af1925050503d8060008114611587576040519150601f19603f3d011682016040523d82523d6000602084013e61158c565b606091505b50509050806115d0576040517f08c379a00000000000000000000000000000000000000000000000000000000081526004016115c790613eb4565b60405180910390fd5b505b5b61080173ffffffffffffffffffffffffffffffffffffffff16633ce4e3be866040518263ffffffff1660e01b815260040161160e9190613b57565b6000604051808303816000875af115801561162d573d6000803e3d6000fd5b505050506040513d6000823e3d601f19601f82011682018060405250810190611656919061455b565b9050811561178a576001600081819054906101000a900460070b8092919061167d90613dcc565b91906101000a81548167ffffffffffffffff021916908360070b67ffffffffffffffff160217905550503073ffffffffffffffffffffffffffffffffffffffff168473ffffffffffffffffffffffffffffffffffffffff16146117895760008473ffffffffffffffffffffffffffffffffffffffff16600f60405161170190613e2d565b60006040518083038185875af1925050503d806000811461173e576040519150601f19603f3d011682016040523d82523d6000602084013e611743565b606091505b5050905080611787576040517f08c379a000000000000000000000000000000000000000000000000000000000815260040161177e90613eb4565b60405180910390fd5b505b5b949350505050565b600160009054906101000a900460070b81565b81156118a3576001600081819054906101000a900460070b809291906117ca90613dcc565b91906101000a81548167ffffffffffffffff021916908360070b67ffffffffffffffff1602179055505060008473ffffffffffffffffffffffffffffffffffffffff16600f60405161181b90613e2d565b60006040518083038185875af1925050503d8060008114611858576040519150601f19603f3d011682016040523d82523d6000602084013e61185d565b606091505b50509050806118a1576040517f08c379a000000000000000000000000000000000000000000000000000000000815260040161189890613eb4565b60405180910390fd5b505b600061080173ffffffffffffffffffffffffffffffffffffffff1663ed41d0b686866040518363ffffffff1660e01b81526004016118e2929190614703565b6020604051808303816000875af1158015611901573d6000803e3d6000fd5b505050506040513d601f19601f820116820180604052508101906119259190613f80565b90508061193157600080fd5b8115611a2f576001600081819054906101000a900460070b8092919061195690613dcc565b91906101000a81548167ffffffffffffffff021916908360070b67ffffffffffffffff1602179055505060008573ffffffffffffffffffffffffffffffffffffffff16600f6040516119a790613e2d565b60006040518083038185875af1925050503d80600081146119e4576040519150601f19603f3d011682016040523d82523d6000602084013e6119e9565b606091505b5050905080611a2d576040517f08c379a0000000000000000000000000000000000000000000000000000000008152600401611a2490613eb4565b60405180910390fd5b505b5050505050565b600061080173ffffffffffffffffffffffffffffffffffffffff16632efe8a5f84846040518363ffffffff1660e01b8152600401611a7592919061472c565b6020604051808303816000875af1158015611a94573d6000803e3d6000fd5b505050506040513d601f19601f82011682018060405250810190611ab89190613f80565b905092915050565b606061080173ffffffffffffffffffffffffffffffffffffffff16639ad563b484846040518363ffffffff1660e01b8152600401611aff9291906145a4565b600060405180830381865afa158015611b1c573d6000803e3d6000fd5b505050506040513d6000823e3d601f19601f82011682018060405250810190611b459190614666565b905092915050565b600061080173ffffffffffffffffffffffffffffffffffffffff168383604051602401611b7b9291906145a4565b6040516020818303038152906040527f5a9d9a96000000000000000000000000000000000000000000000000000000007bffffffffffffffffffffffffffffffffffffffffffffffffffffffff19166020820180517bffffffffffffffffffffffffffffffffffffffffffffffffffffffff8381831617835250505050604051611c059190614074565b600060405180830381855afa9150503d8060008114611c40576040519150601f19603f3d011682016040523d82523d6000602084013e611c45565b606091505b5050905080611c89576040517f08c379a0000000000000000000000000000000000000000000000000000000008152600401611c80906140d7565b60405180910390fd5b505050565b606061080173ffffffffffffffffffffffffffffffffffffffff16633dd40f78836040518263ffffffff1660e01b8152600401611ccb9190613b57565b600060405180830381865afa158015611ce8573d6000803e3d6000fd5b505050506040513d6000823e3d601f19601f82011682018060405250810190611d119190614666565b9050919050565b6060611d22612968565b61080173ffffffffffffffffffffffffffffffffffffffff16638f2473ce878787876040518563ffffffff1660e01b8152600401611d6394939291906148e0565b600060405180830381865afa158015611d80573d6000803e3d6000fd5b505050506040513d6000823e3d601f19601f82011682018060405250810190611da99190614bb8565b9150915094509492505050565b60008061080173ffffffffffffffffffffffffffffffffffffffff16632efe8a5f85856040518363ffffffff1660e01b8152600401611df692919061472c565b6020604051808303816000875af1925050508015611e3257506040513d601f19601f82011682018060405250810190611e2f9190613f80565b60015b611e3f5760009050611e44565b809150505b8091505092915050565b600061080173ffffffffffffffffffffffffffffffffffffffff16635a9d9a9630846040518363ffffffff1660e01b8152600401611e8d9291906145a4565b6020604051808303816000875af1158015611eac573d6000803e3d6000fd5b505050506040513d601f19601f82011682018060405250810190611ed09190613f80565b9050919050565b606061080173ffffffffffffffffffffffffffffffffffffffff1663b46a8d6184846040518363ffffffff1660e01b8152600401611f169291906145a4565b6000604051808303816000875af1158015611f35573d6000803e3d6000fd5b505050506040513d6000823e3d601f19601f82011682018060405250810190611f5e919061455b565b905092915050565b606061080173ffffffffffffffffffffffffffffffffffffffff1663b46a8d6184846040518363ffffffff1660e01b8152600401611fa59291906145a4565b6000604051808303816000875af1158015611fc4573d6000803e3d6000fd5b505050506040513d6000823e3d601f19601f82011682018060405250810190611fed919061455b565b600080fd5b606082156120f2576001600081819054906101000a900460070b8092919061201990613dcc565b91906101000a81548167ffffffffffffffff021916908360070b67ffffffffffffffff1602179055505060008573ffffffffffffffffffffffffffffffffffffffff16600f60405161206a90613e2d565b60006040518083038185875af1925050503d80600081146120a7576040519150601f19603f3d011682016040523d82523d6000602084013e6120ac565b606091505b50509050806120f0576040517f08c379a00000000000000000000000000000000000000000000000000000000081526004016120e790613eb4565b60405180910390fd5b505b61080173ffffffffffffffffffffffffffffffffffffffff1663b46a8d6186866040518363ffffffff1660e01b815260040161212f92919061440a565b6000604051808303816000875af115801561214e573d6000803e3d6000fd5b505050506040513d6000823e3d601f19601f82011682018060405250810190612177919061455b565b90508115612277576001600081819054906101000a900460070b8092919061219e90613dcc565b91906101000a81548167ffffffffffffffff021916908360070b67ffffffffffffffff1602179055505060008573ffffffffffffffffffffffffffffffffffffffff16600f6040516121ef90613e2d565b60006040518083038185875af1925050503d806000811461222c576040519150601f19603f3d011682016040523d82523d6000602084013e612231565b606091505b5050905080612275576040517f08c379a000000000000000000000000000000000000000000000000000000000815260040161226c90613eb4565b60405180910390fd5b505b949350505050565b6060600061080173ffffffffffffffffffffffffffffffffffffffff16635a9d9a9633876040518363ffffffff1660e01b81526004016122c09291906145a4565b6020604051808303816000875af11580156122df573d6000803e3d6000fd5b505050506040513d601f19601f820116820180604052508101906123039190613f80565b905080612345576040517f08c379a000000000000000000000000000000000000000000000000000000000815260040161233c90614c7c565b60405180910390fd5b61080173ffffffffffffffffffffffffffffffffffffffff1663b46a8d6185856040518363ffffffff1660e01b81526004016123829291906145a4565b6000604051808303816000875af11580156123a1573d6000803e3d6000fd5b505050506040513d6000823e3d601f19601f820116820180604052508101906123ca919061455b565b9150509392505050565b606061080173ffffffffffffffffffffffffffffffffffffffff1663a66cb605836040518263ffffffff1660e01b81526004016124119190614028565b600060405180830381865afa15801561242e573d6000803e3d6000fd5b505050506040513d6000823e3d601f19601f820116820180604052508101906124579190614d7d565b9050919050565b600060018060008282829054906101000a900460070b61247e9190614dc6565b92506101000a81548167ffffffffffffffff021916908360070b67ffffffffffffffff16021790555061080173ffffffffffffffffffffffffffffffffffffffff1663ed41d0b684846040518363ffffffff1660e01b81526004016124e4929190614e26565b6020604051808303816000875af1158015612503573d6000803e3d6000fd5b505050506040513d601f19601f820116820180604052508101906125279190613f80565b905060018060008282829054906101000a900460070b6125479190614e4f565b92506101000a81548167ffffffffffffffff021916908360070b67ffffffffffffffff16021790555092915050565b606061080173ffffffffffffffffffffffffffffffffffffffff16635431f450836040518263ffffffff1660e01b81526004016125b39190614028565b600060405180830381865afa1580156125d0573d6000803e3d6000fd5b505050506040513d6000823e3d601f19601f820116820180604052508101906125f99190614eaf565b9050919050565b565b606061080173ffffffffffffffffffffffffffffffffffffffff166385b2d2da836040518263ffffffff1660e01b815260040161263f9190613b57565b600060405180830381865afa15801561265c573d6000803e3d6000fd5b505050506040513d6000823e3d601f19601f820116820180604052508101906126859190614666565b9050919050565b61080073ffffffffffffffffffffffffffffffffffffffff166353266bbb3084846040518463ffffffff1660e01b81526004016126cb93929190614ef8565b6020604051808303816000875af11580156126ea573d6000803e3d6000fd5b505050506040513d601f19601f8201168201806040525081019061270e9190613f80565b505050565b600060018060008282829054906101000a900460070b6127339190614dc6565b92506101000a81548167ffffffffffffffff021916908360070b67ffffffffffffffff16021790555061080173ffffffffffffffffffffffffffffffffffffffff16632eb1df528585856040518463ffffffff1660e01b815260040161279b93929190614f36565b6020604051808303816000875af11580156127ba573d6000803e3d6000fd5b505050506040513d601f19601f820116820180604052508101906127de9190613f80565b905060018060008282829054906101000a900460070b6127fe9190614e4f565b92506101000a81548167ffffffffffffffff021916908360070b67ffffffffffffffff1602179055509392505050565b606061080173ffffffffffffffffffffffffffffffffffffffff16633ce4e3be836040518263ffffffff1660e01b815260040161286b9190613b57565b6000604051808303816000875af115801561288a573d6000803e3d6000fd5b505050506040513d6000823e3d601f19601f820116820180604052508101906128b3919061455b565b9050919050565b60608061080173ffffffffffffffffffffffffffffffffffffffff166354be1a28846040518263ffffffff1660e01b81526004016128f89190614028565b600060405180830381865afa158015612915573d6000803e3d6000fd5b505050506040513d6000823e3d601f19601f8201168201806040525081019061293e91906150e4565b91509150915091565b60405180606001604052806060815260200160608152602001606081525090565b604051806040016040528060608152602001600067ffffffffffffffff1681525090565b6000604051905090565b600080fd5b600080fd5b600073ffffffffffffffffffffffffffffffffffffffff82169050919050565b60006129cb826129a0565b9050919050565b6129db816129c0565b81146129e657600080fd5b50565b6000813590506129f8816129d2565b92915050565b600063ffffffff82169050919050565b612a17816129fe565b8114612a2257600080fd5b50565b600081359050612a3481612a0e565b92915050565b60008115159050919050565b612a4f81612a3a565b8114612a5a57600080fd5b50565b600081359050612a6c81612a46565b92915050565b60008060008060808587031215612a8c57612a8b612996565b5b6000612a9a878288016129e9565b9450506020612aab87828801612a25565b9350506040612abc87828801612a5d565b9250506060612acd87828801612a5d565b91505092959194509250565b6000612ae4826129a0565b9050919050565b612af481612ad9565b8114612aff57600080fd5b50565b600081359050612b1181612aeb565b92915050565b600060208284031215612b2d57612b2c612996565b5b6000612b3b84828501612b02565b91505092915050565b600081519050919050565b600082825260208201905092915050565b60005b83811015612b7e578082015181840152602081019050612b63565b60008484015250505050565b6000601f19601f8301169050919050565b6000612ba682612b44565b612bb08185612b4f565b9350612bc0818560208601612b60565b612bc981612b8a565b840191505092915050565b60006020820190508181036000830152612bee8184612b9b565b905092915050565b600080fd5b600080fd5b7f4e487b7100000000000000000000000000000000000000000000000000000000600052604160045260246000fd5b612c3882612b8a565b810181811067ffffffffffffffff82111715612c5757612c56612c00565b5b80604052505050565b6000612c6a61298c565b9050612c768282612c2f565b919050565b600067ffffffffffffffff821115612c9657612c95612c00565b5b612c9f82612b8a565b9050602081019050919050565b82818337600083830152505050565b6000612cce612cc984612c7b565b612c60565b905082815260208101848484011115612cea57612ce9612bfb565b5b612cf5848285612cac565b509392505050565b600082601f830112612d1257612d11612bf6565b5b8135612d22848260208601612cbb565b91505092915050565b600060208284031215612d4157612d40612996565b5b600082013567ffffffffffffffff811115612d5f57612d5e61299b565b5b612d6b84828501612cfd565b91505092915050565b600081519050919050565b600082825260208201905092915050565b6000612d9b82612d74565b612da58185612d7f565b9350612db5818560208601612b60565b612dbe81612b8a565b840191505092915050565b600081519050919050565b600082825260208201905092915050565b6000819050602082019050919050565b6000819050919050565b612e0881612df5565b82525050565b600060ff82169050919050565b612e2481612e0e565b82525050565b60006060830160008301518482036000860152612e478282612d90565b9150506020830151612e5c6020860182612dff565b506040830151612e6f6040860182612e1b565b508091505092915050565b6000612e868383612e2a565b905092915050565b6000602082019050919050565b6000612ea682612dc9565b612eb08185612dd4565b935083602082028501612ec285612de5565b8060005b85811015612efe5784840389528151612edf8582612e7a565b9450612eea83612e8e565b925060208a01995050600181019050612ec6565b50829750879550505050505092915050565b60006060830160008301518482036000860152612f2d8282612d90565b91505060208301518482036020860152612f478282612e9b565b91505060408301518482036040860152612f618282612e9b565b9150508091505092915050565b60006020820190508181036000830152612f888184612f10565b905092915050565b60008060008060808587031215612faa57612fa9612996565b5b6000612fb8878288016129e9565b9450506020612fc9878288016129e9565b935050604085013567ffffffffffffffff811115612fea57612fe961299b565b5b612ff687828801612cfd565b925050606061300787828801612a5d565b91505092959194509250565b6000806040838503121561302a57613029612996565b5b600061303885828601612b02565b925050602083013567ffffffffffffffff8111156130595761305861299b565b5b61306585828601612cfd565b9150509250929050565b600081519050919050565b600082825260208201905092915050565b6000819050602082019050919050565b600060408301600083015184820360008601526130b88282612d90565b91505060208301516130cd6020860182612dff565b508091505092915050565b60006130e4838361309b565b905092915050565b6000602082019050919050565b60006131048261306f565b61310e818561307a565b9350836020820285016131208561308b565b8060005b8581101561315c578484038952815161313d85826130d8565b9450613148836130ec565b925060208a01995050600181019050613124565b50829750879550505050505092915050565b6000602082019050818103600083015261318881846130f9565b905092915050565b600082825260208201905092915050565b60006131ac82612dc9565b6131b68185613190565b9350836020820285016131c885612de5565b8060005b8581101561320457848403895281516131e58582612e7a565b94506131f083612e8e565b925060208a019950506001810190506131cc565b50829750879550505050505092915050565b6000602082019050818103600083015261323081846131a1565b905092915050565b600067ffffffffffffffff82111561325357613252612c00565b5b602082029050602081019050919050565b600080fd5b600080fd5b600080fd5b61327c81612df5565b811461328757600080fd5b50565b60008135905061329981613273565b92915050565b6000604082840312156132b5576132b4613269565b5b6132bf6040612c60565b9050600082013567ffffffffffffffff8111156132df576132de61326e565b5b6132eb84828501612cfd565b60008301525060206132ff8482850161328a565b60208301525092915050565b600061331e61331984613238565b612c60565b9050808382526020820190506020840283018581111561334157613340613264565b5b835b8181101561338857803567ffffffffffffffff81111561336657613365612bf6565b5b808601613373898261329f565b85526020850194505050602081019050613343565b5050509392505050565b600082601f8301126133a7576133a6612bf6565b5b81356133b784826020860161330b565b91505092915050565b600080600080600060a086880312156133dc576133db612996565b5b60006133ea888289016129e9565b955050602086013567ffffffffffffffff81111561340b5761340a61299b565b5b61341788828901612cfd565b945050604086013567ffffffffffffffff8111156134385761343761299b565b5b61344488828901613392565b935050606061345588828901612a5d565b925050608061346688828901612a5d565b9150509295509295909350565b61347c81612a3a565b82525050565b60006020820190506134976000830184613473565b92915050565b600080600080608085870312156134b7576134b6612996565b5b600085013567ffffffffffffffff8111156134d5576134d461299b565b5b6134e187828801612cfd565b94505060206134f2878288016129e9565b935050604061350387828801612a5d565b925050606061351487828801612a5d565b91505092959194509250565b60008160070b9050919050565b61353681613520565b82525050565b6000602082019050613551600083018461352d565b92915050565b6000806000806080858703121561357157613570612996565b5b600061357f878288016129e9565b94505060206135908782880161328a565b93505060406135a187828801612a5d565b92505060606135b287828801612a5d565b91505092959194509250565b600080604083850312156135d5576135d4612996565b5b60006135e385828601612b02565b92505060206135f485828601612a25565b9150509250929050565b600067ffffffffffffffff82169050919050565b61361b816135fe565b811461362657600080fd5b50565b60008135905061363881613612565b92915050565b600080fd5b600060a082840312156136595761365861363e565b5b81905092915050565b6000806000806080858703121561367c5761367b612996565b5b600085013567ffffffffffffffff81111561369a5761369961299b565b5b6136a687828801612cfd565b94505060206136b787828801613629565b93505060406136c887828801613629565b925050606085013567ffffffffffffffff8111156136e9576136e861299b565b5b6136f587828801613643565b91505092959194509250565b600081519050919050565b600082825260208201905092915050565b6000819050602082019050919050565b613736816135fe565b82525050565b6040820160008201516137526000850182612dff565b5060208201516137656020850182612e1b565b50505050565b606082016000820151613781600085018261372d565b506020820151613794602085018261373c565b50505050565b60006137a6838361376b565b60608301905092915050565b6000602082019050919050565b60006137ca82613701565b6137d4818561370c565b93506137df8361371d565b8060005b838110156138105781516137f7888261379a565b9750613802836137b2565b9250506001810190506137e3565b5085935050505092915050565b600082825260208201905092915050565b600061383982612b44565b613843818561381d565b9350613853818560208601612b60565b61385c81612b8a565b840191505092915050565b60006040830160008301518482036000860152613884828261382e565b9150506020830151613899602086018261372d565b508091505092915050565b600060408201905081810360008301526138be81856137bf565b905081810360208301526138d28184613867565b90509392505050565b600080600080608085870312156138f5576138f4612996565b5b6000613903878288016129e9565b945050602085013567ffffffffffffffff8111156139245761392361299b565b5b61393087828801612cfd565b935050604061394187828801612a5d565b925050606061395287828801612a5d565b91505092959194509250565b60008060006060848603121561397757613976612996565b5b600084013567ffffffffffffffff8111156139955761399461299b565b5b6139a186828701612cfd565b93505060206139b286828701612b02565b925050604084013567ffffffffffffffff8111156139d3576139d261299b565b5b6139df86828701612cfd565b9150509250925092565b600081519050919050565b600082825260208201905092915050565b6000819050602082019050919050565b6000613a218383612d90565b905092915050565b6000602082019050919050565b6000613a41826139e9565b613a4b81856139f4565b935083602082028501613a5d85613a05565b8060005b85811015613a995784840389528151613a7a8582613a15565b9450613a8583613a29565b925060208a01995050600181019050613a61565b50829750879550505050505092915050565b60006020820190508181036000830152613ac58184613a36565b905092915050565b60008060408385031215613ae457613ae3612996565b5b6000613af285828601612b02565b9250506020613b038582860161328a565b9150509250929050565b600082825260208201905092915050565b6000613b2982612d74565b613b338185613b0d565b9350613b43818560208601612b60565b613b4c81612b8a565b840191505092915050565b60006020820190508181036000830152613b718184613b1e565b905092915050565b60008060408385031215613b9057613b8f612996565b5b600083013567ffffffffffffffff811115613bae57613bad61299b565b5b613bba85828601612cfd565b9250506020613bcb8582860161328a565b9150509250929050565b600080600060608486031215613bee57613bed612996565b5b6000613bfc86828701612b02565b935050602084013567ffffffffffffffff811115613c1d57613c1c61299b565b5b613c2986828701612cfd565b925050604084013567ffffffffffffffff811115613c4a57613c4961299b565b5b613c5686828701613392565b9150509250925092565b600081519050919050565b600082825260208201905092915050565b6000819050602082019050919050565b60006040830160008301518482036000860152613ca98282612d90565b91505060208301518482036020860152613cc38282612e9b565b9150508091505092915050565b6000613cdc8383613c8c565b905092915050565b6000602082019050919050565b6000613cfc82613c60565b613d068185613c6b565b935083602082028501613d1885613c7c565b8060005b85811015613d545784840389528151613d358582613cd0565b9450613d4083613ce4565b925060208a01995050600181019050613d1c565b50829750879550505050505092915050565b60006040820190508181036000830152613d808185613cf1565b90508181036020830152613d9481846131a1565b90509392505050565b7f4e487b7100000000000000000000000000000000000000000000000000000000600052601160045260246000fd5b6000613dd782613520565b9150677fffffffffffffff8203613df157613df0613d9d565b5b600182019050919050565b600081905092915050565b50565b6000613e17600083613dfc565b9150613e2282613e07565b600082019050919050565b6000613e3882613e0a565b9150819050919050565b7f4661696c656420746f2073656e6420457468657220746f2064656c656761746f60008201527f7200000000000000000000000000000000000000000000000000000000000000602082015250565b6000613e9e602183613b0d565b9150613ea982613e42565b604082019050919050565b60006020820190508181036000830152613ecd81613e91565b9050919050565b6000819050919050565b6000613ef9613ef4613eef846129a0565b613ed4565b6129a0565b9050919050565b6000613f0b82613ede565b9050919050565b6000613f1d82613f00565b9050919050565b613f2d81613f12565b82525050565b613f3c816129fe565b82525050565b6000604082019050613f576000830185613f24565b613f646020830184613f33565b9392505050565b600081519050613f7a81612a46565b92915050565b600060208284031215613f9657613f95612996565b5b6000613fa484828501613f6b565b91505092915050565b7f6661696c656420746f20636c61696d2072657761726473000000000000000000600082015250565b6000613fe3601783613b0d565b9150613fee82613fad565b602082019050919050565b6000602082019050818103600083015261401281613fd6565b9050919050565b61402281612ad9565b82525050565b600060208201905061403d6000830184614019565b92915050565b600061404e82612b44565b6140588185613dfc565b9350614068818560208601612b60565b80840191505092915050565b60006140808284614043565b915081905092915050565b7f6661696c65642073746174696343616c6c20746f20707265636f6d70696c6500600082015250565b60006140c1601f83613b0d565b91506140cc8261408b565b602082019050919050565b600060208201905081810360008301526140f0816140b4565b9050919050565b600061410a61410584612c7b565b612c60565b90508281526020810184848401111561412657614125612bfb565b5b614131848285612b60565b509392505050565b600082601f83011261414e5761414d612bf6565b5b815161415e8482602086016140f7565b91505092915050565b600067ffffffffffffffff82111561418257614181612c00565b5b602082029050602081019050919050565b6000815190506141a281613273565b92915050565b6141b181612e0e565b81146141bc57600080fd5b50565b6000815190506141ce816141a8565b92915050565b6000606082840312156141ea576141e9613269565b5b6141f46060612c60565b9050600082015167ffffffffffffffff8111156142145761421361326e565b5b61422084828501614139565b600083015250602061423484828501614193565b6020830152506040614248848285016141bf565b60408301525092915050565b600061426761426284614167565b612c60565b9050808382526020820190506020840283018581111561428a57614289613264565b5b835b818110156142d157805167ffffffffffffffff8111156142af576142ae612bf6565b5b8086016142bc89826141d4565b8552602085019450505060208101905061428c565b5050509392505050565b600082601f8301126142f0576142ef612bf6565b5b8151614300848260208601614254565b91505092915050565b60006060828403121561431f5761431e613269565b5b6143296060612c60565b9050600082015167ffffffffffffffff8111156143495761434861326e565b5b61435584828501614139565b600083015250602082015167ffffffffffffffff8111156143795761437861326e565b5b614385848285016142db565b602083015250604082015167ffffffffffffffff8111156143a9576143a861326e565b5b6143b5848285016142db565b60408301525092915050565b6000602082840312156143d7576143d6612996565b5b600082015167ffffffffffffffff8111156143f5576143f461299b565b5b61440184828501614309565b91505092915050565b600060408201905061441f6000830185613f24565b81810360208301526144318184613b1e565b90509392505050565b6000604082840312156144505761444f613269565b5b61445a6040612c60565b9050600082015167ffffffffffffffff81111561447a5761447961326e565b5b61448684828501614139565b600083015250602061449a84828501614193565b60208301525092915050565b60006144b96144b484613238565b612c60565b905080838252602082019050602084028301858111156144dc576144db613264565b5b835b8181101561452357805167ffffffffffffffff81111561450157614500612bf6565b5b80860161450e898261443a565b855260208501945050506020810190506144de565b5050509392505050565b600082601f83011261454257614541612bf6565b5b81516145528482602086016144a6565b91505092915050565b60006020828403121561457157614570612996565b5b600082015167ffffffffffffffff81111561458f5761458e61299b565b5b61459b8482850161452d565b91505092915050565b60006040820190506145b96000830185614019565b81810360208301526145cb8184613b1e565b90509392505050565b7f6661696c65642064656c656761746543616c6c20746f20707265636f6d70696c60008201527f6500000000000000000000000000000000000000000000000000000000000000602082015250565b6000614630602183613b0d565b915061463b826145d4565b604082019050919050565b6000602082019050818103600083015261465f81614623565b9050919050565b60006020828403121561467c5761467b612996565b5b600082015167ffffffffffffffff81111561469a5761469961299b565b5b6146a6848285016142db565b91505092915050565b60006060820190506146c46000830186613f24565b81810360208301526146d68185613b1e565b905081810360408301526146ea81846130f9565b9050949350505050565b6146fd81612df5565b82525050565b60006040820190506147186000830185613f24565b61472560208301846146f4565b9392505050565b60006040820190506147416000830185614019565b61474e6020830184613f33565b9392505050565b61475e816135fe565b82525050565b600080fd5b600080fd5b600080fd5b600080833560016020038436030381126147905761478f61476e565b5b83810192508235915060208301925067ffffffffffffffff8211156147b8576147b7614764565b5b6001820236038313156147ce576147cd614769565b5b509250929050565b60006147e2838561381d565b93506147ef838584612cac565b6147f883612b8a565b840190509392505050565b60006148126020840184613629565b905092915050565b60006148296020840184612a5d565b905092915050565b61483a81612a3a565b82525050565b600060a083016148536000840184614773565b85830360008701526148668382846147d6565b925050506148776020840184614803565b614884602086018261372d565b506148926040840184614803565b61489f604086018261372d565b506148ad606084018461481a565b6148ba6060860182614831565b506148c8608084018461481a565b6148d56080860182614831565b508091505092915050565b600060808201905081810360008301526148fa8187613b1e565b90506149096020830186614755565b6149166040830185614755565b81810360608301526149288184614840565b905095945050505050565b600067ffffffffffffffff82111561494e5761494d612c00565b5b602082029050602081019050919050565b60008151905061496e81613612565b92915050565b60006040828403121561498a57614989613269565b5b6149946040612c60565b905060006149a484828501614193565b60008301525060206149b8848285016141bf565b60208301525092915050565b6000606082840312156149da576149d9613269565b5b6149e46040612c60565b905060006149f48482850161495f565b6000830152506020614a0884828501614974565b60208301525092915050565b6000614a27614a2284614933565b612c60565b90508083825260208201905060608402830185811115614a4a57614a49613264565b5b835b81811015614a735780614a5f88826149c4565b845260208401935050606081019050614a4c565b5050509392505050565b600082601f830112614a9257614a91612bf6565b5b8151614aa2848260208601614a14565b91505092915050565b600067ffffffffffffffff821115614ac657614ac5612c00565b5b614acf82612b8a565b9050602081019050919050565b6000614aef614aea84614aab565b612c60565b905082815260208101848484011115614b0b57614b0a612bfb565b5b614b16848285612b60565b509392505050565b600082601f830112614b3357614b32612bf6565b5b8151614b43848260208601614adc565b91505092915050565b600060408284031215614b6257614b61613269565b5b614b6c6040612c60565b9050600082015167ffffffffffffffff811115614b8c57614b8b61326e565b5b614b9884828501614b1e565b6000830152506020614bac8482850161495f565b60208301525092915050565b60008060408385031215614bcf57614bce612996565b5b600083015167ffffffffffffffff811115614bed57614bec61299b565b5b614bf985828601614a7d565b925050602083015167ffffffffffffffff811115614c1a57614c1961299b565b5b614c2685828601614b4c565b9150509250929050565b7f6661696c656420746f2073657420776974686472617720616464726573730000600082015250565b6000614c66601e83613b0d565b9150614c7182614c30565b602082019050919050565b60006020820190508181036000830152614c9581614c59565b9050919050565b600067ffffffffffffffff821115614cb757614cb6612c00565b5b602082029050602081019050919050565b6000614cdb614cd684614c9c565b612c60565b90508083825260208201905060208402830185811115614cfe57614cfd613264565b5b835b81811015614d4557805167ffffffffffffffff811115614d2357614d22612bf6565b5b808601614d308982614139565b85526020850194505050602081019050614d00565b5050509392505050565b600082601f830112614d6457614d63612bf6565b5b8151614d74848260208601614cc8565b91505092915050565b600060208284031215614d9357614d92612996565b5b600082015167ffffffffffffffff811115614db157614db061299b565b5b614dbd84828501614d4f565b91505092915050565b6000614dd182613520565b9150614ddc83613520565b925082820190507fffffffffffffffffffffffffffffffffffffffffffffffff80000000000000008112677fffffffffffffff82131715614e2057614e1f613d9d565b5b92915050565b6000604082019050614e3b6000830185614019565b614e4860208301846146f4565b9392505050565b6000614e5a82613520565b9150614e6583613520565b92508282039050677fffffffffffffff81137fffffffffffffffffffffffffffffffffffffffffffffffff800000000000000082121715614ea957614ea8613d9d565b5b92915050565b600060208284031215614ec557614ec4612996565b5b600082015167ffffffffffffffff811115614ee357614ee261299b565b5b614eef84828501614139565b91505092915050565b6000606082019050614f0d6000830186614019565b8181036020830152614f1f8185613b1e565b9050614f2e60408301846146f4565b949350505050565b6000606082019050614f4b6000830186614019565b8181036020830152614f5d8185613b1e565b90508181036040830152614f7181846130f9565b9050949350505050565b600067ffffffffffffffff821115614f9657614f95612c00565b5b602082029050602081019050919050565b600060408284031215614fbd57614fbc613269565b5b614fc76040612c60565b9050600082015167ffffffffffffffff811115614fe757614fe661326e565b5b614ff384828501614139565b600083015250602082015167ffffffffffffffff8111156150175761501661326e565b5b615023848285016142db565b60208301525092915050565b600061504261503d84614f7b565b612c60565b9050808382526020820190506020840283018581111561506557615064613264565b5b835b818110156150ac57805167ffffffffffffffff81111561508a57615089612bf6565b5b8086016150978982614fa7565b85526020850194505050602081019050615067565b5050509392505050565b600082601f8301126150cb576150ca612bf6565b5b81516150db84826020860161502f565b91505092915050565b600080604083850312156150fb576150fa612996565b5b600083015167ffffffffffffffff8111156151195761511861299b565b5b615125858286016150b6565b925050602083015167ffffffffffffffff8111156151465761514561299b565b5b615152858286016142db565b915050925092905056fea2646970667358221220123b2537e187c6b27b6b9dc41fb7eeb3a2b79c435d67caa73f4c423fcb6dc78e64736f6c634300081400332f636f736d6f732e7374616b696e672e763162657461312e4d736744656c6567617465",
  "linkReferences": {},
  "deployedLinkReferences": {}
}