{
  "_format": "hh3-artifact-1",
  "contractName": "DistributionCaller",
  "sourceName": "solidity/precompiles/testutil/contracts/DistributionCaller.sol",
  "abi": [
    {
      "inputs": [],
      "name": "counter",
      "outputs": [
        {
          "internalType": "int64",
          "name": "",
          "type": "int64"
        }
      ],
      "stateMutability": "view",
      "type": "function"
    },
    {
      "inputs": [
        {
          "internalType": "address",
          "name": "_delAddr",
          "type": "address"
        },
        {
          "internalType": "string",
          "name": "_withdrawAddr",
          "type": "string"
        }
      ],
      "name": "delegateCallSetWithdrawAddress",
      "outputs": [],
      "stateMutability": "nonpayable",
      "type": "function"
    },
    {
      "inputs": [],
      "name": "deposit",
      "outputs": [],
      "stateMutability": "payable",
      "type": "function"
    },
    {
      "inputs": [],
      "name": "getCommunityPool",
      "outputs": [
        {
          "components": [
            {
              "internalType": "string",
              "name": "denom",
              "type": "string"
            },
            {
              "internalType": "uint256",
              "name": "amount",
              "type": "uint256"
            },
            {
              "internalType": "uint8",
              "name": "precision",
              "type": "uint8"
            }
          ],
          "internalType": "struct DecCoin[]",
          "name": "",
          "type": "tuple[]"
        }
      ],
      "stateMutability": "view",
      "type": "function"
    },
    {
      "inputs": [
        {
          "internalType": "address",
          "name": "_delAddr",
          "type": "address"
        },
        {
          "internalType": "string",
          "name": "_valAddr",
          "type": "string"
        }
      ],
      "name": "getDelegationRewards",
      "outputs": [
        {
          "components": [
            {
              "internalType": "string",
              "name": "denom",
              "type": "string"
            },
            {
              "internalType": "uint256",
              "name": "amount",
              "type": "uint256"
            },
            {
              "internalType": "uint8",
              "name": "precision",
              "type": "uint8"
            }
          ],
          "internalType": "struct DecCoin[]",
          "name": "",
          "type": "tuple[]"
        }
      ],
      "stateMutability": "view",
      "type": "function"
    },
    {
      "inputs": [
        {
          "internalType": "address",
          "name": "_delAddr",
          "type": "address"
        }
      ],
      "name": "getDelegationTotalRewards",
      "outputs": [
        {
          "components": [
            {
              "internalType": "string",
              "name": "validatorAddress",
              "type": "string"
            },
            {
              "components": [
                {
                  "internalType": "string",
                  "name": "denom",
                  "type": "string"
                },
                {
                  "internalType": "uint256",
                  "name": "amount",
                  "type": "uint256"
                },
                {
                  "internalType": "uint8",
                  "name": "precision",
                  "type": "uint8"
                }
              ],
              "internalType": "struct DecCoin[]",
              "name": "reward",
              "type": "tuple[]"
            }
          ],
          "internalType": "struct DelegationDelegatorReward[]",
          "name": "rewards",
          "type": "tuple[]"
        },
        {
          "components": [
            {
              "internalType": "string",
              "name": "denom",
              "type": "string"
            },
            {
              "internalType": "uint256",
              "name": "amount",
              "type": "uint256"
            },
            {
              "internalType": "uint8",
              "name": "precision",
              "type": "uint8"
            }
          ],
          "internalType": "struct DecCoin[]",
          "name": "total",
          "type": "tuple[]"
        }
      ],
      "stateMutability": "view",
      "type": "function"
    },
    {
      "inputs": [
        {
          "internalType": "address",
          "name": "_delAddr",
          "type": "address"
        }
      ],
      "name": "getDelegatorValidators",
      "outputs": [
        {
          "internalType": "string[]",
          "name": "",
          "type": "string[]"
        }
      ],
      "stateMutability": "view",
      "type": "function"
    },
    {
      "inputs": [
        {
          "internalType": "address",
          "name": "_delAddr",
          "type": "address"
        }
      ],
      "name": "getDelegatorWithdrawAddress",
      "outputs": [
        {
          "internalType": "string",
          "name": "",
          "type": "string"
        }
      ],
      "stateMutability": "view",
      "type": "function"
    },
    {
      "inputs": [
        {
          "internalType": "string",
          "name": "_valAddr",
          "type": "string"
        }
      ],
      "name": "getValidatorCommission",
      "outputs": [
        {
          "components": [
            {
              "internalType": "string",
              "name": "denom",
              "type": "string"
            },
            {
              "internalType": "uint256",
              "name": "amount",
              "type": "uint256"
            },
            {
              "internalType": "uint8",
              "name": "precision",
              "type": "uint8"
            }
          ],
          "internalType": "struct DecCoin[]",
          "name": "",
          "type": "tuple[]"
        }
      ],
      "stateMutability": "view",
      "type": "function"
    },
    {
      "inputs": [
        {
          "internalType": "string",
          "name": "_valAddr",
          "type": "string"
        }
      ],
      "name": "getValidatorDistributionInfo",
      "outputs": [
        {
          "components": [
            {
              "internalType": "string",
              "name": "operatorAddress",
              "type": "string"
            },
            {
              "components": [
                {
                  "internalType": "string",
                  "name": "denom",
                  "type": "string"
                },
                {
                  "internalType": "uint256",
                  "name": "amount",
                  "type": "uint256"
                },
                {
                  "internalType": "uint8",
                  "name": "precision",
                  "type": "uint8"
                }
              ],
              "internalType": "struct DecCoin[]",
              "name": "selfBondRewards",
              "type": "tuple[]"
            },
            {
              "components": [
                {
                  "internalType": "string",
                  "name": "denom",
                  "type": "string"
                },
                {
                  "internalType": "uint256",
                  "name": "amount",
                  "type": "uint256"
                },
                {
                  "internalType": "uint8",
                  "name": "precision",
                  "type": "uint8"
                }
              ],
              "internalType": "struct DecCoin[]",
              "name": "commission",
              "type": "tuple[]"
            }
          ],
          "internalType": "struct ValidatorDistributionInfo",
          "name": "",
          "type": "tuple"
        }
      ],
      "stateMutability": "view",
      "type": "function"
    },
    {
      "inputs": [
        {
          "internalType": "string",
          "name": "_valAddr",
          "type": "string"
        }
      ],
      "name": "getValidatorOutstandingRewards",
      "outputs": [
        {
          "components": [
            {
              "internalType": "string",
              "name": "denom",
              "type": "string"
            },
            {
              "internalType": "uint256",
              "name": "amount",
              "type": "uint256"
            },
            {
              "internalType": "uint8",
              "name": "precision",
              "type": "uint8"
            }
          ],
          "internalType": "struct DecCoin[]",
          "name": "",
          "type": "tuple[]"
        }
      ],
      "stateMutability": "view",
      "type": "function"
    },
    {
      "inputs": [
        {
          "internalType": "string",
          "name": "_valAddr",
          "type": "string"
        },
        {
          "internalType": "uint64",
          "name": "_startingHeight",
          "type": "uint64"
        },
        {
          "internalType": "uint64",
          "name": "_endingHeight",
          "type": "uint64"
        },
        {
          "components": [
            {
              "internalType": "bytes",
              "name": "key",
              "type": "bytes"
            },
            {
              "internalType": "uint64",
              "name": "offset",
              "type": "uint64"
            },
            {
              "internalType": "uint64",
              "name": "limit",
              "type": "uint64"
            },
            {
              "internalType": "bool",
              "name": "countTotal",
              "type": "bool"
            },
            {
              "internalType": "bool",
              "name": "reverse",
              "type": "bool"
            }
          ],
          "internalType": "struct PageRequest",
          "name": "pageRequest",
          "type": "tuple"
        }
      ],
      "name": "getValidatorSlashes",
      "outputs": [
        {
          "components": [
            {
              "internalType": "uint64",
              "name": "validatorPeriod",
              "type": "uint64"
            },
            {
              "components": [
                {
                  "internalType": "uint256",
                  "name": "value",
                  "type": "uint256"
                },
                {
                  "internalType": "uint8",
                  "name": "precision",
                  "type": "uint8"
                }
              ],
              "internalType": "struct Dec",
              "name": "fraction",
              "type": "tuple"
            }
          ],
          "internalType": "struct ValidatorSlashEvent[]",
          "name": "",
          "type": "tuple[]"
        },
        {
          "components": [
            {
              "internalType": "bytes",
              "name": "nextKey",
              "type": "bytes"
            },
            {
              "internalType": "uint64",
              "name": "total",
              "type": "uint64"
            }
          ],
          "internalType": "struct PageResponse",
          "name": "",
          "type": "tuple"
        }
      ],
      "stateMutability": "view",
      "type": "function"
    },
    {
      "inputs": [
        {
          "internalType": "address payable",
          "name": "_delAddr",
          "type": "address"
        },
        {
          "internalType": "address payable",
          "name": "_withdrawer",
          "type": "address"
        },
        {
          "internalType": "string",
          "name": "_valAddr",
          "type": "string"
        },
        {
          "internalType": "bool",
          "name": "_after",
          "type": "bool"
        }
      ],
      "name": "revertWithdrawRewardsAndTransfer",
      "outputs": [],
      "stateMutability": "nonpayable",
      "type": "function"
    },
    {
      "inputs": [
        {
          "internalType": "address",
          "name": "_delAddr",
          "type": "address"
        }
      ],
      "name": "staticCallGetWithdrawAddress",
      "outputs": [
        {
          "internalType": "bytes",
          "name": "",
          "type": "bytes"
        }
      ],
      "stateMutability": "view",
      "type": "function"
    },
    {
      "inputs": [
        {
          "internalType": "address",
          "name": "_delAddr",
          "type": "address"
        },
        {
          "internalType": "string",
          "name": "_withdrawAddr",
          "type": "string"
        }
      ],
      "name": "staticCallSetWithdrawAddress",
      "outputs": [],
      "stateMutability": "view",
      "type": "function"
    },
    {
      "inputs": [
        {
          "internalType": "address",
          "name": "_delAddr",
          "type": "address"
        },
        {
          "internalType": "uint32",
          "name": "_maxRetrieve",
          "type": "uint32"
        }
      ],
      "name": "testClaimRewards",
      "outputs": [
        {
          "internalType": "bool",
          "name": "success",
          "type": "bool"
        }
      ],
      "stateMutability": "nonpayable",
      "type": "function"
    },
    {
      "inputs": [
        {
          "internalType": "uint32",
          "name": "_maxRetrieve",
          "type": "uint32"
        },
        {
          "internalType": "bool",
          "name": "_before",
          "type": "bool"
        },
        {
          "internalType": "bool",
          "name": "_after",
          "type": "bool"
        }
      ],
      "name": "testClaimRewardsWithTransfer",
      "outputs": [],
      "stateMutability": "nonpayable",
      "type": "function"
    },
    {
      "inputs": [
        {
          "internalType": "string",
          "name": "_validatorAddr",
          "type": "string"
        },
        {
          "internalType": "uint256",
          "name": "_amount",
          "type": "uint256"
        }
      ],
      "name": "testDelegateFromContract",
      "outputs": [],
      "stateMutability": "payable",
      "type": "function"
    },
    {
      "inputs": [
        {
          "internalType": "address",
          "name": "depositor",
          "type": "address"
        },
        {
          "internalType": "string",
          "name": "validatorAddress",
          "type": "string"
        },
        {
          "components": [
            {
              "internalType": "string",
              "name": "denom",
              "type": "string"
            },
            {
              "internalType": "uint256",
              "name": "amount",
              "type": "uint256"
            }
          ],
          "internalType": "struct Coin[]",
          "name": "amount",
          "type": "tuple[]"
        }
      ],
      "name": "testDepositValidatorRewardsPool",
      "outputs": [
        {
          "internalType": "bool",
          "name": "success",
          "type": "bool"
        }
      ],
      "stateMutability": "nonpayable",
      "type": "function"
    },
    {
      "inputs": [
        {
          "internalType": "string",
          "name": "validatorAddress",
          "type": "string"
        },
        {
          "components": [
            {
              "internalType": "string",
              "name": "denom",
              "type": "string"
            },
            {
              "internalType": "uint256",
              "name": "amount",
              "type": "uint256"
            }
          ],
          "internalType": "struct Coin[]",
          "name": "amount",
          "type": "tuple[]"
        },
        {
          "internalType": "bool",
          "name": "_before",
          "type": "bool"
        },
        {
          "internalType": "bool",
          "name": "_after",
          "type": "bool"
        }
      ],
      "name": "testDepositValidatorRewardsPoolWithTransfer",
      "outputs": [],
      "stateMutability": "nonpayable",
      "type": "function"
    },
    {
      "inputs": [
        {
          "internalType": "address",
          "name": "depositor",
          "type": "address"
        },
        {
          "components": [
            {
              "internalType": "string",
              "name": "denom",
              "type": "string"
            },
            {
              "internalType": "uint256",
              "name": "amount",
              "type": "uint256"
            }
          ],
          "internalType": "struct Coin[]",
          "name": "amount",
          "type": "tuple[]"
        }
      ],
      "name": "testFundCommunityPool",
      "outputs": [
        {
          "internalType": "bool",
          "name": "success",
          "type": "bool"
        }
      ],
      "stateMutability": "nonpayable",
      "type": "function"
    },
    {
      "inputs": [
        {
          "internalType": "address payable",
          "name": "depositor",
          "type": "address"
        },
        {
          "components": [
            {
              "internalType": "string",
              "name": "denom",
              "type": "string"
            },
            {
              "internalType": "uint256",
              "name": "amount",
              "type": "uint256"
            }
          ],
          "internalType": "struct Coin[]",
          "name": "amount",
          "type": "tuple[]"
        },
        {
          "internalType": "bool",
          "name": "_before",
          "type": "bool"
        },
        {
          "internalType": "bool",
          "name": "_after",
          "type": "bool"
        }
      ],
      "name": "testFundCommunityPoolWithTransfer",
      "outputs": [],
      "stateMutability": "nonpayable",
      "type": "function"
    },
    {
      "inputs": [
        {
          "internalType": "string",
          "name": "_withdrawAddr",
          "type": "string"
        },
        {
          "internalType": "address",
          "name": "_delAddr",
          "type": "address"
        },
        {
          "internalType": "string",
          "name": "_valAddr",
          "type": "string"
        }
      ],
      "name": "testRevertState",
      "outputs": [
        {
          "components": [
            {
              "internalType": "string",
              "name": "denom",
              "type": "string"
            },
            {
              "internalType": "uint256",
              "name": "amount",
              "type": "uint256"
            }
          ],
          "internalType": "struct Coin[]",
          "name": "",
          "type": "tuple[]"
        }
      ],
      "stateMutability": "nonpayable",
      "type": "function"
    },
    {
      "inputs": [
        {
          "internalType": "address",
          "name": "_delAddr",
          "type": "address"
        },
        {
          "internalType": "string",
          "name": "_withdrawAddr",
          "type": "string"
        }
      ],
      "name": "testSetWithdrawAddress",
      "outputs": [
        {
          "internalType": "bool",
          "name": "",
          "type": "bool"
        }
      ],
      "stateMutability": "nonpayable",
      "type": "function"
    },
    {
      "inputs": [
        {
          "internalType": "string",
          "name": "_withdrawAddr",
          "type": "string"
        }
      ],
      "name": "testSetWithdrawAddressFromContract",
      "outputs": [
        {
          "internalType": "bool",
          "name": "",
          "type": "bool"
        }
      ],
      "stateMutability": "nonpayable",
      "type": "function"
    },
    {
      "inputs": [
        {
          "internalType": "address",
          "name": "delegatorAddress",
          "type": "address"
        },
        {
          "internalType": "uint32",
          "name": "maxRetrieve",
          "type": "uint32"
        }
      ],
      "name": "testTryClaimRewards",
      "outputs": [
        {
          "internalType": "bool",
          "name": "",
          "type": "bool"
        }
      ],
      "stateMutability": "nonpayable",
      "type": "function"
    },
    {
      "inputs": [
        {
          "internalType": "address",
          "name": "_delAddr",
          "type": "address"
        },
        {
          "internalType": "string",
          "name": "_valAddr",
          "type": "string"
        }
      ],
      "name": "testWithdrawDelegatorReward",
      "outputs": [
        {
          "components": [
            {
              "internalType": "string",
              "name": "denom",
              "type": "string"
            },
            {
              "internalType": "uint256",
              "name": "amount",
              "type": "uint256"
            }
          ],
          "internalType": "struct Coin[]",
          "name": "",
          "type": "tuple[]"
        }
      ],
      "stateMutability": "nonpayable",
      "type": "function"
    },
    {
      "inputs": [
        {
          "internalType": "string",
          "name": "_valAddr",
          "type": "string"
        }
      ],
      "name": "testWithdrawDelegatorRewardFromContract",
      "outputs": [
        {
          "components": [
            {
              "internalType": "string",
              "name": "denom",
              "type": "string"
            },
            {
              "internalType": "uint256",
              "name": "amount",
              "type": "uint256"
            }
          ],
          "internalType": "struct Coin[]",
          "name": "",
          "type": "tuple[]"
        }
      ],
      "stateMutability": "nonpayable",
      "type": "function"
    },
    {
      "inputs": [
        {
          "internalType": "string",
          "name": "_valAddr",
          "type": "string"
        },
        {
          "internalType": "bool",
          "name": "_before",
          "type": "bool"
        },
        {
          "internalType": "bool",
          "name": "_after",
          "type": "bool"
        }
      ],
      "name": "testWithdrawDelegatorRewardWithTransfer",
      "outputs": [
        {
          "components": [
            {
              "internalType": "string",
              "name": "denom",
              "type": "string"
            },
            {
              "internalType": "uint256",
              "name": "amount",
              "type": "uint256"
            }
          ],
          "internalType": "struct Coin[]",
          "name": "coins",
          "type": "tuple[]"
        }
      ],
      "stateMutability": "nonpayable",
      "type": "function"
    },
    {
      "inputs": [
        {
          "internalType": "string",
          "name": "_valAddr",
          "type": "string"
        }
      ],
      "name": "testWithdrawValidatorCommission",
      "outputs": [
        {
          "components": [
            {
              "internalType": "string",
              "name": "denom",
              "type": "string"
            },
            {
              "internalType": "uint256",
              "name": "amount",
              "type": "uint256"
            }
          ],
          "internalType": "struct Coin[]",
          "name": "",
          "type": "tuple[]"
        }
      ],
      "stateMutability": "nonpayable",
      "type": "function"
    },
    {
      "inputs": [
        {
          "internalType": "string",
          "name": "_valAddr",
          "type": "string"
        },
        {
          "internalType": "address payable",
          "name": "_withdrawer",
          "type": "address"
        },
        {
          "internalType": "bool",
          "name": "_before",
          "type": "bool"
        },
        {
          "internalType": "bool",
          "name": "_after",
          "type": "bool"
        }
      ],
      "name": "testWithdrawValidatorCommissionWithTransfer",
      "outputs": [
        {
          "components": [
            {
              "internalType": "string",
              "name": "denom",
              "type": "string"
            },
            {
              "internalType": "uint256",
              "name": "amount",
              "type": "uint256"
            }
          ],
          "internalType": "struct Coin[]",
          "name": "coins",
          "type": "tuple[]"
        }
      ],
      "stateMutability": "nonpayable",
      "type": "function"
    },
    {
      "inputs": [
        {
          "internalType": "address",
          "name": "_delAddr",
          "type": "address"
        },
        {
          "internalType": "string",
          "name": "_valAddr",
          "type": "string"
        }
      ],
      "name": "withdrawDelegatorRewardsAndRevert",
      "outputs": [
        {
          "components": [
            {
              "internalType": "string",
              "name": "denom",
              "type": "string"
            },
            {
              "internalType": "uint256",
              "name": "amount",
              "type": "uint256"
            }
          ],
          "internalType": "struct Coin[]",
          "name": "coins",
          "type": "tuple[]"
        }
      ],
      "stateMutability": "nonpayable",
      "type": "function"
    }
  ],
  "bytecode": "0x6080346200025b576020906001600160401b0381830181811183821017620002475760808301818110838211176200024757604052602381527f2f636f736d6f732e7374616b696e672e763162657461312e4d736744656c656760408401526261746560e81b606084015282525f92835492600193848655808510620001cb575b509084805280852085925b858410620000a3576040516123fb9081620002b38239f35b8051908151868111620001b75787918591620000c086546200025f565b948b601f96858882116200017c575b505050839582116001146200011657849582918d926200010a575b50505f19600383901b1c191690841b1785555b019201930192906200008b565b015190505f80620000ea565b868c52838c209095601f1983168d5b8181106200016457509086978488959493106200014b575b505050811b018555620000fd565b01515f1960f88460031b161c191690555f80806200013d565b8289015184558d978b97940193928301920162000125565b828a620001a4945220600589808701821c830193898810620001ad575b01901c01906200029a565b8b5f85620000cf565b9350829362000199565b634e487b7160e01b89526041600452602489fd5b858052848084882092830192015b828110620001e957505062000080565b87620001f682546200025f565b8062000208575b5050018590620001d9565b601f8082116001146200022257505081555b875f620001fd565b6200023d90848452888420920160051c82018583016200029a565b818355556200021a565b634e487b7160e01b5f52604160045260245ffd5b5f80fd5b90600182811c921680156200028f575b60208310146200027b57565b634e487b7160e01b5f52602260045260245ffd5b91607f16916200026f565b818110620002a6575050565b5f81556001016200029a56fe60806040818152600480361015610014575f80fd5b5f92833560e01c90816301b6800014611b40575080630c05e9e4146119c55780630da8476814611998578063151732ec14611869578381631b0502071461177b57508063201139a21461172b5780632947221b146115f5578063296c60aa14611557578063382d823c1461150b57806346e16d34146114dd578063613d4de81461135f57806361bc221a1461133d5780636b7a547c146112ae5780636f669da41461126e57806378a5dfd114611241578063796b96d2146111e45780637c9db0bb1461118f57806388b2d58114610e6f57806393574cd114610de6578063963516e414610d55578063ad5c4cdd14610cfd578063b2d1788314610b8b578063b6a216ae14610a24578063be4efc57146108c5578063cb85aa0a1461080c578063d0e30db0146107fd578063d3f831be14610756578063dd987c20146106b6578063ddbfa271146105b7578063e0421e3914610505578063e236c7a6146102f95763f9ed9b6714610182575f80fd5b8290346102f55760803660031901126102f55761019d611bbc565b6001600160401b03936024358581116102f15760206101c261020d9236908701611e40565b6101ca611ef2565b946101d3611f01565b956102ac575b8451630b4ac1e760e21b81526001600160a01b03909116968101879052602481018590529283918291906044830190611dbb565b0381886108015af19182156102a357508491610275575b501561027157610232575080f35b8180600f819361026c966001549061024c8260070b61211a565b16906001600160401b031916176001555af1610266612146565b50612175565b5f8180f35b8280fd5b610296915060203d811161029c575b61028e8183611c7c565b810190611fc7565b5f610224565b503d610284565b513d86823e3d90fd5b6001546102bb8160070b61211a565b67ffffffffffffffff19909116908a16176001556102ec88808080600f6001600160a01b0387165af1610266612146565b6101d9565b8480fd5b5080fd5b508234610502576020806003193601126102f557610315611bbc565b8451630a97c34560e31b81526001600160a01b039091169381019390935281836024816108015afa9182156104f757809381936103e5575b50929093918251948386948501908086528451809252606086018360608460051b890101960197915b838310610394578787038589015287806103908989611f2c565b0390f35b919360019193959750806103d18198605f198d82030187528b5190836103c1835189845289840190611c0d565b9201519084818403910152611cfe565b990193019301909288969492979593610376565b935091503d8083853e6103f88185611c7c565b830184848203126102715783516001600160401b03908181116102f15785019482601f870112156102f15785519561042f87611e29565b9661043c89519889611c7c565b808852858089019160051b830101918583116104f357868101915b83831061047f5750505050838101519182116102f157610478929101612279565b918561034d565b82518681116104ef5782018b601f19828a0301126104ef578b51906104a382611c61565b898101518881116104eb57898b6104bc92840101612038565b82528c810151908882116104eb57916104dc8a8c80969481960101612279565b83820152815201920191610457565b8b80fd5b8980fd5b8780fd5b8451903d90823e3d90fd5b80fd5b509034610271576020366003190112610271578282356001600160401b0381116102f55761053860209136908601611cb8565b9361055a84519586938493631e7271df60e11b85528401526024830190611c0d565b0381836108015af19182156105ad57836103909493610588575b505051918291602083526020830190611dbb565b6105a59293503d8091833e61059d8183611c7c565b810190612052565b905f80610574565b81513d85823e3d90fd5b509034610271576060366003190112610271576105d2611bbc565b916001600160401b03906024358281116106b2576105f39036908301611cb8565b93604435908382116106ae5761060e60209236908501611e40565b9261064d600154946106228660070b6121eb565b871667ffffffffffffffff19968716176001558751631758efa960e11b815298899485948501612235565b0381886108015af19384156106a45760209594610685575b50600154916106768360070b612210565b16911617600155519015158152f35b61069d919450853d811161029c5761028e8183611c7c565b925f610665565b83513d87823e3d90fd5b8680fd5b8580fd5b5090806003193601126102715781356001600160401b0381116107525761070e926106e660209236908301611cb8565b90835194859283926353266bbb60e01b84523090840152606060248401526064830190611c0d565b60243560448301520381866108005af1908115610749575061072e575080f35b6107459060203d811161029c5761028e8183611c7c565b5080f35b513d84823e3d90fd5b8380fd5b509034610271576020366003190112610271578282356001600160401b0381116102f55761078960209136908601611cb8565b936107ab845195869384936342d9696d60e11b85528401526024830190611c0d565b03816108015afa9182156105ad578361039094936107d8575b505051918291602083526020830190611f2c565b6107f59293503d8091833e6107ed8183611c7c565b810190612340565b905f806107c4565b83806003193601126105025780f35b509190346102f55760203660031901126102f557610828611bbc565b81516305431f4560e41b81526001600160a01b039091169381019390935281836024816108015afa9182156108ba578092610873575b81516020808252819061039090820186611c0d565b9091503d8082853e6108858185611c7c565b8301926020818503126102f5578051916001600160401b0383116105025750926108b3916103909401612038565b905f61085e565b9051903d90823e3d90fd5b50346102715760603660031901126102715780359163ffffffff831683036107525761091c60206108f4611f10565b946108fd611ef2565b956109e4575b835180938192632efe8a5f60e01b8352308884016121cb565b0381886108015af19081156109da5785916109bc575b501561097f5750506109415780f35b6001546109508160070b61211a565b6001600160401b0316906001600160401b0319161760015561097c81808080600f335af1610266612146565b80f35b906020606492519162461bcd60e51b835282015260176024820152766661696c656420746f20636c61696d207265776172647360481b6044820152fd5b6109d4915060203d811161029c5761028e8183611c7c565b5f610932565b82513d87823e3d90fd5b6001546109f38160070b61211a565b6001600160401b0316906001600160401b03191617600155610a1f87808080600f335af1610266612146565b610903565b508290346102f5576020918260031936011261050257610a42611bbc565b845163a66cb60560e01b81526001600160a01b039091169281019290925280826024816108015afa918215610b7f578192610ad2575b5083519280840190808552835180925280868601968360051b870101940192955b828710610aa65785850386f35b909192938280610ac2600193603f198a82030186528851611c0d565b9601920196019592919092610a99565b9091503d8083833e610ae48183611c7c565b810183828203126102715781516001600160401b03928382116102f157019080601f8301121561075257815190610b1a82611e29565b93610b2788519586611c7c565b828552868086019360051b850101938285116106ae57878101935b858510610b56575050505050509084610a78565b8451838111610b7b578991610b7086848094870101612038565b815201940193610b42565b8880fd5b508351903d90823e3d90fd5b509034610271576060366003190112610271576001600160401b0382358181116102f157610bbc9036908501611cb8565b92610bc5611bd6565b916044359081116106b257610bdd9036908301611cb8565b91835191632d4ecd4b60e11b835282610bfb60209733848401611fdf565b0392868161080195818b885af1908115610cf3578891610cd6575b5015610c935791610c3f939187809487519687958694859363b46a8d6160e01b85528401611fdf565b03925af1938415610c88578094610c66575b50506103909051928284938452830190611dbb565b61039092945090610c80913d8091833e61059d8183611c7c565b92905f610c51565b8251903d90823e3d90fd5b845162461bcd60e51b8152908101869052601e60248201527f6661696c656420746f20736574207769746864726177206164647265737300006044820152606490fd5b610ced9150873d891161029c5761028e8183611c7c565b5f610c16565b86513d8a823e3d90fd5b5090346102715782610d0e36611d79565b93610d2a8451958693849363b46a8d6160e01b85528401611fdf565b0381836108015af19081156107495750610d42575080fd5b6102f5903d8084833e61059d8183611c7c565b5090346102715760203660031901126102715781356001600160401b03811161075257610da692610d8b60209236908301611cb8565b8351632d4ecd4b60e11b815294859283929030908401611fdf565b0381866108015af19182156105ad5760209392610dc7575b50519015158152f35b610ddf919250833d811161029c5761028e8183611c7c565b905f610dbe565b50346102715781600319360112610271579160209283610e04611bbc565b610e0c611fa0565b92610e2886519485938493632efe8a5f60e01b855284016121cb565b0381856108015af1829181610e50575b50610e485750905b519015158152f35b905090610e40565b610e68919250853d811161029c5761028e8183611c7c565b905f610e38565b508290346102f557600319608036820112610271576001600160401b0382358181116102f157610ea29036908501611cb8565b926024358281168091036106b257604435918383168093036106ae576064358481116104f35780360360a087820112610b7b57895196610ee188611c61565b6060958689528a6020809a0152610f0e8c519a63479239e760e11b8c526080878d015260848c0190611c0d565b9560248b015260448a0152888503016064890152818301359060221901811215610b7b5781019182013591602401858311610b7b578236038113610b7b57878484610fb3608484968f8f9960c098601f9f9e9d9c60a090528160a089015289880137898886880101528b610f8460248401611fb3565b168d8701528b610f9660448401611fb3565b1690860152610fa760648201611f1f565b15158a86015201611f1f565b15156080830152891999018916010301816108015afa9485156111855786948796611051575b5050865187815284518189018190529096878301958501925b828210611023575050505081611018869787860383890152865190808752860190611c0d565b940151169101520390f35b835180518616885286015180518789015286015160ff168a8801529586019592850192600190910190610ff2565b91955093503d8087863e6110658186611c7c565b84019387818603126106ae5780518381116104f357810185601f820112156104f357805161109281611e29565b9361109f8b519586611c7c565b8185528689818701930284010192888411611181578701915b838310611124575050505083810151908382116104f3570187818603126106ae578751946110e586611c61565b8151848111610b7b57820181601f82011215610b7b579161110f8692848461111796519101612001565b875201612365565b8385015292938780610fd9565b8289038a81126104eb578c8381519261113c84611c61565b61114587612365565b845201126104eb578a9189918e61116e81519161116183611c61565b858901518352880161226b565b84820152838201528152019201916110b8565b8a80fd5b87513d88823e3d90fd5b509034610271576020366003190112610271578282356001600160401b0381116102f5576111c260209136908601611cb8565b936107ab845195869384936307ba81ef60e31b85528401526024830190611c0d565b50508134610502578061097c9261121e61122c61120036611d79565b9093519283916020830195632d4ecd4b60e11b875260248401611fdf565b03601f198101835282611c7c565b51906108015afa61123b612146565b50612379565b509034610271578261125236611d79565b936107ab845195869384936326b558ed60e21b85528401611fdf565b509034610271578060031936011261027157602061128a611bbc565b611292611fa0565b93610da684519586938493632efe8a5f60e01b855284016121cb565b5090346102715780600319360112610271576112c8611bbc565b6001600160401b03906024358281116106b2576112ea60209136908701611e40565b94600154926112fb8460070b6121eb565b85166001600160401b03198095161760015561064d86519788938493630b4ac1e760e21b855260018060a01b0316908401528760248401526044830190611dbb565b5050346102f557816003193601126102f55760209060015460070b9051908152f35b509034610271576080366003190112610271576001600160401b039282358481116102f5576113919036908501611cb8565b9361139a611bd6565b908260206113a6611ef2565b966113af611f01565b97611486575b6113d68751998a938493631e7271df60e11b85528401526024830190611c0d565b0381836108015af194851561147c57610390968496611460575b5061140b575b50505051918291602083526020830190611dbb565b6001549061141b8260070b61211a565b67ffffffffffffffff199092169116176001556001600160a01b031690308203611446575b806113f6565b808080600f611459955af1610266612146565b5f80611440565b6114759196503d8086833e61059d8183611c7c565b945f6113f0565b84513d85823e3d90fd5b6001546114958160070b61211a565b67ffffffffffffffff19909116908516176001556001600160a01b038516833082036114c3575b50506113b5565b808080600f6114d6955af1610266612146565b5f836114bc565b5090346102715760206114ef36611d79565b93610da684519586938493632d4ecd4b60e11b85528401611fdf565b509034610271578260031936011261027157828151809363014d140b60e41b8252816108015afa9182156105ad578361039094936107d857505051918291602083526020830190611f2c565b50903461027157828061158f61121e61156f36611d79565b86939193519283916020830195632d4ecd4b60e11b875260248401611fdf565b51906108015af461159e612146565b50156115a8578280f35b906020608492519162461bcd60e51b8352820152602160248201527f6661696c65642064656c656761746543616c6c20746f20707265636f6d70696c6044820152606560f81b6064820152fd5b509034610271576060366003190112610271576001600160401b0382358181116102f157938061162b61165c9636908701611cb8565b611633611f10565b9561163c611ef2565b966116f2575b855163b46a8d6160e01b8152978892839230908401611fdf565b0381836108015af19384156116e6576103909582956116ca575b5061168f57505051918291602083526020830190611dbb565b6116c391600154906116a38260070b61211a565b16906001600160401b03191617600155808080600f335af1610266612146565b5f80610574565b6116df9195503d8084833e61059d8183611c7c565b935f611676565b508251903d90823e3d90fd5b6001546117018160070b61211a565b8616906001600160401b0319161760015561172683808080600f335af1610266612146565b611642565b50903461027157602036600319011261027157828235926001600160401b0384116102f55761176061055a9436908301611cb8565b835163b46a8d6160e01b815294859283929030908401611fdf565b828185346102f55760803660031901126102f557611797611bbc565b61179f611bd6565b936001600160401b03926044358481116106b2576117c1869136908501611cb8565b916117ca611f01565b936117fc8251948593849363ad5c4cdd60e01b855260018060a01b03809a169085015260248401526044830190611c0d565b038183305af161184f575b50611810578280f35b82600f8193926118479683946001549061182c8260070b61211a565b16906001600160401b03191617600155165af1610266612146565b818181808280f35b611862903d8087833e61059d8183611c7c565b5086611807565b5034610271576080366003190112610271576001600160401b039181358381116102f15761189a9036908401611cb8565b6024358481116106b2576118b360209136908601611e40565b916118bc611ef2565b946118c5611f01565b9561195f575b6118e885519485938493631758efa960e11b855230908501612235565b0381886108015af19182156102a357508491611941575b50156102715761190d575080f35b6001549061191d8260070b61211a565b16906001600160401b0319161760015561097c81808080600f335af1610266612146565b611959915060203d811161029c5761028e8183611c7c565b5f6118ff565b60015461196e8160070b61211a565b8816906001600160401b0319161760015561199388808080600f335af1610266612146565b6118cb565b50903461027157826119a936611d79565b9361055a8451958693849363b46a8d6160e01b85528401611fdf565b50346102715760209081600319360112610752578035936001600160401b03918286116102f55781846119fc879836908501611cb8565b928751611a0881611c32565b606099818b80935282858201520152611a38885194859384936354212a8960e01b85528401526024830190611c0d565b03816108015afa928315611b36578293611a9b575b505050610390918351948594828652611a8a611a73855184868a01526080890190611c0d565b9385015193601f19948589830301848a0152611cfe565b930151918584030190850152611cfe565b909192503d8084843e611aae8184611c7c565b8201918481840312610752578051908282116102f15701868184031261075257855193611ada85611c32565b81518381116102f55784611aef918401612038565b8552858201518381116102f55784611b08918401612279565b8686015286820151928311610502575091611b299161039095949301612279565b8482015290915f80611a4d565b85513d84823e3d90fd5b9150503461027157602036600319011261027157918061039093611b62611bbc565b6305431f4560e41b602083019081526001600160a01b03909116602480840191909152825290611b9181611c32565b51906108015afa90611baa611ba4612146565b92612379565b51918291602083526020830190611c0d565b600435906001600160a01b0382168203611bd257565b5f80fd5b602435906001600160a01b0382168203611bd257565b5f5b838110611bfd5750505f910152565b8181015183820152602001611bee565b90602091611c2681518092818552858086019101611bec565b601f01601f1916010190565b606081019081106001600160401b03821117611c4d57604052565b634e487b7160e01b5f52604160045260245ffd5b604081019081106001600160401b03821117611c4d57604052565b90601f801991011681019081106001600160401b03821117611c4d57604052565b6001600160401b038111611c4d57601f01601f191660200190565b81601f82011215611bd257803590611ccf82611c9d565b92611cdd6040519485611c7c565b82845260208383010111611bd257815f926020809301838601378301015290565b908082519081815260208091019281808460051b8301019501935f915b848310611d2b5750505050505090565b9091929394958480600192601f19858203018652895190611d5482516060808452830190611c0d565b91838101518483015260ff604080920151169101529801930193019194939290611d1b565b906040600319830112611bd2576004356001600160a01b0381168103611bd25791602435906001600160401b038211611bd257611db891600401611cb8565b90565b908082519081815260208091019281808460051b8301019501935f915b848310611de85750505050505090565b9091929394958480600192601f198582030186528951908280611e1384516040808652850190611c0d565b9301519101529801930193019194939290611dd8565b6001600160401b038111611c4d5760051b60200190565b81601f82011215611bd2578035611e5681611e29565b92604091611e6683519586611c7c565b808552602093848087019260051b82010193838511611bd257858201925b858410611e95575050505050505090565b6001600160401b03908435828111611bd25784019083601f198389030112611bd2578351611ec281611c61565b89830135938411611bd2578483611edf8a8d809881980101611cb8565b8352013583820152815201930192611e84565b604435908115158203611bd257565b606435908115158203611bd257565b602435908115158203611bd257565b35908115158203611bd257565b90815180825260208092019182818360051b82019501935f915b848310611f565750505050505090565b90919293949584808284600194038652895190611f7b82516060808452830190611c0d565b91838101518483015260ff604080920151169101529801930193019194939290611f46565b6024359063ffffffff82168203611bd257565b35906001600160401b0382168203611bd257565b90816020910312611bd257518015158103611bd25790565b6001600160a01b039091168152604060208201819052611db892910190611c0d565b9092919261200e81611c9d565b9161201c6040519384611c7c565b829482845282820111611bd2576020612036930190611bec565b565b9080601f83011215611bd2578151611db892602001612001565b906020908183820312611bd25782516001600160401b0393848211611bd257019080601f83011215611bd257815161208981611e29565b94604061209881519788611c7c565b828752858088019360051b86010194848611611bd257868101935b8685106120c557505050505050505090565b8451848111611bd257820183601f198289030112611bd2578351916120e983611c61565b8982015192868411611bd25785836121078b8e809881980101612038565b83520151838201528152019401936120b3565b60070b677fffffffffffffff81146121325760010190565b634e487b7160e01b5f52601160045260245ffd5b3d15612170573d9061215782611c9d565b916121656040519384611c7c565b82523d5f602084013e565b606090565b1561217c57565b60405162461bcd60e51b815260206004820152602160248201527f4661696c656420746f2073656e6420457468657220746f2064656c656761746f6044820152603960f91b6064820152608490fd5b6001600160a01b03909116815263ffffffff909116602082015260400190565b60070b60010190677fffffffffffffff8213677fffffffffffffff1983121761213257565b60070b5f190190677fffffffffffffff198212677fffffffffffffff83131761213257565b6001600160a01b039091168152606060208201819052611db893919261225d91840190611c0d565b916040818403910152611dbb565b519060ff82168203611bd257565b9080601f83011215611bd257815161229081611e29565b926040916122a083519586611c7c565b808552602093848087019260051b84010193818511611bd257858401925b8584106122cf575050505050505090565b8351906001600160401b0391828111611bd25786019060609283601f198488030112611bd25784519061230182611c32565b8a840151908111611bd2578a948461232189886123319581990101612038565b845287810151868501520161226b565b858201528152019301926122be565b90602082820312611bd25781516001600160401b038111611bd257611db89201612279565b51906001600160401b0382168203611bd257565b1561238057565b60405162461bcd60e51b815260206004820152601f60248201527f6661696c65642073746174696343616c6c20746f20707265636f6d70696c65006044820152606490fdfea26469706673582212203211179b8f0ffdc3bf5ef2aef35f2493169c1d901f674ce819f4c85b12fb0d7964736f6c63430008140033",
  "linkReferences": {},
  "deployedLinkReferences": {},
  "immutableReferences": {},
  "inputSourceName": "project/solidity/precompiles/testutil/contracts/DistributionCaller.sol",
  "buildInfoId": "solc-0_8_20-fda2ffeb444d7d9486f659e7e357f970dc6ac662"
}