{
  "_format": "hh-sol-artifact-1",
  "contractName": "DistributionCaller",
  "sourceName": "solidity/precompiles/testutil/contracts/DistributionCaller.sol",
  "abi": [
    {
      "inputs": [],
      "name": "counter",
      "outputs": [
        {
          "internalType": "int64",
          "name": "",
          "type": "int64"
        }
      ],
      "stateMutability": "view",
      "type": "function"
    },
    {
      "inputs": [
        {
          "internalType": "address",
          "name": "_delAddr",
          "type": "address"
        },
        {
          "internalType": "string",
          "name": "_withdrawAddr",
          "type": "string"
        }
      ],
      "name": "delegateCallSetWithdrawAddress",
      "outputs": [],
      "stateMutability": "nonpayable",
      "type": "function"
    },
    {
      "inputs": [],
      "name": "deposit",
      "outputs": [],
      "stateMutability": "payable",
      "type": "function"
    },
    {
      "inputs": [],
      "name": "getCommunityPool",
      "outputs": [
        {
          "components": [
            {
              "internalType": "string",
              "name": "denom",
              "type": "string"
            },
            {
              "internalType": "uint256",
              "name": "amount",
              "type": "uint256"
            },
            {
              "internalType": "uint8",
              "name": "precision",
              "type": "uint8"
            }
          ],
          "internalType": "struct DecCoin[]",
          "name": "",
          "type": "tuple[]"
        }
      ],
      "stateMutability": "view",
      "type": "function"
    },
    {
      "inputs": [
        {
          "internalType": "address",
          "name": "_delAddr",
          "type": "address"
        },
        {
          "internalType": "string",
          "name": "_valAddr",
          "type": "string"
        }
      ],
      "name": "getDelegationRewards",
      "outputs": [
        {
          "components": [
            {
              "internalType": "string",
              "name": "denom",
              "type": "string"
            },
            {
              "internalType": "uint256",
              "name": "amount",
              "type": "uint256"
            },
            {
              "internalType": "uint8",
              "name": "precision",
              "type": "uint8"
            }
          ],
          "internalType": "struct DecCoin[]",
          "name": "",
          "type": "tuple[]"
        }
      ],
      "stateMutability": "view",
      "type": "function"
    },
    {
      "inputs": [
        {
          "internalType": "address",
          "name": "_delAddr",
          "type": "address"
        }
      ],
      "name": "getDelegationTotalRewards",
      "outputs": [
        {
          "components": [
            {
              "internalType": "string",
              "name": "validatorAddress",
              "type": "string"
            },
            {
              "components": [
                {
                  "internalType": "string",
                  "name": "denom",
                  "type": "string"
                },
                {
                  "internalType": "uint256",
                  "name": "amount",
                  "type": "uint256"
                },
                {
                  "internalType": "uint8",
                  "name": "precision",
                  "type": "uint8"
                }
              ],
              "internalType": "struct DecCoin[]",
              "name": "reward",
              "type": "tuple[]"
            }
          ],
          "internalType": "struct DelegationDelegatorReward[]",
          "name": "rewards",
          "type": "tuple[]"
        },
        {
          "components": [
            {
              "internalType": "string",
              "name": "denom",
              "type": "string"
            },
            {
              "internalType": "uint256",
              "name": "amount",
              "type": "uint256"
            },
            {
              "internalType": "uint8",
              "name": "precision",
              "type": "uint8"
            }
          ],
          "internalType": "struct DecCoin[]",
          "name": "total",
          "type": "tuple[]"
        }
      ],
      "stateMutability": "view",
      "type": "function"
    },
    {
      "inputs": [
        {
          "internalType": "address",
          "name": "_delAddr",
          "type": "address"
        }
      ],
      "name": "getDelegatorValidators",
      "outputs": [
        {
          "internalType": "string[]",
          "name": "",
          "type": "string[]"
        }
      ],
      "stateMutability": "view",
      "type": "function"
    },
    {
      "inputs": [
        {
          "internalType": "address",
          "name": "_delAddr",
          "type": "address"
        }
      ],
      "name": "getDelegatorWithdrawAddress",
      "outputs": [
        {
          "internalType": "string",
          "name": "",
          "type": "string"
        }
      ],
      "stateMutability": "view",
      "type": "function"
    },
    {
      "inputs": [
        {
          "internalType": "string",
          "name": "_valAddr",
          "type": "string"
        }
      ],
      "name": "getValidatorCommission",
      "outputs": [
        {
          "components": [
            {
              "internalType": "string",
              "name": "denom",
              "type": "string"
            },
            {
              "internalType": "uint256",
              "name": "amount",
              "type": "uint256"
            },
            {
              "internalType": "uint8",
              "name": "precision",
              "type": "uint8"
            }
          ],
          "internalType": "struct DecCoin[]",
          "name": "",
          "type": "tuple[]"
        }
      ],
      "stateMutability": "view",
      "type": "function"
    },
    {
      "inputs": [
        {
          "internalType": "string",
          "name": "_valAddr",
          "type": "string"
        }
      ],
      "name": "getValidatorDistributionInfo",
      "outputs": [
        {
          "components": [
            {
              "internalType": "string",
              "name": "operatorAddress",
              "type": "string"
            },
            {
              "components": [
                {
                  "internalType": "string",
                  "name": "denom",
                  "type": "string"
                },
                {
                  "internalType": "uint256",
                  "name": "amount",
                  "type": "uint256"
                },
                {
                  "internalType": "uint8",
                  "name": "precision",
                  "type": "uint8"
                }
              ],
              "internalType": "struct DecCoin[]",
              "name": "selfBondRewards",
              "type": "tuple[]"
            },
            {
              "components": [
                {
                  "internalType": "string",
                  "name": "denom",
                  "type": "string"
                },
                {
                  "internalType": "uint256",
                  "name": "amount",
                  "type": "uint256"
                },
                {
                  "internalType": "uint8",
                  "name": "precision",
                  "type": "uint8"
                }
              ],
              "internalType": "struct DecCoin[]",
              "name": "commission",
              "type": "tuple[]"
            }
          ],
          "internalType": "struct ValidatorDistributionInfo",
          "name": "",
          "type": "tuple"
        }
      ],
      "stateMutability": "view",
      "type": "function"
    },
    {
      "inputs": [
        {
          "internalType": "string",
          "name": "_valAddr",
          "type": "string"
        }
      ],
      "name": "getValidatorOutstandingRewards",
      "outputs": [
        {
          "components": [
            {
              "internalType": "string",
              "name": "denom",
              "type": "string"
            },
            {
              "internalType": "uint256",
              "name": "amount",
              "type": "uint256"
            },
            {
              "internalType": "uint8",
              "name": "precision",
              "type": "uint8"
            }
          ],
          "internalType": "struct DecCoin[]",
          "name": "",
          "type": "tuple[]"
        }
      ],
      "stateMutability": "view",
      "type": "function"
    },
    {
      "inputs": [
        {
          "internalType": "string",
          "name": "_valAddr",
          "type": "string"
        },
        {
          "internalType": "uint64",
          "name": "_startingHeight",
          "type": "uint64"
        },
        {
          "internalType": "uint64",
          "name": "_endingHeight",
          "type": "uint64"
        },
        {
          "components": [
            {
              "internalType": "bytes",
              "name": "key",
              "type": "bytes"
            },
            {
              "internalType": "uint64",
              "name": "offset",
              "type": "uint64"
            },
            {
              "internalType": "uint64",
              "name": "limit",
              "type": "uint64"
            },
            {
              "internalType": "bool",
              "name": "countTotal",
              "type": "bool"
            },
            {
              "internalType": "bool",
              "name": "reverse",
              "type": "bool"
            }
          ],
          "internalType": "struct PageRequest",
          "name": "pageRequest",
          "type": "tuple"
        }
      ],
      "name": "getValidatorSlashes",
      "outputs": [
        {
          "components": [
            {
              "internalType": "uint64",
              "name": "validatorPeriod",
              "type": "uint64"
            },
            {
              "components": [
                {
                  "internalType": "uint256",
                  "name": "value",
                  "type": "uint256"
                },
                {
                  "internalType": "uint8",
                  "name": "precision",
                  "type": "uint8"
                }
              ],
              "internalType": "struct Dec",
              "name": "fraction",
              "type": "tuple"
            }
          ],
          "internalType": "struct ValidatorSlashEvent[]",
          "name": "",
          "type": "tuple[]"
        },
        {
          "components": [
            {
              "internalType": "bytes",
              "name": "nextKey",
              "type": "bytes"
            },
            {
              "internalType": "uint64",
              "name": "total",
              "type": "uint64"
            }
          ],
          "internalType": "struct PageResponse",
          "name": "",
          "type": "tuple"
        }
      ],
      "stateMutability": "view",
      "type": "function"
    },
    {
      "inputs": [
        {
          "internalType": "address payable",
          "name": "_delAddr",
          "type": "address"
        },
        {
          "internalType": "address payable",
          "name": "_withdrawer",
          "type": "address"
        },
        {
          "internalType": "string",
          "name": "_valAddr",
          "type": "string"
        },
        {
          "internalType": "bool",
          "name": "_after",
          "type": "bool"
        }
      ],
      "name": "revertWithdrawRewardsAndTransfer",
      "outputs": [],
      "stateMutability": "nonpayable",
      "type": "function"
    },
    {
      "inputs": [
        {
          "internalType": "address",
          "name": "_delAddr",
          "type": "address"
        }
      ],
      "name": "staticCallGetWithdrawAddress",
      "outputs": [
        {
          "internalType": "bytes",
          "name": "",
          "type": "bytes"
        }
      ],
      "stateMutability": "view",
      "type": "function"
    },
    {
      "inputs": [
        {
          "internalType": "address",
          "name": "_delAddr",
          "type": "address"
        },
        {
          "internalType": "string",
          "name": "_withdrawAddr",
          "type": "string"
        }
      ],
      "name": "staticCallSetWithdrawAddress",
      "outputs": [],
      "stateMutability": "view",
      "type": "function"
    },
    {
      "inputs": [
        {
          "internalType": "address",
          "name": "_delAddr",
          "type": "address"
        },
        {
          "internalType": "uint32",
          "name": "_maxRetrieve",
          "type": "uint32"
        }
      ],
      "name": "testClaimRewards",
      "outputs": [
        {
          "internalType": "bool",
          "name": "success",
          "type": "bool"
        }
      ],
      "stateMutability": "nonpayable",
      "type": "function"
    },
    {
      "inputs": [
        {
          "internalType": "uint32",
          "name": "_maxRetrieve",
          "type": "uint32"
        },
        {
          "internalType": "bool",
          "name": "_before",
          "type": "bool"
        },
        {
          "internalType": "bool",
          "name": "_after",
          "type": "bool"
        }
      ],
      "name": "testClaimRewardsWithTransfer",
      "outputs": [],
      "stateMutability": "nonpayable",
      "type": "function"
    },
    {
      "inputs": [
        {
          "internalType": "address",
          "name": "_validatorAddr",
          "type": "address"
        },
        {
          "internalType": "uint256",
          "name": "_amount",
          "type": "uint256"
        }
      ],
      "name": "testDelegateFromContract",
      "outputs": [],
      "stateMutability": "payable",
      "type": "function"
    },
    {
      "inputs": [
        {
          "internalType": "address",
          "name": "depositor",
          "type": "address"
        },
        {
          "internalType": "string",
          "name": "validatorAddress",
          "type": "string"
        },
        {
          "components": [
            {
              "internalType": "string",
              "name": "denom",
              "type": "string"
            },
            {
              "internalType": "uint256",
              "name": "amount",
              "type": "uint256"
            }
          ],
          "internalType": "struct Coin[]",
          "name": "amount",
          "type": "tuple[]"
        }
      ],
      "name": "testDepositValidatorRewardsPool",
      "outputs": [
        {
          "internalType": "bool",
          "name": "success",
          "type": "bool"
        }
      ],
      "stateMutability": "nonpayable",
      "type": "function"
    },
    {
      "inputs": [
        {
          "internalType": "string",
          "name": "validatorAddress",
          "type": "string"
        },
        {
          "components": [
            {
              "internalType": "string",
              "name": "denom",
              "type": "string"
            },
            {
              "internalType": "uint256",
              "name": "amount",
              "type": "uint256"
            }
          ],
          "internalType": "struct Coin[]",
          "name": "amount",
          "type": "tuple[]"
        },
        {
          "internalType": "bool",
          "name": "_before",
          "type": "bool"
        },
        {
          "internalType": "bool",
          "name": "_after",
          "type": "bool"
        }
      ],
      "name": "testDepositValidatorRewardsPoolWithTransfer",
      "outputs": [],
      "stateMutability": "nonpayable",
      "type": "function"
    },
    {
      "inputs": [
        {
          "internalType": "address",
          "name": "depositor",
          "type": "address"
        },
        {
          "components": [
            {
              "internalType": "string",
              "name": "denom",
              "type": "string"
            },
            {
              "internalType": "uint256",
              "name": "amount",
              "type": "uint256"
            }
          ],
          "internalType": "struct Coin[]",
          "name": "amount",
          "type": "tuple[]"
        }
      ],
      "name": "testFundCommunityPool",
      "outputs": [
        {
          "internalType": "bool",
          "name": "success",
          "type": "bool"
        }
      ],
      "stateMutability": "nonpayable",
      "type": "function"
    },
    {
      "inputs": [
        {
          "internalType": "address payable",
          "name": "depositor",
          "type": "address"
        },
        {
          "components": [
            {
              "internalType": "string",
              "name": "denom",
              "type": "string"
            },
            {
              "internalType": "uint256",
              "name": "amount",
              "type": "uint256"
            }
          ],
          "internalType": "struct Coin[]",
          "name": "amount",
          "type": "tuple[]"
        },
        {
          "internalType": "bool",
          "name": "_before",
          "type": "bool"
        },
        {
          "internalType": "bool",
          "name": "_after",
          "type": "bool"
        }
      ],
      "name": "testFundCommunityPoolWithTransfer",
      "outputs": [],
      "stateMutability": "nonpayable",
      "type": "function"
    },
    {
      "inputs": [
        {
          "internalType": "string",
          "name": "_withdrawAddr",
          "type": "string"
        },
        {
          "internalType": "address",
          "name": "_delAddr",
          "type": "address"
        },
        {
          "internalType": "string",
          "name": "_valAddr",
          "type": "string"
        }
      ],
      "name": "testRevertState",
      "outputs": [
        {
          "components": [
            {
              "internalType": "string",
              "name": "denom",
              "type": "string"
            },
            {
              "internalType": "uint256",
              "name": "amount",
              "type": "uint256"
            }
          ],
          "internalType": "struct Coin[]",
          "name": "",
          "type": "tuple[]"
        }
      ],
      "stateMutability": "nonpayable",
      "type": "function"
    },
    {
      "inputs": [
        {
          "internalType": "address",
          "name": "_delAddr",
          "type": "address"
        },
        {
          "internalType": "string",
          "name": "_withdrawAddr",
          "type": "string"
        }
      ],
      "name": "testSetWithdrawAddress",
      "outputs": [
        {
          "internalType": "bool",
          "name": "",
          "type": "bool"
        }
      ],
      "stateMutability": "nonpayable",
      "type": "function"
    },
    {
      "inputs": [
        {
          "internalType": "string",
          "name": "_withdrawAddr",
          "type": "string"
        }
      ],
      "name": "testSetWithdrawAddressFromContract",
      "outputs": [
        {
          "internalType": "bool",
          "name": "",
          "type": "bool"
        }
      ],
      "stateMutability": "nonpayable",
      "type": "function"
    },
    {
      "inputs": [
        {
          "internalType": "address",
          "name": "delegatorAddress",
          "type": "address"
        },
        {
          "internalType": "uint32",
          "name": "maxRetrieve",
          "type": "uint32"
        }
      ],
      "name": "testTryClaimRewards",
      "outputs": [
        {
          "internalType": "bool",
          "name": "",
          "type": "bool"
        }
      ],
      "stateMutability": "nonpayable",
      "type": "function"
    },
    {
      "inputs": [
        {
          "internalType": "address",
          "name": "_delAddr",
          "type": "address"
        },
        {
          "internalType": "string",
          "name": "_valAddr",
          "type": "string"
        }
      ],
      "name": "testWithdrawDelegatorReward",
      "outputs": [
        {
          "components": [
            {
              "internalType": "string",
              "name": "denom",
              "type": "string"
            },
            {
              "internalType": "uint256",
              "name": "amount",
              "type": "uint256"
            }
          ],
          "internalType": "struct Coin[]",
          "name": "",
          "type": "tuple[]"
        }
      ],
      "stateMutability": "nonpayable",
      "type": "function"
    },
    {
      "inputs": [
        {
          "internalType": "string",
          "name": "_valAddr",
          "type": "string"
        }
      ],
      "name": "testWithdrawDelegatorRewardFromContract",
      "outputs": [
        {
          "components": [
            {
              "internalType": "string",
              "name": "denom",
              "type": "string"
            },
            {
              "internalType": "uint256",
              "name": "amount",
              "type": "uint256"
            }
          ],
          "internalType": "struct Coin[]",
          "name": "",
          "type": "tuple[]"
        }
      ],
      "stateMutability": "nonpayable",
      "type": "function"
    },
    {
      "inputs": [
        {
          "internalType": "string",
          "name": "_valAddr",
          "type": "string"
        },
        {
          "internalType": "bool",
          "name": "_before",
          "type": "bool"
        },
        {
          "internalType": "bool",
          "name": "_after",
          "type": "bool"
        }
      ],
      "name": "testWithdrawDelegatorRewardWithTransfer",
      "outputs": [
        {
          "components": [
            {
              "internalType": "string",
              "name": "denom",
              "type": "string"
            },
            {
              "internalType": "uint256",
              "name": "amount",
              "type": "uint256"
            }
          ],
          "internalType": "struct Coin[]",
          "name": "coins",
          "type": "tuple[]"
        }
      ],
      "stateMutability": "nonpayable",
      "type": "function"
    },
    {
      "inputs": [
        {
          "internalType": "string",
          "name": "_valAddr",
          "type": "string"
        }
      ],
      "name": "testWithdrawValidatorCommission",
      "outputs": [
        {
          "components": [
            {
              "internalType": "string",
              "name": "denom",
              "type": "string"
            },
            {
              "internalType": "uint256",
              "name": "amount",
              "type": "uint256"
            }
          ],
          "internalType": "struct Coin[]",
          "name": "",
          "type": "tuple[]"
        }
      ],
      "stateMutability": "nonpayable",
      "type": "function"
    },
    {
      "inputs": [
        {
          "internalType": "string",
          "name": "_valAddr",
          "type": "string"
        },
        {
          "internalType": "address payable",
          "name": "_withdrawer",
          "type": "address"
        },
        {
          "internalType": "bool",
          "name": "_before",
          "type": "bool"
        },
        {
          "internalType": "bool",
          "name": "_after",
          "type": "bool"
        }
      ],
      "name": "testWithdrawValidatorCommissionWithTransfer",
      "outputs": [
        {
          "components": [
            {
              "internalType": "string",
              "name": "denom",
              "type": "string"
            },
            {
              "internalType": "uint256",
              "name": "amount",
              "type": "uint256"
            }
          ],
          "internalType": "struct Coin[]",
          "name": "coins",
          "type": "tuple[]"
        }
      ],
      "stateMutability": "nonpayable",
      "type": "function"
    },
    {
      "inputs": [
        {
          "internalType": "address",
          "name": "_delAddr",
          "type": "address"
        },
        {
          "internalType": "string",
          "name": "_valAddr",
          "type": "string"
        }
      ],
      "name": "withdrawDelegatorRewardsAndRevert",
      "outputs": [
        {
          "components": [
            {
              "internalType": "string",
              "name": "denom",
              "type": "string"
            },
            {
              "internalType": "uint256",
              "name": "amount",
              "type": "uint256"
            }
          ],
          "internalType": "struct Coin[]",
          "name": "coins",
          "type": "tuple[]"
        }
      ],
      "stateMutability": "nonpayable",
      "type": "function"
    }
  ],
  "bytecode": "0x6080346200025b576020906001600160401b0381830181811183821017620002475760808301818110838211176200024757604052602381527f2f636f736d6f732e7374616b696e672e763162657461312e4d736744656c656760408401526261746560e81b606084015282525f92835492600193848655808510620001cb575b509084805280852085925b858410620000a3576040516123e09081620002b38239f35b8051908151868111620001b75787918591620000c086546200025f565b948b601f96858882116200017c575b505050839582116001146200011657849582918d926200010a575b50505f19600383901b1c191690841b1785555b019201930192906200008b565b015190505f80620000ea565b868c52838c209095601f1983168d5b8181106200016457509086978488959493106200014b575b505050811b018555620000fd565b01515f1960f88460031b161c191690555f80806200013d565b8289015184558d978b97940193928301920162000125565b828a620001a4945220600589808701821c830193898810620001ad575b01901c01906200029a565b8b5f85620000cf565b9350829362000199565b634e487b7160e01b89526041600452602489fd5b858052848084882092830192015b828110620001e957505062000080565b87620001f682546200025f565b8062000208575b5050018590620001d9565b601f8082116001146200022257505081555b875f620001fd565b6200023d90848452888420920160051c82018583016200029a565b818355556200021a565b634e487b7160e01b5f52604160045260245ffd5b5f80fd5b90600182811c921680156200028f575b60208310146200027b57565b634e487b7160e01b5f52602260045260245ffd5b91607f16916200026f565b818110620002a6575050565b5f81556001016200029a56fe60806040818152600480361015610014575f80fd5b5f92833560e01c90816301b6800014611b25575080630c05e9e4146119aa5780630da847681461197d578063151732ec1461184e578381631b0502071461176057508063201139a2146117105780632947221b146115da578063296c60aa1461153c578063382d823c146114f057806346e16d34146114c2578063613d4de81461134457806361bc221a146113225780636b7a547c146112935780636f669da414611253578063703ee195146111db57806378a5dfd1146111ae578063796b96d2146111515780637c9db0bb146110fc57806388b2d58114610ddc57806393574cd114610d53578063963516e414610cc2578063ad5c4cdd14610c61578063b2d1788314610aef578063b6a216ae14610988578063be4efc5714610825578063cb85aa0a1461076c578063d0e30db01461075d578063d3f831be146106b6578063ddbfa271146105b7578063e0421e3914610505578063e236c7a6146102f95763f9ed9b6714610182575f80fd5b8290346102f55760803660031901126102f55761019d611ba1565b6001600160401b03936024358581116102f15760206101c261020d9236908701611e25565b6101ca611ed7565b946101d3611ee6565b956102ac575b8451630b4ac1e760e21b81526001600160a01b03909116968101879052602481018590529283918291906044830190611da0565b0381886108015af19182156102a357508491610275575b501561027157610232575080f35b8180600f819361026c966001549061024c8260070b6120ff565b16906001600160401b031916176001555af161026661212b565b5061215a565b5f8180f35b8280fd5b610296915060203d811161029c575b61028e8183611c61565b810190611fac565b5f610224565b503d610284565b513d86823e3d90fd5b6001546102bb8160070b6120ff565b67ffffffffffffffff19909116908a16176001556102ec88808080600f6001600160a01b0387165af161026661212b565b6101d9565b8480fd5b5080fd5b508234610502576020806003193601126102f557610315611ba1565b8451630a97c34560e31b81526001600160a01b039091169381019390935281836024816108015afa9182156104f757809381936103e5575b50929093918251948386948501908086528451809252606086018360608460051b890101960197915b838310610394578787038589015287806103908989611f11565b0390f35b919360019193959750806103d18198605f198d82030187528b5190836103c1835189845289840190611bf2565b9201519084818403910152611ce3565b990193019301909288969492979593610376565b935091503d8083853e6103f88185611c61565b830184848203126102715783516001600160401b03908181116102f15785019482601f870112156102f15785519561042f87611e0e565b9661043c89519889611c61565b808852858089019160051b830101918583116104f357868101915b83831061047f5750505050838101519182116102f15761047892910161225e565b918561034d565b82518681116104ef5782018b601f19828a0301126104ef578b51906104a382611c46565b898101518881116104eb57898b6104bc9284010161201d565b82528c810151908882116104eb57916104dc8a8c8096948196010161225e565b83820152815201920191610457565b8b80fd5b8980fd5b8780fd5b8451903d90823e3d90fd5b80fd5b509034610271576020366003190112610271578282356001600160401b0381116102f55761053860209136908601611c9d565b9361055a84519586938493631e7271df60e11b85528401526024830190611bf2565b0381836108015af19182156105ad57836103909493610588575b505051918291602083526020830190611da0565b6105a59293503d8091833e61059d8183611c61565b810190612037565b905f80610574565b81513d85823e3d90fd5b509034610271576060366003190112610271576105d2611ba1565b916001600160401b03906024358281116106b2576105f39036908301611c9d565b93604435908382116106ae5761060e60209236908501611e25565b9261064d600154946106228660070b6121d0565b871667ffffffffffffffff19968716176001558751631758efa960e11b81529889948594850161221a565b0381886108015af19384156106a45760209594610685575b50600154916106768360070b6121f5565b16911617600155519015158152f35b61069d919450853d811161029c5761028e8183611c61565b925f610665565b83513d87823e3d90fd5b8680fd5b8580fd5b509034610271576020366003190112610271578282356001600160401b0381116102f5576106e960209136908601611c9d565b9361070b845195869384936342d9696d60e11b85528401526024830190611bf2565b03816108015afa9182156105ad57836103909493610738575b505051918291602083526020830190611f11565b6107559293503d8091833e61074d8183611c61565b810190612325565b905f80610724565b83806003193601126105025780f35b509190346102f55760203660031901126102f557610788611ba1565b81516305431f4560e41b81526001600160a01b039091169381019390935281836024816108015afa91821561081a5780926107d3575b81516020808252819061039090820186611bf2565b9091503d8082853e6107e58185611c61565b8301926020818503126102f5578051916001600160401b03831161050257509261081391610390940161201d565b905f6107be565b9051903d90823e3d90fd5b50346102715760603660031901126102715780359163ffffffff831683036109845761087c6020610854611ef5565b9461085d611ed7565b95610944575b835180938192632efe8a5f60e01b8352308884016121b0565b0381886108015af190811561093a57859161091c575b50156108df5750506108a15780f35b6001546108b08160070b6120ff565b6001600160401b0316906001600160401b031916176001556108dc81808080600f335af161026661212b565b80f35b906020606492519162461bcd60e51b835282015260176024820152766661696c656420746f20636c61696d207265776172647360481b6044820152fd5b610934915060203d811161029c5761028e8183611c61565b5f610892565b82513d87823e3d90fd5b6001546109538160070b6120ff565b6001600160401b0316906001600160401b0319161760015561097f87808080600f335af161026661212b565b610863565b8380fd5b508290346102f55760209182600319360112610502576109a6611ba1565b845163a66cb60560e01b81526001600160a01b039091169281019290925280826024816108015afa918215610ae3578192610a36575b5083519280840190808552835180925280868601968360051b870101940192955b828710610a0a5785850386f35b909192938280610a26600193603f198a82030186528851611bf2565b96019201960195929190926109fd565b9091503d8083833e610a488183611c61565b810183828203126102715781516001600160401b03928382116102f157019080601f8301121561098457815190610a7e82611e0e565b93610a8b88519586611c61565b828552868086019360051b850101938285116106ae57878101935b858510610aba5750505050505090846109dc565b8451838111610adf578991610ad48684809487010161201d565b815201940193610aa6565b8880fd5b508351903d90823e3d90fd5b509034610271576060366003190112610271576001600160401b0382358181116102f157610b209036908501611c9d565b92610b29611bbb565b916044359081116106b257610b419036908301611c9d565b91835191632d4ecd4b60e11b835282610b5f60209733848401611fc4565b0392868161080195818b885af1908115610c57578891610c3a575b5015610bf75791610ba3939187809487519687958694859363b46a8d6160e01b85528401611fc4565b03925af1938415610bec578094610bca575b50506103909051928284938452830190611da0565b61039092945090610be4913d8091833e61059d8183611c61565b92905f610bb5565b8251903d90823e3d90fd5b845162461bcd60e51b8152908101869052601e60248201527f6661696c656420746f20736574207769746864726177206164647265737300006044820152606490fd5b610c519150873d891161029c5761028e8183611c61565b5f610b7a565b86513d8a823e3d90fd5b5090346102715782610c7236611d5e565b93610c8e8451958693849363b46a8d6160e01b85528401611fc4565b0381836108015af1908115610cb95750610ca6575080fd5b6102f5903d8084833e61059d8183611c61565b513d84823e3d90fd5b5090346102715760203660031901126102715781356001600160401b03811161098457610d1392610cf860209236908301611c9d565b8351632d4ecd4b60e11b815294859283929030908401611fc4565b0381866108015af19182156105ad5760209392610d34575b50519015158152f35b610d4c919250833d811161029c5761028e8183611c61565b905f610d2b565b50346102715781600319360112610271579160209283610d71611ba1565b610d79611f85565b92610d9586519485938493632efe8a5f60e01b855284016121b0565b0381856108015af1829181610dbd575b50610db55750905b519015158152f35b905090610dad565b610dd5919250853d811161029c5761028e8183611c61565b905f610da5565b508290346102f557600319608036820112610271576001600160401b0382358181116102f157610e0f9036908501611c9d565b926024358281168091036106b257604435918383168093036106ae576064358481116104f35780360360a087820112610adf57895196610e4e88611c46565b6060958689528a6020809a0152610e7b8c519a63479239e760e11b8c526080878d015260848c0190611bf2565b9560248b015260448a0152888503016064890152818301359060221901811215610adf5781019182013591602401858311610adf578236038113610adf57878484610f20608484968f8f9960c098601f9f9e9d9c60a090528160a089015289880137898886880101528b610ef160248401611f98565b168d8701528b610f0360448401611f98565b1690860152610f1460648201611f04565b15158a86015201611f04565b15156080830152891999018916010301816108015afa9485156110f25786948796610fbe575b5050865187815284518189018190529096878301958501925b828210610f90575050505081610f85869787860383890152865190808752860190611bf2565b940151169101520390f35b835180518616885286015180518789015286015160ff168a8801529586019592850192600190910190610f5f565b91955093503d8087863e610fd28186611c61565b84019387818603126106ae5780518381116104f357810185601f820112156104f3578051610fff81611e0e565b9361100c8b519586611c61565b81855286898187019302840101928884116110ee578701915b838310611091575050505083810151908382116104f3570187818603126106ae5787519461105286611c46565b8151848111610adf57820181601f82011215610adf579161107c8692848461108496519101611fe6565b87520161234a565b8385015292938780610f46565b8289038a81126104eb578c838151926110a984611c46565b6110b28761234a565b845201126104eb578a9189918e6110db8151916110ce83611c46565b8589015183528801612250565b8482015283820152815201920191611025565b8a80fd5b87513d88823e3d90fd5b509034610271576020366003190112610271578282356001600160401b0381116102f55761112f60209136908601611c9d565b9361070b845195869384936307ba81ef60e31b85528401526024830190611bf2565b5050813461050257806108dc9261118b61119961116d36611d5e565b9093519283916020830195632d4ecd4b60e11b875260248401611fc4565b03601f198101835282611c61565b51906108015afa6111a861212b565b5061235e565b50903461027157826111bf36611d5e565b9361070b845195869384936326b558ed60e21b85528401611fc4565b509080600319360112610271576111f0611ba1565b815163c26f3acf60e01b815230938101939093526001600160a01b0316602480840191909152356044830152602082606481866108005af1908115610cb95750611238575080f35b61124f9060203d811161029c5761028e8183611c61565b5080f35b509034610271578060031936011261027157602061126f611ba1565b611277611f85565b93610d1384519586938493632efe8a5f60e01b855284016121b0565b5090346102715780600319360112610271576112ad611ba1565b6001600160401b03906024358281116106b2576112cf60209136908701611e25565b94600154926112e08460070b6121d0565b85166001600160401b03198095161760015561064d86519788938493630b4ac1e760e21b855260018060a01b0316908401528760248401526044830190611da0565b5050346102f557816003193601126102f55760209060015460070b9051908152f35b509034610271576080366003190112610271576001600160401b039282358481116102f5576113769036908501611c9d565b9361137f611bbb565b9082602061138b611ed7565b96611394611ee6565b9761146b575b6113bb8751998a938493631e7271df60e11b85528401526024830190611bf2565b0381836108015af194851561146157610390968496611445575b506113f0575b50505051918291602083526020830190611da0565b600154906114008260070b6120ff565b67ffffffffffffffff199092169116176001556001600160a01b03169030820361142b575b806113db565b808080600f61143e955af161026661212b565b5f80611425565b61145a9196503d8086833e61059d8183611c61565b945f6113d5565b84513d85823e3d90fd5b60015461147a8160070b6120ff565b67ffffffffffffffff19909116908516176001556001600160a01b038516833082036114a8575b505061139a565b808080600f6114bb955af161026661212b565b5f836114a1565b5090346102715760206114d436611d5e565b93610d1384519586938493632d4ecd4b60e11b85528401611fc4565b509034610271578260031936011261027157828151809363014d140b60e41b8252816108015afa9182156105ad5783610390949361073857505051918291602083526020830190611f11565b50903461027157828061157461118b61155436611d5e565b86939193519283916020830195632d4ecd4b60e11b875260248401611fc4565b51906108015af461158361212b565b501561158d578280f35b906020608492519162461bcd60e51b8352820152602160248201527f6661696c65642064656c656761746543616c6c20746f20707265636f6d70696c6044820152606560f81b6064820152fd5b509034610271576060366003190112610271576001600160401b0382358181116102f15793806116106116419636908701611c9d565b611618611ef5565b95611621611ed7565b966116d7575b855163b46a8d6160e01b8152978892839230908401611fc4565b0381836108015af19384156116cb576103909582956116af575b5061167457505051918291602083526020830190611da0565b6116a891600154906116888260070b6120ff565b16906001600160401b03191617600155808080600f335af161026661212b565b5f80610574565b6116c49195503d8084833e61059d8183611c61565b935f61165b565b508251903d90823e3d90fd5b6001546116e68160070b6120ff565b8616906001600160401b0319161760015561170b83808080600f335af161026661212b565b611627565b50903461027157602036600319011261027157828235926001600160401b0384116102f55761174561055a9436908301611c9d565b835163b46a8d6160e01b815294859283929030908401611fc4565b828185346102f55760803660031901126102f55761177c611ba1565b611784611bbb565b936001600160401b03926044358481116106b2576117a6869136908501611c9d565b916117af611ee6565b936117e18251948593849363ad5c4cdd60e01b855260018060a01b03809a169085015260248401526044830190611bf2565b038183305af1611834575b506117f5578280f35b82600f81939261182c968394600154906118118260070b6120ff565b16906001600160401b03191617600155165af161026661212b565b818181808280f35b611847903d8087833e61059d8183611c61565b50866117ec565b5034610271576080366003190112610271576001600160401b039181358381116102f15761187f9036908401611c9d565b6024358481116106b25761189860209136908601611e25565b916118a1611ed7565b946118aa611ee6565b95611944575b6118cd85519485938493631758efa960e11b85523090850161221a565b0381886108015af19182156102a357508491611926575b5015610271576118f2575080f35b600154906119028260070b6120ff565b16906001600160401b031916176001556108dc81808080600f335af161026661212b565b61193e915060203d811161029c5761028e8183611c61565b5f6118e4565b6001546119538160070b6120ff565b8816906001600160401b0319161760015561197888808080600f335af161026661212b565b6118b0565b509034610271578261198e36611d5e565b9361055a8451958693849363b46a8d6160e01b85528401611fc4565b50346102715760209081600319360112610984578035936001600160401b03918286116102f55781846119e1879836908501611c9d565b9287516119ed81611c17565b606099818b80935282858201520152611a1d885194859384936354212a8960e01b85528401526024830190611bf2565b03816108015afa928315611b1b578293611a80575b505050610390918351948594828652611a6f611a58855184868a01526080890190611bf2565b9385015193601f19948589830301848a0152611ce3565b930151918584030190850152611ce3565b909192503d8084843e611a938184611c61565b8201918481840312610984578051908282116102f15701868184031261098457855193611abf85611c17565b81518381116102f55784611ad491840161201d565b8552858201518381116102f55784611aed91840161225e565b8686015286820151928311610502575091611b0e916103909594930161225e565b8482015290915f80611a32565b85513d84823e3d90fd5b9150503461027157602036600319011261027157918061039093611b47611ba1565b6305431f4560e41b602083019081526001600160a01b03909116602480840191909152825290611b7681611c17565b51906108015afa90611b8f611b8961212b565b9261235e565b51918291602083526020830190611bf2565b600435906001600160a01b0382168203611bb757565b5f80fd5b602435906001600160a01b0382168203611bb757565b5f5b838110611be25750505f910152565b8181015183820152602001611bd3565b90602091611c0b81518092818552858086019101611bd1565b601f01601f1916010190565b606081019081106001600160401b03821117611c3257604052565b634e487b7160e01b5f52604160045260245ffd5b604081019081106001600160401b03821117611c3257604052565b90601f801991011681019081106001600160401b03821117611c3257604052565b6001600160401b038111611c3257601f01601f191660200190565b81601f82011215611bb757803590611cb482611c82565b92611cc26040519485611c61565b82845260208383010111611bb757815f926020809301838601378301015290565b908082519081815260208091019281808460051b8301019501935f915b848310611d105750505050505090565b9091929394958480600192601f19858203018652895190611d3982516060808452830190611bf2565b91838101518483015260ff604080920151169101529801930193019194939290611d00565b906040600319830112611bb7576004356001600160a01b0381168103611bb75791602435906001600160401b038211611bb757611d9d91600401611c9d565b90565b908082519081815260208091019281808460051b8301019501935f915b848310611dcd5750505050505090565b9091929394958480600192601f198582030186528951908280611df884516040808652850190611bf2565b9301519101529801930193019194939290611dbd565b6001600160401b038111611c325760051b60200190565b81601f82011215611bb7578035611e3b81611e0e565b92604091611e4b83519586611c61565b808552602093848087019260051b82010193838511611bb757858201925b858410611e7a575050505050505090565b6001600160401b03908435828111611bb75784019083601f198389030112611bb7578351611ea781611c46565b89830135938411611bb7578483611ec48a8d809881980101611c9d565b8352013583820152815201930192611e69565b604435908115158203611bb757565b606435908115158203611bb757565b602435908115158203611bb757565b35908115158203611bb757565b90815180825260208092019182818360051b82019501935f915b848310611f3b5750505050505090565b90919293949584808284600194038652895190611f6082516060808452830190611bf2565b91838101518483015260ff604080920151169101529801930193019194939290611f2b565b6024359063ffffffff82168203611bb757565b35906001600160401b0382168203611bb757565b90816020910312611bb757518015158103611bb75790565b6001600160a01b039091168152604060208201819052611d9d92910190611bf2565b90929192611ff381611c82565b916120016040519384611c61565b829482845282820111611bb757602061201b930190611bd1565b565b9080601f83011215611bb7578151611d9d92602001611fe6565b906020908183820312611bb75782516001600160401b0393848211611bb757019080601f83011215611bb757815161206e81611e0e565b94604061207d81519788611c61565b828752858088019360051b86010194848611611bb757868101935b8685106120aa57505050505050505090565b8451848111611bb757820183601f198289030112611bb7578351916120ce83611c46565b8982015192868411611bb75785836120ec8b8e80988198010161201d565b8352015183820152815201940193612098565b60070b677fffffffffffffff81146121175760010190565b634e487b7160e01b5f52601160045260245ffd5b3d15612155573d9061213c82611c82565b9161214a6040519384611c61565b82523d5f602084013e565b606090565b1561216157565b60405162461bcd60e51b815260206004820152602160248201527f4661696c656420746f2073656e6420457468657220746f2064656c656761746f6044820152603960f91b6064820152608490fd5b6001600160a01b03909116815263ffffffff909116602082015260400190565b60070b60010190677fffffffffffffff8213677fffffffffffffff1983121761211757565b60070b5f190190677fffffffffffffff198212677fffffffffffffff83131761211757565b6001600160a01b039091168152606060208201819052611d9d93919261224291840190611bf2565b916040818403910152611da0565b519060ff82168203611bb757565b9080601f83011215611bb757815161227581611e0e565b9260409161228583519586611c61565b808552602093848087019260051b84010193818511611bb757858401925b8584106122b4575050505050505090565b8351906001600160401b0391828111611bb75786019060609283601f198488030112611bb7578451906122e682611c17565b8a840151908111611bb7578a94846123068988612316958199010161201d565b8452878101518685015201612250565b858201528152019301926122a3565b90602082820312611bb75781516001600160401b038111611bb757611d9d920161225e565b51906001600160401b0382168203611bb757565b1561236557565b60405162461bcd60e51b815260206004820152601f60248201527f6661696c65642073746174696343616c6c20746f20707265636f6d70696c65006044820152606490fdfea2646970667358221220e67ad9433067eceeb016519e965f75887f5c142eb2154568a75897d7e828c7da64736f6c63430008140033",
  "linkReferences": {},
  "deployedLinkReferences": {}
}