{
  "_format": "hh3-artifact-1",
  "contractName": "DistributionCaller",
  "sourceName": "solidity/precompiles/testutil/contracts/DistributionCaller.sol",
  "abi": [
    {
      "inputs": [],
      "name": "counter",
      "outputs": [
        {
          "internalType": "int64",
          "name": "",
          "type": "int64"
        }
      ],
      "stateMutability": "view",
      "type": "function"
    },
    {
      "inputs": [
        {
          "internalType": "address",
          "name": "_delAddr",
          "type": "address"
        },
        {
          "internalType": "string",
          "name": "_withdrawAddr",
          "type": "string"
        }
      ],
      "name": "delegateCallSetWithdrawAddress",
      "outputs": [],
      "stateMutability": "nonpayable",
      "type": "function"
    },
    {
      "inputs": [],
      "name": "deposit",
      "outputs": [],
      "stateMutability": "payable",
      "type": "function"
    },
    {
      "inputs": [],
      "name": "getCommunityPool",
      "outputs": [
        {
          "components": [
            {
              "internalType": "string",
              "name": "denom",
              "type": "string"
            },
            {
              "internalType": "uint256",
              "name": "amount",
              "type": "uint256"
            },
            {
              "internalType": "uint8",
              "name": "precision",
              "type": "uint8"
            }
          ],
          "internalType": "struct DecCoin[]",
          "name": "",
          "type": "tuple[]"
        }
      ],
      "stateMutability": "view",
      "type": "function"
    },
    {
      "inputs": [
        {
          "internalType": "address",
          "name": "_delAddr",
          "type": "address"
        },
        {
          "internalType": "string",
          "name": "_valAddr",
          "type": "string"
        }
      ],
      "name": "getDelegationRewards",
      "outputs": [
        {
          "components": [
            {
              "internalType": "string",
              "name": "denom",
              "type": "string"
            },
            {
              "internalType": "uint256",
              "name": "amount",
              "type": "uint256"
            },
            {
              "internalType": "uint8",
              "name": "precision",
              "type": "uint8"
            }
          ],
          "internalType": "struct DecCoin[]",
          "name": "",
          "type": "tuple[]"
        }
      ],
      "stateMutability": "view",
      "type": "function"
    },
    {
      "inputs": [
        {
          "internalType": "address",
          "name": "_delAddr",
          "type": "address"
        }
      ],
      "name": "getDelegationTotalRewards",
      "outputs": [
        {
          "components": [
            {
              "internalType": "string",
              "name": "validatorAddress",
              "type": "string"
            },
            {
              "components": [
                {
                  "internalType": "string",
                  "name": "denom",
                  "type": "string"
                },
                {
                  "internalType": "uint256",
                  "name": "amount",
                  "type": "uint256"
                },
                {
                  "internalType": "uint8",
                  "name": "precision",
                  "type": "uint8"
                }
              ],
              "internalType": "struct DecCoin[]",
              "name": "reward",
              "type": "tuple[]"
            }
          ],
          "internalType": "struct DelegationDelegatorReward[]",
          "name": "rewards",
          "type": "tuple[]"
        },
        {
          "components": [
            {
              "internalType": "string",
              "name": "denom",
              "type": "string"
            },
            {
              "internalType": "uint256",
              "name": "amount",
              "type": "uint256"
            },
            {
              "internalType": "uint8",
              "name": "precision",
              "type": "uint8"
            }
          ],
          "internalType": "struct DecCoin[]",
          "name": "total",
          "type": "tuple[]"
        }
      ],
      "stateMutability": "view",
      "type": "function"
    },
    {
      "inputs": [
        {
          "internalType": "address",
          "name": "_delAddr",
          "type": "address"
        }
      ],
      "name": "getDelegatorValidators",
      "outputs": [
        {
          "internalType": "string[]",
          "name": "",
          "type": "string[]"
        }
      ],
      "stateMutability": "view",
      "type": "function"
    },
    {
      "inputs": [
        {
          "internalType": "address",
          "name": "_delAddr",
          "type": "address"
        }
      ],
      "name": "getDelegatorWithdrawAddress",
      "outputs": [
        {
          "internalType": "string",
          "name": "",
          "type": "string"
        }
      ],
      "stateMutability": "view",
      "type": "function"
    },
    {
      "inputs": [
        {
          "internalType": "string",
          "name": "_valAddr",
          "type": "string"
        }
      ],
      "name": "getValidatorCommission",
      "outputs": [
        {
          "components": [
            {
              "internalType": "string",
              "name": "denom",
              "type": "string"
            },
            {
              "internalType": "uint256",
              "name": "amount",
              "type": "uint256"
            },
            {
              "internalType": "uint8",
              "name": "precision",
              "type": "uint8"
            }
          ],
          "internalType": "struct DecCoin[]",
          "name": "",
          "type": "tuple[]"
        }
      ],
      "stateMutability": "view",
      "type": "function"
    },
    {
      "inputs": [
        {
          "internalType": "string",
          "name": "_valAddr",
          "type": "string"
        }
      ],
      "name": "getValidatorDistributionInfo",
      "outputs": [
        {
          "components": [
            {
              "internalType": "string",
              "name": "operatorAddress",
              "type": "string"
            },
            {
              "components": [
                {
                  "internalType": "string",
                  "name": "denom",
                  "type": "string"
                },
                {
                  "internalType": "uint256",
                  "name": "amount",
                  "type": "uint256"
                },
                {
                  "internalType": "uint8",
                  "name": "precision",
                  "type": "uint8"
                }
              ],
              "internalType": "struct DecCoin[]",
              "name": "selfBondRewards",
              "type": "tuple[]"
            },
            {
              "components": [
                {
                  "internalType": "string",
                  "name": "denom",
                  "type": "string"
                },
                {
                  "internalType": "uint256",
                  "name": "amount",
                  "type": "uint256"
                },
                {
                  "internalType": "uint8",
                  "name": "precision",
                  "type": "uint8"
                }
              ],
              "internalType": "struct DecCoin[]",
              "name": "commission",
              "type": "tuple[]"
            }
          ],
          "internalType": "struct ValidatorDistributionInfo",
          "name": "",
          "type": "tuple"
        }
      ],
      "stateMutability": "view",
      "type": "function"
    },
    {
      "inputs": [
        {
          "internalType": "string",
          "name": "_valAddr",
          "type": "string"
        }
      ],
      "name": "getValidatorOutstandingRewards",
      "outputs": [
        {
          "components": [
            {
              "internalType": "string",
              "name": "denom",
              "type": "string"
            },
            {
              "internalType": "uint256",
              "name": "amount",
              "type": "uint256"
            },
            {
              "internalType": "uint8",
              "name": "precision",
              "type": "uint8"
            }
          ],
          "internalType": "struct DecCoin[]",
          "name": "",
          "type": "tuple[]"
        }
      ],
      "stateMutability": "view",
      "type": "function"
    },
    {
      "inputs": [
        {
          "internalType": "string",
          "name": "_valAddr",
          "type": "string"
        },
        {
          "internalType": "uint64",
          "name": "_startingHeight",
          "type": "uint64"
        },
        {
          "internalType": "uint64",
          "name": "_endingHeight",
          "type": "uint64"
        },
        {
          "components": [
            {
              "internalType": "bytes",
              "name": "key",
              "type": "bytes"
            },
            {
              "internalType": "uint64",
              "name": "offset",
              "type": "uint64"
            },
            {
              "internalType": "uint64",
              "name": "limit",
              "type": "uint64"
            },
            {
              "internalType": "bool",
              "name": "countTotal",
              "type": "bool"
            },
            {
              "internalType": "bool",
              "name": "reverse",
              "type": "bool"
            }
          ],
          "internalType": "struct PageRequest",
          "name": "pageRequest",
          "type": "tuple"
        }
      ],
      "name": "getValidatorSlashes",
      "outputs": [
        {
          "components": [
            {
              "internalType": "uint64",
              "name": "validatorPeriod",
              "type": "uint64"
            },
            {
              "components": [
                {
                  "internalType": "uint256",
                  "name": "value",
                  "type": "uint256"
                },
                {
                  "internalType": "uint8",
                  "name": "precision",
                  "type": "uint8"
                }
              ],
              "internalType": "struct Dec",
              "name": "fraction",
              "type": "tuple"
            }
          ],
          "internalType": "struct ValidatorSlashEvent[]",
          "name": "",
          "type": "tuple[]"
        },
        {
          "components": [
            {
              "internalType": "bytes",
              "name": "nextKey",
              "type": "bytes"
            },
            {
              "internalType": "uint64",
              "name": "total",
              "type": "uint64"
            }
          ],
          "internalType": "struct PageResponse",
          "name": "",
          "type": "tuple"
        }
      ],
      "stateMutability": "view",
      "type": "function"
    },
    {
      "inputs": [
        {
          "internalType": "address payable",
          "name": "_delAddr",
          "type": "address"
        },
        {
          "internalType": "address payable",
          "name": "_withdrawer",
          "type": "address"
        },
        {
          "internalType": "string",
          "name": "_valAddr",
          "type": "string"
        },
        {
          "internalType": "bool",
          "name": "_after",
          "type": "bool"
        }
      ],
      "name": "revertWithdrawRewardsAndTransfer",
      "outputs": [],
      "stateMutability": "nonpayable",
      "type": "function"
    },
    {
      "inputs": [
        {
          "internalType": "address",
          "name": "_delAddr",
          "type": "address"
        }
      ],
      "name": "staticCallGetWithdrawAddress",
      "outputs": [
        {
          "internalType": "bytes",
          "name": "",
          "type": "bytes"
        }
      ],
      "stateMutability": "view",
      "type": "function"
    },
    {
      "inputs": [
        {
          "internalType": "address",
          "name": "_delAddr",
          "type": "address"
        },
        {
          "internalType": "string",
          "name": "_withdrawAddr",
          "type": "string"
        }
      ],
      "name": "staticCallSetWithdrawAddress",
      "outputs": [],
      "stateMutability": "view",
      "type": "function"
    },
    {
      "inputs": [
        {
          "internalType": "address",
          "name": "_delAddr",
          "type": "address"
        },
        {
          "internalType": "uint32",
          "name": "_maxRetrieve",
          "type": "uint32"
        }
      ],
      "name": "testClaimRewards",
      "outputs": [
        {
          "internalType": "bool",
          "name": "success",
          "type": "bool"
        }
      ],
      "stateMutability": "nonpayable",
      "type": "function"
    },
    {
      "inputs": [
        {
          "internalType": "uint32",
          "name": "_maxRetrieve",
          "type": "uint32"
        },
        {
          "internalType": "bool",
          "name": "_before",
          "type": "bool"
        },
        {
          "internalType": "bool",
          "name": "_after",
          "type": "bool"
        }
      ],
      "name": "testClaimRewardsWithTransfer",
      "outputs": [],
      "stateMutability": "nonpayable",
      "type": "function"
    },
    {
      "inputs": [
        {
          "internalType": "string",
          "name": "_validatorAddr",
          "type": "string"
        },
        {
          "internalType": "uint256",
          "name": "_amount",
          "type": "uint256"
        }
      ],
      "name": "testDelegateFromContract",
      "outputs": [],
      "stateMutability": "payable",
      "type": "function"
    },
    {
      "inputs": [
        {
          "internalType": "address",
          "name": "depositor",
          "type": "address"
        },
        {
          "internalType": "string",
          "name": "validatorAddress",
          "type": "string"
        },
        {
          "components": [
            {
              "internalType": "string",
              "name": "denom",
              "type": "string"
            },
            {
              "internalType": "uint256",
              "name": "amount",
              "type": "uint256"
            }
          ],
          "internalType": "struct Coin[]",
          "name": "amount",
          "type": "tuple[]"
        }
      ],
      "name": "testDepositValidatorRewardsPool",
      "outputs": [
        {
          "internalType": "bool",
          "name": "success",
          "type": "bool"
        }
      ],
      "stateMutability": "nonpayable",
      "type": "function"
    },
    {
      "inputs": [
        {
          "internalType": "string",
          "name": "validatorAddress",
          "type": "string"
        },
        {
          "components": [
            {
              "internalType": "string",
              "name": "denom",
              "type": "string"
            },
            {
              "internalType": "uint256",
              "name": "amount",
              "type": "uint256"
            }
          ],
          "internalType": "struct Coin[]",
          "name": "amount",
          "type": "tuple[]"
        },
        {
          "internalType": "bool",
          "name": "_before",
          "type": "bool"
        },
        {
          "internalType": "bool",
          "name": "_after",
          "type": "bool"
        }
      ],
      "name": "testDepositValidatorRewardsPoolWithTransfer",
      "outputs": [],
      "stateMutability": "nonpayable",
      "type": "function"
    },
    {
      "inputs": [
        {
          "internalType": "address",
          "name": "depositor",
          "type": "address"
        },
        {
          "components": [
            {
              "internalType": "string",
              "name": "denom",
              "type": "string"
            },
            {
              "internalType": "uint256",
              "name": "amount",
              "type": "uint256"
            }
          ],
          "internalType": "struct Coin[]",
          "name": "amount",
          "type": "tuple[]"
        }
      ],
      "name": "testFundCommunityPool",
      "outputs": [
        {
          "internalType": "bool",
          "name": "success",
          "type": "bool"
        }
      ],
      "stateMutability": "nonpayable",
      "type": "function"
    },
    {
      "inputs": [
        {
          "internalType": "address payable",
          "name": "depositor",
          "type": "address"
        },
        {
          "components": [
            {
              "internalType": "string",
              "name": "denom",
              "type": "string"
            },
            {
              "internalType": "uint256",
              "name": "amount",
              "type": "uint256"
            }
          ],
          "internalType": "struct Coin[]",
          "name": "amount",
          "type": "tuple[]"
        },
        {
          "internalType": "bool",
          "name": "_before",
          "type": "bool"
        },
        {
          "internalType": "bool",
          "name": "_after",
          "type": "bool"
        }
      ],
      "name": "testFundCommunityPoolWithTransfer",
      "outputs": [],
      "stateMutability": "nonpayable",
      "type": "function"
    },
    {
      "inputs": [
        {
          "internalType": "string",
          "name": "_withdrawAddr",
          "type": "string"
        },
        {
          "internalType": "address",
          "name": "_delAddr",
          "type": "address"
        },
        {
          "internalType": "string",
          "name": "_valAddr",
          "type": "string"
        }
      ],
      "name": "testRevertState",
      "outputs": [
        {
          "components": [
            {
              "internalType": "string",
              "name": "denom",
              "type": "string"
            },
            {
              "internalType": "uint256",
              "name": "amount",
              "type": "uint256"
            }
          ],
          "internalType": "struct Coin[]",
          "name": "",
          "type": "tuple[]"
        }
      ],
      "stateMutability": "nonpayable",
      "type": "function"
    },
    {
      "inputs": [
        {
          "internalType": "address",
          "name": "_delAddr",
          "type": "address"
        },
        {
          "internalType": "string",
          "name": "_withdrawAddr",
          "type": "string"
        }
      ],
      "name": "testSetWithdrawAddress",
      "outputs": [
        {
          "internalType": "bool",
          "name": "",
          "type": "bool"
        }
      ],
      "stateMutability": "nonpayable",
      "type": "function"
    },
    {
      "inputs": [
        {
          "internalType": "string",
          "name": "_withdrawAddr",
          "type": "string"
        }
      ],
      "name": "testSetWithdrawAddressFromContract",
      "outputs": [
        {
          "internalType": "bool",
          "name": "",
          "type": "bool"
        }
      ],
      "stateMutability": "nonpayable",
      "type": "function"
    },
    {
      "inputs": [
        {
          "internalType": "address",
          "name": "delegatorAddress",
          "type": "address"
        },
        {
          "internalType": "uint32",
          "name": "maxRetrieve",
          "type": "uint32"
        }
      ],
      "name": "testTryClaimRewards",
      "outputs": [
        {
          "internalType": "bool",
          "name": "",
          "type": "bool"
        }
      ],
      "stateMutability": "nonpayable",
      "type": "function"
    },
    {
      "inputs": [
        {
          "internalType": "address",
          "name": "_delAddr",
          "type": "address"
        },
        {
          "internalType": "string",
          "name": "_valAddr",
          "type": "string"
        }
      ],
      "name": "testWithdrawDelegatorReward",
      "outputs": [
        {
          "components": [
            {
              "internalType": "string",
              "name": "denom",
              "type": "string"
            },
            {
              "internalType": "uint256",
              "name": "amount",
              "type": "uint256"
            }
          ],
          "internalType": "struct Coin[]",
          "name": "",
          "type": "tuple[]"
        }
      ],
      "stateMutability": "nonpayable",
      "type": "function"
    },
    {
      "inputs": [
        {
          "internalType": "string",
          "name": "_valAddr",
          "type": "string"
        }
      ],
      "name": "testWithdrawDelegatorRewardFromContract",
      "outputs": [
        {
          "components": [
            {
              "internalType": "string",
              "name": "denom",
              "type": "string"
            },
            {
              "internalType": "uint256",
              "name": "amount",
              "type": "uint256"
            }
          ],
          "internalType": "struct Coin[]",
          "name": "",
          "type": "tuple[]"
        }
      ],
      "stateMutability": "nonpayable",
      "type": "function"
    },
    {
      "inputs": [
        {
          "internalType": "string",
          "name": "_valAddr",
          "type": "string"
        },
        {
          "internalType": "bool",
          "name": "_before",
          "type": "bool"
        },
        {
          "internalType": "bool",
          "name": "_after",
          "type": "bool"
        }
      ],
      "name": "testWithdrawDelegatorRewardWithTransfer",
      "outputs": [
        {
          "components": [
            {
              "internalType": "string",
              "name": "denom",
              "type": "string"
            },
            {
              "internalType": "uint256",
              "name": "amount",
              "type": "uint256"
            }
          ],
          "internalType": "struct Coin[]",
          "name": "coins",
          "type": "tuple[]"
        }
      ],
      "stateMutability": "nonpayable",
      "type": "function"
    },
    {
      "inputs": [
        {
          "internalType": "string",
          "name": "_valAddr",
          "type": "string"
        }
      ],
      "name": "testWithdrawValidatorCommission",
      "outputs": [
        {
          "components": [
            {
              "internalType": "string",
              "name": "denom",
              "type": "string"
            },
            {
              "internalType": "uint256",
              "name": "amount",
              "type": "uint256"
            }
          ],
          "internalType": "struct Coin[]",
          "name": "",
          "type": "tuple[]"
        }
      ],
      "stateMutability": "nonpayable",
      "type": "function"
    },
    {
      "inputs": [
        {
          "internalType": "string",
          "name": "_valAddr",
          "type": "string"
        },
        {
          "internalType": "address payable",
          "name": "_withdrawer",
          "type": "address"
        },
        {
          "internalType": "bool",
          "name": "_before",
          "type": "bool"
        },
        {
          "internalType": "bool",
          "name": "_after",
          "type": "bool"
        }
      ],
      "name": "testWithdrawValidatorCommissionWithTransfer",
      "outputs": [
        {
          "components": [
            {
              "internalType": "string",
              "name": "denom",
              "type": "string"
            },
            {
              "internalType": "uint256",
              "name": "amount",
              "type": "uint256"
            }
          ],
          "internalType": "struct Coin[]",
          "name": "coins",
          "type": "tuple[]"
        }
      ],
      "stateMutability": "nonpayable",
      "type": "function"
    },
    {
      "inputs": [
        {
          "internalType": "address",
          "name": "_delAddr",
          "type": "address"
        },
        {
          "internalType": "string",
          "name": "_valAddr",
          "type": "string"
        }
      ],
      "name": "withdrawDelegatorRewardsAndRevert",
      "outputs": [
        {
          "components": [
            {
              "internalType": "string",
              "name": "denom",
              "type": "string"
            },
            {
              "internalType": "uint256",
              "name": "amount",
              "type": "uint256"
            }
          ],
          "internalType": "struct Coin[]",
          "name": "coins",
          "type": "tuple[]"
        }
      ],
      "stateMutability": "nonpayable",
      "type": "function"
    }
  ],
  "bytecode": "0x60806040523461027957604051602081016001600160401b038111828210176101c8576040819052606081016001600160401b038111828210176101c857604052602381527f2f636f736d6f732e7374616b696e672e763162657461312e4d736744656c656760208201526261746560e81b604082015281525f5460015f55806001106101dc575b505f8080525f5160206125905f395f51905f52915b600182106100b3576040516122c490816102cc8239f35b80518051906001600160401b0382116101c8576100d0855461027d565b601f811161018d575b50602090601f83116001146101245792826001949360209386955f92610119575b50505f19600383901b1c191690841b1786555b0193019101909161009c565b015190505f806100fa565b90601f19831691865f52815f20925f5b818110610175575093602093600196938796938388951061015d575b505050811b01865561010d565b01515f1960f88460031b161c191690555f8080610150565b82840151855560019094019360209384019301610134565b6101b890865f5260205f20601f850160051c810191602086106101be575b601f0160051c01906102b5565b5f6100d9565b90915081906101ab565b634e487b7160e01b5f52604160045260245ffd5b5f80525f5160206125905f395f51905f52017f290decd9548b62a8d60345a988386fc84ba6bc95484008f6362f93160ef3e5645b81811061021d5750610087565b8061022a6001925461027d565b80610237575b5001610210565b601f8111831461024c57505f81555b5f610230565b61026890825f5283601f60205f20920160051c820191016102b5565b805f525f6020812081835555610246565b5f80fd5b90600182811c921680156102ab575b602083101461029757565b634e487b7160e01b5f52602260045260245ffd5b91607f169161028c565b8181106102c0575050565b5f81556001016102b556fe6080806040526004361015610012575f80fd5b5f3560e01c90816301b6800014611a8f575080630c05e9e4146119055780630da84768146118f3578063151732ec146117eb5780631b050207146116f9578063201139a2146116aa5780632947221b14611574578063296c60aa146114f8578063382d823c146114ac57806346e16d341461147d578063613d4de81461130e57806361bc221a146112ee5780636b7a547c146112585780636f669da41461123a57806378a5dfd11461120c578063796b96d2146111af5780637c9db0bb1461115957806388b2d58114610de057806393574cd114610d51578063963516e414610cc1578063ad5c4cdd14610c6a578063b2d1788314610b50578063b6a216ae146109ea578063be4efc5714610897578063cb85aa0a146107f1578063d0e30db0146107e4578063d3f831be1461073f578063dd987c20146106b3578063ddbfa271146105ac578063e0421e3914610506578063e236c7a6146102f15763f9ed9b671461017c575f80fd5b3461026757608036600319011261026757610195611b0b565b6024356001600160401b038111610267576101b4903690600401611d64565b9061020260206101c2611e1d565b926101cb611e2c565b936102a5575b60405180938192630b4ac1e760e21b835260018060a01b031696876004840152604060248401526044830190611ce1565b03815f6108015af190811561029a575f9161026b575b50156102675761022457005b5f808080600f6102659560015461023d8160070b61211b565b6001600160401b0316906001600160401b031916176001555af161025f611e7e565b50612147565b005b5f80fd5b61028d915060203d602011610293575b6102858183611ba5565b81019061219d565b5f610218565b503d61027b565b6040513d5f823e3d90fd5b6001546102b48160070b61211b565b6001600160401b031667ffffffffffffffff1991909116176001556102ec5f808080600f6001600160a01b0387165af161025f611e7e565b6101d1565b346102675760203660031901126102675761030a611b0b565b604051630a97c34560e31b81526001600160a01b0390911660048201525f816024816108015afa90811561029a575f905f926103dc575b5090604051809260408201926040835281518094526060830193602060608260051b8601019301945f905b82821061038b57858061038787878382036020850152611c27565b0390f35b919360019193955060206103ca8192605f198b8203018652895190836103ba8351604084526040840190611b37565b9201519084818403910152611c27565b9701920192018694929593919561036c565b9150503d805f833e6103ee8183611ba5565b8101906040818303126102675780516001600160401b0381116102675781019180601f840112156102675782519261042584611d4d565b936104336040519586611ba5565b80855260208086019160051b830101918383116102675760208101915b83831061047f575050505060208201516001600160401b038111610267576104789201611f57565b9082610341565b82516001600160401b038111610267578201906040828703601f19011261026757604051906104ad82611b8a565b60208301516001600160401b038111610267578760206104cf92860101611f2f565b82526040830151916001600160401b038311610267576104f788602080969581960101611f57565b83820152815201920191610450565b34610267576020366003190112610267576004356001600160401b038111610267575f61053a61055c923690600401611be1565b60405180938192631e7271df60e11b8352602060048401526024830190611b37565b0381836108015af1801561029a57610387915f9161058a575b50604051918291602083526020830190611ce1565b6105a691503d805f833e61059e8183611ba5565b810190612024565b82610575565b34610267576060366003190112610267576105c5611b0b565b6024356001600160401b038111610267576105e4903690600401611be1565b604435906001600160401b038211610267576106066020923690600401611d64565b926001546106168160070b612210565b6001600160401b0316906001600160401b0319161760015561064c6040519485938493631758efa960e11b8552600485016121b5565b03815f6108015af1801561029a576020915f91610696575b506001546106748160070b612235565b6001600160401b0316906001600160401b031916176001556040519015158152f35b6106ad9150823d8411610293576102858183611ba5565b82610664565b6040366003190112610267576004356001600160401b0381116102675760206106e361070b923690600401611be1565b604051809381926353266bbb60e01b8352306004840152606060248401526064830190611b37565b602435604483015203815f6108005af1801561029a5761072757005b6102659060203d602011610293576102858183611ba5565b34610267576020366003190112610267576004356001600160401b038111610267575f610773610795923690600401611be1565b604051809381926342d9696d60e11b8352602060048401526024830190611b37565b03816108015afa801561029a57610387915f916107c2575b50604051918291602083526020830190611c27565b6107de91503d805f833e6107d68183611ba5565b8101906121eb565b826107ad565b5f36600319011261026757005b346102675760203660031901126102675761080a611b0b565b6040516305431f4560e41b81526001600160a01b0390911660048201525f816024816108015afa801561029a575f90610856575b61038790604051918291602083526020830190611b37565b503d805f833e6108668183611ba5565b810190602081830312610267578051916001600160401b03831161026757610387926108929201611f2f565b61083e565b346102675760603660031901126102675760043563ffffffff81168103610267576108ef60206108c5611e3b565b926108ce611e1d565b936109aa575b60405180938192632efe8a5f60e01b8352306004840161225a565b03815f6108015af190811561029a575f9161098b575b501561094c5761091157005b6001546109208160070b61211b565b6001600160401b0316906001600160401b031916176001556102655f808080600f335af161025f611e7e565b60405162461bcd60e51b81526020600482015260176024820152766661696c656420746f20636c61696d207265776172647360481b6044820152606490fd5b6109a4915060203d602011610293576102858183611ba5565b82610905565b6001546109b98160070b61211b565b6001600160401b0316906001600160401b031916176001556109e55f808080600f335af161025f611e7e565b6108d4565b3461026757602036600319011261026757610a03611b0b565b60405163a66cb60560e01b81526001600160a01b0390911660048201525f816024816108015afa90811561029a575f91610a9f575b506040518091602082016020835281518091526040830190602060408260051b8601019301915f905b828210610a7057505050500390f35b91936001919395506020610a8f8192603f198a82030186528851611b37565b9601920192018594939192610a61565b90503d805f833e610ab08183611ba5565b810190602081830312610267578051906001600160401b03821161026757019080601f83011215610267578151610ae681611d4d565b92610af46040519485611ba5565b81845260208085019260051b820101918383116102675760208201905b838210610b2357505050505081610a38565b81516001600160401b03811161026757602091610b4587848094880101611f2f565b815201910190610b11565b34610267576060366003190112610267576004356001600160401b03811161026757610b80903690600401611be1565b610b88611b21565b6044356001600160401b038111610267576020610bac610bc8923690600401611be1565b9360405180938192632d4ecd4b60e11b835233600484016120f9565b03815f6108015af190811561029a575f91610c4b575b5015610c065760405163b46a8d6160e01b8152915f918391829161055c9190600484016120f9565b60405162461bcd60e51b815260206004820152601e60248201527f6661696c656420746f20736574207769746864726177206164647265737300006044820152606490fd5b610c64915060203d602011610293576102858183611ba5565b83610bde565b3461026757610c985f610c7c36611c9f565b60405163b46a8d6160e01b8152938492839290600484016120f9565b0381836108015af1801561029a57610cae575f80fd5b610267903d805f833e61059e8183611ba5565b34610267576020366003190112610267576004356001600160401b038111610267576020610cf6610d11923690600401611be1565b60405180938192632d4ecd4b60e11b835230600484016120f9565b03815f6108015af1801561029a576020915f91610d34575b506040519015158152f35b610d4b9150823d8411610293576102858183611ba5565b82610d29565b3461026757604036600319011261026757610d936020610d6f611b0b565b610d77611e57565b604051632efe8a5f60e01b81529384928392906004840161225a565b03815f6108015af15f9181610dbf575b50610db7575060205f5b6040519015158152f35b602090610dad565b610dd991925060203d602011610293576102858183611ba5565b9082610da3565b34610267576080366003190112610267576004356001600160401b03811161026757610e10903690600401611be1565b6024356001600160401b038116809103610267576044356001600160401b03811680910361026757606435906001600160401b038211610267578136039060a0600319830112610267575f6020604051610e6981611b8a565b60608152015260405163479239e760e11b81526080600482015294610e92906084870190611b37565b936024860152604485015260031984840301606485015281600401359060221901811215610267578101906024600483013592016001600160401b038311610267578236038113610267578383610f4e608460c0958997889660a05f9b528160a088015288870137888785870101526001600160401b03610f1560248301611e6a565b1660208601526001600160401b03610f2f60448301611e6a565b166040860152610f4160648201611e4a565b1515606086015201611e4a565b15156080830152601f01601f1916010301816108015afa801561029a575f915f91611007575b506040519060408201926040835280518094526020606084019101935f5b818110610fcf575050828094508103602084015260206001600160401b0381610fc48551604086526040860190611b37565b940151169101520390f35b855180516001600160401b0316845260209081015180518286015281015160ff16604085015290950194606090920191600101610f92565b9150503d805f833e6110198183611ba5565b8101906040818303126102675780516001600160401b0381116102675781019082601f8301121561026757815161104f81611d4d565b9261105d6040519485611ba5565b8184526020606081860193028201019085821161026757602001915b8183106110f5575050506020810151906001600160401b038211610267570160408184031261026757604051926110af84611b8a565b81516001600160401b0381116102675782019181601f84011215610267576110e160209284846110e996519101611ef9565b85520161227a565b60208301529082610f74565b8286036060811261026757604080519161110e83611b8a565b6111178661227a565b8352601f1901126102675760609160209160405161113481611b8a565b83870151815261114660408801611f49565b8482015283820152815201920191611079565b34610267576020366003190112610267576004356001600160401b038111610267575f61118d610795923690600401611be1565b604051809381926307ba81ef60e31b8352602060048401526024830190611b37565b34610267576102655f806111f76111e96111c836611c9f565b6040939193519283916020830195632d4ecd4b60e11b8752602484016120f9565b03601f198101835282611ba5565b51906108015afa611206611e7e565b50611ead565b34610267576107955f61121e36611c9f565b6040516326b558ed60e21b8152938492839290600484016120f9565b3461026757604036600319011261026757610d116020610d6f611b0b565b3461026757604036600319011261026757611271611b0b565b6024356001600160401b0381116102675761064c916112966020923690600401611d64565b906001546112a68160070b612210565b6001600160401b0316906001600160401b031916176001556040519384928392630b4ac1e760e21b845260018060a01b03166004840152604060248401526044830190611ce1565b34610267575f36600319011261026757602060015460070b604051908152f35b34610267576080366003190112610267576004356001600160401b03811161026757611341611383913690600401611be1565b611349611b21565b5f611352611e1d565b9261135b611e2c565b93611421575b60405180958192631e7271df60e11b8352602060048401526024830190611b37565b0381836108015af191821561029a57610387935f93611405575b506113b75750604051918291602083526020830190611ce1565b6001546113c68160070b61211b565b6001600160401b031667ffffffffffffffff1991909116176001556001600160a01b0316308114610575575f808080600f6105a6955af161025f611e7e565b61141a9193503d805f833e61059e8183611ba5565b918461139d565b6001546114308160070b61211b565b6001600160401b031667ffffffffffffffff1991909116176001556001600160a01b038316308103611463575b50611361565b82808080600f611477955af161025f611e7e565b8561145d565b3461026757610d11602061149036611c9f565b604051632d4ecd4b60e11b8152938492839290600484016120f9565b34610267575f3660031901126102675760405163014d140b60e41b81525f816004816108015afa801561029a57610387915f916107c25750604051918291602083526020830190611c27565b34610267575f8061150e6111e96111c836611c9f565b51906108015af461151d611e7e565b501561152557005b60405162461bcd60e51b815260206004820152602160248201527f6661696c65642064656c656761746543616c6c20746f20707265636f6d70696c6044820152606560f81b6064820152608490fd5b34610267576060366003190112610267576004356001600160401b038111610267576115a76115da913690600401611be1565b5f6115b0611e3b565b916115b9611e1d565b9261166a575b6040518094819263b46a8d6160e01b835230600484016120f9565b0381836108015af190811561029a57610387925f9261164e575b5061160e575b604051918291602083526020830190611ce1565b60015461161d8160070b61211b565b6001600160401b0316906001600160401b031916176001556116495f808080600f335af161025f611e7e565b6115fa565b6116639192503d805f833e61059e8183611ba5565b90836115f4565b6001546116798160070b61211b565b6001600160401b0316906001600160401b031916176001556116a582808080600f335af161025f611e7e565b6115bf565b34610267576020366003190112610267576004356001600160401b038111610267575f6116de61055c923690600401611be1565b6040518093819263b46a8d6160e01b835230600484016120f9565b3461026757608036600319011261026757611712611b0b565b61171a611b21565b906044356001600160401b038111610267575f61173e61177a923690600401611be1565b611746611e2c565b6040805163ad5c4cdd60e01b81526001600160a01b0390961660048701526024860152939283918291906044830190611b37565b038183305af16117d3575b5061178c57005b5f808080600f610265956001546117a58160070b61211b565b6001600160401b031667ffffffffffffffff1991909116176001556001600160a01b03165af161025f611e7e565b6117e6903d805f833e61059e8183611ba5565b611785565b34610267576080366003190112610267576004356001600160401b0381116102675761181b903690600401611be1565b6024356001600160401b03811161026757602061183f611872923690600401611d64565b611847611e1d565b93611850611e2c565b946118b3575b604051631758efa960e11b8152938492839230600485016121b5565b03815f6108015af190811561029a575f91611894575b50156102675761091157005b6118ad915060203d602011610293576102858183611ba5565b82611888565b6001546118c28160070b61211b565b6001600160401b0316906001600160401b031916176001556118ee5f808080600f335af161025f611e7e565b611856565b346102675761055c5f610c7c36611c9f565b34610267576020366003190112610267576004356001600160401b038111610267575f611939611975923690600401611be1565b60606040805161194881611b5b565b8281528260208201520152604051809381926354212a8960e01b8352602060048401526024830190611b37565b03816108015afa801561029a575f906119db575b610387906040519182916020835260406119c76119b28351606060208801526080870190611b37565b6020840151868203601f190184880152611c27565b910151838203601f19016060850152611c27565b503d805f833e6119eb8183611ba5565b810190602081830312610267578051906001600160401b03821161026757016060818303126102675760405190611a2182611b5b565b80516001600160401b0381116102675783611a3d918301611f2f565b825260208101516001600160401b0381116102675783611a5e918301611f57565b60208301526040810151926001600160401b0384116102675761038793611a859201611f57565b6040820152611989565b34610267576020366003190112610267575f8061038792611aae611b0b565b6305431f4560e41b602083019081526001600160a01b03909116602480840191909152825290611adf604482611ba5565b51906108015afa611af7611af1611e7e565b91611ead565b604051918291602083526020830190611b37565b600435906001600160a01b038216820361026757565b602435906001600160a01b038216820361026757565b805180835260209291819084018484015e5f828201840152601f01601f1916010190565b606081019081106001600160401b03821117611b7657604052565b634e487b7160e01b5f52604160045260245ffd5b604081019081106001600160401b03821117611b7657604052565b90601f801991011681019081106001600160401b03821117611b7657604052565b6001600160401b038111611b7657601f01601f191660200190565b81601f8201121561026757803590611bf882611bc6565b92611c066040519485611ba5565b8284526020838301011161026757815f926020809301838601378301015290565b9080602083519182815201916020808360051b8301019401925f915b838310611c5257505050505090565b9091929394602080600192601f19858203018652885190604060ff81611c818551606086526060860190611b37565b94868101518786015201511691015297019301930191939290611c43565b906040600319830112610267576004356001600160a01b03811681036102675791602435906001600160401b03821161026757611cde91600401611be1565b90565b9080602083519182815201916020808360051b8301019401925f915b838310611d0c57505050505090565b9091929394602080600192601f198582030186528851908280611d388451604085526040850190611b37565b93015191015297019301930191939290611cfd565b6001600160401b038111611b765760051b60200190565b81601f8201121561026757803590611d7b82611d4d565b92611d896040519485611ba5565b82845260208085019360051b830101918183116102675760208101935b838510611db557505050505090565b84356001600160401b0381116102675782016040818503601f1901126102675760405191611de283611b8a565b6020820135926001600160401b03841161026757604083611e0a886020809881980101611be1565b8352013583820152815201940193611da6565b60443590811515820361026757565b60643590811515820361026757565b60243590811515820361026757565b3590811515820361026757565b6024359063ffffffff8216820361026757565b35906001600160401b038216820361026757565b3d15611ea8573d90611e8f82611bc6565b91611e9d6040519384611ba5565b82523d5f602084013e565b606090565b15611eb457565b60405162461bcd60e51b815260206004820152601f60248201527f6661696c65642073746174696343616c6c20746f20707265636f6d70696c65006044820152606490fd5b929192611f0582611bc6565b91611f136040519384611ba5565b829481845281830111610267578281602093845f96015e010152565b9080601f83011215610267578151611cde92602001611ef9565b519060ff8216820361026757565b9080601f8301121561026757815191611f6f83611d4d565b92611f7d6040519485611ba5565b80845260208085019160051b830101918383116102675760208101915b838310611fa957505050505090565b82516001600160401b038111610267578201906060828703601f1901126102675760405190611fd782611b5b565b6020830151916001600160401b038311610267576120146060856120038b602080999881990101611f2f565b845260408101518685015201611f49565b6040820152815201920191611f9a565b602081830312610267578051906001600160401b038211610267570181601f820112156102675780519061205782611d4d565b926120656040519485611ba5565b82845260208085019360051b830101918183116102675760208101935b83851061209157505050505090565b84516001600160401b0381116102675782016040818503601f19011261026757604051916120be83611b8a565b6020820151926001600160401b038411610267576040836120e6886020809881980101611f2f565b8352015183820152815201940193612082565b6001600160a01b039091168152604060208201819052611cde92910190611b37565b60070b677fffffffffffffff81146121335760010190565b634e487b7160e01b5f52601160045260245ffd5b1561214e57565b60405162461bcd60e51b815260206004820152602160248201527f4661696c656420746f2073656e6420457468657220746f2064656c656761746f6044820152603960f91b6064820152608490fd5b90816020910312610267575180151581036102675790565b6001600160a01b039091168152606060208201819052611cde9391926121dd91840190611b37565b916040818403910152611ce1565b906020828203126102675781516001600160401b03811161026757611cde9201611f57565b60070b60010190677fffffffffffffff8213677fffffffffffffff1983121761213357565b60070b5f190190677fffffffffffffff198212677fffffffffffffff83131761213357565b6001600160a01b03909116815263ffffffff909116602082015260400190565b51906001600160401b03821682036102675756fea26469706673582212204285fecbb5b7c0f1b6d9257eddcf266c329538b09451a3c8aa67780d6932f77a64736f6c634300081c0033290decd9548b62a8d60345a988386fc84ba6bc95484008f6362f93160ef3e563",
  "linkReferences": {},
  "deployedLinkReferences": {},
  "immutableReferences": {},
  "inputSourceName": "project/solidity/precompiles/testutil/contracts/DistributionCaller.sol",
  "buildInfoId": "solc-0_8_28-e55ad96646b3bb5046840fe24a1f6856fc44be2c"
}