{
  "_format": "hh-sol-artifact-1",
  "contractName": "FlashLoan",
  "sourceName": "solidity/precompiles/testutil/contracts/FlashLoan.sol",
  "abi": [
    {
      "inputs": [],
      "stateMutability": "nonpayable",
      "type": "constructor"
    },
    {
      "inputs": [
        {
          "internalType": "address",
          "name": "_delegator",
          "type": "address"
        },
        {
          "internalType": "address",
          "name": "_validator",
          "type": "address"
        },
        {
          "internalType": "uint256",
          "name": "_amount",
          "type": "uint256"
        }
      ],
      "name": "delegateWithRevert",
      "outputs": [],
      "stateMutability": "nonpayable",
      "type": "function"
    },
    {
      "inputs": [
        {
          "internalType": "address",
          "name": "_token",
          "type": "address"
        },
        {
          "internalType": "address",
          "name": "_validator",
          "type": "address"
        }
      ],
      "name": "flashLoan",
      "outputs": [
        {
          "internalType": "bool",
          "name": "",
          "type": "bool"
        }
      ],
      "stateMutability": "payable",
      "type": "function"
    },
    {
      "inputs": [
        {
          "internalType": "address",
          "name": "_token",
          "type": "address"
        },
        {
          "internalType": "address",
          "name": "_validator",
          "type": "address"
        }
      ],
      "name": "flashLoanWithRevert",
      "outputs": [
        {
          "internalType": "bool",
          "name": "",
          "type": "bool"
        }
      ],
      "stateMutability": "payable",
      "type": "function"
    },
    {
      "inputs": [],
      "name": "owner",
      "outputs": [
        {
          "internalType": "address",
          "name": "",
          "type": "address"
        }
      ],
      "stateMutability": "view",
      "type": "function"
    }
  ],
  "bytecode": "0x60808060405234610027575f80546001600160a01b03191633179055610996908161002c8239f35b5f80fdfe60406080815260049081361015610014575f80fd5b5f91823560e01c9081631e82ecb3146103795781632ffb3b2d146102e857816387729bc6146100765750638da5cb5b1461004c575f80fd5b34610072578160031936011261007257905490516001600160a01b039091168152602090f35b5080fd5b8284816003193601126102e55761008b610726565b92610094610740565b825490946001600160a01b03916100ae9083163314610756565b8451636eb1769f60e11b815233848201908152306020828101919091529793909216918790829081906040010381855afa80156102385785906102b6575b6100f991503411156107e2565b8451906370a0823160e01b80835230858401528783602481855afa9283156102ac578693610279575b5086516323b872dd60e01b81528881806101403430338c850161083f565b03818a875af190811561026f57899291610161918991610242575b50610861565b6024885180948193825230898301525afa908115610238578591610205575b5061018f6101959234906108be565b146108df565b303b156102015790826101be9392855180958192632ffb3b2d60e01b835234903087850161083f565b038183305af16101d3575b5050505160018152f35b67ffffffffffffffff83116101ee57505081528280806101c9565b634e487b7160e01b825260419052602490fd5b8280fd5b90508681813d8311610231575b61021c81836107ac565b8101031261022d575161018f610180565b8480fd5b503d610212565b86513d87823e3d90fd5b6102629150843d8611610268575b61025a81836107ac565b810190610827565b8b61015b565b503d610250565b88513d89823e3d90fd5b9092508781813d83116102a5575b61029181836107ac565b810103126102a157519188610122565b8580fd5b503d610287565b87513d88823e3d90fd5b508681813d83116102de575b6102cc81836107ac565b8101031261022d576100f990516100ec565b503d6102c2565b80fd5b905034610201576060366003190112610201576020610305610726565b61030d610740565b845163c26f3acf60e01b8152938492839261032e926044359290850161083f565b0381866108005af190811561036d576102e59250839161034f575b5061091f565b610367915060203d81116102685761025a81836107ac565b5f610349565b505051903d90823e3d90fd5b9050816003193601126102015761038e610726565b92610397610740565b815490946001600160a01b03916103b19083163314610756565b8451636eb1769f60e11b815233858201908152306020828101919091529793909216918790829081906040010381855afa801561071c5784906106ed575b6103fc91503411156107e2565b8451926370a0823160e01b92838552308686015260249488818781875afa9081156106095783916106c0575b5087516323b872dd60e01b81528981806104463430338e850161083f565b038187895af190811561069957906104649185916106a35750610861565b875190858252308883015289828881885afa91821561069957908a92918592610663575b506104b7939161018f61049c9234906108be565b88518093819263c26f3acf60e01b83523490308c850161083f565b0381856108005af190811561064257906104d791839161064c575061091f565b855192808452308685015287848681865afa938415610642578294610613575b50865163a9059cbb60e01b815233878201523486820152888160448186885af1801561060957908992916105ec575b50858851809581938252308a8301525afa9182156105e05781926105b1575b5034830392831161059f57500361055f5750505160018152f35b606493601b9293519362461bcd60e51b85528401528201527f466c617368206c6f616e2072657061796d656e74206661696c656400000000006044820152fd5b634e487b7160e01b8152601185528390fd5b9091508681813d83116105d9575b6105c981836107ac565b810103126100725751905f610545565b503d6105bf565b508551903d90823e3d90fd5b61060290833d85116102685761025a81836107ac565b505f610526565b88513d85823e3d90fd5b9093508781813d831161063b575b61062b81836107ac565b810103126100725751925f6104f7565b503d610621565b87513d84823e3d90fd5b6103679150893d8b116102685761025a81836107ac565b8092508391933d8311610692575b61067b81836107ac565b8101031261068e5751899161049c610488565b8380fd5b503d610671565b89513d86823e3d90fd5b6106ba91508b3d8d116102685761025a81836107ac565b5f61015b565b90508881813d83116106e6575b6106d781836107ac565b8101031261020157515f610428565b503d6106cd565b508681813d8311610715575b61070381836107ac565b8101031261068e576103fc90516103ef565b503d6106f9565b86513d86823e3d90fd5b600435906001600160a01b038216820361073c57565b5f80fd5b602435906001600160a01b038216820361073c57565b1561075d57565b60405162461bcd60e51b815260206004820152602160248201527f4f6e6c79206f776e65722063616e2063616c6c20746869732066756e6374696f6044820152603760f91b6064820152608490fd5b90601f8019910116810190811067ffffffffffffffff8211176107ce57604052565b634e487b7160e01b5f52604160045260245ffd5b156107e957565b60405162461bcd60e51b8152602060048201526016602482015275496e73756666696369656e7420616c6c6f77616e636560501b6044820152606490fd5b9081602091031261073c5751801515810361073c5790565b6001600160a01b03918216815291166020820152604081019190915260600190565b1561086857565b60405162461bcd60e51b815260206004820152602860248201527f4661696c656420746f207472616e7366657220746f6b656e7320666f7220666c60448201526730b9b4103637b0b760c11b6064820152608490fd5b919082018092116108cb57565b634e487b7160e01b5f52601160045260245ffd5b156108e657565b60405162461bcd60e51b8152602060048201526011602482015270119b185cda081b1bd85b8819985a5b1959607a1b6044820152606490fd5b1561092657565b60405162461bcd60e51b81526020600482015260126024820152716661696c656420746f2064656c656761746560701b6044820152606490fdfea2646970667358221220e8b4ab4b8648d32bb168576cca12f746525afdadc883d2856d7b9fc948d6d4c864736f6c63430008140033",
  "linkReferences": {},
  "deployedLinkReferences": {}
}