{
  "_format": "hh3-artifact-1",
  "contractName": "FlashLoan",
  "sourceName": "solidity/precompiles/testutil/contracts/FlashLoan.sol",
  "abi": [
    {
      "inputs": [],
      "stateMutability": "nonpayable",
      "type": "constructor"
    },
    {
      "inputs": [
        {
          "internalType": "address",
          "name": "_delegator",
          "type": "address"
        },
        {
          "internalType": "string",
          "name": "_validator",
          "type": "string"
        },
        {
          "internalType": "uint256",
          "name": "_amount",
          "type": "uint256"
        }
      ],
      "name": "delegateWithRevert",
      "outputs": [],
      "stateMutability": "nonpayable",
      "type": "function"
    },
    {
      "inputs": [
        {
          "internalType": "address",
          "name": "_token",
          "type": "address"
        },
        {
          "internalType": "string",
          "name": "_validator",
          "type": "string"
        }
      ],
      "name": "flashLoan",
      "outputs": [
        {
          "internalType": "bool",
          "name": "",
          "type": "bool"
        }
      ],
      "stateMutability": "payable",
      "type": "function"
    },
    {
      "inputs": [
        {
          "internalType": "address",
          "name": "_token",
          "type": "address"
        },
        {
          "internalType": "string",
          "name": "_validator",
          "type": "string"
        }
      ],
      "name": "flashLoanWithRevert",
      "outputs": [
        {
          "internalType": "bool",
          "name": "",
          "type": "bool"
        }
      ],
      "stateMutability": "payable",
      "type": "function"
    },
    {
      "inputs": [],
      "name": "owner",
      "outputs": [
        {
          "internalType": "address",
          "name": "",
          "type": "address"
        }
      ],
      "stateMutability": "view",
      "type": "function"
    }
  ],
  "bytecode": "0x60808060405234610027575f80546001600160a01b03191633179055610a44908161002c8239f35b5f80fdfe60806040818152600480361015610014575f80fd5b5f92833560e01c9081638da5cb5b1461070b575080638f5184301461065d5780639b4f21a9146104165763b86219241461004c575f80fd5b610055366107bf565b84549094916001600160a01b03916100709083163314610802565b8451636eb1769f60e11b815233858201908152306020828101919091529793909216918790829081906040010381855afa801561040c5784906103dd575b6100bb9150341115610858565b8451926370a0823160e01b92838552308686015260249488818781875afa9081156102ef5783916103ac575b5087516323b872dd60e01b8152338882019081523060208201523460408201528a9082908190606001038187895af1908115610385579061012f91859161038f575b506108b5565b875190858252308883015289828881885afa91821561038557908a9291859261034f575b50610188939161016761016d923490610912565b14610933565b8851809381926353266bbb60e01b83523490308c8501610973565b0381856108005af190811561032857906101a9918391610332575b506109cd565b855192808452308685015287848681865afa9384156103285782946102f9575b50865163a9059cbb60e01b815233878201523486820152888160448186885af180156102ef57908992916102c2575b50858851809581938252308a8301525afa9182156102b6578192610283575b503483039283116102715750036102315750505160018152f35b606493601b9293519362461bcd60e51b85528401528201527f466c617368206c6f616e2072657061796d656e74206661696c656400000000006044820152fd5b634e487b7160e01b8152601185528390fd5b9091508681813d83116102af575b61029b818361072f565b810103126102ab5751905f610217565b5080fd5b503d610291565b508551903d90823e3d90fd5b6102e190833d85116102e8575b6102d9818361072f565b81019061089d565b505f6101f8565b503d6102cf565b88513d85823e3d90fd5b9093508781813d8311610321575b610311818361072f565b810103126102ab5751925f6101c9565b503d610307565b87513d84823e3d90fd5b6103499150893d8b116102e8576102d9818361072f565b5f6101a3565b8092508391933d831161037e575b610367818361072f565b8101031261037a5751899161016d610153565b8380fd5b503d61035d565b89513d86823e3d90fd5b6103a691508b3d8d116102e8576102d9818361072f565b5f610129565b90508881813d83116103d6575b6103c3818361072f565b810103126103d257515f6100e7565b8280fd5b503d6103b9565b508681813d8311610405575b6103f3818361072f565b8101031261037a576100bb90516100ae565b503d6103e9565b86513d86823e3d90fd5b5091610421366107bf565b82549094916001600160a01b039161043c9083163314610802565b8451636eb1769f60e11b815233848201908152306020828101919091529793909216918790829081906040010381855afa80156105c657859061062e575b6104879150341115610858565b8451906370a0823160e01b80835230858401528783602481855afa9283156106245786936105f1575b5086516323b872dd60e01b81523386820190815230602082015234604082015289908290819060600103818a875af19081156105e7578992916104f99189916105d057506108b5565b6024885180948193825230898301525afa9081156105c6578591610593575b50610167610527923490610912565b303b156103d257908261055093928551809581926308f5184360e41b8352349030878501610973565b038183305af1610565575b5050505160018152f35b67ffffffffffffffff831161058057505081525f808061055b565b634e487b7160e01b825260419052602490fd5b90508681813d83116105bf575b6105aa818361072f565b810103126105bb5751610167610518565b8480fd5b503d6105a0565b86513d87823e3d90fd5b6103a69150843d86116102e8576102d9818361072f565b88513d89823e3d90fd5b9092508781813d831161061d575b610609818361072f565b810103126106195751915f6104b0565b8580fd5b503d6105ff565b87513d88823e3d90fd5b508681813d8311610656575b610644818361072f565b810103126105bb57610487905161047a565b503d61063a565b50346103d25760603660031901126103d25780356001600160a01b038116810361037a576024359067ffffffffffffffff82116105bb576106a360209236908501610765565b84516353266bbb60e01b815293849283926106c49260443592908501610973565b0381866108005af19081156106ff576106e4925083916106e757506109cd565b80fd5b610349915060203d81116102e8576102d9818361072f565b505051903d90823e3d90fd5b8490346102ab57816003193601126102ab5790546001600160a01b03168152602090f35b90601f8019910116810190811067ffffffffffffffff82111761075157604052565b634e487b7160e01b5f52604160045260245ffd5b81601f820112156107bb5780359067ffffffffffffffff8211610751576040519261079a601f8401601f19166020018561072f565b828452602083830101116107bb57815f926020809301838601378301015290565b5f80fd5b9060406003198301126107bb576004356001600160a01b03811681036107bb57916024359067ffffffffffffffff82116107bb576107ff91600401610765565b90565b1561080957565b60405162461bcd60e51b815260206004820152602160248201527f4f6e6c79206f776e65722063616e2063616c6c20746869732066756e6374696f6044820152603760f91b6064820152608490fd5b1561085f57565b60405162461bcd60e51b8152602060048201526016602482015275496e73756666696369656e7420616c6c6f77616e636560501b6044820152606490fd5b908160209103126107bb575180151581036107bb5790565b156108bc57565b60405162461bcd60e51b815260206004820152602860248201527f4661696c656420746f207472616e7366657220746f6b656e7320666f7220666c60448201526730b9b4103637b0b760c11b6064820152608490fd5b9190820180921161091f57565b634e487b7160e01b5f52601160045260245ffd5b1561093a57565b60405162461bcd60e51b8152602060048201526011602482015270119b185cda081b1bd85b8819985a5b1959607a1b6044820152606490fd5b9392919060018060a01b0316845260206060818601528151918260608701525f5b8381106109b9575050506080815f8260409488010152601f8019910116850101930152565b818101830151878201608001528201610994565b156109d457565b60405162461bcd60e51b81526020600482015260126024820152716661696c656420746f2064656c656761746560701b6044820152606490fdfea2646970667358221220eefccf3e38cdf78a105e4202e4699a97fa2d15044ec21e78237b2859331a51ab64736f6c63430008140033",
  "linkReferences": {},
  "deployedLinkReferences": {},
  "immutableReferences": {},
  "inputSourceName": "project/solidity/precompiles/testutil/contracts/FlashLoan.sol",
  "buildInfoId": "solc-0_8_20-fda2ffeb444d7d9486f659e7e357f970dc6ac662"
}