{
  "_format": "hh3-artifact-1",
  "contractName": "FlashLoan",
  "sourceName": "solidity/precompiles/testutil/contracts/FlashLoan.sol",
  "abi": [
    {
      "inputs": [],
      "stateMutability": "nonpayable",
      "type": "constructor"
    },
    {
      "inputs": [
        {
          "internalType": "address",
          "name": "_delegator",
          "type": "address"
        },
        {
          "internalType": "string",
          "name": "_validator",
          "type": "string"
        },
        {
          "internalType": "uint256",
          "name": "_amount",
          "type": "uint256"
        }
      ],
      "name": "delegateWithRevert",
      "outputs": [],
      "stateMutability": "nonpayable",
      "type": "function"
    },
    {
      "inputs": [
        {
          "internalType": "address",
          "name": "_token",
          "type": "address"
        },
        {
          "internalType": "string",
          "name": "_validator",
          "type": "string"
        }
      ],
      "name": "flashLoan",
      "outputs": [
        {
          "internalType": "bool",
          "name": "",
          "type": "bool"
        }
      ],
      "stateMutability": "payable",
      "type": "function"
    },
    {
      "inputs": [
        {
          "internalType": "address",
          "name": "_token",
          "type": "address"
        },
        {
          "internalType": "string",
          "name": "_validator",
          "type": "string"
        }
      ],
      "name": "flashLoanWithRevert",
      "outputs": [
        {
          "internalType": "bool",
          "name": "",
          "type": "bool"
        }
      ],
      "stateMutability": "payable",
      "type": "function"
    },
    {
      "inputs": [],
      "name": "owner",
      "outputs": [
        {
          "internalType": "address",
          "name": "",
          "type": "address"
        }
      ],
      "stateMutability": "view",
      "type": "function"
    }
  ],
  "bytecode": "0x608080604052346026575f80546001600160a01b03191633179055610a2d908161002b8239f35b5f80fdfe6080806040526004361015610012575f80fd5b5f905f3560e01c9081638da5cb5b14610713575080638f5184301461066d5780639b4f21a91461044a5763b86219241461004a575f80fd5b610053366107c1565b919061006960018060a01b03835416331461089e565b604051636eb1769f60e11b81523360048201523060248201526001600160a01b03919091169290602081604481875afa8015610317578390610416575b6100b391503411156108f4565b6040516370a0823160e01b815230600482015290602082602481875afa9182156103175783926103e2575b506040516323b872dd60e01b815233600482015230602482015234604482015260208160648187895af19081156103b857906101219185916103c3575b50610939565b6040516370a0823160e01b815230600482015291602083602481885afa9283156103b8578493610380575b5090610168610185936101626020943490610996565b146109b7565b604051809381926353266bbb60e01b83523490306004850161081c565b0381856108005af190811561035657906101a6918391610361575b5061085d565b6040516370a0823160e01b815230600482015291602083602481845afa928315610356578293610322575b5060405163a9059cbb60e01b815233600482015234602482015260208160448186865af18015610317576024939260209290916102ec575b506040516370a0823160e01b815230600482015293849182905afa9182156102df5781926102a7575b5034830392831161029357500361024e57602060405160018152f35b60405162461bcd60e51b815260206004820152601b60248201527f466c617368206c6f616e2072657061796d656e74206661696c656400000000006044820152606490fd5b634e487b7160e01b81526011600452602490fd5b9091506020813d6020116102d7575b816102c360209383610735565b810103126102d35751905f610232565b5f80fd5b3d91506102b6565b50604051903d90823e3d90fd5b61030b90833d8511610310575b6103038183610735565b810190610804565b610209565b503d6102f9565b6040513d85823e3d90fd5b9092506020813d60201161034e575b8161033e60209383610735565b810103126102d35751915f6101d1565b3d9150610331565b6040513d84823e3d90fd5b61037a915060203d602011610310576103038183610735565b5f6101a0565b9250906020833d6020116103b0575b8161039c60209383610735565b810103126102d3579151919061016861014c565b3d915061038f565b6040513d86823e3d90fd5b6103dc915060203d602011610310576103038183610735565b5f61011b565b9091506020813d60201161040e575b816103fe60209383610735565b810103126102d35751905f6100de565b3d91506103f1565b506020813d602011610442575b8161043060209383610735565b810103126102d3576100b390516100a6565b3d9150610423565b610453366107c1565b9061046860018060a01b035f5416331461089e565b604051636eb1769f60e11b81523360048201523060248201526001600160a01b039190911690602081604481855afa80156105df575f90610639575b6104b191503411156108f4565b6040516370a0823160e01b8152306004820152602081602481855afa9081156105df575f91610607575b506040516323b872dd60e01b8152336004820152306024820152346044820152916020836064815f855af19081156105df576105226020926024955f916105ea5750610939565b6040516370a0823160e01b815230600482015293849182905afa9182156105df575f926105a9575b509061016261055a923490610996565b303b156102d3575f61058391604051809381926308f5184360e41b83523490306004850161081c565b038183305af1610599575b602060405160018152f35b5f6105a391610735565b5f61058e565b91506020823d6020116105d7575b816105c460209383610735565b810103126102d35790519061016261054a565b3d91506105b7565b6040513d5f823e3d90fd5b6106019150843d8611610310576103038183610735565b8761011b565b90506020813d602011610631575b8161062260209383610735565b810103126102d35751836104db565b3d9150610615565b506020813d602011610665575b8161065360209383610735565b810103126102d3576104b190516104a4565b3d9150610646565b346102d35760603660031901126102d3576004356001600160a01b03811681036102d35760243567ffffffffffffffff81116102d3576106d6916106b7602092369060040161076b565b6040516353266bbb60e01b81529384928392604435916004850161081c565b03815f6108005af180156105df576102d3915f916106f4575061085d565b61070d915060203d602011610310576103038183610735565b826101a0565b346102d3575f3660031901126102d3575f546001600160a01b03168152602090f35b90601f8019910116810190811067ffffffffffffffff82111761075757604052565b634e487b7160e01b5f52604160045260245ffd5b81601f820112156102d35780359067ffffffffffffffff821161075757604051926107a0601f8401601f191660200185610735565b828452602083830101116102d357815f926020809301838601378301015290565b9060406003198301126102d3576004356001600160a01b03811681036102d357916024359067ffffffffffffffff82116102d3576108019160040161076b565b90565b908160209103126102d3575180151581036102d35790565b939291602060809160409360018060a01b0316875260608288015280519182918260608a0152018388015e5f828288010152601f8019910116850101930152565b1561086457565b60405162461bcd60e51b81526020600482015260126024820152716661696c656420746f2064656c656761746560701b6044820152606490fd5b156108a557565b60405162461bcd60e51b815260206004820152602160248201527f4f6e6c79206f776e65722063616e2063616c6c20746869732066756e6374696f6044820152603760f91b6064820152608490fd5b156108fb57565b60405162461bcd60e51b8152602060048201526016602482015275496e73756666696369656e7420616c6c6f77616e636560501b6044820152606490fd5b1561094057565b60405162461bcd60e51b815260206004820152602860248201527f4661696c656420746f207472616e7366657220746f6b656e7320666f7220666c60448201526730b9b4103637b0b760c11b6064820152608490fd5b919082018092116109a357565b634e487b7160e01b5f52601160045260245ffd5b156109be57565b60405162461bcd60e51b8152602060048201526011602482015270119b185cda081b1bd85b8819985a5b1959607a1b6044820152606490fdfea264697066735822122047d7fa8a9914fc70e1368b6c01048c4065dd6735d1dffce3ac30ced869e109d164736f6c634300081c0033",
  "linkReferences": {},
  "deployedLinkReferences": {},
  "immutableReferences": {},
  "inputSourceName": "project/solidity/precompiles/testutil/contracts/FlashLoan.sol",
  "buildInfoId": "solc-0_8_28-e55ad96646b3bb5046840fe24a1f6856fc44be2c"
}