{
  "_format": "hh-sol-artifact-1",
  "contractName": "GovCaller",
  "sourceName": "solidity/precompiles/testutil/contracts/GovCaller.sol",
  "abi": [
    {
      "inputs": [],
      "name": "counter",
      "outputs": [
        {
          "internalType": "int64",
          "name": "",
          "type": "int64"
        }
      ],
      "stateMutability": "view",
      "type": "function"
    },
    {
      "inputs": [],
      "name": "deposit",
      "outputs": [],
      "stateMutability": "payable",
      "type": "function"
    },
    {
      "inputs": [],
      "name": "getAuthority",
      "outputs": [
        {
          "internalType": "string",
          "name": "authorityBech32",
          "type": "string"
        },
        {
          "internalType": "address",
          "name": "authorityHex",
          "type": "address"
        }
      ],
      "stateMutability": "view",
      "type": "function"
    },
    {
      "inputs": [],
      "name": "getParams",
      "outputs": [
        {
          "components": [
            {
              "internalType": "int64",
              "name": "votingPeriod",
              "type": "int64"
            },
            {
              "components": [
                {
                  "internalType": "string",
                  "name": "denom",
                  "type": "string"
                },
                {
                  "internalType": "uint256",
                  "name": "amount",
                  "type": "uint256"
                }
              ],
              "internalType": "struct Coin[]",
              "name": "minDeposit",
              "type": "tuple[]"
            },
            {
              "internalType": "int64",
              "name": "maxDepositPeriod",
              "type": "int64"
            },
            {
              "internalType": "string",
              "name": "quorum",
              "type": "string"
            },
            {
              "internalType": "string",
              "name": "threshold",
              "type": "string"
            },
            {
              "internalType": "string",
              "name": "vetoThreshold",
              "type": "string"
            },
            {
              "internalType": "string",
              "name": "minInitialDepositRatio",
              "type": "string"
            },
            {
              "internalType": "string",
              "name": "proposalCancelRatio",
              "type": "string"
            },
            {
              "internalType": "string",
              "name": "proposalCancelDest",
              "type": "string"
            },
            {
              "internalType": "int64",
              "name": "expeditedVotingPeriod",
              "type": "int64"
            },
            {
              "internalType": "string",
              "name": "expeditedThreshold",
              "type": "string"
            },
            {
              "components": [
                {
                  "internalType": "string",
                  "name": "denom",
                  "type": "string"
                },
                {
                  "internalType": "uint256",
                  "name": "amount",
                  "type": "uint256"
                }
              ],
              "internalType": "struct Coin[]",
              "name": "expeditedMinDeposit",
              "type": "tuple[]"
            },
            {
              "internalType": "bool",
              "name": "burnVoteQuorum",
              "type": "bool"
            },
            {
              "internalType": "bool",
              "name": "burnProposalDepositPrevote",
              "type": "bool"
            },
            {
              "internalType": "bool",
              "name": "burnVoteVeto",
              "type": "bool"
            },
            {
              "internalType": "string",
              "name": "minDepositRatio",
              "type": "string"
            }
          ],
          "internalType": "struct Params",
          "name": "params",
          "type": "tuple"
        }
      ],
      "stateMutability": "view",
      "type": "function"
    },
    {
      "inputs": [
        {
          "internalType": "address payable",
          "name": "_randomAddr",
          "type": "address"
        },
        {
          "internalType": "uint64",
          "name": "_proposalId",
          "type": "uint64"
        },
        {
          "internalType": "bool",
          "name": "_before",
          "type": "bool"
        },
        {
          "internalType": "bool",
          "name": "_after",
          "type": "bool"
        }
      ],
      "name": "testCancelFromContractWithTransfer",
      "outputs": [
        {
          "internalType": "bool",
          "name": "success",
          "type": "bool"
        }
      ],
      "stateMutability": "payable",
      "type": "function"
    },
    {
      "inputs": [
        {
          "internalType": "uint64",
          "name": "_proposalId",
          "type": "uint64"
        }
      ],
      "name": "testCancelProposalFromContract",
      "outputs": [
        {
          "internalType": "bool",
          "name": "success",
          "type": "bool"
        }
      ],
      "stateMutability": "payable",
      "type": "function"
    },
    {
      "inputs": [
        {
          "internalType": "uint64",
          "name": "_proposalId",
          "type": "uint64"
        },
        {
          "internalType": "bool",
          "name": "_before",
          "type": "bool"
        },
        {
          "internalType": "bool",
          "name": "_after",
          "type": "bool"
        }
      ],
      "name": "testCancelWithTransfer",
      "outputs": [
        {
          "internalType": "bool",
          "name": "success",
          "type": "bool"
        }
      ],
      "stateMutability": "payable",
      "type": "function"
    },
    {
      "inputs": [
        {
          "internalType": "address payable",
          "name": "_depositorAddr",
          "type": "address"
        },
        {
          "internalType": "uint64",
          "name": "_proposalId",
          "type": "uint64"
        },
        {
          "components": [
            {
              "internalType": "string",
              "name": "denom",
              "type": "string"
            },
            {
              "internalType": "uint256",
              "name": "amount",
              "type": "uint256"
            }
          ],
          "internalType": "struct Coin[]",
          "name": "_deposit",
          "type": "tuple[]"
        }
      ],
      "name": "testDeposit",
      "outputs": [
        {
          "internalType": "bool",
          "name": "success",
          "type": "bool"
        }
      ],
      "stateMutability": "payable",
      "type": "function"
    },
    {
      "inputs": [
        {
          "internalType": "uint64",
          "name": "_proposalId",
          "type": "uint64"
        },
        {
          "components": [
            {
              "internalType": "string",
              "name": "denom",
              "type": "string"
            },
            {
              "internalType": "uint256",
              "name": "amount",
              "type": "uint256"
            }
          ],
          "internalType": "struct Coin[]",
          "name": "_deposit",
          "type": "tuple[]"
        }
      ],
      "name": "testDepositFromContract",
      "outputs": [
        {
          "internalType": "bool",
          "name": "success",
          "type": "bool"
        }
      ],
      "stateMutability": "payable",
      "type": "function"
    },
    {
      "inputs": [
        {
          "internalType": "address payable",
          "name": "_randomAddr",
          "type": "address"
        },
        {
          "internalType": "uint64",
          "name": "_proposalId",
          "type": "uint64"
        },
        {
          "components": [
            {
              "internalType": "string",
              "name": "denom",
              "type": "string"
            },
            {
              "internalType": "uint256",
              "name": "amount",
              "type": "uint256"
            }
          ],
          "internalType": "struct Coin[]",
          "name": "_deposit",
          "type": "tuple[]"
        },
        {
          "internalType": "bool",
          "name": "_before",
          "type": "bool"
        },
        {
          "internalType": "bool",
          "name": "_after",
          "type": "bool"
        }
      ],
      "name": "testDepositFromContractWithTransfer",
      "outputs": [
        {
          "internalType": "bool",
          "name": "success",
          "type": "bool"
        }
      ],
      "stateMutability": "payable",
      "type": "function"
    },
    {
      "inputs": [
        {
          "internalType": "uint64",
          "name": "_proposalId",
          "type": "uint64"
        },
        {
          "components": [
            {
              "internalType": "string",
              "name": "denom",
              "type": "string"
            },
            {
              "internalType": "uint256",
              "name": "amount",
              "type": "uint256"
            }
          ],
          "internalType": "struct Coin[]",
          "name": "_deposit",
          "type": "tuple[]"
        },
        {
          "internalType": "bool",
          "name": "_before",
          "type": "bool"
        },
        {
          "internalType": "bool",
          "name": "_after",
          "type": "bool"
        }
      ],
      "name": "testDepositWithTransfer",
      "outputs": [
        {
          "internalType": "bool",
          "name": "success",
          "type": "bool"
        }
      ],
      "stateMutability": "payable",
      "type": "function"
    },
    {
      "inputs": [
        {
          "internalType": "address",
          "name": "depositor",
          "type": "address"
        },
        {
          "internalType": "string",
          "name": "validatorAddress",
          "type": "string"
        },
        {
          "components": [
            {
              "internalType": "string",
              "name": "denom",
              "type": "string"
            },
            {
              "internalType": "uint256",
              "name": "amount",
              "type": "uint256"
            }
          ],
          "internalType": "struct Coin[]",
          "name": "amount",
          "type": "tuple[]"
        }
      ],
      "name": "testFundCommunityPool",
      "outputs": [
        {
          "internalType": "bool",
          "name": "success",
          "type": "bool"
        }
      ],
      "stateMutability": "nonpayable",
      "type": "function"
    },
    {
      "inputs": [
        {
          "internalType": "address",
          "name": "_proposerAddr",
          "type": "address"
        },
        {
          "internalType": "bytes",
          "name": "_jsonProposal",
          "type": "bytes"
        },
        {
          "components": [
            {
              "internalType": "string",
              "name": "denom",
              "type": "string"
            },
            {
              "internalType": "uint256",
              "name": "amount",
              "type": "uint256"
            }
          ],
          "internalType": "struct Coin[]",
          "name": "_deposit",
          "type": "tuple[]"
        }
      ],
      "name": "testSubmitProposal",
      "outputs": [
        {
          "internalType": "uint64",
          "name": "proposalId",
          "type": "uint64"
        }
      ],
      "stateMutability": "payable",
      "type": "function"
    },
    {
      "inputs": [
        {
          "internalType": "bytes",
          "name": "_jsonProposal",
          "type": "bytes"
        },
        {
          "components": [
            {
              "internalType": "string",
              "name": "denom",
              "type": "string"
            },
            {
              "internalType": "uint256",
              "name": "amount",
              "type": "uint256"
            }
          ],
          "internalType": "struct Coin[]",
          "name": "_deposit",
          "type": "tuple[]"
        }
      ],
      "name": "testSubmitProposalFromContract",
      "outputs": [
        {
          "internalType": "uint64",
          "name": "proposalId",
          "type": "uint64"
        }
      ],
      "stateMutability": "payable",
      "type": "function"
    },
    {
      "inputs": [
        {
          "internalType": "address payable",
          "name": "_randomAddr",
          "type": "address"
        },
        {
          "internalType": "bytes",
          "name": "_jsonProposal",
          "type": "bytes"
        },
        {
          "components": [
            {
              "internalType": "string",
              "name": "denom",
              "type": "string"
            },
            {
              "internalType": "uint256",
              "name": "amount",
              "type": "uint256"
            }
          ],
          "internalType": "struct Coin[]",
          "name": "_deposit",
          "type": "tuple[]"
        },
        {
          "internalType": "bool",
          "name": "_before",
          "type": "bool"
        },
        {
          "internalType": "bool",
          "name": "_after",
          "type": "bool"
        }
      ],
      "name": "testSubmitProposalFromContractWithTransfer",
      "outputs": [
        {
          "internalType": "uint64",
          "name": "",
          "type": "uint64"
        }
      ],
      "stateMutability": "payable",
      "type": "function"
    },
    {
      "inputs": [
        {
          "internalType": "bytes",
          "name": "_jsonProposal",
          "type": "bytes"
        },
        {
          "components": [
            {
              "internalType": "string",
              "name": "denom",
              "type": "string"
            },
            {
              "internalType": "uint256",
              "name": "amount",
              "type": "uint256"
            }
          ],
          "internalType": "struct Coin[]",
          "name": "_deposit",
          "type": "tuple[]"
        },
        {
          "internalType": "bool",
          "name": "_before",
          "type": "bool"
        },
        {
          "internalType": "bool",
          "name": "_after",
          "type": "bool"
        }
      ],
      "name": "testSubmitProposalWithTransfer",
      "outputs": [
        {
          "internalType": "uint64",
          "name": "",
          "type": "uint64"
        }
      ],
      "stateMutability": "payable",
      "type": "function"
    },
    {
      "inputs": [
        {
          "internalType": "address payable",
          "name": "depositor",
          "type": "address"
        },
        {
          "internalType": "uint64",
          "name": "_proposalId",
          "type": "uint64"
        },
        {
          "internalType": "bytes",
          "name": "denom",
          "type": "bytes"
        },
        {
          "internalType": "string",
          "name": "validatorAddress",
          "type": "string"
        }
      ],
      "name": "testTransferCancelFund",
      "outputs": [
        {
          "internalType": "bool",
          "name": "success",
          "type": "bool"
        }
      ],
      "stateMutability": "payable",
      "type": "function"
    },
    {
      "stateMutability": "payable",
      "type": "receive"
    }
  ],
  "bytecode": "0x6080806040523461001657611e18908161001b8239f35b5f80fdfe6080604052600436101561001a575b3615610018575f80fd5b005b5f3560e01c80630f6265fb146112f4578063258691e2146111b157806326c11ffa146110825780635e615a6b14610c0b57806361bc221a14610bec57806361f09ad214610b7f57806372ff5ec414610a435780637726ece0146108e95780638e7431d31461087057806391d6d8e71461073a57806397fd84d2146106b0578063b94c982214610490578063bc7bdf75146103e0578063d0e30db0146103d3578063e2b178a014610318578063e8702c34146102565763ed6c08f70361000e5760a03660031901126101fa576100ed611786565b6100f561179c565b604435916001600160401b038084116101fa5761011860209436906004016119ab565b94906101226118df565b9461012b6118ee565b95610211575b610150604051978893849363592581bb60e11b85523060048601611b41565b03815f6108055af1928315610206575f936101c7575b6020945061017b575b50506040519015158152f35b5f8080600f6101c09582958354906101958260070b611b6e565b67ffffffffffffffff1990921691161783556001600160a01b03165af16101ba611b86565b50611bb5565b5f8061016f565b92506020843d82116101fe575b816101e160209383611840565b810103126101fa576101f4602094611b11565b92610166565b5f80fd5b3d91506101d4565b6040513d5f823e3d90fd5b5f5461021f8160070b611b6e565b67ffffffffffffffff19909116908516175f90815561025190808080600f6001600160a01b038b165af16101ba611b86565b610131565b60603660031901126101fa5761026a611786565b6001600160401b036024358181116101fa5761028a9036906004016117c8565b9290604435918383116101fa576102c66102aa60209436906004016119ab565b90604051978895869563a8fdc91960e01b875260048701611add565b03815f6108055af1908115610206576020925f926102e9575b5060405191168152f35b61030a919250833d8111610311575b6103028183611840565b8101906119f2565b90836102df565b503d6102f8565b346101fa575f3660031901126101fa576040516307158bc560e51b81525f816004816108055afa8015610206575f905f9061037b575b610367925060405192839260408452604084019061191e565b6001600160a01b0390911660208301520390f35b50503d805f833e61038c8183611840565b81016040828203126101fa5781516001600160401b0381116101fa576020916103b6918401611c0e565b9101516001600160a01b03811681036101fa57610367919061034e565b5f3660031901126101fa57005b60403660031901126101fa576103f46117b2565b6024356001600160401b0381116101fa5761041560209136906004016119ab565b92610435604051948593849363592581bb60e11b85523060048601611b41565b03815f6108055af18015610206575f90610457575b6020906040519015158152f35b506020813d8211610488575b8161047060209383611840565b810103126101fa57610483602091611b11565b61044a565b3d9150610463565b346101fa5760603660031901126101fa576104a9611786565b6024356001600160401b0381116101fa576104c89036906004016118b2565b6001600160401b03604435116101fa573660236044350112156101fa5760443560040135906104f6826119db565b916105046040519384611840565b80835260208301903660248260051b6044350101116101fa57602460443501915b60248260051b60443501018310610634575050505f5460018160070b0190677fffffffffffffff1992677fffffffffffffff95848412878513176105e4576020926001600160401b031980956001600160401b03169116175f5561059d6040519687938493631758efa960e11b855260048501611dac565b03815f6108015af1928315610206575f936105f8575b505f54915f198360070b01948513908512176105e4576020936001600160401b03169116175f556040519015158152f35b634e487b7160e01b5f52601160045260245ffd5b9092506020813d60201161062c575b8161061460209383611840565b810103126101fa5761062590611b11565b91846105b3565b3d9150610607565b82356001600160401b0381116101fa5760406044358201360360231901126101fa5760405190610663826117f5565b6001600160401b03602482604435010135116101fa5760249260209283926044906106983683358301808a01350189016118b2565b83528135010135838201528152019301929050610525565b6020806003193601126101fa576106e4816106c96117b2565b6040518093819263519f184360e11b83523060048401611b1e565b03815f6108055af1908115610206575f91610705575b506040519015158152f35b90508181813d8311610733575b61071c8183611840565b810103126101fa5761072d90611b11565b826106fa565b503d610712565b60803660031901126101fa576001600160401b036004358181116101fa576107669036906004016117c8565b90916024358181116101fa5761078260209136906004016119ab565b9390946107bb6107906118d0565b956107996118df565b96610839575b60405163a8fdc91960e01b815297889485943060048701611add565b03815f6108055af1918215610206576020935f9361081a575b506107e3575b60405191168152f35b5f546107f18160070b611b6e565b8216906001600160401b031916175f556108155f808080600f335af16101ba611b86565b6107da565b610832919350843d8111610311576103028183611840565b91846107d4565b5f546108478160070b611b6e565b8716906001600160401b031916175f5561086b5f808080600f335af16101ba611b86565b61079f565b60603660031901126101fa57610884611786565b61088c61179c565b604435906001600160401b03928383116101fa576104356108b360209436906004016119ab565b604051968795869563592581bb60e11b875260018060a01b03166004870152166024850152606060448501526064840191611a31565b60a03660031901126101fa576108fd611786565b6001600160401b036024358181116101fa5761091d9036906004016117c8565b9190926044358281116101fa5761093a60209136906004016119ab565b9490956109736109486118df565b966109516118ee565b976109fe575b60405163a8fdc91960e01b815298899485943060048701611add565b03815f6108055af1928315610206576020945f946109df575b5061099b575060405191168152f35b5f808080600f6109d99582546109b38160070b611b6e565b67ffffffffffffffff199091169089161783556001600160a01b03165af16101ba611b86565b836102df565b6109f7919450853d8111610311576103028183611840565b928561098c565b5f54610a0c8160070b611b6e565b67ffffffffffffffff19909116908816175f908155610a3e90808080600f6001600160a01b038c165af16101ba611b86565b610957565b60803660031901126101fa57610a576117b2565b602435906001600160401b038083116101fa57610a7a60209336906004016119ab565b9390610a846118d0565b93610a8d6118df565b94610b48575b610ab2604051968793849363592581bb60e11b85523060048601611b41565b03815f6108055af1918215610206575f92610b0d575b60209350610adb57506040519015158152f35b5f5490610aea8260070b611b6e565b16906001600160401b031916175f5561072d5f808080600f335af16101ba611b86565b91506020833d8211610b40575b81610b2760209383611840565b810103126101fa57610b3a602093611b11565b91610ac8565b3d9150610b1a565b5f54610b568160070b611b6e565b8516906001600160401b031916175f55610b7a5f808080600f335af16101ba611b86565b610a93565b60403660031901126101fa576001600160401b036004358181116101fa57610bab9036906004016117c8565b602492919235908282116101fa576102c693610bcd60209336906004016119ab565b60405163a8fdc91960e01b815296879485949193913060048701611add565b346101fa575f3660031901126101fa5760205f5460070b604051908152f35b346101fa575f3660031901126101fa5760606101e0604051610c2c81611824565b5f81528260208201525f604082015282808201528260808201528260a08201528260c08201528260e0820152826101008201525f61012082015282610140820152826101608201525f6101808201525f6101a08201525f6101c08201520152604051635e615a6b60e01b81525f816004816108055afa8015610206575f90610e08575b610e049060405191829160208352805160070b60208401526080836101e0610dcb610db5610d90610d7a610d65610d51610d3d610d278b60208101519a6060610d066102009d8e6040850152610220840190611943565b92604081015160070b82840152015190601f199d8e8285030191015261191e565b8d60808d01519060a08d8285030191015261191e565b60a08b01518d82038b0160c08f015261191e565b60c08a01518c82038a0160e08e015261191e565b60e0890151888c8303016101008d015261191e565b610100880151878b8303016101208c015261191e565b61012087015160070b6101408a0152610140870151868a8303016101608b015261191e565b61016086015185898303016101808a0152611943565b9361018081015115156101a08801526101a081015115156101c08801526101c0810151151582880152015191858403019085015261191e565b0390f35b503d90815f823e610e198282611840565b60208183810103126101fa578051916001600160401b0383116101fa5761020083830182840103126101fa5760405191610e5283611824565b610e5d848201611c00565b8352602084820101516001600160401b0381116101fa57610e85908383019086840101611c50565b6020840152610e98604085830101611c00565b6040840152606084820101516001600160401b0381116101fa57610ec3908383019086840101611c0e565b6060840152608084820101516001600160401b0381116101fa57610eee908383019086840101611c0e565b608084015260a084820101516001600160401b0381116101fa57610f19908383019086840101611c0e565b60a084015260c084820101516001600160401b0381116101fa57610f44908383019086840101611c0e565b60c084015260e084820101516001600160401b0381116101fa57610f6f908383019086840101611c0e565b60e084015261010084820101516001600160401b0381116101fa57610f9b908383019086840101611c0e565b610100840152610fb061012085830101611c00565b61012084015261014084820101516001600160401b0381116101fa57610fdd908383019086840101611c0e565b61014084015261016084820101516001600160401b0381116101fa5761100a908383019086840101611c50565b61016084015261101f61018085830101611b11565b6101808401526110346101a085830101611b11565b6101a08401526110496101c085830101611b11565b6101c08401526101e084820101516001600160401b0381116101fa57610e0494611077938301920101611c0e565b6101e0820152610caf565b60603660031901126101fa576110966117b2565b60243580151581036101fa5760206110d1926110b06118d0565b92611173575b6040518094819263519f184360e11b83523060048401611b1e565b03815f6108055af1908115610206575f91611138575b602092506110fa575b6040519015158152f35b5f546111088160070b611b6e565b6001600160401b0316906001600160401b031916175f556111335f808080600f335af16101ba611b86565b6110f0565b90506020823d821161116b575b8161115260209383611840565b810103126101fa57611165602092611b11565b906110e7565b3d9150611145565b5f546111818160070b611b6e565b6001600160401b0316906001600160401b031916175f556111ac5f808080600f335af16101ba611b86565b6110b6565b60803660031901126101fa576112056111c8611786565b6111d061179c565b9060206111db6118d0565b926111e46118df565b936112ae575b6040518095819263519f184360e11b83523060048401611b1e565b03815f6108055af1918215610206575f92611273575b6020935061122e57506040519015158152f35b5f808080600f61072d9582546112468160070b611b6e565b6001600160401b031667ffffffffffffffff19919091161783556001600160a01b03165af16101ba611b86565b91506020833d82116112a6575b8161128d60209383611840565b810103126101fa576112a0602093611b11565b9161121b565b3d9150611280565b5f546112bc8160070b611b6e565b6001600160401b0316906001600160401b031916175f556112ef5f808080600f60018060a01b0389165af16101ba611b86565b6111ea565b60803660031901126101fa57611308611786565b61131061179c565b9060448035916001600160401b03928381116101fa576113349036906004016117c8565b93909160649485358381116101fa576113519036906004016118b2565b9160018060a01b0316925f546113698160070b611b6e565b82166001600160401b0319809216175f555f8080806001895af161138b611b86565b5015611739576113b597986040519063519f184360e11b8252818060209b8c933060048401611b1e565b03815f6108055af15f9181611702575b506114a4578989896113d5611d03565b6308c379a014611420575b7f63616e63656c50726f706f73616c206661696c65642073696c656e746c790000906040519262461bcd60e51b84526004840152601e6024840152820152fd5b611428611d1e565b8061143357506113e0565b8261147f6037604051809476031b0b731b2b6283937b837b9b0b6103330b4b632b21d1604d1b8583015261146f815180928786860191016118fd565b8101036017810185520183611840565b6114a060405192839262461bcd60e51b84526004840152602483019061191e565b0390fd5b156116bf57908794929593915f54916114bf8360070b611b6e565b169116175f55604051926114d2846117f5565b600184525f5b8581106116905750946114fc61153696604051926114f5846117f5565b369161187c565b815260028582015261150d84611d8b565b5261151783611d8b565b505f604051809681958294635ca64c1160e11b84528660048501611dac565b03925af15f9181611659575b5061160b5750611550611d03565b6308c379a0146115a6575b6084927f66756e64436f6d6d756e697479506f6f6c206661696c65642073696c656e746c607960f81b926040519462461bcd60e51b8652600486015260216024860152840152820152fd5b6115ae611d1e565b806115b9575061155b565b8261147f603a60405180947f66756e64436f6d6d756e697479506f6f6c206661696c65643a20000000000000858301526115fb815180928786860191016118fd565b810103601a810185520183611840565b1561161a575060405160018152f35b7f66756e64436f6d6d756e697479506f6f6c2072657475726e65642066616c7365906040519262461bcd60e51b84528060048501526024840152820152fd5b9091508381813d8311611689575b6116718183611840565b810103126101fa5761168290611b11565b9085611542565b503d611667565b604096939591929496516116a3816117f5565b606081525f8382015282828901015201908794929593916114d8565b60405162461bcd60e51b815260048101899052601d60248201527f63616e63656c50726f706f73616c2072657475726e65642066616c7365000000818901528990fd5b9091508981813d8311611732575b61171a8183611840565b810103126101fa5761172b90611b11565b908b6113c5565b503d611710565b60405162461bcd60e51b815260206004820152602160248201527f4661696c656420746f2073656e6420457468657220746f206465706f7369746f81890152603960f91b818a0152608490fd5b600435906001600160a01b03821682036101fa57565b602435906001600160401b03821682036101fa57565b600435906001600160401b03821682036101fa57565b9181601f840112156101fa578235916001600160401b0383116101fa57602083818601950101116101fa57565b604081019081106001600160401b0382111761181057604052565b634e487b7160e01b5f52604160045260245ffd5b61020081019081106001600160401b0382111761181057604052565b90601f801991011681019081106001600160401b0382111761181057604052565b6001600160401b03811161181057601f01601f191660200190565b92919261188882611861565b916118966040519384611840565b8294818452818301116101fa578281602093845f960137010152565b9080601f830112156101fa578160206118cd9335910161187c565b90565b6044359081151582036101fa57565b6064359081151582036101fa57565b6084359081151582036101fa57565b5f5b83811061190e5750505f910152565b81810151838201526020016118ff565b90602091611937815180928185528580860191016118fd565b601f01601f1916010190565b80518083526020600582901b8401810193928101925f908201805b84831061196e5750505050505090565b9091929394958480828460019403865289519082806119958451604080865285019061191e565b930151910152980193019301919493929061195e565b9181601f840112156101fa578235916001600160401b0383116101fa576020808501948460051b0101116101fa57565b6001600160401b0381116118105760051b60200190565b908160209103126101fa57516001600160401b03811681036101fa5790565b908060209392818452848401375f828201840152601f01601f1916010190565b90918092808252602080920191808260051b86010194845f915b848310611a5c575050505050505090565b90919293949596601f198282030187528735603e19843603018112156101fa5783018035601e19823603018112156101fa578101908682359201906001600160401b0383116101fa5782360382136101fa576001938880611ac881969582966040808752860191611a11565b93013591015299019701959493019190611a4b565b93916118cd9593611b039260018060a01b03168652606060208701526060860191611a11565b926040818503910152611a31565b519081151582036101fa57565b6001600160a01b0390911681526001600160401b03909116602082015260400190565b6001600160401b036118cd959360609360018060a01b031683521660208201528160408201520191611a31565b60070b677fffffffffffffff81146105e45760010190565b3d15611bb0573d90611b9782611861565b91611ba56040519384611840565b82523d5f602084013e565b606090565b15611bbc57565b606460405162461bcd60e51b815260206004820152602060248201527f4661696c656420746f2073656e6420457468657220746f2070726f706f7365726044820152fd5b51908160070b82036101fa57565b81601f820112156101fa578051611c2481611861565b92611c326040519485611840565b818452602082840101116101fa576118cd91602080850191016118fd565b81601f820112156101fa578051611c66816119db565b92604091611c7683519586611840565b808552602093848087019260051b820101938385116101fa57858201925b858410611ca5575050505050505090565b8351906001600160401b03918281116101fa5784019083601f1983890301126101fa578351611cd3816117f5565b898301519384116101fa578483611cf08a8d809881980101611c0e565b8352015183820152815201930192611c94565b5f9060033d11611d0f57565b905060045f803e5f5160e01c90565b5f60443d106118cd57604051600319913d83016004833e81516001600160401b03918282113d602484011117611d7a57818401948551938411611d82573d85010160208487010111611d7a57506118cd92910160200190611840565b949350505050565b50949350505050565b805115611d985760200190565b634e487b7160e01b5f52603260045260245ffd5b6001600160a01b0390911681526060602082018190526118cd939192611dd49184019061191e565b91604081840391015261194356fea26469706673582212201b36848cdaf964f093efaabc0ee8bf61e852da594bf9ccc9e2e358ecb2a11fc064736f6c63430008140033",
  "linkReferences": {},
  "deployedLinkReferences": {},
  "immutableReferences": {},
  "inputSourceName": "project/solidity/precompiles/testutil/contracts/GovCaller.sol",
  "buildInfoId": "solc-0_8_20-429c990f0937684ef883cdd3aa04d65f2fbd3fb6"
}