{
  "_format": "hh3-artifact-1",
  "contractName": "GovCaller",
  "sourceName": "solidity/precompiles/testutil/contracts/GovCaller.sol",
  "abi": [
    {
      "inputs": [],
      "name": "counter",
      "outputs": [
        {
          "internalType": "int64",
          "name": "",
          "type": "int64"
        }
      ],
      "stateMutability": "view",
      "type": "function"
    },
    {
      "inputs": [],
      "name": "deposit",
      "outputs": [],
      "stateMutability": "payable",
      "type": "function"
    },
    {
      "inputs": [],
      "name": "getParams",
      "outputs": [
        {
          "components": [
            {
              "internalType": "int64",
              "name": "votingPeriod",
              "type": "int64"
            },
            {
              "components": [
                {
                  "internalType": "string",
                  "name": "denom",
                  "type": "string"
                },
                {
                  "internalType": "uint256",
                  "name": "amount",
                  "type": "uint256"
                }
              ],
              "internalType": "struct Coin[]",
              "name": "minDeposit",
              "type": "tuple[]"
            },
            {
              "internalType": "int64",
              "name": "maxDepositPeriod",
              "type": "int64"
            },
            {
              "internalType": "string",
              "name": "quorum",
              "type": "string"
            },
            {
              "internalType": "string",
              "name": "threshold",
              "type": "string"
            },
            {
              "internalType": "string",
              "name": "vetoThreshold",
              "type": "string"
            },
            {
              "internalType": "string",
              "name": "minInitialDepositRatio",
              "type": "string"
            },
            {
              "internalType": "string",
              "name": "proposalCancelRatio",
              "type": "string"
            },
            {
              "internalType": "string",
              "name": "proposalCancelDest",
              "type": "string"
            },
            {
              "internalType": "int64",
              "name": "expeditedVotingPeriod",
              "type": "int64"
            },
            {
              "internalType": "string",
              "name": "expeditedThreshold",
              "type": "string"
            },
            {
              "components": [
                {
                  "internalType": "string",
                  "name": "denom",
                  "type": "string"
                },
                {
                  "internalType": "uint256",
                  "name": "amount",
                  "type": "uint256"
                }
              ],
              "internalType": "struct Coin[]",
              "name": "expeditedMinDeposit",
              "type": "tuple[]"
            },
            {
              "internalType": "bool",
              "name": "burnVoteQuorum",
              "type": "bool"
            },
            {
              "internalType": "bool",
              "name": "burnProposalDepositPrevote",
              "type": "bool"
            },
            {
              "internalType": "bool",
              "name": "burnVoteVeto",
              "type": "bool"
            },
            {
              "internalType": "string",
              "name": "minDepositRatio",
              "type": "string"
            }
          ],
          "internalType": "struct Params",
          "name": "params",
          "type": "tuple"
        }
      ],
      "stateMutability": "view",
      "type": "function"
    },
    {
      "inputs": [
        {
          "internalType": "address payable",
          "name": "_randomAddr",
          "type": "address"
        },
        {
          "internalType": "uint64",
          "name": "_proposalId",
          "type": "uint64"
        },
        {
          "internalType": "bool",
          "name": "_before",
          "type": "bool"
        },
        {
          "internalType": "bool",
          "name": "_after",
          "type": "bool"
        }
      ],
      "name": "testCancelFromContractWithTransfer",
      "outputs": [
        {
          "internalType": "bool",
          "name": "success",
          "type": "bool"
        }
      ],
      "stateMutability": "payable",
      "type": "function"
    },
    {
      "inputs": [
        {
          "internalType": "uint64",
          "name": "_proposalId",
          "type": "uint64"
        }
      ],
      "name": "testCancelProposalFromContract",
      "outputs": [
        {
          "internalType": "bool",
          "name": "success",
          "type": "bool"
        }
      ],
      "stateMutability": "payable",
      "type": "function"
    },
    {
      "inputs": [
        {
          "internalType": "uint64",
          "name": "_proposalId",
          "type": "uint64"
        },
        {
          "internalType": "bool",
          "name": "_before",
          "type": "bool"
        },
        {
          "internalType": "bool",
          "name": "_after",
          "type": "bool"
        }
      ],
      "name": "testCancelWithTransfer",
      "outputs": [
        {
          "internalType": "bool",
          "name": "success",
          "type": "bool"
        }
      ],
      "stateMutability": "payable",
      "type": "function"
    },
    {
      "inputs": [
        {
          "internalType": "address payable",
          "name": "_depositorAddr",
          "type": "address"
        },
        {
          "internalType": "uint64",
          "name": "_proposalId",
          "type": "uint64"
        },
        {
          "components": [
            {
              "internalType": "string",
              "name": "denom",
              "type": "string"
            },
            {
              "internalType": "uint256",
              "name": "amount",
              "type": "uint256"
            }
          ],
          "internalType": "struct Coin[]",
          "name": "_deposit",
          "type": "tuple[]"
        }
      ],
      "name": "testDeposit",
      "outputs": [
        {
          "internalType": "bool",
          "name": "success",
          "type": "bool"
        }
      ],
      "stateMutability": "payable",
      "type": "function"
    },
    {
      "inputs": [
        {
          "internalType": "uint64",
          "name": "_proposalId",
          "type": "uint64"
        },
        {
          "components": [
            {
              "internalType": "string",
              "name": "denom",
              "type": "string"
            },
            {
              "internalType": "uint256",
              "name": "amount",
              "type": "uint256"
            }
          ],
          "internalType": "struct Coin[]",
          "name": "_deposit",
          "type": "tuple[]"
        }
      ],
      "name": "testDepositFromContract",
      "outputs": [
        {
          "internalType": "bool",
          "name": "success",
          "type": "bool"
        }
      ],
      "stateMutability": "payable",
      "type": "function"
    },
    {
      "inputs": [
        {
          "internalType": "address payable",
          "name": "_randomAddr",
          "type": "address"
        },
        {
          "internalType": "uint64",
          "name": "_proposalId",
          "type": "uint64"
        },
        {
          "components": [
            {
              "internalType": "string",
              "name": "denom",
              "type": "string"
            },
            {
              "internalType": "uint256",
              "name": "amount",
              "type": "uint256"
            }
          ],
          "internalType": "struct Coin[]",
          "name": "_deposit",
          "type": "tuple[]"
        },
        {
          "internalType": "bool",
          "name": "_before",
          "type": "bool"
        },
        {
          "internalType": "bool",
          "name": "_after",
          "type": "bool"
        }
      ],
      "name": "testDepositFromContractWithTransfer",
      "outputs": [
        {
          "internalType": "bool",
          "name": "success",
          "type": "bool"
        }
      ],
      "stateMutability": "payable",
      "type": "function"
    },
    {
      "inputs": [
        {
          "internalType": "uint64",
          "name": "_proposalId",
          "type": "uint64"
        },
        {
          "components": [
            {
              "internalType": "string",
              "name": "denom",
              "type": "string"
            },
            {
              "internalType": "uint256",
              "name": "amount",
              "type": "uint256"
            }
          ],
          "internalType": "struct Coin[]",
          "name": "_deposit",
          "type": "tuple[]"
        },
        {
          "internalType": "bool",
          "name": "_before",
          "type": "bool"
        },
        {
          "internalType": "bool",
          "name": "_after",
          "type": "bool"
        }
      ],
      "name": "testDepositWithTransfer",
      "outputs": [
        {
          "internalType": "bool",
          "name": "success",
          "type": "bool"
        }
      ],
      "stateMutability": "payable",
      "type": "function"
    },
    {
      "inputs": [
        {
          "internalType": "address",
          "name": "depositor",
          "type": "address"
        },
        {
          "internalType": "string",
          "name": "validatorAddress",
          "type": "string"
        },
        {
          "components": [
            {
              "internalType": "string",
              "name": "denom",
              "type": "string"
            },
            {
              "internalType": "uint256",
              "name": "amount",
              "type": "uint256"
            }
          ],
          "internalType": "struct Coin[]",
          "name": "amount",
          "type": "tuple[]"
        }
      ],
      "name": "testFundCommunityPool",
      "outputs": [
        {
          "internalType": "bool",
          "name": "success",
          "type": "bool"
        }
      ],
      "stateMutability": "nonpayable",
      "type": "function"
    },
    {
      "inputs": [
        {
          "internalType": "address",
          "name": "_proposerAddr",
          "type": "address"
        },
        {
          "internalType": "bytes",
          "name": "_jsonProposal",
          "type": "bytes"
        },
        {
          "components": [
            {
              "internalType": "string",
              "name": "denom",
              "type": "string"
            },
            {
              "internalType": "uint256",
              "name": "amount",
              "type": "uint256"
            }
          ],
          "internalType": "struct Coin[]",
          "name": "_deposit",
          "type": "tuple[]"
        }
      ],
      "name": "testSubmitProposal",
      "outputs": [
        {
          "internalType": "uint64",
          "name": "proposalId",
          "type": "uint64"
        }
      ],
      "stateMutability": "payable",
      "type": "function"
    },
    {
      "inputs": [
        {
          "internalType": "bytes",
          "name": "_jsonProposal",
          "type": "bytes"
        },
        {
          "components": [
            {
              "internalType": "string",
              "name": "denom",
              "type": "string"
            },
            {
              "internalType": "uint256",
              "name": "amount",
              "type": "uint256"
            }
          ],
          "internalType": "struct Coin[]",
          "name": "_deposit",
          "type": "tuple[]"
        }
      ],
      "name": "testSubmitProposalFromContract",
      "outputs": [
        {
          "internalType": "uint64",
          "name": "proposalId",
          "type": "uint64"
        }
      ],
      "stateMutability": "payable",
      "type": "function"
    },
    {
      "inputs": [
        {
          "internalType": "address payable",
          "name": "_randomAddr",
          "type": "address"
        },
        {
          "internalType": "bytes",
          "name": "_jsonProposal",
          "type": "bytes"
        },
        {
          "components": [
            {
              "internalType": "string",
              "name": "denom",
              "type": "string"
            },
            {
              "internalType": "uint256",
              "name": "amount",
              "type": "uint256"
            }
          ],
          "internalType": "struct Coin[]",
          "name": "_deposit",
          "type": "tuple[]"
        },
        {
          "internalType": "bool",
          "name": "_before",
          "type": "bool"
        },
        {
          "internalType": "bool",
          "name": "_after",
          "type": "bool"
        }
      ],
      "name": "testSubmitProposalFromContractWithTransfer",
      "outputs": [
        {
          "internalType": "uint64",
          "name": "",
          "type": "uint64"
        }
      ],
      "stateMutability": "payable",
      "type": "function"
    },
    {
      "inputs": [
        {
          "internalType": "bytes",
          "name": "_jsonProposal",
          "type": "bytes"
        },
        {
          "components": [
            {
              "internalType": "string",
              "name": "denom",
              "type": "string"
            },
            {
              "internalType": "uint256",
              "name": "amount",
              "type": "uint256"
            }
          ],
          "internalType": "struct Coin[]",
          "name": "_deposit",
          "type": "tuple[]"
        },
        {
          "internalType": "bool",
          "name": "_before",
          "type": "bool"
        },
        {
          "internalType": "bool",
          "name": "_after",
          "type": "bool"
        }
      ],
      "name": "testSubmitProposalWithTransfer",
      "outputs": [
        {
          "internalType": "uint64",
          "name": "",
          "type": "uint64"
        }
      ],
      "stateMutability": "payable",
      "type": "function"
    },
    {
      "inputs": [
        {
          "internalType": "address payable",
          "name": "depositor",
          "type": "address"
        },
        {
          "internalType": "uint64",
          "name": "_proposalId",
          "type": "uint64"
        },
        {
          "internalType": "bytes",
          "name": "denom",
          "type": "bytes"
        },
        {
          "internalType": "string",
          "name": "validatorAddress",
          "type": "string"
        }
      ],
      "name": "testTransferCancelFund",
      "outputs": [
        {
          "internalType": "bool",
          "name": "success",
          "type": "bool"
        }
      ],
      "stateMutability": "payable",
      "type": "function"
    },
    {
      "stateMutability": "payable",
      "type": "receive"
    }
  ],
  "bytecode": "0x6080806040523461001657611d51908161001b8239f35b5f80fdfe6080604052600436101561001a575b3615610018575f80fd5b005b5f3560e01c80630f6265fb1461122e578063258691e2146110eb57806326c11ffa14610fbc5780635e615a6b14610b4557806361bc221a14610b2657806361f09ad214610ab957806372ff5ec41461097d5780637726ece0146108235780638e7431d3146107aa57806391d6d8e71461067457806397fd84d2146105ea578063b94c9822146103ca578063bc7bdf751461031a578063d0e30db01461030d578063e8702c341461024b5763ed6c08f70361000e5760a03660031901126101ef576100e26116c0565b6100ea6116d6565b604435916001600160401b038084116101ef5761010d60209436906004016118eb565b9490610117611819565b94610120611828565b95610206575b610145604051978893849363592581bb60e11b85523060048601611a7a565b03815f6108055af19283156101fb575f936101bc575b60209450610170575b50506040519015158152f35b5f8080600f6101b595829583549061018a8260070b611aa7565b67ffffffffffffffff1990921691161783556001600160a01b03165af16101af611abf565b50611aee565b5f80610164565b92506020843d82116101f3575b816101d66020938361177a565b810103126101ef576101e9602094611a4a565b9261015b565b5f80fd5b3d91506101c9565b6040513d5f823e3d90fd5b5f546102148160070b611aa7565b67ffffffffffffffff19909116908516175f90815561024690808080600f6001600160a01b038b165af16101af611abf565b610126565b60603660031901126101ef5761025f6116c0565b6001600160401b036024358181116101ef5761027f903690600401611702565b9290604435918383116101ef576102bb61029f60209436906004016118eb565b90604051978895869563a8fdc91960e01b875260048701611a16565b03815f6108055af19081156101fb576020925f926102de575b5060405191168152f35b6102ff919250833d8111610306575b6102f7818361177a565b810190611932565b90836102d4565b503d6102ed565b5f3660031901126101ef57005b60403660031901126101ef5761032e6116ec565b6024356001600160401b0381116101ef5761034f60209136906004016118eb565b9261036f604051948593849363592581bb60e11b85523060048601611a7a565b03815f6108055af180156101fb575f90610391575b6020906040519015158152f35b506020813d82116103c2575b816103aa6020938361177a565b810103126101ef576103bd602091611a4a565b610384565b3d915061039d565b346101ef5760603660031901126101ef576103e36116c0565b6024356001600160401b0381116101ef576104029036906004016117ec565b6001600160401b03604435116101ef573660236044350112156101ef5760443560040135906104308261191b565b9161043e604051938461177a565b80835260208301903660248260051b6044350101116101ef57602460443501915b60248260051b6044350101831061056e575050505f5460018160070b0190677fffffffffffffff1992677fffffffffffffff958484128785131761051e576020926001600160401b031980956001600160401b03169116175f556104d76040519687938493631758efa960e11b855260048501611ce5565b03815f6108015af19283156101fb575f93610532575b505f54915f198360070b019485139085121761051e576020936001600160401b03169116175f556040519015158152f35b634e487b7160e01b5f52601160045260245ffd5b9092506020813d602011610566575b8161054e6020938361177a565b810103126101ef5761055f90611a4a565b91846104ed565b3d9150610541565b82356001600160401b0381116101ef5760406044358201360360231901126101ef576040519061059d8261172f565b6001600160401b03602482604435010135116101ef5760249260209283926044906105d23683358301808a01350189016117ec565b8352813501013583820152815201930192905061045f565b6020806003193601126101ef5761061e816106036116ec565b6040518093819263519f184360e11b83523060048401611a57565b03815f6108055af19081156101fb575f9161063f575b506040519015158152f35b90508181813d831161066d575b610656818361177a565b810103126101ef5761066790611a4a565b82610634565b503d61064c565b60803660031901126101ef576001600160401b036004358181116101ef576106a0903690600401611702565b90916024358181116101ef576106bc60209136906004016118eb565b9390946106f56106ca61180a565b956106d3611819565b96610773575b60405163a8fdc91960e01b815297889485943060048701611a16565b03815f6108055af19182156101fb576020935f93610754575b5061071d575b60405191168152f35b5f5461072b8160070b611aa7565b8216906001600160401b031916175f5561074f5f808080600f335af16101af611abf565b610714565b61076c919350843d8111610306576102f7818361177a565b918461070e565b5f546107818160070b611aa7565b8716906001600160401b031916175f556107a55f808080600f335af16101af611abf565b6106d9565b60603660031901126101ef576107be6116c0565b6107c66116d6565b604435906001600160401b03928383116101ef5761036f6107ed60209436906004016118eb565b604051968795869563592581bb60e11b875260018060a01b03166004870152166024850152606060448501526064840191611971565b60a03660031901126101ef576108376116c0565b6001600160401b036024358181116101ef57610857903690600401611702565b9190926044358281116101ef5761087460209136906004016118eb565b9490956108ad610882611819565b9661088b611828565b97610938575b60405163a8fdc91960e01b815298899485943060048701611a16565b03815f6108055af19283156101fb576020945f94610919575b506108d5575060405191168152f35b5f808080600f6109139582546108ed8160070b611aa7565b67ffffffffffffffff199091169089161783556001600160a01b03165af16101af611abf565b836102d4565b610931919450853d8111610306576102f7818361177a565b92856108c6565b5f546109468160070b611aa7565b67ffffffffffffffff19909116908816175f90815561097890808080600f6001600160a01b038c165af16101af611abf565b610891565b60803660031901126101ef576109916116ec565b602435906001600160401b038083116101ef576109b460209336906004016118eb565b93906109be61180a565b936109c7611819565b94610a82575b6109ec604051968793849363592581bb60e11b85523060048601611a7a565b03815f6108055af19182156101fb575f92610a47575b60209350610a1557506040519015158152f35b5f5490610a248260070b611aa7565b16906001600160401b031916175f556106675f808080600f335af16101af611abf565b91506020833d8211610a7a575b81610a616020938361177a565b810103126101ef57610a74602093611a4a565b91610a02565b3d9150610a54565b5f54610a908160070b611aa7565b8516906001600160401b031916175f55610ab45f808080600f335af16101af611abf565b6109cd565b60403660031901126101ef576001600160401b036004358181116101ef57610ae5903690600401611702565b602492919235908282116101ef576102bb93610b0760209336906004016118eb565b60405163a8fdc91960e01b815296879485949193913060048701611a16565b346101ef575f3660031901126101ef5760205f5460070b604051908152f35b346101ef575f3660031901126101ef5760606101e0604051610b668161175e565b5f81528260208201525f604082015282808201528260808201528260a08201528260c08201528260e0820152826101008201525f61012082015282610140820152826101608201525f6101808201525f6101a08201525f6101c08201520152604051635e615a6b60e01b81525f816004816108055afa80156101fb575f90610d42575b610d3e9060405191829160208352805160070b60208401526080836101e0610d05610cef610cca610cb4610c9f610c8b610c77610c618b60208101519a6060610c406102009d8e604085015261022084019061187d565b92604081015160070b82840152015190601f199d8e82850301910152611858565b8d60808d01519060a08d82850301910152611858565b60a08b01518d82038b0160c08f0152611858565b60c08a01518c82038a0160e08e0152611858565b60e0890151888c8303016101008d0152611858565b610100880151878b8303016101208c0152611858565b61012087015160070b6101408a0152610140870151868a8303016101608b0152611858565b61016086015185898303016101808a015261187d565b9361018081015115156101a08801526101a081015115156101c08801526101c08101511515828801520151918584030190850152611858565b0390f35b503d90815f823e610d53828261177a565b60208183810103126101ef578051916001600160401b0383116101ef5761020083830182840103126101ef5760405191610d8c8361175e565b610d97848201611b39565b8352602084820101516001600160401b0381116101ef57610dbf908383019086840101611b89565b6020840152610dd2604085830101611b39565b6040840152606084820101516001600160401b0381116101ef57610dfd908383019086840101611b47565b6060840152608084820101516001600160401b0381116101ef57610e28908383019086840101611b47565b608084015260a084820101516001600160401b0381116101ef57610e53908383019086840101611b47565b60a084015260c084820101516001600160401b0381116101ef57610e7e908383019086840101611b47565b60c084015260e084820101516001600160401b0381116101ef57610ea9908383019086840101611b47565b60e084015261010084820101516001600160401b0381116101ef57610ed5908383019086840101611b47565b610100840152610eea61012085830101611b39565b61012084015261014084820101516001600160401b0381116101ef57610f17908383019086840101611b47565b61014084015261016084820101516001600160401b0381116101ef57610f44908383019086840101611b89565b610160840152610f5961018085830101611a4a565b610180840152610f6e6101a085830101611a4a565b6101a0840152610f836101c085830101611a4a565b6101c08401526101e084820101516001600160401b0381116101ef57610d3e94610fb1938301920101611b47565b6101e0820152610be9565b60603660031901126101ef57610fd06116ec565b60243580151581036101ef57602061100b92610fea61180a565b926110ad575b6040518094819263519f184360e11b83523060048401611a57565b03815f6108055af19081156101fb575f91611072575b60209250611034575b6040519015158152f35b5f546110428160070b611aa7565b6001600160401b0316906001600160401b031916175f5561106d5f808080600f335af16101af611abf565b61102a565b90506020823d82116110a5575b8161108c6020938361177a565b810103126101ef5761109f602092611a4a565b90611021565b3d915061107f565b5f546110bb8160070b611aa7565b6001600160401b0316906001600160401b031916175f556110e65f808080600f335af16101af611abf565b610ff0565b60803660031901126101ef5761113f6111026116c0565b61110a6116d6565b90602061111561180a565b9261111e611819565b936111e8575b6040518095819263519f184360e11b83523060048401611a57565b03815f6108055af19182156101fb575f926111ad575b6020935061116857506040519015158152f35b5f808080600f6106679582546111808160070b611aa7565b6001600160401b031667ffffffffffffffff19919091161783556001600160a01b03165af16101af611abf565b91506020833d82116111e0575b816111c76020938361177a565b810103126101ef576111da602093611a4a565b91611155565b3d91506111ba565b5f546111f68160070b611aa7565b6001600160401b0316906001600160401b031916175f556112295f808080600f60018060a01b0389165af16101af611abf565b611124565b60803660031901126101ef576112426116c0565b61124a6116d6565b9060448035916001600160401b03928381116101ef5761126e903690600401611702565b93909160649485358381116101ef5761128b9036906004016117ec565b9160018060a01b0316925f546112a38160070b611aa7565b82166001600160401b0319809216175f555f8080806001895af16112c5611abf565b5015611673576112ef97986040519063519f184360e11b8252818060209b8c933060048401611a57565b03815f6108055af15f918161163c575b506113de5789898961130f611c3c565b6308c379a01461135a575b7f63616e63656c50726f706f73616c206661696c65642073696c656e746c790000906040519262461bcd60e51b84526004840152601e6024840152820152fd5b611362611c57565b8061136d575061131a565b826113b96037604051809476031b0b731b2b6283937b837b9b0b6103330b4b632b21d1604d1b858301526113a981518092878686019101611837565b810103601781018552018361177a565b6113da60405192839262461bcd60e51b845260048401526024830190611858565b0390fd5b156115f957908794929593915f54916113f98360070b611aa7565b169116175f556040519261140c8461172f565b600184525f5b8581106115ca575094611436611470966040519261142f8461172f565b36916117b6565b815260028582015261144784611cc4565b5261145183611cc4565b505f604051809681958294635ca64c1160e11b84528660048501611ce5565b03925af15f9181611593575b50611545575061148a611c3c565b6308c379a0146114e0575b6084927f66756e64436f6d6d756e697479506f6f6c206661696c65642073696c656e746c607960f81b926040519462461bcd60e51b8652600486015260216024860152840152820152fd5b6114e8611c57565b806114f35750611495565b826113b9603a60405180947f66756e64436f6d6d756e697479506f6f6c206661696c65643a200000000000008583015261153581518092878686019101611837565b810103601a81018552018361177a565b15611554575060405160018152f35b7f66756e64436f6d6d756e697479506f6f6c2072657475726e65642066616c7365906040519262461bcd60e51b84528060048501526024840152820152fd5b9091508381813d83116115c3575b6115ab818361177a565b810103126101ef576115bc90611a4a565b908561147c565b503d6115a1565b604096939591929496516115dd8161172f565b606081525f838201528282890101520190879492959391611412565b60405162461bcd60e51b815260048101899052601d60248201527f63616e63656c50726f706f73616c2072657475726e65642066616c7365000000818901528990fd5b9091508981813d831161166c575b611654818361177a565b810103126101ef5761166590611a4a565b908b6112ff565b503d61164a565b60405162461bcd60e51b815260206004820152602160248201527f4661696c656420746f2073656e6420457468657220746f206465706f7369746f81890152603960f91b818a0152608490fd5b600435906001600160a01b03821682036101ef57565b602435906001600160401b03821682036101ef57565b600435906001600160401b03821682036101ef57565b9181601f840112156101ef578235916001600160401b0383116101ef57602083818601950101116101ef57565b604081019081106001600160401b0382111761174a57604052565b634e487b7160e01b5f52604160045260245ffd5b61020081019081106001600160401b0382111761174a57604052565b90601f801991011681019081106001600160401b0382111761174a57604052565b6001600160401b03811161174a57601f01601f191660200190565b9291926117c28261179b565b916117d0604051938461177a565b8294818452818301116101ef578281602093845f960137010152565b9080601f830112156101ef57816020611807933591016117b6565b90565b6044359081151582036101ef57565b6064359081151582036101ef57565b6084359081151582036101ef57565b5f5b8381106118485750505f910152565b8181015183820152602001611839565b9060209161187181518092818552858086019101611837565b601f01601f1916010190565b908082519081815260208091019281808460051b8301019501935f915b8483106118aa5750505050505090565b9091929394958480600192601f1985820301865289519082806118d584516040808652850190611858565b930151910152980193019301919493929061189a565b9181601f840112156101ef578235916001600160401b0383116101ef576020808501948460051b0101116101ef57565b6001600160401b03811161174a5760051b60200190565b908160209103126101ef57516001600160401b03811681036101ef5790565b908060209392818452848401375f828201840152601f01601f1916010190565b9080835260208093019081938160051b830194845f915b848310611999575050505050505090565b9091929394959681810387528735603e19843603018112156101ef5783018035601e19823603018112156101ef578101908682359201906001600160401b0383116101ef5782360382136101ef576001938880611a0181969582966040808752860191611951565b93013591015299019701959493019190611988565b93916118079593611a3c9260018060a01b03168652606060208701526060860191611951565b926040818503910152611971565b519081151582036101ef57565b6001600160a01b0390911681526001600160401b03909116602082015260400190565b6001600160401b03611807959360609360018060a01b031683521660208201528160408201520191611971565b60070b677fffffffffffffff811461051e5760010190565b3d15611ae9573d90611ad08261179b565b91611ade604051938461177a565b82523d5f602084013e565b606090565b15611af557565b606460405162461bcd60e51b815260206004820152602060248201527f4661696c656420746f2073656e6420457468657220746f2070726f706f7365726044820152fd5b51908160070b82036101ef57565b81601f820112156101ef578051611b5d8161179b565b92611b6b604051948561177a565b818452602082840101116101ef576118079160208085019101611837565b81601f820112156101ef578051611b9f8161191b565b92604091611baf8351958661177a565b808552602093848087019260051b820101938385116101ef57858201925b858410611bde575050505050505090565b8351906001600160401b03918281116101ef5784019083601f1983890301126101ef578351611c0c8161172f565b898301519384116101ef578483611c298a8d809881980101611b47565b8352015183820152815201930192611bcd565b5f9060033d11611c4857565b905060045f803e5f5160e01c90565b5f60443d1061180757604051600319913d83016004833e81516001600160401b03918282113d602484011117611cb357818401948551938411611cbb573d85010160208487010111611cb357506118079291016020019061177a565b949350505050565b50949350505050565b805115611cd15760200190565b634e487b7160e01b5f52603260045260245ffd5b6001600160a01b039091168152606060208201819052611807939192611d0d91840190611858565b91604081840391015261187d56fea2646970667358221220d12043a0df024f9b3889785b73be0d9187b0d08deb65101485effa8f466558c364736f6c63430008140033",
  "linkReferences": {},
  "deployedLinkReferences": {},
  "immutableReferences": {},
  "inputSourceName": "project/solidity/precompiles/testutil/contracts/GovCaller.sol",
  "buildInfoId": "solc-0_8_20-fda2ffeb444d7d9486f659e7e357f970dc6ac662"
}