{
  "_format": "hh3-artifact-1",
  "contractName": "GovCaller",
  "sourceName": "solidity/precompiles/testutil/contracts/GovCaller.sol",
  "abi": [
    {
      "inputs": [],
      "name": "counter",
      "outputs": [
        {
          "internalType": "int64",
          "name": "",
          "type": "int64"
        }
      ],
      "stateMutability": "view",
      "type": "function"
    },
    {
      "inputs": [],
      "name": "deposit",
      "outputs": [],
      "stateMutability": "payable",
      "type": "function"
    },
    {
      "inputs": [],
      "name": "getParams",
      "outputs": [
        {
          "components": [
            {
              "internalType": "int64",
              "name": "votingPeriod",
              "type": "int64"
            },
            {
              "components": [
                {
                  "internalType": "string",
                  "name": "denom",
                  "type": "string"
                },
                {
                  "internalType": "uint256",
                  "name": "amount",
                  "type": "uint256"
                }
              ],
              "internalType": "struct Coin[]",
              "name": "minDeposit",
              "type": "tuple[]"
            },
            {
              "internalType": "int64",
              "name": "maxDepositPeriod",
              "type": "int64"
            },
            {
              "internalType": "string",
              "name": "quorum",
              "type": "string"
            },
            {
              "internalType": "string",
              "name": "threshold",
              "type": "string"
            },
            {
              "internalType": "string",
              "name": "vetoThreshold",
              "type": "string"
            },
            {
              "internalType": "string",
              "name": "minInitialDepositRatio",
              "type": "string"
            },
            {
              "internalType": "string",
              "name": "proposalCancelRatio",
              "type": "string"
            },
            {
              "internalType": "string",
              "name": "proposalCancelDest",
              "type": "string"
            },
            {
              "internalType": "int64",
              "name": "expeditedVotingPeriod",
              "type": "int64"
            },
            {
              "internalType": "string",
              "name": "expeditedThreshold",
              "type": "string"
            },
            {
              "components": [
                {
                  "internalType": "string",
                  "name": "denom",
                  "type": "string"
                },
                {
                  "internalType": "uint256",
                  "name": "amount",
                  "type": "uint256"
                }
              ],
              "internalType": "struct Coin[]",
              "name": "expeditedMinDeposit",
              "type": "tuple[]"
            },
            {
              "internalType": "bool",
              "name": "burnVoteQuorum",
              "type": "bool"
            },
            {
              "internalType": "bool",
              "name": "burnProposalDepositPrevote",
              "type": "bool"
            },
            {
              "internalType": "bool",
              "name": "burnVoteVeto",
              "type": "bool"
            },
            {
              "internalType": "string",
              "name": "minDepositRatio",
              "type": "string"
            }
          ],
          "internalType": "struct Params",
          "name": "params",
          "type": "tuple"
        }
      ],
      "stateMutability": "view",
      "type": "function"
    },
    {
      "inputs": [
        {
          "internalType": "address payable",
          "name": "_randomAddr",
          "type": "address"
        },
        {
          "internalType": "uint64",
          "name": "_proposalId",
          "type": "uint64"
        },
        {
          "internalType": "bool",
          "name": "_before",
          "type": "bool"
        },
        {
          "internalType": "bool",
          "name": "_after",
          "type": "bool"
        }
      ],
      "name": "testCancelFromContractWithTransfer",
      "outputs": [
        {
          "internalType": "bool",
          "name": "success",
          "type": "bool"
        }
      ],
      "stateMutability": "payable",
      "type": "function"
    },
    {
      "inputs": [
        {
          "internalType": "uint64",
          "name": "_proposalId",
          "type": "uint64"
        }
      ],
      "name": "testCancelProposalFromContract",
      "outputs": [
        {
          "internalType": "bool",
          "name": "success",
          "type": "bool"
        }
      ],
      "stateMutability": "payable",
      "type": "function"
    },
    {
      "inputs": [
        {
          "internalType": "uint64",
          "name": "_proposalId",
          "type": "uint64"
        },
        {
          "internalType": "bool",
          "name": "_before",
          "type": "bool"
        },
        {
          "internalType": "bool",
          "name": "_after",
          "type": "bool"
        }
      ],
      "name": "testCancelWithTransfer",
      "outputs": [
        {
          "internalType": "bool",
          "name": "success",
          "type": "bool"
        }
      ],
      "stateMutability": "payable",
      "type": "function"
    },
    {
      "inputs": [
        {
          "internalType": "address payable",
          "name": "_depositorAddr",
          "type": "address"
        },
        {
          "internalType": "uint64",
          "name": "_proposalId",
          "type": "uint64"
        },
        {
          "components": [
            {
              "internalType": "string",
              "name": "denom",
              "type": "string"
            },
            {
              "internalType": "uint256",
              "name": "amount",
              "type": "uint256"
            }
          ],
          "internalType": "struct Coin[]",
          "name": "_deposit",
          "type": "tuple[]"
        }
      ],
      "name": "testDeposit",
      "outputs": [
        {
          "internalType": "bool",
          "name": "success",
          "type": "bool"
        }
      ],
      "stateMutability": "payable",
      "type": "function"
    },
    {
      "inputs": [
        {
          "internalType": "uint64",
          "name": "_proposalId",
          "type": "uint64"
        },
        {
          "components": [
            {
              "internalType": "string",
              "name": "denom",
              "type": "string"
            },
            {
              "internalType": "uint256",
              "name": "amount",
              "type": "uint256"
            }
          ],
          "internalType": "struct Coin[]",
          "name": "_deposit",
          "type": "tuple[]"
        }
      ],
      "name": "testDepositFromContract",
      "outputs": [
        {
          "internalType": "bool",
          "name": "success",
          "type": "bool"
        }
      ],
      "stateMutability": "payable",
      "type": "function"
    },
    {
      "inputs": [
        {
          "internalType": "address payable",
          "name": "_randomAddr",
          "type": "address"
        },
        {
          "internalType": "uint64",
          "name": "_proposalId",
          "type": "uint64"
        },
        {
          "components": [
            {
              "internalType": "string",
              "name": "denom",
              "type": "string"
            },
            {
              "internalType": "uint256",
              "name": "amount",
              "type": "uint256"
            }
          ],
          "internalType": "struct Coin[]",
          "name": "_deposit",
          "type": "tuple[]"
        },
        {
          "internalType": "bool",
          "name": "_before",
          "type": "bool"
        },
        {
          "internalType": "bool",
          "name": "_after",
          "type": "bool"
        }
      ],
      "name": "testDepositFromContractWithTransfer",
      "outputs": [
        {
          "internalType": "bool",
          "name": "success",
          "type": "bool"
        }
      ],
      "stateMutability": "payable",
      "type": "function"
    },
    {
      "inputs": [
        {
          "internalType": "uint64",
          "name": "_proposalId",
          "type": "uint64"
        },
        {
          "components": [
            {
              "internalType": "string",
              "name": "denom",
              "type": "string"
            },
            {
              "internalType": "uint256",
              "name": "amount",
              "type": "uint256"
            }
          ],
          "internalType": "struct Coin[]",
          "name": "_deposit",
          "type": "tuple[]"
        },
        {
          "internalType": "bool",
          "name": "_before",
          "type": "bool"
        },
        {
          "internalType": "bool",
          "name": "_after",
          "type": "bool"
        }
      ],
      "name": "testDepositWithTransfer",
      "outputs": [
        {
          "internalType": "bool",
          "name": "success",
          "type": "bool"
        }
      ],
      "stateMutability": "payable",
      "type": "function"
    },
    {
      "inputs": [
        {
          "internalType": "address",
          "name": "depositor",
          "type": "address"
        },
        {
          "internalType": "string",
          "name": "validatorAddress",
          "type": "string"
        },
        {
          "components": [
            {
              "internalType": "string",
              "name": "denom",
              "type": "string"
            },
            {
              "internalType": "uint256",
              "name": "amount",
              "type": "uint256"
            }
          ],
          "internalType": "struct Coin[]",
          "name": "amount",
          "type": "tuple[]"
        }
      ],
      "name": "testFundCommunityPool",
      "outputs": [
        {
          "internalType": "bool",
          "name": "success",
          "type": "bool"
        }
      ],
      "stateMutability": "nonpayable",
      "type": "function"
    },
    {
      "inputs": [
        {
          "internalType": "address",
          "name": "_proposerAddr",
          "type": "address"
        },
        {
          "internalType": "bytes",
          "name": "_jsonProposal",
          "type": "bytes"
        },
        {
          "components": [
            {
              "internalType": "string",
              "name": "denom",
              "type": "string"
            },
            {
              "internalType": "uint256",
              "name": "amount",
              "type": "uint256"
            }
          ],
          "internalType": "struct Coin[]",
          "name": "_deposit",
          "type": "tuple[]"
        }
      ],
      "name": "testSubmitProposal",
      "outputs": [
        {
          "internalType": "uint64",
          "name": "proposalId",
          "type": "uint64"
        }
      ],
      "stateMutability": "payable",
      "type": "function"
    },
    {
      "inputs": [
        {
          "internalType": "bytes",
          "name": "_jsonProposal",
          "type": "bytes"
        },
        {
          "components": [
            {
              "internalType": "string",
              "name": "denom",
              "type": "string"
            },
            {
              "internalType": "uint256",
              "name": "amount",
              "type": "uint256"
            }
          ],
          "internalType": "struct Coin[]",
          "name": "_deposit",
          "type": "tuple[]"
        }
      ],
      "name": "testSubmitProposalFromContract",
      "outputs": [
        {
          "internalType": "uint64",
          "name": "proposalId",
          "type": "uint64"
        }
      ],
      "stateMutability": "payable",
      "type": "function"
    },
    {
      "inputs": [
        {
          "internalType": "address payable",
          "name": "_randomAddr",
          "type": "address"
        },
        {
          "internalType": "bytes",
          "name": "_jsonProposal",
          "type": "bytes"
        },
        {
          "components": [
            {
              "internalType": "string",
              "name": "denom",
              "type": "string"
            },
            {
              "internalType": "uint256",
              "name": "amount",
              "type": "uint256"
            }
          ],
          "internalType": "struct Coin[]",
          "name": "_deposit",
          "type": "tuple[]"
        },
        {
          "internalType": "bool",
          "name": "_before",
          "type": "bool"
        },
        {
          "internalType": "bool",
          "name": "_after",
          "type": "bool"
        }
      ],
      "name": "testSubmitProposalFromContractWithTransfer",
      "outputs": [
        {
          "internalType": "uint64",
          "name": "",
          "type": "uint64"
        }
      ],
      "stateMutability": "payable",
      "type": "function"
    },
    {
      "inputs": [
        {
          "internalType": "bytes",
          "name": "_jsonProposal",
          "type": "bytes"
        },
        {
          "components": [
            {
              "internalType": "string",
              "name": "denom",
              "type": "string"
            },
            {
              "internalType": "uint256",
              "name": "amount",
              "type": "uint256"
            }
          ],
          "internalType": "struct Coin[]",
          "name": "_deposit",
          "type": "tuple[]"
        },
        {
          "internalType": "bool",
          "name": "_before",
          "type": "bool"
        },
        {
          "internalType": "bool",
          "name": "_after",
          "type": "bool"
        }
      ],
      "name": "testSubmitProposalWithTransfer",
      "outputs": [
        {
          "internalType": "uint64",
          "name": "",
          "type": "uint64"
        }
      ],
      "stateMutability": "payable",
      "type": "function"
    },
    {
      "inputs": [
        {
          "internalType": "address payable",
          "name": "depositor",
          "type": "address"
        },
        {
          "internalType": "uint64",
          "name": "_proposalId",
          "type": "uint64"
        },
        {
          "internalType": "bytes",
          "name": "denom",
          "type": "bytes"
        },
        {
          "internalType": "string",
          "name": "validatorAddress",
          "type": "string"
        }
      ],
      "name": "testTransferCancelFund",
      "outputs": [
        {
          "internalType": "bool",
          "name": "success",
          "type": "bool"
        }
      ],
      "stateMutability": "payable",
      "type": "function"
    },
    {
      "stateMutability": "payable",
      "type": "receive"
    }
  ],
  "bytecode": "0x60808060405234601557611c86908161001a8239f35b5f80fdfe6080604052600436101561001a575b3615610018575f80fd5b005b5f3560e01c80630f6265fb146110e9578063258691e214610fcc57806326c11ffa14610f3f5780635e615a6b14610b0f57806361bc221a14610af057806361f09ad214610a8057806372ff5ec4146109315780637726ece0146107f55780638e7431d31461077557806391d6d8e71461062557806397fd84d2146105f1578063b94c9822146103db578063bc7bdf751461032a578063d0e30db01461031d578063e8702c34146102505763ed6c08f70361000e5760a03660031901126101f3576100e26115be565b6100ea6115d4565b604435916001600160401b0383116101f35761010c60209336906004016117b1565b9390610116611703565b9361011f611712565b9461020a575b610144604051968793849363592581bb60e11b85523060048601611c23565b03815f6108055af19182156101ff575f926101bf575b6020935061016e575b506040519015158152f35b5f808080600f6101b99582546101868160070b6117f8565b6001600160401b031667ffffffffffffffff19919091161783556001600160a01b03165af16101b3611810565b506119b0565b5f610163565b91506020833d6020116101f7575b816101da60209383611664565b810103126101f3576101ed60209361183f565b9161015a565b5f80fd5b3d91506101cd565b6040513d5f823e3d90fd5b5f546102188160070b6117f8565b6001600160401b0316906001600160401b031916175f5561024b5f808080600f60018060a01b038a165af16101b3611810565b610125565b60603660031901126101f3576102646115be565b6024356001600160401b0381116101f357610283903690600401611600565b9190604435916001600160401b0383116101f3576102c66102aa60209436906004016117b1565b90604051968795869563a8fdc91960e01b875260048701611bef565b03815f6108055af180156101ff576020915f916102f0575b506001600160401b0360405191168152f35b6103109150823d8411610316575b6103088183611664565b810190611b08565b826102de565b503d6102fe565b5f3660031901126101f357005b60403660031901126101f35761033e6115ea565b6024356001600160401b0381116101f35761035f60209136906004016117b1565b9261037f604051948593849363592581bb60e11b85523060048601611c23565b03815f6108055af180156101ff575f906103a1575b6020906040519015158152f35b506020813d6020116103d3575b816103bb60209383611664565b810103126101f3576103ce60209161183f565b610394565b3d91506103ae565b346101f35760603660031901126101f3576103f46115be565b6024356001600160401b0381116101f3576104139036906004016116d6565b90604435916001600160401b0383116101f357366023840112156101f357826004013561043f816117e1565b9361044d6040519586611664565b8185526024602086019260051b820101903682116101f35760248101925b82841061058657505050505f549160018360070b0192677fffffffffffffff198412677fffffffffffffff851317610538576020936001600160401b0316906001600160401b031916175f556104d56040519485938493631758efa960e11b85526004850161191d565b03815f6108015af19081156101ff575f9161054c575b505f54600781900b5f19019190677fffffffffffffff198312677fffffffffffffff841317610538576020926001600160401b0316906001600160401b031916175f556040519015158152f35b634e487b7160e01b5f52601160045260245ffd5b90506020813d60201161057e575b8161056760209383611664565b810103126101f3576105789061183f565b816104eb565b3d915061055a565b83356001600160401b0381116101f3578201604060231982360301126101f357604051916105b38361162d565b6024820135926001600160401b0384116101f3576044602094936105de8695602436918401016116d6565b835201358382015281520193019261046b565b60203660031901126101f35761037f602061060a6115ea565b6040518093819263519f184360e11b8352306004840161184c565b60803660031901126101f3576004356001600160401b0381116101f357610650903690600401611600565b6024356001600160401b0381116101f35761067160209136906004016117b1565b9290936106aa61067f6116f4565b94610688611703565b95610737575b60405163a8fdc91960e01b815296879485943060048701611bef565b03815f6108055af19081156101ff576020925f92610718575b506106da575b6001600160401b0360405191168152f35b5f546106e88160070b6117f8565b6001600160401b0316906001600160401b031916175f556107135f808080600f335af16101b3611810565b6106c9565b610730919250833d8511610316576103088183611664565b90836106c3565b5f546107458160070b6117f8565b6001600160401b0316906001600160401b031916175f556107705f808080600f335af16101b3611810565b61068e565b60603660031901126101f3576107896115be565b6107916115d4565b604435906001600160401b0382116101f3576001600160401b039261037f6107bf60209436906004016117b1565b604051968795869563592581bb60e11b875260018060a01b03166004870152166024850152606060448501526064840191611b47565b60a03660031901126101f3576108096115be565b6024356001600160401b0381116101f357610828903690600401611600565b90916044356001600160401b0381116101f35761084b60209136906004016117b1565b939094610884610859611703565b95610862611712565b966108eb575b60405163a8fdc91960e01b815297889485943060048701611bef565b03815f6108055af19182156101ff576020935f936108cc575b506108b457506001600160401b0360405191168152f35b5f808080600f6103109582546101868160070b6117f8565b6108e4919350843d8611610316576103088183611664565b918461089d565b5f546108f98160070b6117f8565b6001600160401b0316906001600160401b031916175f5561092c5f808080600f60018060a01b038c165af16101b3611810565b610868565b60803660031901126101f3576109456115ea565b602435906001600160401b0382116101f35761096760209236906004016117b1565b92906109716116f4565b9261097a611703565b93610a42575b61099f604051958693849363592581bb60e11b85523060048601611c23565b03815f6108055af19081156101ff575f91610a06575b602092506109c8575b6040519015158152f35b5f546109d68160070b6117f8565b6001600160401b0316906001600160401b031916175f55610a015f808080600f335af16101b3611810565b6109be565b90506020823d602011610a3a575b81610a2160209383611664565b810103126101f357610a3460209261183f565b906109b5565b3d9150610a14565b5f54610a508160070b6117f8565b6001600160401b0316906001600160401b031916175f55610a7b5f808080600f335af16101b3611810565b610980565b60403660031901126101f3576004356001600160401b0381116101f357610aab903690600401611600565b602435906001600160401b0382116101f3576102c692610ad160209336906004016117b1565b60405163a8fdc91960e01b815295869485949193913060048701611bef565b346101f3575f3660031901126101f35760205f5460070b604051908152f35b346101f3575f3660031901126101f35760606101e0604051610b3081611648565b5f81528260208201525f604082015282808201528260808201528260a08201528260c08201528260e0820152826101008201525f61012082015282610140820152826101608201525f6101808201525f6101a08201525f6101c08201520152604051635e615a6b60e01b81525f816004816108055afa80156101ff575f90610d18575b610d149060405191829160208352805160070b60208401526101e0610cd7610cbf610c98610c80610c69610c53610c3d610c27610c028c61022060208d01519161020060408201520190611745565b8c606060408d015160070b91015260608b01518d6080601f1982850301910152611721565b60808a01518c8203601f190160a08e0152611721565b60a08901518b8203601f190160c08d0152611721565b60c08801518a8203601f190160e08c0152611721565b60e0870151898203601f19016101008b0152611721565b610100860151888203601f19016101208a0152611721565b61012085015160070b610140880152610140850151601f1988830301610160890152611721565b610160840151868203601f1901610180880152611745565b9161018081015115156101a08601526101a081015115156101c08601526101c08101511515828601520151601f1984830301610200850152611721565b0390f35b503d805f833e610d288183611664565b8101906020818303126101f3578051906001600160401b0382116101f35701610200818303126101f35760405190610d5f82611648565b610d68816119fb565b825260208101516001600160401b0381116101f35783610d89918301611a4f565b6020830152610d9a604082016119fb565b604083015260608101516001600160401b0381116101f35783610dbe918301611a09565b606083015260808101516001600160401b0381116101f35783610de2918301611a09565b608083015260a08101516001600160401b0381116101f35783610e06918301611a09565b60a083015260c08101516001600160401b0381116101f35783610e2a918301611a09565b60c083015260e08101516001600160401b0381116101f35783610e4e918301611a09565b60e08301526101008101516001600160401b0381116101f35783610e73918301611a09565b610100830152610e8661012082016119fb565b6101208301526101408101516001600160401b0381116101f35783610eac918301611a09565b6101408301526101608101516001600160401b0381116101f35783610ed2918301611a4f565b610160830152610ee5610180820161183f565b610180830152610ef86101a0820161183f565b6101a0830152610f0b6101c0820161183f565b6101c08301526101e0810151926001600160401b0384116101f357610d1493610f349201611a09565b6101e0820152610bb3565b60603660031901126101f357610f536115ea565b60243580151581036101f357602061099f92610f6d6116f4565b92610f8e575b6040518094819263519f184360e11b8352306004840161184c565b5f54610f9c8160070b6117f8565b6001600160401b0316906001600160401b031916175f55610fc75f808080600f335af16101b3611810565b610f73565b60803660031901126101f357611020610fe36115be565b610feb6115d4565b906020610ff66116f4565b92610fff611703565b936110a3575b6040518095819263519f184360e11b8352306004840161184c565b03815f6108055af19182156101ff575f92611067575b6020935061104957506040519015158152f35b5f808080600f6110619582546101868160070b6117f8565b82610163565b91506020833d60201161109b575b8161108260209383611664565b810103126101f35761109560209361183f565b91611036565b3d9150611075565b5f546110b18160070b6117f8565b6001600160401b0316906001600160401b031916175f556110e45f808080600f60018060a01b0389165af16101b3611810565b611005565b60803660031901126101f3576110fd6115be565b6111056115d4565b6044356001600160401b0381116101f357611124903690600401611600565b6064939193356001600160401b0381116101f3576111469036906004016116d6565b9160018060a01b0316925f5461115e8160070b6117f8565b6001600160401b0316906001600160401b031916175f555f8080806001885af1611186611810565b501561156f5760206111ad916040518093819263519f184360e11b8352306004840161184c565b03815f6108055af15f9181611533575b506112a1576111ca61186f565b6308c379a01461121a575b60405162461bcd60e51b815260206004820152601e60248201527f63616e63656c50726f706f73616c206661696c65642073696c656e746c7900006044820152606490fd5b61122261188a565b8061122d57506111d5565b602061127d603761129d9360405193849176031b0b731b2b6283937b837b9b0b6103330b4b632b21d1604d1b828401528051918291018484015e81015f838201520301601f198101835282611664565b60405162461bcd60e51b8152602060048201529182916024830190611721565b0390fd5b156114ee575f546112b48160070b6117f8565b6001600160401b031667ffffffffffffffff1991909116175f556040805194906112de8187611664565b60018652601f19015f5b8181106114b65761134a60208888888861131089604051926113098461162d565b36916116a0565b8152600285820152611321846118fc565b5261132b836118fc565b505f604051809681958294635ca64c1160e11b8452866004850161191d565b03925af15f918161147a575b506114265761136361186f565b6308c379a0146113bd575b60405162461bcd60e51b815260206004820152602160248201527f66756e64436f6d6d756e697479506f6f6c206661696c65642073696c656e746c6044820152607960f81b6064820152608490fd5b6113c561188a565b806113d0575061136e565b602061127d603a61129d936040519384917f66756e64436f6d6d756e697479506f6f6c206661696c65643a20000000000000828401528051918291018484015e81015f838201520301601f198101835282611664565b1561143657602060405160018152f35b606460405162461bcd60e51b815260206004820152602060248201527f66756e64436f6d6d756e697479506f6f6c2072657475726e65642066616c73656044820152fd5b9091506020813d6020116114ae575b8161149660209383611664565b810103126101f3576114a79061183f565b9082611356565b3d9150611489565b6020906040516114c58161162d565b606081525f8382015282828a010152016112e8565b634e487b7160e01b5f52604160045260245ffd5b60405162461bcd60e51b815260206004820152601d60248201527f63616e63656c50726f706f73616c2072657475726e65642066616c73650000006044820152606490fd5b9091506020813d602011611567575b8161154f60209383611664565b810103126101f3576115609061183f565b90866111bd565b3d9150611542565b60405162461bcd60e51b815260206004820152602160248201527f4661696c656420746f2073656e6420457468657220746f206465706f7369746f6044820152603960f91b6064820152608490fd5b600435906001600160a01b03821682036101f357565b602435906001600160401b03821682036101f357565b600435906001600160401b03821682036101f357565b9181601f840112156101f3578235916001600160401b0383116101f357602083818601950101116101f357565b604081019081106001600160401b038211176114da57604052565b61020081019081106001600160401b038211176114da57604052565b90601f801991011681019081106001600160401b038211176114da57604052565b6001600160401b0381116114da57601f01601f191660200190565b9291926116ac82611685565b916116ba6040519384611664565b8294818452818301116101f3578281602093845f960137010152565b9080601f830112156101f3578160206116f1933591016116a0565b90565b6044359081151582036101f357565b6064359081151582036101f357565b6084359081151582036101f357565b805180835260209291819084018484015e5f828201840152601f01601f1916010190565b9080602083519182815201916020808360051b8301019401925f915b83831061177057505050505090565b9091929394602080600192601f19858203018652885190828061179c8451604085526040850190611721565b93015191015297019301930191939290611761565b9181601f840112156101f3578235916001600160401b0383116101f3576020808501948460051b0101116101f357565b6001600160401b0381116114da5760051b60200190565b60070b677fffffffffffffff81146105385760010190565b3d1561183a573d9061182182611685565b9161182f6040519384611664565b82523d5f602084013e565b606090565b519081151582036101f357565b6001600160a01b0390911681526001600160401b03909116602082015260400190565b5f9060033d1161187b57565b905060045f803e5f5160e01c90565b5f60443d106116f1576040513d600319016004823e8051913d60248401116001600160401b038411176118f657828201928351916001600160401b0383116118ee573d840160031901858401602001116118ee57506116f192910160200190611664565b949350505050565b92915050565b8051156119095760200190565b634e487b7160e01b5f52603260045260245ffd5b9161193d9160018060a01b03168352606060208401526060830190611721565b906040818303910152815180825260208201916020808360051b8301019401925f915b83831061196f57505050505090565b9091929394602080600192601f19858203018652885190828061199b8451604085526040850190611721565b93015191015297019301930191939290611960565b156119b757565b606460405162461bcd60e51b815260206004820152602060248201527f4661696c656420746f2073656e6420457468657220746f2070726f706f7365726044820152fd5b51908160070b82036101f357565b81601f820112156101f357805190611a2082611685565b92611a2e6040519485611664565b828452602083830101116101f357815f9260208093018386015e8301015290565b81601f820112156101f357805190611a66826117e1565b92611a746040519485611664565b82845260208085019360051b830101918183116101f35760208101935b838510611aa057505050505090565b84516001600160401b0381116101f35782016040818503601f1901126101f35760405191611acd8361162d565b6020820151926001600160401b0384116101f357604083611af5886020809881980101611a09565b8352015183820152815201940193611a91565b908160209103126101f357516001600160401b03811681036101f35790565b908060209392818452848401375f828201840152601f01601f1916010190565b906020838281520160208260051b85010193835f915b848310611b6d5750505050505090565b909192939495601f198282030185528635603e19843603018112156101f35783018035601e19823603018112156101f357810190602082359201906001600160401b0383116101f35782360382136101f35783602080611bdb8196958296604060019a526040860191611b27565b930135910152980196950193019190611b5d565b93916116f19593611c159260018060a01b03168652606060208701526060860191611b27565b926040818503910152611b47565b6001600160401b036116f1959360609360018060a01b031683521660208201528160408201520191611b4756fea2646970667358221220708953a1ba59b253a56cf4bba60c08bff2470569eec60d67be537e3f6b1bf6e164736f6c634300081c0033",
  "linkReferences": {},
  "deployedLinkReferences": {},
  "immutableReferences": {},
  "inputSourceName": "project/solidity/precompiles/testutil/contracts/GovCaller.sol",
  "buildInfoId": "solc-0_8_28-e55ad96646b3bb5046840fe24a1f6856fc44be2c"
}