{
  "_format": "hh3-artifact-1",
  "contractName": "ICS20Caller",
  "sourceName": "solidity/precompiles/testutil/contracts/ICS20Caller.sol",
  "abi": [
    {
      "inputs": [],
      "name": "counter",
      "outputs": [
        {
          "internalType": "int64",
          "name": "",
          "type": "int64"
        }
      ],
      "stateMutability": "view",
      "type": "function"
    },
    {
      "inputs": [],
      "name": "deposit",
      "outputs": [],
      "stateMutability": "payable",
      "type": "function"
    },
    {
      "inputs": [
        {
          "internalType": "string",
          "name": "_sourcePort",
          "type": "string"
        },
        {
          "internalType": "string",
          "name": "_sourceChannel",
          "type": "string"
        },
        {
          "internalType": "string",
          "name": "_denom",
          "type": "string"
        },
        {
          "internalType": "uint256",
          "name": "_amount",
          "type": "uint256"
        },
        {
          "internalType": "address",
          "name": "_sender",
          "type": "address"
        },
        {
          "internalType": "string",
          "name": "_receiver",
          "type": "string"
        },
        {
          "components": [
            {
              "internalType": "uint64",
              "name": "revisionNumber",
              "type": "uint64"
            },
            {
              "internalType": "uint64",
              "name": "revisionHeight",
              "type": "uint64"
            }
          ],
          "internalType": "struct Height",
          "name": "_timeoutHeight",
          "type": "tuple"
        },
        {
          "internalType": "uint64",
          "name": "_timeoutTimestamp",
          "type": "uint64"
        },
        {
          "internalType": "string",
          "name": "_memo",
          "type": "string"
        }
      ],
      "name": "ibcTransferAndRevert",
      "outputs": [
        {
          "internalType": "uint64",
          "name": "nextSequence",
          "type": "uint64"
        }
      ],
      "stateMutability": "nonpayable",
      "type": "function"
    },
    {
      "inputs": [
        {
          "internalType": "string",
          "name": "_sourcePort",
          "type": "string"
        },
        {
          "internalType": "string",
          "name": "_sourceChannel",
          "type": "string"
        },
        {
          "internalType": "string",
          "name": "_denom",
          "type": "string"
        },
        {
          "internalType": "uint256",
          "name": "_amount",
          "type": "uint256"
        },
        {
          "internalType": "address",
          "name": "_sender",
          "type": "address"
        },
        {
          "internalType": "string",
          "name": "_receiver",
          "type": "string"
        },
        {
          "components": [
            {
              "internalType": "uint64",
              "name": "revisionNumber",
              "type": "uint64"
            },
            {
              "internalType": "uint64",
              "name": "revisionHeight",
              "type": "uint64"
            }
          ],
          "internalType": "struct Height",
          "name": "_timeoutHeight",
          "type": "tuple"
        },
        {
          "internalType": "uint64",
          "name": "_timeoutTimestamp",
          "type": "uint64"
        },
        {
          "internalType": "string",
          "name": "_memo",
          "type": "string"
        }
      ],
      "name": "testIbcTransfer",
      "outputs": [
        {
          "internalType": "uint64",
          "name": "",
          "type": "uint64"
        }
      ],
      "stateMutability": "nonpayable",
      "type": "function"
    },
    {
      "inputs": [
        {
          "internalType": "string",
          "name": "_sourcePort",
          "type": "string"
        },
        {
          "internalType": "string",
          "name": "_sourceChannel",
          "type": "string"
        },
        {
          "internalType": "string",
          "name": "_denom",
          "type": "string"
        },
        {
          "internalType": "uint256",
          "name": "_amount",
          "type": "uint256"
        },
        {
          "internalType": "string",
          "name": "_receiver",
          "type": "string"
        },
        {
          "components": [
            {
              "internalType": "uint64",
              "name": "revisionNumber",
              "type": "uint64"
            },
            {
              "internalType": "uint64",
              "name": "revisionHeight",
              "type": "uint64"
            }
          ],
          "internalType": "struct Height",
          "name": "_timeoutHeight",
          "type": "tuple"
        },
        {
          "internalType": "uint64",
          "name": "_timeoutTimestamp",
          "type": "uint64"
        },
        {
          "internalType": "string",
          "name": "_memo",
          "type": "string"
        }
      ],
      "name": "testIbcTransferFromContract",
      "outputs": [
        {
          "internalType": "uint64",
          "name": "",
          "type": "uint64"
        }
      ],
      "stateMutability": "nonpayable",
      "type": "function"
    },
    {
      "inputs": [
        {
          "internalType": "string",
          "name": "_sourcePort",
          "type": "string"
        },
        {
          "internalType": "string",
          "name": "_sourceChannel",
          "type": "string"
        },
        {
          "internalType": "string",
          "name": "_denom",
          "type": "string"
        },
        {
          "internalType": "uint256",
          "name": "_amount",
          "type": "uint256"
        },
        {
          "internalType": "address",
          "name": "_sender",
          "type": "address"
        },
        {
          "internalType": "string",
          "name": "_receiver",
          "type": "string"
        },
        {
          "components": [
            {
              "internalType": "uint64",
              "name": "revisionNumber",
              "type": "uint64"
            },
            {
              "internalType": "uint64",
              "name": "revisionHeight",
              "type": "uint64"
            }
          ],
          "internalType": "struct Height",
          "name": "_timeoutHeight",
          "type": "tuple"
        },
        {
          "internalType": "uint64",
          "name": "_timeoutTimestamp",
          "type": "uint64"
        },
        {
          "internalType": "string",
          "name": "_memo",
          "type": "string"
        },
        {
          "internalType": "bool",
          "name": "_before",
          "type": "bool"
        },
        {
          "internalType": "bool",
          "name": "_after",
          "type": "bool"
        }
      ],
      "name": "testIbcTransferWithTransfer",
      "outputs": [
        {
          "internalType": "uint64",
          "name": "",
          "type": "uint64"
        }
      ],
      "stateMutability": "nonpayable",
      "type": "function"
    },
    {
      "inputs": [
        {
          "internalType": "string",
          "name": "_sourcePort",
          "type": "string"
        },
        {
          "internalType": "string",
          "name": "_sourceChannel",
          "type": "string"
        },
        {
          "internalType": "string",
          "name": "_denom",
          "type": "string"
        },
        {
          "internalType": "uint256",
          "name": "_amount",
          "type": "uint256"
        },
        {
          "internalType": "address",
          "name": "_sender",
          "type": "address"
        },
        {
          "internalType": "string",
          "name": "_receiver",
          "type": "string"
        },
        {
          "internalType": "address",
          "name": "_receiverAddr",
          "type": "address"
        },
        {
          "components": [
            {
              "internalType": "uint64",
              "name": "revisionNumber",
              "type": "uint64"
            },
            {
              "internalType": "uint64",
              "name": "revisionHeight",
              "type": "uint64"
            }
          ],
          "internalType": "struct Height",
          "name": "_timeoutHeight",
          "type": "tuple"
        },
        {
          "internalType": "uint64",
          "name": "_timeoutTimestamp",
          "type": "uint64"
        },
        {
          "internalType": "string",
          "name": "_memo",
          "type": "string"
        },
        {
          "internalType": "bool",
          "name": "_after",
          "type": "bool"
        }
      ],
      "name": "testRevertIbcTransfer",
      "outputs": [],
      "stateMutability": "nonpayable",
      "type": "function"
    }
  ],
  "bytecode": "0x6080806040523461001657610a55908161001b8239f35b5f80fdfe6080604081815260049081361015610015575f80fd5b5f92833560e01c90816361bc221a146106a057508063b42bc5a9146104bc578063bcc45b791461036f578063c352645014610176578063d0e30db014610164578063d8bb6c0e146100f55763e12e9b271461006e575f80fd5b346100f15760206100a561008136610798565b8b5163632535b960e01b81529c8d9a8b9a9099929893979496949392918b016108de565b0381866108025af19081156100e857506100bd575080fd5b6100dd9060203d81116100e1575b6100d581836106ec565b810190610881565b5080fd5b503d6100cb565b513d84823e3d90fd5b8280fd5b50346100f157602061010961008136610798565b0381866108025af191821561015a5760209392610132575b506001600160401b03905191168152f35b6001600160401b0391925061015390843d81116100e1576100d581836106ec565b9190610121565b81513d85823e3d90fd5b83806003193601126101735780f35b80fd5b50346100f1576101803660031901126100f1576001600160401b0390823582811161036b576101a89036908501610728565b936024358381116100dd576101c09036908601610728565b6044358481116100f1576101d79036908701610728565b956101e0610772565b60a43586811161036b576101f79036908901610728565b8560c31936011261036b57855161020d816106bd565b60c435888116810361036757815260e4358881168103610367576020820152610104359188831683036103675761012435898111610363576102529036908c01610728565b93610144359a8b15158c0361035f5791602097969593916102989593610276610788565b9d610328575b8b5163632535b960e01b81529e8f998a99606435938b016108de565b0381846108025af193841561031c5760209582956102fd575b506102bf575b505191168152f35b806102f791546102d18160070b610978565b8516906001600160401b031916178155808080600f335af16102f16109a4565b506109d3565b5f6102b7565b610315919550863d81116100e1576100d581836106ec565b935f6102b1565b509051903d90823e3d90fd5b8a548d6103378260070b610978565b16906001600160401b031916178b5561035a8b808080600f335af16102f16109a4565b61027c565b8880fd5b8780fd5b8680fd5b8480fd5b50346100f1576101203660031901126100f1576001600160401b0390823582811161036b576103a19036908501610728565b6024358381116104b8576103b89036908601610728565b604435848111610367576103cf9036908701610728565b90608435858111610363576103e79036908801610728565b928460a319360112610363578451906103ff826106bd565b60a43587811681036104b457825260c43587811681036104b457602083015260e43587811681036104b45761010435928884116104b0576020966104496104689536908d01610728565b9389519b8c98899863632535b960e01b8a523093606435938b016108de565b0381876108025af19283156104a6576020949361048757505191168152f35b61049f919350843d81116100e1576100d581836106ec565b915f6102b7565b81513d86823e3d90fd5b8a80fd5b8980fd5b8580fd5b50346100f1576101803660031901126100f157826001600160401b0383358181116100f1576104ee9036908601610728565b9060243581811161069c576105069036908701610728565b60443582811161036b5761051d9036908801610728565b610525610772565b9160a4358481116103675761053d9036908a01610728565b60c435959091906001600160a01b0387168703610363578860e3193601126103635788519461056b866106bd565b60e43587811681036104b45786526101043587811681036104b45760208701526101243587811681036104b45761014435908882116104b0578b976020966105e1948f946105bc9036908701610728565b946105c5610788565b9b5163e12e9b2760e01b81529a8b998a99606435938b016108de565b038188305af161067e575b506105f5578280f35b82600f8193829383549061060b8260070b610978565b16906001600160401b0319161783555af16106246109a4565b5015610631578281808280f35b906020608492519162461bcd60e51b8352820152602160248201527f4661696c656420746f2073656e6420457468657220746f2064656c656761746f6044820152603960f91b6064820152fd5b6106959060203d81116100e1576100d581836106ec565b505f6105ec565b8380fd5b8490346100dd57816003193601126100dd576020915460070b8152f35b604081019081106001600160401b038211176106d857604052565b634e487b7160e01b5f52604160045260245ffd5b90601f801991011681019081106001600160401b038211176106d857604052565b6001600160401b0381116106d857601f01601f191660200190565b81601f8201121561076e5780359061073f8261070d565b9261074d60405194856106ec565b8284526020838301011161076e57815f926020809301838601378301015290565b5f80fd5b608435906001600160a01b038216820361076e57565b6101643590811515820361076e57565b61014060031982011261076e576004906001600160401b03823581811161076e57826107c5918501610728565b9360243582811161076e57836107dc918601610728565b9360443583811161076e57846107f3918301610728565b93606435936084356001600160a01b038116810361076e579360a43582811161076e5783610822918601610728565b93604060c31985011261076e5760405161083b816106bd565b60c435848116810361076e57815260e435848116810361076e5760208201529361010435848116810361076e57936101243590811161076e5761087e9201610728565b90565b9081602091031261076e57516001600160401b038116810361076e5790565b91908251928382525f5b8481106108ca575050825f602080949584010152601f8019910116010190565b6020818301810151848301820152016108aa565b9590946109236109469461091561087e9c9a9b979561090860209a8c6101408091528d01906108a0565b908b82038b8d01526108a0565b9089820360408b01526108a0565b60608801939093526001600160a01b0316608087015285820360a08701526108a0565b946001600160401b039281848093511660c087015201511660e0840152166101008201526101208184039101526108a0565b60070b677fffffffffffffff81146109905760010190565b634e487b7160e01b5f52601160045260245ffd5b3d156109ce573d906109b58261070d565b916109c360405193846106ec565b82523d5f602084013e565b606090565b156109da57565b60405162461bcd60e51b815260206004820152601e60248201527f4661696c656420746f2073656e6420457468657220746f2073656e64657200006044820152606490fdfea2646970667358221220442cec55c0a0c3b38d912e6a91ee6c5eec7747abd29eed09439f02190207587364736f6c63430008140033",
  "linkReferences": {},
  "deployedLinkReferences": {},
  "immutableReferences": {},
  "inputSourceName": "project/solidity/precompiles/testutil/contracts/ICS20Caller.sol",
  "buildInfoId": "solc-0_8_20-fda2ffeb444d7d9486f659e7e357f970dc6ac662"
}