{
  "_format": "hh3-artifact-1",
  "contractName": "ICS20Caller",
  "sourceName": "solidity/precompiles/testutil/contracts/ICS20Caller.sol",
  "abi": [
    {
      "inputs": [],
      "name": "counter",
      "outputs": [
        {
          "internalType": "int64",
          "name": "",
          "type": "int64"
        }
      ],
      "stateMutability": "view",
      "type": "function"
    },
    {
      "inputs": [],
      "name": "deposit",
      "outputs": [],
      "stateMutability": "payable",
      "type": "function"
    },
    {
      "inputs": [
        {
          "internalType": "string",
          "name": "_sourcePort",
          "type": "string"
        },
        {
          "internalType": "string",
          "name": "_sourceChannel",
          "type": "string"
        },
        {
          "internalType": "string",
          "name": "_denom",
          "type": "string"
        },
        {
          "internalType": "uint256",
          "name": "_amount",
          "type": "uint256"
        },
        {
          "internalType": "address",
          "name": "_sender",
          "type": "address"
        },
        {
          "internalType": "string",
          "name": "_receiver",
          "type": "string"
        },
        {
          "components": [
            {
              "internalType": "uint64",
              "name": "revisionNumber",
              "type": "uint64"
            },
            {
              "internalType": "uint64",
              "name": "revisionHeight",
              "type": "uint64"
            }
          ],
          "internalType": "struct Height",
          "name": "_timeoutHeight",
          "type": "tuple"
        },
        {
          "internalType": "uint64",
          "name": "_timeoutTimestamp",
          "type": "uint64"
        },
        {
          "internalType": "string",
          "name": "_memo",
          "type": "string"
        }
      ],
      "name": "ibcTransferAndRevert",
      "outputs": [
        {
          "internalType": "uint64",
          "name": "nextSequence",
          "type": "uint64"
        }
      ],
      "stateMutability": "nonpayable",
      "type": "function"
    },
    {
      "inputs": [
        {
          "internalType": "string",
          "name": "_sourcePort",
          "type": "string"
        },
        {
          "internalType": "string",
          "name": "_sourceChannel",
          "type": "string"
        },
        {
          "internalType": "string",
          "name": "_denom",
          "type": "string"
        },
        {
          "internalType": "uint256",
          "name": "_amount",
          "type": "uint256"
        },
        {
          "internalType": "address",
          "name": "_sender",
          "type": "address"
        },
        {
          "internalType": "string",
          "name": "_receiver",
          "type": "string"
        },
        {
          "components": [
            {
              "internalType": "uint64",
              "name": "revisionNumber",
              "type": "uint64"
            },
            {
              "internalType": "uint64",
              "name": "revisionHeight",
              "type": "uint64"
            }
          ],
          "internalType": "struct Height",
          "name": "_timeoutHeight",
          "type": "tuple"
        },
        {
          "internalType": "uint64",
          "name": "_timeoutTimestamp",
          "type": "uint64"
        },
        {
          "internalType": "string",
          "name": "_memo",
          "type": "string"
        }
      ],
      "name": "testIbcTransfer",
      "outputs": [
        {
          "internalType": "uint64",
          "name": "",
          "type": "uint64"
        }
      ],
      "stateMutability": "nonpayable",
      "type": "function"
    },
    {
      "inputs": [
        {
          "internalType": "string",
          "name": "_sourcePort",
          "type": "string"
        },
        {
          "internalType": "string",
          "name": "_sourceChannel",
          "type": "string"
        },
        {
          "internalType": "string",
          "name": "_denom",
          "type": "string"
        },
        {
          "internalType": "uint256",
          "name": "_amount",
          "type": "uint256"
        },
        {
          "internalType": "string",
          "name": "_receiver",
          "type": "string"
        },
        {
          "components": [
            {
              "internalType": "uint64",
              "name": "revisionNumber",
              "type": "uint64"
            },
            {
              "internalType": "uint64",
              "name": "revisionHeight",
              "type": "uint64"
            }
          ],
          "internalType": "struct Height",
          "name": "_timeoutHeight",
          "type": "tuple"
        },
        {
          "internalType": "uint64",
          "name": "_timeoutTimestamp",
          "type": "uint64"
        },
        {
          "internalType": "string",
          "name": "_memo",
          "type": "string"
        }
      ],
      "name": "testIbcTransferFromContract",
      "outputs": [
        {
          "internalType": "uint64",
          "name": "",
          "type": "uint64"
        }
      ],
      "stateMutability": "nonpayable",
      "type": "function"
    },
    {
      "inputs": [
        {
          "internalType": "string",
          "name": "_sourcePort",
          "type": "string"
        },
        {
          "internalType": "string",
          "name": "_sourceChannel",
          "type": "string"
        },
        {
          "internalType": "string",
          "name": "_denom",
          "type": "string"
        },
        {
          "internalType": "uint256",
          "name": "_amount",
          "type": "uint256"
        },
        {
          "internalType": "address",
          "name": "_sender",
          "type": "address"
        },
        {
          "internalType": "string",
          "name": "_receiver",
          "type": "string"
        },
        {
          "components": [
            {
              "internalType": "uint64",
              "name": "revisionNumber",
              "type": "uint64"
            },
            {
              "internalType": "uint64",
              "name": "revisionHeight",
              "type": "uint64"
            }
          ],
          "internalType": "struct Height",
          "name": "_timeoutHeight",
          "type": "tuple"
        },
        {
          "internalType": "uint64",
          "name": "_timeoutTimestamp",
          "type": "uint64"
        },
        {
          "internalType": "string",
          "name": "_memo",
          "type": "string"
        },
        {
          "internalType": "bool",
          "name": "_before",
          "type": "bool"
        },
        {
          "internalType": "bool",
          "name": "_after",
          "type": "bool"
        }
      ],
      "name": "testIbcTransferWithTransfer",
      "outputs": [
        {
          "internalType": "uint64",
          "name": "",
          "type": "uint64"
        }
      ],
      "stateMutability": "nonpayable",
      "type": "function"
    },
    {
      "inputs": [
        {
          "internalType": "string",
          "name": "_sourcePort",
          "type": "string"
        },
        {
          "internalType": "string",
          "name": "_sourceChannel",
          "type": "string"
        },
        {
          "internalType": "string",
          "name": "_denom",
          "type": "string"
        },
        {
          "internalType": "uint256",
          "name": "_amount",
          "type": "uint256"
        },
        {
          "internalType": "address",
          "name": "_sender",
          "type": "address"
        },
        {
          "internalType": "string",
          "name": "_receiver",
          "type": "string"
        },
        {
          "internalType": "address",
          "name": "_receiverAddr",
          "type": "address"
        },
        {
          "components": [
            {
              "internalType": "uint64",
              "name": "revisionNumber",
              "type": "uint64"
            },
            {
              "internalType": "uint64",
              "name": "revisionHeight",
              "type": "uint64"
            }
          ],
          "internalType": "struct Height",
          "name": "_timeoutHeight",
          "type": "tuple"
        },
        {
          "internalType": "uint64",
          "name": "_timeoutTimestamp",
          "type": "uint64"
        },
        {
          "internalType": "string",
          "name": "_memo",
          "type": "string"
        },
        {
          "internalType": "bool",
          "name": "_after",
          "type": "bool"
        }
      ],
      "name": "testRevertIbcTransfer",
      "outputs": [],
      "stateMutability": "nonpayable",
      "type": "function"
    }
  ],
  "bytecode": "0x60808060405234601557610a94908161001a8239f35b5f80fdfe6080806040526004361015610012575f80fd5b5f3560e01c90816361bc221a146106cb57508063b42bc5a9146104b3578063bcc45b791461037f578063c352645014610158578063d0e30db01461014b578063d8bb6c0e146100f15763e12e9b2714610069575f80fd5b346100db576100a4602061007c366107d2565b60405163632535b960e01b81529a8b998a999198929793969495949392919060048b01610920565b03815f6108025af180156100e6576100ba575f80fd5b6100db9060203d6020116100df575b6100d38183610716565b8101906108dd565b5f80fd5b503d6100c9565b6040513d5f823e3d90fd5b346100db57610104602061007c366107d2565b03815f6108025af180156100e6576020915f9161012e575b506001600160401b0360405191168152f35b6101459150823d84116100df576100d38183610716565b8261011c565b5f3660031901126100db57005b346100db576101803660031901126100db576004356001600160401b0381116100db57610189903690600401610752565b6024356001600160401b0381116100db576101a8903690600401610752565b6044356001600160401b0381116100db576101c7903690600401610752565b906101d0610798565b9160a4356001600160401b0381116100db576101f0903690600401610752565b9160403660c31901126100db576040519361020a856106e7565b60c4356001600160401b03811681036100db57855260e4356001600160401b03811681036100db576020860152610104356001600160401b03811681036100db57610124356001600160401b0381116100db5761026b903690600401610752565b90610144359687151588036100db576020966102ae946102896107c2565b99610341575b60405163632535b960e01b81529a8b9889986064359260048b01610920565b03815f6108025af19081156100e6576020925f92610322575b506102de575b6001600160401b0360405191168152f35b5f546102ec8160070b6109b7565b6001600160401b0316906001600160401b031916175f5561031d5f808080600f335af16103176109e3565b50610a12565b6102cd565b61033a919250833d85116100df576100d38183610716565b90836102c7565b5f5461034f8160070b6109b7565b6001600160401b0316906001600160401b031916175f5561037a5f808080600f335af16103176109e3565b61028f565b346100db576101203660031901126100db576004356001600160401b0381116100db576103b0903690600401610752565b6024356001600160401b0381116100db576103cf903690600401610752565b906044356001600160401b0381116100db576103ef903690600401610752565b906084356001600160401b0381116100db5761040f903690600401610752565b9160403660a31901126100db5760405192610429846106e7565b60a4356001600160401b03811681036100db57845260c4356001600160401b03811681036100db57602085015260e435906001600160401b03821682036100db5761010435916001600160401b0383116100db57602095610491610104943690600401610752565b92604051988997889763632535b960e01b895230926064359260048b01610920565b346100db576101803660031901126100db576004356001600160401b0381116100db576104e4903690600401610752565b6024356001600160401b0381116100db57610503903690600401610752565b906044356001600160401b0381116100db57610523903690600401610752565b9061052c610798565b9160a4356001600160401b0381116100db5761054c903690600401610752565b60c435949091906001600160a01b03861686036100db5760403660e31901126100db576040519261057c846106e7565b60e4356001600160401b03811681036100db578452610104356001600160401b03811681036100db57602085015261012435906001600160401b03821682036100db5761014435916001600160401b0383116100db576020956105e661060f943690600401610752565b926105ef6107c2565b99604051998a98899863e12e9b2760e01b8a526064359260048b01610920565b03815f305af16106ae575b5061062157005b5f8080600f819482546106368160070b6109b7565b6001600160401b0316906001600160401b0319161783555af16106576109e3565b501561065f57005b60405162461bcd60e51b815260206004820152602160248201527f4661696c656420746f2073656e6420457468657220746f2064656c656761746f6044820152603960f91b6064820152608490fd5b6106c69060203d6020116100df576100d38183610716565b61061a565b346100db575f3660031901126100db576020905f5460070b8152f35b604081019081106001600160401b0382111761070257604052565b634e487b7160e01b5f52604160045260245ffd5b90601f801991011681019081106001600160401b0382111761070257604052565b6001600160401b03811161070257601f01601f191660200190565b81601f820112156100db5780359061076982610737565b926107776040519485610716565b828452602083830101116100db57815f926020809301838601378301015290565b608435906001600160a01b03821682036100db57565b35906001600160401b03821682036100db57565b610164359081151582036100db57565b6101406003198201126100db576004356001600160401b0381116100db57816107fd91600401610752565b916024356001600160401b0381116100db578261081c91600401610752565b916044356001600160401b0381116100db578161083b91600401610752565b91606435916084356001600160a01b03811681036100db579160a4356001600160401b0381116100db578261087291600401610752565b91604060c48203126100db5760405161088a816106e7565b61089460c46107ae565b81526108a060e46107ae565b602082015291610104356001600160401b03811681036100db579161012435906001600160401b0382116100db576108da91600401610752565b90565b908160209103126100db57516001600160401b03811681036100db5790565b805180835260209291819084018484015e5f828201840152601f01601f1916010190565b95936108da999798946001600160401b039661096d889661095f602097610952610990986101408f81815201906108fc565b8d81038a8f0152906108fc565b908b820360408d01526108fc565b60608a01939093526001600160a01b0316608089015287820360a08901526108fc565b968281511660c087015201511660e0840152166101008201526101208184039101526108fc565b60070b677fffffffffffffff81146109cf5760010190565b634e487b7160e01b5f52601160045260245ffd5b3d15610a0d573d906109f482610737565b91610a026040519384610716565b82523d5f602084013e565b606090565b15610a1957565b60405162461bcd60e51b815260206004820152601e60248201527f4661696c656420746f2073656e6420457468657220746f2073656e64657200006044820152606490fdfea2646970667358221220f748583a19a37b2aafc4be948806a8d8676de38545599acd78097f4ac4715b5d64736f6c634300081c0033",
  "linkReferences": {},
  "deployedLinkReferences": {},
  "immutableReferences": {},
  "inputSourceName": "project/solidity/precompiles/testutil/contracts/ICS20Caller.sol",
  "buildInfoId": "solc-0_8_28-e55ad96646b3bb5046840fe24a1f6856fc44be2c"
}