{
  "_format": "hh3-artifact-1",
  "contractName": "InterchainSender",
  "sourceName": "solidity/precompiles/testutil/contracts/InterchainSender.sol",
  "abi": [
    {
      "inputs": [],
      "name": "counter",
      "outputs": [
        {
          "internalType": "int64",
          "name": "",
          "type": "int64"
        }
      ],
      "stateMutability": "view",
      "type": "function"
    },
    {
      "inputs": [
        {
          "internalType": "string",
          "name": "hash",
          "type": "string"
        }
      ],
      "name": "testDenom",
      "outputs": [
        {
          "components": [
            {
              "internalType": "string",
              "name": "base",
              "type": "string"
            },
            {
              "components": [
                {
                  "internalType": "string",
                  "name": "portId",
                  "type": "string"
                },
                {
                  "internalType": "string",
                  "name": "channelId",
                  "type": "string"
                }
              ],
              "internalType": "struct Hop[]",
              "name": "trace",
              "type": "tuple[]"
            }
          ],
          "internalType": "struct Denom",
          "name": "denom",
          "type": "tuple"
        }
      ],
      "stateMutability": "view",
      "type": "function"
    },
    {
      "inputs": [
        {
          "internalType": "string",
          "name": "trace",
          "type": "string"
        }
      ],
      "name": "testDenomHash",
      "outputs": [
        {
          "internalType": "string",
          "name": "hash",
          "type": "string"
        }
      ],
      "stateMutability": "view",
      "type": "function"
    },
    {
      "inputs": [
        {
          "components": [
            {
              "internalType": "bytes",
              "name": "key",
              "type": "bytes"
            },
            {
              "internalType": "uint64",
              "name": "offset",
              "type": "uint64"
            },
            {
              "internalType": "uint64",
              "name": "limit",
              "type": "uint64"
            },
            {
              "internalType": "bool",
              "name": "countTotal",
              "type": "bool"
            },
            {
              "internalType": "bool",
              "name": "reverse",
              "type": "bool"
            }
          ],
          "internalType": "struct PageRequest",
          "name": "pageRequest",
          "type": "tuple"
        }
      ],
      "name": "testDenoms",
      "outputs": [
        {
          "components": [
            {
              "internalType": "string",
              "name": "base",
              "type": "string"
            },
            {
              "components": [
                {
                  "internalType": "string",
                  "name": "portId",
                  "type": "string"
                },
                {
                  "internalType": "string",
                  "name": "channelId",
                  "type": "string"
                }
              ],
              "internalType": "struct Hop[]",
              "name": "trace",
              "type": "tuple[]"
            }
          ],
          "internalType": "struct Denom[]",
          "name": "denoms",
          "type": "tuple[]"
        },
        {
          "components": [
            {
              "internalType": "bytes",
              "name": "nextKey",
              "type": "bytes"
            },
            {
              "internalType": "uint64",
              "name": "total",
              "type": "uint64"
            }
          ],
          "internalType": "struct PageResponse",
          "name": "pageResponse",
          "type": "tuple"
        }
      ],
      "stateMutability": "view",
      "type": "function"
    },
    {
      "inputs": [
        {
          "internalType": "address payable",
          "name": "_source",
          "type": "address"
        },
        {
          "internalType": "string",
          "name": "sourcePort",
          "type": "string"
        },
        {
          "internalType": "string",
          "name": "sourceChannel",
          "type": "string"
        },
        {
          "internalType": "string",
          "name": "denom",
          "type": "string"
        },
        {
          "internalType": "uint256",
          "name": "amount",
          "type": "uint256"
        },
        {
          "internalType": "string",
          "name": "receiver",
          "type": "string"
        },
        {
          "internalType": "bool",
          "name": "_before",
          "type": "bool"
        },
        {
          "internalType": "bool",
          "name": "_between",
          "type": "bool"
        },
        {
          "internalType": "bool",
          "name": "_after",
          "type": "bool"
        }
      ],
      "name": "testMultiTransferWithInternalTransfer",
      "outputs": [],
      "stateMutability": "nonpayable",
      "type": "function"
    },
    {
      "inputs": [
        {
          "internalType": "string",
          "name": "sourcePort",
          "type": "string"
        },
        {
          "internalType": "string",
          "name": "sourceChannel",
          "type": "string"
        },
        {
          "internalType": "string",
          "name": "denom",
          "type": "string"
        },
        {
          "internalType": "uint256",
          "name": "amount",
          "type": "uint256"
        },
        {
          "internalType": "string",
          "name": "receiver",
          "type": "string"
        },
        {
          "components": [
            {
              "internalType": "uint64",
              "name": "revisionNumber",
              "type": "uint64"
            },
            {
              "internalType": "uint64",
              "name": "revisionHeight",
              "type": "uint64"
            }
          ],
          "internalType": "struct Height",
          "name": "timeoutHeight",
          "type": "tuple"
        },
        {
          "internalType": "uint64",
          "name": "timeoutTimestamp",
          "type": "uint64"
        },
        {
          "internalType": "string",
          "name": "memo",
          "type": "string"
        }
      ],
      "name": "testTransferContractFunds",
      "outputs": [
        {
          "internalType": "uint64",
          "name": "nextSequence",
          "type": "uint64"
        }
      ],
      "stateMutability": "nonpayable",
      "type": "function"
    },
    {
      "inputs": [
        {
          "internalType": "address payable",
          "name": "_otherAcc",
          "type": "address"
        },
        {
          "internalType": "address",
          "name": "_source",
          "type": "address"
        },
        {
          "internalType": "string",
          "name": "sourcePort",
          "type": "string"
        },
        {
          "internalType": "string",
          "name": "sourceChannel",
          "type": "string"
        },
        {
          "internalType": "string",
          "name": "denom",
          "type": "string"
        },
        {
          "internalType": "uint256",
          "name": "amount",
          "type": "uint256"
        },
        {
          "internalType": "string",
          "name": "receiver",
          "type": "string"
        },
        {
          "internalType": "bool",
          "name": "_before",
          "type": "bool"
        },
        {
          "internalType": "bool",
          "name": "_after",
          "type": "bool"
        }
      ],
      "name": "testTransferFundsWithTransferToOtherAcc",
      "outputs": [],
      "stateMutability": "nonpayable",
      "type": "function"
    },
    {
      "inputs": [
        {
          "internalType": "string",
          "name": "sourcePort",
          "type": "string"
        },
        {
          "internalType": "string",
          "name": "sourceChannel",
          "type": "string"
        },
        {
          "internalType": "string",
          "name": "denom",
          "type": "string"
        },
        {
          "internalType": "uint256",
          "name": "amount",
          "type": "uint256"
        },
        {
          "internalType": "string",
          "name": "receiver",
          "type": "string"
        },
        {
          "components": [
            {
              "internalType": "uint64",
              "name": "revisionNumber",
              "type": "uint64"
            },
            {
              "internalType": "uint64",
              "name": "revisionHeight",
              "type": "uint64"
            }
          ],
          "internalType": "struct Height",
          "name": "timeoutHeight",
          "type": "tuple"
        },
        {
          "internalType": "uint64",
          "name": "timeoutTimestamp",
          "type": "uint64"
        },
        {
          "internalType": "string",
          "name": "memo",
          "type": "string"
        }
      ],
      "name": "testTransferUserFunds",
      "outputs": [
        {
          "internalType": "uint64",
          "name": "nextSequence",
          "type": "uint64"
        }
      ],
      "stateMutability": "nonpayable",
      "type": "function"
    }
  ],
  "bytecode": "0x60808060405234610016576110d5908161001b8239f35b5f80fdfe60806040526004361015610011575f80fd5b5f3560e01c80631dba685b146107cd57806344c286701461053d57806361bc221a1461051e5780636fdf23cc146104e75780637492bdd81461044e578063accc7b901461037d578063b9672879146101405763c595699a14610071575f80fd5b34610131576020366003190112610131576001600160401b03600435818111610131575f6100a66100c8923690600401610ae9565b6040518093819263b5cb6e7d60e01b8352602060048401526024830190610b7c565b03816108025afa908115610135575f916100f7575b604051602080825281906100f390820185610b7c565b0390f35b90503d805f833e6101088183610aad565b8101602082820312610131578151928311610131576100f39261012b9201610f7b565b5f6100dd565b5f80fd5b6040513d5f823e3d90fd5b3461013157600319610120368201126101315761015b610a68565b6001600160a01b03916024358381169190829003610131576001600160401b039160443583811161013157610194903690600401610ae9565b606435848111610131576101ac903690600401610ae9565b91608435858111610131576101c5903690600401610ae9565b9160c435868111610131576101de903690600401610ae9565b926101e7610b2f565b958989896101f3610b3e565b99610355575b50505060405161020881610a7e565b606481526020958695869485840160649052604051998a9763632535b960e01b8952600489016101409052610144890161024191610b7c565b868982030160248a015261025491610b7c565b8588820301604489015261026791610b7c565b9060a43560648801526084870152838682030160a487015261028891610b7c565b9060c485016102ac91602090816001600160401b0391828151168552015116910152565b61010484015f90528381039182016101248501525f905201815a6108025f91f1801561013557610321575b50506102df57005b5f80650da475abf00061031f95829583958454906102ff8260070b610de0565b16906001600160401b031916178455165af1610319610e0c565b50610e3b565b005b81813d831161034e575b6103358183610aad565b810103126101315761034690610d25565b5084806102d7565b503d61032b565b5f80650da475abf00061037595829583958454906102ff8260070b610de0565b8989896101f9565b3461013157602080600319360112610131576001600160401b0390600435828111610131575f6103b46103e9923690600401610ae9565b6060846040516103c381610a7e565b828152015260405180938192632f8fcc5160e11b83528660048401526024830190610b7c565b03816108025afa928315610135575f93610414575b50506100f3604051928284938452830190610ba1565b909192503d805f843e6104278184610aad565b8201908383830312610131578251908111610131576104469201610f95565b9082806103fe565b3461013157610485602061046136610c50565b93989496604093919351998a98899863632535b960e01b8a52339360048b01610d39565b03815f6108025af18015610135575f906104ae575b6020906001600160401b0360405191168152f35b506020813d82116104df575b816104c760209383610aad565b81010312610131576104da602091610d25565b61049a565b3d91506104ba565b346101315761048560206104fa36610c50565b93989496604093919351998a98899863632535b960e01b8a52309360048b01610d39565b34610131575f3660031901126101315760205f5460070b604051908152f35b346101315760031960203682018113610131576001600160401b03916004358381116101315760a081360392830112610131575f8360405161057e81610a7e565b6060815201526040519163303eac4160e21b83528360048401528160040135906022190181121561013157810160246004820135910191858211610131578136038313610131578382610629608460e49484965f9860a060248801528160c488015287870137878685870101528a6105f860248301610c3c565b1660448601528a61060b60448301610c3c565b16606486015261061d60648201610b4e565b15158286015201610b4e565b151560a4830152601f01601f191681010301816108025afa908115610135575f905f926106d3575b50604051926040840194604085528251809652606085018260608860051b8801019401905f905b8882106106ab5750505084809650830382860152816106a08551604086526040860190610b7c565b940151169101520390f35b90919484806106c6600193605f198c82030186528951610ba1565b9701920192019091610678565b9150503d805f833e6106e58183610aad565b8101906040818303126101315780518481116101315781019082601f8301121561013157815161071481610f2d565b926107226040519485610aad565b818452858085019260051b8201019185831161013157868201905b8382106107a8575050505083810151908582116101315701604081840312610131576040519261076c84610a7e565b81518681116101315782019181601f84011215610131576107968692848461079e96519101610f44565b855201610d25565b8383015284610651565b81518981116101315788916107c289848094880101610f95565b81520191019061073d565b3461013157610120366003190112610131576107e7610a68565b6024356001600160401b03811161013157610806903690600401610ae9565b6044356001600160401b03811161013157610825903690600401610ae9565b906064356001600160401b03811161013157610845903690600401610ae9565b60a4356001600160401b03811161013157610864903690600401610ae9565b9060c4359384151585036101315761087a610b2f565b92610883610b3e565b95610a1d575b604051809461089782610a7e565b60648252606460208301526020838a6108ce604051958693849363632535b960e01b85528d8c8c60843560011c9260048901610e91565b03815f6108025af19182156101355789926109d5575b509160209591610915936109b2575b60405163632535b960e01b8152978896879660843560011c9260048901610e91565b03815f6108025af1801561013557610979575b5061092f57005b5f808080650da475abf00061031f95825461094c8160070b610de0565b6001600160401b031667ffffffffffffffff19919091161783556001600160a01b03165af1610319610e0c565b6020813d6020116109aa575b8161099260209383610aad565b81010312610131576109a390610d25565b5082610928565b3d9150610985565b5f808080650da475abf0006109cf95825461094c8160070b610de0565b886108f3565b959150916020863d602011610a15575b816109f260209383610aad565b81010312610131578861091593610a0a602098610d25565b5091935091956108e4565b3d91506109e5565b5f54610a2b8160070b610de0565b6001600160401b0316906001600160401b031916175f55610a635f808080650da475abf00060018060a01b038d165af1610319610e0c565b610889565b600435906001600160a01b038216820361013157565b604081019081106001600160401b03821117610a9957604052565b634e487b7160e01b5f52604160045260245ffd5b90601f801991011681019081106001600160401b03821117610a9957604052565b6001600160401b038111610a9957601f01601f191660200190565b81601f8201121561013157803590610b0082610ace565b92610b0e6040519485610aad565b8284526020838301011161013157815f926020809301838601378301015290565b60e43590811515820361013157565b6101043590811515820361013157565b3590811515820361013157565b5f5b838110610b6c5750505f910152565b8181015183820152602001610b5d565b90602091610b9581518092818552858086019101610b5b565b601f01601f1916010190565b805190610bb660409283855283850190610b7c565b90602080910151938181840391015283519182815281810182808560051b8401019601945f925b858410610bee575050505050505090565b909192939495968580610c2b600193601f198682030188528b519083610c1b83518a84528a840190610b7c565b9201519084818403910152610b7c565b990194019401929594939190610bdd565b35906001600160401b038216820361013157565b610120600319820112610131576004916001600160401b039083358281116101315783610c7e918601610ae9565b936024358381116101315784610c95918301610ae9565b936044358481116101315781610cac918401610ae9565b93606435936084358281116101315783610cc7918601610ae9565b93604060a31985011261013157604051610ce081610a7e565b60a435848116810361013157815260c43584811681036101315760208201529360e435848116810361013157936101043590811161013157610d229201610ae9565b90565b51906001600160401b038216820361013157565b956001600160401b0395610d87610dcb95610d79610daa96610d6b610d229f9d9e9a978d610140908181520190610b7c565b8c810360208e015290610b7c565b908a820360408c0152610b7c565b60608901939093526001600160a01b0316608088015286820360a0880152610b7c565b9560c0850190602090816001600160401b0391828151168552015116910152565b16610100820152610120818403910152610b7c565b60070b677fffffffffffffff8114610df85760010190565b634e487b7160e01b5f52601160045260245ffd5b3d15610e36573d90610e1d82610ace565b91610e2b6040519384610aad565b82523d5f602084013e565b606090565b15610e4257565b60405162461bcd60e51b815260206004820152602160248201527f4661696c656420746f2073656e6420457468657220746f2064656c656761746f6044820152603960f91b6064820152608490fd5b94610ed2610ef594610ec4610f169795610eb760209c9b96610140808d528c0190610b7c565b908a82038d8c0152610b7c565b9088820360408a0152610b7c565b60608701939093526001600160a01b0316608086015284820360a0860152610b7c565b9260c0830190602090816001600160401b0391828151168552015116910152565b5f6101008201526101208183039101525f81520190565b6001600160401b038111610a995760051b60200190565b90929192610f5181610ace565b91610f5f6040519384610aad565b829482845282820111610131576020610f79930190610b5b565b565b9080601f83011215610131578151610d2292602001610f44565b91906040928381830312610131578351610fae81610a7e565b80948251936001600160401b03948581116101315781610fcf918601610f7b565b8352602093848101519086821161013157019181601f8401121561013157825190610ff982610f2d565b9661100682519889610aad565b828852868089019360051b8601019484861161013157878101935b86851061103357505050505050500152565b84518381116101315782019084601f1983890301126101315784519061105882610a7e565b8a83015185811161013157888c61107192860101610f7b565b8252858301519185831161013157611090898d80969581960101610f7b565b8382015281520194019361102156fea264697066735822122091f415cb7605ffa84548d5a1529275a98eebcbd6cf8480eee2528921f4b9f26c64736f6c63430008140033",
  "linkReferences": {},
  "deployedLinkReferences": {},
  "immutableReferences": {},
  "inputSourceName": "project/solidity/precompiles/testutil/contracts/InterchainSender.sol",
  "buildInfoId": "solc-0_8_20-fda2ffeb444d7d9486f659e7e357f970dc6ac662"
}