{
  "_format": "hh3-artifact-1",
  "contractName": "InterchainSenderCaller",
  "sourceName": "solidity/precompiles/testutil/contracts/InterchainSenderCaller.sol",
  "abi": [
    {
      "inputs": [
        {
          "internalType": "address",
          "name": "_interchainSender",
          "type": "address"
        }
      ],
      "stateMutability": "payable",
      "type": "constructor"
    },
    {
      "inputs": [],
      "name": "counter",
      "outputs": [
        {
          "internalType": "int64",
          "name": "",
          "type": "int64"
        }
      ],
      "stateMutability": "view",
      "type": "function"
    },
    {
      "inputs": [
        {
          "internalType": "address payable",
          "name": "_source",
          "type": "address"
        },
        {
          "internalType": "string",
          "name": "sourcePort",
          "type": "string"
        },
        {
          "internalType": "string",
          "name": "sourceChannel",
          "type": "string"
        },
        {
          "internalType": "string",
          "name": "denom",
          "type": "string"
        },
        {
          "internalType": "uint256",
          "name": "amount",
          "type": "uint256"
        },
        {
          "internalType": "string",
          "name": "receiver",
          "type": "string"
        }
      ],
      "name": "performMultiTransferWithRevert",
      "outputs": [],
      "stateMutability": "nonpayable",
      "type": "function"
    },
    {
      "inputs": [
        {
          "internalType": "address payable",
          "name": "_source",
          "type": "address"
        },
        {
          "internalType": "string",
          "name": "sourcePort",
          "type": "string"
        },
        {
          "internalType": "string",
          "name": "sourceChannel",
          "type": "string"
        },
        {
          "internalType": "string",
          "name": "denom",
          "type": "string"
        },
        {
          "internalType": "uint256",
          "name": "amount",
          "type": "uint256"
        },
        {
          "internalType": "string",
          "name": "receiver",
          "type": "string"
        }
      ],
      "name": "performNestedTransfers",
      "outputs": [],
      "stateMutability": "nonpayable",
      "type": "function"
    },
    {
      "inputs": [
        {
          "internalType": "address payable",
          "name": "_source",
          "type": "address"
        },
        {
          "internalType": "string",
          "name": "sourcePort",
          "type": "string"
        },
        {
          "internalType": "string",
          "name": "sourceChannel",
          "type": "string"
        },
        {
          "internalType": "string",
          "name": "denom",
          "type": "string"
        },
        {
          "internalType": "uint256",
          "name": "amount",
          "type": "uint256"
        },
        {
          "internalType": "string",
          "name": "receiver",
          "type": "string"
        }
      ],
      "name": "transfersWithNestedRevert",
      "outputs": [],
      "stateMutability": "nonpayable",
      "type": "function"
    },
    {
      "inputs": [
        {
          "internalType": "address payable",
          "name": "_source",
          "type": "address"
        },
        {
          "internalType": "string",
          "name": "sourcePort",
          "type": "string"
        },
        {
          "internalType": "string",
          "name": "sourceChannel",
          "type": "string"
        },
        {
          "internalType": "string",
          "name": "denom",
          "type": "string"
        },
        {
          "internalType": "uint256",
          "name": "amount",
          "type": "uint256"
        },
        {
          "internalType": "string",
          "name": "receiver",
          "type": "string"
        }
      ],
      "name": "transfersWithRevert",
      "outputs": [],
      "stateMutability": "nonpayable",
      "type": "function"
    }
  ],
  "bytecode": "0x6080601f61068f38819003918201601f19168301916001600160401b03831184841017607c57808492602094604052833981010312607857516001600160a01b03811681036078575f8054600160401b600160e01b031916604092831b600160401b600160e01b0316179055516105fe90816100918239f35b5f80fd5b634e487b7160e01b5f52604160045260245ffdfe60806040526004361015610011575f80fd5b5f803560e01c8063073989ff146102e7578063427c1cb61461021c57806361bc221a146101fc57806369a98b2b146100d75763ec3c5a1414610051575f80fd5b346100c5578061006036610404565b86549295919460409390931c6001600160a01b03169291833b156100d3576100a38896928793604051998a9889978896631dba685b60e01b885260048801610553565b03925af180156100c8576100b45750fd5b816100be9161037a565b6100c55780fd5b80fd5b6040513d84823e3d90fd5b8780fd5b50346100c557806100e736610404565b86959291949395546100fb8160070b6104a7565b67ffffffffffffffff199091166001600160401b03919091161780885560401c6001600160a01b0316803b156100d35787878492878388610154888d604051998a9889978896631dba685b60e01b885260048801610553565b03925af19081156101f15788916101dc575b5050303b156101d8578694610190926040519788968796633b0f168560e21b8852600488016104f7565b038183305af16101c3575b50546101a98160070b6104a7565b6001600160401b0316906001600160401b03191617815580f35b816101cd9161037a565b6100c557805f61019b565b8680fd5b816101e69161037a565b6101d857865f610166565b6040513d8a823e3d90fd5b50346100c557806003193601126100c5576020905460070b604051908152f35b50346100c5578061022c36610404565b8654939591949391929160401c6001600160a01b0316803b156100d35787878492878388610272888d604051998a9889978896631dba685b60e01b885260048801610553565b03925af19081156101f15788916102d2575b5050303b156101d85786946102ae926040519788968796633b0f168560e21b8852600488016104f7565b038183305af180156100c8576102c15750f35b816102cb9161037a565b6100c55780f35b816102dc9161037a565b6101d857865f610284565b5034610376576102f636610404565b5f9592919493955461030a8160070b6104a7565b6001600160401b0316906001600160401b031916175f55303b15610376575f9461034992604051978896879663213e0e5b60e11b8852600488016104f7565b038183305af1610363575b5080546101a98160070b6104a7565b61036f91505f9061037a565b5f80610354565b5f80fd5b90601f801991011681019081106001600160401b0382111761039b57604052565b634e487b7160e01b5f52604160045260245ffd5b81601f82011215610376578035906001600160401b03821161039b57604051926103e3601f8401601f19166020018561037a565b8284526020838301011161037657815f926020809301838601378301015290565b9060c0600319830112610376576004356001600160a01b038116810361037657916024356001600160401b0381116103765781610443916004016103af565b916044356001600160401b0381116103765782610462916004016103af565b916064356001600160401b0381116103765781610481916004016103af565b916084359160a435906001600160401b038211610376576104a4916004016103af565b90565b60070b677fffffffffffffff81146104bf5760010190565b634e487b7160e01b5f52601160045260245ffd5b805180835260209291819084018484015e5f828201840152601f01601f1916010190565b9261053290610524610540946104a499979460018060a01b0316875260c0602088015260c08701906104d3565b9085820360408701526104d3565b9083820360608501526104d3565b92608082015260a08184039101526104d3565b969590610100946105966105b7956105886001999661012060208e6105a4988e8060a01b0316815201526101208d01906104d3565b908b820360408d01526104d3565b9089820360608b01526104d3565b91608088015286820360a08801526104d3565b938260c08201528260e0820152015256fea264697066735822122027ff5b78a2d85198548d6c413f6d531c1d1f182e3f3eed3031c541758f7d073164736f6c634300081a0033",
  "linkReferences": {},
  "deployedLinkReferences": {},
  "immutableReferences": {},
  "inputSourceName": "project/solidity/precompiles/testutil/contracts/InterchainSenderCaller.sol",
  "buildInfoId": "solc-0_8_26-6ec4f0c6b3691526d7b3a3a19b37097670fc2b6e"
}