{
  "_format": "hh3-artifact-1",
  "contractName": "InterchainSender",
  "sourceName": "solidity/precompiles/testutil/contracts/InterchainSender.sol",
  "abi": [
    {
      "inputs": [],
      "name": "counter",
      "outputs": [
        {
          "internalType": "int64",
          "name": "",
          "type": "int64"
        }
      ],
      "stateMutability": "view",
      "type": "function"
    },
    {
      "inputs": [
        {
          "internalType": "string",
          "name": "hash",
          "type": "string"
        }
      ],
      "name": "testDenom",
      "outputs": [
        {
          "components": [
            {
              "internalType": "string",
              "name": "base",
              "type": "string"
            },
            {
              "components": [
                {
                  "internalType": "string",
                  "name": "portId",
                  "type": "string"
                },
                {
                  "internalType": "string",
                  "name": "channelId",
                  "type": "string"
                }
              ],
              "internalType": "struct Hop[]",
              "name": "trace",
              "type": "tuple[]"
            }
          ],
          "internalType": "struct Denom",
          "name": "denom",
          "type": "tuple"
        }
      ],
      "stateMutability": "view",
      "type": "function"
    },
    {
      "inputs": [
        {
          "internalType": "string",
          "name": "trace",
          "type": "string"
        }
      ],
      "name": "testDenomHash",
      "outputs": [
        {
          "internalType": "string",
          "name": "hash",
          "type": "string"
        }
      ],
      "stateMutability": "view",
      "type": "function"
    },
    {
      "inputs": [
        {
          "components": [
            {
              "internalType": "bytes",
              "name": "key",
              "type": "bytes"
            },
            {
              "internalType": "uint64",
              "name": "offset",
              "type": "uint64"
            },
            {
              "internalType": "uint64",
              "name": "limit",
              "type": "uint64"
            },
            {
              "internalType": "bool",
              "name": "countTotal",
              "type": "bool"
            },
            {
              "internalType": "bool",
              "name": "reverse",
              "type": "bool"
            }
          ],
          "internalType": "struct PageRequest",
          "name": "pageRequest",
          "type": "tuple"
        }
      ],
      "name": "testDenoms",
      "outputs": [
        {
          "components": [
            {
              "internalType": "string",
              "name": "base",
              "type": "string"
            },
            {
              "components": [
                {
                  "internalType": "string",
                  "name": "portId",
                  "type": "string"
                },
                {
                  "internalType": "string",
                  "name": "channelId",
                  "type": "string"
                }
              ],
              "internalType": "struct Hop[]",
              "name": "trace",
              "type": "tuple[]"
            }
          ],
          "internalType": "struct Denom[]",
          "name": "denoms",
          "type": "tuple[]"
        },
        {
          "components": [
            {
              "internalType": "bytes",
              "name": "nextKey",
              "type": "bytes"
            },
            {
              "internalType": "uint64",
              "name": "total",
              "type": "uint64"
            }
          ],
          "internalType": "struct PageResponse",
          "name": "pageResponse",
          "type": "tuple"
        }
      ],
      "stateMutability": "view",
      "type": "function"
    },
    {
      "inputs": [
        {
          "internalType": "address payable",
          "name": "_source",
          "type": "address"
        },
        {
          "internalType": "string",
          "name": "sourcePort",
          "type": "string"
        },
        {
          "internalType": "string",
          "name": "sourceChannel",
          "type": "string"
        },
        {
          "internalType": "string",
          "name": "denom",
          "type": "string"
        },
        {
          "internalType": "uint256",
          "name": "amount",
          "type": "uint256"
        },
        {
          "internalType": "string",
          "name": "receiver",
          "type": "string"
        },
        {
          "internalType": "bool",
          "name": "_before",
          "type": "bool"
        },
        {
          "internalType": "bool",
          "name": "_between",
          "type": "bool"
        },
        {
          "internalType": "bool",
          "name": "_after",
          "type": "bool"
        }
      ],
      "name": "testMultiTransferWithInternalTransfer",
      "outputs": [],
      "stateMutability": "nonpayable",
      "type": "function"
    },
    {
      "inputs": [
        {
          "internalType": "string",
          "name": "sourcePort",
          "type": "string"
        },
        {
          "internalType": "string",
          "name": "sourceChannel",
          "type": "string"
        },
        {
          "internalType": "string",
          "name": "denom",
          "type": "string"
        },
        {
          "internalType": "uint256",
          "name": "amount",
          "type": "uint256"
        },
        {
          "internalType": "string",
          "name": "receiver",
          "type": "string"
        },
        {
          "components": [
            {
              "internalType": "uint64",
              "name": "revisionNumber",
              "type": "uint64"
            },
            {
              "internalType": "uint64",
              "name": "revisionHeight",
              "type": "uint64"
            }
          ],
          "internalType": "struct Height",
          "name": "timeoutHeight",
          "type": "tuple"
        },
        {
          "internalType": "uint64",
          "name": "timeoutTimestamp",
          "type": "uint64"
        },
        {
          "internalType": "string",
          "name": "memo",
          "type": "string"
        }
      ],
      "name": "testTransferContractFunds",
      "outputs": [
        {
          "internalType": "uint64",
          "name": "nextSequence",
          "type": "uint64"
        }
      ],
      "stateMutability": "nonpayable",
      "type": "function"
    },
    {
      "inputs": [
        {
          "internalType": "address payable",
          "name": "_otherAcc",
          "type": "address"
        },
        {
          "internalType": "address",
          "name": "_source",
          "type": "address"
        },
        {
          "internalType": "string",
          "name": "sourcePort",
          "type": "string"
        },
        {
          "internalType": "string",
          "name": "sourceChannel",
          "type": "string"
        },
        {
          "internalType": "string",
          "name": "denom",
          "type": "string"
        },
        {
          "internalType": "uint256",
          "name": "amount",
          "type": "uint256"
        },
        {
          "internalType": "string",
          "name": "receiver",
          "type": "string"
        },
        {
          "internalType": "bool",
          "name": "_before",
          "type": "bool"
        },
        {
          "internalType": "bool",
          "name": "_after",
          "type": "bool"
        }
      ],
      "name": "testTransferFundsWithTransferToOtherAcc",
      "outputs": [],
      "stateMutability": "nonpayable",
      "type": "function"
    },
    {
      "inputs": [
        {
          "internalType": "string",
          "name": "sourcePort",
          "type": "string"
        },
        {
          "internalType": "string",
          "name": "sourceChannel",
          "type": "string"
        },
        {
          "internalType": "string",
          "name": "denom",
          "type": "string"
        },
        {
          "internalType": "uint256",
          "name": "amount",
          "type": "uint256"
        },
        {
          "internalType": "string",
          "name": "receiver",
          "type": "string"
        },
        {
          "components": [
            {
              "internalType": "uint64",
              "name": "revisionNumber",
              "type": "uint64"
            },
            {
              "internalType": "uint64",
              "name": "revisionHeight",
              "type": "uint64"
            }
          ],
          "internalType": "struct Height",
          "name": "timeoutHeight",
          "type": "tuple"
        },
        {
          "internalType": "uint64",
          "name": "timeoutTimestamp",
          "type": "uint64"
        },
        {
          "internalType": "string",
          "name": "memo",
          "type": "string"
        }
      ],
      "name": "testTransferUserFunds",
      "outputs": [
        {
          "internalType": "uint64",
          "name": "nextSequence",
          "type": "uint64"
        }
      ],
      "stateMutability": "nonpayable",
      "type": "function"
    }
  ],
  "bytecode": "0x60808060405234601557611116908161001a8239f35b5f80fdfe60806040526004361015610011575f80fd5b5f3560e01c80631dba685b1461083f57806344c286701461056957806361bc221a1461054a5780636fdf23cc146105135780637492bdd814610479578063accc7b90146103a1578063b9672879146101475763c595699a14610071575f80fd5b34610138576020366003190112610138576004356001600160401b038111610138575f6100a56100c7923690600401610afe565b6040518093819263b5cb6e7d60e01b8352602060048401526024830190610b70565b03816108025afa801561013c575f906100f7575b6100f390604051918291602083526020830190610b70565b0390f35b503d805f833e6101078183610ac2565b810190602081830312610138578051916001600160401b038311610138576100f3926101339201610ef8565b6100db565b5f80fd5b6040513d5f823e3d90fd5b346101385761012036600319011261013857610161610a7d565b6024356001600160a01b03811690819003610138576044356001600160401b03811161013857610195903690600401610afe565b906064356001600160401b038111610138576101b5903690600401610afe565b906084356001600160401b038111610138576101d5903690600401610afe565b9060c435926001600160401b0384116101385785946102c36102a360049460209694610284889661027261020f6101409c36908c01610afe565b93610218610b44565b9d610221610b53565b9e61037e575b50610260604051996102388b610a93565b60648b5260648c8c01526040519e8f9d8e63632535b960e01b815201526101448d0190610b70565b8b81036003190160248d015290610b70565b8981036003190160448b015290610b70565b9160a435606489015260848801526003198783030160a4880152610b70565b9160c48501906001600160401b0360208092828151168552015116910152565b5f6101048401525f8382039160031983016101248601525201815f6108025af1801561013c57610347575b506102f557005b5f808080650da475abf0006103459582546103128160070b610d49565b6001600160401b031667ffffffffffffffff19919091161783556001600160a01b03165af161033f610d75565b50610da4565b005b6020813d602011610376575b8161036060209383610ac2565b810103126101385761037190610dfa565b6102ee565b3d9150610353565b5f808080650da475abf00061039b9582546103128160070b610d49565b8e610227565b34610138576020366003190112610138576004356001600160401b038111610138575f6103d561040c923690600401610afe565b606060206040516103e581610a93565b828152015260405180938192632f8fcc5160e11b8352602060048401526024830190610b70565b03816108025afa801561013c575f90610438575b6100f390604051918291602083526020830190610b94565b503d805f833e6104488183610ac2565b810190602081830312610138578051916001600160401b038311610138576100f3926104749201610f12565b610420565b34610138576104b0602061048c36610c3f565b93989496604093919351998a98899863632535b960e01b8a52339360048b0161103b565b03815f6108025af1801561013c575f906104d9575b6020906001600160401b0360405191168152f35b506020813d60201161050b575b816104f360209383610ac2565b8101031261013857610506602091610dfa565b6104c5565b3d91506104e6565b34610138576104b0602061052636610c3f565b93989496604093919351998a98899863632535b960e01b8a52309360048b0161103b565b34610138575f3660031901126101385760205f5460070b604051908152f35b34610138576020366003190112610138576004356001600160401b038111610138578036039060a0600319830112610138575f60206040516105aa81610a93565b6060815201526040519163303eac4160e21b83526020600484015281600401359060221901811215610138578101602460048201359101916001600160401b03821161013857813603831361013857838261066b608460e49484965f9860a060248801528160c488015287870137878685870101526001600160401b0361063360248301610c2b565b1660448601526001600160401b0361064d60448301610c2b565b16606486015261065f60648201610b63565b15158286015201610b63565b151560a4830152601f01601f191681010301816108025afa801561013c575f915f91610722575b506040519060408201926040835280518094526060830193602060608260051b8601019201945f905b8282106106f75785808686828103602084015260206001600160401b03816106ec8551604086526040860190610b70565b940151169101520390f35b909192602080610713600193605f198a82030186528a51610b94565b980192019201909592916106bb565b9150503d805f833e6107348183610ac2565b8101906040818303126101385780516001600160401b0381116101385781019082601f8301121561013857815161076a81610eab565b926107786040519485610ac2565b81845260208085019260051b820101918583116101385760208201905b83821061081257505050506020810151906001600160401b038211610138570160408184031261013857604051926107cc84610a93565b81516001600160401b0381116101385782019181601f84011215610138576107fe602092848461080696519101610ec2565b855201610dfa565b60208301529082610692565b81516001600160401b0381116101385760209161083489848094880101610f12565b815201910190610795565b346101385761012036600319011261013857610859610a7d565b6024356001600160401b03811161013857610878903690600401610afe565b6044356001600160401b03811161013857610897903690600401610afe565b6064356001600160401b038111610138576108b6903690600401610afe565b9060a4356001600160401b038111610138576108d6903690600401610afe565b9060c4359384151585036101385785926108ee610b44565b906108f7610b53565b96610a32575b856040519261090b84610a93565b606484526064602085015260208686610942878760843560011c9c8d604051998a97889763632535b960e01b895260048901610e0e565b03815f6108025af191821561013c578a926109e7575b509060209661098394939261099c575b60405163632535b960e01b8152988997889760048901610e0e565b03815f6108025af1801561013c5761034757506102f557005b5f546109aa8160070b610d49565b6001600160401b0316906001600160401b031916175f556109e25f808080650da475abf00060018060a01b0388165af161033f610d75565b610968565b90939291506020813d602011610a2a575b81610a0560209383610ac2565b810103126101385760209661098394610a1e8c93610dfa565b50919293945096610958565b3d91506109f8565b5f54610a408160070b610d49565b6001600160401b0316906001600160401b031916175f55610a785f808080650da475abf00060018060a01b038b165af161033f610d75565b6108fd565b600435906001600160a01b038216820361013857565b604081019081106001600160401b03821117610aae57604052565b634e487b7160e01b5f52604160045260245ffd5b90601f801991011681019081106001600160401b03821117610aae57604052565b6001600160401b038111610aae57601f01601f191660200190565b81601f8201121561013857803590610b1582610ae3565b92610b236040519485610ac2565b8284526020838301011161013857815f926020809301838601378301015290565b60e43590811515820361013857565b6101043590811515820361013857565b3590811515820361013857565b805180835260209291819084018484015e5f828201840152601f01601f1916010190565b6020610ba98251604085526040850190610b70565b910151916020818303910152815180825260208201916020808360051b8301019401925f915b838310610bde57505050505090565b9091929394602080610c1c600193601f1986820301875289519083610c0c8351604084526040840190610b70565b9201519084818403910152610b70565b97019301930191939290610bcf565b35906001600160401b038216820361013857565b90610120600319830112610138576004356001600160401b0381116101385782610c6b91600401610afe565b916024356001600160401b0381116101385781610c8a91600401610afe565b916044356001600160401b0381116101385782610ca991600401610afe565b91606435916084356001600160401b0381116101385782610ccc91600401610afe565b91604060a31982011261013857604051610ce581610a93565b60a4356001600160401b038116810361013857815260c4356001600160401b03811681036101385760208201529160e4356001600160401b0381168103610138579161010435906001600160401b03821161013857610d4691600401610afe565b90565b60070b677fffffffffffffff8114610d615760010190565b634e487b7160e01b5f52601160045260245ffd5b3d15610d9f573d90610d8682610ae3565b91610d946040519384610ac2565b82523d5f602084013e565b606090565b15610dab57565b60405162461bcd60e51b815260206004820152602160248201527f4661696c656420746f2073656e6420457468657220746f2064656c656761746f6044820152603960f91b6064820152608490fd5b51906001600160401b038216820361013857565b94610e51610e7494610e43610e949795610e3660209c9b966101408c526101408c0190610b70565b908a82038d8c0152610b70565b9088820360408a0152610b70565b60608701939093526001600160a01b0316608086015284820360a0860152610b70565b9260c08301906001600160401b0360208092828151168552015116910152565b5f6101008201526101208183039101525f81520190565b6001600160401b038111610aae5760051b60200190565b929192610ece82610ae3565b91610edc6040519384610ac2565b829481845281830111610138578281602093845f96015e010152565b9080601f83011215610138578151610d4692602001610ec2565b919060408382031261013857604051610f2a81610a93565b809380516001600160401b0381116101385783610f48918301610ef8565b82526020810151906001600160401b03821161013857019180601f8401121561013857825192610f7784610eab565b93610f856040519586610ac2565b80855260208086019160051b830101918383116101385760208101915b838310610fb457505050505060200152565b82516001600160401b038111610138578201906040828703601f1901126101385760405190610fe282610a93565b60208301516001600160401b0381116101385787602061100492860101610ef8565b82526040830151916001600160401b0383116101385761102c88602080969581960101610ef8565b83820152815201920191610fa2565b956001600160401b03956110886110cb9561107a6110ab9661106c610d469f9d9e9a976101408e8181520190610b70565b8c810360208e015290610b70565b908a820360408c0152610b70565b60608901939093526001600160a01b0316608088015286820360a0880152610b70565b9560c08501906001600160401b0360208092828151168552015116910152565b16610100820152610120818403910152610b7056fea2646970667358221220facf7c1f8ff52decf92638bf2f09ac81cbd2d62977108eea48894c78210cb0d364736f6c634300081c0033",
  "linkReferences": {},
  "deployedLinkReferences": {},
  "immutableReferences": {},
  "inputSourceName": "project/solidity/precompiles/testutil/contracts/InterchainSender.sol",
  "buildInfoId": "solc-0_8_28-e55ad96646b3bb5046840fe24a1f6856fc44be2c"
}