{
  "_format": "hh3-artifact-1",
  "contractName": "InterchainSenderCaller",
  "sourceName": "solidity/precompiles/testutil/contracts/InterchainSenderCaller.sol",
  "abi": [
    {
      "inputs": [
        {
          "internalType": "address",
          "name": "_interchainSender",
          "type": "address"
        }
      ],
      "stateMutability": "payable",
      "type": "constructor"
    },
    {
      "inputs": [],
      "name": "counter",
      "outputs": [
        {
          "internalType": "int64",
          "name": "",
          "type": "int64"
        }
      ],
      "stateMutability": "view",
      "type": "function"
    },
    {
      "inputs": [
        {
          "internalType": "address payable",
          "name": "_source",
          "type": "address"
        },
        {
          "internalType": "string",
          "name": "sourcePort",
          "type": "string"
        },
        {
          "internalType": "string",
          "name": "sourceChannel",
          "type": "string"
        },
        {
          "internalType": "string",
          "name": "denom",
          "type": "string"
        },
        {
          "internalType": "uint256",
          "name": "amount",
          "type": "uint256"
        },
        {
          "internalType": "string",
          "name": "receiver",
          "type": "string"
        }
      ],
      "name": "performMultiTransferWithRevert",
      "outputs": [],
      "stateMutability": "nonpayable",
      "type": "function"
    },
    {
      "inputs": [
        {
          "internalType": "address payable",
          "name": "_source",
          "type": "address"
        },
        {
          "internalType": "string",
          "name": "sourcePort",
          "type": "string"
        },
        {
          "internalType": "string",
          "name": "sourceChannel",
          "type": "string"
        },
        {
          "internalType": "string",
          "name": "denom",
          "type": "string"
        },
        {
          "internalType": "uint256",
          "name": "amount",
          "type": "uint256"
        },
        {
          "internalType": "string",
          "name": "receiver",
          "type": "string"
        }
      ],
      "name": "performNestedTransfers",
      "outputs": [],
      "stateMutability": "nonpayable",
      "type": "function"
    },
    {
      "inputs": [
        {
          "internalType": "address payable",
          "name": "_source",
          "type": "address"
        },
        {
          "internalType": "string",
          "name": "sourcePort",
          "type": "string"
        },
        {
          "internalType": "string",
          "name": "sourceChannel",
          "type": "string"
        },
        {
          "internalType": "string",
          "name": "denom",
          "type": "string"
        },
        {
          "internalType": "uint256",
          "name": "amount",
          "type": "uint256"
        },
        {
          "internalType": "string",
          "name": "receiver",
          "type": "string"
        }
      ],
      "name": "transfersWithNestedRevert",
      "outputs": [],
      "stateMutability": "nonpayable",
      "type": "function"
    },
    {
      "inputs": [
        {
          "internalType": "address payable",
          "name": "_source",
          "type": "address"
        },
        {
          "internalType": "string",
          "name": "sourcePort",
          "type": "string"
        },
        {
          "internalType": "string",
          "name": "sourceChannel",
          "type": "string"
        },
        {
          "internalType": "string",
          "name": "denom",
          "type": "string"
        },
        {
          "internalType": "uint256",
          "name": "amount",
          "type": "uint256"
        },
        {
          "internalType": "string",
          "name": "receiver",
          "type": "string"
        }
      ],
      "name": "transfersWithRevert",
      "outputs": [],
      "stateMutability": "nonpayable",
      "type": "function"
    }
  ],
  "bytecode": "0x6080601f61068a38819003918201601f19168301916001600160401b03831184841017607c57808492602094604052833981010312607857516001600160a01b03811681036078575f8054600160401b600160e01b031916604092831b600160401b600160e01b0316179055516105f990816100918239f35b5f80fd5b634e487b7160e01b5f52604160045260245ffdfe60806040526004361015610011575f80fd5b5f5f3560e01c8063073989ff146102e2578063427c1cb61461021757806361bc221a146101f757806369a98b2b146100d25763ec3c5a1414610051575f80fd5b346100c05780610060366103ff565b86549295919460409390931c6001600160a01b03169291833b156100ce576100a38896928793604051998a9889978896631dba685b60e01b88526004880161054e565b03925af180156100c3576100b45750fd5b816100be91610375565b505b80fd5b6040513d84823e3d90fd5b8780fd5b50346100c057806100e2366103ff565b86959291949395546100f68160070b6104a2565b67ffffffffffffffff199091166001600160401b03919091161780885560401c6001600160a01b0316803b156100ce578787849287838861014f888d604051998a9889978896631dba685b60e01b88526004880161054e565b03925af19081156101ec5788916101d7575b5050303b156101d357869461018b926040519788968796633b0f168560e21b8852600488016104f2565b038183305af16101be575b50546101a48160070b6104a2565b6001600160401b0316906001600160401b03191617815580f35b816101c891610375565b6100c057805f610196565b8680fd5b816101e191610375565b6101d357865f610161565b6040513d8a823e3d90fd5b50346100c057806003193601126100c0576020905460070b604051908152f35b50346100c05780610227366103ff565b8654939591949391929160401c6001600160a01b0316803b156100ce578787849287838861026d888d604051998a9889978896631dba685b60e01b88526004880161054e565b03925af19081156101ec5788916102cd575b5050303b156101d35786946102a9926040519788968796633b0f168560e21b8852600488016104f2565b038183305af180156100c3576102bc5750f35b816102c691610375565b6100c05780f35b816102d791610375565b6101d357865f61027f565b5034610371576102f1366103ff565b5f959291949395546103058160070b6104a2565b6001600160401b0316906001600160401b031916175f55303b15610371575f9461034492604051978896879663213e0e5b60e11b8852600488016104f2565b038183305af161035e575b5080546101a48160070b6104a2565b61036a91505f90610375565b5f5f61034f565b5f80fd5b90601f801991011681019081106001600160401b0382111761039657604052565b634e487b7160e01b5f52604160045260245ffd5b81601f82011215610371578035906001600160401b03821161039657604051926103de601f8401601f191660200185610375565b8284526020838301011161037157815f926020809301838601378301015290565b9060c0600319830112610371576004356001600160a01b038116810361037157916024356001600160401b038111610371578161043e916004016103aa565b916044356001600160401b038111610371578261045d916004016103aa565b916064356001600160401b038111610371578161047c916004016103aa565b916084359160a435906001600160401b0382116103715761049f916004016103aa565b90565b60070b677fffffffffffffff81146104ba5760010190565b634e487b7160e01b5f52601160045260245ffd5b805180835260209291819084018484015e5f828201840152601f01601f1916010190565b9261052d9061051f61053b9461049f99979460018060a01b0316875260c0602088015260c08701906104ce565b9085820360408701526104ce565b9083820360608501526104ce565b92608082015260a08184039101526104ce565b969590610100946105916105b2956105836001999661012060208e61059f988e8060a01b0316815201526101208d01906104ce565b908b820360408d01526104ce565b9089820360608b01526104ce565b91608088015286820360a08801526104ce565b938260c08201528260e0820152015256fea264697066735822122053b89a32df54427ea52a4cbcac2462f775d25bea174fd496b421122d57e1412764736f6c634300081c0033",
  "linkReferences": {},
  "deployedLinkReferences": {},
  "immutableReferences": {},
  "inputSourceName": "project/solidity/precompiles/testutil/contracts/InterchainSenderCaller.sol",
  "buildInfoId": "solc-0_8_28-e55ad96646b3bb5046840fe24a1f6856fc44be2c"
}