{
  "_format": "hh3-artifact-1",
  "contractName": "Reverter",
  "sourceName": "solidity/precompiles/testutil/contracts/Reverter.sol",
  "abi": [
    {
      "inputs": [],
      "stateMutability": "payable",
      "type": "constructor"
    },
    {
      "inputs": [],
      "name": "run",
      "outputs": [],
      "stateMutability": "nonpayable",
      "type": "function"
    },
    {
      "inputs": [
        {
          "internalType": "bytes32",
          "name": "salt",
          "type": "bytes32"
        },
        {
          "internalType": "uint256",
          "name": "v",
          "type": "uint256"
        }
      ],
      "name": "transferFunds",
      "outputs": [],
      "stateMutability": "nonpayable",
      "type": "function"
    },
    {
      "stateMutability": "payable",
      "type": "receive"
    }
  ],
  "bytecode": "0x6080806040525f80556105ba90816100158239f3fe608080604052600436101561001c575b50361561001a575f80fd5b005b5f905f3560e01c90816379388e941461019b575063c04062260361000f5734610197575f366003190112610197576100545f546104c0565b805f5547303b156101975760405191631e4e23a560e21b8352600483015260248201525f8160448183305af19081610182575b5061017d5780805460a2604051906100a2602082018361034f565b80825260208201906104e382396100d86020604051809382820195518091875e810187838201520301601f19810183528261034f565b5190209060405191602083019160ff60f81b83523060601b6021850152603584015260558301526055825261010e60758361034f565b905190206001600160a01b0316803b1561017a57818091600460405180948193633ccfd60b60e01b83525af1801561016f57610157575b50505b61015281546104c0565b815580f35b816101619161034f565b61016c57805f610145565b80fd5b6040513d84823e3d90fd5b50fd5b610148565b61018f9192505f9061034f565b5f905f610087565b5f80fd5b346101975760403660031901126101975760a290818101918183106001600160401b03841117610330576104e3823980600435920390602435f51561034457604051630a97c34560e31b81523060048201525f816024816108015afa801561034457610205575f80fd5b3d805f833e610214818361034f565b81016040828203126101975781516001600160401b03811161019757820181601f8201121561019757805160208061024b83610370565b610258604051918261034f565b838152019160051b830101918383116101975760208101915b838310610299575050505060208201516001600160401b0381116101975761019792016103dc565b82516001600160401b038111610197578201906040828703601f1901126101975760405190604082018281106001600160401b038211176103305760405260208301516001600160401b038111610197578760206102f992860101610387565b82526040830151916001600160401b03831161019757610321886020809695819601016103dc565b83820152815201920191610271565b634e487b7160e01b5f52604160045260245ffd5b6040513d5f823e3d90fd5b90601f801991011681019081106001600160401b0382111761033057604052565b6001600160401b0381116103305760051b60200190565b81601f82011215610197578051906001600160401b03821161033057604051926103bb601f8401601f19166020018561034f565b8284526020838301011161019757815f9260208093018386015e8301015290565b9080601f83011215610197578151916103f483610370565b92610402604051948561034f565b80845260208085019160051b830101918383116101975760208101915b83831061042e57505050505090565b82516001600160401b038111610197578201906060828703601f1901126101975760405191606083018381106001600160401b03821117610330576040526020810151906001600160401b03821161019757610491886020606094840101610387565b84526040810151602085015201519060ff8216820361019757826020939260408594015281520192019161041f565b5f1981146104ce5760010190565b634e487b7160e01b5f52601160045260245ffdfe6080806040526092908160108239f3fe608060405260043610156010575f80fd5b5f3560e01c633ccfd60b146022575f80fd5b346058575f3660031901126058575f808080478181156050575b3390f115604557005b6040513d5f823e3d90fd5b506108fc603c565b5f80fdfea26469706673582212206293eb6f85b92a62b400e991d3773663e0977d34a10a34675c64ae80740a257e64736f6c634300081c0033a264697066735822122027d8addcf8bd9b97f1926a8a6addf954d380d877b2c5a181d65d319102c22f6b64736f6c634300081c0033",
  "linkReferences": {},
  "deployedLinkReferences": {},
  "immutableReferences": {},
  "inputSourceName": "project/solidity/precompiles/testutil/contracts/Reverter.sol",
  "buildInfoId": "solc-0_8_28-e55ad96646b3bb5046840fe24a1f6856fc44be2c"
}