{
  "_format": "hh3-artifact-1",
  "contractName": "Reverter",
  "sourceName": "solidity/precompiles/testutil/contracts/Reverter.sol",
  "abi": [
    {
      "inputs": [],
      "stateMutability": "payable",
      "type": "constructor"
    },
    {
      "inputs": [],
      "name": "run",
      "outputs": [],
      "stateMutability": "nonpayable",
      "type": "function"
    },
    {
      "inputs": [
        {
          "internalType": "bytes32",
          "name": "salt",
          "type": "bytes32"
        },
        {
          "internalType": "uint256",
          "name": "v",
          "type": "uint256"
        }
      ],
      "name": "transferFunds",
      "outputs": [],
      "stateMutability": "nonpayable",
      "type": "function"
    },
    {
      "stateMutability": "payable",
      "type": "receive"
    }
  ],
  "bytecode": "0x6080806040525f805561063b90816100158239f3fe6080604090808252600480361015610021575b505050361561001f575f80fd5b005b5f91823560e01c90816379388e94146101bf575063c04062260361001257346101bb57816003193601126101bb57610059825461037f565b80835547303b156101b757845191631e4e23a560e21b8352838301526024820152828160448183305af190816101a4575b5061019c5781549260a581516100a360208301826103c8565b818152602081019161056183396100d86020845180936100cb83830196879251928391610400565b81010380845201826103c8565b51902091815192602084019560ff60f81b87523060601b6021860152603585015260558401526055835260808301928084106001600160401b038511176101895783835251909420929384936001600160a01b0316803b1561018557849184838193633ccfd60b60e01b83525af190811561017c5750610165575b50505b610160815461037f565b815580f35b61016e906103a1565b61017957805f610153565b80fd5b513d84823e3d90fd5b8480fd5b604182634e487b7160e01b5f525260245ffd5b509050610156565b6101b0909391936103a1565b915f61008a565b8380fd5b5080fd5b92939050346101b757806003193601126101b75760a5908184016001600160401b03928582108483111761036c5761056186396024948085359203908635f515610363578051630a97c34560e31b8152308482015293858582816108015afa80156103595761022c578580fd5b3d8087873e61023b81876103c8565b85019382868603126103555785518481116103515786019185601f840112156103515782519161026a836103e9565b94610277815196876103c8565b8386526020808097019460051b8601019488861161034d57868101945b8686106102c057505050505050508301519081116101b7576102b69201610479565b505f808080808580fd5b85518981116103495782019083601f19838d030112610349578351908482018281108c821117610337578552898301518b8111610333578c8b61030592860101610421565b825284830151918b8311610333576103248d8c80969581960101610479565b83820152815201950194610294565b8e80fd5b634e487b7160e01b8f5260418752878ffd5b8c80fd5b8a80fd5b8780fd5b8680fd5b82513d88823e3d90fd5b513d85823e3d90fd5b634e487b7160e01b875260418552602487fd5b5f19811461038d5760010190565b634e487b7160e01b5f52601160045260245ffd5b6001600160401b0381116103b457604052565b634e487b7160e01b5f52604160045260245ffd5b90601f801991011681019081106001600160401b038211176103b457604052565b6001600160401b0381116103b45760051b60200190565b5f5b8381106104115750505f910152565b8181015183820152602001610402565b81601f820112156104755780516001600160401b0381116103b45760405192610454601f8301601f1916602001856103c8565b81845260208284010111610475576104729160208085019101610400565b90565b5f80fd5b9080601f8301121561047557815191610491836103e9565b926040906104a1825195866103c8565b808552602093848087019260051b8501019381851161047557858101925b8584106104d0575050505050505090565b8351906001600160401b039182811161047557830160609081601f198288030112610475578751938285018581108282111761054c5789528a82015190811161047557868b61052192840101610421565b8452878101518a85015201519060ff82168203610475578289939288859401528152019301926104bf565b60245f634e487b7160e01b81526041600452fdfe608080604052609490816100118239f3fe608060405260043610156010575f80fd5b5f803560e01c633ccfd60b146023575f80fd5b34605b5780600319360112605b5780808080478181156053575b3390f11560475780f35b604051903d90823e3d90fd5b506108fc603d565b80fdfea2646970667358221220ec97585ed06083182a973da406afba49c0ffca327497eba14eec8976c56e8c2164736f6c63430008140033a2646970667358221220990a08cdd231cf7071036fa90af4710c0219bdf0a1755dca3ee8dccdc6e73cbc64736f6c63430008140033",
  "linkReferences": {},
  "deployedLinkReferences": {},
  "immutableReferences": {},
  "inputSourceName": "project/solidity/precompiles/testutil/contracts/Reverter.sol",
  "buildInfoId": "solc-0_8_20-fda2ffeb444d7d9486f659e7e357f970dc6ac662"
}