{
  "_format": "hh-sol-artifact-1",
  "contractName": "StakingReverter",
  "sourceName": "solidity/precompiles/testutil/contracts/StakingReverter.sol",
  "abi": [
    {
      "inputs": [],
      "stateMutability": "payable",
      "type": "constructor"
    },
    {
      "inputs": [
        {
          "internalType": "uint256",
          "name": "numTimes",
          "type": "uint256"
        },
        {
          "internalType": "address",
          "name": "validatorAddress",
          "type": "address"
        }
      ],
      "name": "callPrecompileBeforeAndAfterRevert",
      "outputs": [],
      "stateMutability": "nonpayable",
      "type": "function"
    },
    {
      "inputs": [
        {
          "internalType": "address",
          "name": "validatorAddress",
          "type": "address"
        }
      ],
      "name": "getCurrentStake",
      "outputs": [
        {
          "internalType": "uint256",
          "name": "shares",
          "type": "uint256"
        },
        {
          "components": [
            {
              "internalType": "string",
              "name": "denom",
              "type": "string"
            },
            {
              "internalType": "uint256",
              "name": "amount",
              "type": "uint256"
            }
          ],
          "internalType": "struct Coin",
          "name": "balance",
          "type": "tuple"
        }
      ],
      "stateMutability": "view",
      "type": "function"
    },
    {
      "inputs": [
        {
          "internalType": "uint256",
          "name": "numTimes",
          "type": "uint256"
        },
        {
          "internalType": "address",
          "name": "validatorAddress",
          "type": "address"
        }
      ],
      "name": "multipleDelegations",
      "outputs": [],
      "stateMutability": "nonpayable",
      "type": "function"
    },
    {
      "inputs": [
        {
          "internalType": "uint256",
          "name": "numTimes",
          "type": "uint256"
        },
        {
          "internalType": "address",
          "name": "validatorAddress",
          "type": "address"
        }
      ],
      "name": "multipleQueries",
      "outputs": [
        {
          "components": [
            {
              "internalType": "string",
              "name": "operatorAddress",
              "type": "string"
            },
            {
              "internalType": "string",
              "name": "consensusPubkey",
              "type": "string"
            },
            {
              "internalType": "bool",
              "name": "jailed",
              "type": "bool"
            },
            {
              "internalType": "enum BondStatus",
              "name": "status",
              "type": "uint8"
            },
            {
              "internalType": "uint256",
              "name": "tokens",
              "type": "uint256"
            },
            {
              "internalType": "uint256",
              "name": "delegatorShares",
              "type": "uint256"
            },
            {
              "components": [
                {
                  "internalType": "string",
                  "name": "moniker",
                  "type": "string"
                },
                {
                  "internalType": "string",
                  "name": "identity",
                  "type": "string"
                },
                {
                  "internalType": "string",
                  "name": "website",
                  "type": "string"
                },
                {
                  "internalType": "string",
                  "name": "securityContact",
                  "type": "string"
                },
                {
                  "internalType": "string",
                  "name": "details",
                  "type": "string"
                }
              ],
              "internalType": "struct Description",
              "name": "description",
              "type": "tuple"
            },
            {
              "internalType": "int64",
              "name": "unbondingHeight",
              "type": "int64"
            },
            {
              "internalType": "int64",
              "name": "unbondingTime",
              "type": "int64"
            },
            {
              "internalType": "uint256",
              "name": "commission",
              "type": "uint256"
            },
            {
              "internalType": "uint256",
              "name": "minSelfDelegation",
              "type": "uint256"
            }
          ],
          "internalType": "struct Validator",
          "name": "validator",
          "type": "tuple"
        }
      ],
      "stateMutability": "view",
      "type": "function"
    },
    {
      "inputs": [
        {
          "internalType": "uint256",
          "name": "outerTimes",
          "type": "uint256"
        },
        {
          "internalType": "uint256",
          "name": "innerTimes",
          "type": "uint256"
        },
        {
          "internalType": "address",
          "name": "validatorAddress",
          "type": "address"
        }
      ],
      "name": "nestedTryCatchDelegations",
      "outputs": [],
      "stateMutability": "nonpayable",
      "type": "function"
    },
    {
      "inputs": [
        {
          "internalType": "address",
          "name": "validatorAddress",
          "type": "address"
        }
      ],
      "name": "performDelegation",
      "outputs": [],
      "stateMutability": "nonpayable",
      "type": "function"
    },
    {
      "inputs": [
        {
          "internalType": "uint256",
          "name": "numTimes",
          "type": "uint256"
        },
        {
          "internalType": "address",
          "name": "validatorAddress",
          "type": "address"
        }
      ],
      "name": "run",
      "outputs": [],
      "stateMutability": "nonpayable",
      "type": "function"
    }
  ],
  "bytecode": "0x6080806040525f8055610c7f90816100158239f3fe60806040526004361015610011575f80fd5b5f3560e01c80632aaf4b1514610a2c57806347d7d5d8146109205780635e1250d81461089a578063890d44981461076e5780638a365ecb146106e0578063afe3d705146104cd5763cbc367d414610066575f80fd5b346104be5760403660031901126104be5761007f610aac565b60405161008b81610b82565b60608152606060208201525f60408201525f60608201525f60808201525f60a08201526040516100ba81610b9e565b6060815260606020820152606060408201526060808201526060608082015260c08201525f60e08201525f6101008201525f6101208201525f610140820152905f905b600435821061023d5782604051906020825261014061012a82516101606020860152610180850190610af9565b6020830151848203601f19016040860152610af9565b906040810151151560608401526060810151916004831015610229576101f56101409185946080860152608084015160a086015260a084015160c086015260c084015190601f198682030160e087015260806101e46101d26101c06101ae865160a0875260a0870190610af9565b60208701518682036020880152610af9565b60408601518582036040870152610af9565b60608501518482036060860152610af9565b920151906080818403910152610af9565b9160e081015160070b61010085015261010081015160070b6101208501526101208101518285015201516101608301520390f35b634e487b7160e01b5f52602160045260245ffd5b60405163111d9dbd60e11b81526001600160a01b0382166004820152919250905f816024816108005afa80156104c2575f90610285575b61027f915092610b1e565b906100fd565b503d805f833e6102958183610bb9565b60208282810103126104be578151906001600160401b0382116104be5761016082840182850103126104be57604051916102ce83610b82565b808401516001600160401b0381116104be576102f1908386019083870101610be7565b8352602081850101516001600160401b0381116104be57610319908386019083870101610be7565b602084015261032c604082860101610bda565b60408401526060818501015160048110156104be5760608401528381016080818101519085015260a0808201519085015260c00151936001600160401b0385116104be5760a0858383010184830103126104be5760405161038c81610b9e565b8583830101516001600160401b0381116104be576103b39085840190888686010101610be7565b81526020868484010101516001600160401b0381116104be576103df9085840190888686010101610be7565b60208201526040868484010101516001600160401b0381116104be5761040e9085840190888686010101610be7565b60408201526060868484010101516001600160401b0381116104be5761043d9085840190888686010101610be7565b6060820152608086848401010151936001600160401b0385116104be5761027f9661014095610473928501918686010101610be7565b608082015260c085015261048b60e083830101610c3b565b60e085015261049f61010083830101610c3b565b6101008501520161012081810151908401520151610140820152610274565b5f80fd5b6040513d5f823e3d90fd5b346104be5760603660031901126104be57604480356001600160a01b038116906024803591600435908490036104be575f946040519163c26f3acf60e01b918284523060048501528685850152600a918282860152602096606495888188816108009e8f5af180156104c2576106ac575b505f5b8281106105a357505050965f91869798604051998a97889687523060048801528601528401525af180156104c25761057557005b81813d831161059c575b6105898183610bb9565b810103126104be5761059a90610bda565b005b503d61057f565b303b156104be578a8a8a8a8a8a60405195638a365ecb60e01b968781528660048201525f81868183305af1908161069d575b5061068d575f90604051968795869485523060048601528401528c8c8401525af180156104c257610659575b505f5b83811061061b57505061061690610b1e565b610541565b303b156104be57610645906040518381528d60048201525f818d8183305af161064a575b50610b1e565b610604565b61065390610b40565b8e61063f565b8a81813d8311610686575b61066e8183610bb9565b810103126104be5761067f90610bda565b508c610601565b503d610664565b5050505050505061061690610b1e565b6106a690610b40565b5f6105d5565b8881813d83116106d9575b6106c18183610bb9565b810103126104be576106d290610bda565b508a61053e565b503d6106b7565b346104be5760203660031901126104be576106f9610ac2565b60405163c26f3acf60e01b81523060048201526001600160a01b039091166024820152600a60448201526020816064815f6108005af180156104c25761073d575f80fd5b6020813d8211610766575b8161075560209383610bb9565b810103126104be576104be90610bda565b3d9150610748565b346104be5760403660031901126104be5760043561078a610aac565b60405163c26f3acf60e01b8082523060048301526001600160a01b039092166024808301829052600a604484015290936020939192610800919085816064815f875af180156104c257610866575b5090849392915f5b818110610816575050905f60649260405197889586948552306004860152840152600a60448401525af180156104c25761057557005b909192939450303b156104be5761084c90604051638a365ecb60e01b81528860048201525f81888183305af16108575750610b1e565b9085949392916107e0565b61086090610b40565b8861063f565b8581813d8311610893575b61087b8183610bb9565b810103126104be5761088c90610bda565b50866107d8565b503d610871565b346104be5760403660031901126104be576004356108b6610aac565b906108c15f54610b1e565b5f9081556001600160a01b03909216915b8181106108db57005b303b156104be5761090c90604051638a365ecb60e01b81528460048201525f8160248183305af16109115750610b1e565b6108d2565b61091a90610b40565b8461063f565b346104be576020806003193601126104be5761093a610ac2565b5f8260405161094881610b67565b60608152015260405163046d330760e01b81523060048201526001600160a01b0390911660248201525f816044816108005afa80156104c2575f915f916109ba575b5060405192839283526040818401526109ae82516040808601526080850190610af9565b91015160608301520390f35b9150503d805f833e6109cc8183610bb9565b81016040828203126104be57815190838301516001600160401b03938482116104be57016040818303126104be5760405193610a0785610b67565b81519081116104be578592610a1d918301610be7565b8452015183830152908361098a565b346104be5760403660031901126104be57600435610a48610aac565b90610a535f54610b1e565b5f9081556001600160a01b03909216915b818110610a6d57005b303b156104be57604051638a365ecb60e01b815260048101849052905f8260248183305af19182156104c257610aa7926109115750610b1e565b610a64565b602435906001600160a01b03821682036104be57565b600435906001600160a01b03821682036104be57565b5f5b838110610ae95750505f910152565b8181015183820152602001610ada565b90602091610b1281518092818552858086019101610ad8565b601f01601f1916010190565b5f198114610b2c5760010190565b634e487b7160e01b5f52601160045260245ffd5b6001600160401b038111610b5357604052565b634e487b7160e01b5f52604160045260245ffd5b604081019081106001600160401b03821117610b5357604052565b61016081019081106001600160401b03821117610b5357604052565b60a081019081106001600160401b03821117610b5357604052565b90601f801991011681019081106001600160401b03821117610b5357604052565b519081151582036104be57565b81601f820112156104be5780516001600160401b038111610b535760405192610c1a601f8301601f191660200185610bb9565b818452602082840101116104be57610c389160208085019101610ad8565b90565b51908160070b82036104be5756fea2646970667358221220e839e446a3c0d78d37316dacc7aabb8ff6baf5bf72d3f16f360cb053400edeaf64736f6c63430008140033",
  "linkReferences": {},
  "deployedLinkReferences": {}
}