{
  "_format": "hh3-artifact-1",
  "contractName": "StakingReverter",
  "sourceName": "solidity/precompiles/testutil/contracts/StakingReverter.sol",
  "abi": [
    {
      "inputs": [],
      "stateMutability": "payable",
      "type": "constructor"
    },
    {
      "inputs": [
        {
          "internalType": "uint256",
          "name": "numTimes",
          "type": "uint256"
        },
        {
          "internalType": "string",
          "name": "validatorAddress",
          "type": "string"
        }
      ],
      "name": "callPrecompileBeforeAndAfterRevert",
      "outputs": [],
      "stateMutability": "nonpayable",
      "type": "function"
    },
    {
      "inputs": [
        {
          "internalType": "string",
          "name": "validatorAddress",
          "type": "string"
        }
      ],
      "name": "getCurrentStake",
      "outputs": [
        {
          "internalType": "uint256",
          "name": "shares",
          "type": "uint256"
        },
        {
          "components": [
            {
              "internalType": "string",
              "name": "denom",
              "type": "string"
            },
            {
              "internalType": "uint256",
              "name": "amount",
              "type": "uint256"
            }
          ],
          "internalType": "struct Coin",
          "name": "balance",
          "type": "tuple"
        }
      ],
      "stateMutability": "view",
      "type": "function"
    },
    {
      "inputs": [
        {
          "internalType": "uint256",
          "name": "numTimes",
          "type": "uint256"
        },
        {
          "internalType": "string",
          "name": "validatorAddress",
          "type": "string"
        }
      ],
      "name": "multipleDelegations",
      "outputs": [],
      "stateMutability": "nonpayable",
      "type": "function"
    },
    {
      "inputs": [
        {
          "internalType": "uint256",
          "name": "numTimes",
          "type": "uint256"
        },
        {
          "internalType": "address",
          "name": "validatorAddress",
          "type": "address"
        }
      ],
      "name": "multipleQueries",
      "outputs": [
        {
          "components": [
            {
              "internalType": "string",
              "name": "operatorAddress",
              "type": "string"
            },
            {
              "internalType": "string",
              "name": "consensusPubkey",
              "type": "string"
            },
            {
              "internalType": "bool",
              "name": "jailed",
              "type": "bool"
            },
            {
              "internalType": "enum BondStatus",
              "name": "status",
              "type": "uint8"
            },
            {
              "internalType": "uint256",
              "name": "tokens",
              "type": "uint256"
            },
            {
              "internalType": "uint256",
              "name": "delegatorShares",
              "type": "uint256"
            },
            {
              "components": [
                {
                  "internalType": "string",
                  "name": "moniker",
                  "type": "string"
                },
                {
                  "internalType": "string",
                  "name": "identity",
                  "type": "string"
                },
                {
                  "internalType": "string",
                  "name": "website",
                  "type": "string"
                },
                {
                  "internalType": "string",
                  "name": "securityContact",
                  "type": "string"
                },
                {
                  "internalType": "string",
                  "name": "details",
                  "type": "string"
                }
              ],
              "internalType": "struct Description",
              "name": "description",
              "type": "tuple"
            },
            {
              "internalType": "int64",
              "name": "unbondingHeight",
              "type": "int64"
            },
            {
              "internalType": "int64",
              "name": "unbondingTime",
              "type": "int64"
            },
            {
              "internalType": "uint256",
              "name": "commission",
              "type": "uint256"
            },
            {
              "internalType": "uint256",
              "name": "minSelfDelegation",
              "type": "uint256"
            }
          ],
          "internalType": "struct Validator",
          "name": "validator",
          "type": "tuple"
        }
      ],
      "stateMutability": "view",
      "type": "function"
    },
    {
      "inputs": [
        {
          "internalType": "uint256",
          "name": "outerTimes",
          "type": "uint256"
        },
        {
          "internalType": "uint256",
          "name": "innerTimes",
          "type": "uint256"
        },
        {
          "internalType": "string",
          "name": "validatorAddress",
          "type": "string"
        }
      ],
      "name": "nestedTryCatchDelegations",
      "outputs": [],
      "stateMutability": "nonpayable",
      "type": "function"
    },
    {
      "inputs": [
        {
          "internalType": "string",
          "name": "validatorAddress",
          "type": "string"
        }
      ],
      "name": "performDelegation",
      "outputs": [],
      "stateMutability": "nonpayable",
      "type": "function"
    },
    {
      "inputs": [
        {
          "internalType": "uint256",
          "name": "numTimes",
          "type": "uint256"
        },
        {
          "internalType": "string",
          "name": "validatorAddress",
          "type": "string"
        }
      ],
      "name": "run",
      "outputs": [],
      "stateMutability": "nonpayable",
      "type": "function"
    }
  ],
  "bytecode": "0x6080806040525f8055610d8490816100158239f3fe6080806040526004361015610012575f80fd5b5f3560e01c9081634d9db92b14610913575080634e5a8fe5146108a657806352fce7b114610822578063668f452b146106fb578063922a4b6714610587578063cbc367d4146101245763f66013d714610069575f80fd5b3461010d57602036600319011261010d576004356001600160401b03811161010d57602061009e6100c7923690600401610b5d565b6040516353266bbb60e01b81523060048201526060602482015293849283926064840191610cbf565b600a604483015203815f6108005af18015610119576100e4575f80fd5b6020813d8211610111575b816100fc60209383610c9e565b8101031261010d5761010d90610cdf565b5f80fd5b3d91506100ef565b6040513d5f823e3d90fd5b3461010d57604036600319011261010d576024356001600160a01b038116810361010d5760405161015481610c67565b60608152606060208201525f60408201525f60608201525f60808201525f60a082015260405161018381610c83565b6060815260606020820152606060408201526060808201526060608082015260c08201525f60e08201525f6101008201525f6101208201525f610140820152905f905b6004358210610306578260405190602082526102096101f382516101606020860152610180850190610bde565b6020830151848203601f19016040860152610bde565b9060408101511515606084015260608101519160048310156102f2576102be6101409185946080860152608084015160a086015260a084015160c086015260c084015190601f198682030160e087015260806102ad61029b610289610277865160a0875260a0870190610bde565b60208701518682036020880152610bde565b60408601518582036040870152610bde565b60608501518482036060860152610bde565b920151906080818403910152610bde565b9160e081015160070b61010085015261010081015160070b6101208501526101208101518285015201516101608301520390f35b634e487b7160e01b5f52602160045260245ffd5b60405163111d9dbd60e11b81526001600160a01b0382166004820152919250905f816024816108005afa8015610119575f9061034e575b610348915092610c03565b906101c6565b503d805f833e61035e8183610c9e565b602082828101031261010d578151906001600160401b03821161010d57610160828401828501031261010d576040519161039783610c67565b808401516001600160401b03811161010d576103ba908386019083870101610cec565b8352602081850101516001600160401b03811161010d576103e2908386019083870101610cec565b60208401526103f5604082860101610cdf565b604084015260608185010151600481101561010d5760608401528381016080818101519085015260a0808201519085015260c00151936001600160401b03851161010d5760a08583830101848301031261010d5760405161045581610c83565b8583830101516001600160401b03811161010d5761047c9085840190888686010101610cec565b81526020868484010101516001600160401b03811161010d576104a89085840190888686010101610cec565b60208201526040868484010101516001600160401b03811161010d576104d79085840190888686010101610cec565b60408201526060868484010101516001600160401b03811161010d576105069085840190888686010101610cec565b6060820152608086848401010151936001600160401b03851161010d57610348966101409561053c928501918686010101610cec565b608082015260c085015261055460e083830101610d40565b60e085015261056861010083830101610d40565b610100850152016101208181015190840152015161014082015261033d565b3461010d5761059536610b8a565b91604051916353266bbb60e01b8084523060048501526024916060838601526105c2606486018783610cbf565b93600a60448701526020958681806108009803815f8a5af18015610119576106c7575b509185939194925f5b8181106106645750505f9061061f60609596604051998a978896879586523060048701528501526064840191610cbf565b600a604483015203925af180156101195761063657005b81813d831161065d575b61064a8183610c9e565b8101031261010d5761065b90610cdf565b005b503d610640565b90919395929450303b1561010d5760405163f66013d760e01b8152600481018890526106ac91905f818061069b8a82018e8a610cbf565b038183305af16106b8575b50610c03565b908694929593916105ee565b6106c190610c25565b896106a6565b8681813d83116106f4575b6106dc8183610c9e565b8101031261010d576106ed90610cdf565b50876105e5565b503d6106d2565b3461010d5760208060031936011261010d576004356001600160401b0380821161010d575f61073161076e933690600401610b5d565b828660405161073f81610c4c565b606081520152604051948592839263120bba7360e11b8452306004850152604060248501526044840191610cbf565b03816108005afa908115610119575f925f926107b6575b505060405192839283526040818401526107aa82516040808601526080850190610bde565b91015160608301520390f35b915091503d805f833e6107c98183610c9e565b810160408282031261010d57815191848101519084821161010d570160408183031261010d57604051936107fc85610c4c565b815190811161010d578592610812918301610cec565b8452015183830152908380610785565b3461010d5761083036610b8a565b61083d5f93929354610c03565b5f555f5b82811061084a57005b303b1561010d5760405163f66013d760e01b815260206004820152905f828061087760248201878a610cbf565b038183305af191821561011957610892926108975750610c03565b610841565b6108a090610c25565b856106a6565b3461010d576108b436610b8a565b91906108c05f54610c03565b5f555f5b8281106108cd57005b303b1561010d5760405163f66013d760e01b81526020600482015261090e91905f81806108fe602482018a89610cbf565b038183305af16108975750610c03565b6108c4565b3461010d57606036600319011261010d576044356001600160401b03811161010d57610943903690600401610b5d565b6353266bbb60e01b835230600484015260606024840152916020818061096d606482018787610cbf565b600a604483015203815f6108005af1801561011957610b24575b505f5b60043581106109fb576040516353266bbb60e01b815230600482015260606024820152602081806109bf606482018888610cbf565b600a604483015203815f6108005af18015610119576109da57005b6020813d6020116109f3575b8161064a60209383610c9e565b3d91506109e6565b90303b1561010d5760405163f66013d760e01b8152602060048201525f8180610a28602482018887610cbf565b038183305af19081610b15575b50610b0b576040516353266bbb60e01b81523060048201526060602482015260208180610a66606482018887610cbf565b600a604483015203815f6108005af1801561011957610ad2575b505f5b6024358110610a9c575090610a9790610c03565b61098a565b303b1561010d5760405163f66013d760e01b815260206004820152610acd91905f81806108fe602482018a89610cbf565b610a83565b6020813d602011610b03575b81610aeb60209383610c9e565b8101031261010d57610afc90610cdf565b5083610a80565b3d9150610ade565b90610a9790610c03565b610b1e90610c25565b84610a35565b6020813d602011610b55575b81610b3d60209383610c9e565b8101031261010d57610b4e90610cdf565b5082610987565b3d9150610b30565b9181601f8401121561010d578235916001600160401b03831161010d576020838186019501011161010d57565b90604060031983011261010d5760043591602435906001600160401b03821161010d57610bb991600401610b5d565b9091565b5f5b838110610bce5750505f910152565b8181015183820152602001610bbf565b90602091610bf781518092818552858086019101610bbd565b601f01601f1916010190565b5f198114610c115760010190565b634e487b7160e01b5f52601160045260245ffd5b6001600160401b038111610c3857604052565b634e487b7160e01b5f52604160045260245ffd5b604081019081106001600160401b03821117610c3857604052565b61016081019081106001600160401b03821117610c3857604052565b60a081019081106001600160401b03821117610c3857604052565b90601f801991011681019081106001600160401b03821117610c3857604052565b908060209392818452848401375f828201840152601f01601f1916010190565b5190811515820361010d57565b81601f8201121561010d5780516001600160401b038111610c385760405192610d1f601f8301601f191660200185610c9e565b8184526020828401011161010d57610d3d9160208085019101610bbd565b90565b51908160070b820361010d5756fea264697066735822122078dd9e4c09ac98bff7d80db6b8fe248435003d822f54f6c50fec31d244920f9364736f6c63430008140033",
  "linkReferences": {},
  "deployedLinkReferences": {},
  "immutableReferences": {},
  "inputSourceName": "project/solidity/precompiles/testutil/contracts/StakingReverter.sol",
  "buildInfoId": "solc-0_8_20-fda2ffeb444d7d9486f659e7e357f970dc6ac662"
}