{
  "_format": "hh3-artifact-1",
  "contractName": "StakingReverter",
  "sourceName": "solidity/precompiles/testutil/contracts/StakingReverter.sol",
  "abi": [
    {
      "inputs": [],
      "stateMutability": "payable",
      "type": "constructor"
    },
    {
      "inputs": [
        {
          "internalType": "uint256",
          "name": "numTimes",
          "type": "uint256"
        },
        {
          "internalType": "string",
          "name": "validatorAddress",
          "type": "string"
        }
      ],
      "name": "callPrecompileBeforeAndAfterRevert",
      "outputs": [],
      "stateMutability": "nonpayable",
      "type": "function"
    },
    {
      "inputs": [
        {
          "internalType": "string",
          "name": "validatorAddress",
          "type": "string"
        }
      ],
      "name": "getCurrentStake",
      "outputs": [
        {
          "internalType": "uint256",
          "name": "shares",
          "type": "uint256"
        },
        {
          "components": [
            {
              "internalType": "string",
              "name": "denom",
              "type": "string"
            },
            {
              "internalType": "uint256",
              "name": "amount",
              "type": "uint256"
            }
          ],
          "internalType": "struct Coin",
          "name": "balance",
          "type": "tuple"
        }
      ],
      "stateMutability": "view",
      "type": "function"
    },
    {
      "inputs": [
        {
          "internalType": "uint256",
          "name": "numTimes",
          "type": "uint256"
        },
        {
          "internalType": "string",
          "name": "validatorAddress",
          "type": "string"
        }
      ],
      "name": "multipleDelegations",
      "outputs": [],
      "stateMutability": "nonpayable",
      "type": "function"
    },
    {
      "inputs": [
        {
          "internalType": "uint256",
          "name": "numTimes",
          "type": "uint256"
        },
        {
          "internalType": "address",
          "name": "validatorAddress",
          "type": "address"
        }
      ],
      "name": "multipleQueries",
      "outputs": [
        {
          "components": [
            {
              "internalType": "string",
              "name": "operatorAddress",
              "type": "string"
            },
            {
              "internalType": "string",
              "name": "consensusPubkey",
              "type": "string"
            },
            {
              "internalType": "bool",
              "name": "jailed",
              "type": "bool"
            },
            {
              "internalType": "enum BondStatus",
              "name": "status",
              "type": "uint8"
            },
            {
              "internalType": "uint256",
              "name": "tokens",
              "type": "uint256"
            },
            {
              "internalType": "uint256",
              "name": "delegatorShares",
              "type": "uint256"
            },
            {
              "components": [
                {
                  "internalType": "string",
                  "name": "moniker",
                  "type": "string"
                },
                {
                  "internalType": "string",
                  "name": "identity",
                  "type": "string"
                },
                {
                  "internalType": "string",
                  "name": "website",
                  "type": "string"
                },
                {
                  "internalType": "string",
                  "name": "securityContact",
                  "type": "string"
                },
                {
                  "internalType": "string",
                  "name": "details",
                  "type": "string"
                }
              ],
              "internalType": "struct Description",
              "name": "description",
              "type": "tuple"
            },
            {
              "internalType": "int64",
              "name": "unbondingHeight",
              "type": "int64"
            },
            {
              "internalType": "int64",
              "name": "unbondingTime",
              "type": "int64"
            },
            {
              "internalType": "uint256",
              "name": "commission",
              "type": "uint256"
            },
            {
              "internalType": "uint256",
              "name": "minSelfDelegation",
              "type": "uint256"
            }
          ],
          "internalType": "struct Validator",
          "name": "validator",
          "type": "tuple"
        }
      ],
      "stateMutability": "view",
      "type": "function"
    },
    {
      "inputs": [
        {
          "internalType": "uint256",
          "name": "outerTimes",
          "type": "uint256"
        },
        {
          "internalType": "uint256",
          "name": "innerTimes",
          "type": "uint256"
        },
        {
          "internalType": "string",
          "name": "validatorAddress",
          "type": "string"
        }
      ],
      "name": "nestedTryCatchDelegations",
      "outputs": [],
      "stateMutability": "nonpayable",
      "type": "function"
    },
    {
      "inputs": [
        {
          "internalType": "string",
          "name": "validatorAddress",
          "type": "string"
        }
      ],
      "name": "performDelegation",
      "outputs": [],
      "stateMutability": "nonpayable",
      "type": "function"
    },
    {
      "inputs": [
        {
          "internalType": "uint256",
          "name": "numTimes",
          "type": "uint256"
        },
        {
          "internalType": "string",
          "name": "validatorAddress",
          "type": "string"
        }
      ],
      "name": "run",
      "outputs": [],
      "stateMutability": "nonpayable",
      "type": "function"
    }
  ],
  "bytecode": "0x6080806040525f8055610cd490816100158239f3fe6080806040526004361015610012575f80fd5b5f3560e01c9081634d9db92b146108be575080634e5a8fe51461084557806352fce7b1146107c4578063668f452b1461068c578063922a4b6714610529578063cbc367d4146101255763f66013d714610069575f80fd5b3461010e57602036600319011261010e576004356001600160401b03811161010e57602061009e6100c7923690600401610ae1565b6040516353266bbb60e01b81523060048201526060602482015293849283926064840191610bf9565b600a604483015203815f6108005af1801561011a576100e4575f80fd5b6020813d602011610112575b816100fd60209383610bcb565b8101031261010e5761010e90610bec565b5f80fd5b3d91506100f0565b6040513d5f823e3d90fd5b3461010e57604036600319011261010e576004356024356001600160a01b0381169081900361010e579060405161015b81610b94565b60608152606060208201525f60408201525f60608201525f60808201525f60a082015260405161018a81610bb0565b6060815260606020820152606060408201526060808201526060608082015260c08201525f60e08201525f6101008201525f6101208201525f610140820152915f915b80831061030b5783604051906020825261020e6101f882516101606020860152610180850190610b41565b6020830151848203601f19016040860152610b41565b9060408101511515606084015260608101519160048310156102f7576102c36101409185946080860152608084015160a086015260a084015160c086015260c084015190601f198682030160e087015260806102b26102a061028e61027c865160a0875260a0870190610b41565b60208701518682036020880152610b41565b60408601518582036040870152610b41565b60608501518482036060860152610b41565b920151906080818403910152610b41565b9160e081015160070b61010085015261010081015160070b6101208501526101208101518285015201516101608301520390f35b634e487b7160e01b5f52602160045260245ffd5b9091925060405163111d9dbd60e11b81528260048201525f816024816108005afa801561011a575f90610346575b60019150930191906101cd565b503d805f833e6103568183610bcb565b81019060208183031261010e578051906001600160401b03821161010e57016101608183031261010e576040519061038d82610b94565b80516001600160401b03811161010e57836103a9918301610c3b565b825260208101516001600160401b03811161010e57836103ca918301610c3b565b60208301526103db60408201610bec565b60408301526060810151600481101561010e5760608301526080810151608083015260a081015160a083015260c08101516001600160401b03811161010e5781019060a08285031261010e5760405161043381610bb0565b82516001600160401b03811161010e578561044f918501610c3b565b815260208301516001600160401b03811161010e5785610470918501610c3b565b602082015260408301516001600160401b03811161010e5785610494918501610c3b565b604082015260608301516001600160401b03811161010e57856104b8918501610c3b565b60608201526080830151926001600160401b03841161010e57600195610140946104e29201610c3b565b608082015260c08401526104f860e08201610c90565b60e084015261050a6101008201610c90565b6101008401526101208101516101208401520151610140820152610339565b3461010e5761053736610b0e565b916040516353266bbb60e01b81523060048201526060602482015260208180610564606482018888610bf9565b600a604483015203815f6108005af1801561011a57610655575b505f5b818110610603576040516353266bbb60e01b815230600482015260606024820152602081806105b4606482018989610bf9565b600a604483015203815f6108005af1801561011a576105cf57005b6020813d6020116105fb575b816105e860209383610bcb565b8101031261010e576105f990610bec565b005b3d91506105db565b303b1561010e5760405163f66013d760e01b815260206004820152600191905f8180610633602482018a8a610bf9565b038183305af1610645575b5001610581565b5f61064f91610bcb565b8561063e565b6020813d602011610684575b8161066e60209383610bcb565b8101031261010e5761067f90610bec565b61057e565b3d9150610661565b3461010e57602036600319011261010e576004356001600160401b03811161010e575f6106c06106fe923690600401610ae1565b8260206040516106cf81610b65565b606081520152604051938492839263120bba7360e11b8452306004850152604060248501526044840191610bf9565b03816108005afa90811561011a575f905f92610748575b50604051918291825260406020830152602061073c82516040808601526080850190610b41565b91015160608301520390f35b9150503d805f833e61075a8183610bcb565b81019060408183031261010e578051906020810151906001600160401b03821161010e57019160408382031261010e576040519261079784610b65565b80516001600160401b03811161010e576020926107b5918301610c3b565b84520151602083015282610715565b3461010e576107d236610b0e565b6107df5f93929354610c19565b5f555f5b8281106107ec57005b303b1561010e5760405163f66013d760e01b815260206004820152905f828061081960248201878a610bf9565b038183305af191821561011a57600192610835575b50016107e3565b5f61083f91610bcb565b8561082e565b3461010e5761085336610b0e565b919061085f5f54610c19565b5f555f5b82811061086c57005b303b1561010e5760405163f66013d760e01b815260206004820152600191905f818061089c602482018a89610bf9565b038183305af16108ae575b5001610863565b5f6108b891610bcb565b856108a7565b3461010e57606036600319011261010e57602435906004356044356001600160401b03811161010e576108f5903690600401610ae1565b6353266bbb60e01b84523060048501526060602485015293909260208180610921606482018989610bf9565b600a604483015203815f6108005af1801561011a57610aaa575b505f5b828110610971576040516353266bbb60e01b815230600482015260606024820152602081806105b4606482018a8a610bf9565b303b1561010e5760405163f66013d760e01b8152602060048201525f818061099d602482018a8a610bf9565b038183305af19081610a9a575b50610a92576040516353266bbb60e01b815230600482015260606024820152602081806109db606482018a8a610bf9565b600a604483015203815f6108005af1801561011a57610a5c575b505f5b828110610a0a57506001905b0161093e565b303b1561010e5760405163f66013d760e01b815260206004820152600191905f8180610a3a602482018c8c610bf9565b038183305af1610a4c575b50016109f8565b5f610a5691610bcb565b87610a45565b6020813d8211610a8a575b81610a7460209383610bcb565b8101031261010e57610a8590610bec565b6109f5565b3d9150610a67565b600190610a04565b5f610aa491610bcb565b866109aa565b6020813d602011610ad9575b81610ac360209383610bcb565b8101031261010e57610ad490610bec565b61093b565b3d9150610ab6565b9181601f8401121561010e578235916001600160401b03831161010e576020838186019501011161010e57565b90604060031983011261010e5760043591602435906001600160401b03821161010e57610b3d91600401610ae1565b9091565b805180835260209291819084018484015e5f828201840152601f01601f1916010190565b604081019081106001600160401b03821117610b8057604052565b634e487b7160e01b5f52604160045260245ffd5b61016081019081106001600160401b03821117610b8057604052565b60a081019081106001600160401b03821117610b8057604052565b90601f801991011681019081106001600160401b03821117610b8057604052565b5190811515820361010e57565b908060209392818452848401375f828201840152601f01601f1916010190565b5f198114610c275760010190565b634e487b7160e01b5f52601160045260245ffd5b81601f8201121561010e578051906001600160401b038211610b805760405192610c6f601f8401601f191660200185610bcb565b8284526020838301011161010e57815f9260208093018386015e8301015290565b51908160070b820361010e5756fea2646970667358221220355938b33bc1a13e68b39e6ba4c5fcace6db513e5a3cefc1ae138318e2ef1a5964736f6c634300081c0033",
  "linkReferences": {},
  "deployedLinkReferences": {},
  "immutableReferences": {},
  "inputSourceName": "project/solidity/precompiles/testutil/contracts/StakingReverter.sol",
  "buildInfoId": "solc-0_8_28-e55ad96646b3bb5046840fe24a1f6856fc44be2c"
}