{
  "_format": "hh3-artifact-1",
  "contractName": "StakingReverter",
  "sourceName": "solidity/precompiles/testutil/contracts/StakingReverter.sol",
  "abi": [
    {
      "inputs": [],
      "stateMutability": "payable",
      "type": "constructor"
    },
    {
      "inputs": [
        {
          "internalType": "string",
          "name": "validatorAddress",
          "type": "string"
        }
      ],
      "name": "branchesOnCancelUnbondingNotFound",
      "outputs": [
        {
          "internalType": "bool",
          "name": "",
          "type": "bool"
        }
      ],
      "stateMutability": "nonpayable",
      "type": "function"
    },
    {
      "inputs": [
        {
          "internalType": "string",
          "name": "validatorAddress",
          "type": "string"
        }
      ],
      "name": "branchesOnSharedInsufficientFunds",
      "outputs": [
        {
          "internalType": "bool",
          "name": "",
          "type": "bool"
        }
      ],
      "stateMutability": "nonpayable",
      "type": "function"
    },
    {
      "inputs": [
        {
          "internalType": "uint256",
          "name": "numTimes",
          "type": "uint256"
        },
        {
          "internalType": "string",
          "name": "validatorAddress",
          "type": "string"
        }
      ],
      "name": "callPrecompileBeforeAndAfterRevert",
      "outputs": [],
      "stateMutability": "nonpayable",
      "type": "function"
    },
    {
      "inputs": [
        {
          "internalType": "bytes",
          "name": "data",
          "type": "bytes"
        }
      ],
      "name": "classifyKnownError",
      "outputs": [
        {
          "internalType": "uint8",
          "name": "",
          "type": "uint8"
        }
      ],
      "stateMutability": "pure",
      "type": "function"
    },
    {
      "inputs": [
        {
          "internalType": "string",
          "name": "validatorAddress",
          "type": "string"
        }
      ],
      "name": "getCurrentStake",
      "outputs": [
        {
          "internalType": "uint256",
          "name": "shares",
          "type": "uint256"
        },
        {
          "components": [
            {
              "internalType": "string",
              "name": "denom",
              "type": "string"
            },
            {
              "internalType": "uint256",
              "name": "amount",
              "type": "uint256"
            }
          ],
          "internalType": "struct Coin",
          "name": "balance",
          "type": "tuple"
        }
      ],
      "stateMutability": "view",
      "type": "function"
    },
    {
      "inputs": [
        {
          "internalType": "uint256",
          "name": "numTimes",
          "type": "uint256"
        },
        {
          "internalType": "string",
          "name": "validatorAddress",
          "type": "string"
        }
      ],
      "name": "multipleDelegations",
      "outputs": [],
      "stateMutability": "nonpayable",
      "type": "function"
    },
    {
      "inputs": [
        {
          "internalType": "uint256",
          "name": "numTimes",
          "type": "uint256"
        },
        {
          "internalType": "address",
          "name": "validatorAddress",
          "type": "address"
        }
      ],
      "name": "multipleQueries",
      "outputs": [
        {
          "components": [
            {
              "internalType": "string",
              "name": "operatorAddress",
              "type": "string"
            },
            {
              "internalType": "string",
              "name": "consensusPubkey",
              "type": "string"
            },
            {
              "internalType": "bool",
              "name": "jailed",
              "type": "bool"
            },
            {
              "internalType": "enum BondStatus",
              "name": "status",
              "type": "uint8"
            },
            {
              "internalType": "uint256",
              "name": "tokens",
              "type": "uint256"
            },
            {
              "internalType": "uint256",
              "name": "delegatorShares",
              "type": "uint256"
            },
            {
              "components": [
                {
                  "internalType": "string",
                  "name": "moniker",
                  "type": "string"
                },
                {
                  "internalType": "string",
                  "name": "identity",
                  "type": "string"
                },
                {
                  "internalType": "string",
                  "name": "website",
                  "type": "string"
                },
                {
                  "internalType": "string",
                  "name": "securityContact",
                  "type": "string"
                },
                {
                  "internalType": "string",
                  "name": "details",
                  "type": "string"
                }
              ],
              "internalType": "struct Description",
              "name": "description",
              "type": "tuple"
            },
            {
              "internalType": "int64",
              "name": "unbondingHeight",
              "type": "int64"
            },
            {
              "internalType": "int64",
              "name": "unbondingTime",
              "type": "int64"
            },
            {
              "internalType": "uint256",
              "name": "commission",
              "type": "uint256"
            },
            {
              "internalType": "uint256",
              "name": "minSelfDelegation",
              "type": "uint256"
            }
          ],
          "internalType": "struct Validator",
          "name": "validator",
          "type": "tuple"
        }
      ],
      "stateMutability": "view",
      "type": "function"
    },
    {
      "inputs": [
        {
          "internalType": "uint256",
          "name": "outerTimes",
          "type": "uint256"
        },
        {
          "internalType": "uint256",
          "name": "innerTimes",
          "type": "uint256"
        },
        {
          "internalType": "string",
          "name": "validatorAddress",
          "type": "string"
        }
      ],
      "name": "nestedTryCatchDelegations",
      "outputs": [],
      "stateMutability": "nonpayable",
      "type": "function"
    },
    {
      "inputs": [
        {
          "internalType": "string",
          "name": "validatorAddress",
          "type": "string"
        }
      ],
      "name": "performDelegation",
      "outputs": [],
      "stateMutability": "nonpayable",
      "type": "function"
    },
    {
      "inputs": [
        {
          "internalType": "uint256",
          "name": "numTimes",
          "type": "uint256"
        },
        {
          "internalType": "string",
          "name": "validatorAddress",
          "type": "string"
        }
      ],
      "name": "run",
      "outputs": [],
      "stateMutability": "nonpayable",
      "type": "function"
    }
  ],
  "bytecode": "0x6080806040525f8055610f7590816100158239f3fe60806040526004361015610011575f80fd5b5f3560e01c806330d4cba1146100b45780634d9db92b146100af5780634e5a8fe5146100aa57806352fce7b1146100a5578063668f452b146100a0578063922a4b671461009b578063b7d09f0a14610096578063cbc367d414610091578063f66013d71461008c5763ff55880114610087575f80fd5b6109cb565b6108a5565b610784565b61062a565b610551565b6104b1565b6103e4565b610367565b610136565b346100d75760206100cd6100c736610108565b90610b0d565b6040519015158152f35b5f80fd5b9181601f840112156100d7578235916001600160401b0383116100d757602083818601950101116100d757565b60206003198201126100d757600435906001600160401b0382116100d757610132916004016100db565b9091565b346100d75760603660031901126100d7576024356004356044356001600160401b0381116100d75761016c9036906004016100db565b9190926040516353266bbb60e01b81526020818061018f87893060048501610b8f565b03815f6108005af1801561020a5761031b575b505f5b82811061020f576040516353266bbb60e01b8152602081806101cc888a3060048501610b8f565b03815f6108005af1801561020a576101e057005b6102019060203d602011610203575b6101f9818361096e565b810190610a74565b005b503d6101ef565b610ad3565b303b156100d75760405163f66013d760e01b81525f8180610234888a60048401610bc0565b038183305af19081610307575b506102ff576040516353266bbb60e01b815260208180610266888a3060048501610b8f565b03815f6108005af1801561020a576102e3575b505f5b82811061028e57506001905b016101a5565b303b156100d75760405163f66013d760e01b8152600191905f81806102b78a8c60048401610bc0565b038183305af16102c9575b500161027c565b806102d75f6102dd9361096e565b80610bb6565b5f6102c2565b6102fa9060203d8111610203576101f9818361096e565b610279565b600190610288565b806102d75f6103159361096e565b5f610241565b6103339060203d602011610203576101f9818361096e565b6101a2565b9060406003198301126100d75760043591602435906001600160401b0382116100d757610132916004016100db565b346100d75761037536610338565b91906103815f54610bd1565b5f555f5b82811061038e57005b303b156100d75760405163f66013d760e01b815260206004820152600191905f81806103be602482018a89610a88565b038183305af16103d0575b5001610385565b806102d75f6103de9361096e565b5f6103c9565b346100d7576103f236610338565b91906103fe5f54610bd1565b5f555f5b82811061040b57005b303b156100d75760405163f66013d760e01b8152905f8280610431888760048401610bc0565b038183305af191821561020a5760019261044d575b5001610402565b806102d75f61045b9361096e565b5f610446565b805180835260209291819084018484015e5f828201840152601f01601f1916010190565b90815260406020820152606060206104a884516040808601526080850190610461565b93015191015290565b346100d7576105015f6104c336610108565b8260206040516104d281610917565b606081520152604051938492839263120bba7360e11b8452306004850152604060248501526044840191610a88565b03816108005afa90811561020a575f905f9261052c575b5061052860405192839283610485565b0390f35b905061054a91503d805f833e610542818361096e565b810190610c25565b905f610518565b346100d75761055f36610338565b90916040516353266bbb60e01b81526020818061058186883060048501610b8f565b03815f6108005af1801561020a5761060d575b505f5b8181106105be576040516353266bbb60e01b8152602081806101cc87893060048501610b8f565b303b156100d75760405163f66013d760e01b8152600191905f81806105e7888a60048401610bc0565b038183305af16105f9575b5001610597565b806102d75f6106079361096e565b5f6105f2565b6106259060203d602011610203576101f9818361096e565b610594565b346100d75760206100cd61063d36610108565b90610c8b565b9060048210156106505752565b634e487b7160e01b5f52602160045260245ffd5b6106cd9160806106bc6106aa610698610686865160a0875260a0870190610461565b60208701518682036020880152610461565b60408601518582036040870152610461565b60608501518482036060860152610461565b920151906080818403910152610461565b90565b6020815261016061014061075461070c6106f68651856020880152610180870190610461565b6020870151868203601f19016040880152610461565b60408601511515606086015261072a60608701516080870190610643565b608086015160a086015260a086015160c086015260c0860151601f198683030160e0870152610664565b60e085015160070b6101008501529361010081015160070b61012085015261012081015182850152015191015290565b346100d75760403660031901126100d7576024356004356001600160a01b03821682036100d7576040516107b781610937565b60608152606060208201525f60408201525f60608201525f60808201525f60a08201526040516107e681610953565b6060815260606020820152606060408201526060808201526060608082015260c08201525f60e08201525f6101008201525f6101208201525f610140820152905f925b81841061083e576040518061052885826106d0565b60405163111d9dbd60e11b81526001600160a01b0382166004820152919250905f816024816108005afa801561020a576001915f91610883575b509301929190610829565b61089f91503d805f833e610897818361096e565b810190610dee565b5f610878565b346100d7576108d560206108b836610108565b6040516353266bbb60e01b81529384928392903060048501610b8f565b03815f6108005af1801561020a576108eb575f80fd5b6100d79060203d602011610203576101f9818361096e565b634e487b7160e01b5f52604160045260245ffd5b604081019081106001600160401b0382111761093257604052565b610903565b61016081019081106001600160401b0382111761093257604052565b60a081019081106001600160401b0382111761093257604052565b90601f801991011681019081106001600160401b0382111761093257604052565b6040519061099e60a08361096e565b565b6040519061099e6101608361096e565b6001600160401b03811161093257601f01601f191660200190565b346100d75760203660031901126100d7576004356001600160401b0381116100d757366023820112156100d757806004013590610a07826109b0565b610a14604051918261096e565b82815236602484840101116100d7575f602084610528956024610a3f96018386013783010152610ef9565b60405160ff90911681529081906020820190565b634e487b7160e01b5f52601160045260245ffd5b519081151582036100d757565b908160209103126100d7576106cd90610a67565b908060209392818452848401375f828201840152601f01601f1916010190565b94939291604092610ace9260018060a01b03168752606060208801526060870191610a88565b930152565b6040513d5f823e3d90fd5b3d15610b08573d90610aef826109b0565b91610afd604051938461096e565b82523d5f602084013e565b606090565b479160018301809311610b8a57602091610b3c60405194859384936353266bbb60e01b85523060048601610aa8565b03815f6108005af19081610b6d575b50610b6957600160ff610b64610b5f610ade565b610ef9565b161490565b5f90565b610b859060203d602011610203576101f9818361096e565b610b4b565b610a53565b9392600a92610ace9160409360018060a01b03168752606060208801526060870191610a88565b5f9103126100d757565b9160206106cd938181520191610a88565b5f198114610b8a5760010190565b81601f820112156100d757805190610bf6826109b0565b92610c04604051948561096e565b828452602083830101116100d757815f9260208093018386015e8301015290565b91906040838203126100d7578251926020810151906001600160401b0382116100d75701906040828203126100d75760405191610c6183610917565b80516001600160401b0381116100d757602092610c7f918301610bdf565b83520151602082015290565b60405163096ac6ff60e11b81523060048201908152608060248301529092602092849283929091600191606091610cc6916084870191610a88565b92826040820152015203815f6108005af19081610cf2575b50610b6957600260ff610b64610b5f610ade565b610d0a9060203d602011610203576101f9818361096e565b610cde565b519060048210156100d757565b91909160a0818403126100d757610d3161098f565b9281516001600160401b0381116100d75781610d4e918401610bdf565b845260208201516001600160401b0381116100d75781610d6f918401610bdf565b602085015260408201516001600160401b0381116100d75781610d93918401610bdf565b604085015260608201516001600160401b0381116100d75781610db7918401610bdf565b606085015260808201516001600160401b0381116100d757610dd99201610bdf565b6080830152565b51908160070b82036100d757565b6020818303126100d7578051906001600160401b0382116100d7570190610160828203126100d757610e1e6109a0565b9180516001600160401b0381116100d75782610e3b918301610bdf565b835260208101516001600160401b0381116100d75782610e5c918301610bdf565b6020840152610e6d60408201610a67565b6040840152610e7e60608201610d0f565b60608401526080810151608084015260a081015160a084015260c08101516001600160401b0381116100d75761014092610eb9918301610d1c565b60c0840152610eca60e08201610de0565b60e0840152610edc6101008201610de0565b610100840152610120810151610120840152015161014082015290565b6004815110610f3a57602001516001600160e01b0319166314a6074b60e31b8114610f3457632320eda360e11b14610f2f575f90565b600290565b50600190565b505f9056fea2646970667358221220e94f88d5becebc6ff0211c065aa308c15454ee9101c104f080720a147ba2a76f64736f6c634300081a0033",
  "linkReferences": {},
  "deployedLinkReferences": {},
  "immutableReferences": {},
  "inputSourceName": "project/solidity/precompiles/testutil/contracts/StakingReverter.sol",
  "buildInfoId": "solc-0_8_26-a1967f2a9b51b5d07c81bb121d63b0a10051d2d1"
}