{
  "_format": "hh-sol-artifact-1",
  "contractName": "ContractCreationTester",
  "sourceName": "solidity/ContractCreationTester.sol",
  "abi": [
    {
      "anonymous": false,
      "inputs": [
        {
          "indexed": true,
          "internalType": "address",
          "name": "contractAddr",
          "type": "address"
        },
        {
          "indexed": false,
          "internalType": "uint256",
          "name": "value",
          "type": "uint256"
        }
      ],
      "name": "ContractCreated",
      "type": "event"
    },
    {
      "anonymous": false,
      "inputs": [
        {
          "indexed": false,
          "internalType": "string",
          "name": "operation",
          "type": "string"
        },
        {
          "indexed": false,
          "internalType": "bool",
          "name": "success",
          "type": "bool"
        }
      ],
      "name": "OperationCompleted",
      "type": "event"
    },
    {
      "anonymous": false,
      "inputs": [
        {
          "indexed": true,
          "internalType": "address",
          "name": "recipient",
          "type": "address"
        },
        {
          "indexed": false,
          "internalType": "uint256",
          "name": "amount",
          "type": "uint256"
        }
      ],
      "name": "ValueSent",
      "type": "event"
    },
    {
      "inputs": [
        {
          "internalType": "uint256",
          "name": "creationValue",
          "type": "uint256"
        }
      ],
      "name": "createAndRevert",
      "outputs": [
        {
          "internalType": "contract SimpleReceiver",
          "name": "",
          "type": "address"
        }
      ],
      "stateMutability": "payable",
      "type": "function"
    },
    {
      "inputs": [
        {
          "internalType": "uint256",
          "name": "",
          "type": "uint256"
        }
      ],
      "name": "createdContracts",
      "outputs": [
        {
          "internalType": "address",
          "name": "",
          "type": "address"
        }
      ],
      "stateMutability": "view",
      "type": "function"
    },
    {
      "inputs": [
        {
          "internalType": "uint256",
          "name": "index",
          "type": "uint256"
        }
      ],
      "name": "getCreatedContract",
      "outputs": [
        {
          "internalType": "address",
          "name": "",
          "type": "address"
        }
      ],
      "stateMutability": "view",
      "type": "function"
    },
    {
      "inputs": [],
      "name": "getCreatedContractsCount",
      "outputs": [
        {
          "internalType": "uint256",
          "name": "",
          "type": "uint256"
        }
      ],
      "stateMutability": "view",
      "type": "function"
    },
    {
      "inputs": [
        {
          "internalType": "string",
          "name": "validatorAddr",
          "type": "string"
        },
        {
          "internalType": "uint256",
          "name": "delegateAmount1",
          "type": "uint256"
        },
        {
          "internalType": "uint256",
          "name": "creationValue",
          "type": "uint256"
        },
        {
          "internalType": "uint256",
          "name": "delegateAmount2",
          "type": "uint256"
        }
      ],
      "name": "scenario4_delegateCreateDelegate",
      "outputs": [],
      "stateMutability": "payable",
      "type": "function"
    },
    {
      "inputs": [
        {
          "internalType": "string",
          "name": "validatorAddr",
          "type": "string"
        },
        {
          "internalType": "uint256",
          "name": "delegateAmount1",
          "type": "uint256"
        },
        {
          "internalType": "uint256",
          "name": "creationValue",
          "type": "uint256"
        },
        {
          "internalType": "uint256",
          "name": "delegateAmount2",
          "type": "uint256"
        }
      ],
      "name": "scenario5_delegateCreateRevertDelegate",
      "outputs": [],
      "stateMutability": "payable",
      "type": "function"
    },
    {
      "inputs": [
        {
          "internalType": "uint256",
          "name": "creationValue1",
          "type": "uint256"
        },
        {
          "internalType": "string",
          "name": "validatorAddr",
          "type": "string"
        },
        {
          "internalType": "uint256",
          "name": "delegateAmount",
          "type": "uint256"
        },
        {
          "internalType": "uint256",
          "name": "creationValue2",
          "type": "uint256"
        }
      ],
      "name": "scenario6_createRevertDelegateCreateRevert",
      "outputs": [],
      "stateMutability": "payable",
      "type": "function"
    },
    {
      "inputs": [
        {
          "internalType": "uint256",
          "name": "creationValue",
          "type": "uint256"
        },
        {
          "internalType": "string",
          "name": "validatorAddr",
          "type": "string"
        },
        {
          "internalType": "uint256",
          "name": "delegateAmount",
          "type": "uint256"
        },
        {
          "internalType": "uint256",
          "name": "sendAmount",
          "type": "uint256"
        }
      ],
      "name": "scenario7_createDelegateRevertSend",
      "outputs": [],
      "stateMutability": "payable",
      "type": "function"
    },
    {
      "inputs": [
        {
          "internalType": "uint256",
          "name": "revertCreationValue",
          "type": "uint256"
        },
        {
          "internalType": "string",
          "name": "validatorAddr",
          "type": "string"
        },
        {
          "internalType": "uint256",
          "name": "delegateAmount",
          "type": "uint256"
        },
        {
          "internalType": "uint256",
          "name": "successCreationValue",
          "type": "uint256"
        }
      ],
      "name": "scenario8_createRevertDelegateCreateSuccess",
      "outputs": [],
      "stateMutability": "payable",
      "type": "function"
    },
    {
      "stateMutability": "payable",
      "type": "receive"
    }
  ],
  "bytecode": "0x608080604052346100165761102a908161001c8239f35b600080fdfe60406080815260048036101561001f575b5050361561001d57600080fd5b005b600091823560e01c80630881139714610aad5780637a0aaa5b146108b25780637d5b95391461077b578063aabf10861461059e578063b203934e14610581578063c242737f14610503578063c53e5ae314610454578063e71b671a146102625763edab92991461008f5750610010565b61009836610be0565b919290948451906353266bbb60e01b808352826100bb6020978630868501610c31565b0392868161080095818d885af180156102585761023b575b50865197600080516020610fd583398151915289806100f2839c610c8d565b0390a187516101f3808201908282106001600160401b03831117610228579189818e9593829a99989795610dc2833986815203019082f087816101e7575050508960808a518b815260068c8201526563726561746560d01b60608201528489820152a15b61016d895197889687958694855230908501610c31565b03925af180156101dd576101af575b5050516040808252600990820152683232b632b3b0ba329960b91b60608201526001602082015280608081015b0390a180f35b816101ce92903d106101d6575b6101c68183610b08565b810190610c19565b50388061017c565b503d6101bc565b83513d87823e3d90fd5b6001600160a01b0390911691600080516020610fb5833981519152919061020d84610cb8565b8c51908152a28989518061022081610cf5565b0390a1610156565b634e487b7160e01b8d526041865260248dfd5b61025190873d89116101d6576101c68183610b08565b50386100d3565b88513d8c823e3d90fd5b506102dc61026f36610ba6565b93919085519163c53e5ae360e01b83528488840152602094838680826024829886305af18c9281610425575b506103d657505050600080516020610fd58339815191528751806102be81610d65565b0390a15b86516353266bbb60e01b81529384928392308b8501610c31565b0381896108005af180156103cc576103af575b50825193600080516020610fd5833981519152858061030e8398610d97565b0390a18351906101f3808301918383106001600160401b0384111761039c575083918391610dc2833988815203019083f080156101dd576001600160a01b031691600080516020610fb5833981519152919061036984610cb8565b8451908152a25160408082526007908201526631b932b0ba329960c91b60608201526001602082015280608081016101a9565b634e487b7160e01b895260419052602488fd5b6103c590823d84116101d6576101c68183610b08565b50386102ef565b84513d88823e3d90fd5b6001600160a01b0390911691600080516020610fb583398151915291906103fc84610cb8565b8a51908152a2600080516020610fd583398151915287518061041d81610d3c565b0390a16102c2565b610446919350823d841161044d575b61043e8183610b08565b810190610d1d565b913861029b565b503d610434565b508260203660031901126105005781516101f3808201908282106001600160401b038311176104ed576020918391610dc283398481520301908435f0156104e257815162461bcd60e51b8152602081850152602160248201527f496e74656e74696f6e616c20726576657274206166746572206372656174696f6044820152603760f91b6064820152608490fd5b9051903d90823e3d90fd5b634e487b7160e01b845260418652602484fd5b80fd5b5091903461057d57602036600319011261057d57803591548210156105445760208361052e84610adb565b905491519160018060a01b039160031b1c168152f35b606490602084519162461bcd60e51b83528201526013602482015272496e646578206f7574206f6620626f756e647360681b6044820152fd5b5080fd5b83823461057d578160031936011261057d57602091549051908152f35b5061061c90836105ad36610ba6565b91959085519063c53e5ae360e01b97888352858a84015260209583878082602482988d305af18a928161075c575b5061070d57505050600080516020610fd58339815191528851806105fe81610d65565b0390a15b87516353266bbb60e01b81529384928392308d8501610c31565b0381876108005af18015610703576106e6575b5080845196600080516020610fd5833981519152888061064f839b610d97565b0390a18551968752860152818560248186305af1809584966106c7575b506106a157506080935060108351938085528401526f18dc99585d194c97dc995d995c9d195960821b6060840152820152a180f35b92936001600160a01b031692600080516020610fb5833981519152925061036984610cb8565b6106df919650833d851161044d5761043e8183610b08565b943861066c565b6106fc90833d85116101d6576101c68183610b08565b503861062f565b85513d86823e3d90fd5b6001600160a01b0390911691600080516020610fb5833981519152919061073384610cb8565b8b51908152a2600080516020610fd583398151915288518061075481610d3c565b0390a1610602565b610774919350823d841161044d5761043e8183610b08565b91386105db565b509061078636610be0565b90949283516353266bbb60e01b95868252816107a86020968530858501610c31565b0391858161080094818d875af180156108a85761088b575b50855196600080516020610fd583398151915288806107df839b610c8d565b0390a186516101f3808201908282106001600160401b0383111761087857828d9493928a92610dc283398581520301908bf0998a1561086e57600080516020610fb583398151915288809a9b9c60018060a09c9b9c1b03169261084184610cb8565b8c51908152a28989518061085481610cf5565b0390a161016d895197889687958694855230908501610c31565b88513d84823e3d90fd5b634e487b7160e01b8d526041855260248dfd5b6108a190863d88116101d6576101c68183610b08565b50386107c0565b87513d8c823e3d90fd5b506108bc36610ba6565b908495929551936101f3808601908682106001600160401b03831117610a9a57908691610dc28339898152602096879103019082f08015610a90576001600160a01b03169291610967918691908590600080516020610fb583398151915290849061092684610cb8565b8b51908152a2875198600080516020610fd58339815191528a8061094a839d610cf5565b0390a188516353266bbb60e01b81529384928392308a8501610c31565b03818b6108005af19081610a73575b50610a5e5785608086518781526008888201526764656c656761746560c01b60608201528987820152a15b8680808084865af13d15610a59573d6109b981610b3f565b906109c688519283610b08565b815288863d92013e5b15610a22579183917ffb17d0033e42e6a76759d2c7c2795a304dfbba80679160ae60dc91aad4966e52869560019560809851908152a2835193808552840152631cd95b9960e21b6060840152820152a180f35b845162461bcd60e51b8152808401859052601160248201527015985b1d59481cd95b990819985a5b1959607a1b6044820152606490fd5b6109cf565b85855180610a6b81610d97565b0390a16109a1565b610a8990863d88116101d6576101c68183610b08565b5038610976565b86513d8a823e3d90fd5b634e487b7160e01b8a526041865260248afd5b509034610ad7576020366003190112610ad75735918054831015610500575061052e602092610adb565b8280fd5b906000918254811015610af45782805260208320019190565b634e487b7160e01b83526032600452602483fd5b90601f801991011681019081106001600160401b03821117610b2957604052565b634e487b7160e01b600052604160045260246000fd5b6001600160401b038111610b2957601f01601f191660200190565b81601f82011215610ba157803590610b7182610b3f565b92610b7f6040519485610b08565b82845260208383010111610ba157816000926020809301838601378301015290565b600080fd5b906080600319830112610ba15760043591602435906001600160401b038211610ba157610bd591600401610b5a565b906044359060643590565b6080600319820112610ba157600435906001600160401b038211610ba157610c0a91600401610b5a565b90602435906044359060643590565b90816020910312610ba157518015158103610ba15790565b9392919060018060a01b03168452602060608186015281519182606087015260005b838110610c795750505060808160008260409488010152601f8019910116850101930152565b818101830151878201608001528201610c53565b9060408252600960408301526864656c65676174653160b81b60608301526001602060808401930152565b600054600160401b811015610b2957806001610cd79201600055610adb565b819291549060031b9160018060a01b03809116831b921b1916179055565b9060408252600660408301526563726561746560d01b60608301526001602060808401930152565b90816020910312610ba157516001600160a01b0381168103610ba15790565b906040825260076040830152666372656174653160c81b60608301526001602060808401930152565b9060408252601060408301526f18dc99585d194c57dc995d995c9d195960821b60608301526000602060808401930152565b9060408252600860408301526764656c656761746560c01b6060830152600160206080840193015256fe6080601f6101f338819003918201601f19168301916001600160401b038311848410176100e0578084926020946040528339810103126100db575180151581036100db57610096573360018060a01b03196001541617600155346000556040513481527fb263f5c1dda4b5b44a8d5658a105c64b6ec61c79463b79a1d0052a834d00fdc460203392a260405160fc90816100f78239f35b60405162461bcd60e51b815260206004820152601e60248201527f496e74656e74696f6e616c20636f6e7374727563746f722072657665727400006044820152606490fd5b600080fd5b634e487b7160e01b600052604160045260246000fdfe60808060405260043610156040575b503615601957600080fd5b600054348101809111602a57600055005b634e487b7160e01b600052601160045260246000fd5b600090813560e01c90816302d05d3f14609f575080632096525514608457633fa4f24503600e57346081578060031936011260815760209054604051908152f35b80fd5b50346081578060031936011260815760209054604051908152f35b90503460c2578160031936011260c2576001546001600160a01b03168152602090f35b5080fdfea2646970667358221220a7aa08d010abfd872d9954f74e781fcf1fa49bf43136b855165586167323926c64736f6c634300081400331dc05c1d6a563dddb6c22082af72b54ec2f0207ceb55db5d13cdabc208f303a99f4d25774676d497fe3d8c1e43709b68b186fad01b05798c1410a178ff4ed7d0a264697066735822122030f66332b1e31523142bb02942595f0ed544d3d43598d6bc1af48c500dece91264736f6c63430008140033",
  "linkReferences": {},
  "deployedLinkReferences": {}
}