{
  "_format": "hh3-artifact-1",
  "contractName": "ContractCreationTester",
  "sourceName": "solidity/ContractCreationTester.sol",
  "abi": [
    {
      "anonymous": false,
      "inputs": [
        {
          "indexed": true,
          "internalType": "address",
          "name": "contractAddr",
          "type": "address"
        },
        {
          "indexed": false,
          "internalType": "uint256",
          "name": "value",
          "type": "uint256"
        }
      ],
      "name": "ContractCreated",
      "type": "event"
    },
    {
      "anonymous": false,
      "inputs": [
        {
          "indexed": false,
          "internalType": "string",
          "name": "operation",
          "type": "string"
        },
        {
          "indexed": false,
          "internalType": "bool",
          "name": "success",
          "type": "bool"
        }
      ],
      "name": "OperationCompleted",
      "type": "event"
    },
    {
      "anonymous": false,
      "inputs": [
        {
          "indexed": true,
          "internalType": "address",
          "name": "recipient",
          "type": "address"
        },
        {
          "indexed": false,
          "internalType": "uint256",
          "name": "amount",
          "type": "uint256"
        }
      ],
      "name": "ValueSent",
      "type": "event"
    },
    {
      "inputs": [
        {
          "internalType": "uint256",
          "name": "creationValue",
          "type": "uint256"
        }
      ],
      "name": "createAndRevert",
      "outputs": [
        {
          "internalType": "contract SimpleReceiver",
          "name": "",
          "type": "address"
        }
      ],
      "stateMutability": "payable",
      "type": "function"
    },
    {
      "inputs": [
        {
          "internalType": "uint256",
          "name": "",
          "type": "uint256"
        }
      ],
      "name": "createdContracts",
      "outputs": [
        {
          "internalType": "address",
          "name": "",
          "type": "address"
        }
      ],
      "stateMutability": "view",
      "type": "function"
    },
    {
      "inputs": [
        {
          "internalType": "uint256",
          "name": "index",
          "type": "uint256"
        }
      ],
      "name": "getCreatedContract",
      "outputs": [
        {
          "internalType": "address",
          "name": "",
          "type": "address"
        }
      ],
      "stateMutability": "view",
      "type": "function"
    },
    {
      "inputs": [],
      "name": "getCreatedContractsCount",
      "outputs": [
        {
          "internalType": "uint256",
          "name": "",
          "type": "uint256"
        }
      ],
      "stateMutability": "view",
      "type": "function"
    },
    {
      "inputs": [
        {
          "internalType": "string",
          "name": "validatorAddr",
          "type": "string"
        },
        {
          "internalType": "uint256",
          "name": "delegateAmount1",
          "type": "uint256"
        },
        {
          "internalType": "uint256",
          "name": "creationValue",
          "type": "uint256"
        },
        {
          "internalType": "uint256",
          "name": "delegateAmount2",
          "type": "uint256"
        }
      ],
      "name": "scenario4_delegateCreateDelegate",
      "outputs": [],
      "stateMutability": "payable",
      "type": "function"
    },
    {
      "inputs": [
        {
          "internalType": "string",
          "name": "validatorAddr",
          "type": "string"
        },
        {
          "internalType": "uint256",
          "name": "delegateAmount1",
          "type": "uint256"
        },
        {
          "internalType": "uint256",
          "name": "creationValue",
          "type": "uint256"
        },
        {
          "internalType": "uint256",
          "name": "delegateAmount2",
          "type": "uint256"
        }
      ],
      "name": "scenario5_delegateCreateRevertDelegate",
      "outputs": [],
      "stateMutability": "payable",
      "type": "function"
    },
    {
      "inputs": [
        {
          "internalType": "uint256",
          "name": "creationValue1",
          "type": "uint256"
        },
        {
          "internalType": "string",
          "name": "validatorAddr",
          "type": "string"
        },
        {
          "internalType": "uint256",
          "name": "delegateAmount",
          "type": "uint256"
        },
        {
          "internalType": "uint256",
          "name": "creationValue2",
          "type": "uint256"
        }
      ],
      "name": "scenario6_createRevertDelegateCreateRevert",
      "outputs": [],
      "stateMutability": "payable",
      "type": "function"
    },
    {
      "inputs": [
        {
          "internalType": "uint256",
          "name": "creationValue",
          "type": "uint256"
        },
        {
          "internalType": "string",
          "name": "validatorAddr",
          "type": "string"
        },
        {
          "internalType": "uint256",
          "name": "delegateAmount",
          "type": "uint256"
        },
        {
          "internalType": "uint256",
          "name": "sendAmount",
          "type": "uint256"
        }
      ],
      "name": "scenario7_createDelegateRevertSend",
      "outputs": [],
      "stateMutability": "payable",
      "type": "function"
    },
    {
      "inputs": [
        {
          "internalType": "uint256",
          "name": "revertCreationValue",
          "type": "uint256"
        },
        {
          "internalType": "string",
          "name": "validatorAddr",
          "type": "string"
        },
        {
          "internalType": "uint256",
          "name": "delegateAmount",
          "type": "uint256"
        },
        {
          "internalType": "uint256",
          "name": "successCreationValue",
          "type": "uint256"
        }
      ],
      "name": "scenario8_createRevertDelegateCreateSuccess",
      "outputs": [],
      "stateMutability": "payable",
      "type": "function"
    },
    {
      "stateMutability": "payable",
      "type": "receive"
    }
  ],
  "bytecode": "0x60808060405234601557610ed6908161001a8239f35b5f80fdfe6080604052600436101561001a575b3615610018575f80fd5b005b5f3560e01c806308811397146109ce5780637a0aaa5b146108045780637d5b953914610703578063aabf1086146105a9578063b203934e1461058d578063c242737f14610511578063c53e5ae31461047d578063e71b671a1461027e5763edab92990361000e576100b1602061008f36610ad8565b929491604094919451809381926353266bbb60e01b8352883060048501610bb2565b03815f6108005af180156101f457610261575b505f516020610e815f395f51905f52604051806100e081610c1d565b0390a1604051926101c892838501948086106001600160401b0387111761024d5760208161016e978297610c9983395f815203019082f0806101ff5750505f516020610e815f395f51905f52608060405160408152600660408201526563726561746560d01b60608201525f86820152a15b6040516353266bbb60e01b815293849283923060048501610bb2565b03815f6108005af180156101f4576101c7575b5f516020610e815f395f51905f52604051806101c281906040825260096040830152683232b632b3b0ba329960b91b60608301526001602060808401930152565b0390a1005b6101e89060203d6020116101ed575b6101e08183610a1c565b810190610b9a565b610181565b503d6101d6565b6040513d5f823e3d90fd5b6001600160a01b0316905f516020610e615f395f51905f5290859061022384610b11565b604051908152a25f516020610e815f395f51905f526040518061024581610b72565b0390a1610152565b634e487b7160e01b5f52604160045260245ffd5b6102799060203d6020116101ed576101e08183610a1c565b6100c4565b60206102f661028c36610a9e565b949260409291925163c53e5ae360e01b8152816004820152848160248185305af15f918161044e575b506103e45750505f516020610e815f395f51905f52604051806102d781610c67565b0390a16040516353266bbb60e01b815293849283923060048501610bb2565b03815f6108005af180156101f4576103c7575b505f516020610e815f395f51905f526040518061032581610bf3565b0390a16040516101c8808201908282106001600160401b0383111761024d576020918391610c9983395f815203019082f080156101f4576001600160a01b0316905f516020610e615f395f51905f529060209061038184610b11565b604051908152a25f516020610e815f395f51905f52604051806101c2819060408252600760408301526631b932b0ba329960c91b60608301526001602060808401930152565b6103df9060203d6020116101ed576101e08183610a1c565b610309565b6001600160a01b0316905f516020610e615f395f51905f5290859061040884610b11565b604051908152a25f516020610e815f395f51905f526040518061024581906040825260076040830152666372656174653160c81b60608301526001602060808401930152565b61046f919250863d8811610476575b6104678183610a1c565b810190610c48565b90886102b5565b503d61045d565b602036600319011261050d576040516101c8808201908282106001600160401b0383111761024d576020918391610c9983395f8152030190600435f0156101f45760405162461bcd60e51b815260206004820152602160248201527f496e74656e74696f6e616c20726576657274206166746572206372656174696f6044820152603760f91b6064820152608490fd5b5f80fd5b3461050d57602036600319011261050d576004355f54811015610552576105396020916109f2565b905460405160039290921b1c6001600160a01b03168152f35b60405162461bcd60e51b8152602060048201526013602482015272496e646578206f7574206f6620626f756e647360681b6044820152606490fd5b3461050d575f36600319011261050d5760205f54604051908152f35b60206106016105b736610a9e565b949260409291925163c53e5ae360e01b815281600482015284816024815f305af15f918161044e57506103e45750505f516020610e815f395f51905f52604051806102d781610c67565b03815f6108005af180156101f4576106e6575b505f516020610e815f395f51905f526040518061063081610bf3565b0390a160405163c53e5ae360e01b8152600481018290526020816024815f305af15f91816106c5575b506106a05750505f516020610e815f395f51905f52608060405160408152601060408201526f18dc99585d194c97dc995d995c9d195960821b60608201525f6020820152a1005b6001600160a01b0316905f516020610e615f395f51905f529060209061038184610b11565b6106df91925060203d602011610476576104678183610a1c565b9083610659565b6106fe9060203d6020116101ed576101e08183610a1c565b610614565b602061073361071136610ad8565b929391604095919551809381926353266bbb60e01b8352873060048501610bb2565b03815f6108005af180156101f4576107e7575b505f516020610e815f395f51905f526040518061076281610c1d565b0390a16040516101c8808201908282106001600160401b0383111761024d576020918391610c9983395f815203019084f09182156101f45761016e936020936001600160a01b0316905f516020610e615f395f51905f529085906107c584610b11565b604051908152a25f516020610e815f395f51905f52604051806102d781610b72565b6107ff9060203d6020116101ed576101e08183610a1c565b610746565b61080d36610a9e565b9192906040516101c8808201908282106001600160401b0383111761024d576020918391610c9983395f815203019083f09081156101f457602094610870935f516020610e615f395f51905f52879460018060a01b03169788926107c584610b11565b03815f6108005af190816109b1575b5061098e575f516020610e815f395f51905f52608060405160408152600860408201526764656c656761746560c01b60608201525f6020820152a15b5f80808084865af13d15610989573d6108d381610a3d565b906108e16040519283610a1c565b81525f60203d92013e5b156109505760207ffb17d0033e42e6a76759d2c7c2795a304dfbba80679160ae60dc91aad4966e5291604051908152a25f516020610e815f395f51905f5260806040516040815260046040820152631cd95b9960e21b606082015260016020820152a1005b60405162461bcd60e51b815260206004820152601160248201527015985b1d59481cd95b990819985a5b1959607a1b6044820152606490fd5b6108eb565b5f516020610e815f395f51905f52604051806109a981610bf3565b0390a16108bb565b6109c99060203d6020116101ed576101e08183610a1c565b61087f565b3461050d57602036600319011261050d576004355f5481101561050d576105396020915b5f54811015610a08575f805260205f2001905f90565b634e487b7160e01b5f52603260045260245ffd5b90601f801991011681019081106001600160401b0382111761024d57604052565b6001600160401b03811161024d57601f01601f191660200190565b81601f8201121561050d57803590610a6f82610a3d565b92610a7d6040519485610a1c565b8284526020838301011161050d57815f926020809301838601378301015290565b90608060031983011261050d5760043591602435906001600160401b03821161050d57610acd91600401610a58565b906044359060643590565b608060031982011261050d57600435906001600160401b03821161050d57610b0291600401610a58565b90602435906044359060643590565b5f54600160401b81101561024d57600181015f555f54811015610a08575f80527f290decd9548b62a8d60345a988386fc84ba6bc95484008f6362f93160ef3e5630180546001600160a01b0319166001600160a01b03909216919091179055565b9060408252600660408301526563726561746560d01b60608301526001602060808401930152565b9081602091031261050d5751801515810361050d5790565b939291602060809160409360018060a01b0316875260608288015280519182918260608a0152018388015e5f828288010152601f8019910116850101930152565b9060408252600860408301526764656c656761746560c01b60608301526001602060808401930152565b9060408252600960408301526864656c65676174653160b81b60608301526001602060808401930152565b9081602091031261050d57516001600160a01b038116810361050d5790565b9060408252601060408301526f18dc99585d194c57dc995d995c9d195960821b60608301525f60206080840193015256fe6080601f6101c838819003918201601f19168301916001600160401b0383118484101760da5780849260209460405283398101031260d65751801515810360d6576091573360018060a01b03196001541617600155345f556040513481527fb263f5c1dda4b5b44a8d5658a105c64b6ec61c79463b79a1d0052a834d00fdc460203392a260405160d990816100ef8239f35b60405162461bcd60e51b815260206004820152601e60248201527f496e74656e74696f6e616c20636f6e7374727563746f722072657665727400006044820152606490fd5b5f80fd5b634e487b7160e01b5f52604160045260245ffdfe6080806040526004361015603b575b5036156018575f80fd5b5f543481018091116027575f55005b634e487b7160e01b5f52601160045260245ffd5b5f3560e01c90816302d05d3f146082575080632096525514606457633fa4f245146064575f600e565b34607e575f366003190112607e5760205f54604051908152f35b5f80fd5b34607e575f366003190112607e576001546001600160a01b03168152602090f3fea2646970667358221220a577a2787a6aa441469f55d1240fd02c29f1844ed2212eb551287d9c3f2a5c9e64736f6c634300081c00331dc05c1d6a563dddb6c22082af72b54ec2f0207ceb55db5d13cdabc208f303a99f4d25774676d497fe3d8c1e43709b68b186fad01b05798c1410a178ff4ed7d0a26469706673582212209ed4df20657348b1bea0dbd7cef27b323e7bdcc70dbc9df5c06e68656a05944864736f6c634300081c0033",
  "linkReferences": {},
  "deployedLinkReferences": {},
  "immutableReferences": {},
  "inputSourceName": "project/solidity/ContractCreationTester.sol",
  "buildInfoId": "solc-0_8_28-e8cfd1dade772ea8ebc6b8aa485f3bf84233bf83"
}