{
  "_format": "hh-sol-artifact-1",
  "contractName": "ContractCreationTester",
  "sourceName": "solidity/ContractCreationTester.sol",
  "abi": [
    {
      "anonymous": false,
      "inputs": [
        {
          "indexed": true,
          "internalType": "address",
          "name": "contractAddr",
          "type": "address"
        },
        {
          "indexed": false,
          "internalType": "uint256",
          "name": "value",
          "type": "uint256"
        }
      ],
      "name": "ContractCreated",
      "type": "event"
    },
    {
      "anonymous": false,
      "inputs": [
        {
          "indexed": false,
          "internalType": "string",
          "name": "operation",
          "type": "string"
        },
        {
          "indexed": false,
          "internalType": "bool",
          "name": "success",
          "type": "bool"
        }
      ],
      "name": "OperationCompleted",
      "type": "event"
    },
    {
      "anonymous": false,
      "inputs": [
        {
          "indexed": true,
          "internalType": "address",
          "name": "recipient",
          "type": "address"
        },
        {
          "indexed": false,
          "internalType": "uint256",
          "name": "amount",
          "type": "uint256"
        }
      ],
      "name": "ValueSent",
      "type": "event"
    },
    {
      "inputs": [
        {
          "internalType": "uint256",
          "name": "creationValue",
          "type": "uint256"
        }
      ],
      "name": "createAndRevert",
      "outputs": [
        {
          "internalType": "contract SimpleReceiver",
          "name": "",
          "type": "address"
        }
      ],
      "stateMutability": "payable",
      "type": "function"
    },
    {
      "inputs": [
        {
          "internalType": "uint256",
          "name": "",
          "type": "uint256"
        }
      ],
      "name": "createdContracts",
      "outputs": [
        {
          "internalType": "address",
          "name": "",
          "type": "address"
        }
      ],
      "stateMutability": "view",
      "type": "function"
    },
    {
      "inputs": [
        {
          "internalType": "uint256",
          "name": "index",
          "type": "uint256"
        }
      ],
      "name": "getCreatedContract",
      "outputs": [
        {
          "internalType": "address",
          "name": "",
          "type": "address"
        }
      ],
      "stateMutability": "view",
      "type": "function"
    },
    {
      "inputs": [],
      "name": "getCreatedContractsCount",
      "outputs": [
        {
          "internalType": "uint256",
          "name": "",
          "type": "uint256"
        }
      ],
      "stateMutability": "view",
      "type": "function"
    },
    {
      "inputs": [
        {
          "internalType": "address",
          "name": "validatorAddr",
          "type": "address"
        },
        {
          "internalType": "uint256",
          "name": "delegateAmount1",
          "type": "uint256"
        },
        {
          "internalType": "uint256",
          "name": "creationValue",
          "type": "uint256"
        },
        {
          "internalType": "uint256",
          "name": "delegateAmount2",
          "type": "uint256"
        }
      ],
      "name": "scenario4_delegateCreateDelegate",
      "outputs": [],
      "stateMutability": "payable",
      "type": "function"
    },
    {
      "inputs": [
        {
          "internalType": "address",
          "name": "validatorAddr",
          "type": "address"
        },
        {
          "internalType": "uint256",
          "name": "delegateAmount1",
          "type": "uint256"
        },
        {
          "internalType": "uint256",
          "name": "creationValue",
          "type": "uint256"
        },
        {
          "internalType": "uint256",
          "name": "delegateAmount2",
          "type": "uint256"
        }
      ],
      "name": "scenario5_delegateCreateRevertDelegate",
      "outputs": [],
      "stateMutability": "payable",
      "type": "function"
    },
    {
      "inputs": [
        {
          "internalType": "uint256",
          "name": "creationValue1",
          "type": "uint256"
        },
        {
          "internalType": "address",
          "name": "validatorAddr",
          "type": "address"
        },
        {
          "internalType": "uint256",
          "name": "delegateAmount",
          "type": "uint256"
        },
        {
          "internalType": "uint256",
          "name": "creationValue2",
          "type": "uint256"
        }
      ],
      "name": "scenario6_createRevertDelegateCreateRevert",
      "outputs": [],
      "stateMutability": "payable",
      "type": "function"
    },
    {
      "inputs": [
        {
          "internalType": "uint256",
          "name": "creationValue",
          "type": "uint256"
        },
        {
          "internalType": "address",
          "name": "validatorAddr",
          "type": "address"
        },
        {
          "internalType": "uint256",
          "name": "delegateAmount",
          "type": "uint256"
        },
        {
          "internalType": "uint256",
          "name": "sendAmount",
          "type": "uint256"
        }
      ],
      "name": "scenario7_createDelegateRevertSend",
      "outputs": [],
      "stateMutability": "payable",
      "type": "function"
    },
    {
      "inputs": [
        {
          "internalType": "uint256",
          "name": "revertCreationValue",
          "type": "uint256"
        },
        {
          "internalType": "address",
          "name": "validatorAddr",
          "type": "address"
        },
        {
          "internalType": "uint256",
          "name": "delegateAmount",
          "type": "uint256"
        },
        {
          "internalType": "uint256",
          "name": "successCreationValue",
          "type": "uint256"
        }
      ],
      "name": "scenario8_createRevertDelegateCreateSuccess",
      "outputs": [],
      "stateMutability": "payable",
      "type": "function"
    },
    {
      "stateMutability": "payable",
      "type": "receive"
    }
  ],
  "bytecode": "0x6080806040523461001657610f7a908161001b8239f35b5f80fdfe60406080815260048036101561001e575b5050361561001c575f80fd5b005b5f91823560e01c80630881139714610ac0578063475a099c146108a6578063479244471461074d5780634986f7c1146105a2578063acfc49ab14610404578063b203934e146103e7578063c242737f14610369578063c53e5ae3146102b95763e276c2e01461008d5750610010565b610109908361009b36610b1a565b91959085519063c53e5ae360e01b97888352858a84015260209583878082602482988d305af18a928161029a575b5061024d575050505f80516020610f258339815191528851806100eb81610cc0565b0390a15b875163c26f3acf60e01b81529384928392308d8501610bc8565b0381876108005af1801561024357610216575b50808451965f80516020610f25833981519152888061013b839b610cf1565b0390a18551968752860152818560248186305af1809584966101e7575b5061018d57506080935060108351938085528401526f18dc99585d194c97dc995d995c9d195960821b6060840152820152a180f35b92936001600160a01b0316925f80516020610f0583398151915292506101b284610c15565b8451908152a25160408082526007908201526631b932b0ba329960c91b60608201526001602082015280608081015b0390a180f35b610208919650833d851161020f575b6102008183610b7a565b810190610c78565b945f610158565b503d6101f6565b61023590833d851161023c575b61022d8183610b7a565b810190610bb0565b505f61011c565b503d610223565b85513d86823e3d90fd5b6001600160a01b03909116915f80516020610f05833981519152919061027284610c15565b8b51908152a25f80516020610f2583398151915288518061029281610c97565b0390a16100ef565b6102b2919350823d841161020f576102008183610b7a565b915f6100c9565b508260203660031901126103665781516101e98082019082821067ffffffffffffffff831117610353576020918391610d1c83398481520301908435f01561034857815162461bcd60e51b8152602081850152602160248201527f496e74656e74696f6e616c20726576657274206166746572206372656174696f6044820152603760f91b6064820152608490fd5b9051903d90823e3d90fd5b634e487b7160e01b845260418652602484fd5b80fd5b509190346103e35760203660031901126103e357803591548210156103aa5760208361039484610aee565b905491519160018060a01b039160031b1c168152f35b606490602084519162461bcd60e51b83528201526013602482015272496e646578206f7574206f6620626f756e647360681b6044820152fd5b5080fd5b8382346103e357816003193601126103e357602091549051908152f35b509061040f36610b4c565b909492835163c26f3acf60e01b95868252816104316020968530858501610bc8565b0391858161080094818d875af180156105985761057b575b508551965f80516020610f258339815191528880610467839b610bea565b0390a186516101e98082019082821067ffffffffffffffff83111761056857828d9493928a92610d1c83398581520301908bf0998a1561055e575f80516020610f0583398151915288809a9b9c60018060a09c9b9c1b0316926104c984610c15565b8c51908152a2898951806104dc81610c50565b0390a16104f6895197889687958694855230908501610bc8565b03925af1801561055457610536575b5050516040808252600990820152683232b632b3b0ba329960b91b60608201526001602082015280608081016101e1565b8161054c92903d1061023c5761022d8183610b7a565b505f80610505565b83513d87823e3d90fd5b88513d84823e3d90fd5b634e487b7160e01b8d526041855260248dfd5b61059190863d881161023c5761022d8183610b7a565b505f610449565b87513d8c823e3d90fd5b5061061b6105af36610b1a565b93919085519163c53e5ae360e01b83528488840152602094838680826024829886305af18c928161072e575b506106e1575050505f80516020610f258339815191528751806105fd81610cc0565b0390a15b865163c26f3acf60e01b81529384928392308b8501610bc8565b0381896108005af180156106d7576106ba575b508251935f80516020610f25833981519152858061064c8398610cf1565b0390a18351906101e98083019183831067ffffffffffffffff8411176106a7575083918391610d1c833988815203019083f08015610554576001600160a01b0316915f80516020610f0583398151915291906101b284610c15565b634e487b7160e01b895260419052602488fd5b6106d090823d841161023c5761022d8183610b7a565b505f61062e565b84513d88823e3d90fd5b6001600160a01b03909116915f80516020610f05833981519152919061070684610c15565b8a51908152a25f80516020610f2583398151915287518061072681610c97565b0390a1610601565b610746919350823d841161020f576102008183610b7a565b915f6105db565b5061075736610b4c565b9192909484519063c26f3acf60e01b8083528261077a6020978630868501610bc8565b0392868161080095818d885af1801561089c5761087f575b508651975f80516020610f2583398151915289806107b0839c610bea565b0390a187516101e98082019082821067ffffffffffffffff83111761086c579189818e9593829a99989795610d1c833986815203019082f0878161082c575050508960808a518b815260068c8201526563726561746560d01b60608201528489820152a15b6104f6895197889687958694855230908501610bc8565b6001600160a01b03909116915f80516020610f05833981519152919061085184610c15565b8c51908152a28989518061086481610c50565b0390a1610815565b634e487b7160e01b8d526041865260248dfd5b61089590873d891161023c5761022d8183610b7a565b505f610792565b88513d8c823e3d90fd5b506108b036610b1a565b90928495929551936101e99182860167ffffffffffffffff9387821085831117610aad57908791610d1c83398a8152602097889103019082f08015610aa3576001600160a01b031693929161095e9187919086905f80516020610f0583398151915290849061091e84610c15565b8c51908152a28851995f80516020610f258339815191528b80610941839e610c50565b0390a1895163c26f3acf60e01b81529384928392308b8501610bc8565b03818c6108005af19081610a86575b50610a715786608087518881526008898201526764656c656761746560c01b60608201528a88820152a15b8780808085875af1903d15610a6b573d908111610a58578651906109c5601f8201601f1916880183610b7a565b815288863d92013e5b15610a21579183917ffb17d0033e42e6a76759d2c7c2795a304dfbba80679160ae60dc91aad4966e52869560019560809851908152a2835193808552840152631cd95b9960e21b6060840152820152a180f35b845162461bcd60e51b8152808401859052601160248201527015985b1d59481cd95b990819985a5b1959607a1b6044820152606490fd5b634e487b7160e01b895260418552602489fd5b506109ce565b86865180610a7e81610cf1565b0390a1610998565b610a9c90873d891161023c5761022d8183610b7a565b505f61096d565b87513d8b823e3d90fd5b634e487b7160e01b8b526041875260248bfd5b509034610aea576020366003190112610aea57359180548310156103665750610394602092610aee565b8280fd5b905f918254811015610b065782805260208320019190565b634e487b7160e01b83526032600452602483fd5b6080906003190112610b4857600435906024356001600160a01b0381168103610b4857906044359060643590565b5f80fd5b6080906003190112610b48576004356001600160a01b0381168103610b485790602435906044359060643590565b90601f8019910116810190811067ffffffffffffffff821117610b9c57604052565b634e487b7160e01b5f52604160045260245ffd5b90816020910312610b4857518015158103610b485790565b6001600160a01b03918216815291166020820152604081019190915260600190565b9060408252600960408301526864656c65676174653160b81b60608301526001602060808401930152565b5f54600160401b811015610b9c57806001610c3292015f55610aee565b819291549060031b9160018060a01b03809116831b921b1916179055565b9060408252600660408301526563726561746560d01b60608301526001602060808401930152565b90816020910312610b4857516001600160a01b0381168103610b485790565b906040825260076040830152666372656174653160c81b60608301526001602060808401930152565b9060408252601060408301526f18dc99585d194c57dc995d995c9d195960821b60608301525f602060808401930152565b9060408252600860408301526764656c656761746560c01b6060830152600160206080840193015256fe6080601f6101e938819003918201601f19168301916001600160401b038311848410176100de578084926020946040528339810103126100da575180151581036100da57610095573360018060a01b03196001541617600155345f556040513481527fb263f5c1dda4b5b44a8d5658a105c64b6ec61c79463b79a1d0052a834d00fdc460203392a260405160f690816100f38239f35b60405162461bcd60e51b815260206004820152601e60248201527f496e74656e74696f6e616c20636f6e7374727563746f722072657665727400006044820152606490fd5b5f80fd5b634e487b7160e01b5f52604160045260245ffdfe6080806040526004361015603b575b5036156018575f80fd5b5f543481018091116027575f55005b634e487b7160e01b5f52601160045260245ffd5b5f90813560e01c90816302d05d3f146099575080632096525514607e57633fa4f24503600e5734607b5780600319360112607b5760209054604051908152f35b80fd5b5034607b5780600319360112607b5760209054604051908152f35b90503460bc578160031936011260bc576001546001600160a01b03168152602090f35b5080fdfea26469706673582212205bdcc169cd0426e61cdadec6f928df6247792d2a0190f6d8cba2c88f55fbec4664736f6c634300081400331dc05c1d6a563dddb6c22082af72b54ec2f0207ceb55db5d13cdabc208f303a99f4d25774676d497fe3d8c1e43709b68b186fad01b05798c1410a178ff4ed7d0a2646970667358221220b571a986e6002489ead414186e73ecf47339e89cd3404290229d20eb446054b564736f6c63430008140033",
  "linkReferences": {},
  "deployedLinkReferences": {}
}