{
  "_format": "hh3-artifact-1",
  "contractName": "DebugPrecompileCaller",
  "sourceName": "solidity/DebugPrecompileCaller.sol",
  "abi": [
    {
      "inputs": [
        {
          "internalType": "bytes",
          "name": "data",
          "type": "bytes"
        }
      ],
      "name": "CallFailed",
      "type": "error"
    },
    {
      "inputs": [
        {
          "internalType": "uint256",
          "name": "counter",
          "type": "uint256"
        }
      ],
      "name": "callback",
      "outputs": [],
      "stateMutability": "nonpayable",
      "type": "function"
    }
  ],
  "bytecode": "0x608080604052346100165761022f908161001b8239f35b5f80fdfe60806040526004361015610011575f80fd5b5f803560e01c63ff585caf14610025575f80fd5b34610044576020366003190112610044576100416004356100ec565b80f35b80fd5b3d156100a05767ffffffffffffffff903d82811161008c5760405192601f8201601f19908116603f011684019081118482101761008c5760405282523d5f602084013e565b634e487b7160e01b5f52604160045260245ffd5b606090565b602080825282518183018190529093925f5b8281106100d857505060409293505f838284010152601f8019910116010190565b8181018601518482016040015285016100b7565b5f5b81811061016f57506003811161016c576040519060208201905f8252602183015260218252606082019082821067ffffffffffffffff83111761008c575f9283926040525190826107995af1610142610047565b901561014b5750565b60405163a5fa8d2b60e01b815290819061016890600483016100a5565b0390fd5b50565b60408051600160f81b60208201908152600182528183019067ffffffffffffffff82118383101761008c575f92839285525190826107995af1906101b1610047565b91156101dd5750505f1981146101c9576001016100ee565b634e487b7160e01b5f52601160045260245ffd5b5163a5fa8d2b60e01b81529150819061016890600483016100a556fea264697066735822122073fa57ccb1729d720dedcd9757e4ad759b45358c84f42af16ad3da830f61a93c64736f6c63430008140033",
  "linkReferences": {},
  "deployedLinkReferences": {},
  "immutableReferences": {},
  "inputSourceName": "project/solidity/DebugPrecompileCaller.sol",
  "buildInfoId": "solc-0_8_20-fda2ffeb444d7d9486f659e7e357f970dc6ac662"
}