{
  "_format": "hh3-artifact-1",
  "contractName": "DebugPrecompileCaller",
  "sourceName": "solidity/DebugPrecompileCaller.sol",
  "abi": [
    {
      "inputs": [
        {
          "internalType": "bytes",
          "name": "data",
          "type": "bytes"
        }
      ],
      "name": "CallFailed",
      "type": "error"
    },
    {
      "inputs": [
        {
          "internalType": "uint256",
          "name": "counter",
          "type": "uint256"
        }
      ],
      "name": "callback",
      "outputs": [],
      "stateMutability": "nonpayable",
      "type": "function"
    }
  ],
  "bytecode": "0x608080604052346015576101cb908161001a8239f35b5f80fdfe60806040526004361015610011575f80fd5b5f3560e01c63ff585caf14610024575f80fd5b34610042576020366003190112610042576100406004356100e5565b005b5f80fd5b90601f8019910116810190811067ffffffffffffffff82111761006857604052565b634e487b7160e01b5f52604160045260245ffd5b3d156100b6573d9067ffffffffffffffff821161006857604051916100ab601f8201601f191660200184610046565b82523d5f602084013e565b606090565b602060409281835280519182918282860152018484015e5f828201840152601f01601f1916010190565b5f5b818110610156575060038111610153575f80916040516020810191838352602182015260218152610119604182610046565b5190826107995af161012961007c565b90156101325750565b60405163a5fa8d2b60e01b815290819061014f90600483016100bb565b0390fd5b50565b5f806040516020810190600160f81b825260018152610176602182610046565b5190826107995af161018661007c565b901561013257506001016100e756fea2646970667358221220ab43bd347954ece986e0ee7b562258fb5a7e249e807dac24fd9f5058e6ba30c564736f6c634300081c0033",
  "linkReferences": {},
  "deployedLinkReferences": {},
  "immutableReferences": {},
  "inputSourceName": "project/solidity/DebugPrecompileCaller.sol",
  "buildInfoId": "solc-0_8_28-e55ad96646b3bb5046840fe24a1f6856fc44be2c"
}