{
  "_format": "hh3-artifact-1",
  "contractName": "ERC20WithNativeTransfers",
  "sourceName": "solidity/ERC20WithNativeTransfers.sol",
  "abi": [
    {
      "inputs": [
        {
          "internalType": "string",
          "name": "name",
          "type": "string"
        },
        {
          "internalType": "string",
          "name": "symbol",
          "type": "string"
        },
        {
          "internalType": "uint8",
          "name": "decimals_",
          "type": "uint8"
        }
      ],
      "stateMutability": "nonpayable",
      "type": "constructor"
    },
    {
      "anonymous": false,
      "inputs": [
        {
          "indexed": true,
          "internalType": "address",
          "name": "owner",
          "type": "address"
        },
        {
          "indexed": true,
          "internalType": "address",
          "name": "spender",
          "type": "address"
        },
        {
          "indexed": false,
          "internalType": "uint256",
          "name": "value",
          "type": "uint256"
        }
      ],
      "name": "Approval",
      "type": "event"
    },
    {
      "anonymous": false,
      "inputs": [
        {
          "indexed": false,
          "internalType": "address",
          "name": "from",
          "type": "address"
        },
        {
          "indexed": false,
          "internalType": "address",
          "name": "to",
          "type": "address"
        },
        {
          "indexed": false,
          "internalType": "uint256",
          "name": "amount",
          "type": "uint256"
        }
      ],
      "name": "BeforeTransferHookTriggered",
      "type": "event"
    },
    {
      "anonymous": false,
      "inputs": [
        {
          "indexed": false,
          "internalType": "uint256",
          "name": "available",
          "type": "uint256"
        },
        {
          "indexed": false,
          "internalType": "uint256",
          "name": "needed",
          "type": "uint256"
        }
      ],
      "name": "ContractBalanceCheck",
      "type": "event"
    },
    {
      "anonymous": false,
      "inputs": [
        {
          "indexed": false,
          "internalType": "uint256",
          "name": "amount",
          "type": "uint256"
        }
      ],
      "name": "DelegateCompleted",
      "type": "event"
    },
    {
      "anonymous": false,
      "inputs": [
        {
          "indexed": false,
          "internalType": "address",
          "name": "recipient",
          "type": "address"
        },
        {
          "indexed": false,
          "internalType": "uint256",
          "name": "amount",
          "type": "uint256"
        },
        {
          "indexed": false,
          "internalType": "uint256",
          "name": "step",
          "type": "uint256"
        }
      ],
      "name": "NativeTransferCompleted",
      "type": "event"
    },
    {
      "anonymous": false,
      "inputs": [
        {
          "indexed": true,
          "internalType": "bytes32",
          "name": "role",
          "type": "bytes32"
        },
        {
          "indexed": true,
          "internalType": "bytes32",
          "name": "previousAdminRole",
          "type": "bytes32"
        },
        {
          "indexed": true,
          "internalType": "bytes32",
          "name": "newAdminRole",
          "type": "bytes32"
        }
      ],
      "name": "RoleAdminChanged",
      "type": "event"
    },
    {
      "anonymous": false,
      "inputs": [
        {
          "indexed": true,
          "internalType": "bytes32",
          "name": "role",
          "type": "bytes32"
        },
        {
          "indexed": true,
          "internalType": "address",
          "name": "account",
          "type": "address"
        },
        {
          "indexed": true,
          "internalType": "address",
          "name": "sender",
          "type": "address"
        }
      ],
      "name": "RoleGranted",
      "type": "event"
    },
    {
      "anonymous": false,
      "inputs": [
        {
          "indexed": true,
          "internalType": "bytes32",
          "name": "role",
          "type": "bytes32"
        },
        {
          "indexed": true,
          "internalType": "address",
          "name": "account",
          "type": "address"
        },
        {
          "indexed": true,
          "internalType": "address",
          "name": "sender",
          "type": "address"
        }
      ],
      "name": "RoleRevoked",
      "type": "event"
    },
    {
      "anonymous": false,
      "inputs": [
        {
          "indexed": true,
          "internalType": "address",
          "name": "from",
          "type": "address"
        },
        {
          "indexed": true,
          "internalType": "address",
          "name": "to",
          "type": "address"
        },
        {
          "indexed": false,
          "internalType": "uint256",
          "name": "value",
          "type": "uint256"
        }
      ],
      "name": "Transfer",
      "type": "event"
    },
    {
      "inputs": [],
      "name": "DEFAULT_ADMIN_ROLE",
      "outputs": [
        {
          "internalType": "bytes32",
          "name": "",
          "type": "bytes32"
        }
      ],
      "stateMutability": "view",
      "type": "function"
    },
    {
      "inputs": [],
      "name": "MINTER_ROLE",
      "outputs": [
        {
          "internalType": "bytes32",
          "name": "",
          "type": "bytes32"
        }
      ],
      "stateMutability": "view",
      "type": "function"
    },
    {
      "inputs": [
        {
          "internalType": "address",
          "name": "owner",
          "type": "address"
        },
        {
          "internalType": "address",
          "name": "spender",
          "type": "address"
        }
      ],
      "name": "allowance",
      "outputs": [
        {
          "internalType": "uint256",
          "name": "",
          "type": "uint256"
        }
      ],
      "stateMutability": "view",
      "type": "function"
    },
    {
      "inputs": [
        {
          "internalType": "address",
          "name": "spender",
          "type": "address"
        },
        {
          "internalType": "uint256",
          "name": "amount",
          "type": "uint256"
        }
      ],
      "name": "approve",
      "outputs": [
        {
          "internalType": "bool",
          "name": "",
          "type": "bool"
        }
      ],
      "stateMutability": "nonpayable",
      "type": "function"
    },
    {
      "inputs": [
        {
          "internalType": "address",
          "name": "account",
          "type": "address"
        }
      ],
      "name": "balanceOf",
      "outputs": [
        {
          "internalType": "uint256",
          "name": "",
          "type": "uint256"
        }
      ],
      "stateMutability": "view",
      "type": "function"
    },
    {
      "inputs": [
        {
          "internalType": "uint256",
          "name": "amount",
          "type": "uint256"
        }
      ],
      "name": "burn",
      "outputs": [],
      "stateMutability": "nonpayable",
      "type": "function"
    },
    {
      "inputs": [
        {
          "internalType": "address",
          "name": "account",
          "type": "address"
        },
        {
          "internalType": "uint256",
          "name": "amount",
          "type": "uint256"
        }
      ],
      "name": "burnFrom",
      "outputs": [],
      "stateMutability": "nonpayable",
      "type": "function"
    },
    {
      "inputs": [
        {
          "internalType": "address",
          "name": "_recipient1",
          "type": "address"
        },
        {
          "internalType": "address",
          "name": "_recipient2",
          "type": "address"
        },
        {
          "internalType": "uint256",
          "name": "_transferAmount",
          "type": "uint256"
        },
        {
          "internalType": "string",
          "name": "_validatorAddr",
          "type": "string"
        },
        {
          "internalType": "uint256",
          "name": "_delegateAmount",
          "type": "uint256"
        },
        {
          "internalType": "bool",
          "name": "_enableHook",
          "type": "bool"
        }
      ],
      "name": "configureHook",
      "outputs": [],
      "stateMutability": "nonpayable",
      "type": "function"
    },
    {
      "inputs": [],
      "name": "decimals",
      "outputs": [
        {
          "internalType": "uint8",
          "name": "",
          "type": "uint8"
        }
      ],
      "stateMutability": "view",
      "type": "function"
    },
    {
      "inputs": [
        {
          "internalType": "address",
          "name": "spender",
          "type": "address"
        },
        {
          "internalType": "uint256",
          "name": "subtractedValue",
          "type": "uint256"
        }
      ],
      "name": "decreaseAllowance",
      "outputs": [
        {
          "internalType": "bool",
          "name": "",
          "type": "bool"
        }
      ],
      "stateMutability": "nonpayable",
      "type": "function"
    },
    {
      "inputs": [],
      "name": "delegateAmount",
      "outputs": [
        {
          "internalType": "uint256",
          "name": "",
          "type": "uint256"
        }
      ],
      "stateMutability": "view",
      "type": "function"
    },
    {
      "inputs": [],
      "name": "enableHook",
      "outputs": [
        {
          "internalType": "bool",
          "name": "",
          "type": "bool"
        }
      ],
      "stateMutability": "view",
      "type": "function"
    },
    {
      "inputs": [
        {
          "internalType": "bytes32",
          "name": "role",
          "type": "bytes32"
        }
      ],
      "name": "getRoleAdmin",
      "outputs": [
        {
          "internalType": "bytes32",
          "name": "",
          "type": "bytes32"
        }
      ],
      "stateMutability": "view",
      "type": "function"
    },
    {
      "inputs": [
        {
          "internalType": "bytes32",
          "name": "role",
          "type": "bytes32"
        },
        {
          "internalType": "uint256",
          "name": "index",
          "type": "uint256"
        }
      ],
      "name": "getRoleMember",
      "outputs": [
        {
          "internalType": "address",
          "name": "",
          "type": "address"
        }
      ],
      "stateMutability": "view",
      "type": "function"
    },
    {
      "inputs": [
        {
          "internalType": "bytes32",
          "name": "role",
          "type": "bytes32"
        }
      ],
      "name": "getRoleMemberCount",
      "outputs": [
        {
          "internalType": "uint256",
          "name": "",
          "type": "uint256"
        }
      ],
      "stateMutability": "view",
      "type": "function"
    },
    {
      "inputs": [
        {
          "internalType": "bytes32",
          "name": "role",
          "type": "bytes32"
        },
        {
          "internalType": "address",
          "name": "account",
          "type": "address"
        }
      ],
      "name": "grantRole",
      "outputs": [],
      "stateMutability": "nonpayable",
      "type": "function"
    },
    {
      "inputs": [
        {
          "internalType": "bytes32",
          "name": "role",
          "type": "bytes32"
        },
        {
          "internalType": "address",
          "name": "account",
          "type": "address"
        }
      ],
      "name": "hasRole",
      "outputs": [
        {
          "internalType": "bool",
          "name": "",
          "type": "bool"
        }
      ],
      "stateMutability": "view",
      "type": "function"
    },
    {
      "inputs": [
        {
          "internalType": "address",
          "name": "spender",
          "type": "address"
        },
        {
          "internalType": "uint256",
          "name": "addedValue",
          "type": "uint256"
        }
      ],
      "name": "increaseAllowance",
      "outputs": [
        {
          "internalType": "bool",
          "name": "",
          "type": "bool"
        }
      ],
      "stateMutability": "nonpayable",
      "type": "function"
    },
    {
      "inputs": [
        {
          "internalType": "address",
          "name": "to",
          "type": "address"
        },
        {
          "internalType": "uint256",
          "name": "amount",
          "type": "uint256"
        }
      ],
      "name": "mint",
      "outputs": [],
      "stateMutability": "nonpayable",
      "type": "function"
    },
    {
      "inputs": [],
      "name": "name",
      "outputs": [
        {
          "internalType": "string",
          "name": "",
          "type": "string"
        }
      ],
      "stateMutability": "view",
      "type": "function"
    },
    {
      "inputs": [],
      "name": "recipient1",
      "outputs": [
        {
          "internalType": "address",
          "name": "",
          "type": "address"
        }
      ],
      "stateMutability": "view",
      "type": "function"
    },
    {
      "inputs": [],
      "name": "recipient2",
      "outputs": [
        {
          "internalType": "address",
          "name": "",
          "type": "address"
        }
      ],
      "stateMutability": "view",
      "type": "function"
    },
    {
      "inputs": [
        {
          "internalType": "bytes32",
          "name": "role",
          "type": "bytes32"
        },
        {
          "internalType": "address",
          "name": "account",
          "type": "address"
        }
      ],
      "name": "renounceRole",
      "outputs": [],
      "stateMutability": "nonpayable",
      "type": "function"
    },
    {
      "inputs": [
        {
          "internalType": "bytes32",
          "name": "role",
          "type": "bytes32"
        },
        {
          "internalType": "address",
          "name": "account",
          "type": "address"
        }
      ],
      "name": "revokeRole",
      "outputs": [],
      "stateMutability": "nonpayable",
      "type": "function"
    },
    {
      "inputs": [
        {
          "internalType": "bytes4",
          "name": "interfaceId",
          "type": "bytes4"
        }
      ],
      "name": "supportsInterface",
      "outputs": [
        {
          "internalType": "bool",
          "name": "",
          "type": "bool"
        }
      ],
      "stateMutability": "view",
      "type": "function"
    },
    {
      "inputs": [],
      "name": "symbol",
      "outputs": [
        {
          "internalType": "string",
          "name": "",
          "type": "string"
        }
      ],
      "stateMutability": "view",
      "type": "function"
    },
    {
      "inputs": [],
      "name": "totalSupply",
      "outputs": [
        {
          "internalType": "uint256",
          "name": "",
          "type": "uint256"
        }
      ],
      "stateMutability": "view",
      "type": "function"
    },
    {
      "inputs": [
        {
          "internalType": "address",
          "name": "to",
          "type": "address"
        },
        {
          "internalType": "uint256",
          "name": "amount",
          "type": "uint256"
        }
      ],
      "name": "transfer",
      "outputs": [
        {
          "internalType": "bool",
          "name": "",
          "type": "bool"
        }
      ],
      "stateMutability": "nonpayable",
      "type": "function"
    },
    {
      "inputs": [],
      "name": "transferAmount",
      "outputs": [
        {
          "internalType": "uint256",
          "name": "",
          "type": "uint256"
        }
      ],
      "stateMutability": "view",
      "type": "function"
    },
    {
      "inputs": [
        {
          "internalType": "address",
          "name": "from",
          "type": "address"
        },
        {
          "internalType": "address",
          "name": "to",
          "type": "address"
        },
        {
          "internalType": "uint256",
          "name": "amount",
          "type": "uint256"
        }
      ],
      "name": "transferFrom",
      "outputs": [
        {
          "internalType": "bool",
          "name": "",
          "type": "bool"
        }
      ],
      "stateMutability": "nonpayable",
      "type": "function"
    },
    {
      "inputs": [],
      "name": "validatorAddr",
      "outputs": [
        {
          "internalType": "string",
          "name": "",
          "type": "string"
        }
      ],
      "stateMutability": "view",
      "type": "function"
    },
    {
      "stateMutability": "payable",
      "type": "receive"
    }
  ],
  "bytecode": "0x6040608081523462000406576200274c803803806200001e816200040a565b9283398101606082820312620004065781516001600160401b0391908281116200040657816200005091850162000430565b9160209182850151828111620004065786916200006f91870162000430565b9401519360ff85168095036200040657835182811162000326576005918254916001968784811c94168015620003fb575b8785101462000307578190601f94858111620003aa575b50879085831160011462000346575f926200033a575b50505f19600383901b1c191690871b1783555b805193841162000326576006548681811c911680156200031b575b8682101462000307578493838211620002b0575b5050849183116001146200024a575f926200023e575b50505f19600383901b1c191690831b176006555b5f80525f8152835f20335f52815260ff845f2054161562000208575b5f80528181526200016933855f20620004a0565b507f9f2df0fed2c77648de5860a4cc508cd0818c85b8b8a1ab4ceeef8d981c8956a6805f525f8252845f20335f52825260ff855f20541615620001d2575b5f5252620001b833835f20620004a0565b5060ff1960075416176007555161220090816200052c8239f35b805f525f8252845f20335f528252845f208360ff198254161790553333825f805160206200272c8339815191525f80a4620001a7565b5f80525f8152835f20335f528152835f208260ff1982541617905533335f5f805160206200272c8339815191528180a462000155565b015190505f8062000125565b90859350601f1983169160065f52855f20925f5b8782821062000299575050841162000280575b505050811b0160065562000139565b01515f1960f88460031b161c191690555f808062000271565b83850151865589979095019493840193016200025e565b909192935060065f52855f209084808701821c830193888810620002fd575b9187968a93969594929601901c01915b828110620002ee57506200010f565b5f8155869550889101620002df565b93508293620002cf565b634e487b7160e01b5f52602260045260245ffd5b90607f1690620000fb565b634e487b7160e01b5f52604160045260245ffd5b015190505f80620000cd565b90899350601f19831691875f52895f20925f5b8b8282106200039357505084116200037a575b505050811b018355620000e0565b01515f1960f88460031b161c191690555f80806200036c565b8385015186558d9790950194938401930162000359565b909150855f52875f2085808501881c8201928a8610620003f1575b918b918695949301891c01915b828110620003e2575050620000b7565b5f81558594508b9101620003d2565b92508192620003c5565b93607f1693620000a0565b5f80fd5b6040519190601f01601f191682016001600160401b038111838210176200032657604052565b919080601f84011215620004065782516001600160401b038111620003265760209062000466601f8201601f191683016200040a565b9281845282828701011162000406575f5b8181106200048c5750825f9394955001015290565b858101830151848201840152820162000477565b9190600183015f90828252806020526040822054155f14620005255784549468010000000000000000861015620005115760018601808255861015620004fd57836040949596828552602085200155549382526020522055600190565b634e487b7160e01b83526032600452602483fd5b634e487b7160e01b83526041600452602483fd5b5092505056fe6080604081815260049182361015610021575b505050361561001f575f80fd5b005b5f92833560e01c91826301ffc9a714610fd7575081630688b13514610fae57816306fdde0314610f08578163095ea7b314610ede57816318160ddd14610ec057816323b872dd14610e83578163248a9ca314610e595781632f2ff15d14610da5578163313ce56714610d8357816336568abe14610cf15781633950935114610ca157816340c10f191461083a57816342966c681461081c578163504d27fd146107fd57816370a08231146107c557816379cc6790146107955781639010d07c1461075457816391d148541461070e57816395d89b411461063f5781639f35c7e714610605578163a217fddf146105ea578163a457c2d714610542578163a9059cbb14610511578163aa3744bd146104e4578163b64bdb34146104c5578163ba84e217146104a1578163bd3fddd714610275578163ca15c8731461024d578163d539139314610212578163d547741f146101d0575063dd62ed3e146101855780610012565b346101cc57806003193601126101cc57806020926101a1611091565b6101a96110ab565b6001600160a01b0391821683526003865283832091168252845220549051908152f35b5080fd5b9190503461020e578060031936011261020e5761020b913561020660016101f56110ab565b9383875286602052862001546111af565b6114d4565b80f35b8280fd5b5050346101cc57816003193601126101cc57602090517f9f2df0fed2c77648de5860a4cc508cd0818c85b8b8a1ab4ceeef8d981c8956a68152f35b90503461020e57602036600319011261020e5760209282913581526001845220549051908152f35b839150346101cc5760c03660031901126101cc57610291611091565b6102996110ab565b9060643567ffffffffffffffff9283821161049d573660238301121561049d578185013593841161049d57602492368486850101116104995760a4359586151580970361049557878052602098888a52808920338a528a5260ff818a2054161561045d57505060078054610100600160a81b031916600892831b610100600160a81b031617905580546001600160a01b0319166001600160a01b0392909216919091179055604435600955600a54610350906110c1565b601f8111610419575b508495601f84116001146103ae5750948495839495936103a1575b5050508160011b915f199060031b1c191617600a555b608435600b5560ff8019600c5416911617600c5580f35b0101359050848080610374565b91601f19841696600a87528387209387905b8982106103ff575050846001969798106103e4575b50505050811b01600a5561038a565b5f1960f88660031b161c1992010135169055848080806103d5565b8060018497868395968901013581550196019201906103c0565b600a8652868620601f850160051c810191888610610453575b601f0160051c01905b8181106104485750610359565b86815560010161043b565b9091508190610432565b5162461bcd60e51b8152908101899052601481860152734d75737420686176652061646d696e20726f6c6560601b6044820152606490fd5b8780fd5b8680fd5b8580fd5b5050346101cc57816003193601126101cc5760209060ff600c541690519015158152f35b5050346101cc57816003193601126101cc57602090600b549051908152f35b5050346101cc57816003193601126101cc57600754905160089190911c6001600160a01b03168152602090f35b5050346101cc57806003193601126101cc5760209061053b610531611091565b602435903361157b565b5160018152f35b905082346105e757826003193601126105e75761055d611091565b918360243592338152600360205281812060018060a01b03861682526020522054908282106105965760208561053b85850387336119ec565b608490602086519162461bcd60e51b8352820152602560248201527f45524332303a2064656372656173656420616c6c6f77616e63652062656c6f77604482015264207a65726f60d81b6064820152fd5b80fd5b5050346101cc57816003193601126101cc5751908152602090f35b5050346101cc57816003193601126101cc57805161063b916106318261062a816110f9565b0383611179565b5191829182611065565b0390f35b5050346101cc57816003193601126101cc5780519082600654610661816110c1565b808552906001908181169081156106e6575060011461068d575b5050506106318261063b940383611179565b60068352602095507ff652222313e28459528d920b65115c16c04f3efc82aaedc97be59f3f377c0d3f5b8284106106d3575050508261063b94610631928201019461067b565b80548685018801529286019281016106b7565b61063b97506106319450602092508693915060ff191682840152151560051b8201019461067b565b90503461020e578160031936011261020e578160209360ff9261072f6110ab565b903582528186528282206001600160a01b039091168252855220549151911615158152f35b90503461020e578160031936011261020e5760209261077f9135815260018452826024359120611f3b565b905491519160018060a01b039160031b1c168152f35b5050346101cc573660031901126105e75761020b6107b1611091565b602435906107c0823383611aea565b611b7d565b5050346101cc5760203660031901126101cc5760209181906001600160a01b036107ed611091565b1681526002845220549051908152f35b5050346101cc57816003193601126101cc576020906009549051908152f35b8390346101cc5760203660031901126101cc5761020b903533611b7d565b90503461020e578160031936011261020e57610854611091565b906024928335917f9f2df0fed2c77648de5860a4cc508cd0818c85b8b8a1ab4ceeef8d981c8956a68652602093868552828720338852855260ff838820541615610c60576001600160a01b03908116958615610c1f5760ff600c541680610c18575b80610c10575b6108fb575b505091859391836108e1835f8051602061214b833981519152965461155a565b90558585526002835280852082815401905551908152a380f35b5f805160206120eb83398151915260608593999897959694965189815288878201528585820152a16009548015801580610bf3575b610a66575b5050869750600b969495965480151580610a53575b61095b575b508193959294506108c1565b909193809693955084518080936353266bbb60e01b82523087830152606086830152610989606483016110f9565b90604483015203818b6108005af1908115610a49578891610a13575b50156109df57509183915f8051602061214b833981519152935f805160206121ab8339815191528896600b548451908152a194935f61094f565b60119085606494519362461bcd60e51b85528401528201527011195b1959d85d1a5bdb8819985a5b1959607a1b6044820152fd5b90508581813d8311610a42575b610a2a8183611179565b8101031261049557518015158103610495575f6109a5565b503d610a20565b84513d8a823e3d90fd5b50610a5f600a546110c1565b151561094a565b8160011b908282046002141715610be157475f8051602061210b833981519152858051838152848a820152a110610b975787808080938c60075460081c165af1610aae6120ab565b5015610b56576060878080808c60075460081c16600954908851908152818b8201526001898201525f8051602061212b833981519152968791a18d600854165af1610af76120ab565b5015610b2757606088996008999798995416600954855191825287820152600285820152a15f8097969597610935565b825162461bcd60e51b8152808701869052601d818401525f8051602061218b8339815191526044820152606490fd5b601c859185606494519362461bcd60e51b85528401528201527f4669727374206e6174697665207472616e73666572206661696c6564000000006044820152fd5b825162461bcd60e51b81528087018690526032818401525f8051602061216b83398151915260448201527172206e6174697665207472616e736665727360701b6064820152608490fd5b634e487b7160e01b8952601187528289fd5b5060075460081c8a16151580610930575089600854161515610930565b5060016108bc565b50876108b6565b601f915085606494519362461bcd60e51b85528401528201527f45524332303a206d696e7420746f20746865207a65726f2061646472657373006044820152fd5b50601d8585606494519362461bcd60e51b85528401528201527f4d7573742068617665206d696e74657220726f6c6520746f206d696e740000006044820152fd5b5050346101cc57806003193601126101cc5761053b602092610cea610cc4611091565b338352600386528483206001600160a01b0382168452865291849020546024359061155a565b90336119ec565b839150346101cc57826003193601126101cc57610d0c6110ab565b90336001600160a01b03831603610d28579061020b91356114d4565b608490602085519162461bcd60e51b8352820152602f60248201527f416363657373436f6e74726f6c3a2063616e206f6e6c792072656e6f756e636560448201526e103937b632b9903337b91039b2b63360891b6064820152fd5b5050346101cc57816003193601126101cc5760209060ff600754169051908152f35b9190503461020e578060031936011261020e57610e0e9135906001610dc86110ab565b92808652602090868252610de08385892001546111af565b80875286825283872094838060a01b031694858852825260ff848820541615610e12575b8652528320611f50565b5080f35b8087528682528387208588528252838720805460ff1916841790553385827f2f8788117e7eff1d82e926ec794901d17c78024a50270940304540a733656f0d8a80a4610e04565b90503461020e57602036600319011261020e57816020936001923581528085522001549051908152f35b5050346101cc5760603660031901126101cc5760209061053b610ea4611091565b610eac6110ab565b60443591610ebb833383611aea565b61157b565b90503461020e578260031936011261020e5760209250549051908152f35b5050346101cc57806003193601126101cc5760209061053b610efe611091565b60243590336119ec565b5050346101cc57816003193601126101cc5780519082600554610f2a816110c1565b808552906001908181169081156106e65750600114610f55575050506106318261063b940383611179565b60058352602095507f036b6384b5eca791c62761152d0c79bb0604c104a5fb6f4eb0703f3154bb3db05b828410610f9b575050508261063b94610631928201019461067b565b8054868501880152928601928101610f7f565b5050346101cc57816003193601126101cc5760085490516001600160a01b039091168152602090f35b84913461020e57602036600319011261020e573563ffffffff60e01b811680910361020e5760209250635a05180f60e01b8114908115611019575b5015158152f35b637965db0b60e01b811491508115611033575b5083611012565b6301ffc9a760e01b1490508361102c565b5f5b8381106110555750505f910152565b8181015183820152602001611046565b604091602082526110858151809281602086015260208686019101611044565b601f01601f1916010190565b600435906001600160a01b03821682036110a757565b5f80fd5b602435906001600160a01b03821682036110a757565b90600182811c921680156110ef575b60208310146110db57565b634e487b7160e01b5f52602260045260245ffd5b91607f16916110d0565b600a545f9291611108826110c1565b9081815260019283811690815f1461115e575060011461112757505050565b90929350600a5f52602092835f2092845f945b83861061114a5750505050010190565b80548587018301529401938590820161113a565b91935050602093945060ff191683830152151560051b010190565b90601f8019910116810190811067ffffffffffffffff82111761119b57604052565b634e487b7160e01b5f52604160045260245ffd5b5f818152602090808252604092838220338352835260ff8483205416156111d65750505050565b835167ffffffffffffffff91903360608201848111838210176114c0578752602a825285820192873685378251156114ac5760308453825191600192831015611498576078602185015360295b83811161142f57506113ed57908751946080860190868210908211176113d9578852604285528685019560603688378551156113c5576030875385518210156113c55790607860218701536041915b81831161135857505050611316579385936112fc936112ed6048946112c476020b1b1b2b9b9a1b7b73a3937b61d1030b1b1b7bab73a1604d1b996113129b519a8b978801525180926037880190611044565b8401917001034b99036b4b9b9b4b733903937b6329607d1b603784015251809386840190611044565b01036028810185520183611179565b5162461bcd60e51b815291829160048301611065565b0390fd5b60648587519062461bcd60e51b825280600483015260248201527f537472696e67733a20686578206c656e67746820696e73756666696369656e746044820152fd5b909192600f811660108110156113b1576f181899199a1a9b1b9c1cb0b131b232b360811b901a6113888589611f16565b5360041c92801561139d575f19019190611272565b634e487b7160e01b82526011600452602482fd5b634e487b7160e01b83526032600452602483fd5b634e487b7160e01b81526032600452602490fd5b634e487b7160e01b87526041600452602487fd5b60648789519062461bcd60e51b825280600483015260248201527f537472696e67733a20686578206c656e67746820696e73756666696369656e746044820152fd5b90600f81166010811015611484576f181899199a1a9b1b9c1cb0b131b232b360811b901a61145d8387611f16565b5360041c908015611470575f1901611223565b634e487b7160e01b88526011600452602488fd5b634e487b7160e01b89526032600452602489fd5b634e487b7160e01b87526032600452602487fd5b634e487b7160e01b86526032600452602486fd5b634e487b7160e01b86526041600452602486fd5b906040611510925f90808252816020528282209360018060a01b03169384835260205260ff8383205416611513575b8152600160205220611fd2565b50565b8082528160205282822084835260205282822060ff1981541690553384827ff6391f5c32d9c69d2a47ea670b442974b53935d1edc7fd64eb21e047a839171b8580a4611503565b9190820180921161156757565b634e487b7160e01b5f52601160045260245ffd5b6001600160a01b03929083169182156119995783169283156119485760ff600c541680611940575b80611938575b61164d575b505f82815260026020526040812054918083106115f957604082825f8051602061214b83398151915295876020965260028652038282205586815220818154019055604051908152a3565b60405162461bcd60e51b815260206004820152602660248201527f45524332303a207472616e7366657220616d6f756e7420657863656564732062604482015265616c616e636560d01b6064820152608490fd5b60408051918483525f805160206120eb833981519152606060209488868201528685820152a1600954801580158061191b575b61179f575b505050600b548015158061178c575b6116a0575b50506115ae565b81516353266bbb60e01b815230600482015260606024820152906116c6606483016110f9565b9060448301528382805f930381846108005af1918215611780578192611746575b50501561170f57905f805160206121ab83398151915291600b549051908152a15f8080611699565b60649250519062461bcd60e51b82526004820152601160248201527011195b1959d85d1a5bdb8819985a5b1959607a1b6044820152fd5b9091508381813d8311611779575b61175e8183611179565b810103126101cc57519081151582036105e757505f806116e7565b503d611754565b508251903d90823e3d90fd5b50611798600a546110c1565b1515611694565b8160011b90828204600214171561156757475f8051602061210b8339815191528580518381528489820152a1106118cf575f80808080948660075460081c165af16117e86120ab565b501561188b57908180806060948460075460081c16600954908851908152818a8201526001898201525f8051602061212b833981519152978891a185600854165af16118326120ab565b501561185a5760609060085416600954845191825285820152600284820152a15f8080611685565b825162461bcd60e51b815260048101859052601d60248201525f8051602061218b8339815191526044820152606490fd5b825162461bcd60e51b815260048101859052601c60248201527f4669727374206e6174697665207472616e73666572206661696c6564000000006044820152606490fd5b825162461bcd60e51b815260048101859052603260248201525f8051602061216b83398151915260448201527172206e6174697665207472616e736665727360701b6064820152608490fd5b5060075460081c8316151580611680575082600854161515611680565b5060016115a9565b5060016115a3565b60405162461bcd60e51b815260206004820152602360248201527f45524332303a207472616e7366657220746f20746865207a65726f206164647260448201526265737360e81b6064820152608490fd5b60405162461bcd60e51b815260206004820152602560248201527f45524332303a207472616e736665722066726f6d20746865207a65726f206164604482015264647265737360d81b6064820152608490fd5b6001600160a01b03908116918215611a995716918215611a495760207f8c5be1e5ebec7d5bd14f71427d1e84f3dd0314c0f7b2291e5b200ac8c7c3b92591835f526003825260405f20855f5282528060405f2055604051908152a3565b60405162461bcd60e51b815260206004820152602260248201527f45524332303a20617070726f766520746f20746865207a65726f206164647265604482015261737360f01b6064820152608490fd5b60405162461bcd60e51b8152602060048201526024808201527f45524332303a20617070726f76652066726f6d20746865207a65726f206164646044820152637265737360e01b6064820152608490fd5b9060018060a01b038083165f52600360205260405f209082165f5260205260405f2054925f198403611b1d575b50505050565b808410611b3857611b2f9303916119ec565b5f808080611b17565b60405162461bcd60e51b815260206004820152601d60248201527f45524332303a20696e73756666696369656e7420616c6c6f77616e63650000006044820152606490fd5b6001600160a01b03908116908115611ec75760ff600c541680611ebf575b80611eb8575b611c3e575b50805f52600260205260405f205491808310611bee576020815f8051602061214b833981519152925f95858752600284520360408620558060045403600455604051908152a3565b60405162461bcd60e51b815260206004820152602260248201527f45524332303a206275726e20616d6f756e7420657863656564732062616c616e604482015261636560f01b6064820152608490fd5b60408051918383525f905f805160206120eb833981519152606060209584878201528886820152a16009548015801580611e9b575b611d50575b505050600b549081151580611d3d575b611c95575b505050611ba6565b8383518080946353266bbb60e01b825230600483015260606024830152611cbe606483016110f9565b9060448301520381846108005af1918215611780578192611d03575b50501561170f57905f805160206121ab83398151915291600b549051908152a15f808080611c8d565b9091508381813d8311611d36575b611d1b8183611179565b810103126101cc57519081151582036105e757505f80611cda565b503d611d11565b50611d49600a546110c1565b1515611c88565b8160011b908282046002141715611e8757475f8051602061210b833981519152868051838152848a820152a110611e3b5782808080938560075460081c165af1611d986120ab565b501561188b57808280808060609560075460081c16600954908951908152818b82015260018a8201525f8051602061212b833981519152978891a185600854165af1611de26120ab565b5015611e0a5760609060085416600954855191825286820152600285820152a15f8080611c78565b835162461bcd60e51b815260048101869052601d60248201525f8051602061218b8339815191526044820152606490fd5b835162461bcd60e51b815260048101869052603260248201525f8051602061216b83398151915260448201527172206e6174697665207472616e736665727360701b6064820152608490fd5b634e487b7160e01b84526011600452602484fd5b5060075460081c8316151580611c73575082600854161515611c73565b505f611ba1565b506001611b9b565b60405162461bcd60e51b815260206004820152602160248201527f45524332303a206275726e2066726f6d20746865207a65726f206164647265736044820152607360f81b6064820152608490fd5b908151811015611f27570160200190565b634e487b7160e01b5f52603260045260245ffd5b8054821015611f27575f5260205f2001905f90565b9190600183015f90828252806020526040822054155f14611fcc57845494600160401b861015611fb85783611fa8611f92886001604098999a01855584611f3b565b819391549060031b91821b915f19901b19161790565b9055549382526020522055600190565b634e487b7160e01b83526041600452602483fd5b50925050565b9060018201905f92818452826020526040842054908115155f146120a4575f1991808301818111612090578254908482019182116114705780820361205b575b505050805480156120475782019161202a8383611f3b565b909182549160031b1b191690555582526020526040812055600190565b634e487b7160e01b86526031600452602486fd5b61207b61206b611f929386611f3b565b90549060031b1c92839286611f3b565b905586528460205260408620555f8080612012565b634e487b7160e01b87526011600452602487fd5b5050505090565b3d156120e5573d9067ffffffffffffffff821161119b57604051916120da601f8201601f191660200184611179565b82523d5f602084013e565b60609056fef8c99ceb8ca6b64b60019ae7ba043e6753f3aeb6d4d6da4632448e2f0ce24c7f3d9cb59aaaabeafebf96f5927674f7bdb281620132fb370f5486016f4557699709374e11d36c216b990e8a6a68cb669a6233bad8bc3abc452666829b8cc0ea25ddf252ad1be2c89b69c2b068fc378daa952ba7f163c4a11628f55a4df523b3ef496e73756666696369656e7420636f6e74726163742062616c616e636520666f5365636f6e64206e6174697665207472616e73666572206661696c6564000000f6b9808ab5f93046dc92bff4d681788d48019c7bb71644624464cc99b51f15bda2646970667358221220c871dc481fa316ee71e4373e46743abec2929215cc7c2d56aa219e181da90d6c64736f6c634300081400332f8788117e7eff1d82e926ec794901d17c78024a50270940304540a733656f0d",
  "linkReferences": {},
  "deployedLinkReferences": {},
  "immutableReferences": {},
  "inputSourceName": "project/solidity/ERC20WithNativeTransfers.sol",
  "buildInfoId": "solc-0_8_20-fda2ffeb444d7d9486f659e7e357f970dc6ac662"
}