{
  "_format": "hh-sol-artifact-1",
  "contractName": "ERC20RecursiveNonRevertingPrecompileCall",
  "sourceName": "solidity/ERC20RecursiveNonRevertingPrecompileCall.sol",
  "abi": [
    {
      "inputs": [
        {
          "internalType": "string",
          "name": "name",
          "type": "string"
        },
        {
          "internalType": "string",
          "name": "symbol",
          "type": "string"
        },
        {
          "internalType": "uint8",
          "name": "decimals_",
          "type": "uint8"
        }
      ],
      "stateMutability": "nonpayable",
      "type": "constructor"
    },
    {
      "anonymous": false,
      "inputs": [
        {
          "indexed": true,
          "internalType": "address",
          "name": "owner",
          "type": "address"
        },
        {
          "indexed": true,
          "internalType": "address",
          "name": "spender",
          "type": "address"
        },
        {
          "indexed": false,
          "internalType": "uint256",
          "name": "value",
          "type": "uint256"
        }
      ],
      "name": "Approval",
      "type": "event"
    },
    {
      "anonymous": false,
      "inputs": [
        {
          "indexed": false,
          "internalType": "address",
          "name": "from",
          "type": "address"
        },
        {
          "indexed": false,
          "internalType": "address",
          "name": "to",
          "type": "address"
        },
        {
          "indexed": false,
          "internalType": "uint256",
          "name": "amount",
          "type": "uint256"
        }
      ],
      "name": "BeforeTokenTransferHookCalled",
      "type": "event"
    },
    {
      "anonymous": false,
      "inputs": [
        {
          "indexed": false,
          "internalType": "address",
          "name": "account",
          "type": "address"
        }
      ],
      "name": "Paused",
      "type": "event"
    },
    {
      "anonymous": false,
      "inputs": [
        {
          "indexed": true,
          "internalType": "bytes32",
          "name": "role",
          "type": "bytes32"
        },
        {
          "indexed": true,
          "internalType": "bytes32",
          "name": "previousAdminRole",
          "type": "bytes32"
        },
        {
          "indexed": true,
          "internalType": "bytes32",
          "name": "newAdminRole",
          "type": "bytes32"
        }
      ],
      "name": "RoleAdminChanged",
      "type": "event"
    },
    {
      "anonymous": false,
      "inputs": [
        {
          "indexed": true,
          "internalType": "bytes32",
          "name": "role",
          "type": "bytes32"
        },
        {
          "indexed": true,
          "internalType": "address",
          "name": "account",
          "type": "address"
        },
        {
          "indexed": true,
          "internalType": "address",
          "name": "sender",
          "type": "address"
        }
      ],
      "name": "RoleGranted",
      "type": "event"
    },
    {
      "anonymous": false,
      "inputs": [
        {
          "indexed": true,
          "internalType": "bytes32",
          "name": "role",
          "type": "bytes32"
        },
        {
          "indexed": true,
          "internalType": "address",
          "name": "account",
          "type": "address"
        },
        {
          "indexed": true,
          "internalType": "address",
          "name": "sender",
          "type": "address"
        }
      ],
      "name": "RoleRevoked",
      "type": "event"
    },
    {
      "anonymous": false,
      "inputs": [
        {
          "indexed": true,
          "internalType": "address",
          "name": "from",
          "type": "address"
        },
        {
          "indexed": true,
          "internalType": "address",
          "name": "to",
          "type": "address"
        },
        {
          "indexed": false,
          "internalType": "uint256",
          "name": "value",
          "type": "uint256"
        }
      ],
      "name": "Transfer",
      "type": "event"
    },
    {
      "anonymous": false,
      "inputs": [
        {
          "indexed": false,
          "internalType": "address",
          "name": "account",
          "type": "address"
        }
      ],
      "name": "Unpaused",
      "type": "event"
    },
    {
      "inputs": [],
      "name": "BURNER_ROLE",
      "outputs": [
        {
          "internalType": "bytes32",
          "name": "",
          "type": "bytes32"
        }
      ],
      "stateMutability": "view",
      "type": "function"
    },
    {
      "inputs": [],
      "name": "DEFAULT_ADMIN_ROLE",
      "outputs": [
        {
          "internalType": "bytes32",
          "name": "",
          "type": "bytes32"
        }
      ],
      "stateMutability": "view",
      "type": "function"
    },
    {
      "inputs": [],
      "name": "MINTER_ROLE",
      "outputs": [
        {
          "internalType": "bytes32",
          "name": "",
          "type": "bytes32"
        }
      ],
      "stateMutability": "view",
      "type": "function"
    },
    {
      "inputs": [],
      "name": "PAUSER_ROLE",
      "outputs": [
        {
          "internalType": "bytes32",
          "name": "",
          "type": "bytes32"
        }
      ],
      "stateMutability": "view",
      "type": "function"
    },
    {
      "inputs": [
        {
          "internalType": "address",
          "name": "owner",
          "type": "address"
        },
        {
          "internalType": "address",
          "name": "spender",
          "type": "address"
        }
      ],
      "name": "allowance",
      "outputs": [
        {
          "internalType": "uint256",
          "name": "",
          "type": "uint256"
        }
      ],
      "stateMutability": "view",
      "type": "function"
    },
    {
      "inputs": [
        {
          "internalType": "address",
          "name": "spender",
          "type": "address"
        },
        {
          "internalType": "uint256",
          "name": "amount",
          "type": "uint256"
        }
      ],
      "name": "approve",
      "outputs": [
        {
          "internalType": "bool",
          "name": "",
          "type": "bool"
        }
      ],
      "stateMutability": "nonpayable",
      "type": "function"
    },
    {
      "inputs": [
        {
          "internalType": "address",
          "name": "account",
          "type": "address"
        }
      ],
      "name": "balanceOf",
      "outputs": [
        {
          "internalType": "uint256",
          "name": "",
          "type": "uint256"
        }
      ],
      "stateMutability": "view",
      "type": "function"
    },
    {
      "inputs": [
        {
          "internalType": "uint256",
          "name": "amount",
          "type": "uint256"
        }
      ],
      "name": "burn",
      "outputs": [],
      "stateMutability": "nonpayable",
      "type": "function"
    },
    {
      "inputs": [
        {
          "internalType": "address",
          "name": "from",
          "type": "address"
        },
        {
          "internalType": "uint256",
          "name": "amount",
          "type": "uint256"
        }
      ],
      "name": "burnCoins",
      "outputs": [],
      "stateMutability": "nonpayable",
      "type": "function"
    },
    {
      "inputs": [
        {
          "internalType": "address",
          "name": "account",
          "type": "address"
        },
        {
          "internalType": "uint256",
          "name": "amount",
          "type": "uint256"
        }
      ],
      "name": "burnFrom",
      "outputs": [],
      "stateMutability": "nonpayable",
      "type": "function"
    },
    {
      "inputs": [],
      "name": "claimRewards",
      "outputs": [],
      "stateMutability": "nonpayable",
      "type": "function"
    },
    {
      "inputs": [],
      "name": "decimals",
      "outputs": [
        {
          "internalType": "uint8",
          "name": "",
          "type": "uint8"
        }
      ],
      "stateMutability": "view",
      "type": "function"
    },
    {
      "inputs": [
        {
          "internalType": "address",
          "name": "spender",
          "type": "address"
        },
        {
          "internalType": "uint256",
          "name": "subtractedValue",
          "type": "uint256"
        }
      ],
      "name": "decreaseAllowance",
      "outputs": [
        {
          "internalType": "bool",
          "name": "",
          "type": "bool"
        }
      ],
      "stateMutability": "nonpayable",
      "type": "function"
    },
    {
      "inputs": [
        {
          "internalType": "string",
          "name": "validatorAddress",
          "type": "string"
        },
        {
          "internalType": "uint256",
          "name": "amount",
          "type": "uint256"
        }
      ],
      "name": "delegate",
      "outputs": [],
      "stateMutability": "nonpayable",
      "type": "function"
    },
    {
      "inputs": [
        {
          "internalType": "bytes32",
          "name": "role",
          "type": "bytes32"
        }
      ],
      "name": "getRoleAdmin",
      "outputs": [
        {
          "internalType": "bytes32",
          "name": "",
          "type": "bytes32"
        }
      ],
      "stateMutability": "view",
      "type": "function"
    },
    {
      "inputs": [
        {
          "internalType": "bytes32",
          "name": "role",
          "type": "bytes32"
        },
        {
          "internalType": "uint256",
          "name": "index",
          "type": "uint256"
        }
      ],
      "name": "getRoleMember",
      "outputs": [
        {
          "internalType": "address",
          "name": "",
          "type": "address"
        }
      ],
      "stateMutability": "view",
      "type": "function"
    },
    {
      "inputs": [
        {
          "internalType": "bytes32",
          "name": "role",
          "type": "bytes32"
        }
      ],
      "name": "getRoleMemberCount",
      "outputs": [
        {
          "internalType": "uint256",
          "name": "",
          "type": "uint256"
        }
      ],
      "stateMutability": "view",
      "type": "function"
    },
    {
      "inputs": [
        {
          "internalType": "bytes32",
          "name": "role",
          "type": "bytes32"
        },
        {
          "internalType": "address",
          "name": "account",
          "type": "address"
        }
      ],
      "name": "grantRole",
      "outputs": [],
      "stateMutability": "nonpayable",
      "type": "function"
    },
    {
      "inputs": [
        {
          "internalType": "bytes32",
          "name": "role",
          "type": "bytes32"
        },
        {
          "internalType": "address",
          "name": "account",
          "type": "address"
        }
      ],
      "name": "hasRole",
      "outputs": [
        {
          "internalType": "bool",
          "name": "",
          "type": "bool"
        }
      ],
      "stateMutability": "view",
      "type": "function"
    },
    {
      "inputs": [
        {
          "internalType": "address",
          "name": "spender",
          "type": "address"
        },
        {
          "internalType": "uint256",
          "name": "addedValue",
          "type": "uint256"
        }
      ],
      "name": "increaseAllowance",
      "outputs": [
        {
          "internalType": "bool",
          "name": "",
          "type": "bool"
        }
      ],
      "stateMutability": "nonpayable",
      "type": "function"
    },
    {
      "inputs": [
        {
          "internalType": "address",
          "name": "to",
          "type": "address"
        },
        {
          "internalType": "uint256",
          "name": "amount",
          "type": "uint256"
        }
      ],
      "name": "mint",
      "outputs": [],
      "stateMutability": "nonpayable",
      "type": "function"
    },
    {
      "inputs": [],
      "name": "name",
      "outputs": [
        {
          "internalType": "string",
          "name": "",
          "type": "string"
        }
      ],
      "stateMutability": "view",
      "type": "function"
    },
    {
      "inputs": [],
      "name": "pause",
      "outputs": [],
      "stateMutability": "nonpayable",
      "type": "function"
    },
    {
      "inputs": [],
      "name": "paused",
      "outputs": [
        {
          "internalType": "bool",
          "name": "",
          "type": "bool"
        }
      ],
      "stateMutability": "view",
      "type": "function"
    },
    {
      "inputs": [
        {
          "internalType": "bytes32",
          "name": "role",
          "type": "bytes32"
        },
        {
          "internalType": "address",
          "name": "account",
          "type": "address"
        }
      ],
      "name": "renounceRole",
      "outputs": [],
      "stateMutability": "nonpayable",
      "type": "function"
    },
    {
      "inputs": [
        {
          "internalType": "bytes32",
          "name": "role",
          "type": "bytes32"
        },
        {
          "internalType": "address",
          "name": "account",
          "type": "address"
        }
      ],
      "name": "revokeRole",
      "outputs": [],
      "stateMutability": "nonpayable",
      "type": "function"
    },
    {
      "inputs": [
        {
          "internalType": "bytes4",
          "name": "interfaceId",
          "type": "bytes4"
        }
      ],
      "name": "supportsInterface",
      "outputs": [
        {
          "internalType": "bool",
          "name": "",
          "type": "bool"
        }
      ],
      "stateMutability": "view",
      "type": "function"
    },
    {
      "inputs": [],
      "name": "symbol",
      "outputs": [
        {
          "internalType": "string",
          "name": "",
          "type": "string"
        }
      ],
      "stateMutability": "view",
      "type": "function"
    },
    {
      "inputs": [],
      "name": "totalSupply",
      "outputs": [
        {
          "internalType": "uint256",
          "name": "",
          "type": "uint256"
        }
      ],
      "stateMutability": "view",
      "type": "function"
    },
    {
      "inputs": [
        {
          "internalType": "address",
          "name": "to",
          "type": "address"
        },
        {
          "internalType": "uint256",
          "name": "amount",
          "type": "uint256"
        }
      ],
      "name": "transfer",
      "outputs": [
        {
          "internalType": "bool",
          "name": "",
          "type": "bool"
        }
      ],
      "stateMutability": "nonpayable",
      "type": "function"
    },
    {
      "inputs": [
        {
          "internalType": "address",
          "name": "from",
          "type": "address"
        },
        {
          "internalType": "address",
          "name": "to",
          "type": "address"
        },
        {
          "internalType": "uint256",
          "name": "amount",
          "type": "uint256"
        }
      ],
      "name": "transferFrom",
      "outputs": [
        {
          "internalType": "bool",
          "name": "",
          "type": "bool"
        }
      ],
      "stateMutability": "nonpayable",
      "type": "function"
    },
    {
      "inputs": [],
      "name": "unpause",
      "outputs": [],
      "stateMutability": "nonpayable",
      "type": "function"
    }
  ],
  "bytecode": "0x60406080815234620005715762002330803803806200001e8162000576565b9283398101606082820312620005715781516001600160401b039190828111620005715781620000509185016200059c565b9160209182850151828111620005715786916200006f9187016200059c565b9401519360ff851685036200057157835182811162000488576005918254916001968784811c9416801562000566575b8785101462000467578190601f9485811162000512575b508790858311600114620004aa576000926200049e575b5050600019600383901b1c191690871b1783555b805193841162000488576006548681811c911680156200047d575b86821014620004675784938382116200040d575b505084918311600114620003a35760009262000397575b5050600019600383901b1c191690831b176006555b60ff19806007541660075560008052600082528460002033600052825260ff856000205416156200035c575b600080528282526200017e33866000206200060e565b507f9f2df0fed2c77648de5860a4cc508cd0818c85b8b8a1ab4ceeef8d981c8956a680600052600083528560002033600052835260ff8660002054161562000321575b600052828252620001d633866000206200060e565b507f65d7a28e3265b37a6474929f336521b332c1681b933f6cb9f3376673440d862a80600052600083528560002033600052835260ff86600020541615620002e6575b6000528282526200022e33866000206200060e565b507f3c11d16cbaffd01df69ce1c404f6340ee057498f5f00246190ea54220576a8489081600052600083528560002033600052835260ff86600020541615620002aa575b50600052526200028633836000206200060e565b5061ff006007549160081b169061ff0019161760075551611c7490816200069c8239f35b81600052600083528560002033600052835283866000209182541617905533338260008051602062002310833981519152600080a43862000272565b80600052600083528560002033600052835285600020848382541617905533338260008051602062002310833981519152600080a462000219565b80600052600083528560002033600052835285600020848382541617905533338260008051602062002310833981519152600080a4620001c1565b60008052600082528460002033600052825284600020838282541617905533336000600080516020620023108339815191528180a462000168565b01519050388062000127565b90859350601f198316916006600052856000209260005b87828210620003f65750508411620003dc575b505050811b016006556200013c565b015160001960f88460031b161c19169055388080620003cd565b8385015186558997909501949384019301620003ba565b90919293506006600052856000209084808701821c8301938888106200045d575b9187968a93969594929601901c01915b8281106200044d575062000110565b600081558695508891016200043e565b935082936200042e565b634e487b7160e01b600052602260045260246000fd5b90607f1690620000fc565b634e487b7160e01b600052604160045260246000fd5b015190503880620000cd565b90899350601f1983169187600052896000209260005b8b828210620004fb5750508411620004e1575b505050811b018355620000e1565b015160001960f88460031b161c19169055388080620004d3565b8385015186558d97909501949384019301620004c0565b909150856000528760002085808501881c8201928a86106200055c575b918b918695949301891c01915b8281106200054c575050620000b6565b600081558594508b91016200053c565b925081926200052f565b93607f16936200009f565b600080fd5b6040519190601f01601f191682016001600160401b038111838210176200048857604052565b919080601f84011215620005715782516001600160401b0381116200048857602090620005d2601f8201601f1916830162000576565b92818452828287010111620005715760005b818110620005fa57508260009394955001015290565b8581018301518482018401528201620005e4565b919060018301600090828252806020526040822054156000146200069557845494680100000000000000008610156200068157600186018082558610156200066d57836040949596828552602085200155549382526020522055600190565b634e487b7160e01b83526032600452602483fd5b634e487b7160e01b83526041600452602483fd5b5092505056fe608060408181526004918236101561001657600080fd5b600092833560e01c91826301ffc9a714610fa65750816303f24de114610e6f57816306fdde0314610dc0578163095ea7b314610d9657816318160ddd14610d785781631cf2c7e214610cc257816323b872dd14610c85578163248a9ca314610c5b578163282c51f314610c205781632f2ff15d14610b70578163313ce56714610b4b57816336568abe14610ab9578163372500ab14610a3d57816339509351146109ed5781633f4ba83a146108df57816340c10f19146106c757816342966c68146106a95781635c975abb1461068557816370a082311461064d57816379cc67901461061d5781638456cb59146105155781639010d07c146104d457816391d148541461048e57816395d89b4114610391578163a217fddf14610376578163a457c2d7146102ce578163a9059cbb1461029d578163ca15c87314610275578163d53913931461023a578163d547741f146101f857508063dd62ed3e146101b05763e63ab1e91461018557600080fd5b346101ac57816003193601126101ac5760209051600080516020611bdf8339815191528152f35b5080fd5b50346101ac57806003193601126101ac57806020926101cd6110a7565b6101d56110c2565b6001600160a01b0391821683526003865283832091168252845220549051908152f35b91905034610236578060031936011261023657610233913561022e600161021d6110c2565b9383875286602052862001546110d8565b611407565b80f35b8280fd5b5050346101ac57816003193601126101ac57602090517f9f2df0fed2c77648de5860a4cc508cd0818c85b8b8a1ab4ceeef8d981c8956a68152f35b9050346102365760203660031901126102365760209282913581526001845220549051908152f35b5050346101ac57806003193601126101ac576020906102c76102bd6110a7565b60243590336114b1565b5160018152f35b905082346103735782600319360112610373576102e96110a7565b918360243592338152600360205281812060018060a01b0386168252602052205490828210610322576020856102c785850387336116e4565b608490602086519162461bcd60e51b8352820152602560248201527f45524332303a2064656372656173656420616c6c6f77616e63652062656c6f77604482015264207a65726f60d81b6064820152fd5b80fd5b5050346101ac57816003193601126101ac5751908152602090f35b8284346103735780600319360112610373578151918160065492600184811c91818616958615610484575b6020968785108114610471578899509688969785829a52918260001461044a57505060011461040c575b50505061040892916103f991038561103d565b51928284938452830190611082565b0390f35b9190869350600683528383205b82841061043257505050820101816103f96104086103e6565b8054848a018601528895508794909301928101610419565b60ff19168782015293151560051b860190930193508492506103f9915061040890506103e6565b634e487b7160e01b835260228a52602483fd5b92607f16926103bc565b9050346102365781600319360112610236578160209360ff926104af6110c2565b903582528186528282206001600160a01b039091168252855220549151911615158152f35b9050346102365781600319360112610236576020926104ff9135815260018452826024359120611a2d565b905491519160018060a01b039160031b1c168152f35b905034610236578260031936011261023657600080516020611bdf83398151915283528260205281832033845260205260ff8284205416156105cb576007549060ff8216610595575060ff1916600117600755513381527f62e78cea01bee320cd4e420270b5ea74000d11b0c9f74754ebdbfc544b05a25890602090a180f35b606490602084519162461bcd60e51b8352820152601060248201526f14185d5cd8589b194e881c185d5cd95960821b6044820152fd5b6020608492519162461bcd60e51b835282015260396024820152600080516020611c1f833981519152604482015278686176652070617573657220726f6c6520746f20706175736560381b6064820152fd5b5050346101ac57366003190112610373576102336106396110a7565b602435906106488233836117e6565b61187e565b5050346101ac5760203660031901126101ac5760209181906001600160a01b036106756110a7565b1681526002845220549051908152f35b5050346101ac57816003193601126101ac5760209060ff6007541690519015158152f35b8390346101ac5760203660031901126101ac5761023390353361187e565b9050346102365781600319360112610236576106e16110a7565b906024928335917f9f2df0fed2c77648de5860a4cc508cd0818c85b8b8a1ab4ceeef8d981c8956a68652602093868552828720338852855260ff83882054161561088f576001600160a01b031694851561084f57600080516020611bbf8339815191526060845189815288888201528686820152a1865b600581106107f8575060ff600754166107a55750918593918361078b83600080516020611bff833981519152965461148e565b90558585526002835280852082815401905551908152a380f35b602a9085608494519362461bcd60e51b85528401528201527f45524332305061757361626c653a20746f6b656e207472616e736665722077686044820152691a5b19481c185d5cd95960b21b6064820152fd5b303b1561084b57835163372500ab60e01b81528881858183305af161083c575b50600019811461082a57600101610758565b50634e487b7160e01b87526011825286fd5b61084590611013565b38610818565b8780fd5b601f9085606494519362461bcd60e51b85528401528201527f45524332303a206d696e7420746f20746865207a65726f2061646472657373006044820152fd5b5060388585608494519362461bcd60e51b8552840152820152600080516020611c1f8339815191526044820152771a185d99481b5a5b9d195c881c9bdb19481d1bc81b5a5b9d60421b6064820152fd5b905034610236578260031936011261023657600080516020611bdf83398151915283528260205281832033845260205260ff828420541615610997576007549060ff82161561095d575060ff1916600755513381527f5db9ee0a495bf2e6ff9c91a7834c1ba4fdd244a5e8aa4e537bd38aeae4b073aa90602090a180f35b606490602084519162461bcd60e51b8352820152601460248201527314185d5cd8589b194e881b9bdd081c185d5cd95960621b6044820152fd5b6020608492519162461bcd60e51b8352820152603b6024820152600080516020611c1f83398151915260448201527f686176652070617573657220726f6c6520746f20756e706175736500000000006064820152fd5b5050346101ac57806003193601126101ac576102c7602092610a36610a106110a7565b338352600386528483206001600160a01b0382168452865291849020546024359061148e565b90336116e4565b91905034610236578260031936011261023657805191632efe8a5f60e01b8352309083015260646024830152602082604481866108015af1908115610ab05750610a85575080f35b610aa59060203d8111610aa9575b610a9d818361103d565b810190611ba6565b5080f35b503d610a93565b513d84823e3d90fd5b839150346101ac57826003193601126101ac57610ad46110c2565b90336001600160a01b03831603610af057906102339135611407565b608490602085519162461bcd60e51b8352820152602f60248201527f416363657373436f6e74726f6c3a2063616e206f6e6c792072656e6f756e636560448201526e103937b632b9903337b91039b2b63360891b6064820152fd5b5050346101ac57816003193601126101ac5760209060ff60075460081c169051908152f35b91905034610236578060031936011261023657610aa59135906001610b936110c2565b92808652602090868252610bab8385892001546110d8565b80875286825283872094838060a01b031694858852825260ff848820541615610bd9575b8652528320611a45565b8087528682528387208588528252838720805460ff1916841790553385827f2f8788117e7eff1d82e926ec794901d17c78024a50270940304540a733656f0d8a80a4610bcf565b5050346101ac57816003193601126101ac57602090517f3c11d16cbaffd01df69ce1c404f6340ee057498f5f00246190ea54220576a8488152f35b90503461023657602036600319011261023657816020936001923581528085522001549051908152f35b5050346101ac5760603660031901126101ac576020906102c7610ca66110a7565b610cae6110c2565b60443591610cbd8333836117e6565b6114b1565b905034610236578160031936011261023657610cdc6110a7565b917f3c11d16cbaffd01df69ce1c404f6340ee057498f5f00246190ea54220576a84884528360205280842033855260205260ff818520541615610d2657836102336024358561187e565b906020608492519162461bcd60e51b835282015260386024820152600080516020611c1f8339815191526044820152773430bb3290313ab93732b9103937b632903a3790313ab93760411b6064820152fd5b90503461023657826003193601126102365760209250549051908152f35b5050346101ac57806003193601126101ac576020906102c7610db66110a7565b60243590336116e4565b8284346103735780600319360112610373578151918160055492600184811c91818616958615610e65575b6020968785108114610471578899509688969785829a52918260001461044a575050600114610e275750505061040892916103f991038561103d565b9190869350600583528383205b828410610e4d57505050820101816103f96104086103e6565b8054848a018601528895508794909301928101610e34565b92607f1692610deb565b9190503461023657806003193601126102365767ffffffffffffffff908235828111610fa25736602382011215610fa25780840135928311610f8f57815160209390610ec4601f8301601f191686018261103d565b81815286366024848601011161037357858381946024610f0d970183860137830101528351809381926353266bbb60e01b83523089840152606060248401526064830190611082565b60243560448301520381886108005af1908115610f85578591610f68575b5015610f35578380f35b5162461bcd60e51b815291820152600f60248201526e6661696c656420746f207374616b6560881b604482015260649150fd5b610f7f9150833d8511610aa957610a9d818361103d565b38610f2b565b82513d87823e3d90fd5b634e487b7160e01b855260418452602485fd5b8480fd5b849134610236576020366003190112610236573563ffffffff60e01b81168091036102365760209250635a05180f60e01b8114908115610fe8575b5015158152f35b637965db0b60e01b811491508115611002575b5083610fe1565b6301ffc9a760e01b14905083610ffb565b67ffffffffffffffff811161102757604052565b634e487b7160e01b600052604160045260246000fd5b90601f8019910116810190811067ffffffffffffffff82111761102757604052565b60005b8381106110725750506000910152565b8181015183820152602001611062565b9060209161109b8151809281855285808601910161105f565b601f01601f1916010190565b600435906001600160a01b03821682036110bd57565b600080fd5b602435906001600160a01b03821682036110bd57565b600090808252602090828252604092838120338252835260ff8482205416156111015750505050565b83519167ffffffffffffffff903360608501838111868210176113f3578752602a855285850191873684378551156113df57603083538551916001928310156113cb576078602188015360295b838111611361575061131f579087519360808501908582109082111761130b578852604284528684019460603687378451156112f7576030865384518210156112f75790607860218601536041915b8183116112895750505061124757611243938693611227936112186048946111ef9a519a8b9576020b1b1b2b9b9a1b7b73a3937b61d1030b1b1b7bab73a1604d1b8c880152518092603788019061105f565b8401917001034b99036b4b9b9b4b733903937b6329607d1b60378401525180938684019061105f565b0103602881018752018561103d565b5192839262461bcd60e51b845260048401526024830190611082565b0390fd5b60648587519062461bcd60e51b825280600483015260248201527f537472696e67733a20686578206c656e67746820696e73756666696369656e746044820152fd5b909192600f811660108110156112e3576f181899199a1a9b1b9c1cb0b131b232b360811b901a6112b98588611a06565b5360041c9280156112cf5760001901919061119d565b634e487b7160e01b82526011600452602482fd5b634e487b7160e01b83526032600452602483fd5b634e487b7160e01b81526032600452602490fd5b634e487b7160e01b86526041600452602486fd5b60648789519062461bcd60e51b825280600483015260248201527f537472696e67733a20686578206c656e67746820696e73756666696369656e746044820152fd5b90600f811660108110156113b7576f181899199a1a9b1b9c1cb0b131b232b360811b901a61138f838a611a06565b5360041c9080156113a3576000190161114e565b634e487b7160e01b87526011600452602487fd5b634e487b7160e01b88526032600452602488fd5b634e487b7160e01b86526032600452602486fd5b634e487b7160e01b85526032600452602485fd5b634e487b7160e01b85526041600452602485fd5b90604061144492600090808252816020528282209360018060a01b03169384835260205260ff8383205416611447575b8152600160205220611aca565b50565b8082528160205282822084835260205282822060ff1981541690553384827ff6391f5c32d9c69d2a47ea670b442974b53935d1edc7fd64eb21e047a839171b8580a4611437565b9190820180921161149b57565b634e487b7160e01b600052601160045260246000fd5b6001600160a01b03908116918215611691571691821561164057604090815191838352600080516020611bbf833981519152606060209487868201528484820152a160005b600581106115fd575060ff600754166115a75783600052600283528060002054828110611554579082600080516020611bff8339815191529493928660005260028552038160002055856000528060002082815401905551908152a3565b815162461bcd60e51b815260048101859052602660248201527f45524332303a207472616e7366657220616d6f756e7420657863656564732062604482015265616c616e636560d01b6064820152608490fd5b5162461bcd60e51b815260048101839052602a60248201527f45524332305061757361626c653a20746f6b656e207472616e736665722077686044820152691a5b19481c185d5cd95960b21b6064820152608490fd5b303b156110bd57815163372500ab60e01b815260008160048183305af1611631575b50600019811461149b576001016114f6565b61163a90611013565b3861161f565b60405162461bcd60e51b815260206004820152602360248201527f45524332303a207472616e7366657220746f20746865207a65726f206164647260448201526265737360e81b6064820152608490fd5b60405162461bcd60e51b815260206004820152602560248201527f45524332303a207472616e736665722066726f6d20746865207a65726f206164604482015264647265737360d81b6064820152608490fd5b6001600160a01b0390811691821561179557169182156117455760207f8c5be1e5ebec7d5bd14f71427d1e84f3dd0314c0f7b2291e5b200ac8c7c3b925918360005260038252604060002085600052825280604060002055604051908152a3565b60405162461bcd60e51b815260206004820152602260248201527f45524332303a20617070726f766520746f20746865207a65726f206164647265604482015261737360f01b6064820152608490fd5b60405162461bcd60e51b8152602060048201526024808201527f45524332303a20617070726f76652066726f6d20746865207a65726f206164646044820152637265737360e01b6064820152608490fd5b9060018060a01b038083166000526003602052604060002090821660005260205260406000205492600019840361181e575b50505050565b808410611839576118309303916116e4565b38808080611818565b60405162461bcd60e51b815260206004820152601d60248201527f45524332303a20696e73756666696369656e7420616c6c6f77616e63650000006044820152606490fd5b6001600160a01b031680156119b757604091825190828252600093600080516020611bbf833981519152606060209487868201528484820152a1845b6005811061195d575060ff600754166115a757838552600283528085205482811061190e579082600080516020611bff833981519152949392868852600285520381872055816004540360045551908152a3565b815162461bcd60e51b815260048101859052602260248201527f45524332303a206275726e20616d6f756e7420657863656564732062616c616e604482015261636560f01b6064820152608490fd5b303b156119b357815163372500ab60e01b8152868160048183305af16119a4575b506000198114611990576001016118ba565b634e487b7160e01b86526011600452602486fd5b6119ad90611013565b3861197e565b8580fd5b60405162461bcd60e51b815260206004820152602160248201527f45524332303a206275726e2066726f6d20746865207a65726f206164647265736044820152607360f81b6064820152608490fd5b908151811015611a17570160200190565b634e487b7160e01b600052603260045260246000fd5b8054821015611a175760005260206000200190600090565b91906001830160009082825280602052604082205415600014611ac457845494600160401b861015611ab05783611aa0611a89886001604098999a01855584611a2d565b819391549060031b91821b91600019901b19161790565b9055549382526020522055600190565b634e487b7160e01b83526041600452602483fd5b50925050565b90600182019060009281845282602052604084205490811515600014611b9f57600019918083018181116113a357825490848201918211611b8b57808203611b56575b50505080548015611b4257820191611b258383611a2d565b909182549160031b1b191690555582526020526040812055600190565b634e487b7160e01b86526031600452602486fd5b611b76611b66611a899386611a2d565b90549060031b1c92839286611a2d565b90558652846020526040862055388080611b0d565b634e487b7160e01b88526011600452602488fd5b5050505090565b908160209103126110bd575180151581036110bd579056fe6a7461657441bf111caa502b48bec73847d91c1265dc315d914c2d2a6c95fcfe65d7a28e3265b37a6474929f336521b332c1681b933f6cb9f3376673440d862addf252ad1be2c89b69c2b068fc378daa952ba7f163c4a11628f55a4df523b3ef45524332304d696e7465724275726e6572446563696d616c733a206d75737420a2646970667358221220cd45a03fb9d5b22092b051d0d60958182cb40482ea275da8d7b7be30db784bd864736f6c634300081400332f8788117e7eff1d82e926ec794901d17c78024a50270940304540a733656f0d",
  "linkReferences": {},
  "deployedLinkReferences": {}
}