{
  "_format": "hh-sol-artifact-1",
  "contractName": "ERC20RecursiveRevertingPrecompileCall",
  "sourceName": "solidity/ERC20RecursiveRevertingPrecompileCall.sol",
  "abi": [
    {
      "inputs": [
        {
          "internalType": "string",
          "name": "name",
          "type": "string"
        },
        {
          "internalType": "string",
          "name": "symbol",
          "type": "string"
        },
        {
          "internalType": "uint8",
          "name": "decimals_",
          "type": "uint8"
        }
      ],
      "stateMutability": "nonpayable",
      "type": "constructor"
    },
    {
      "anonymous": false,
      "inputs": [
        {
          "indexed": true,
          "internalType": "address",
          "name": "owner",
          "type": "address"
        },
        {
          "indexed": true,
          "internalType": "address",
          "name": "spender",
          "type": "address"
        },
        {
          "indexed": false,
          "internalType": "uint256",
          "name": "value",
          "type": "uint256"
        }
      ],
      "name": "Approval",
      "type": "event"
    },
    {
      "anonymous": false,
      "inputs": [
        {
          "indexed": false,
          "internalType": "address",
          "name": "from",
          "type": "address"
        },
        {
          "indexed": false,
          "internalType": "address",
          "name": "to",
          "type": "address"
        },
        {
          "indexed": false,
          "internalType": "uint256",
          "name": "amount",
          "type": "uint256"
        }
      ],
      "name": "BeforeTokenTransferHookCalled",
      "type": "event"
    },
    {
      "anonymous": false,
      "inputs": [
        {
          "indexed": false,
          "internalType": "address",
          "name": "account",
          "type": "address"
        }
      ],
      "name": "Paused",
      "type": "event"
    },
    {
      "anonymous": false,
      "inputs": [
        {
          "indexed": true,
          "internalType": "bytes32",
          "name": "role",
          "type": "bytes32"
        },
        {
          "indexed": true,
          "internalType": "bytes32",
          "name": "previousAdminRole",
          "type": "bytes32"
        },
        {
          "indexed": true,
          "internalType": "bytes32",
          "name": "newAdminRole",
          "type": "bytes32"
        }
      ],
      "name": "RoleAdminChanged",
      "type": "event"
    },
    {
      "anonymous": false,
      "inputs": [
        {
          "indexed": true,
          "internalType": "bytes32",
          "name": "role",
          "type": "bytes32"
        },
        {
          "indexed": true,
          "internalType": "address",
          "name": "account",
          "type": "address"
        },
        {
          "indexed": true,
          "internalType": "address",
          "name": "sender",
          "type": "address"
        }
      ],
      "name": "RoleGranted",
      "type": "event"
    },
    {
      "anonymous": false,
      "inputs": [
        {
          "indexed": true,
          "internalType": "bytes32",
          "name": "role",
          "type": "bytes32"
        },
        {
          "indexed": true,
          "internalType": "address",
          "name": "account",
          "type": "address"
        },
        {
          "indexed": true,
          "internalType": "address",
          "name": "sender",
          "type": "address"
        }
      ],
      "name": "RoleRevoked",
      "type": "event"
    },
    {
      "anonymous": false,
      "inputs": [
        {
          "indexed": true,
          "internalType": "address",
          "name": "from",
          "type": "address"
        },
        {
          "indexed": true,
          "internalType": "address",
          "name": "to",
          "type": "address"
        },
        {
          "indexed": false,
          "internalType": "uint256",
          "name": "value",
          "type": "uint256"
        }
      ],
      "name": "Transfer",
      "type": "event"
    },
    {
      "anonymous": false,
      "inputs": [
        {
          "indexed": false,
          "internalType": "address",
          "name": "account",
          "type": "address"
        }
      ],
      "name": "Unpaused",
      "type": "event"
    },
    {
      "inputs": [],
      "name": "BURNER_ROLE",
      "outputs": [
        {
          "internalType": "bytes32",
          "name": "",
          "type": "bytes32"
        }
      ],
      "stateMutability": "view",
      "type": "function"
    },
    {
      "inputs": [],
      "name": "DEFAULT_ADMIN_ROLE",
      "outputs": [
        {
          "internalType": "bytes32",
          "name": "",
          "type": "bytes32"
        }
      ],
      "stateMutability": "view",
      "type": "function"
    },
    {
      "inputs": [],
      "name": "MINTER_ROLE",
      "outputs": [
        {
          "internalType": "bytes32",
          "name": "",
          "type": "bytes32"
        }
      ],
      "stateMutability": "view",
      "type": "function"
    },
    {
      "inputs": [],
      "name": "PAUSER_ROLE",
      "outputs": [
        {
          "internalType": "bytes32",
          "name": "",
          "type": "bytes32"
        }
      ],
      "stateMutability": "view",
      "type": "function"
    },
    {
      "inputs": [
        {
          "internalType": "address",
          "name": "owner",
          "type": "address"
        },
        {
          "internalType": "address",
          "name": "spender",
          "type": "address"
        }
      ],
      "name": "allowance",
      "outputs": [
        {
          "internalType": "uint256",
          "name": "",
          "type": "uint256"
        }
      ],
      "stateMutability": "view",
      "type": "function"
    },
    {
      "inputs": [
        {
          "internalType": "address",
          "name": "spender",
          "type": "address"
        },
        {
          "internalType": "uint256",
          "name": "amount",
          "type": "uint256"
        }
      ],
      "name": "approve",
      "outputs": [
        {
          "internalType": "bool",
          "name": "",
          "type": "bool"
        }
      ],
      "stateMutability": "nonpayable",
      "type": "function"
    },
    {
      "inputs": [
        {
          "internalType": "address",
          "name": "account",
          "type": "address"
        }
      ],
      "name": "balanceOf",
      "outputs": [
        {
          "internalType": "uint256",
          "name": "",
          "type": "uint256"
        }
      ],
      "stateMutability": "view",
      "type": "function"
    },
    {
      "inputs": [
        {
          "internalType": "uint256",
          "name": "amount",
          "type": "uint256"
        }
      ],
      "name": "burn",
      "outputs": [],
      "stateMutability": "nonpayable",
      "type": "function"
    },
    {
      "inputs": [
        {
          "internalType": "address",
          "name": "from",
          "type": "address"
        },
        {
          "internalType": "uint256",
          "name": "amount",
          "type": "uint256"
        }
      ],
      "name": "burnCoins",
      "outputs": [],
      "stateMutability": "nonpayable",
      "type": "function"
    },
    {
      "inputs": [
        {
          "internalType": "address",
          "name": "account",
          "type": "address"
        },
        {
          "internalType": "uint256",
          "name": "amount",
          "type": "uint256"
        }
      ],
      "name": "burnFrom",
      "outputs": [],
      "stateMutability": "nonpayable",
      "type": "function"
    },
    {
      "inputs": [],
      "name": "claimRewardsAndRevert",
      "outputs": [],
      "stateMutability": "nonpayable",
      "type": "function"
    },
    {
      "inputs": [],
      "name": "decimals",
      "outputs": [
        {
          "internalType": "uint8",
          "name": "",
          "type": "uint8"
        }
      ],
      "stateMutability": "view",
      "type": "function"
    },
    {
      "inputs": [
        {
          "internalType": "address",
          "name": "spender",
          "type": "address"
        },
        {
          "internalType": "uint256",
          "name": "subtractedValue",
          "type": "uint256"
        }
      ],
      "name": "decreaseAllowance",
      "outputs": [
        {
          "internalType": "bool",
          "name": "",
          "type": "bool"
        }
      ],
      "stateMutability": "nonpayable",
      "type": "function"
    },
    {
      "inputs": [
        {
          "internalType": "address",
          "name": "validatorAddress",
          "type": "address"
        },
        {
          "internalType": "uint256",
          "name": "amount",
          "type": "uint256"
        }
      ],
      "name": "delegate",
      "outputs": [],
      "stateMutability": "nonpayable",
      "type": "function"
    },
    {
      "inputs": [
        {
          "internalType": "bytes32",
          "name": "role",
          "type": "bytes32"
        }
      ],
      "name": "getRoleAdmin",
      "outputs": [
        {
          "internalType": "bytes32",
          "name": "",
          "type": "bytes32"
        }
      ],
      "stateMutability": "view",
      "type": "function"
    },
    {
      "inputs": [
        {
          "internalType": "bytes32",
          "name": "role",
          "type": "bytes32"
        },
        {
          "internalType": "uint256",
          "name": "index",
          "type": "uint256"
        }
      ],
      "name": "getRoleMember",
      "outputs": [
        {
          "internalType": "address",
          "name": "",
          "type": "address"
        }
      ],
      "stateMutability": "view",
      "type": "function"
    },
    {
      "inputs": [
        {
          "internalType": "bytes32",
          "name": "role",
          "type": "bytes32"
        }
      ],
      "name": "getRoleMemberCount",
      "outputs": [
        {
          "internalType": "uint256",
          "name": "",
          "type": "uint256"
        }
      ],
      "stateMutability": "view",
      "type": "function"
    },
    {
      "inputs": [
        {
          "internalType": "bytes32",
          "name": "role",
          "type": "bytes32"
        },
        {
          "internalType": "address",
          "name": "account",
          "type": "address"
        }
      ],
      "name": "grantRole",
      "outputs": [],
      "stateMutability": "nonpayable",
      "type": "function"
    },
    {
      "inputs": [
        {
          "internalType": "bytes32",
          "name": "role",
          "type": "bytes32"
        },
        {
          "internalType": "address",
          "name": "account",
          "type": "address"
        }
      ],
      "name": "hasRole",
      "outputs": [
        {
          "internalType": "bool",
          "name": "",
          "type": "bool"
        }
      ],
      "stateMutability": "view",
      "type": "function"
    },
    {
      "inputs": [
        {
          "internalType": "address",
          "name": "spender",
          "type": "address"
        },
        {
          "internalType": "uint256",
          "name": "addedValue",
          "type": "uint256"
        }
      ],
      "name": "increaseAllowance",
      "outputs": [
        {
          "internalType": "bool",
          "name": "",
          "type": "bool"
        }
      ],
      "stateMutability": "nonpayable",
      "type": "function"
    },
    {
      "inputs": [
        {
          "internalType": "address",
          "name": "to",
          "type": "address"
        },
        {
          "internalType": "uint256",
          "name": "amount",
          "type": "uint256"
        }
      ],
      "name": "mint",
      "outputs": [],
      "stateMutability": "nonpayable",
      "type": "function"
    },
    {
      "inputs": [],
      "name": "name",
      "outputs": [
        {
          "internalType": "string",
          "name": "",
          "type": "string"
        }
      ],
      "stateMutability": "view",
      "type": "function"
    },
    {
      "inputs": [],
      "name": "pause",
      "outputs": [],
      "stateMutability": "nonpayable",
      "type": "function"
    },
    {
      "inputs": [],
      "name": "paused",
      "outputs": [
        {
          "internalType": "bool",
          "name": "",
          "type": "bool"
        }
      ],
      "stateMutability": "view",
      "type": "function"
    },
    {
      "inputs": [
        {
          "internalType": "bytes32",
          "name": "role",
          "type": "bytes32"
        },
        {
          "internalType": "address",
          "name": "account",
          "type": "address"
        }
      ],
      "name": "renounceRole",
      "outputs": [],
      "stateMutability": "nonpayable",
      "type": "function"
    },
    {
      "inputs": [
        {
          "internalType": "bytes32",
          "name": "role",
          "type": "bytes32"
        },
        {
          "internalType": "address",
          "name": "account",
          "type": "address"
        }
      ],
      "name": "revokeRole",
      "outputs": [],
      "stateMutability": "nonpayable",
      "type": "function"
    },
    {
      "inputs": [
        {
          "internalType": "bytes4",
          "name": "interfaceId",
          "type": "bytes4"
        }
      ],
      "name": "supportsInterface",
      "outputs": [
        {
          "internalType": "bool",
          "name": "",
          "type": "bool"
        }
      ],
      "stateMutability": "view",
      "type": "function"
    },
    {
      "inputs": [],
      "name": "symbol",
      "outputs": [
        {
          "internalType": "string",
          "name": "",
          "type": "string"
        }
      ],
      "stateMutability": "view",
      "type": "function"
    },
    {
      "inputs": [],
      "name": "totalSupply",
      "outputs": [
        {
          "internalType": "uint256",
          "name": "",
          "type": "uint256"
        }
      ],
      "stateMutability": "view",
      "type": "function"
    },
    {
      "inputs": [
        {
          "internalType": "address",
          "name": "to",
          "type": "address"
        },
        {
          "internalType": "uint256",
          "name": "amount",
          "type": "uint256"
        }
      ],
      "name": "transfer",
      "outputs": [
        {
          "internalType": "bool",
          "name": "",
          "type": "bool"
        }
      ],
      "stateMutability": "nonpayable",
      "type": "function"
    },
    {
      "inputs": [
        {
          "internalType": "address",
          "name": "from",
          "type": "address"
        },
        {
          "internalType": "address",
          "name": "to",
          "type": "address"
        },
        {
          "internalType": "uint256",
          "name": "amount",
          "type": "uint256"
        }
      ],
      "name": "transferFrom",
      "outputs": [
        {
          "internalType": "bool",
          "name": "",
          "type": "bool"
        }
      ],
      "stateMutability": "nonpayable",
      "type": "function"
    },
    {
      "inputs": [],
      "name": "unpause",
      "outputs": [],
      "stateMutability": "nonpayable",
      "type": "function"
    }
  ],
  "bytecode": "0x60406080815234620005235762002269803803806200001e8162000527565b9283398101606082820312620005235781516001600160401b039190828111620005235781620000509185016200054d565b9160209182850151828111620005235786916200006f9187016200054d565b9401519360ff851685036200052357835182811162000443576005918254916001968784811c9416801562000518575b8785101462000424578190601f94858111620004c7575b50879085831160011462000463575f9262000457575b50505f19600383901b1c191690871b1783555b805193841162000443576006548681811c9116801562000438575b8682101462000424578493838211620003cd575b50508491831160011462000367575f926200035b575b50505f19600383901b1c191690831b176006555b60ff1980600754166007555f80525f8252845f20335f52825260ff855f2054161562000327575b5f80528282526200017333865f20620005bd565b507f9f2df0fed2c77648de5860a4cc508cd0818c85b8b8a1ab4ceeef8d981c8956a6805f525f8352855f20335f52835260ff865f20541615620002f3575b5f52828252620001c433865f20620005bd565b507f65d7a28e3265b37a6474929f336521b332c1681b933f6cb9f3376673440d862a805f525f8352855f20335f52835260ff865f20541615620002bf575b5f528282526200021533865f20620005bd565b507f3c11d16cbaffd01df69ce1c404f6340ee057498f5f00246190ea54220576a84890815f525f8352855f20335f52835260ff865f205416156200028a575b505f52526200026633835f20620005bd565b5061ff006007549160081b169061ff0019161760075551611c009081620006498239f35b815f525f8352855f20335f52835283865f20918254161790553333825f80516020620022498339815191525f80a45f62000254565b805f525f8352855f20335f528352855f2084838254161790553333825f80516020620022498339815191525f80a462000202565b805f525f8352855f20335f528352855f2084838254161790553333825f80516020620022498339815191525f80a4620001b1565b5f80525f8252845f20335f528252845f20838282541617905533335f5f80516020620022498339815191528180a46200015f565b015190505f8062000124565b90859350601f1983169160065f52855f20925f5b87828210620003b657505084116200039d575b505050811b0160065562000138565b01515f1960f88460031b161c191690555f80806200038e565b83850151865589979095019493840193016200037b565b909192935060065f52855f209084808701821c8301938888106200041a575b9187968a93969594929601901c01915b8281106200040b57506200010e565b5f8155869550889101620003fc565b93508293620003ec565b634e487b7160e01b5f52602260045260245ffd5b90607f1690620000fa565b634e487b7160e01b5f52604160045260245ffd5b015190505f80620000cc565b90899350601f19831691875f52895f20925f5b8b828210620004b0575050841162000497575b505050811b018355620000df565b01515f1960f88460031b161c191690555f808062000489565b8385015186558d9790950194938401930162000476565b909150855f52875f2085808501881c8201928a86106200050e575b918b918695949301891c01915b828110620004ff575050620000b6565b5f81558594508b9101620004ef565b92508192620004e2565b93607f16936200009f565b5f80fd5b6040519190601f01601f191682016001600160401b038111838210176200044357604052565b919080601f84011215620005235782516001600160401b038111620004435760209062000583601f8201601f1916830162000527565b9281845282828701011162000523575f5b818110620005a95750825f9394955001015290565b858101830151848201840152820162000594565b9190600183015f90828252806020526040822054155f146200064257845494680100000000000000008610156200062e57600186018082558610156200061a57836040949596828552602085200155549382526020522055600190565b634e487b7160e01b83526032600452602483fd5b634e487b7160e01b83526041600452602483fd5b5092505056fe6080604081815260049182361015610015575f80fd5b5f92833560e01c91826301ffc9a714610efe57508163026e402b14610e2957816306fdde0314610d88578163095ea7b314610d5e57816318160ddd14610d405781631cf2c7e214610c8b57816323b872dd14610c4e578163248a9ca314610c24578163282c51f314610be95781632c0503d414610b715781632f2ff15d14610abd578163313ce56714610a9857816336568abe14610a0657816339509351146109b65781633f4ba83a146108aa57816340c10f19146106a957816342966c681461068b5781635c975abb1461066757816370a082311461062f57816379cc6790146105ff5781638456cb59146104f95781639010d07c146104b857816391d148541461047257816395d89b411461038d578163a217fddf14610372578163a457c2d7146102ca578163a9059cbb14610299578163ca15c87314610271578163d539139314610236578163d547741f146101f457508063dd62ed3e146101ac5763e63ab1e914610182575f80fd5b346101a857816003193601126101a857602090515f80516020611b4b8339815191528152f35b5080fd5b50346101a857806003193601126101a857806020926101c9610f6b565b6101d1610f85565b6001600160a01b0391821683526003865283832091168252845220549051908152f35b9190503461023257806003193601126102325761022f913561022a6001610219610f85565b938387528660205286200154610fe8565b611357565b80f35b8280fd5b5050346101a857816003193601126101a857602090517f9f2df0fed2c77648de5860a4cc508cd0818c85b8b8a1ab4ceeef8d981c8956a68152f35b9050346102325760203660031901126102325760209282913581526001845220549051908152f35b5050346101a857806003193601126101a8576020906102c36102b9610f6b565b60243590336113fe565b5160018152f35b9050823461036f578260031936011261036f576102e5610f6b565b918360243592338152600360205281812060018060a01b038616825260205220549082821061031e576020856102c38585038733611625565b608490602086519162461bcd60e51b8352820152602560248201527f45524332303a2064656372656173656420616c6c6f77616e63652062656c6f77604482015264207a65726f60d81b6064820152fd5b80fd5b5050346101a857816003193601126101a85751908152602090f35b91905034610232578260031936011261023257805191836006549060019082821c928281168015610468575b6020958686108214610455575084885290811561043357506001146103f8575b6103f486866103ea828b0383611335565b5191829182610fbc565b0390f35b929550600683528583205b82841061042057505050826103f4946103ea92820101945f6103d9565b8054868501880152928601928101610403565b60ff191687860152505050151560051b83010192506103ea826103f45f6103d9565b634e487b7160e01b845260229052602483fd5b93607f16936103b9565b9050346102325781600319360112610232578160209360ff92610493610f85565b903582528186528282206001600160a01b039091168252855220549151911615158152f35b9050346102325781600319360112610232576020926104e391358152600184528260243591206119a2565b905491519160018060a01b039160031b1c168152f35b9050346102325782600319360112610232575f80516020611b4b83398151915283528260205281832033845260205260ff8284205416156105ae576007549060ff8216610578575060ff1916600117600755513381527f62e78cea01bee320cd4e420270b5ea74000d11b0c9f74754ebdbfc544b05a25890602090a180f35b606490602084519162461bcd60e51b8352820152601060248201526f14185d5cd8589b194e881c185d5cd95960821b6044820152fd5b6020608492519162461bcd60e51b8352820152603960248201525f80516020611b8b833981519152604482015278686176652070617573657220726f6c6520746f20706175736560381b6064820152fd5b5050346101a85736600319011261036f5761022f61061b610f6b565b6024359061062a823383611723565b6117b6565b5050346101a85760203660031901126101a85760209181906001600160a01b03610657610f6b565b1681526002845220549051908152f35b5050346101a857816003193601126101a85760209060ff6007541690519015158152f35b8390346101a85760203660031901126101a85761022f9035336117b6565b9050346102325781600319360112610232576106c3610f6b565b906024928335917f9f2df0fed2c77648de5860a4cc508cd0818c85b8b8a1ab4ceeef8d981c8956a68652602093868552828720338852855260ff83882054161561085b576001600160a01b031694851561081b575f80516020611b2b8339815191526060845189815288888201528686820152a1865b600581106107c5575060ff600754166107855750918593918361076b835f80516020611b6b83398151915296546113dd565b90558585526002835280852082815401905551908152a380f35b602a9085608494519362461bcd60e51b85528401528201525f80516020611bab8339815191526044820152691a5b19481c185d5cd95960b21b6064820152fd5b303b15610817578351630b0140f560e21b81528881858183305af1610808575b505f1981146107f657600101610739565b50634e487b7160e01b87526011825286fd5b6108119061130d565b5f6107e5565b8780fd5b601f9085606494519362461bcd60e51b85528401528201527f45524332303a206d696e7420746f20746865207a65726f2061646472657373006044820152fd5b5060388585608494519362461bcd60e51b85528401528201525f80516020611b8b8339815191526044820152771a185d99481b5a5b9d195c881c9bdb19481d1bc81b5a5b9d60421b6064820152fd5b9050346102325782600319360112610232575f80516020611b4b83398151915283528260205281832033845260205260ff828420541615610961576007549060ff821615610927575060ff1916600755513381527f5db9ee0a495bf2e6ff9c91a7834c1ba4fdd244a5e8aa4e537bd38aeae4b073aa90602090a180f35b606490602084519162461bcd60e51b8352820152601460248201527314185d5cd8589b194e881b9bdd081c185d5cd95960621b6044820152fd5b6020608492519162461bcd60e51b8352820152603b60248201525f80516020611b8b83398151915260448201527f686176652070617573657220726f6c6520746f20756e706175736500000000006064820152fd5b5050346101a857806003193601126101a8576102c36020926109ff6109d9610f6b565b338352600386528483206001600160a01b038216845286529184902054602435906113dd565b9033611625565b839150346101a857826003193601126101a857610a21610f85565b90336001600160a01b03831603610a3d579061022f9135611357565b608490602085519162461bcd60e51b8352820152602f60248201527f416363657373436f6e74726f6c3a2063616e206f6e6c792072656e6f756e636560448201526e103937b632b9903337b91039b2b63360891b6064820152fd5b5050346101a857816003193601126101a85760209060ff60075460081c169051908152f35b91905034610232578060031936011261023257610b269135906001610ae0610f85565b92808652602090868252610af8838589200154610fe8565b80875286825283872094838060a01b031694858852825260ff848820541615610b2a575b86525283206119b7565b5080f35b8087528682528387208588528252838720805460ff1916841790553385827f2f8788117e7eff1d82e926ec794901d17c78024a50270940304540a733656f0d8a80a4610b1c565b91905034610232578260031936011261023257805191632efe8a5f60e01b8352309083015260646024830152602082604481866108015af1908115610be05750610bb9575080fd5b6101a89060203d8111610bd9575b610bd18183611335565b810190611b12565b503d610bc7565b513d84823e3d90fd5b5050346101a857816003193601126101a857602090517f3c11d16cbaffd01df69ce1c404f6340ee057498f5f00246190ea54220576a8488152f35b90503461023257602036600319011261023257816020936001923581528085522001549051908152f35b5050346101a85760603660031901126101a8576020906102c3610c6f610f6b565b610c77610f85565b60443591610c86833383611723565b6113fe565b905034610232578160031936011261023257610ca5610f6b565b917f3c11d16cbaffd01df69ce1c404f6340ee057498f5f00246190ea54220576a84884528360205280842033855260205260ff818520541615610cef578361022f602435856117b6565b906020608492519162461bcd60e51b8352820152603860248201525f80516020611b8b8339815191526044820152773430bb3290313ab93732b9103937b632903a3790313ab93760411b6064820152fd5b90503461023257826003193601126102325760209250549051908152f35b5050346101a857806003193601126101a8576020906102c3610d7e610f6b565b6024359033611625565b91905034610232578260031936011261023257805191836005549060019082821c928281168015610e1f575b602095868610821461045557508488529081156104335750600114610de4576103f486866103ea828b0383611335565b929550600583528583205b828410610e0c57505050826103f4946103ea92820101945f6103d9565b8054868501880152928601928101610def565b93607f1693610db4565b91905034610232578060031936011261023257610e816020610e49610f6b565b835163c26f3acf60e01b8152308682019081526001600160a01b03909216602083015260243560408301529283918291606090910190565b0381876108005af1908115610ef4578491610ed6575b5015610ea1578280f35b906020606492519162461bcd60e51b8352820152600f60248201526e6661696c656420746f207374616b6560881b6044820152fd5b610eee915060203d8111610bd957610bd18183611335565b5f610e97565b82513d86823e3d90fd5b849134610232576020366003190112610232573563ffffffff60e01b81168091036102325760209250635a05180f60e01b8114908115610f40575b5015158152f35b637965db0b60e01b811491508115610f5a575b5083610f39565b6301ffc9a760e01b14905083610f53565b600435906001600160a01b0382168203610f8157565b5f80fd5b602435906001600160a01b0382168203610f8157565b5f5b838110610fac5750505f910152565b8181015183820152602001610f9d565b60409160208252610fdc8151809281602086015260208686019101610f9b565b601f01601f1916010190565b5f818152602090808252604092838220338352835260ff84832054161561100f5750505050565b835167ffffffffffffffff91903360608201848111838210176112f9578752602a825285820192873685378251156112e557603084538251916001928310156112d1576078602185015360295b83811161126857506112265790875194608086019086821090821117611212578852604285528685019560603688378551156111fe576030875385518210156111fe5790607860218701536041915b8183116111915750505061114f57938593611135936111266048946110fd76020b1b1b2b9b9a1b7b73a3937b61d1030b1b1b7bab73a1604d1b9961114b9b519a8b978801525180926037880190610f9b565b8401917001034b99036b4b9b9b4b733903937b6329607d1b603784015251809386840190610f9b565b01036028810185520183611335565b5162461bcd60e51b815291829160048301610fbc565b0390fd5b60648587519062461bcd60e51b825280600483015260248201527f537472696e67733a20686578206c656e67746820696e73756666696369656e746044820152fd5b909192600f811660108110156111ea576f181899199a1a9b1b9c1cb0b131b232b360811b901a6111c1858961197d565b5360041c9280156111d6575f190191906110ab565b634e487b7160e01b82526011600452602482fd5b634e487b7160e01b83526032600452602483fd5b634e487b7160e01b81526032600452602490fd5b634e487b7160e01b87526041600452602487fd5b60648789519062461bcd60e51b825280600483015260248201527f537472696e67733a20686578206c656e67746820696e73756666696369656e746044820152fd5b90600f811660108110156112bd576f181899199a1a9b1b9c1cb0b131b232b360811b901a611296838761197d565b5360041c9080156112a9575f190161105c565b634e487b7160e01b88526011600452602488fd5b634e487b7160e01b89526032600452602489fd5b634e487b7160e01b87526032600452602487fd5b634e487b7160e01b86526032600452602486fd5b634e487b7160e01b86526041600452602486fd5b67ffffffffffffffff811161132157604052565b634e487b7160e01b5f52604160045260245ffd5b90601f8019910116810190811067ffffffffffffffff82111761132157604052565b906040611393925f90808252816020528282209360018060a01b03169384835260205260ff8383205416611396575b8152600160205220611a39565b50565b8082528160205282822084835260205282822060ff1981541690553384827ff6391f5c32d9c69d2a47ea670b442974b53935d1edc7fd64eb21e047a839171b8580a4611386565b919082018092116113ea57565b634e487b7160e01b5f52601160045260245ffd5b90916001600160a01b03808316929083156115d257841693841561158157604080516001600160a01b0393841681529190921660208201528082018390525f80516020611b2b83398151915290606090a15f5b60058110611540575060ff600754166114fd57825f526002602052805f20548281106114aa5791602091815f80516020611b6b83398151915294865f526002855203815f2055855f52805f2082815401905551908152a3565b815162461bcd60e51b815260206004820152602660248201527f45524332303a207472616e7366657220616d6f756e7420657863656564732062604482015265616c616e636560d01b6064820152608490fd5b5162461bcd60e51b815260206004820152602a60248201525f80516020611bab8339815191526044820152691a5b19481c185d5cd95960b21b6064820152608490fd5b303b15610f81578151630b0140f560e21b81525f8160048183305af1611572575b505f1981146113ea57600101611451565b61157b9061130d565b5f611561565b60405162461bcd60e51b815260206004820152602360248201527f45524332303a207472616e7366657220746f20746865207a65726f206164647260448201526265737360e81b6064820152608490fd5b60405162461bcd60e51b815260206004820152602560248201527f45524332303a207472616e736665722066726f6d20746865207a65726f206164604482015264647265737360d81b6064820152608490fd5b6001600160a01b039081169182156116d257169182156116825760207f8c5be1e5ebec7d5bd14f71427d1e84f3dd0314c0f7b2291e5b200ac8c7c3b92591835f526003825260405f20855f5282528060405f2055604051908152a3565b60405162461bcd60e51b815260206004820152602260248201527f45524332303a20617070726f766520746f20746865207a65726f206164647265604482015261737360f01b6064820152608490fd5b60405162461bcd60e51b8152602060048201526024808201527f45524332303a20617070726f76652066726f6d20746865207a65726f206164646044820152637265737360e01b6064820152608490fd5b9060018060a01b038083165f52600360205260405f209082165f5260205260405f2054925f198403611756575b50505050565b80841061177157611768930391611625565b5f808080611750565b60405162461bcd60e51b815260206004820152601d60248201527f45524332303a20696e73756666696369656e7420616c6c6f77616e63650000006044820152606490fd5b6001600160a01b0316801561192e576040918251908282525f935f80516020611b2b833981519152606060209487868201528484820152a1845b600581106118d5575060ff600754166118925783855260028352808520548281106118435790825f80516020611b6b833981519152949392868852600285520381872055816004540360045551908152a3565b815162461bcd60e51b815260048101859052602260248201527f45524332303a206275726e20616d6f756e7420657863656564732062616c616e604482015261636560f01b6064820152608490fd5b5162461bcd60e51b815260048101839052602a60248201525f80516020611bab8339815191526044820152691a5b19481c185d5cd95960b21b6064820152608490fd5b303b1561192a578151630b0140f560e21b8152868160048183305af161191b575b505f198114611907576001016117f0565b634e487b7160e01b86526011600452602486fd5b6119249061130d565b5f6118f6565b8580fd5b60405162461bcd60e51b815260206004820152602160248201527f45524332303a206275726e2066726f6d20746865207a65726f206164647265736044820152607360f81b6064820152608490fd5b90815181101561198e570160200190565b634e487b7160e01b5f52603260045260245ffd5b805482101561198e575f5260205f2001905f90565b9190600183015f90828252806020526040822054155f14611a3357845494600160401b861015611a1f5783611a0f6119f9886001604098999a018555846119a2565b819391549060031b91821b915f19901b19161790565b9055549382526020522055600190565b634e487b7160e01b83526041600452602483fd5b50925050565b9060018201905f92818452826020526040842054908115155f14611b0b575f1991808301818111611af7578254908482019182116112a957808203611ac2575b50505080548015611aae57820191611a9183836119a2565b909182549160031b1b191690555582526020526040812055600190565b634e487b7160e01b86526031600452602486fd5b611ae2611ad26119f993866119a2565b90549060031b1c928392866119a2565b905586528460205260408620555f8080611a79565b634e487b7160e01b87526011600452602487fd5b5050505090565b90816020910312610f8157518015158103610f81579056fe6a7461657441bf111caa502b48bec73847d91c1265dc315d914c2d2a6c95fcfe65d7a28e3265b37a6474929f336521b332c1681b933f6cb9f3376673440d862addf252ad1be2c89b69c2b068fc378daa952ba7f163c4a11628f55a4df523b3ef45524332304d696e7465724275726e6572446563696d616c733a206d7573742045524332305061757361626c653a20746f6b656e207472616e73666572207768a264697066735822122003c251b2b5656278e0136bf34e53fc386f07908ea3740206a5843711cb883ec264736f6c634300081400332f8788117e7eff1d82e926ec794901d17c78024a50270940304540a733656f0d",
  "linkReferences": {},
  "deployedLinkReferences": {}
}