{
  "_format": "hh3-artifact-1",
  "contractName": "ERC20WithNativeTransfers",
  "sourceName": "solidity/ERC20WithNativeTransfers.sol",
  "abi": [
    {
      "inputs": [
        {
          "internalType": "string",
          "name": "name",
          "type": "string"
        },
        {
          "internalType": "string",
          "name": "symbol",
          "type": "string"
        },
        {
          "internalType": "uint8",
          "name": "decimals_",
          "type": "uint8"
        }
      ],
      "stateMutability": "nonpayable",
      "type": "constructor"
    },
    {
      "inputs": [],
      "name": "AccessControlBadConfirmation",
      "type": "error"
    },
    {
      "inputs": [
        {
          "internalType": "address",
          "name": "account",
          "type": "address"
        },
        {
          "internalType": "bytes32",
          "name": "neededRole",
          "type": "bytes32"
        }
      ],
      "name": "AccessControlUnauthorizedAccount",
      "type": "error"
    },
    {
      "inputs": [
        {
          "internalType": "address",
          "name": "spender",
          "type": "address"
        },
        {
          "internalType": "uint256",
          "name": "allowance",
          "type": "uint256"
        },
        {
          "internalType": "uint256",
          "name": "needed",
          "type": "uint256"
        }
      ],
      "name": "ERC20InsufficientAllowance",
      "type": "error"
    },
    {
      "inputs": [
        {
          "internalType": "address",
          "name": "sender",
          "type": "address"
        },
        {
          "internalType": "uint256",
          "name": "balance",
          "type": "uint256"
        },
        {
          "internalType": "uint256",
          "name": "needed",
          "type": "uint256"
        }
      ],
      "name": "ERC20InsufficientBalance",
      "type": "error"
    },
    {
      "inputs": [
        {
          "internalType": "address",
          "name": "approver",
          "type": "address"
        }
      ],
      "name": "ERC20InvalidApprover",
      "type": "error"
    },
    {
      "inputs": [
        {
          "internalType": "address",
          "name": "receiver",
          "type": "address"
        }
      ],
      "name": "ERC20InvalidReceiver",
      "type": "error"
    },
    {
      "inputs": [
        {
          "internalType": "address",
          "name": "sender",
          "type": "address"
        }
      ],
      "name": "ERC20InvalidSender",
      "type": "error"
    },
    {
      "inputs": [
        {
          "internalType": "address",
          "name": "spender",
          "type": "address"
        }
      ],
      "name": "ERC20InvalidSpender",
      "type": "error"
    },
    {
      "anonymous": false,
      "inputs": [
        {
          "indexed": true,
          "internalType": "address",
          "name": "owner",
          "type": "address"
        },
        {
          "indexed": true,
          "internalType": "address",
          "name": "spender",
          "type": "address"
        },
        {
          "indexed": false,
          "internalType": "uint256",
          "name": "value",
          "type": "uint256"
        }
      ],
      "name": "Approval",
      "type": "event"
    },
    {
      "anonymous": false,
      "inputs": [
        {
          "indexed": false,
          "internalType": "address",
          "name": "from",
          "type": "address"
        },
        {
          "indexed": false,
          "internalType": "address",
          "name": "to",
          "type": "address"
        },
        {
          "indexed": false,
          "internalType": "uint256",
          "name": "amount",
          "type": "uint256"
        }
      ],
      "name": "BeforeTransferHookTriggered",
      "type": "event"
    },
    {
      "anonymous": false,
      "inputs": [
        {
          "indexed": false,
          "internalType": "uint256",
          "name": "available",
          "type": "uint256"
        },
        {
          "indexed": false,
          "internalType": "uint256",
          "name": "needed",
          "type": "uint256"
        }
      ],
      "name": "ContractBalanceCheck",
      "type": "event"
    },
    {
      "anonymous": false,
      "inputs": [
        {
          "indexed": false,
          "internalType": "uint256",
          "name": "amount",
          "type": "uint256"
        }
      ],
      "name": "DelegateCompleted",
      "type": "event"
    },
    {
      "anonymous": false,
      "inputs": [
        {
          "indexed": false,
          "internalType": "address",
          "name": "recipient",
          "type": "address"
        },
        {
          "indexed": false,
          "internalType": "uint256",
          "name": "amount",
          "type": "uint256"
        },
        {
          "indexed": false,
          "internalType": "uint256",
          "name": "step",
          "type": "uint256"
        }
      ],
      "name": "NativeTransferCompleted",
      "type": "event"
    },
    {
      "anonymous": false,
      "inputs": [
        {
          "indexed": true,
          "internalType": "bytes32",
          "name": "role",
          "type": "bytes32"
        },
        {
          "indexed": true,
          "internalType": "bytes32",
          "name": "previousAdminRole",
          "type": "bytes32"
        },
        {
          "indexed": true,
          "internalType": "bytes32",
          "name": "newAdminRole",
          "type": "bytes32"
        }
      ],
      "name": "RoleAdminChanged",
      "type": "event"
    },
    {
      "anonymous": false,
      "inputs": [
        {
          "indexed": true,
          "internalType": "bytes32",
          "name": "role",
          "type": "bytes32"
        },
        {
          "indexed": true,
          "internalType": "address",
          "name": "account",
          "type": "address"
        },
        {
          "indexed": true,
          "internalType": "address",
          "name": "sender",
          "type": "address"
        }
      ],
      "name": "RoleGranted",
      "type": "event"
    },
    {
      "anonymous": false,
      "inputs": [
        {
          "indexed": true,
          "internalType": "bytes32",
          "name": "role",
          "type": "bytes32"
        },
        {
          "indexed": true,
          "internalType": "address",
          "name": "account",
          "type": "address"
        },
        {
          "indexed": true,
          "internalType": "address",
          "name": "sender",
          "type": "address"
        }
      ],
      "name": "RoleRevoked",
      "type": "event"
    },
    {
      "anonymous": false,
      "inputs": [
        {
          "indexed": true,
          "internalType": "address",
          "name": "from",
          "type": "address"
        },
        {
          "indexed": true,
          "internalType": "address",
          "name": "to",
          "type": "address"
        },
        {
          "indexed": false,
          "internalType": "uint256",
          "name": "value",
          "type": "uint256"
        }
      ],
      "name": "Transfer",
      "type": "event"
    },
    {
      "inputs": [],
      "name": "DEFAULT_ADMIN_ROLE",
      "outputs": [
        {
          "internalType": "bytes32",
          "name": "",
          "type": "bytes32"
        }
      ],
      "stateMutability": "view",
      "type": "function"
    },
    {
      "inputs": [],
      "name": "MINTER_ROLE",
      "outputs": [
        {
          "internalType": "bytes32",
          "name": "",
          "type": "bytes32"
        }
      ],
      "stateMutability": "view",
      "type": "function"
    },
    {
      "inputs": [
        {
          "internalType": "address",
          "name": "owner",
          "type": "address"
        },
        {
          "internalType": "address",
          "name": "spender",
          "type": "address"
        }
      ],
      "name": "allowance",
      "outputs": [
        {
          "internalType": "uint256",
          "name": "",
          "type": "uint256"
        }
      ],
      "stateMutability": "view",
      "type": "function"
    },
    {
      "inputs": [
        {
          "internalType": "address",
          "name": "spender",
          "type": "address"
        },
        {
          "internalType": "uint256",
          "name": "value",
          "type": "uint256"
        }
      ],
      "name": "approve",
      "outputs": [
        {
          "internalType": "bool",
          "name": "",
          "type": "bool"
        }
      ],
      "stateMutability": "nonpayable",
      "type": "function"
    },
    {
      "inputs": [
        {
          "internalType": "address",
          "name": "account",
          "type": "address"
        }
      ],
      "name": "balanceOf",
      "outputs": [
        {
          "internalType": "uint256",
          "name": "",
          "type": "uint256"
        }
      ],
      "stateMutability": "view",
      "type": "function"
    },
    {
      "inputs": [
        {
          "internalType": "uint256",
          "name": "value",
          "type": "uint256"
        }
      ],
      "name": "burn",
      "outputs": [],
      "stateMutability": "nonpayable",
      "type": "function"
    },
    {
      "inputs": [
        {
          "internalType": "address",
          "name": "account",
          "type": "address"
        },
        {
          "internalType": "uint256",
          "name": "value",
          "type": "uint256"
        }
      ],
      "name": "burnFrom",
      "outputs": [],
      "stateMutability": "nonpayable",
      "type": "function"
    },
    {
      "inputs": [
        {
          "internalType": "address",
          "name": "_recipient1",
          "type": "address"
        },
        {
          "internalType": "address",
          "name": "_recipient2",
          "type": "address"
        },
        {
          "internalType": "uint256",
          "name": "_transferAmount",
          "type": "uint256"
        },
        {
          "internalType": "string",
          "name": "_validatorAddr",
          "type": "string"
        },
        {
          "internalType": "uint256",
          "name": "_delegateAmount",
          "type": "uint256"
        },
        {
          "internalType": "bool",
          "name": "_enableHook",
          "type": "bool"
        }
      ],
      "name": "configureHook",
      "outputs": [],
      "stateMutability": "nonpayable",
      "type": "function"
    },
    {
      "inputs": [],
      "name": "decimals",
      "outputs": [
        {
          "internalType": "uint8",
          "name": "",
          "type": "uint8"
        }
      ],
      "stateMutability": "view",
      "type": "function"
    },
    {
      "inputs": [],
      "name": "delegateAmount",
      "outputs": [
        {
          "internalType": "uint256",
          "name": "",
          "type": "uint256"
        }
      ],
      "stateMutability": "view",
      "type": "function"
    },
    {
      "inputs": [],
      "name": "enableHook",
      "outputs": [
        {
          "internalType": "bool",
          "name": "",
          "type": "bool"
        }
      ],
      "stateMutability": "view",
      "type": "function"
    },
    {
      "inputs": [
        {
          "internalType": "bytes32",
          "name": "role",
          "type": "bytes32"
        }
      ],
      "name": "getRoleAdmin",
      "outputs": [
        {
          "internalType": "bytes32",
          "name": "",
          "type": "bytes32"
        }
      ],
      "stateMutability": "view",
      "type": "function"
    },
    {
      "inputs": [
        {
          "internalType": "bytes32",
          "name": "role",
          "type": "bytes32"
        },
        {
          "internalType": "uint256",
          "name": "index",
          "type": "uint256"
        }
      ],
      "name": "getRoleMember",
      "outputs": [
        {
          "internalType": "address",
          "name": "",
          "type": "address"
        }
      ],
      "stateMutability": "view",
      "type": "function"
    },
    {
      "inputs": [
        {
          "internalType": "bytes32",
          "name": "role",
          "type": "bytes32"
        }
      ],
      "name": "getRoleMemberCount",
      "outputs": [
        {
          "internalType": "uint256",
          "name": "",
          "type": "uint256"
        }
      ],
      "stateMutability": "view",
      "type": "function"
    },
    {
      "inputs": [
        {
          "internalType": "bytes32",
          "name": "role",
          "type": "bytes32"
        }
      ],
      "name": "getRoleMembers",
      "outputs": [
        {
          "internalType": "address[]",
          "name": "",
          "type": "address[]"
        }
      ],
      "stateMutability": "view",
      "type": "function"
    },
    {
      "inputs": [
        {
          "internalType": "bytes32",
          "name": "role",
          "type": "bytes32"
        },
        {
          "internalType": "address",
          "name": "account",
          "type": "address"
        }
      ],
      "name": "grantRole",
      "outputs": [],
      "stateMutability": "nonpayable",
      "type": "function"
    },
    {
      "inputs": [
        {
          "internalType": "bytes32",
          "name": "role",
          "type": "bytes32"
        },
        {
          "internalType": "address",
          "name": "account",
          "type": "address"
        }
      ],
      "name": "hasRole",
      "outputs": [
        {
          "internalType": "bool",
          "name": "",
          "type": "bool"
        }
      ],
      "stateMutability": "view",
      "type": "function"
    },
    {
      "inputs": [
        {
          "internalType": "address",
          "name": "to",
          "type": "address"
        },
        {
          "internalType": "uint256",
          "name": "amount",
          "type": "uint256"
        }
      ],
      "name": "mint",
      "outputs": [],
      "stateMutability": "nonpayable",
      "type": "function"
    },
    {
      "inputs": [],
      "name": "name",
      "outputs": [
        {
          "internalType": "string",
          "name": "",
          "type": "string"
        }
      ],
      "stateMutability": "view",
      "type": "function"
    },
    {
      "inputs": [],
      "name": "recipient1",
      "outputs": [
        {
          "internalType": "address",
          "name": "",
          "type": "address"
        }
      ],
      "stateMutability": "view",
      "type": "function"
    },
    {
      "inputs": [],
      "name": "recipient2",
      "outputs": [
        {
          "internalType": "address",
          "name": "",
          "type": "address"
        }
      ],
      "stateMutability": "view",
      "type": "function"
    },
    {
      "inputs": [
        {
          "internalType": "bytes32",
          "name": "role",
          "type": "bytes32"
        },
        {
          "internalType": "address",
          "name": "callerConfirmation",
          "type": "address"
        }
      ],
      "name": "renounceRole",
      "outputs": [],
      "stateMutability": "nonpayable",
      "type": "function"
    },
    {
      "inputs": [
        {
          "internalType": "bytes32",
          "name": "role",
          "type": "bytes32"
        },
        {
          "internalType": "address",
          "name": "account",
          "type": "address"
        }
      ],
      "name": "revokeRole",
      "outputs": [],
      "stateMutability": "nonpayable",
      "type": "function"
    },
    {
      "inputs": [
        {
          "internalType": "bytes4",
          "name": "interfaceId",
          "type": "bytes4"
        }
      ],
      "name": "supportsInterface",
      "outputs": [
        {
          "internalType": "bool",
          "name": "",
          "type": "bool"
        }
      ],
      "stateMutability": "view",
      "type": "function"
    },
    {
      "inputs": [],
      "name": "symbol",
      "outputs": [
        {
          "internalType": "string",
          "name": "",
          "type": "string"
        }
      ],
      "stateMutability": "view",
      "type": "function"
    },
    {
      "inputs": [],
      "name": "totalSupply",
      "outputs": [
        {
          "internalType": "uint256",
          "name": "",
          "type": "uint256"
        }
      ],
      "stateMutability": "view",
      "type": "function"
    },
    {
      "inputs": [
        {
          "internalType": "address",
          "name": "to",
          "type": "address"
        },
        {
          "internalType": "uint256",
          "name": "value",
          "type": "uint256"
        }
      ],
      "name": "transfer",
      "outputs": [
        {
          "internalType": "bool",
          "name": "",
          "type": "bool"
        }
      ],
      "stateMutability": "nonpayable",
      "type": "function"
    },
    {
      "inputs": [],
      "name": "transferAmount",
      "outputs": [
        {
          "internalType": "uint256",
          "name": "",
          "type": "uint256"
        }
      ],
      "stateMutability": "view",
      "type": "function"
    },
    {
      "inputs": [
        {
          "internalType": "address",
          "name": "from",
          "type": "address"
        },
        {
          "internalType": "address",
          "name": "to",
          "type": "address"
        },
        {
          "internalType": "uint256",
          "name": "value",
          "type": "uint256"
        }
      ],
      "name": "transferFrom",
      "outputs": [
        {
          "internalType": "bool",
          "name": "",
          "type": "bool"
        }
      ],
      "stateMutability": "nonpayable",
      "type": "function"
    },
    {
      "inputs": [],
      "name": "validatorAddr",
      "outputs": [
        {
          "internalType": "string",
          "name": "",
          "type": "string"
        }
      ],
      "stateMutability": "view",
      "type": "function"
    },
    {
      "stateMutability": "payable",
      "type": "receive"
    }
  ],
  "bytecode": "0x6080604052346103ac5761230780380380610019816103b0565b9283398101906060818303126103ac5780516001600160401b0381116103ac57826100459183016103d5565b60208201519092906001600160401b0381116103ac576040916100699184016103d5565b91015160ff81168091036103ac5782516001600160401b0381116102da57600554600181811c911680156103a2575b60208210146102bc57601f811161035c575b506020601f82116001146102f957819293945f926102ee575b50508160011b915f199060031b1c1916176005555b81516001600160401b0381116102da57600654600181811c911680156102d0575b60208210146102bc57601f8111610259575b50602092601f82116001146101f857928192935f926101ed575b50508160011b915f199060031b1c1916176006555b61014333610426565b6101b5575b6101513361049c565b610170575b60ff196007541617600755604051611cfa908161058d8239f35b5f5160206122c75f395f51905f525f5260016020526101af337f64e21244e91af723e1b962171ed4828dcecc0d7b89872e516a5db8266da8000061051c565b50610156565b5f805260016020526101e7337fa6eef7e35abe7026729641147f7915573c7e97b47efa546f5f6e3230263bcb4961051c565b50610148565b015190505f80610125565b601f1982169360065f52805f20915f5b8681106102415750836001959610610229575b505050811b0160065561013a565b01515f1960f88460031b161c191690555f808061021b565b91926020600181928685015181550194019201610208565b60065f527ff652222313e28459528d920b65115c16c04f3efc82aaedc97be59f3f377c0d3f601f830160051c810191602084106102b2575b601f0160051c01905b8181106102a7575061010b565b5f815560010161029a565b9091508190610291565b634e487b7160e01b5f52602260045260245ffd5b90607f16906100f9565b634e487b7160e01b5f52604160045260245ffd5b015190505f806100c3565b601f1982169060055f52805f20915f5b8181106103445750958360019596971061032c575b505050811b016005556100d8565b01515f1960f88460031b161c191690555f808061031e565b9192602060018192868b015181550194019201610309565b60055f5260205f20601f830160051c81019160208410610398575b601f0160051c01905b81811061038d57506100aa565b5f8155600101610380565b9091508190610377565b90607f1690610098565b5f80fd5b6040519190601f01601f191682016001600160401b038111838210176102da57604052565b81601f820112156103ac578051906001600160401b0382116102da57610404601f8301601f19166020016103b0565b92828452602083830101116103ac57815f9260208093018386015e8301015290565b6001600160a01b0381165f9081525f5160206122e75f395f51905f52602052604090205460ff16610497576001600160a01b03165f8181525f5160206122e75f395f51905f5260205260408120805460ff191660011790553391905f5160206122875f395f51905f528180a4600190565b505f90565b6001600160a01b0381165f9081525f5160206122a75f395f51905f52602052604090205460ff16610497576001600160a01b03165f8181525f5160206122a75f395f51905f5260205260408120805460ff191660011790553391905f5160206122c75f395f51905f52905f5160206122875f395f51905f529080a4600190565b6001810190825f528160205260405f2054155f14610585578054680100000000000000008110156102da5760018101808355811015610571578390825f5260205f20015554915f5260205260405f2055600190565b634e487b7160e01b5f52603260045260245ffd5b5050505f9056fe608080604052600436101561001c575b50361561001a575f80fd5b005b5f3560e01c90816301ffc9a71461107d575080630688b1351461105557806306fdde0314610fb0578063095ea7b314610f0857806318160ddd14610eeb57806323b872dd14610eb3578063248a9ca314610e815780632f2ff15d14610e1c578063313ce56714610dfc57806336568abe14610db857806340c10f19146108b257806342966c6814610895578063504d27fd1461087857806370a082311461084057806379cc6790146108105780639010d07c146107cb57806391d148541461078357806395d89b41146106de5780639f35c7e714610617578063a217fddf146105fd578063a3246ad31461054e578063a9059cbb1461051d578063aa3744bd146104f1578063b64bdb34146104d4578063ba84e217146104b2578063bd3fddd71461026c578063ca15c87314610242578063d539139314610208578063d547741f146101c65763dd62ed3e14610172575f61000f565b346101c25760403660031901126101c25761018b611114565b61019361112a565b6001600160a01b039182165f908152600360209081526040808320949093168252928352819020549051908152f35b5f80fd5b346101c25760403660031901126101c25761001a6004356101e561112a565b906102036101fe825f525f602052600160405f20015490565b6115b6565b6115ee565b346101c2575f3660031901126101c25760206040517f9f2df0fed2c77648de5860a4cc508cd0818c85b8b8a1ab4ceeef8d981c8956a68152f35b346101c25760203660031901126101c2576004355f526001602052602060405f2054604051908152f35b346101c25760c03660031901126101c257610285611114565b61028d61112a565b906064359167ffffffffffffffff83116101c257366023840112156101c25782600401359067ffffffffffffffff82116101c25736602483860101116101c25760a435928315158094036101c257335f9081527fad3228b676f7d3cd4284a5443f17f1962b36e491b30a40b2405849e597ba5fb5602052604090205460ff16156104765760078054610100600160a81b031916600892831b610100600160a81b031617905580546001600160a01b0319166001600160a01b0392909216919091179055604435600955600a5461036290611140565b601f8111610426575b505f601f82116001146103bd578192935f926103af575b50508160011b915f199060031b1c191617600a555b608435600b5560ff8019600c5416911617600c555f80f35b602492500101358380610382565b601f19821693600a5f5260205f20915f5b86811061040b57508360019596106103ef575b505050811b01600a55610397565b01602401355f19600384901b60f8161c191690558380806103e1565b909260206001819260248787010135815501940191016103ce565b600a5f525f516020611c255f395f51905f52601f830160051c8101916020841061046c575b601f0160051c01905b818110610461575061036b565b5f8155600101610454565b909150819061044b565b60405162461bcd60e51b81526020600482015260146024820152734d75737420686176652061646d696e20726f6c6560601b6044820152606490fd5b346101c2575f3660031901126101c257602060ff600c54166040519015158152f35b346101c2575f3660031901126101c2576020600b54604051908152f35b346101c2575f3660031901126101c25760075460405160089190911c6001600160a01b03168152602090f35b346101c25760403660031901126101c257610543610539611114565b6024359033611251565b602060405160018152f35b346101c25760203660031901126101c2576004355f52600160205260405f20604051806020835491828152019081935f5260205f20905f5b8181106105e7575050508161059c910382611178565b604051918291602083019060208452518091526040830191905f5b8181106105c5575050500390f35b82516001600160a01b03168452859450602093840193909201916001016105b7565b8254845260209093019260019283019201610586565b346101c2575f3660031901126101c25760206040515f8152f35b346101c2575f3660031901126101c2576040515f600a5461063781611140565b80845290600181169081156106ba575060011461066f575b61066b8361065f81850382611178565b604051918291826110ea565b0390f35b600a5f9081525f516020611c255f395f51905f52939250905b8082106106a05750909150810160200161065f61064f565b919260018160209254838588010152019101909291610688565b60ff191660208086019190915291151560051b8401909101915061065f905061064f565b346101c2575f3660031901126101c2576040515f6006546106fe81611140565b80845290600181169081156106ba57506001146107255761066b8361065f81850382611178565b60065f9081527ff652222313e28459528d920b65115c16c04f3efc82aaedc97be59f3f377c0d3f939250905b8082106107695750909150810160200161065f61064f565b919260018160209254838588010152019101909291610751565b346101c25760403660031901126101c25761079c61112a565b6004355f525f60205260405f209060018060a01b03165f52602052602060ff60405f2054166040519015158152f35b346101c25760403660031901126101c2576004355f52600160205260206107f760243560405f20611aac565b905460405160039290921b1c6001600160a01b03168152f35b346101c25760403660031901126101c25761001a61082c611114565b6024359061083b8233836111ae565b611628565b346101c25760203660031901126101c2576001600160a01b03610861611114565b165f526002602052602060405f2054604051908152f35b346101c2575f3660031901126101c2576020600954604051908152f35b346101c25760203660031901126101c25761001a60043533611628565b346101c25760403660031901126101c2576108cb611114565b335f9081527f0781d7cac9c378efa22a7481e4d4d29704a680ddf504b3bc50b517700ee11e6c6020526040902054602435919060ff1615610d73576001600160a01b0316908115610d605760ff600c541680610d59575b80610d51575b61097f575b6004549080820180921161096b5760205f516020611c855f395f51905f52915f936004558484526002825260408420818154019055604051908152a3005b634e487b7160e01b5f52601160045260245ffd5b5f516020611c055f395f51905f5260606040515f8152846020820152836040820152a16009548015801580610d26575b610b54575b5050600b5480151580610b41575b6109cd575b5061092d565b604051906353266bbb60e01b825230600483015260606024830152815f600a546109f681611140565b908160648501526001811690815f14610b1e5750600114610ad8575b508190602093604483015203815f6108005af1908115610acd575f91610a92575b5015610a59575f516020611ca55f395f51905f526020600b54604051908152a1826109c7565b60405162461bcd60e51b815260206004820152601160248201527011195b1959d85d1a5bdb8819985a5b1959607a1b6044820152606490fd5b90506020813d602011610ac5575b81610aad60209383611178565b810103126101c2575180151581036101c25783610a33565b3d9150610aa0565b6040513d5f823e3d90fd5b600a5f90815291505f516020611c255f395f51905f525b818310610b0457505081016084016020610a12565b805460848488010152859350602090920191600101610aef565b60ff191660848086019190915291151560051b8401909101915060209050610a12565b50610b4d600a54611140565b15156109c2565b8160011b90828204600214171561096b57475f516020611c455f395f51905f5260408051838152846020820152a110610cc6576007545f9182918291829160081c6001600160a01b03165af1610ba8611965565b5015610c81575f80808060018060a01b0360075460081c165f516020611c655f395f51905f5260606009549260405190815283602082015260016040820152a16008546001600160a01b03165af1610bfe611965565b5015610c3c575f516020611c655f395f51905f52606060018060a01b0360085416600954604051918252602082015260026040820152a182806109b4565b60405162461bcd60e51b815260206004820152601d60248201527f5365636f6e64206e6174697665207472616e73666572206661696c65640000006044820152606490fd5b60405162461bcd60e51b815260206004820152601c60248201527f4669727374206e6174697665207472616e73666572206661696c6564000000006044820152606490fd5b60405162461bcd60e51b815260206004820152603260248201527f496e73756666696369656e7420636f6e74726163742062616c616e636520666f60448201527172206e6174697665207472616e736665727360701b6064820152608490fd5b5060075460081c6001600160a01b03161515806109af57506008546001600160a01b031615156109af565b506001610928565b505f610922565b63ec442f0560e01b5f525f60045260245ffd5b60405162461bcd60e51b815260206004820152601d60248201527f4d7573742068617665206d696e74657220726f6c6520746f206d696e740000006044820152606490fd5b346101c25760403660031901126101c257610dd161112a565b336001600160a01b03821603610ded5761001a906004356115ee565b63334bd91960e11b5f5260045ffd5b346101c2575f3660031901126101c257602060ff60075416604051908152f35b346101c25760403660031901126101c257600435610e3861112a565b610e506101fe835f525f602052600160405f20015490565b610e5a81836119a4565b610e6057005b5f9182526001602052604090912061001a916001600160a01b031690611ad5565b346101c25760203660031901126101c2576020610eab6004355f525f602052600160405f20015490565b604051908152f35b346101c25760603660031901126101c257610543610ecf611114565b610ed761112a565b60443591610ee68333836111ae565b611251565b346101c2575f3660031901126101c2576020600454604051908152f35b346101c25760403660031901126101c257610f21611114565b602435903315610f9d576001600160a01b0316908115610f8a57335f52600360205260405f20825f526020528060405f20556040519081527f8c5be1e5ebec7d5bd14f71427d1e84f3dd0314c0f7b2291e5b200ac8c7c3b92560203392a3602060405160018152f35b634a1406b160e11b5f525f60045260245ffd5b63e602df0560e01b5f525f60045260245ffd5b346101c2575f3660031901126101c2576040515f600554610fd081611140565b80845290600181169081156106ba5750600114610ff75761066b8361065f81850382611178565b60055f9081527f036b6384b5eca791c62761152d0c79bb0604c104a5fb6f4eb0703f3154bb3db0939250905b80821061103b5750909150810160200161065f61064f565b919260018160209254838588010152019101909291611023565b346101c2575f3660031901126101c2576008546040516001600160a01b039091168152602090f35b346101c25760203660031901126101c2576004359063ffffffff60e01b82168092036101c257602091635a05180f60e01b81149081156110bf575b5015158152f35b637965db0b60e01b8114915081156110d9575b50836110b8565b6301ffc9a760e01b149050836110d2565b602060409281835280519182918282860152018484015e5f828201840152601f01601f1916010190565b600435906001600160a01b03821682036101c257565b602435906001600160a01b03821682036101c257565b90600182811c9216801561116e575b602083101461115a57565b634e487b7160e01b5f52602260045260245ffd5b91607f169161114f565b90601f8019910116810190811067ffffffffffffffff82111761119a57604052565b634e487b7160e01b5f52604160045260245ffd5b6001600160a01b039081165f818152600360209081526040808320948616835293905291909120549291905f1984106111e8575b50505050565b82841061122e578015610f9d576001600160a01b03821615610f8a575f52600360205260405f209060018060a01b03165f5260205260405f20910390555f8080806111e2565b508290637dc7a0d960e11b5f5260018060a01b031660045260245260445260645ffd5b6001600160a01b03169081156115a3576001600160a01b0316918215610d605760ff600c54168061159b575b80611593575b6112ef575b815f52600260205260405f20548181106112d657815f516020611c855f395f51905f5292602092855f52600284520360405f2055845f526002825260405f20818154019055604051908152a3565b8263391434e360e21b5f5260045260245260445260645ffd5b5f516020611c055f395f51905f526060604051848152856020820152836040820152a16009548015801580611568575b611480575b5050600b548015158061146d575b61133d575b50611288565b604051906353266bbb60e01b825230600483015260606024830152815f600a5461136681611140565b908160648501526001811690815f1461144a5750600114611404575b508190602093604483015203815f6108005af1908115610acd575f916113c9575b5015610a59575f516020611ca55f395f51905f526020600b54604051908152a15f611337565b90506020813d6020116113fc575b816113e460209383611178565b810103126101c2575180151581036101c2575f6113a3565b3d91506113d7565b600a5f90815291505f516020611c255f395f51905f525b81831061143057505081016084016020611382565b80546084848801015285935060209092019160010161141b565b60ff191660848086019190915291151560051b8401909101915060209050611382565b50611479600a54611140565b1515611332565b8160011b90828204600214171561096b57475f516020611c455f395f51905f5260408051838152846020820152a110610cc6576007545f9182918291829160081c6001600160a01b03165af16114d4611965565b5015610c81575f80808060018060a01b0360075460081c165f516020611c655f395f51905f5260606009549260405190815283602082015260016040820152a16008546001600160a01b03165af161152a611965565b5015610c3c575f516020611c655f395f51905f52606060018060a01b0360085416600954604051918252602082015260026040820152a15f80611324565b5060075460081c6001600160a01b031615158061131f57506008546001600160a01b0316151561131f565b506001611283565b50600161127d565b634b637e8f60e11b5f525f60045260245ffd5b5f8181526020818152604080832033845290915290205460ff16156115d85750565b63e2517d3f60e01b5f523360045260245260445ffd5b6115f88282611a2c565b918261160357505090565b5f91825260016020526040909120611624916001600160a01b031690611b3f565b5090565b9091906001600160a01b031680156115a35760ff600c54168061195d575b80611956575b6116b2575b805f52600260205260405f2054838110611698576020845f94955f516020611c855f395f51905f5293858752600284520360408620558060045403600455604051908152a3565b915063391434e360e21b5f5260045260245260445260645ffd5b5f516020611c055f395f51905f5260606040518381525f6020820152856040820152a1600954801580158061192b575b611843575b5050600b5480151580611830575b611700575b50611651565b604051906353266bbb60e01b825230600483015260606024830152815f600a5461172981611140565b908160648501526001811690815f1461180d57506001146117c7575b508190602093604483015203815f6108005af1908115610acd575f9161178c575b5015610a59575f516020611ca55f395f51905f526020600b54604051908152a15f6116fa565b90506020813d6020116117bf575b816117a760209383611178565b810103126101c2575180151581036101c2575f611766565b3d915061179a565b600a5f90815291505f516020611c255f395f51905f525b8183106117f357505081016084016020611745565b8054608484880101528593506020909201916001016117de565b60ff191660848086019190915291151560051b8401909101915060209050611745565b5061183c600a54611140565b15156116f5565b8160011b90828204600214171561096b57475f516020611c455f395f51905f5260408051838152846020820152a110610cc6576007545f9182918291829160081c6001600160a01b03165af1611897611965565b5015610c81575f80808060018060a01b0360075460081c165f516020611c655f395f51905f5260606009549260405190815283602082015260016040820152a16008546001600160a01b03165af16118ed611965565b5015610c3c575f516020611c655f395f51905f52606060018060a01b0360085416600954604051918252602082015260026040820152a15f806116e7565b5060075460081c6001600160a01b03161515806116e257506008546001600160a01b031615156116e2565b505f61164c565b506001611646565b3d1561199f573d9067ffffffffffffffff821161119a5760405191611994601f8201601f191660200184611178565b82523d5f602084013e565b606090565b5f818152602081815260408083206001600160a01b038616845290915290205460ff16611a26575f818152602081815260408083206001600160a01b0395909516808452949091528120805460ff19166001179055339291907f2f8788117e7eff1d82e926ec794901d17c78024a50270940304540a733656f0d9080a4600190565b50505f90565b5f818152602081815260408083206001600160a01b038616845290915290205460ff1615611a26575f818152602081815260408083206001600160a01b0395909516808452949091528120805460ff19169055339291907ff6391f5c32d9c69d2a47ea670b442974b53935d1edc7fd64eb21e047a839171b9080a4600190565b8054821015611ac1575f5260205f2001905f90565b634e487b7160e01b5f52603260045260245ffd5b6001810190825f528160205260405f2054155f14611b38578054600160401b81101561119a57611b25611b0f826001879401855584611aac565b819391549060031b91821b915f19901b19161790565b905554915f5260205260405f2055600190565b5050505f90565b906001820191815f528260205260405f20548015155f14611bfc575f19810181811161096b5782545f1981019190821161096b57818103611bc7575b50505080548015611bb3575f190190611b948282611aac565b8154905f199060031b1b19169055555f526020525f6040812055600190565b634e487b7160e01b5f52603160045260245ffd5b611be7611bd7611b0f9386611aac565b90549060031b1c92839286611aac565b90555f528360205260405f20555f8080611b7b565b505050505f9056fef8c99ceb8ca6b64b60019ae7ba043e6753f3aeb6d4d6da4632448e2f0ce24c7fc65a7bb8d6351c1cf70c95a316cc6a92839c986682d98bc35f958f4883f9d2a83d9cb59aaaabeafebf96f5927674f7bdb281620132fb370f5486016f4557699709374e11d36c216b990e8a6a68cb669a6233bad8bc3abc452666829b8cc0ea25ddf252ad1be2c89b69c2b068fc378daa952ba7f163c4a11628f55a4df523b3eff6b9808ab5f93046dc92bff4d681788d48019c7bb71644624464cc99b51f15bda2646970667358221220021c275c88ac512ab73c3cb65428514ac9f3661e398de15f80690f5d8a85904964736f6c634300081c00332f8788117e7eff1d82e926ec794901d17c78024a50270940304540a733656f0d0781d7cac9c378efa22a7481e4d4d29704a680ddf504b3bc50b517700ee11e6c9f2df0fed2c77648de5860a4cc508cd0818c85b8b8a1ab4ceeef8d981c8956a6ad3228b676f7d3cd4284a5443f17f1962b36e491b30a40b2405849e597ba5fb5",
  "linkReferences": {},
  "deployedLinkReferences": {},
  "immutableReferences": {},
  "inputSourceName": "project/solidity/ERC20WithNativeTransfers.sol",
  "buildInfoId": "solc-0_8_28-695d5fc6db28335a0d1ee2dddc903ab8df92477c"
}