{
  "_format": "hh3-artifact-1",
  "contractName": "ERC20RecursiveRevertingPrecompileCall",
  "sourceName": "solidity/ERC20RecursiveRevertingPrecompileCall.sol",
  "abi": [
    {
      "inputs": [
        {
          "internalType": "string",
          "name": "name",
          "type": "string"
        },
        {
          "internalType": "string",
          "name": "symbol",
          "type": "string"
        },
        {
          "internalType": "uint8",
          "name": "decimals_",
          "type": "uint8"
        }
      ],
      "stateMutability": "nonpayable",
      "type": "constructor"
    },
    {
      "inputs": [],
      "name": "AccessControlBadConfirmation",
      "type": "error"
    },
    {
      "inputs": [
        {
          "internalType": "address",
          "name": "account",
          "type": "address"
        },
        {
          "internalType": "bytes32",
          "name": "neededRole",
          "type": "bytes32"
        }
      ],
      "name": "AccessControlUnauthorizedAccount",
      "type": "error"
    },
    {
      "inputs": [
        {
          "internalType": "address",
          "name": "spender",
          "type": "address"
        },
        {
          "internalType": "uint256",
          "name": "allowance",
          "type": "uint256"
        },
        {
          "internalType": "uint256",
          "name": "needed",
          "type": "uint256"
        }
      ],
      "name": "ERC20InsufficientAllowance",
      "type": "error"
    },
    {
      "inputs": [
        {
          "internalType": "address",
          "name": "sender",
          "type": "address"
        },
        {
          "internalType": "uint256",
          "name": "balance",
          "type": "uint256"
        },
        {
          "internalType": "uint256",
          "name": "needed",
          "type": "uint256"
        }
      ],
      "name": "ERC20InsufficientBalance",
      "type": "error"
    },
    {
      "inputs": [
        {
          "internalType": "address",
          "name": "approver",
          "type": "address"
        }
      ],
      "name": "ERC20InvalidApprover",
      "type": "error"
    },
    {
      "inputs": [
        {
          "internalType": "address",
          "name": "receiver",
          "type": "address"
        }
      ],
      "name": "ERC20InvalidReceiver",
      "type": "error"
    },
    {
      "inputs": [
        {
          "internalType": "address",
          "name": "sender",
          "type": "address"
        }
      ],
      "name": "ERC20InvalidSender",
      "type": "error"
    },
    {
      "inputs": [
        {
          "internalType": "address",
          "name": "spender",
          "type": "address"
        }
      ],
      "name": "ERC20InvalidSpender",
      "type": "error"
    },
    {
      "inputs": [],
      "name": "EnforcedPause",
      "type": "error"
    },
    {
      "inputs": [],
      "name": "ExpectedPause",
      "type": "error"
    },
    {
      "anonymous": false,
      "inputs": [
        {
          "indexed": true,
          "internalType": "address",
          "name": "owner",
          "type": "address"
        },
        {
          "indexed": true,
          "internalType": "address",
          "name": "spender",
          "type": "address"
        },
        {
          "indexed": false,
          "internalType": "uint256",
          "name": "value",
          "type": "uint256"
        }
      ],
      "name": "Approval",
      "type": "event"
    },
    {
      "anonymous": false,
      "inputs": [
        {
          "indexed": false,
          "internalType": "address",
          "name": "from",
          "type": "address"
        },
        {
          "indexed": false,
          "internalType": "address",
          "name": "to",
          "type": "address"
        },
        {
          "indexed": false,
          "internalType": "uint256",
          "name": "amount",
          "type": "uint256"
        }
      ],
      "name": "BeforeTokenTransferHookCalled",
      "type": "event"
    },
    {
      "anonymous": false,
      "inputs": [
        {
          "indexed": false,
          "internalType": "address",
          "name": "account",
          "type": "address"
        }
      ],
      "name": "Paused",
      "type": "event"
    },
    {
      "anonymous": false,
      "inputs": [
        {
          "indexed": true,
          "internalType": "bytes32",
          "name": "role",
          "type": "bytes32"
        },
        {
          "indexed": true,
          "internalType": "bytes32",
          "name": "previousAdminRole",
          "type": "bytes32"
        },
        {
          "indexed": true,
          "internalType": "bytes32",
          "name": "newAdminRole",
          "type": "bytes32"
        }
      ],
      "name": "RoleAdminChanged",
      "type": "event"
    },
    {
      "anonymous": false,
      "inputs": [
        {
          "indexed": true,
          "internalType": "bytes32",
          "name": "role",
          "type": "bytes32"
        },
        {
          "indexed": true,
          "internalType": "address",
          "name": "account",
          "type": "address"
        },
        {
          "indexed": true,
          "internalType": "address",
          "name": "sender",
          "type": "address"
        }
      ],
      "name": "RoleGranted",
      "type": "event"
    },
    {
      "anonymous": false,
      "inputs": [
        {
          "indexed": true,
          "internalType": "bytes32",
          "name": "role",
          "type": "bytes32"
        },
        {
          "indexed": true,
          "internalType": "address",
          "name": "account",
          "type": "address"
        },
        {
          "indexed": true,
          "internalType": "address",
          "name": "sender",
          "type": "address"
        }
      ],
      "name": "RoleRevoked",
      "type": "event"
    },
    {
      "anonymous": false,
      "inputs": [
        {
          "indexed": true,
          "internalType": "address",
          "name": "from",
          "type": "address"
        },
        {
          "indexed": true,
          "internalType": "address",
          "name": "to",
          "type": "address"
        },
        {
          "indexed": false,
          "internalType": "uint256",
          "name": "value",
          "type": "uint256"
        }
      ],
      "name": "Transfer",
      "type": "event"
    },
    {
      "anonymous": false,
      "inputs": [
        {
          "indexed": false,
          "internalType": "address",
          "name": "account",
          "type": "address"
        }
      ],
      "name": "Unpaused",
      "type": "event"
    },
    {
      "inputs": [],
      "name": "BURNER_ROLE",
      "outputs": [
        {
          "internalType": "bytes32",
          "name": "",
          "type": "bytes32"
        }
      ],
      "stateMutability": "view",
      "type": "function"
    },
    {
      "inputs": [],
      "name": "DEFAULT_ADMIN_ROLE",
      "outputs": [
        {
          "internalType": "bytes32",
          "name": "",
          "type": "bytes32"
        }
      ],
      "stateMutability": "view",
      "type": "function"
    },
    {
      "inputs": [],
      "name": "MINTER_ROLE",
      "outputs": [
        {
          "internalType": "bytes32",
          "name": "",
          "type": "bytes32"
        }
      ],
      "stateMutability": "view",
      "type": "function"
    },
    {
      "inputs": [],
      "name": "PAUSER_ROLE",
      "outputs": [
        {
          "internalType": "bytes32",
          "name": "",
          "type": "bytes32"
        }
      ],
      "stateMutability": "view",
      "type": "function"
    },
    {
      "inputs": [
        {
          "internalType": "address",
          "name": "owner",
          "type": "address"
        },
        {
          "internalType": "address",
          "name": "spender",
          "type": "address"
        }
      ],
      "name": "allowance",
      "outputs": [
        {
          "internalType": "uint256",
          "name": "",
          "type": "uint256"
        }
      ],
      "stateMutability": "view",
      "type": "function"
    },
    {
      "inputs": [
        {
          "internalType": "address",
          "name": "spender",
          "type": "address"
        },
        {
          "internalType": "uint256",
          "name": "value",
          "type": "uint256"
        }
      ],
      "name": "approve",
      "outputs": [
        {
          "internalType": "bool",
          "name": "",
          "type": "bool"
        }
      ],
      "stateMutability": "nonpayable",
      "type": "function"
    },
    {
      "inputs": [
        {
          "internalType": "address",
          "name": "account",
          "type": "address"
        }
      ],
      "name": "balanceOf",
      "outputs": [
        {
          "internalType": "uint256",
          "name": "",
          "type": "uint256"
        }
      ],
      "stateMutability": "view",
      "type": "function"
    },
    {
      "inputs": [
        {
          "internalType": "uint256",
          "name": "value",
          "type": "uint256"
        }
      ],
      "name": "burn",
      "outputs": [],
      "stateMutability": "nonpayable",
      "type": "function"
    },
    {
      "inputs": [
        {
          "internalType": "address",
          "name": "from",
          "type": "address"
        },
        {
          "internalType": "uint256",
          "name": "amount",
          "type": "uint256"
        }
      ],
      "name": "burnCoins",
      "outputs": [],
      "stateMutability": "nonpayable",
      "type": "function"
    },
    {
      "inputs": [
        {
          "internalType": "address",
          "name": "account",
          "type": "address"
        },
        {
          "internalType": "uint256",
          "name": "value",
          "type": "uint256"
        }
      ],
      "name": "burnFrom",
      "outputs": [],
      "stateMutability": "nonpayable",
      "type": "function"
    },
    {
      "inputs": [],
      "name": "claimRewardsAndRevert",
      "outputs": [],
      "stateMutability": "nonpayable",
      "type": "function"
    },
    {
      "inputs": [],
      "name": "decimals",
      "outputs": [
        {
          "internalType": "uint8",
          "name": "",
          "type": "uint8"
        }
      ],
      "stateMutability": "view",
      "type": "function"
    },
    {
      "inputs": [
        {
          "internalType": "string",
          "name": "validatorAddress",
          "type": "string"
        },
        {
          "internalType": "uint256",
          "name": "amount",
          "type": "uint256"
        }
      ],
      "name": "delegate",
      "outputs": [],
      "stateMutability": "nonpayable",
      "type": "function"
    },
    {
      "inputs": [
        {
          "internalType": "bytes32",
          "name": "role",
          "type": "bytes32"
        }
      ],
      "name": "getRoleAdmin",
      "outputs": [
        {
          "internalType": "bytes32",
          "name": "",
          "type": "bytes32"
        }
      ],
      "stateMutability": "view",
      "type": "function"
    },
    {
      "inputs": [
        {
          "internalType": "bytes32",
          "name": "role",
          "type": "bytes32"
        },
        {
          "internalType": "uint256",
          "name": "index",
          "type": "uint256"
        }
      ],
      "name": "getRoleMember",
      "outputs": [
        {
          "internalType": "address",
          "name": "",
          "type": "address"
        }
      ],
      "stateMutability": "view",
      "type": "function"
    },
    {
      "inputs": [
        {
          "internalType": "bytes32",
          "name": "role",
          "type": "bytes32"
        }
      ],
      "name": "getRoleMemberCount",
      "outputs": [
        {
          "internalType": "uint256",
          "name": "",
          "type": "uint256"
        }
      ],
      "stateMutability": "view",
      "type": "function"
    },
    {
      "inputs": [
        {
          "internalType": "bytes32",
          "name": "role",
          "type": "bytes32"
        }
      ],
      "name": "getRoleMembers",
      "outputs": [
        {
          "internalType": "address[]",
          "name": "",
          "type": "address[]"
        }
      ],
      "stateMutability": "view",
      "type": "function"
    },
    {
      "inputs": [
        {
          "internalType": "bytes32",
          "name": "role",
          "type": "bytes32"
        },
        {
          "internalType": "address",
          "name": "account",
          "type": "address"
        }
      ],
      "name": "grantRole",
      "outputs": [],
      "stateMutability": "nonpayable",
      "type": "function"
    },
    {
      "inputs": [
        {
          "internalType": "bytes32",
          "name": "role",
          "type": "bytes32"
        },
        {
          "internalType": "address",
          "name": "account",
          "type": "address"
        }
      ],
      "name": "hasRole",
      "outputs": [
        {
          "internalType": "bool",
          "name": "",
          "type": "bool"
        }
      ],
      "stateMutability": "view",
      "type": "function"
    },
    {
      "inputs": [
        {
          "internalType": "address",
          "name": "to",
          "type": "address"
        },
        {
          "internalType": "uint256",
          "name": "amount",
          "type": "uint256"
        }
      ],
      "name": "mint",
      "outputs": [],
      "stateMutability": "nonpayable",
      "type": "function"
    },
    {
      "inputs": [],
      "name": "name",
      "outputs": [
        {
          "internalType": "string",
          "name": "",
          "type": "string"
        }
      ],
      "stateMutability": "view",
      "type": "function"
    },
    {
      "inputs": [],
      "name": "pause",
      "outputs": [],
      "stateMutability": "nonpayable",
      "type": "function"
    },
    {
      "inputs": [],
      "name": "paused",
      "outputs": [
        {
          "internalType": "bool",
          "name": "",
          "type": "bool"
        }
      ],
      "stateMutability": "view",
      "type": "function"
    },
    {
      "inputs": [
        {
          "internalType": "bytes32",
          "name": "role",
          "type": "bytes32"
        },
        {
          "internalType": "address",
          "name": "callerConfirmation",
          "type": "address"
        }
      ],
      "name": "renounceRole",
      "outputs": [],
      "stateMutability": "nonpayable",
      "type": "function"
    },
    {
      "inputs": [
        {
          "internalType": "bytes32",
          "name": "role",
          "type": "bytes32"
        },
        {
          "internalType": "address",
          "name": "account",
          "type": "address"
        }
      ],
      "name": "revokeRole",
      "outputs": [],
      "stateMutability": "nonpayable",
      "type": "function"
    },
    {
      "inputs": [
        {
          "internalType": "bytes4",
          "name": "interfaceId",
          "type": "bytes4"
        }
      ],
      "name": "supportsInterface",
      "outputs": [
        {
          "internalType": "bool",
          "name": "",
          "type": "bool"
        }
      ],
      "stateMutability": "view",
      "type": "function"
    },
    {
      "inputs": [],
      "name": "symbol",
      "outputs": [
        {
          "internalType": "string",
          "name": "",
          "type": "string"
        }
      ],
      "stateMutability": "view",
      "type": "function"
    },
    {
      "inputs": [],
      "name": "totalSupply",
      "outputs": [
        {
          "internalType": "uint256",
          "name": "",
          "type": "uint256"
        }
      ],
      "stateMutability": "view",
      "type": "function"
    },
    {
      "inputs": [
        {
          "internalType": "address",
          "name": "to",
          "type": "address"
        },
        {
          "internalType": "uint256",
          "name": "value",
          "type": "uint256"
        }
      ],
      "name": "transfer",
      "outputs": [
        {
          "internalType": "bool",
          "name": "",
          "type": "bool"
        }
      ],
      "stateMutability": "nonpayable",
      "type": "function"
    },
    {
      "inputs": [
        {
          "internalType": "address",
          "name": "from",
          "type": "address"
        },
        {
          "internalType": "address",
          "name": "to",
          "type": "address"
        },
        {
          "internalType": "uint256",
          "name": "value",
          "type": "uint256"
        }
      ],
      "name": "transferFrom",
      "outputs": [
        {
          "internalType": "bool",
          "name": "",
          "type": "bool"
        }
      ],
      "stateMutability": "nonpayable",
      "type": "function"
    },
    {
      "inputs": [],
      "name": "unpause",
      "outputs": [],
      "stateMutability": "nonpayable",
      "type": "function"
    }
  ],
  "bytecode": "0x60806040523461045b57611dcf803803806100198161045f565b92833981019060608183031261045b5780516001600160401b03811161045b5782610045918301610484565b60208201519092906001600160401b03811161045b57604091610069918401610484565b91015160ff8116810361045b5782516001600160401b03811161038957600554600181811c91168015610451575b602082101461036b57601f811161040b575b506020601f82116001146103a857819293945f9261039d575b50508160011b915f199060031b1c1916176005555b81516001600160401b03811161038957600654600181811c9116801561037f575b602082101461036b57601f8111610308575b50602092601f82116001146102a757928192935f9261029c575b50508160011b915f199060031b1c1916176006555b610142336104d5565b610264575b6101503361054b565b61021f575b61015e336105cb565b6101da575b61016c3361064b565b610195575b61ff006007549160081b169061ff00191617600755604051611593908161073c8239f35b5f516020611cef5f395f51905f525f5260016020526101d4337f4796a5437e25bdc491b74d328cf6b437c8587e216f52049c7df56421f51ae30f6106cb565b50610171565b5f516020611d4f5f395f51905f525f526001602052610219337fb9cbbae02fe941283ec0eefd7b121e3bc7f89fae077b27bdd75a7fd4cf1543a86106cb565b50610163565b5f516020611d6f5f395f51905f525f52600160205261025e337f64e21244e91af723e1b962171ed4828dcecc0d7b89872e516a5db8266da800006106cb565b50610155565b5f80526001602052610296337fa6eef7e35abe7026729641147f7915573c7e97b47efa546f5f6e3230263bcb496106cb565b50610147565b015190505f80610124565b601f1982169360065f52805f20915f5b8681106102f057508360019596106102d8575b505050811b01600655610139565b01515f1960f88460031b161c191690555f80806102ca565b919260206001819286850151815501940192016102b7565b60065f527ff652222313e28459528d920b65115c16c04f3efc82aaedc97be59f3f377c0d3f601f830160051c81019160208410610361575b601f0160051c01905b818110610356575061010a565b5f8155600101610349565b9091508190610340565b634e487b7160e01b5f52602260045260245ffd5b90607f16906100f8565b634e487b7160e01b5f52604160045260245ffd5b015190505f806100c2565b601f1982169060055f52805f20915f5b8181106103f3575095836001959697106103db575b505050811b016005556100d7565b01515f1960f88460031b161c191690555f80806103cd565b9192602060018192868b0151815501940192016103b8565b60055f5260205f20601f830160051c81019160208410610447575b601f0160051c01905b81811061043c57506100a9565b5f815560010161042f565b9091508190610426565b90607f1690610097565b5f80fd5b6040519190601f01601f191682016001600160401b0381118382101761038957604052565b81601f8201121561045b578051906001600160401b038211610389576104b3601f8301601f191660200161045f565b928284526020838301011161045b57815f9260208093018386015e8301015290565b6001600160a01b0381165f9081525f516020611daf5f395f51905f52602052604090205460ff16610546576001600160a01b03165f8181525f516020611daf5f395f51905f5260205260408120805460ff191660011790553391905f516020611ccf5f395f51905f528180a4600190565b505f90565b6001600160a01b0381165f9081525f516020611d0f5f395f51905f52602052604090205460ff16610546576001600160a01b03165f8181525f516020611d0f5f395f51905f5260205260408120805460ff191660011790553391905f516020611d6f5f395f51905f52905f516020611ccf5f395f51905f529080a4600190565b6001600160a01b0381165f9081525f516020611d2f5f395f51905f52602052604090205460ff16610546576001600160a01b03165f8181525f516020611d2f5f395f51905f5260205260408120805460ff191660011790553391905f516020611d4f5f395f51905f52905f516020611ccf5f395f51905f529080a4600190565b6001600160a01b0381165f9081525f516020611d8f5f395f51905f52602052604090205460ff16610546576001600160a01b03165f8181525f516020611d8f5f395f51905f5260205260408120805460ff191660011790553391905f516020611cef5f395f51905f52905f516020611ccf5f395f51905f529080a4600190565b6001810190825f528160205260405f2054155f14610734578054680100000000000000008110156103895760018101808355811015610720578390825f5260205f20015554915f5260205260405f2055600190565b634e487b7160e01b5f52603260045260245ffd5b5050505f9056fe6080806040526004361015610012575f80fd5b5f3560e01c90816301ffc9a714610e835750806303f24de114610d4d57806306fdde0314610c92578063095ea7b314610bea57806318160ddd14610bcd5780631cf2c7e214610b1e57806323b872dd14610ae6578063248a9ca314610ab4578063282c51f314610a7a5780632c0503d414610a035780632f2ff15d1461099e578063313ce5671461097b57806336568abe146109375780633f4ba83a1461084b57806340c10f19146106bc57806342966c681461069f5780635c975abb1461067d57806370a082311461064557806379cc6790146106155780638456cb591461053a5780639010d07c146104f557806391d14854146104ad57806395d89b41146103a1578063a217fddf14610387578063a3246ad3146102d8578063a9059cbb146102a7578063ca15c8731461027d578063d539139314610243578063d547741f146101ff578063dd62ed3e146101af5763e63ab1e914610171575f80fd5b346101ab575f3660031901126101ab5760206040517f65d7a28e3265b37a6474929f336521b332c1681b933f6cb9f3376673440d862a8152f35b5f80fd5b346101ab5760403660031901126101ab576101c8610f36565b6101d0610f4c565b6001600160a01b039182165f908152600360209081526040808320949093168252928352819020549051908152f35b346101ab5760403660031901126101ab5761024160043561021e610f4c565b9061023c610237825f525f602052600160405f20015490565b611210565b611248565b005b346101ab575f3660031901126101ab5760206040517f9f2df0fed2c77648de5860a4cc508cd0818c85b8b8a1ab4ceeef8d981c8956a68152f35b346101ab5760203660031901126101ab576004355f526001602052602060405f2054604051908152f35b346101ab5760403660031901126101ab576102cd6102c3610f36565b6024359033611116565b602060405160018152f35b346101ab5760203660031901126101ab576004355f52600160205260405f20604051806020835491828152019081935f5260205f20905f5b8181106103715750505081610326910382610ef0565b604051918291602083019060208452518091526040830191905f5b81811061034f575050500390f35b82516001600160a01b0316845285945060209384019390920191600101610341565b8254845260209093019260019283019201610310565b346101ab575f3660031901126101ab5760206040515f8152f35b346101ab575f3660031901126101ab576040515f6006548060011c906001811680156104a3575b60208310811461048f5782855290811561046b575060011461040d575b610409836103f581850382610ef0565b604051918291602083526020830190610f12565b0390f35b60065f9081527ff652222313e28459528d920b65115c16c04f3efc82aaedc97be59f3f377c0d3f939250905b808210610451575090915081016020016103f56103e5565b919260018160209254838588010152019101909291610439565b60ff191660208086019190915291151560051b840190910191506103f590506103e5565b634e487b7160e01b5f52602260045260245ffd5b91607f16916103c8565b346101ab5760403660031901126101ab576104c6610f4c565b6004355f525f60205260405f209060018060a01b03165f52602052602060ff60405f2054166040519015158152f35b346101ab5760403660031901126101ab576004355f526001602052602061052160243560405f206113a5565b905460405160039290921b1c6001600160a01b03168152f35b346101ab575f3660031901126101ab57335f9081527ff7c9542c591017a21c74b6f3fab6263c7952fc0aaf9db4c22a2a04ddc7f8674f602052604090205460ff16156105c15761058861138a565b600160ff1960075416176007557f62e78cea01bee320cd4e420270b5ea74000d11b0c9f74754ebdbfc544b05a2586020604051338152a1005b60405162461bcd60e51b815260206004820152603960248201525f51602061153e5f395f51905f52604482015278686176652070617573657220726f6c6520746f20706175736560381b6064820152608490fd5b346101ab5760403660031901126101ab57610241610631610f36565b60243590610640823383611073565b610f7a565b346101ab5760203660031901126101ab576001600160a01b03610666610f36565b165f526002602052602060405f2054604051908152f35b346101ab575f3660031901126101ab57602060ff600754166040519015158152f35b346101ab5760203660031901126101ab5761024160043533610f7a565b346101ab5760403660031901126101ab576106d5610f36565b335f9081527f0781d7cac9c378efa22a7481e4d4d29704a680ddf504b3bc50b517700ee11e6c6020526040902054602435919060ff16156107f8576001600160a01b03169081156107e5575f5160206114fe5f395f51905f5260606040515f8152846020820152836040820152a15f5b600581106107a8575061075661138a565b600454908082018092116107945760205f51602061151e5f395f51905f52915f936004558484526002825260408420818154019055604051908152a3005b634e487b7160e01b5f52601160045260245ffd5b303b156101ab57604051630b0140f560e21b8152600191905f8160048183305af16107d5575b5001610745565b5f6107df91610ef0565b846107ce565b63ec442f0560e01b5f525f60045260245ffd5b60405162461bcd60e51b815260206004820152603860248201525f51602061153e5f395f51905f526044820152771a185d99481b5a5b9d195c881c9bdb19481d1bc81b5a5b9d60421b6064820152608490fd5b346101ab575f3660031901126101ab57335f9081527ff7c9542c591017a21c74b6f3fab6263c7952fc0aaf9db4c22a2a04ddc7f8674f602052604090205460ff16156108df5760075460ff8116156108d05760ff19166007557f5db9ee0a495bf2e6ff9c91a7834c1ba4fdd244a5e8aa4e537bd38aeae4b073aa6020604051338152a1005b638dfc202b60e01b5f5260045ffd5b60405162461bcd60e51b815260206004820152603b60248201525f51602061153e5f395f51905f5260448201527f686176652070617573657220726f6c6520746f20756e706175736500000000006064820152608490fd5b346101ab5760403660031901126101ab57610950610f4c565b336001600160a01b0382160361096c5761024190600435611248565b63334bd91960e11b5f5260045ffd5b346101ab575f3660031901126101ab57602060ff60075460081c16604051908152f35b346101ab5760403660031901126101ab576004356109ba610f4c565b6109d2610237835f525f602052600160405f20015490565b6109dc8183611282565b6109e257005b5f91825260016020526040909120610241916001600160a01b0316906113ce565b346101ab575f3660031901126101ab57604051632efe8a5f60e01b8152306004820152606460248201526020816044815f6108015af18015610a6f57610a47575f80fd5b6101ab9060203d602011610a68575b610a608183610ef0565b810190610f62565b503d610a56565b6040513d5f823e3d90fd5b346101ab575f3660031901126101ab5760206040517f3c11d16cbaffd01df69ce1c404f6340ee057498f5f00246190ea54220576a8488152f35b346101ab5760203660031901126101ab576020610ade6004355f525f602052600160405f20015490565b604051908152f35b346101ab5760603660031901126101ab576102cd610b02610f36565b610b0a610f4c565b60443591610b19833383611073565b611116565b346101ab5760403660031901126101ab57610b37610f36565b335f9081527f6bc61e8d8a7feeba9a3dfbe950298fbca23cf0136992f9ef92f1b5529ac870ae602052604090205460ff1615610b7a576102419060243590610f7a565b60405162461bcd60e51b815260206004820152603860248201525f51602061153e5f395f51905f526044820152773430bb3290313ab93732b9103937b632903a3790313ab93760411b6064820152608490fd5b346101ab575f3660031901126101ab576020600454604051908152f35b346101ab5760403660031901126101ab57610c03610f36565b602435903315610c7f576001600160a01b0316908115610c6c57335f52600360205260405f20825f526020528060405f20556040519081527f8c5be1e5ebec7d5bd14f71427d1e84f3dd0314c0f7b2291e5b200ac8c7c3b92560203392a3602060405160018152f35b634a1406b160e11b5f525f60045260245ffd5b63e602df0560e01b5f525f60045260245ffd5b346101ab575f3660031901126101ab576040515f6005548060011c90600181168015610d43575b60208310811461048f5782855290811561046b5750600114610ce557610409836103f581850382610ef0565b60055f9081527f036b6384b5eca791c62761152d0c79bb0604c104a5fb6f4eb0703f3154bb3db0939250905b808210610d29575090915081016020016103f56103e5565b919260018160209254838588010152019101909291610d11565b91607f1691610cb9565b346101ab5760403660031901126101ab5760043567ffffffffffffffff81116101ab57366023820112156101ab5780600401359067ffffffffffffffff8211610e6f57604051610da7601f8401601f191660200182610ef0565b82815236602484840101116101ab575f602084610df39560248396018386013783010152604051809381926353266bbb60e01b8352306004840152606060248401526064830190610f12565b602435604483015203815f6108005af1908115610a6f575f91610e50575b5015610e1957005b60405162461bcd60e51b815260206004820152600f60248201526e6661696c656420746f207374616b6560881b6044820152606490fd5b610e69915060203d602011610a6857610a608183610ef0565b81610e11565b634e487b7160e01b5f52604160045260245ffd5b346101ab5760203660031901126101ab576004359063ffffffff60e01b82168092036101ab57602091635a05180f60e01b8114908115610ec5575b5015158152f35b637965db0b60e01b811491508115610edf575b5083610ebe565b6301ffc9a760e01b14905083610ed8565b90601f8019910116810190811067ffffffffffffffff821117610e6f57604052565b805180835260209291819084018484015e5f828201840152601f01601f1916010190565b600435906001600160a01b03821682036101ab57565b602435906001600160a01b03821682036101ab57565b908160209103126101ab575180151581036101ab5790565b9091906001600160a01b03168015611060575f5160206114fe5f395f51905f5260606040518381525f6020820152856040820152a15f5b600581106110235750610fc261138a565b805f52600260205260405f2054838110611009576020845f94955f51602061151e5f395f51905f5293858752600284520360408620558060045403600455604051908152a3565b915063391434e360e21b5f5260045260245260445260645ffd5b303b156101ab57604051630b0140f560e21b8152600191905f8160048183305af1611050575b5001610fb1565b5f61105a91610ef0565b5f611049565b634b637e8f60e11b5f525f60045260245ffd5b6001600160a01b039081165f818152600360209081526040808320948616835293905291909120549291905f1984106110ad575b50505050565b8284106110f3578015610c7f576001600160a01b03821615610c6c575f52600360205260405f209060018060a01b03165f5260205260405f20910390555f8080806110a7565b508290637dc7a0d960e11b5f5260018060a01b031660045260245260445260645ffd5b6001600160a01b0316908115611060576001600160a01b03169182156107e5575f5160206114fe5f395f51905f526060604051848152856020820152836040820152a15f5b600581106111d3575061116c61138a565b815f52600260205260405f20548181106111ba57815f51602061151e5f395f51905f5292602092855f52600284520360405f2055845f526002825260405f20818154019055604051908152a3565b8263391434e360e21b5f5260045260245260445260645ffd5b303b156101ab57604051630b0140f560e21b8152600191905f8160048183305af1611200575b500161115b565b5f61120a91610ef0565b5f6111f9565b5f8181526020818152604080832033845290915290205460ff16156112325750565b63e2517d3f60e01b5f523360045260245260445ffd5b611252828261130a565b918261125d57505090565b5f9182526001602052604090912061127e916001600160a01b031690611438565b5090565b5f818152602081815260408083206001600160a01b038616845290915290205460ff16611304575f818152602081815260408083206001600160a01b0395909516808452949091528120805460ff19166001179055339291907f2f8788117e7eff1d82e926ec794901d17c78024a50270940304540a733656f0d9080a4600190565b50505f90565b5f818152602081815260408083206001600160a01b038616845290915290205460ff1615611304575f818152602081815260408083206001600160a01b0395909516808452949091528120805460ff19169055339291907ff6391f5c32d9c69d2a47ea670b442974b53935d1edc7fd64eb21e047a839171b9080a4600190565b60ff6007541661139657565b63d93c066560e01b5f5260045ffd5b80548210156113ba575f5260205f2001905f90565b634e487b7160e01b5f52603260045260245ffd5b6001810190825f528160205260405f2054155f14611431578054600160401b811015610e6f5761141e6114088260018794018555846113a5565b819391549060031b91821b915f19901b19161790565b905554915f5260205260405f2055600190565b5050505f90565b906001820191815f528260205260405f20548015155f146114f5575f1981018181116107945782545f19810191908211610794578181036114c0575b505050805480156114ac575f19019061148d82826113a5565b8154905f199060031b1b19169055555f526020525f6040812055600190565b634e487b7160e01b5f52603160045260245ffd5b6114e06114d061140893866113a5565b90549060031b1c928392866113a5565b90555f528360205260405f20555f8080611474565b505050505f9056fe6a7461657441bf111caa502b48bec73847d91c1265dc315d914c2d2a6c95fcfeddf252ad1be2c89b69c2b068fc378daa952ba7f163c4a11628f55a4df523b3ef45524332304d696e7465724275726e6572446563696d616c733a206d75737420a26469706673582212208ec9f127d7066ce2d24c596e81909618f3336a49d15885e7b1f66e4f4f1d00f464736f6c634300081c00332f8788117e7eff1d82e926ec794901d17c78024a50270940304540a733656f0d3c11d16cbaffd01df69ce1c404f6340ee057498f5f00246190ea54220576a8480781d7cac9c378efa22a7481e4d4d29704a680ddf504b3bc50b517700ee11e6cf7c9542c591017a21c74b6f3fab6263c7952fc0aaf9db4c22a2a04ddc7f8674f65d7a28e3265b37a6474929f336521b332c1681b933f6cb9f3376673440d862a9f2df0fed2c77648de5860a4cc508cd0818c85b8b8a1ab4ceeef8d981c8956a66bc61e8d8a7feeba9a3dfbe950298fbca23cf0136992f9ef92f1b5529ac870aead3228b676f7d3cd4284a5443f17f1962b36e491b30a40b2405849e597ba5fb5",
  "linkReferences": {},
  "deployedLinkReferences": {},
  "immutableReferences": {},
  "inputSourceName": "project/solidity/ERC20RecursiveRevertingPrecompileCall.sol",
  "buildInfoId": "solc-0_8_28-e55ad96646b3bb5046840fe24a1f6856fc44be2c"
}