{
  "_format": "hh3-artifact-1",
  "contractName": "ERC20RecursiveRevertingPrecompileCall",
  "sourceName": "solidity/ERC20RecursiveRevertingPrecompileCall.sol",
  "abi": [
    {
      "inputs": [
        {
          "internalType": "string",
          "name": "name",
          "type": "string"
        },
        {
          "internalType": "string",
          "name": "symbol",
          "type": "string"
        },
        {
          "internalType": "uint8",
          "name": "decimals_",
          "type": "uint8"
        }
      ],
      "stateMutability": "nonpayable",
      "type": "constructor"
    },
    {
      "anonymous": false,
      "inputs": [
        {
          "indexed": true,
          "internalType": "address",
          "name": "owner",
          "type": "address"
        },
        {
          "indexed": true,
          "internalType": "address",
          "name": "spender",
          "type": "address"
        },
        {
          "indexed": false,
          "internalType": "uint256",
          "name": "value",
          "type": "uint256"
        }
      ],
      "name": "Approval",
      "type": "event"
    },
    {
      "anonymous": false,
      "inputs": [
        {
          "indexed": false,
          "internalType": "address",
          "name": "from",
          "type": "address"
        },
        {
          "indexed": false,
          "internalType": "address",
          "name": "to",
          "type": "address"
        },
        {
          "indexed": false,
          "internalType": "uint256",
          "name": "amount",
          "type": "uint256"
        }
      ],
      "name": "BeforeTokenTransferHookCalled",
      "type": "event"
    },
    {
      "anonymous": false,
      "inputs": [
        {
          "indexed": false,
          "internalType": "address",
          "name": "account",
          "type": "address"
        }
      ],
      "name": "Paused",
      "type": "event"
    },
    {
      "anonymous": false,
      "inputs": [
        {
          "indexed": true,
          "internalType": "bytes32",
          "name": "role",
          "type": "bytes32"
        },
        {
          "indexed": true,
          "internalType": "bytes32",
          "name": "previousAdminRole",
          "type": "bytes32"
        },
        {
          "indexed": true,
          "internalType": "bytes32",
          "name": "newAdminRole",
          "type": "bytes32"
        }
      ],
      "name": "RoleAdminChanged",
      "type": "event"
    },
    {
      "anonymous": false,
      "inputs": [
        {
          "indexed": true,
          "internalType": "bytes32",
          "name": "role",
          "type": "bytes32"
        },
        {
          "indexed": true,
          "internalType": "address",
          "name": "account",
          "type": "address"
        },
        {
          "indexed": true,
          "internalType": "address",
          "name": "sender",
          "type": "address"
        }
      ],
      "name": "RoleGranted",
      "type": "event"
    },
    {
      "anonymous": false,
      "inputs": [
        {
          "indexed": true,
          "internalType": "bytes32",
          "name": "role",
          "type": "bytes32"
        },
        {
          "indexed": true,
          "internalType": "address",
          "name": "account",
          "type": "address"
        },
        {
          "indexed": true,
          "internalType": "address",
          "name": "sender",
          "type": "address"
        }
      ],
      "name": "RoleRevoked",
      "type": "event"
    },
    {
      "anonymous": false,
      "inputs": [
        {
          "indexed": true,
          "internalType": "address",
          "name": "from",
          "type": "address"
        },
        {
          "indexed": true,
          "internalType": "address",
          "name": "to",
          "type": "address"
        },
        {
          "indexed": false,
          "internalType": "uint256",
          "name": "value",
          "type": "uint256"
        }
      ],
      "name": "Transfer",
      "type": "event"
    },
    {
      "anonymous": false,
      "inputs": [
        {
          "indexed": false,
          "internalType": "address",
          "name": "account",
          "type": "address"
        }
      ],
      "name": "Unpaused",
      "type": "event"
    },
    {
      "inputs": [],
      "name": "BURNER_ROLE",
      "outputs": [
        {
          "internalType": "bytes32",
          "name": "",
          "type": "bytes32"
        }
      ],
      "stateMutability": "view",
      "type": "function"
    },
    {
      "inputs": [],
      "name": "DEFAULT_ADMIN_ROLE",
      "outputs": [
        {
          "internalType": "bytes32",
          "name": "",
          "type": "bytes32"
        }
      ],
      "stateMutability": "view",
      "type": "function"
    },
    {
      "inputs": [],
      "name": "MINTER_ROLE",
      "outputs": [
        {
          "internalType": "bytes32",
          "name": "",
          "type": "bytes32"
        }
      ],
      "stateMutability": "view",
      "type": "function"
    },
    {
      "inputs": [],
      "name": "PAUSER_ROLE",
      "outputs": [
        {
          "internalType": "bytes32",
          "name": "",
          "type": "bytes32"
        }
      ],
      "stateMutability": "view",
      "type": "function"
    },
    {
      "inputs": [
        {
          "internalType": "address",
          "name": "owner",
          "type": "address"
        },
        {
          "internalType": "address",
          "name": "spender",
          "type": "address"
        }
      ],
      "name": "allowance",
      "outputs": [
        {
          "internalType": "uint256",
          "name": "",
          "type": "uint256"
        }
      ],
      "stateMutability": "view",
      "type": "function"
    },
    {
      "inputs": [
        {
          "internalType": "address",
          "name": "spender",
          "type": "address"
        },
        {
          "internalType": "uint256",
          "name": "amount",
          "type": "uint256"
        }
      ],
      "name": "approve",
      "outputs": [
        {
          "internalType": "bool",
          "name": "",
          "type": "bool"
        }
      ],
      "stateMutability": "nonpayable",
      "type": "function"
    },
    {
      "inputs": [
        {
          "internalType": "address",
          "name": "account",
          "type": "address"
        }
      ],
      "name": "balanceOf",
      "outputs": [
        {
          "internalType": "uint256",
          "name": "",
          "type": "uint256"
        }
      ],
      "stateMutability": "view",
      "type": "function"
    },
    {
      "inputs": [
        {
          "internalType": "uint256",
          "name": "amount",
          "type": "uint256"
        }
      ],
      "name": "burn",
      "outputs": [],
      "stateMutability": "nonpayable",
      "type": "function"
    },
    {
      "inputs": [
        {
          "internalType": "address",
          "name": "from",
          "type": "address"
        },
        {
          "internalType": "uint256",
          "name": "amount",
          "type": "uint256"
        }
      ],
      "name": "burnCoins",
      "outputs": [],
      "stateMutability": "nonpayable",
      "type": "function"
    },
    {
      "inputs": [
        {
          "internalType": "address",
          "name": "account",
          "type": "address"
        },
        {
          "internalType": "uint256",
          "name": "amount",
          "type": "uint256"
        }
      ],
      "name": "burnFrom",
      "outputs": [],
      "stateMutability": "nonpayable",
      "type": "function"
    },
    {
      "inputs": [],
      "name": "claimRewardsAndRevert",
      "outputs": [],
      "stateMutability": "nonpayable",
      "type": "function"
    },
    {
      "inputs": [],
      "name": "decimals",
      "outputs": [
        {
          "internalType": "uint8",
          "name": "",
          "type": "uint8"
        }
      ],
      "stateMutability": "view",
      "type": "function"
    },
    {
      "inputs": [
        {
          "internalType": "address",
          "name": "spender",
          "type": "address"
        },
        {
          "internalType": "uint256",
          "name": "subtractedValue",
          "type": "uint256"
        }
      ],
      "name": "decreaseAllowance",
      "outputs": [
        {
          "internalType": "bool",
          "name": "",
          "type": "bool"
        }
      ],
      "stateMutability": "nonpayable",
      "type": "function"
    },
    {
      "inputs": [
        {
          "internalType": "string",
          "name": "validatorAddress",
          "type": "string"
        },
        {
          "internalType": "uint256",
          "name": "amount",
          "type": "uint256"
        }
      ],
      "name": "delegate",
      "outputs": [],
      "stateMutability": "nonpayable",
      "type": "function"
    },
    {
      "inputs": [
        {
          "internalType": "bytes32",
          "name": "role",
          "type": "bytes32"
        }
      ],
      "name": "getRoleAdmin",
      "outputs": [
        {
          "internalType": "bytes32",
          "name": "",
          "type": "bytes32"
        }
      ],
      "stateMutability": "view",
      "type": "function"
    },
    {
      "inputs": [
        {
          "internalType": "bytes32",
          "name": "role",
          "type": "bytes32"
        },
        {
          "internalType": "uint256",
          "name": "index",
          "type": "uint256"
        }
      ],
      "name": "getRoleMember",
      "outputs": [
        {
          "internalType": "address",
          "name": "",
          "type": "address"
        }
      ],
      "stateMutability": "view",
      "type": "function"
    },
    {
      "inputs": [
        {
          "internalType": "bytes32",
          "name": "role",
          "type": "bytes32"
        }
      ],
      "name": "getRoleMemberCount",
      "outputs": [
        {
          "internalType": "uint256",
          "name": "",
          "type": "uint256"
        }
      ],
      "stateMutability": "view",
      "type": "function"
    },
    {
      "inputs": [
        {
          "internalType": "bytes32",
          "name": "role",
          "type": "bytes32"
        },
        {
          "internalType": "address",
          "name": "account",
          "type": "address"
        }
      ],
      "name": "grantRole",
      "outputs": [],
      "stateMutability": "nonpayable",
      "type": "function"
    },
    {
      "inputs": [
        {
          "internalType": "bytes32",
          "name": "role",
          "type": "bytes32"
        },
        {
          "internalType": "address",
          "name": "account",
          "type": "address"
        }
      ],
      "name": "hasRole",
      "outputs": [
        {
          "internalType": "bool",
          "name": "",
          "type": "bool"
        }
      ],
      "stateMutability": "view",
      "type": "function"
    },
    {
      "inputs": [
        {
          "internalType": "address",
          "name": "spender",
          "type": "address"
        },
        {
          "internalType": "uint256",
          "name": "addedValue",
          "type": "uint256"
        }
      ],
      "name": "increaseAllowance",
      "outputs": [
        {
          "internalType": "bool",
          "name": "",
          "type": "bool"
        }
      ],
      "stateMutability": "nonpayable",
      "type": "function"
    },
    {
      "inputs": [
        {
          "internalType": "address",
          "name": "to",
          "type": "address"
        },
        {
          "internalType": "uint256",
          "name": "amount",
          "type": "uint256"
        }
      ],
      "name": "mint",
      "outputs": [],
      "stateMutability": "nonpayable",
      "type": "function"
    },
    {
      "inputs": [],
      "name": "name",
      "outputs": [
        {
          "internalType": "string",
          "name": "",
          "type": "string"
        }
      ],
      "stateMutability": "view",
      "type": "function"
    },
    {
      "inputs": [],
      "name": "pause",
      "outputs": [],
      "stateMutability": "nonpayable",
      "type": "function"
    },
    {
      "inputs": [],
      "name": "paused",
      "outputs": [
        {
          "internalType": "bool",
          "name": "",
          "type": "bool"
        }
      ],
      "stateMutability": "view",
      "type": "function"
    },
    {
      "inputs": [
        {
          "internalType": "bytes32",
          "name": "role",
          "type": "bytes32"
        },
        {
          "internalType": "address",
          "name": "account",
          "type": "address"
        }
      ],
      "name": "renounceRole",
      "outputs": [],
      "stateMutability": "nonpayable",
      "type": "function"
    },
    {
      "inputs": [
        {
          "internalType": "bytes32",
          "name": "role",
          "type": "bytes32"
        },
        {
          "internalType": "address",
          "name": "account",
          "type": "address"
        }
      ],
      "name": "revokeRole",
      "outputs": [],
      "stateMutability": "nonpayable",
      "type": "function"
    },
    {
      "inputs": [
        {
          "internalType": "bytes4",
          "name": "interfaceId",
          "type": "bytes4"
        }
      ],
      "name": "supportsInterface",
      "outputs": [
        {
          "internalType": "bool",
          "name": "",
          "type": "bool"
        }
      ],
      "stateMutability": "view",
      "type": "function"
    },
    {
      "inputs": [],
      "name": "symbol",
      "outputs": [
        {
          "internalType": "string",
          "name": "",
          "type": "string"
        }
      ],
      "stateMutability": "view",
      "type": "function"
    },
    {
      "inputs": [],
      "name": "totalSupply",
      "outputs": [
        {
          "internalType": "uint256",
          "name": "",
          "type": "uint256"
        }
      ],
      "stateMutability": "view",
      "type": "function"
    },
    {
      "inputs": [
        {
          "internalType": "address",
          "name": "to",
          "type": "address"
        },
        {
          "internalType": "uint256",
          "name": "amount",
          "type": "uint256"
        }
      ],
      "name": "transfer",
      "outputs": [
        {
          "internalType": "bool",
          "name": "",
          "type": "bool"
        }
      ],
      "stateMutability": "nonpayable",
      "type": "function"
    },
    {
      "inputs": [
        {
          "internalType": "address",
          "name": "from",
          "type": "address"
        },
        {
          "internalType": "address",
          "name": "to",
          "type": "address"
        },
        {
          "internalType": "uint256",
          "name": "amount",
          "type": "uint256"
        }
      ],
      "name": "transferFrom",
      "outputs": [
        {
          "internalType": "bool",
          "name": "",
          "type": "bool"
        }
      ],
      "stateMutability": "nonpayable",
      "type": "function"
    },
    {
      "inputs": [],
      "name": "unpause",
      "outputs": [],
      "stateMutability": "nonpayable",
      "type": "function"
    }
  ],
  "bytecode": "0x604060808152346200052357620022a0803803806200001e8162000527565b9283398101606082820312620005235781516001600160401b039190828111620005235781620000509185016200054d565b9160209182850151828111620005235786916200006f9187016200054d565b9401519360ff851685036200052357835182811162000443576005918254916001968784811c9416801562000518575b8785101462000424578190601f94858111620004c7575b50879085831160011462000463575f9262000457575b50505f19600383901b1c191690871b1783555b805193841162000443576006548681811c9116801562000438575b8682101462000424578493838211620003cd575b50508491831160011462000367575f926200035b575b50505f19600383901b1c191690831b176006555b60ff1980600754166007555f80525f8252845f20335f52825260ff855f2054161562000327575b5f80528282526200017333865f20620005bd565b507f9f2df0fed2c77648de5860a4cc508cd0818c85b8b8a1ab4ceeef8d981c8956a6805f525f8352855f20335f52835260ff865f20541615620002f3575b5f52828252620001c433865f20620005bd565b507f65d7a28e3265b37a6474929f336521b332c1681b933f6cb9f3376673440d862a805f525f8352855f20335f52835260ff865f20541615620002bf575b5f528282526200021533865f20620005bd565b507f3c11d16cbaffd01df69ce1c404f6340ee057498f5f00246190ea54220576a84890815f525f8352855f20335f52835260ff865f205416156200028a575b505f52526200026633835f20620005bd565b5061ff006007549160081b169061ff0019161760075551611c379081620006498239f35b815f525f8352855f20335f52835283865f20918254161790553333825f80516020620022808339815191525f80a45f62000254565b805f525f8352855f20335f528352855f2084838254161790553333825f80516020620022808339815191525f80a462000202565b805f525f8352855f20335f528352855f2084838254161790553333825f80516020620022808339815191525f80a4620001b1565b5f80525f8252845f20335f528252845f20838282541617905533335f5f80516020620022808339815191528180a46200015f565b015190505f8062000124565b90859350601f1983169160065f52855f20925f5b87828210620003b657505084116200039d575b505050811b0160065562000138565b01515f1960f88460031b161c191690555f80806200038e565b83850151865589979095019493840193016200037b565b909192935060065f52855f209084808701821c8301938888106200041a575b9187968a93969594929601901c01915b8281106200040b57506200010e565b5f8155869550889101620003fc565b93508293620003ec565b634e487b7160e01b5f52602260045260245ffd5b90607f1690620000fa565b634e487b7160e01b5f52604160045260245ffd5b015190505f80620000cc565b90899350601f19831691875f52895f20925f5b8b828210620004b0575050841162000497575b505050811b018355620000df565b01515f1960f88460031b161c191690555f808062000489565b8385015186558d9790950194938401930162000476565b909150855f52875f2085808501881c8201928a86106200050e575b918b918695949301891c01915b828110620004ff575050620000b6565b5f81558594508b9101620004ef565b92508192620004e2565b93607f16936200009f565b5f80fd5b6040519190601f01601f191682016001600160401b038111838210176200044357604052565b919080601f84011215620005235782516001600160401b038111620004435760209062000583601f8201601f1916830162000527565b9281845282828701011162000523575f5b818110620005a95750825f9394955001015290565b858101830151848201840152820162000594565b9190600183015f90828252806020526040822054155f146200064257845494680100000000000000008610156200062e57600186018082558610156200061a57836040949596828552602085200155549382526020522055600190565b634e487b7160e01b83526032600452602483fd5b634e487b7160e01b83526041600452602483fd5b5092505056fe6080604081815260049182361015610015575f80fd5b5f92833560e01c91826301ffc9a714610f975750816303f24de114610e6057816306fdde0314610db2578163095ea7b314610d8857816318160ddd14610d6a5781631cf2c7e214610cb557816323b872dd14610c78578163248a9ca314610c4e578163282c51f314610c135781632c0503d414610b9b5781632f2ff15d14610ae7578163313ce56714610ac257816336568abe14610a3057816339509351146109e05781633f4ba83a146108d457816340c10f19146106c057816342966c68146106a25781635c975abb1461067e57816370a082311461064657816379cc6790146106165781638456cb59146105105781639010d07c146104cf57816391d148541461048957816395d89b411461038d578163a217fddf14610372578163a457c2d7146102ca578163a9059cbb14610299578163ca15c87314610271578163d539139314610236578163d547741f146101f457508063dd62ed3e146101ac5763e63ab1e914610182575f80fd5b346101a857816003193601126101a857602090515f80516020611ba28339815191528152f35b5080fd5b50346101a857806003193601126101a857806020926101c9611094565b6101d16110ae565b6001600160a01b0391821683526003865283832091168252845220549051908152f35b9190503461023257806003193601126102325761022f913561022a60016102196110ae565b9383875286602052862001546110c4565b6113f0565b80f35b8280fd5b5050346101a857816003193601126101a857602090517f9f2df0fed2c77648de5860a4cc508cd0818c85b8b8a1ab4ceeef8d981c8956a68152f35b9050346102325760203660031901126102325760209282913581526001845220549051908152f35b5050346101a857806003193601126101a8576020906102c36102b9611094565b6024359033611497565b5160018152f35b9050823461036f578260031936011261036f576102e5611094565b918360243592338152600360205281812060018060a01b038616825260205220549082821061031e576020856102c385850387336116bf565b608490602086519162461bcd60e51b8352820152602560248201527f45524332303a2064656372656173656420616c6c6f77616e63652062656c6f77604482015264207a65726f60d81b6064820152fd5b80fd5b5050346101a857816003193601126101a85751908152602090f35b82843461036f578060031936011261036f578151918160065492600184811c9181861695861561047f575b602096878510811461046c578899509688969785829a5291825f14610445575050600114610407575b50505061040392916103f491038561102c565b5192828493845283019061106f565b0390f35b9190869350600683528383205b82841061042d57505050820101816103f46104036103e1565b8054848a018601528895508794909301928101610414565b60ff19168782015293151560051b860190930193508492506103f4915061040390506103e1565b634e487b7160e01b835260228a52602483fd5b92607f16926103b8565b9050346102325781600319360112610232578160209360ff926104aa6110ae565b903582528186528282206001600160a01b039091168252855220549151911615158152f35b9050346102325781600319360112610232576020926104fa91358152600184528260243591206119f9565b905491519160018060a01b039160031b1c168152f35b9050346102325782600319360112610232575f80516020611ba283398151915283528260205281832033845260205260ff8284205416156105c5576007549060ff821661058f575060ff1916600117600755513381527f62e78cea01bee320cd4e420270b5ea74000d11b0c9f74754ebdbfc544b05a25890602090a180f35b606490602084519162461bcd60e51b8352820152601060248201526f14185d5cd8589b194e881c185d5cd95960821b6044820152fd5b6020608492519162461bcd60e51b8352820152603960248201525f80516020611be2833981519152604482015278686176652070617573657220726f6c6520746f20706175736560381b6064820152fd5b5050346101a85736600319011261036f5761022f610632611094565b602435906106418233836117bd565b611850565b5050346101a85760203660031901126101a85760209181906001600160a01b0361066e611094565b1681526002845220549051908152f35b5050346101a857816003193601126101a85760209060ff6007541690519015158152f35b8390346101a85760203660031901126101a85761022f903533611850565b9050346102325781600319360112610232576106da611094565b906024928335917f9f2df0fed2c77648de5860a4cc508cd0818c85b8b8a1ab4ceeef8d981c8956a68652602093868552828720338852855260ff838820541615610885576001600160a01b0316948515610845575f80516020611b828339815191526060845189815288888201528686820152a1865b600581106107ef575060ff6007541661079c57509185939183610782835f80516020611bc28339815191529654611476565b90558585526002835280852082815401905551908152a380f35b602a9085608494519362461bcd60e51b85528401528201527f45524332305061757361626c653a20746f6b656e207472616e736665722077686044820152691a5b19481c185d5cd95960b21b6064820152fd5b303b15610841578351630b0140f560e21b81528881858183305af1610832575b505f19811461082057600101610750565b50634e487b7160e01b87526011825286fd5b61083b90611004565b5f61080f565b8780fd5b601f9085606494519362461bcd60e51b85528401528201527f45524332303a206d696e7420746f20746865207a65726f2061646472657373006044820152fd5b5060388585608494519362461bcd60e51b85528401528201525f80516020611be28339815191526044820152771a185d99481b5a5b9d195c881c9bdb19481d1bc81b5a5b9d60421b6064820152fd5b9050346102325782600319360112610232575f80516020611ba283398151915283528260205281832033845260205260ff82842054161561098b576007549060ff821615610951575060ff1916600755513381527f5db9ee0a495bf2e6ff9c91a7834c1ba4fdd244a5e8aa4e537bd38aeae4b073aa90602090a180f35b606490602084519162461bcd60e51b8352820152601460248201527314185d5cd8589b194e881b9bdd081c185d5cd95960621b6044820152fd5b6020608492519162461bcd60e51b8352820152603b60248201525f80516020611be283398151915260448201527f686176652070617573657220726f6c6520746f20756e706175736500000000006064820152fd5b5050346101a857806003193601126101a8576102c3602092610a29610a03611094565b338352600386528483206001600160a01b03821684528652918490205460243590611476565b90336116bf565b839150346101a857826003193601126101a857610a4b6110ae565b90336001600160a01b03831603610a67579061022f91356113f0565b608490602085519162461bcd60e51b8352820152602f60248201527f416363657373436f6e74726f6c3a2063616e206f6e6c792072656e6f756e636560448201526e103937b632b9903337b91039b2b63360891b6064820152fd5b5050346101a857816003193601126101a85760209060ff60075460081c169051908152f35b91905034610232578060031936011261023257610b509135906001610b0a6110ae565b92808652602090868252610b228385892001546110c4565b80875286825283872094838060a01b031694858852825260ff848820541615610b54575b8652528320611a0e565b5080f35b8087528682528387208588528252838720805460ff1916841790553385827f2f8788117e7eff1d82e926ec794901d17c78024a50270940304540a733656f0d8a80a4610b46565b91905034610232578260031936011261023257805191632efe8a5f60e01b8352309083015260646024830152602082604481866108015af1908115610c0a5750610be3575080fd5b6101a89060203d8111610c03575b610bfb818361102c565b810190611b69565b503d610bf1565b513d84823e3d90fd5b5050346101a857816003193601126101a857602090517f3c11d16cbaffd01df69ce1c404f6340ee057498f5f00246190ea54220576a8488152f35b90503461023257602036600319011261023257816020936001923581528085522001549051908152f35b5050346101a85760603660031901126101a8576020906102c3610c99611094565b610ca16110ae565b60443591610cb08333836117bd565b611497565b905034610232578160031936011261023257610ccf611094565b917f3c11d16cbaffd01df69ce1c404f6340ee057498f5f00246190ea54220576a84884528360205280842033855260205260ff818520541615610d19578361022f60243585611850565b906020608492519162461bcd60e51b8352820152603860248201525f80516020611be28339815191526044820152773430bb3290313ab93732b9103937b632903a3790313ab93760411b6064820152fd5b90503461023257826003193601126102325760209250549051908152f35b5050346101a857806003193601126101a8576020906102c3610da8611094565b60243590336116bf565b82843461036f578060031936011261036f578151918160055492600184811c91818616958615610e56575b602096878510811461046c578899509688969785829a5291825f14610445575050600114610e185750505061040392916103f491038561102c565b9190869350600583528383205b828410610e3e57505050820101816103f46104036103e1565b8054848a018601528895508794909301928101610e25565b92607f1692610ddd565b9190503461023257806003193601126102325767ffffffffffffffff908235828111610f935736602382011215610f935780840135928311610f8057815160209390610eb5601f8301601f191686018261102c565b81815286366024848601011161036f57858381946024610efe970183860137830101528351809381926353266bbb60e01b8352308984015260606024840152606483019061106f565b60243560448301520381886108005af1908115610f76578591610f59575b5015610f26578380f35b5162461bcd60e51b815291820152600f60248201526e6661696c656420746f207374616b6560881b604482015260649150fd5b610f709150833d8511610c0357610bfb818361102c565b5f610f1c565b82513d87823e3d90fd5b634e487b7160e01b855260418452602485fd5b8480fd5b849134610232576020366003190112610232573563ffffffff60e01b81168091036102325760209250635a05180f60e01b8114908115610fd9575b5015158152f35b637965db0b60e01b811491508115610ff3575b5083610fd2565b6301ffc9a760e01b14905083610fec565b67ffffffffffffffff811161101857604052565b634e487b7160e01b5f52604160045260245ffd5b90601f8019910116810190811067ffffffffffffffff82111761101857604052565b5f5b83811061105f5750505f910152565b8181015183820152602001611050565b906020916110888151809281855285808601910161104e565b601f01601f1916010190565b600435906001600160a01b03821682036110aa57565b5f80fd5b602435906001600160a01b03821682036110aa57565b5f90808252602090828252604092838120338252835260ff8482205416156110ec5750505050565b83519167ffffffffffffffff903360608501838111868210176113dc578752602a855285850191873684378551156113c857603083538551916001928310156113b4576078602188015360295b83811161134b575061130957908751936080850190858210908211176112f5578852604284528684019460603687378451156112e1576030865384518210156112e15790607860218601536041915b818311611274575050506112325761122e938693611212936112036048946111da9a519a8b9576020b1b1b2b9b9a1b7b73a3937b61d1030b1b1b7bab73a1604d1b8c880152518092603788019061104e565b8401917001034b99036b4b9b9b4b733903937b6329607d1b60378401525180938684019061104e565b0103602881018752018561102c565b5192839262461bcd60e51b84526004840152602483019061106f565b0390fd5b60648587519062461bcd60e51b825280600483015260248201527f537472696e67733a20686578206c656e67746820696e73756666696369656e746044820152fd5b909192600f811660108110156112cd576f181899199a1a9b1b9c1cb0b131b232b360811b901a6112a485886119d4565b5360041c9280156112b9575f19019190611188565b634e487b7160e01b82526011600452602482fd5b634e487b7160e01b83526032600452602483fd5b634e487b7160e01b81526032600452602490fd5b634e487b7160e01b86526041600452602486fd5b60648789519062461bcd60e51b825280600483015260248201527f537472696e67733a20686578206c656e67746820696e73756666696369656e746044820152fd5b90600f811660108110156113a0576f181899199a1a9b1b9c1cb0b131b232b360811b901a611379838a6119d4565b5360041c90801561138c575f1901611139565b634e487b7160e01b87526011600452602487fd5b634e487b7160e01b88526032600452602488fd5b634e487b7160e01b86526032600452602486fd5b634e487b7160e01b85526032600452602485fd5b634e487b7160e01b85526041600452602485fd5b90604061142c925f90808252816020528282209360018060a01b03169384835260205260ff838320541661142f575b8152600160205220611a90565b50565b8082528160205282822084835260205282822060ff1981541690553384827ff6391f5c32d9c69d2a47ea670b442974b53935d1edc7fd64eb21e047a839171b8580a461141f565b9190820180921161148357565b634e487b7160e01b5f52601160045260245ffd5b6001600160a01b0390811691821561166c571691821561161b576040908151918383525f80516020611b82833981519152606060209487868201528484820152a15f5b600581106115da575060ff6007541661158457835f5260028352805f20548281106115315790825f80516020611bc2833981519152949392865f526002855203815f2055855f52805f2082815401905551908152a3565b815162461bcd60e51b815260048101859052602660248201527f45524332303a207472616e7366657220616d6f756e7420657863656564732062604482015265616c616e636560d01b6064820152608490fd5b5162461bcd60e51b815260048101839052602a60248201527f45524332305061757361626c653a20746f6b656e207472616e736665722077686044820152691a5b19481c185d5cd95960b21b6064820152608490fd5b303b156110aa578151630b0140f560e21b81525f8160048183305af161160c575b505f198114611483576001016114da565b61161590611004565b5f6115fb565b60405162461bcd60e51b815260206004820152602360248201527f45524332303a207472616e7366657220746f20746865207a65726f206164647260448201526265737360e81b6064820152608490fd5b60405162461bcd60e51b815260206004820152602560248201527f45524332303a207472616e736665722066726f6d20746865207a65726f206164604482015264647265737360d81b6064820152608490fd5b6001600160a01b0390811691821561176c571691821561171c5760207f8c5be1e5ebec7d5bd14f71427d1e84f3dd0314c0f7b2291e5b200ac8c7c3b92591835f526003825260405f20855f5282528060405f2055604051908152a3565b60405162461bcd60e51b815260206004820152602260248201527f45524332303a20617070726f766520746f20746865207a65726f206164647265604482015261737360f01b6064820152608490fd5b60405162461bcd60e51b8152602060048201526024808201527f45524332303a20617070726f76652066726f6d20746865207a65726f206164646044820152637265737360e01b6064820152608490fd5b9060018060a01b038083165f52600360205260405f209082165f5260205260405f2054925f1984036117f0575b50505050565b80841061180b576118029303916116bf565b5f8080806117ea565b60405162461bcd60e51b815260206004820152601d60248201527f45524332303a20696e73756666696369656e7420616c6c6f77616e63650000006044820152606490fd5b6001600160a01b03168015611985576040918251908282525f935f80516020611b82833981519152606060209487868201528484820152a1845b6005811061192c575060ff600754166115845783855260028352808520548281106118dd5790825f80516020611bc2833981519152949392868852600285520381872055816004540360045551908152a3565b815162461bcd60e51b815260048101859052602260248201527f45524332303a206275726e20616d6f756e7420657863656564732062616c616e604482015261636560f01b6064820152608490fd5b303b15611981578151630b0140f560e21b8152868160048183305af1611972575b505f19811461195e5760010161188a565b634e487b7160e01b86526011600452602486fd5b61197b90611004565b5f61194d565b8580fd5b60405162461bcd60e51b815260206004820152602160248201527f45524332303a206275726e2066726f6d20746865207a65726f206164647265736044820152607360f81b6064820152608490fd5b9081518110156119e5570160200190565b634e487b7160e01b5f52603260045260245ffd5b80548210156119e5575f5260205f2001905f90565b9190600183015f90828252806020526040822054155f14611a8a57845494600160401b861015611a765783611a66611a50886001604098999a018555846119f9565b819391549060031b91821b915f19901b19161790565b9055549382526020522055600190565b634e487b7160e01b83526041600452602483fd5b50925050565b9060018201905f92818452826020526040842054908115155f14611b62575f199180830181811161138c57825490848201918211611b4e57808203611b19575b50505080548015611b0557820191611ae883836119f9565b909182549160031b1b191690555582526020526040812055600190565b634e487b7160e01b86526031600452602486fd5b611b39611b29611a5093866119f9565b90549060031b1c928392866119f9565b905586528460205260408620555f8080611ad0565b634e487b7160e01b88526011600452602488fd5b5050505090565b908160209103126110aa575180151581036110aa579056fe6a7461657441bf111caa502b48bec73847d91c1265dc315d914c2d2a6c95fcfe65d7a28e3265b37a6474929f336521b332c1681b933f6cb9f3376673440d862addf252ad1be2c89b69c2b068fc378daa952ba7f163c4a11628f55a4df523b3ef45524332304d696e7465724275726e6572446563696d616c733a206d75737420a2646970667358221220112898436238c34329120d4fb855e1db8025b781774a4b4b12be1c8d590aac3064736f6c634300081400332f8788117e7eff1d82e926ec794901d17c78024a50270940304540a733656f0d",
  "linkReferences": {},
  "deployedLinkReferences": {},
  "immutableReferences": {},
  "inputSourceName": "project/solidity/ERC20RecursiveRevertingPrecompileCall.sol",
  "buildInfoId": "solc-0_8_20-fda2ffeb444d7d9486f659e7e357f970dc6ac662"
}