{
  "_format": "hh3-artifact-1",
  "contractName": "ERC20MinterBurnerDecimals",
  "sourceName": "solidity/ERC20MinterBurnerDecimals.sol",
  "abi": [
    {
      "inputs": [
        {
          "internalType": "string",
          "name": "name",
          "type": "string"
        },
        {
          "internalType": "string",
          "name": "symbol",
          "type": "string"
        },
        {
          "internalType": "uint8",
          "name": "decimals_",
          "type": "uint8"
        }
      ],
      "stateMutability": "nonpayable",
      "type": "constructor"
    },
    {
      "inputs": [],
      "name": "AccessControlBadConfirmation",
      "type": "error"
    },
    {
      "inputs": [
        {
          "internalType": "address",
          "name": "account",
          "type": "address"
        },
        {
          "internalType": "bytes32",
          "name": "neededRole",
          "type": "bytes32"
        }
      ],
      "name": "AccessControlUnauthorizedAccount",
      "type": "error"
    },
    {
      "inputs": [
        {
          "internalType": "address",
          "name": "spender",
          "type": "address"
        },
        {
          "internalType": "uint256",
          "name": "allowance",
          "type": "uint256"
        },
        {
          "internalType": "uint256",
          "name": "needed",
          "type": "uint256"
        }
      ],
      "name": "ERC20InsufficientAllowance",
      "type": "error"
    },
    {
      "inputs": [
        {
          "internalType": "address",
          "name": "sender",
          "type": "address"
        },
        {
          "internalType": "uint256",
          "name": "balance",
          "type": "uint256"
        },
        {
          "internalType": "uint256",
          "name": "needed",
          "type": "uint256"
        }
      ],
      "name": "ERC20InsufficientBalance",
      "type": "error"
    },
    {
      "inputs": [
        {
          "internalType": "address",
          "name": "approver",
          "type": "address"
        }
      ],
      "name": "ERC20InvalidApprover",
      "type": "error"
    },
    {
      "inputs": [
        {
          "internalType": "address",
          "name": "receiver",
          "type": "address"
        }
      ],
      "name": "ERC20InvalidReceiver",
      "type": "error"
    },
    {
      "inputs": [
        {
          "internalType": "address",
          "name": "sender",
          "type": "address"
        }
      ],
      "name": "ERC20InvalidSender",
      "type": "error"
    },
    {
      "inputs": [
        {
          "internalType": "address",
          "name": "spender",
          "type": "address"
        }
      ],
      "name": "ERC20InvalidSpender",
      "type": "error"
    },
    {
      "inputs": [],
      "name": "EnforcedPause",
      "type": "error"
    },
    {
      "inputs": [],
      "name": "ExpectedPause",
      "type": "error"
    },
    {
      "anonymous": false,
      "inputs": [
        {
          "indexed": true,
          "internalType": "address",
          "name": "owner",
          "type": "address"
        },
        {
          "indexed": true,
          "internalType": "address",
          "name": "spender",
          "type": "address"
        },
        {
          "indexed": false,
          "internalType": "uint256",
          "name": "value",
          "type": "uint256"
        }
      ],
      "name": "Approval",
      "type": "event"
    },
    {
      "anonymous": false,
      "inputs": [
        {
          "indexed": false,
          "internalType": "address",
          "name": "account",
          "type": "address"
        }
      ],
      "name": "Paused",
      "type": "event"
    },
    {
      "anonymous": false,
      "inputs": [
        {
          "indexed": true,
          "internalType": "bytes32",
          "name": "role",
          "type": "bytes32"
        },
        {
          "indexed": true,
          "internalType": "bytes32",
          "name": "previousAdminRole",
          "type": "bytes32"
        },
        {
          "indexed": true,
          "internalType": "bytes32",
          "name": "newAdminRole",
          "type": "bytes32"
        }
      ],
      "name": "RoleAdminChanged",
      "type": "event"
    },
    {
      "anonymous": false,
      "inputs": [
        {
          "indexed": true,
          "internalType": "bytes32",
          "name": "role",
          "type": "bytes32"
        },
        {
          "indexed": true,
          "internalType": "address",
          "name": "account",
          "type": "address"
        },
        {
          "indexed": true,
          "internalType": "address",
          "name": "sender",
          "type": "address"
        }
      ],
      "name": "RoleGranted",
      "type": "event"
    },
    {
      "anonymous": false,
      "inputs": [
        {
          "indexed": true,
          "internalType": "bytes32",
          "name": "role",
          "type": "bytes32"
        },
        {
          "indexed": true,
          "internalType": "address",
          "name": "account",
          "type": "address"
        },
        {
          "indexed": true,
          "internalType": "address",
          "name": "sender",
          "type": "address"
        }
      ],
      "name": "RoleRevoked",
      "type": "event"
    },
    {
      "anonymous": false,
      "inputs": [
        {
          "indexed": true,
          "internalType": "address",
          "name": "from",
          "type": "address"
        },
        {
          "indexed": true,
          "internalType": "address",
          "name": "to",
          "type": "address"
        },
        {
          "indexed": false,
          "internalType": "uint256",
          "name": "value",
          "type": "uint256"
        }
      ],
      "name": "Transfer",
      "type": "event"
    },
    {
      "anonymous": false,
      "inputs": [
        {
          "indexed": false,
          "internalType": "address",
          "name": "account",
          "type": "address"
        }
      ],
      "name": "Unpaused",
      "type": "event"
    },
    {
      "inputs": [],
      "name": "BURNER_ROLE",
      "outputs": [
        {
          "internalType": "bytes32",
          "name": "",
          "type": "bytes32"
        }
      ],
      "stateMutability": "view",
      "type": "function"
    },
    {
      "inputs": [],
      "name": "DEFAULT_ADMIN_ROLE",
      "outputs": [
        {
          "internalType": "bytes32",
          "name": "",
          "type": "bytes32"
        }
      ],
      "stateMutability": "view",
      "type": "function"
    },
    {
      "inputs": [],
      "name": "MINTER_ROLE",
      "outputs": [
        {
          "internalType": "bytes32",
          "name": "",
          "type": "bytes32"
        }
      ],
      "stateMutability": "view",
      "type": "function"
    },
    {
      "inputs": [],
      "name": "PAUSER_ROLE",
      "outputs": [
        {
          "internalType": "bytes32",
          "name": "",
          "type": "bytes32"
        }
      ],
      "stateMutability": "view",
      "type": "function"
    },
    {
      "inputs": [
        {
          "internalType": "address",
          "name": "owner",
          "type": "address"
        },
        {
          "internalType": "address",
          "name": "spender",
          "type": "address"
        }
      ],
      "name": "allowance",
      "outputs": [
        {
          "internalType": "uint256",
          "name": "",
          "type": "uint256"
        }
      ],
      "stateMutability": "view",
      "type": "function"
    },
    {
      "inputs": [
        {
          "internalType": "address",
          "name": "spender",
          "type": "address"
        },
        {
          "internalType": "uint256",
          "name": "value",
          "type": "uint256"
        }
      ],
      "name": "approve",
      "outputs": [
        {
          "internalType": "bool",
          "name": "",
          "type": "bool"
        }
      ],
      "stateMutability": "nonpayable",
      "type": "function"
    },
    {
      "inputs": [
        {
          "internalType": "address",
          "name": "account",
          "type": "address"
        }
      ],
      "name": "balanceOf",
      "outputs": [
        {
          "internalType": "uint256",
          "name": "",
          "type": "uint256"
        }
      ],
      "stateMutability": "view",
      "type": "function"
    },
    {
      "inputs": [
        {
          "internalType": "uint256",
          "name": "value",
          "type": "uint256"
        }
      ],
      "name": "burn",
      "outputs": [],
      "stateMutability": "nonpayable",
      "type": "function"
    },
    {
      "inputs": [
        {
          "internalType": "address",
          "name": "from",
          "type": "address"
        },
        {
          "internalType": "uint256",
          "name": "amount",
          "type": "uint256"
        }
      ],
      "name": "burnCoins",
      "outputs": [],
      "stateMutability": "nonpayable",
      "type": "function"
    },
    {
      "inputs": [
        {
          "internalType": "address",
          "name": "account",
          "type": "address"
        },
        {
          "internalType": "uint256",
          "name": "value",
          "type": "uint256"
        }
      ],
      "name": "burnFrom",
      "outputs": [],
      "stateMutability": "nonpayable",
      "type": "function"
    },
    {
      "inputs": [],
      "name": "decimals",
      "outputs": [
        {
          "internalType": "uint8",
          "name": "",
          "type": "uint8"
        }
      ],
      "stateMutability": "view",
      "type": "function"
    },
    {
      "inputs": [
        {
          "internalType": "bytes32",
          "name": "role",
          "type": "bytes32"
        }
      ],
      "name": "getRoleAdmin",
      "outputs": [
        {
          "internalType": "bytes32",
          "name": "",
          "type": "bytes32"
        }
      ],
      "stateMutability": "view",
      "type": "function"
    },
    {
      "inputs": [
        {
          "internalType": "bytes32",
          "name": "role",
          "type": "bytes32"
        },
        {
          "internalType": "uint256",
          "name": "index",
          "type": "uint256"
        }
      ],
      "name": "getRoleMember",
      "outputs": [
        {
          "internalType": "address",
          "name": "",
          "type": "address"
        }
      ],
      "stateMutability": "view",
      "type": "function"
    },
    {
      "inputs": [
        {
          "internalType": "bytes32",
          "name": "role",
          "type": "bytes32"
        }
      ],
      "name": "getRoleMemberCount",
      "outputs": [
        {
          "internalType": "uint256",
          "name": "",
          "type": "uint256"
        }
      ],
      "stateMutability": "view",
      "type": "function"
    },
    {
      "inputs": [
        {
          "internalType": "bytes32",
          "name": "role",
          "type": "bytes32"
        }
      ],
      "name": "getRoleMembers",
      "outputs": [
        {
          "internalType": "address[]",
          "name": "",
          "type": "address[]"
        }
      ],
      "stateMutability": "view",
      "type": "function"
    },
    {
      "inputs": [
        {
          "internalType": "bytes32",
          "name": "role",
          "type": "bytes32"
        },
        {
          "internalType": "address",
          "name": "account",
          "type": "address"
        }
      ],
      "name": "grantRole",
      "outputs": [],
      "stateMutability": "nonpayable",
      "type": "function"
    },
    {
      "inputs": [
        {
          "internalType": "bytes32",
          "name": "role",
          "type": "bytes32"
        },
        {
          "internalType": "address",
          "name": "account",
          "type": "address"
        }
      ],
      "name": "hasRole",
      "outputs": [
        {
          "internalType": "bool",
          "name": "",
          "type": "bool"
        }
      ],
      "stateMutability": "view",
      "type": "function"
    },
    {
      "inputs": [
        {
          "internalType": "address",
          "name": "to",
          "type": "address"
        },
        {
          "internalType": "uint256",
          "name": "amount",
          "type": "uint256"
        }
      ],
      "name": "mint",
      "outputs": [],
      "stateMutability": "nonpayable",
      "type": "function"
    },
    {
      "inputs": [],
      "name": "name",
      "outputs": [
        {
          "internalType": "string",
          "name": "",
          "type": "string"
        }
      ],
      "stateMutability": "view",
      "type": "function"
    },
    {
      "inputs": [],
      "name": "pause",
      "outputs": [],
      "stateMutability": "nonpayable",
      "type": "function"
    },
    {
      "inputs": [],
      "name": "paused",
      "outputs": [
        {
          "internalType": "bool",
          "name": "",
          "type": "bool"
        }
      ],
      "stateMutability": "view",
      "type": "function"
    },
    {
      "inputs": [
        {
          "internalType": "bytes32",
          "name": "role",
          "type": "bytes32"
        },
        {
          "internalType": "address",
          "name": "callerConfirmation",
          "type": "address"
        }
      ],
      "name": "renounceRole",
      "outputs": [],
      "stateMutability": "nonpayable",
      "type": "function"
    },
    {
      "inputs": [
        {
          "internalType": "bytes32",
          "name": "role",
          "type": "bytes32"
        },
        {
          "internalType": "address",
          "name": "account",
          "type": "address"
        }
      ],
      "name": "revokeRole",
      "outputs": [],
      "stateMutability": "nonpayable",
      "type": "function"
    },
    {
      "inputs": [
        {
          "internalType": "bytes4",
          "name": "interfaceId",
          "type": "bytes4"
        }
      ],
      "name": "supportsInterface",
      "outputs": [
        {
          "internalType": "bool",
          "name": "",
          "type": "bool"
        }
      ],
      "stateMutability": "view",
      "type": "function"
    },
    {
      "inputs": [],
      "name": "symbol",
      "outputs": [
        {
          "internalType": "string",
          "name": "",
          "type": "string"
        }
      ],
      "stateMutability": "view",
      "type": "function"
    },
    {
      "inputs": [],
      "name": "totalSupply",
      "outputs": [
        {
          "internalType": "uint256",
          "name": "",
          "type": "uint256"
        }
      ],
      "stateMutability": "view",
      "type": "function"
    },
    {
      "inputs": [
        {
          "internalType": "address",
          "name": "to",
          "type": "address"
        },
        {
          "internalType": "uint256",
          "name": "value",
          "type": "uint256"
        }
      ],
      "name": "transfer",
      "outputs": [
        {
          "internalType": "bool",
          "name": "",
          "type": "bool"
        }
      ],
      "stateMutability": "nonpayable",
      "type": "function"
    },
    {
      "inputs": [
        {
          "internalType": "address",
          "name": "from",
          "type": "address"
        },
        {
          "internalType": "address",
          "name": "to",
          "type": "address"
        },
        {
          "internalType": "uint256",
          "name": "value",
          "type": "uint256"
        }
      ],
      "name": "transferFrom",
      "outputs": [
        {
          "internalType": "bool",
          "name": "",
          "type": "bool"
        }
      ],
      "stateMutability": "nonpayable",
      "type": "function"
    },
    {
      "inputs": [],
      "name": "unpause",
      "outputs": [],
      "stateMutability": "nonpayable",
      "type": "function"
    }
  ],
  "bytecode": "0x60806040523461045b57611aa5803803806100198161045f565b92833981019060608183031261045b5780516001600160401b03811161045b5782610045918301610484565b60208201519092906001600160401b03811161045b57604091610069918401610484565b91015160ff8116810361045b5782516001600160401b03811161038957600554600181811c91168015610451575b602082101461036b57601f811161040b575b506020601f82116001146103a857819293945f9261039d575b50508160011b915f199060031b1c1916176005555b81516001600160401b03811161038957600654600181811c9116801561037f575b602082101461036b57601f8111610308575b50602092601f82116001146102a757928192935f9261029c575b50508160011b915f199060031b1c1916176006555b610142336104d5565b610264575b6101503361054b565b61021f575b61015e336105cb565b6101da575b61016c3361064b565b610195575b61ff006007549160081b169061ff00191617600755604051611269908161073c8239f35b5f5160206119c55f395f51905f525f5260016020526101d4337f4796a5437e25bdc491b74d328cf6b437c8587e216f52049c7df56421f51ae30f6106cb565b50610171565b5f516020611a255f395f51905f525f526001602052610219337fb9cbbae02fe941283ec0eefd7b121e3bc7f89fae077b27bdd75a7fd4cf1543a86106cb565b50610163565b5f516020611a455f395f51905f525f52600160205261025e337f64e21244e91af723e1b962171ed4828dcecc0d7b89872e516a5db8266da800006106cb565b50610155565b5f80526001602052610296337fa6eef7e35abe7026729641147f7915573c7e97b47efa546f5f6e3230263bcb496106cb565b50610147565b015190505f80610124565b601f1982169360065f52805f20915f5b8681106102f057508360019596106102d8575b505050811b01600655610139565b01515f1960f88460031b161c191690555f80806102ca565b919260206001819286850151815501940192016102b7565b60065f527ff652222313e28459528d920b65115c16c04f3efc82aaedc97be59f3f377c0d3f601f830160051c81019160208410610361575b601f0160051c01905b818110610356575061010a565b5f8155600101610349565b9091508190610340565b634e487b7160e01b5f52602260045260245ffd5b90607f16906100f8565b634e487b7160e01b5f52604160045260245ffd5b015190505f806100c2565b601f1982169060055f52805f20915f5b8181106103f3575095836001959697106103db575b505050811b016005556100d7565b01515f1960f88460031b161c191690555f80806103cd565b9192602060018192868b0151815501940192016103b8565b60055f5260205f20601f830160051c81019160208410610447575b601f0160051c01905b81811061043c57506100a9565b5f815560010161042f565b9091508190610426565b90607f1690610097565b5f80fd5b6040519190601f01601f191682016001600160401b0381118382101761038957604052565b81601f8201121561045b578051906001600160401b038211610389576104b3601f8301601f191660200161045f565b928284526020838301011161045b57815f9260208093018386015e8301015290565b6001600160a01b0381165f9081525f516020611a855f395f51905f52602052604090205460ff16610546576001600160a01b03165f8181525f516020611a855f395f51905f5260205260408120805460ff191660011790553391905f5160206119a55f395f51905f528180a4600190565b505f90565b6001600160a01b0381165f9081525f5160206119e55f395f51905f52602052604090205460ff16610546576001600160a01b03165f8181525f5160206119e55f395f51905f5260205260408120805460ff191660011790553391905f516020611a455f395f51905f52905f5160206119a55f395f51905f529080a4600190565b6001600160a01b0381165f9081525f516020611a055f395f51905f52602052604090205460ff16610546576001600160a01b03165f8181525f516020611a055f395f51905f5260205260408120805460ff191660011790553391905f516020611a255f395f51905f52905f5160206119a55f395f51905f529080a4600190565b6001600160a01b0381165f9081525f516020611a655f395f51905f52602052604090205460ff16610546576001600160a01b03165f8181525f516020611a655f395f51905f5260205260408120805460ff191660011790553391905f5160206119c55f395f51905f52905f5160206119a55f395f51905f529080a4600190565b6001810190825f528160205260405f2054155f14610734578054680100000000000000008110156103895760018101808355811015610720578390825f5260205f20015554915f5260205260405f2055600190565b634e487b7160e01b5f52603260045260245ffd5b5050505f9056fe6080806040526004361015610012575f80fd5b5f3560e01c90816301ffc9a714610c4d5750806306fdde0314610b92578063095ea7b314610aea57806318160ddd14610acd5780631cf2c7e214610a1e57806323b872dd146109e6578063248a9ca3146109b4578063282c51f31461097a5780632f2ff15d14610915578063313ce567146108f257806336568abe146108ae5780633f4ba83a146107c257806340c10f191461069e57806342966c68146106815780635c975abb1461065f57806370a082311461062757806379cc6790146105f75780638456cb591461051c5780639010d07c146104d757806391d148541461048f57806395d89b411461038b578063a217fddf14610371578063a3246ad3146102c2578063a9059cbb14610291578063ca15c87314610267578063d53913931461022d578063d547741f146101e9578063dd62ed3e146101995763e63ab1e91461015b575f80fd5b34610195575f3660031901126101955760206040517f65d7a28e3265b37a6474929f336521b332c1681b933f6cb9f3376673440d862a8152f35b5f80fd5b34610195576040366003190112610195576101b2610ce4565b6101ba610cfa565b6001600160a01b039182165f908152600360209081526040808320949093168252928352819020549051908152f35b346101955760403660031901126101955761022b600435610208610cfa565b90610226610221825f525f602052600160405f20015490565b610f06565b610f3e565b005b34610195575f3660031901126101955760206040517f9f2df0fed2c77648de5860a4cc508cd0818c85b8b8a1ab4ceeef8d981c8956a68152f35b34610195576020366003190112610195576004355f526001602052602060405f2054604051908152f35b34610195576040366003190112610195576102b76102ad610ce4565b6024359033610e77565b602060405160018152f35b34610195576020366003190112610195576004355f52600160205260405f20604051806020835491828152019081935f5260205f20905f5b81811061035b5750505081610310910382610d10565b604051918291602083019060208452518091526040830191905f5b818110610339575050500390f35b82516001600160a01b031684528594506020938401939092019160010161032b565b82548452602090930192600192830192016102fa565b34610195575f3660031901126101955760206040515f8152f35b34610195575f366003190112610195576040515f6006548060011c90600181168015610485575b6020831081146104715782855290811561044d57506001146103ef575b6103eb836103df81850382610d10565b60405191829182610cba565b0390f35b60065f9081527ff652222313e28459528d920b65115c16c04f3efc82aaedc97be59f3f377c0d3f939250905b808210610433575090915081016020016103df6103cf565b91926001816020925483858801015201910190929161041b565b60ff191660208086019190915291151560051b840190910191506103df90506103cf565b634e487b7160e01b5f52602260045260245ffd5b91607f16916103b2565b34610195576040366003190112610195576104a8610cfa565b6004355f525f60205260405f209060018060a01b03165f52602052602060ff60405f2054166040519015158152f35b34610195576040366003190112610195576004355f526001602052602061050360243560405f2061109b565b905460405160039290921b1c6001600160a01b03168152f35b34610195575f36600319011261019557335f9081527ff7c9542c591017a21c74b6f3fab6263c7952fc0aaf9db4c22a2a04ddc7f8674f602052604090205460ff16156105a35761056a611080565b600160ff1960075416176007557f62e78cea01bee320cd4e420270b5ea74000d11b0c9f74754ebdbfc544b05a2586020604051338152a1005b60405162461bcd60e51b815260206004820152603960248201525f5160206112145f395f51905f52604482015278686176652070617573657220726f6c6520746f20706175736560381b6064820152608490fd5b346101955760403660031901126101955761022b610613610ce4565b60243590610622823383610dd4565b610d46565b34610195576020366003190112610195576001600160a01b03610648610ce4565b165f526002602052602060405f2054604051908152f35b34610195575f36600319011261019557602060ff600754166040519015158152f35b346101955760203660031901126101955761022b60043533610d46565b34610195576040366003190112610195576106b7610ce4565b335f9081527f0781d7cac9c378efa22a7481e4d4d29704a680ddf504b3bc50b517700ee11e6c6020526040902054602435919060ff161561076f576001600160a01b031690811561075c5761070a611080565b600454908082018092116107485760205f5160206111f45f395f51905f52915f936004558484526002825260408420818154019055604051908152a3005b634e487b7160e01b5f52601160045260245ffd5b63ec442f0560e01b5f525f60045260245ffd5b60405162461bcd60e51b815260206004820152603860248201525f5160206112145f395f51905f526044820152771a185d99481b5a5b9d195c881c9bdb19481d1bc81b5a5b9d60421b6064820152608490fd5b34610195575f36600319011261019557335f9081527ff7c9542c591017a21c74b6f3fab6263c7952fc0aaf9db4c22a2a04ddc7f8674f602052604090205460ff16156108565760075460ff8116156108475760ff19166007557f5db9ee0a495bf2e6ff9c91a7834c1ba4fdd244a5e8aa4e537bd38aeae4b073aa6020604051338152a1005b638dfc202b60e01b5f5260045ffd5b60405162461bcd60e51b815260206004820152603b60248201525f5160206112145f395f51905f5260448201527f686176652070617573657220726f6c6520746f20756e706175736500000000006064820152608490fd5b34610195576040366003190112610195576108c7610cfa565b336001600160a01b038216036108e35761022b90600435610f3e565b63334bd91960e11b5f5260045ffd5b34610195575f36600319011261019557602060ff60075460081c16604051908152f35b3461019557604036600319011261019557600435610931610cfa565b610949610221835f525f602052600160405f20015490565b6109538183610f78565b61095957005b5f9182526001602052604090912061022b916001600160a01b0316906110c4565b34610195575f3660031901126101955760206040517f3c11d16cbaffd01df69ce1c404f6340ee057498f5f00246190ea54220576a8488152f35b346101955760203660031901126101955760206109de6004355f525f602052600160405f20015490565b604051908152f35b34610195576060366003190112610195576102b7610a02610ce4565b610a0a610cfa565b60443591610a19833383610dd4565b610e77565b3461019557604036600319011261019557610a37610ce4565b335f9081527f6bc61e8d8a7feeba9a3dfbe950298fbca23cf0136992f9ef92f1b5529ac870ae602052604090205460ff1615610a7a5761022b9060243590610d46565b60405162461bcd60e51b815260206004820152603860248201525f5160206112145f395f51905f526044820152773430bb3290313ab93732b9103937b632903a3790313ab93760411b6064820152608490fd5b34610195575f366003190112610195576020600454604051908152f35b3461019557604036600319011261019557610b03610ce4565b602435903315610b7f576001600160a01b0316908115610b6c57335f52600360205260405f20825f526020528060405f20556040519081527f8c5be1e5ebec7d5bd14f71427d1e84f3dd0314c0f7b2291e5b200ac8c7c3b92560203392a3602060405160018152f35b634a1406b160e11b5f525f60045260245ffd5b63e602df0560e01b5f525f60045260245ffd5b34610195575f366003190112610195576040515f6005548060011c90600181168015610c43575b6020831081146104715782855290811561044d5750600114610be5576103eb836103df81850382610d10565b60055f9081527f036b6384b5eca791c62761152d0c79bb0604c104a5fb6f4eb0703f3154bb3db0939250905b808210610c29575090915081016020016103df6103cf565b919260018160209254838588010152019101909291610c11565b91607f1691610bb9565b34610195576020366003190112610195576004359063ffffffff60e01b821680920361019557602091635a05180f60e01b8114908115610c8f575b5015158152f35b637965db0b60e01b811491508115610ca9575b5083610c88565b6301ffc9a760e01b14905083610ca2565b602060409281835280519182918282860152018484015e5f828201840152601f01601f1916010190565b600435906001600160a01b038216820361019557565b602435906001600160a01b038216820361019557565b90601f8019910116810190811067ffffffffffffffff821117610d3257604052565b634e487b7160e01b5f52604160045260245ffd5b9091906001600160a01b03168015610dc157610d60611080565b805f52600260205260405f2054838110610da7576020845f94955f5160206111f45f395f51905f5293858752600284520360408620558060045403600455604051908152a3565b915063391434e360e21b5f5260045260245260445260645ffd5b634b637e8f60e11b5f525f60045260245ffd5b6001600160a01b039081165f818152600360209081526040808320948616835293905291909120549291905f198410610e0e575b50505050565b828410610e54578015610b7f576001600160a01b03821615610b6c575f52600360205260405f209060018060a01b03165f5260205260405f20910390555f808080610e08565b508290637dc7a0d960e11b5f5260018060a01b031660045260245260445260645ffd5b6001600160a01b0316908115610dc1576001600160a01b031691821561075c57610e9f611080565b815f52600260205260405f2054818110610eed57815f5160206111f45f395f51905f5292602092855f52600284520360405f2055845f526002825260405f20818154019055604051908152a3565b8263391434e360e21b5f5260045260245260445260645ffd5b5f8181526020818152604080832033845290915290205460ff1615610f285750565b63e2517d3f60e01b5f523360045260245260445ffd5b610f488282611000565b9182610f5357505090565b5f91825260016020526040909120610f74916001600160a01b03169061112e565b5090565b5f818152602081815260408083206001600160a01b038616845290915290205460ff16610ffa575f818152602081815260408083206001600160a01b0395909516808452949091528120805460ff19166001179055339291907f2f8788117e7eff1d82e926ec794901d17c78024a50270940304540a733656f0d9080a4600190565b50505f90565b5f818152602081815260408083206001600160a01b038616845290915290205460ff1615610ffa575f818152602081815260408083206001600160a01b0395909516808452949091528120805460ff19169055339291907ff6391f5c32d9c69d2a47ea670b442974b53935d1edc7fd64eb21e047a839171b9080a4600190565b60ff6007541661108c57565b63d93c066560e01b5f5260045ffd5b80548210156110b0575f5260205f2001905f90565b634e487b7160e01b5f52603260045260245ffd5b6001810190825f528160205260405f2054155f14611127578054600160401b811015610d32576111146110fe82600187940185558461109b565b819391549060031b91821b915f19901b19161790565b905554915f5260205260405f2055600190565b5050505f90565b906001820191815f528260205260405f20548015155f146111eb575f1981018181116107485782545f19810191908211610748578181036111b6575b505050805480156111a2575f190190611183828261109b565b8154905f199060031b1b19169055555f526020525f6040812055600190565b634e487b7160e01b5f52603160045260245ffd5b6111d66111c66110fe938661109b565b90549060031b1c9283928661109b565b90555f528360205260405f20555f808061116a565b505050505f9056feddf252ad1be2c89b69c2b068fc378daa952ba7f163c4a11628f55a4df523b3ef45524332304d696e7465724275726e6572446563696d616c733a206d75737420a2646970667358221220454e47652b88ae504345418d4a74fe2571409d0f917260591a22233252d1d30664736f6c634300081c00332f8788117e7eff1d82e926ec794901d17c78024a50270940304540a733656f0d3c11d16cbaffd01df69ce1c404f6340ee057498f5f00246190ea54220576a8480781d7cac9c378efa22a7481e4d4d29704a680ddf504b3bc50b517700ee11e6cf7c9542c591017a21c74b6f3fab6263c7952fc0aaf9db4c22a2a04ddc7f8674f65d7a28e3265b37a6474929f336521b332c1681b933f6cb9f3376673440d862a9f2df0fed2c77648de5860a4cc508cd0818c85b8b8a1ab4ceeef8d981c8956a66bc61e8d8a7feeba9a3dfbe950298fbca23cf0136992f9ef92f1b5529ac870aead3228b676f7d3cd4284a5443f17f1962b36e491b30a40b2405849e597ba5fb5",
  "linkReferences": {},
  "deployedLinkReferences": {},
  "immutableReferences": {},
  "inputSourceName": "project/solidity/ERC20MinterBurnerDecimals.sol",
  "buildInfoId": "solc-0_8_28-e55ad96646b3bb5046840fe24a1f6856fc44be2c"
}