{
  "_format": "hh3-artifact-1",
  "contractName": "ERC20MinterBurnerDecimals",
  "sourceName": "solidity/ERC20MinterBurnerDecimals.sol",
  "abi": [
    {
      "inputs": [
        {
          "internalType": "string",
          "name": "name",
          "type": "string"
        },
        {
          "internalType": "string",
          "name": "symbol",
          "type": "string"
        },
        {
          "internalType": "uint8",
          "name": "decimals_",
          "type": "uint8"
        }
      ],
      "stateMutability": "nonpayable",
      "type": "constructor"
    },
    {
      "anonymous": false,
      "inputs": [
        {
          "indexed": true,
          "internalType": "address",
          "name": "owner",
          "type": "address"
        },
        {
          "indexed": true,
          "internalType": "address",
          "name": "spender",
          "type": "address"
        },
        {
          "indexed": false,
          "internalType": "uint256",
          "name": "value",
          "type": "uint256"
        }
      ],
      "name": "Approval",
      "type": "event"
    },
    {
      "anonymous": false,
      "inputs": [
        {
          "indexed": false,
          "internalType": "address",
          "name": "account",
          "type": "address"
        }
      ],
      "name": "Paused",
      "type": "event"
    },
    {
      "anonymous": false,
      "inputs": [
        {
          "indexed": true,
          "internalType": "bytes32",
          "name": "role",
          "type": "bytes32"
        },
        {
          "indexed": true,
          "internalType": "bytes32",
          "name": "previousAdminRole",
          "type": "bytes32"
        },
        {
          "indexed": true,
          "internalType": "bytes32",
          "name": "newAdminRole",
          "type": "bytes32"
        }
      ],
      "name": "RoleAdminChanged",
      "type": "event"
    },
    {
      "anonymous": false,
      "inputs": [
        {
          "indexed": true,
          "internalType": "bytes32",
          "name": "role",
          "type": "bytes32"
        },
        {
          "indexed": true,
          "internalType": "address",
          "name": "account",
          "type": "address"
        },
        {
          "indexed": true,
          "internalType": "address",
          "name": "sender",
          "type": "address"
        }
      ],
      "name": "RoleGranted",
      "type": "event"
    },
    {
      "anonymous": false,
      "inputs": [
        {
          "indexed": true,
          "internalType": "bytes32",
          "name": "role",
          "type": "bytes32"
        },
        {
          "indexed": true,
          "internalType": "address",
          "name": "account",
          "type": "address"
        },
        {
          "indexed": true,
          "internalType": "address",
          "name": "sender",
          "type": "address"
        }
      ],
      "name": "RoleRevoked",
      "type": "event"
    },
    {
      "anonymous": false,
      "inputs": [
        {
          "indexed": true,
          "internalType": "address",
          "name": "from",
          "type": "address"
        },
        {
          "indexed": true,
          "internalType": "address",
          "name": "to",
          "type": "address"
        },
        {
          "indexed": false,
          "internalType": "uint256",
          "name": "value",
          "type": "uint256"
        }
      ],
      "name": "Transfer",
      "type": "event"
    },
    {
      "anonymous": false,
      "inputs": [
        {
          "indexed": false,
          "internalType": "address",
          "name": "account",
          "type": "address"
        }
      ],
      "name": "Unpaused",
      "type": "event"
    },
    {
      "inputs": [],
      "name": "BURNER_ROLE",
      "outputs": [
        {
          "internalType": "bytes32",
          "name": "",
          "type": "bytes32"
        }
      ],
      "stateMutability": "view",
      "type": "function"
    },
    {
      "inputs": [],
      "name": "DEFAULT_ADMIN_ROLE",
      "outputs": [
        {
          "internalType": "bytes32",
          "name": "",
          "type": "bytes32"
        }
      ],
      "stateMutability": "view",
      "type": "function"
    },
    {
      "inputs": [],
      "name": "MINTER_ROLE",
      "outputs": [
        {
          "internalType": "bytes32",
          "name": "",
          "type": "bytes32"
        }
      ],
      "stateMutability": "view",
      "type": "function"
    },
    {
      "inputs": [],
      "name": "PAUSER_ROLE",
      "outputs": [
        {
          "internalType": "bytes32",
          "name": "",
          "type": "bytes32"
        }
      ],
      "stateMutability": "view",
      "type": "function"
    },
    {
      "inputs": [
        {
          "internalType": "address",
          "name": "owner",
          "type": "address"
        },
        {
          "internalType": "address",
          "name": "spender",
          "type": "address"
        }
      ],
      "name": "allowance",
      "outputs": [
        {
          "internalType": "uint256",
          "name": "",
          "type": "uint256"
        }
      ],
      "stateMutability": "view",
      "type": "function"
    },
    {
      "inputs": [
        {
          "internalType": "address",
          "name": "spender",
          "type": "address"
        },
        {
          "internalType": "uint256",
          "name": "amount",
          "type": "uint256"
        }
      ],
      "name": "approve",
      "outputs": [
        {
          "internalType": "bool",
          "name": "",
          "type": "bool"
        }
      ],
      "stateMutability": "nonpayable",
      "type": "function"
    },
    {
      "inputs": [
        {
          "internalType": "address",
          "name": "account",
          "type": "address"
        }
      ],
      "name": "balanceOf",
      "outputs": [
        {
          "internalType": "uint256",
          "name": "",
          "type": "uint256"
        }
      ],
      "stateMutability": "view",
      "type": "function"
    },
    {
      "inputs": [
        {
          "internalType": "uint256",
          "name": "amount",
          "type": "uint256"
        }
      ],
      "name": "burn",
      "outputs": [],
      "stateMutability": "nonpayable",
      "type": "function"
    },
    {
      "inputs": [
        {
          "internalType": "address",
          "name": "from",
          "type": "address"
        },
        {
          "internalType": "uint256",
          "name": "amount",
          "type": "uint256"
        }
      ],
      "name": "burnCoins",
      "outputs": [],
      "stateMutability": "nonpayable",
      "type": "function"
    },
    {
      "inputs": [
        {
          "internalType": "address",
          "name": "account",
          "type": "address"
        },
        {
          "internalType": "uint256",
          "name": "amount",
          "type": "uint256"
        }
      ],
      "name": "burnFrom",
      "outputs": [],
      "stateMutability": "nonpayable",
      "type": "function"
    },
    {
      "inputs": [],
      "name": "decimals",
      "outputs": [
        {
          "internalType": "uint8",
          "name": "",
          "type": "uint8"
        }
      ],
      "stateMutability": "view",
      "type": "function"
    },
    {
      "inputs": [
        {
          "internalType": "address",
          "name": "spender",
          "type": "address"
        },
        {
          "internalType": "uint256",
          "name": "subtractedValue",
          "type": "uint256"
        }
      ],
      "name": "decreaseAllowance",
      "outputs": [
        {
          "internalType": "bool",
          "name": "",
          "type": "bool"
        }
      ],
      "stateMutability": "nonpayable",
      "type": "function"
    },
    {
      "inputs": [
        {
          "internalType": "bytes32",
          "name": "role",
          "type": "bytes32"
        }
      ],
      "name": "getRoleAdmin",
      "outputs": [
        {
          "internalType": "bytes32",
          "name": "",
          "type": "bytes32"
        }
      ],
      "stateMutability": "view",
      "type": "function"
    },
    {
      "inputs": [
        {
          "internalType": "bytes32",
          "name": "role",
          "type": "bytes32"
        },
        {
          "internalType": "uint256",
          "name": "index",
          "type": "uint256"
        }
      ],
      "name": "getRoleMember",
      "outputs": [
        {
          "internalType": "address",
          "name": "",
          "type": "address"
        }
      ],
      "stateMutability": "view",
      "type": "function"
    },
    {
      "inputs": [
        {
          "internalType": "bytes32",
          "name": "role",
          "type": "bytes32"
        }
      ],
      "name": "getRoleMemberCount",
      "outputs": [
        {
          "internalType": "uint256",
          "name": "",
          "type": "uint256"
        }
      ],
      "stateMutability": "view",
      "type": "function"
    },
    {
      "inputs": [
        {
          "internalType": "bytes32",
          "name": "role",
          "type": "bytes32"
        },
        {
          "internalType": "address",
          "name": "account",
          "type": "address"
        }
      ],
      "name": "grantRole",
      "outputs": [],
      "stateMutability": "nonpayable",
      "type": "function"
    },
    {
      "inputs": [
        {
          "internalType": "bytes32",
          "name": "role",
          "type": "bytes32"
        },
        {
          "internalType": "address",
          "name": "account",
          "type": "address"
        }
      ],
      "name": "hasRole",
      "outputs": [
        {
          "internalType": "bool",
          "name": "",
          "type": "bool"
        }
      ],
      "stateMutability": "view",
      "type": "function"
    },
    {
      "inputs": [
        {
          "internalType": "address",
          "name": "spender",
          "type": "address"
        },
        {
          "internalType": "uint256",
          "name": "addedValue",
          "type": "uint256"
        }
      ],
      "name": "increaseAllowance",
      "outputs": [
        {
          "internalType": "bool",
          "name": "",
          "type": "bool"
        }
      ],
      "stateMutability": "nonpayable",
      "type": "function"
    },
    {
      "inputs": [
        {
          "internalType": "address",
          "name": "to",
          "type": "address"
        },
        {
          "internalType": "uint256",
          "name": "amount",
          "type": "uint256"
        }
      ],
      "name": "mint",
      "outputs": [],
      "stateMutability": "nonpayable",
      "type": "function"
    },
    {
      "inputs": [],
      "name": "name",
      "outputs": [
        {
          "internalType": "string",
          "name": "",
          "type": "string"
        }
      ],
      "stateMutability": "view",
      "type": "function"
    },
    {
      "inputs": [],
      "name": "pause",
      "outputs": [],
      "stateMutability": "nonpayable",
      "type": "function"
    },
    {
      "inputs": [],
      "name": "paused",
      "outputs": [
        {
          "internalType": "bool",
          "name": "",
          "type": "bool"
        }
      ],
      "stateMutability": "view",
      "type": "function"
    },
    {
      "inputs": [
        {
          "internalType": "bytes32",
          "name": "role",
          "type": "bytes32"
        },
        {
          "internalType": "address",
          "name": "account",
          "type": "address"
        }
      ],
      "name": "renounceRole",
      "outputs": [],
      "stateMutability": "nonpayable",
      "type": "function"
    },
    {
      "inputs": [
        {
          "internalType": "bytes32",
          "name": "role",
          "type": "bytes32"
        },
        {
          "internalType": "address",
          "name": "account",
          "type": "address"
        }
      ],
      "name": "revokeRole",
      "outputs": [],
      "stateMutability": "nonpayable",
      "type": "function"
    },
    {
      "inputs": [
        {
          "internalType": "bytes4",
          "name": "interfaceId",
          "type": "bytes4"
        }
      ],
      "name": "supportsInterface",
      "outputs": [
        {
          "internalType": "bool",
          "name": "",
          "type": "bool"
        }
      ],
      "stateMutability": "view",
      "type": "function"
    },
    {
      "inputs": [],
      "name": "symbol",
      "outputs": [
        {
          "internalType": "string",
          "name": "",
          "type": "string"
        }
      ],
      "stateMutability": "view",
      "type": "function"
    },
    {
      "inputs": [],
      "name": "totalSupply",
      "outputs": [
        {
          "internalType": "uint256",
          "name": "",
          "type": "uint256"
        }
      ],
      "stateMutability": "view",
      "type": "function"
    },
    {
      "inputs": [
        {
          "internalType": "address",
          "name": "to",
          "type": "address"
        },
        {
          "internalType": "uint256",
          "name": "amount",
          "type": "uint256"
        }
      ],
      "name": "transfer",
      "outputs": [
        {
          "internalType": "bool",
          "name": "",
          "type": "bool"
        }
      ],
      "stateMutability": "nonpayable",
      "type": "function"
    },
    {
      "inputs": [
        {
          "internalType": "address",
          "name": "from",
          "type": "address"
        },
        {
          "internalType": "address",
          "name": "to",
          "type": "address"
        },
        {
          "internalType": "uint256",
          "name": "amount",
          "type": "uint256"
        }
      ],
      "name": "transferFrom",
      "outputs": [
        {
          "internalType": "bool",
          "name": "",
          "type": "bool"
        }
      ],
      "stateMutability": "nonpayable",
      "type": "function"
    },
    {
      "inputs": [],
      "name": "unpause",
      "outputs": [],
      "stateMutability": "nonpayable",
      "type": "function"
    }
  ],
  "bytecode": "0x60406080815234620005235762001efd803803806200001e8162000527565b9283398101606082820312620005235781516001600160401b039190828111620005235781620000509185016200054d565b9160209182850151828111620005235786916200006f9187016200054d565b9401519360ff851685036200052357835182811162000443576005918254916001968784811c9416801562000518575b8785101462000424578190601f94858111620004c7575b50879085831160011462000463575f9262000457575b50505f19600383901b1c191690871b1783555b805193841162000443576006548681811c9116801562000438575b8682101462000424578493838211620003cd575b50508491831160011462000367575f926200035b575b50505f19600383901b1c191690831b176006555b60ff1980600754166007555f80525f8252845f20335f52825260ff855f2054161562000327575b5f80528282526200017333865f20620005bd565b507f9f2df0fed2c77648de5860a4cc508cd0818c85b8b8a1ab4ceeef8d981c8956a6805f525f8352855f20335f52835260ff865f20541615620002f3575b5f52828252620001c433865f20620005bd565b507f65d7a28e3265b37a6474929f336521b332c1681b933f6cb9f3376673440d862a805f525f8352855f20335f52835260ff865f20541615620002bf575b5f528282526200021533865f20620005bd565b507f3c11d16cbaffd01df69ce1c404f6340ee057498f5f00246190ea54220576a84890815f525f8352855f20335f52835260ff865f205416156200028a575b505f52526200026633835f20620005bd565b5061ff006007549160081b169061ff00191617600755516118949081620006498239f35b815f525f8352855f20335f52835283865f20918254161790553333825f8051602062001edd8339815191525f80a45f62000254565b805f525f8352855f20335f528352855f2084838254161790553333825f8051602062001edd8339815191525f80a462000202565b805f525f8352855f20335f528352855f2084838254161790553333825f8051602062001edd8339815191525f80a4620001b1565b5f80525f8252845f20335f528252845f20838282541617905533335f5f8051602062001edd8339815191528180a46200015f565b015190505f8062000124565b90859350601f1983169160065f52855f20925f5b87828210620003b657505084116200039d575b505050811b0160065562000138565b01515f1960f88460031b161c191690555f80806200038e565b83850151865589979095019493840193016200037b565b909192935060065f52855f209084808701821c8301938888106200041a575b9187968a93969594929601901c01915b8281106200040b57506200010e565b5f8155869550889101620003fc565b93508293620003ec565b634e487b7160e01b5f52602260045260245ffd5b90607f1690620000fa565b634e487b7160e01b5f52604160045260245ffd5b015190505f80620000cc565b90899350601f19831691875f52895f20925f5b8b828210620004b0575050841162000497575b505050811b018355620000df565b01515f1960f88460031b161c191690555f808062000489565b8385015186558d9790950194938401930162000476565b909150855f52875f2085808501881c8201928a86106200050e575b918b918695949301891c01915b828110620004ff575050620000b6565b5f81558594508b9101620004ef565b92508192620004e2565b93607f16936200009f565b5f80fd5b6040519190601f01601f191682016001600160401b038111838210176200044357604052565b919080601f84011215620005235782516001600160401b038111620004435760209062000583601f8201601f1916830162000527565b9281845282828701011162000523575f5b818110620005a95750825f9394955001015290565b858101830151848201840152820162000594565b9190600183015f90828252806020526040822054155f146200064257845494680100000000000000008610156200062e57600186018082558610156200061a57836040949596828552602085200155549382526020522055600190565b634e487b7160e01b83526032600452602483fd5b634e487b7160e01b83526041600452602483fd5b5092505056fe6080604081815260049182361015610015575f80fd5b5f92833560e01c91826301ffc9a714610d2f5750816306fdde0314610c8e578163095ea7b314610c6457816318160ddd14610c465781631cf2c7e214610b9157816323b872dd14610b54578163248a9ca314610b2a578163282c51f314610aef5781632f2ff15d14610a3b578163313ce56714610a1657816336568abe1461098457816339509351146109345781633f4ba83a1461082857816340c10f191461069357816342966c68146106755781635c975abb1461065157816370a082311461061957816379cc6790146105e95781638456cb59146104e35781639010d07c146104a257816391d148541461045c57816395d89b4114610377578163a217fddf1461035c578163a457c2d7146102b4578163a9059cbb14610283578163ca15c8731461025b578163d539139314610220578163d547741f146101de57508063dd62ed3e146101965763e63ab1e91461016c575f80fd5b34610192578160031936011261019257602090515f805160206117ff8339815191528152f35b5080fd5b5034610192578060031936011261019257806020926101b3610de9565b6101bb610e03565b6001600160a01b0391821683526003865283832091168252845220549051908152f35b9190503461021c578060031936011261021c5761021991356102146001610203610e03565b938387528660205286200154610e19565b611174565b80f35b8280fd5b505034610192578160031936011261019257602090517f9f2df0fed2c77648de5860a4cc508cd0818c85b8b8a1ab4ceeef8d981c8956a68152f35b90503461021c57602036600319011261021c5760209282913581526001845220549051908152f35b5050346101925780600319360112610192576020906102ad6102a3610de9565b602435903361121b565b5160018152f35b905082346103595782600319360112610359576102cf610de9565b918360243592338152600360205281812060018060a01b0386168252602052205490828210610308576020856102ad85850387336113d9565b608490602086519162461bcd60e51b8352820152602560248201527f45524332303a2064656372656173656420616c6c6f77616e63652062656c6f77604482015264207a65726f60d81b6064820152fd5b80fd5b50503461019257816003193601126101925751908152602090f35b9190503461021c578260031936011261021c57805191836006549060019082821c928281168015610452575b602095868610821461043f575084885290811561041d57506001146103e2575b6103de86866103d4828b038361113e565b5191829182610dbd565b0390f35b929550600683528583205b82841061040a57505050826103de946103d492820101945f6103c3565b80548685018801529286019281016103ed565b60ff191687860152505050151560051b83010192506103d4826103de5f6103c3565b634e487b7160e01b845260229052602483fd5b93607f16936103a3565b90503461021c578160031936011261021c578160209360ff9261047d610e03565b903582528186528282206001600160a01b039091168252855220549151911615158152f35b90503461021c578160031936011261021c576020926104cd913581526001845282602435912061168e565b905491519160018060a01b039160031b1c168152f35b90503461021c578260031936011261021c575f805160206117ff83398151915283528260205281832033845260205260ff828420541615610598576007549060ff8216610562575060ff1916600117600755513381527f62e78cea01bee320cd4e420270b5ea74000d11b0c9f74754ebdbfc544b05a25890602090a180f35b606490602084519162461bcd60e51b8352820152601060248201526f14185d5cd8589b194e881c185d5cd95960821b6044820152fd5b6020608492519162461bcd60e51b8352820152603960248201525f8051602061183f833981519152604482015278686176652070617573657220726f6c6520746f20706175736560381b6064820152fd5b5050346101925736600319011261035957610219610605610de9565b602435906106148233836114d7565b61156a565b5050346101925760203660031901126101925760209181906001600160a01b03610641610de9565b1681526002845220549051908152f35b50503461019257816003193601126101925760209060ff6007541690519015158152f35b8390346101925760203660031901126101925761021990353361156a565b9190503461021c578060031936011261021c576106ae610de9565b90602435907f9f2df0fed2c77648de5860a4cc508cd0818c85b8b8a1ab4ceeef8d981c8956a68552602092858452818620338752845260ff8287205416156107d7576001600160a01b03169384156107965760ff60075416610742579185939183610728835f8051602061181f83398151915296546111fa565b90558585526002835280852082815401905551908152a380f35b83608492519162461bcd60e51b8352820152602a60248201527f45524332305061757361626c653a20746f6b656e207472616e736665722077686044820152691a5b19481c185d5cd95960b21b6064820152fd5b83606492519162461bcd60e51b8352820152601f60248201527f45524332303a206d696e7420746f20746865207a65726f2061646472657373006044820152fd5b815162461bcd60e51b8152808601859052603860248201525f8051602061183f8339815191526044820152771a185d99481b5a5b9d195c881c9bdb19481d1bc81b5a5b9d60421b6064820152608490fd5b90503461021c578260031936011261021c575f805160206117ff83398151915283528260205281832033845260205260ff8284205416156108df576007549060ff8216156108a5575060ff1916600755513381527f5db9ee0a495bf2e6ff9c91a7834c1ba4fdd244a5e8aa4e537bd38aeae4b073aa90602090a180f35b606490602084519162461bcd60e51b8352820152601460248201527314185d5cd8589b194e881b9bdd081c185d5cd95960621b6044820152fd5b6020608492519162461bcd60e51b8352820152603b60248201525f8051602061183f83398151915260448201527f686176652070617573657220726f6c6520746f20756e706175736500000000006064820152fd5b5050346101925780600319360112610192576102ad60209261097d610957610de9565b338352600386528483206001600160a01b038216845286529184902054602435906111fa565b90336113d9565b8391503461019257826003193601126101925761099f610e03565b90336001600160a01b038316036109bb57906102199135611174565b608490602085519162461bcd60e51b8352820152602f60248201527f416363657373436f6e74726f6c3a2063616e206f6e6c792072656e6f756e636560448201526e103937b632b9903337b91039b2b63360891b6064820152fd5b50503461019257816003193601126101925760209060ff60075460081c169051908152f35b9190503461021c578060031936011261021c57610aa49135906001610a5e610e03565b92808652602090868252610a76838589200154610e19565b80875286825283872094838060a01b031694858852825260ff848820541615610aa8575b86525283206116a3565b5080f35b8087528682528387208588528252838720805460ff1916841790553385827f2f8788117e7eff1d82e926ec794901d17c78024a50270940304540a733656f0d8a80a4610a9a565b505034610192578160031936011261019257602090517f3c11d16cbaffd01df69ce1c404f6340ee057498f5f00246190ea54220576a8488152f35b90503461021c57602036600319011261021c57816020936001923581528085522001549051908152f35b505034610192576060366003190112610192576020906102ad610b75610de9565b610b7d610e03565b60443591610b8c8333836114d7565b61121b565b90503461021c578160031936011261021c57610bab610de9565b917f3c11d16cbaffd01df69ce1c404f6340ee057498f5f00246190ea54220576a84884528360205280842033855260205260ff818520541615610bf557836102196024358561156a565b906020608492519162461bcd60e51b8352820152603860248201525f8051602061183f8339815191526044820152773430bb3290313ab93732b9103937b632903a3790313ab93760411b6064820152fd5b90503461021c578260031936011261021c5760209250549051908152f35b5050346101925780600319360112610192576020906102ad610c84610de9565b60243590336113d9565b9190503461021c578260031936011261021c57805191836005549060019082821c928281168015610d25575b602095868610821461043f575084885290811561041d5750600114610cea576103de86866103d4828b038361113e565b929550600583528583205b828410610d1257505050826103de946103d492820101945f6103c3565b8054868501880152928601928101610cf5565b93607f1693610cba565b84913461021c57602036600319011261021c573563ffffffff60e01b811680910361021c5760209250635a05180f60e01b8114908115610d71575b5015158152f35b637965db0b60e01b811491508115610d8b575b5083610d6a565b6301ffc9a760e01b14905083610d84565b5f5b838110610dad5750505f910152565b8181015183820152602001610d9e565b60409160208252610ddd8151809281602086015260208686019101610d9c565b601f01601f1916010190565b600435906001600160a01b0382168203610dff57565b5f80fd5b602435906001600160a01b0382168203610dff57565b5f818152602090808252604092838220338352835260ff848320541615610e405750505050565b835167ffffffffffffffff919033606082018481118382101761112a578752602a825285820192873685378251156111165760308453825191600192831015611102576078602185015360295b838111611099575061105757908751946080860190868210908211176110435788526042855286850195606036883785511561102f5760308753855182101561102f5790607860218701536041915b818311610fc257505050610f8057938593610f6693610f57604894610f2e76020b1b1b2b9b9a1b7b73a3937b61d1030b1b1b7bab73a1604d1b99610f7c9b519a8b978801525180926037880190610d9c565b8401917001034b99036b4b9b9b4b733903937b6329607d1b603784015251809386840190610d9c565b0103602881018552018361113e565b5162461bcd60e51b815291829160048301610dbd565b0390fd5b60648587519062461bcd60e51b825280600483015260248201527f537472696e67733a20686578206c656e67746820696e73756666696369656e746044820152fd5b909192600f8116601081101561101b576f181899199a1a9b1b9c1cb0b131b232b360811b901a610ff28589611669565b5360041c928015611007575f19019190610edc565b634e487b7160e01b82526011600452602482fd5b634e487b7160e01b83526032600452602483fd5b634e487b7160e01b81526032600452602490fd5b634e487b7160e01b87526041600452602487fd5b60648789519062461bcd60e51b825280600483015260248201527f537472696e67733a20686578206c656e67746820696e73756666696369656e746044820152fd5b90600f811660108110156110ee576f181899199a1a9b1b9c1cb0b131b232b360811b901a6110c78387611669565b5360041c9080156110da575f1901610e8d565b634e487b7160e01b88526011600452602488fd5b634e487b7160e01b89526032600452602489fd5b634e487b7160e01b87526032600452602487fd5b634e487b7160e01b86526032600452602486fd5b634e487b7160e01b86526041600452602486fd5b90601f8019910116810190811067ffffffffffffffff82111761116057604052565b634e487b7160e01b5f52604160045260245ffd5b9060406111b0925f90808252816020528282209360018060a01b03169384835260205260ff83832054166111b3575b8152600160205220611725565b50565b8082528160205282822084835260205282822060ff1981541690553384827ff6391f5c32d9c69d2a47ea670b442974b53935d1edc7fd64eb21e047a839171b8580a46111a3565b9190820180921161120757565b634e487b7160e01b5f52601160045260245ffd5b6001600160a01b0390811691821561138657169182156113355760ff600754166112dd575f828152600260205260408120549180831061128957604082825f8051602061181f83398151915295876020965260028652038282205586815220818154019055604051908152a3565b60405162461bcd60e51b815260206004820152602660248201527f45524332303a207472616e7366657220616d6f756e7420657863656564732062604482015265616c616e636560d01b6064820152608490fd5b60405162461bcd60e51b815260206004820152602a60248201527f45524332305061757361626c653a20746f6b656e207472616e736665722077686044820152691a5b19481c185d5cd95960b21b6064820152608490fd5b60405162461bcd60e51b815260206004820152602360248201527f45524332303a207472616e7366657220746f20746865207a65726f206164647260448201526265737360e81b6064820152608490fd5b60405162461bcd60e51b815260206004820152602560248201527f45524332303a207472616e736665722066726f6d20746865207a65726f206164604482015264647265737360d81b6064820152608490fd5b6001600160a01b0390811691821561148657169182156114365760207f8c5be1e5ebec7d5bd14f71427d1e84f3dd0314c0f7b2291e5b200ac8c7c3b92591835f526003825260405f20855f5282528060405f2055604051908152a3565b60405162461bcd60e51b815260206004820152602260248201527f45524332303a20617070726f766520746f20746865207a65726f206164647265604482015261737360f01b6064820152608490fd5b60405162461bcd60e51b8152602060048201526024808201527f45524332303a20617070726f76652066726f6d20746865207a65726f206164646044820152637265737360e01b6064820152608490fd5b9060018060a01b038083165f52600360205260405f209082165f5260205260405f2054925f19840361150a575b50505050565b8084106115255761151c9303916113d9565b5f808080611504565b60405162461bcd60e51b815260206004820152601d60248201527f45524332303a20696e73756666696369656e7420616c6c6f77616e63650000006044820152606490fd5b6001600160a01b0316801561161a5760ff600754166112dd57805f52600260205260405f2054918083106115ca576020815f8051602061181f833981519152925f95858752600284520360408620558060045403600455604051908152a3565b60405162461bcd60e51b815260206004820152602260248201527f45524332303a206275726e20616d6f756e7420657863656564732062616c616e604482015261636560f01b6064820152608490fd5b60405162461bcd60e51b815260206004820152602160248201527f45524332303a206275726e2066726f6d20746865207a65726f206164647265736044820152607360f81b6064820152608490fd5b90815181101561167a570160200190565b634e487b7160e01b5f52603260045260245ffd5b805482101561167a575f5260205f2001905f90565b9190600183015f90828252806020526040822054155f1461171f57845494600160401b86101561170b57836116fb6116e5886001604098999a0185558461168e565b819391549060031b91821b915f19901b19161790565b9055549382526020522055600190565b634e487b7160e01b83526041600452602483fd5b50925050565b9060018201905f92818452826020526040842054908115155f146117f7575f19918083018181116117e3578254908482019182116110da578082036117ae575b5050508054801561179a5782019161177d838361168e565b909182549160031b1b191690555582526020526040812055600190565b634e487b7160e01b86526031600452602486fd5b6117ce6117be6116e5938661168e565b90549060031b1c9283928661168e565b905586528460205260408620555f8080611765565b634e487b7160e01b87526011600452602487fd5b505050509056fe65d7a28e3265b37a6474929f336521b332c1681b933f6cb9f3376673440d862addf252ad1be2c89b69c2b068fc378daa952ba7f163c4a11628f55a4df523b3ef45524332304d696e7465724275726e6572446563696d616c733a206d75737420a2646970667358221220573622aa6baab7b05eaafe9a71eabb48d4ff53fdcfc38dca91bc511ad16e077e64736f6c634300081400332f8788117e7eff1d82e926ec794901d17c78024a50270940304540a733656f0d",
  "linkReferences": {},
  "deployedLinkReferences": {},
  "immutableReferences": {},
  "inputSourceName": "project/solidity/ERC20MinterBurnerDecimals.sol",
  "buildInfoId": "solc-0_8_20-fda2ffeb444d7d9486f659e7e357f970dc6ac662"
}