{
  "_format": "hh3-artifact-1",
  "contractName": "ICS20TransferTester",
  "sourceName": "solidity/ICS20TransferTester.sol",
  "abi": [
    {
      "anonymous": false,
      "inputs": [
        {
          "indexed": false,
          "internalType": "string",
          "name": "operation",
          "type": "string"
        },
        {
          "indexed": false,
          "internalType": "bool",
          "name": "success",
          "type": "bool"
        }
      ],
      "name": "OperationCompleted",
      "type": "event"
    },
    {
      "anonymous": false,
      "inputs": [
        {
          "indexed": false,
          "internalType": "string",
          "name": "receiver",
          "type": "string"
        },
        {
          "indexed": false,
          "internalType": "uint256",
          "name": "amount",
          "type": "uint256"
        }
      ],
      "name": "TransferInitiated",
      "type": "event"
    },
    {
      "inputs": [
        {
          "internalType": "address",
          "name": "token",
          "type": "address"
        },
        {
          "internalType": "address",
          "name": "account",
          "type": "address"
        }
      ],
      "name": "getTokenBalance",
      "outputs": [
        {
          "internalType": "uint256",
          "name": "",
          "type": "uint256"
        }
      ],
      "stateMutability": "view",
      "type": "function"
    },
    {
      "inputs": [
        {
          "internalType": "address",
          "name": "token",
          "type": "address"
        },
        {
          "internalType": "address",
          "name": "recipient",
          "type": "address"
        },
        {
          "internalType": "uint256",
          "name": "transferAmount",
          "type": "uint256"
        },
        {
          "internalType": "string",
          "name": "sourcePort",
          "type": "string"
        },
        {
          "internalType": "string",
          "name": "sourceChannel",
          "type": "string"
        },
        {
          "internalType": "string",
          "name": "denom",
          "type": "string"
        },
        {
          "internalType": "uint256",
          "name": "ics20Amount",
          "type": "uint256"
        },
        {
          "internalType": "string",
          "name": "ics20Receiver",
          "type": "string"
        },
        {
          "components": [
            {
              "internalType": "uint64",
              "name": "revisionNumber",
              "type": "uint64"
            },
            {
              "internalType": "uint64",
              "name": "revisionHeight",
              "type": "uint64"
            }
          ],
          "internalType": "struct Height",
          "name": "timeoutHeight",
          "type": "tuple"
        },
        {
          "internalType": "uint64",
          "name": "timeoutTimestamp",
          "type": "uint64"
        }
      ],
      "name": "scenario10_transferICS20TransferRevert",
      "outputs": [],
      "stateMutability": "nonpayable",
      "type": "function"
    },
    {
      "inputs": [
        {
          "internalType": "address",
          "name": "token",
          "type": "address"
        },
        {
          "internalType": "address",
          "name": "recipient",
          "type": "address"
        },
        {
          "internalType": "uint256",
          "name": "transferAmount",
          "type": "uint256"
        },
        {
          "internalType": "string",
          "name": "sourcePort",
          "type": "string"
        },
        {
          "internalType": "string",
          "name": "sourceChannel",
          "type": "string"
        },
        {
          "internalType": "string",
          "name": "denom",
          "type": "string"
        },
        {
          "internalType": "uint256",
          "name": "ics20Amount",
          "type": "uint256"
        },
        {
          "internalType": "string",
          "name": "ics20Receiver",
          "type": "string"
        },
        {
          "components": [
            {
              "internalType": "uint64",
              "name": "revisionNumber",
              "type": "uint64"
            },
            {
              "internalType": "uint64",
              "name": "revisionHeight",
              "type": "uint64"
            }
          ],
          "internalType": "struct Height",
          "name": "timeoutHeight",
          "type": "tuple"
        },
        {
          "internalType": "uint64",
          "name": "timeoutTimestamp",
          "type": "uint64"
        }
      ],
      "name": "scenario9_transferICS20Transfer",
      "outputs": [],
      "stateMutability": "nonpayable",
      "type": "function"
    },
    {
      "stateMutability": "payable",
      "type": "receive"
    }
  ],
  "bytecode": "0x6080806040523461001657610814908161001b8239f35b5f80fdfe60806040815260c0604052600480361015610023575b50503615610021575f80fd5b005b60a0915f83525f3560e01c8063339b204d14610312578381635627cd7d14610115575063c489744b146100565750610015565b346100f15780519182600319360112610110576001600160a01b038135818116949085900361010b5760243591821680920361010b57516370a0823160e01b81529182015291602090839060249082905afa9182156100fe578351926100c2575b602083835151908152f35b9091506020813d82116100f6575b816100dd602093836104b9565b810103126100f1576020925051905f6100b7565b825180fd5b3d91506100d0565b81515184513d90823e3d90fd5b855180fd5b835180fd5b8281853461030d5761012636610545565b8c515163a9059cbb60e01b81526001600160a01b03998a168c820190815260208082019a909a528d51949d959c999b969a8c9a9899989697939694958f95948c938593908490036040019284929091165af1809651916101c6976102de575b5061029b57505f805160206107bf8339815191528d5151806101a681610698565b0390a15b8a8d5151998a98899863632535b960e01b8a5230948a01610725565b038189516108025af1801561028e57917f6584ffa41ce5e25ea3ea0164e8171d3c01993df4e6a56d6a8bc2e731d6ea641393915f805160206107bf833981519152969593610261575b508451916102278351948594855287518501906106e7565b918301520390a151516040808252600e908201526d34b1b999182fba3930b739b332b960911b606082015260016020820152608090a15180f35b61028090823d8411610287575b61027881836104b9565b8101906106c7565b508761020f565b503d61026e565b85515187513d90823e3d90fd5b156102c3575f805160206107bf8339815191528d5151806102bb81610668565b0390a16101aa565b5f805160206107bf8339815191528d5151806102bb81610698565b6102ff9192508a3d8c11610306575b6102f781836104b9565b810190610650565b905f610185565b503d6102ed565b505180fd5b50346104b55781908361036861032736610545565b95968c9e939a929b91959899949e515194858094819363a9059cbb60e01b835260209d8e98840160209093929193604081019460018060a01b031681520152565b9351930392906001600160a01b03165af19081156104a8578c519161048b575b501561044f57849392916103d591888a51519b5f805160206107bf8339815191528d80829f6103b690610668565b0390a1898c51519e8f98899863632535b960e01b8a5230948a01610725565b03818a516108025af1958615610442577f6584ffa41ce5e25ea3ea0164e8171d3c01993df4e6a56d6a8bc2e731d6ea641394959661042557508451916102278351948594855287518501906106e7565b61043b90823d84116102875761027881836104b9565b505f61020f565b84515188513d90823e3d90fd5b87515162461bcd60e51b8152808a018690526015602482015274115490cc8c081d1c985b9cd9995c8819985a5b1959605a1b6044820152606490fd5b6104a29150863d8811610306576102f781836104b9565b5f610388565b8951518d513d90823e3d90fd5b5f80fd5b90601f8019910116810190811067ffffffffffffffff8211176104db57604052565b634e487b7160e01b5f52604160045260245ffd5b81601f820112156104b55780359067ffffffffffffffff82116104db5760405192610524601f8401601f1916602001856104b9565b828452602083830101116104b557815f926020809301838601378301015290565b906101606003198301126104b5576001600160a01b039160049190823584811681036104b5579360243590811681036104b557926044359267ffffffffffffffff916064358381116104b5578461059d9183016104ef565b936084358481116104b557816105b49184016104ef565b9360a4358181116104b557826105cb9185016104ef565b9360c4359360e4358381116104b5576105e88560409284016104ef565b946101031901126104b5576040519060408201908282108583111761063d57506040526101043583811681036104b55781526101243583811681036104b5576020820152916101443590811681036104b55790565b604190634e487b7160e01b5f525260245ffd5b908160209103126104b5575180151581036104b55790565b9060408252600e60408301526d32b93199182fba3930b739b332b960911b60608301526001602060808401930152565b9060408252600e60408301526d32b93199182fba3930b739b332b960911b60608301525f602060808401930152565b908160209103126104b5575167ffffffffffffffff811681036104b55790565b91908251928382525f5b848110610711575050825f602080949584010152601f8019910116010190565b6020818301810151848301820152016106f1565b9590946107666107899461075860209b979561074b8d9a8c6101408091528d01906106e7565b908b82038b8d01526106e7565b9089820360408b01526106e7565b60608801939093526001600160a01b0316608087015285820360a08701526106e7565b9367ffffffffffffffff9281848093511660c087015201511660e0840152166101008201526101208183039101525f8152019056fe9f4d25774676d497fe3d8c1e43709b68b186fad01b05798c1410a178ff4ed7d0a2646970667358221220eb9c20119fca0a9b6655361c3684f9dd229179e5ff8297a392567e18f2f5f0ec64736f6c63430008140033",
  "linkReferences": {},
  "deployedLinkReferences": {},
  "immutableReferences": {},
  "inputSourceName": "project/solidity/ICS20TransferTester.sol",
  "buildInfoId": "solc-0_8_20-fda2ffeb444d7d9486f659e7e357f970dc6ac662"
}