{
  "_format": "hh3-artifact-1",
  "contractName": "ICS20TransferTester",
  "sourceName": "solidity/ICS20TransferTester.sol",
  "abi": [
    {
      "anonymous": false,
      "inputs": [
        {
          "indexed": false,
          "internalType": "string",
          "name": "operation",
          "type": "string"
        },
        {
          "indexed": false,
          "internalType": "bool",
          "name": "success",
          "type": "bool"
        }
      ],
      "name": "OperationCompleted",
      "type": "event"
    },
    {
      "anonymous": false,
      "inputs": [
        {
          "indexed": false,
          "internalType": "string",
          "name": "receiver",
          "type": "string"
        },
        {
          "indexed": false,
          "internalType": "uint256",
          "name": "amount",
          "type": "uint256"
        }
      ],
      "name": "TransferInitiated",
      "type": "event"
    },
    {
      "inputs": [
        {
          "internalType": "address",
          "name": "token",
          "type": "address"
        },
        {
          "internalType": "address",
          "name": "account",
          "type": "address"
        }
      ],
      "name": "getTokenBalance",
      "outputs": [
        {
          "internalType": "uint256",
          "name": "",
          "type": "uint256"
        }
      ],
      "stateMutability": "view",
      "type": "function"
    },
    {
      "inputs": [
        {
          "internalType": "address",
          "name": "token",
          "type": "address"
        },
        {
          "internalType": "address",
          "name": "recipient",
          "type": "address"
        },
        {
          "internalType": "uint256",
          "name": "transferAmount",
          "type": "uint256"
        },
        {
          "internalType": "string",
          "name": "sourcePort",
          "type": "string"
        },
        {
          "internalType": "string",
          "name": "sourceChannel",
          "type": "string"
        },
        {
          "internalType": "string",
          "name": "denom",
          "type": "string"
        },
        {
          "internalType": "uint256",
          "name": "ics20Amount",
          "type": "uint256"
        },
        {
          "internalType": "string",
          "name": "ics20Receiver",
          "type": "string"
        },
        {
          "components": [
            {
              "internalType": "uint64",
              "name": "revisionNumber",
              "type": "uint64"
            },
            {
              "internalType": "uint64",
              "name": "revisionHeight",
              "type": "uint64"
            }
          ],
          "internalType": "struct Height",
          "name": "timeoutHeight",
          "type": "tuple"
        },
        {
          "internalType": "uint64",
          "name": "timeoutTimestamp",
          "type": "uint64"
        }
      ],
      "name": "scenario10_transferICS20TransferRevert",
      "outputs": [],
      "stateMutability": "nonpayable",
      "type": "function"
    },
    {
      "inputs": [
        {
          "internalType": "address",
          "name": "token",
          "type": "address"
        },
        {
          "internalType": "address",
          "name": "recipient",
          "type": "address"
        },
        {
          "internalType": "uint256",
          "name": "transferAmount",
          "type": "uint256"
        },
        {
          "internalType": "string",
          "name": "sourcePort",
          "type": "string"
        },
        {
          "internalType": "string",
          "name": "sourceChannel",
          "type": "string"
        },
        {
          "internalType": "string",
          "name": "denom",
          "type": "string"
        },
        {
          "internalType": "uint256",
          "name": "ics20Amount",
          "type": "uint256"
        },
        {
          "internalType": "string",
          "name": "ics20Receiver",
          "type": "string"
        },
        {
          "components": [
            {
              "internalType": "uint64",
              "name": "revisionNumber",
              "type": "uint64"
            },
            {
              "internalType": "uint64",
              "name": "revisionHeight",
              "type": "uint64"
            }
          ],
          "internalType": "struct Height",
          "name": "timeoutHeight",
          "type": "tuple"
        },
        {
          "internalType": "uint64",
          "name": "timeoutTimestamp",
          "type": "uint64"
        }
      ],
      "name": "scenario9_transferICS20Transfer",
      "outputs": [],
      "stateMutability": "nonpayable",
      "type": "function"
    },
    {
      "stateMutability": "payable",
      "type": "receive"
    }
  ],
  "bytecode": "0x6080806040523460155761073c908161001a8239f35b5f80fdfe6080604052600436101561001a575b3615610018575f80fd5b005b5f3560e01c8063339b204d146102d25780635627cd7d146100f15763c489744b0361000e57346100da5760403660031901126100da576004356001600160a01b038116908190036100da576024356001600160a01b038116908190036100da576020906024604051809481936370a0823160e01b835260048301525afa80156100e6575f906100af575b602090604051908152f35b506020813d6020116100de575b816100c9602093836103c9565b810103126100da57602090516100a4565b5f80fd5b3d91506100bc565b6040513d5f823e3d90fd5b346100da5761019f60206101488161010836610453565b95929c96829b9294998e9d9296995f60405180968195829463a9059cbb60e01b84526004840160209093929193604081019460018060a01b031681520152565b03926001600160a01b03165af15f91816102a3575b5061026057505f5160206106e75f395f51905f526040518061017e816105c3565b0390a15b60405163632535b960e01b81529a8b978897309360048a01610635565b03815f6108025af19283156100e6577f6584ffa41ce5e25ea3ea0164e8171d3c01993df4e6a56d6a8bc2e731d6ea641393610233575b506101e5604051928392836106ca565b0390a15f5160206106e75f395f51905f526040518061022e819060408252600e60408301526d34b1b999182fba3930b739b332b960911b60608301526001602060808401930152565b0390a1005b6102549060203d602011610259575b61024c81836103c9565b8101906105f2565b6101d5565b503d610242565b15610288575f5160206106e75f395f51905f526040518061028081610593565b0390a1610182565b5f5160206106e75f395f51905f5260405180610280816105c3565b6102c49192508a3d8c116102cb575b6102bc81836103c9565b81019061057b565b908d61015d565b503d6102b2565b346100da5760206103276102e536610453565b60405163a9059cbb60e01b81526001600160a01b0390991660048a015260248901979097529199959890979196929593949391839182905f9082906044820190565b03926001600160a01b03165af19081156100e6575f916103aa575b501561036d5786956020948661019f935f5160206106e75f395f51905f526040518061017e81610593565b60405162461bcd60e51b8152602060048201526015602482015274115490cc8c081d1c985b9cd9995c8819985a5b1959605a1b6044820152606490fd5b6103c3915060203d6020116102cb576102bc81836103c9565b88610342565b90601f801991011681019081106001600160401b038211176103ea57604052565b634e487b7160e01b5f52604160045260245ffd5b81601f820112156100da578035906001600160401b0382116103ea5760405192610432601f8401601f1916602001856103c9565b828452602083830101116100da57815f926020809301838601378301015290565b6101606003198201126100da576004356001600160a01b03811681036100da57916024356001600160a01b03811681036100da5791604435916064356001600160401b0381116100da57826104aa916004016103fe565b916084356001600160401b0381116100da57816104c9916004016103fe565b9160a4356001600160401b0381116100da57826104e8916004016103fe565b9160c4359160e4356001600160401b0381116100da5761050d836040926004016103fe565b926101031901126100da57604051604081018181106001600160401b038211176103ea57604052610104356001600160401b03811681036100da578152610124356001600160401b03811681036100da57602082015290610144356001600160401b03811681036100da5790565b908160209103126100da575180151581036100da5790565b9060408252600e60408301526d32b93199182fba3930b739b332b960911b60608301526001602060808401930152565b9060408252600e60408301526d32b93199182fba3930b739b332b960911b60608301525f602060808401930152565b908160209103126100da57516001600160401b03811681036100da5790565b805180835260209291819084018484015e5f828201840152601f01601f1916010190565b9593602098946001600160401b039661067e88966106708d976106636106a1986101408f8181520190610611565b8d81038a8f015290610611565b908b820360408d0152610611565b60608a01939093526001600160a01b0316608089015287820360a0890152610611565b958281511660c087015201511660e0840152166101008201526101208183039101525f81520190565b9291906106e1602091604086526040860190610611565b93015256fe9f4d25774676d497fe3d8c1e43709b68b186fad01b05798c1410a178ff4ed7d0a2646970667358221220c11ab3490ad331023ac0782d214bca89aa72d7e63b16920ba0d06d9bdc8dbfcf64736f6c634300081c0033",
  "linkReferences": {},
  "deployedLinkReferences": {},
  "immutableReferences": {},
  "inputSourceName": "project/solidity/ICS20TransferTester.sol",
  "buildInfoId": "solc-0_8_28-4a3e9fb75514a5e3823929a19c2b687c4f4bb734"
}