{
  "_format": "hh3-artifact-1",
  "contractName": "SequentialICS20Sender",
  "sourceName": "solidity/SequentialICS20Sender.sol",
  "abi": [
    {
      "anonymous": false,
      "inputs": [
        {
          "indexed": false,
          "internalType": "uint256",
          "name": "balance",
          "type": "uint256"
        }
      ],
      "name": "BalanceQueried",
      "type": "event"
    },
    {
      "anonymous": false,
      "inputs": [
        {
          "indexed": true,
          "internalType": "uint256",
          "name": "attempt",
          "type": "uint256"
        },
        {
          "indexed": false,
          "internalType": "uint256",
          "name": "amount",
          "type": "uint256"
        },
        {
          "indexed": false,
          "internalType": "bool",
          "name": "success",
          "type": "bool"
        }
      ],
      "name": "ICS20SendAttempt",
      "type": "event"
    },
    {
      "anonymous": false,
      "inputs": [
        {
          "indexed": true,
          "internalType": "uint256",
          "name": "attempt",
          "type": "uint256"
        },
        {
          "indexed": false,
          "internalType": "string",
          "name": "reason",
          "type": "string"
        }
      ],
      "name": "SequentialSendReverted",
      "type": "event"
    },
    {
      "anonymous": false,
      "inputs": [
        {
          "indexed": false,
          "internalType": "address",
          "name": "token",
          "type": "address"
        },
        {
          "indexed": false,
          "internalType": "uint256",
          "name": "amount",
          "type": "uint256"
        }
      ],
      "name": "TokensReceived",
      "type": "event"
    },
    {
      "anonymous": false,
      "inputs": [
        {
          "indexed": false,
          "internalType": "address",
          "name": "token",
          "type": "address"
        },
        {
          "indexed": false,
          "internalType": "uint256",
          "name": "amount",
          "type": "uint256"
        }
      ],
      "name": "TokensReturned",
      "type": "event"
    },
    {
      "inputs": [
        {
          "internalType": "address",
          "name": "token",
          "type": "address"
        }
      ],
      "name": "getBalance",
      "outputs": [
        {
          "internalType": "uint256",
          "name": "",
          "type": "uint256"
        }
      ],
      "stateMutability": "view",
      "type": "function"
    },
    {
      "inputs": [
        {
          "internalType": "address",
          "name": "token",
          "type": "address"
        },
        {
          "internalType": "string",
          "name": "sourcePort",
          "type": "string"
        },
        {
          "internalType": "string",
          "name": "sourceChannel",
          "type": "string"
        },
        {
          "internalType": "string",
          "name": "denom",
          "type": "string"
        },
        {
          "internalType": "string",
          "name": "receiver",
          "type": "string"
        },
        {
          "internalType": "uint64",
          "name": "timeoutHeight",
          "type": "uint64"
        },
        {
          "internalType": "uint256",
          "name": "amount",
          "type": "uint256"
        }
      ],
      "name": "receiveAndSendTwice",
      "outputs": [],
      "stateMutability": "nonpayable",
      "type": "function"
    }
  ],
  "bytecode": "0x6080806040523460155761054a908161001a8239f35b5f80fdfe60806040526004361015610011575f80fd5b5f3560e01c806365ab4537146100c85763f8b2cb4f1461002f575f80fd5b346100b15760203660031901126100b157602460206001600160a01b03610054610380565b16604051928380926370a0823160e01b82523060048301525afa80156100bd575f90610086575b602090604051908152f35b506020813d6020116100b5575b816100a0602093836103c5565b810103126100b1576020905161007b565b5f80fd5b3d9150610093565b6040513d5f823e3d90fd5b346100b15760e03660031901126100b1576100e1610380565b6024356001600160401b0381116100b1576101009036906004016103e6565b6044356001600160401b0381116100b15761011f9036906004016103e6565b6064356001600160401b0381116100b15761013e9036906004016103e6565b906084356001600160401b0381116100b15761015e9036906004016103e6565b60a4356001600160401b0381168091036100b1576040516323b872dd60e01b815233600482015230602482015260c43560448201819052966001600160a01b031692906020816064815f885af19081156100bd575f91610345575b501561030b576020957f5a0ebf9442637ca6e817894481a6de0c29715a73efc9e02bb7ef4ed52843362d604061026f9581519081528a8a820152a18487898861022f60405161020781610396565b60018152888582015287604051968795869563632535b960e01b875230928b6004890161047e565b03815f6108025af16102f0575b506040519261024a84610396565b600184528784015260405163632535b960e01b8152978896879630936004890161047e565b03815f6108025af190816102c3575b506102c15760405162461bcd60e51b815260206004820152601660248201527514d958dbdb9908151c985b9cd9995c8811985a5b195960521b6044820152606490fd5b005b6102e49060203d6020116102e9575b6102dc81836103c5565b81019061043b565b61027e565b503d6102d2565b61030690883d8a116102e9576102dc81836103c5565b61023c565b60405162461bcd60e51b8152602060048201526012602482015271151c985b9cd9995c881a5b8819985a5b195960721b6044820152606490fd5b90506020813d602011610378575b81610360602093836103c5565b810103126100b1575180151581036100b157886101b9565b3d9150610353565b600435906001600160a01b03821682036100b157565b604081019081106001600160401b038211176103b157604052565b634e487b7160e01b5f52604160045260245ffd5b90601f801991011681019081106001600160401b038211176103b157604052565b81601f820112156100b1578035906001600160401b0382116103b1576040519261041a601f8401601f1916602001856103c5565b828452602083830101116100b157815f926020809301838601378301015290565b908160209103126100b157516001600160401b03811681036100b15790565b805180835260209291819084018484015e5f828201840152601f01601f1916010190565b9495602097966104c889956104ba6104eb966104ad6001600160401b039a976101408d526101408d019061045a565b908b82038a8d015261045a565b9089820360408b015261045a565b60608801939093526001600160a01b0316608087015285820360a087015261045a565b938281511660c085015201511660e08201525f6101008201526101208183039101525f8152019056fea26469706673582212203236623972e330707ffc91517054172b187da60032bec9cc2cc5572f4459efe264736f6c634300081c0033",
  "linkReferences": {},
  "deployedLinkReferences": {},
  "immutableReferences": {},
  "inputSourceName": "project/solidity/SequentialICS20Sender.sol",
  "buildInfoId": "solc-0_8_28-695d5fc6db28335a0d1ee2dddc903ab8df92477c"
}