{
  "_format": "hh-sol-artifact-1",
  "contractName": "SequentialOperationsTester",
  "sourceName": "solidity/SequentialOperationsTester.sol",
  "abi": [
    {
      "anonymous": false,
      "inputs": [
        {
          "indexed": false,
          "internalType": "string",
          "name": "label",
          "type": "string"
        },
        {
          "indexed": false,
          "internalType": "uint256",
          "name": "balance",
          "type": "uint256"
        }
      ],
      "name": "BalanceChecked",
      "type": "event"
    },
    {
      "anonymous": false,
      "inputs": [
        {
          "indexed": false,
          "internalType": "string",
          "name": "label",
          "type": "string"
        },
        {
          "indexed": false,
          "internalType": "uint256",
          "name": "count",
          "type": "uint256"
        }
      ],
      "name": "EventCountChecked",
      "type": "event"
    },
    {
      "anonymous": false,
      "inputs": [
        {
          "indexed": false,
          "internalType": "string",
          "name": "operation",
          "type": "string"
        },
        {
          "indexed": false,
          "internalType": "bool",
          "name": "success",
          "type": "bool"
        }
      ],
      "name": "OperationCompleted",
      "type": "event"
    },
    {
      "inputs": [],
      "name": "getContractBalance",
      "outputs": [
        {
          "internalType": "uint256",
          "name": "",
          "type": "uint256"
        }
      ],
      "stateMutability": "view",
      "type": "function"
    },
    {
      "inputs": [
        {
          "internalType": "address",
          "name": "account",
          "type": "address"
        }
      ],
      "name": "getNativeBalance",
      "outputs": [
        {
          "internalType": "uint256",
          "name": "",
          "type": "uint256"
        }
      ],
      "stateMutability": "view",
      "type": "function"
    },
    {
      "inputs": [
        {
          "internalType": "address",
          "name": "token",
          "type": "address"
        },
        {
          "internalType": "address",
          "name": "account",
          "type": "address"
        }
      ],
      "name": "getTokenBalance",
      "outputs": [
        {
          "internalType": "uint256",
          "name": "",
          "type": "uint256"
        }
      ],
      "stateMutability": "view",
      "type": "function"
    },
    {
      "inputs": [
        {
          "internalType": "address",
          "name": "token",
          "type": "address"
        },
        {
          "internalType": "address",
          "name": "recipient",
          "type": "address"
        },
        {
          "internalType": "uint256",
          "name": "amount",
          "type": "uint256"
        },
        {
          "internalType": "string",
          "name": "validatorAddr",
          "type": "string"
        },
        {
          "internalType": "uint256",
          "name": "delegateAmount",
          "type": "uint256"
        }
      ],
      "name": "scenario1_transferDelegateTransfer",
      "outputs": [],
      "stateMutability": "nonpayable",
      "type": "function"
    },
    {
      "inputs": [
        {
          "internalType": "address",
          "name": "token",
          "type": "address"
        },
        {
          "internalType": "address",
          "name": "recipient",
          "type": "address"
        },
        {
          "internalType": "uint256",
          "name": "amount",
          "type": "uint256"
        },
        {
          "internalType": "string",
          "name": "validatorAddr",
          "type": "string"
        },
        {
          "internalType": "uint256",
          "name": "delegateAmount",
          "type": "uint256"
        }
      ],
      "name": "scenario2_transferDelegateRevertTransfer",
      "outputs": [],
      "stateMutability": "nonpayable",
      "type": "function"
    },
    {
      "inputs": [
        {
          "internalType": "address payable",
          "name": "recipient",
          "type": "address"
        },
        {
          "internalType": "uint256",
          "name": "amount",
          "type": "uint256"
        },
        {
          "internalType": "string",
          "name": "validatorAddr",
          "type": "string"
        },
        {
          "internalType": "uint256",
          "name": "delegateAmount",
          "type": "uint256"
        }
      ],
      "name": "scenario3_nativeTransferDelegateNativeTransfer",
      "outputs": [],
      "stateMutability": "payable",
      "type": "function"
    },
    {
      "inputs": [
        {
          "internalType": "address payable",
          "name": "recipient",
          "type": "address"
        },
        {
          "internalType": "uint256",
          "name": "amount",
          "type": "uint256"
        },
        {
          "internalType": "string",
          "name": "validatorAddr",
          "type": "string"
        },
        {
          "internalType": "uint256",
          "name": "delegateAmount",
          "type": "uint256"
        }
      ],
      "name": "scenario4_nativeTransferDelegateRevertNativeTransfer",
      "outputs": [],
      "stateMutability": "payable",
      "type": "function"
    },
    {
      "inputs": [
        {
          "internalType": "address payable",
          "name": "recipient",
          "type": "address"
        },
        {
          "internalType": "uint256",
          "name": "amount",
          "type": "uint256"
        }
      ],
      "name": "testNativeTransfer",
      "outputs": [
        {
          "internalType": "bool",
          "name": "",
          "type": "bool"
        }
      ],
      "stateMutability": "payable",
      "type": "function"
    },
    {
      "stateMutability": "payable",
      "type": "receive"
    }
  ],
  "bytecode": "0x6080806040523461001657610abe908161001c8239f35b600080fdfe60406080815260049081361015610020575b5050361561001e57600080fd5b005b600091823560e01c908163456503c8146105675781635b3d97d5146104a45781635c3f86c91461038a5781636e348ad6146101af5781636f9fb98a14610194578163c489744b146100e457508063e1f756c3146100a95763efd8be620361001157346100a55760203660031901126100a55760209061009d610698565b319051908152f35b5080fd5b50806003193601126100a5578180806020946100c3610698565b602435906001600160a01b03165af1906100db61096e565b50519015158152f35b9190503461017a578060031936011261017a576100ff610698565b916024356001600160a01b038181169182900361019057602092602491855196879485936370a0823160e01b8552840152165afa91821561018657839261014b575b6020838351908152f35b9091506020813d821161017e575b81610166602093836106b3565b8101031261017a5760209250519038610141565b8280fd5b3d9150610159565b81513d85823e3d90fd5b8580fd5b5050346100a557816003193601126100a55751478152602090f35b90503461017a576101bf3661074e565b865163a9059cbb60e01b8082526001600160a01b038681168984019081526020808201889052949a959995989497959490911693928b9291889082908190604001038186895af1908115610380579a610224899261025f9d8691610363575b5061080a565b89519a600080516020610a698339815191528c80610242839f61084e565b0390a18a516353266bbb60e01b81529c8d92839230898501610879565b0381856108005af1998a15610359578798999a97969761033c575b5089895180610288816108d5565b0390a16102b58951978896879586948552840160209093929193604081019460018060a01b031681520152565b03925af191821561033257906102d492918692610305575b5050610929565b516040808252600990820152683a3930b739b332b91960b91b60608201526001602082015280608081015b0390a180f35b6103249250803d1061032b575b61031c81836106b3565b8101906107f2565b38806102cd565b503d610312565b83513d87823e3d90fd5b61035290873d891161032b5761031c81836106b3565b503861027a565b88513d84823e3d90fd5b61037a9150843d861161032b5761031c81836106b3565b3861021e565b89513d85823e3d90fd5b91905061043b83808080602061039f366107a8565b91936001600160a01b0390931692906103c78680808089895af16103c161096e565b5061099e565b8a519b600080516020610a698339815191528d80829f6103e6906109ea565b0390a16104068c5194859384936353266bbb60e01b855230908501610879565b0381876108005af19081610486575b506104715788885180610427816108ff565b0390a15b5af161043561096e565b50610a1c565b5160408082526010908201526f3730ba34bb32afba3930b739b332b91960811b60608201526001602082015280608081016102ff565b8888518061047e816108d5565b0390a161042b565b61049d9060203d811161032b5761031c81836106b3565b5038610415565b9190508260206104b3366107a8565b91936001600160a01b0390931692906104d58680808089895af16103c161096e565b865197600080516020610a6983398151915289806104f3839c6109ea565b0390a1610513885194859384936353266bbb60e01b855230908501610879565b0381876108005af1801561055d579380938193829361043b9761053f575b5088885180610427816108d5565b6105569060203d811161032b5761031c81836106b3565b5038610531565b85513d86823e3d90fd5b90503461017a576105773661074e565b865163a9059cbb60e01b8082526001600160a01b038681168984019081526020808201889052949a959995989497959490911693928b9291889082908190604001038186895af1908115610380579780999a9b6105e061061b93839a9b8791610363575061080a565b8b519c600080516020610a698339815191528e819f6105fe8161084e565b0390a18c516353266bbb60e01b81529384928392308a8501610879565b0381866108005af1908161067b575b506106665789895180610288816108ff565b6102b58951978896879586948552840160209093929193604081019460018060a01b031681520152565b89895180610673816108d5565b0390a161063c565b61069190883d8a1161032b5761031c81836106b3565b503861062a565b600435906001600160a01b03821682036106ae57565b600080fd5b90601f8019910116810190811067ffffffffffffffff8211176106d557604052565b634e487b7160e01b600052604160045260246000fd5b67ffffffffffffffff81116106d557601f01601f191660200190565b81601f820112156106ae5780359061071e826106eb565b9261072c60405194856106b3565b828452602083830101116106ae57816000926020809301838601378301015290565b9060a06003198301126106ae576001600160a01b039160043583811681036106ae579260243590811681036106ae5791604435916064359067ffffffffffffffff82116106ae576107a191600401610707565b9060843590565b60806003198201126106ae576004356001600160a01b03811681036106ae5791602435916044359067ffffffffffffffff82116106ae576107eb91600401610707565b9060643590565b908160209103126106ae575180151581036106ae5790565b1561081157565b60405162461bcd60e51b8152602060048201526015602482015274119a5c9cdd081d1c985b9cd9995c8819985a5b1959605a1b6044820152606490fd5b906040825260096040830152687472616e736665723160b81b60608301526001602060808401930152565b9392919060018060a01b03168452602060608186015281519182606087015260005b8381106108c15750505060808160008260409488010152601f8019910116850101930152565b81810183015187820160800152820161089b565b9060408252600860408301526764656c656761746560c01b60608301526001602060808401930152565b9060408252600860408301526764656c656761746560c01b60608301526000602060808401930152565b1561093057565b60405162461bcd60e51b815260206004820152601660248201527514d958dbdb99081d1c985b9cd9995c8819985a5b195960521b6044820152606490fd5b3d15610999573d9061097f826106eb565b9161098d60405193846106b3565b82523d6000602084013e565b606090565b156109a557565b60405162461bcd60e51b815260206004820152601c60248201527f4669727374206e6174697665207472616e73666572206661696c6564000000006044820152606490fd5b9060408252601060408301526f6e61746976655f7472616e736665723160801b60608301526001602060808401930152565b15610a2357565b60405162461bcd60e51b815260206004820152601d60248201527f5365636f6e64206e6174697665207472616e73666572206661696c65640000006044820152606490fdfe9f4d25774676d497fe3d8c1e43709b68b186fad01b05798c1410a178ff4ed7d0a26469706673582212203b18ad648a726453f83ad2fbe97e1a921e68eae8e4a1d0f6cfd31f41d89e88c264736f6c63430008140033",
  "linkReferences": {},
  "deployedLinkReferences": {}
}