{
  "_format": "hh3-artifact-1",
  "contractName": "SequentialOperationsTester",
  "sourceName": "solidity/SequentialOperationsTester.sol",
  "abi": [
    {
      "anonymous": false,
      "inputs": [
        {
          "indexed": false,
          "internalType": "string",
          "name": "label",
          "type": "string"
        },
        {
          "indexed": false,
          "internalType": "uint256",
          "name": "balance",
          "type": "uint256"
        }
      ],
      "name": "BalanceChecked",
      "type": "event"
    },
    {
      "anonymous": false,
      "inputs": [
        {
          "indexed": false,
          "internalType": "string",
          "name": "label",
          "type": "string"
        },
        {
          "indexed": false,
          "internalType": "uint256",
          "name": "count",
          "type": "uint256"
        }
      ],
      "name": "EventCountChecked",
      "type": "event"
    },
    {
      "anonymous": false,
      "inputs": [
        {
          "indexed": false,
          "internalType": "string",
          "name": "operation",
          "type": "string"
        },
        {
          "indexed": false,
          "internalType": "bool",
          "name": "success",
          "type": "bool"
        }
      ],
      "name": "OperationCompleted",
      "type": "event"
    },
    {
      "inputs": [],
      "name": "getContractBalance",
      "outputs": [
        {
          "internalType": "uint256",
          "name": "",
          "type": "uint256"
        }
      ],
      "stateMutability": "view",
      "type": "function"
    },
    {
      "inputs": [
        {
          "internalType": "address",
          "name": "account",
          "type": "address"
        }
      ],
      "name": "getNativeBalance",
      "outputs": [
        {
          "internalType": "uint256",
          "name": "",
          "type": "uint256"
        }
      ],
      "stateMutability": "view",
      "type": "function"
    },
    {
      "inputs": [
        {
          "internalType": "address",
          "name": "token",
          "type": "address"
        },
        {
          "internalType": "address",
          "name": "account",
          "type": "address"
        }
      ],
      "name": "getTokenBalance",
      "outputs": [
        {
          "internalType": "uint256",
          "name": "",
          "type": "uint256"
        }
      ],
      "stateMutability": "view",
      "type": "function"
    },
    {
      "inputs": [
        {
          "internalType": "address",
          "name": "token",
          "type": "address"
        },
        {
          "internalType": "address",
          "name": "recipient",
          "type": "address"
        },
        {
          "internalType": "uint256",
          "name": "amount",
          "type": "uint256"
        },
        {
          "internalType": "string",
          "name": "validatorAddr",
          "type": "string"
        },
        {
          "internalType": "uint256",
          "name": "delegateAmount",
          "type": "uint256"
        }
      ],
      "name": "scenario1_transferDelegateTransfer",
      "outputs": [],
      "stateMutability": "nonpayable",
      "type": "function"
    },
    {
      "inputs": [
        {
          "internalType": "address",
          "name": "token",
          "type": "address"
        },
        {
          "internalType": "address",
          "name": "recipient",
          "type": "address"
        },
        {
          "internalType": "uint256",
          "name": "amount",
          "type": "uint256"
        },
        {
          "internalType": "string",
          "name": "validatorAddr",
          "type": "string"
        },
        {
          "internalType": "uint256",
          "name": "delegateAmount",
          "type": "uint256"
        }
      ],
      "name": "scenario2_transferDelegateRevertTransfer",
      "outputs": [],
      "stateMutability": "nonpayable",
      "type": "function"
    },
    {
      "inputs": [
        {
          "internalType": "address payable",
          "name": "recipient",
          "type": "address"
        },
        {
          "internalType": "uint256",
          "name": "amount",
          "type": "uint256"
        },
        {
          "internalType": "string",
          "name": "validatorAddr",
          "type": "string"
        },
        {
          "internalType": "uint256",
          "name": "delegateAmount",
          "type": "uint256"
        }
      ],
      "name": "scenario3_nativeTransferDelegateNativeTransfer",
      "outputs": [],
      "stateMutability": "payable",
      "type": "function"
    },
    {
      "inputs": [
        {
          "internalType": "address payable",
          "name": "recipient",
          "type": "address"
        },
        {
          "internalType": "uint256",
          "name": "amount",
          "type": "uint256"
        },
        {
          "internalType": "string",
          "name": "validatorAddr",
          "type": "string"
        },
        {
          "internalType": "uint256",
          "name": "delegateAmount",
          "type": "uint256"
        }
      ],
      "name": "scenario4_nativeTransferDelegateRevertNativeTransfer",
      "outputs": [],
      "stateMutability": "payable",
      "type": "function"
    },
    {
      "inputs": [
        {
          "internalType": "address payable",
          "name": "recipient",
          "type": "address"
        },
        {
          "internalType": "uint256",
          "name": "amount",
          "type": "uint256"
        }
      ],
      "name": "testNativeTransfer",
      "outputs": [
        {
          "internalType": "bool",
          "name": "",
          "type": "bool"
        }
      ],
      "stateMutability": "payable",
      "type": "function"
    },
    {
      "stateMutability": "payable",
      "type": "receive"
    }
  ],
  "bytecode": "0x60808060405234601557610aca908161001a8239f35b5f80fdfe6080604052600436101561001a575b3615610018575f80fd5b005b5f3560e01c8063456503c8146105805780635b3d97d5146104bd5780635c3f86c9146103765780636e348ad6146101a45780636f9fb98a14610189578063c489744b146100da578063e1f756c31461009e5763efd8be620361000e573461009a57602036600319011261009a5760206100916106c4565b31604051908152f35b5f80fd5b604036600319011261009a5760205f8080806100b86106c4565b602435906001600160a01b03165af16100cf61097b565b506040519015158152f35b3461009a57604036600319011261009a576100f36106c4565b6024356001600160a01b0381169081900361009a576040516370a0823160e01b8152600481019190915290602090829060249082906001600160a01b03165afa801561017e575f9061014b575b602090604051908152f35b506020813d602011610176575b81610165602093836106da565b8101031261009a5760209051610140565b3d9150610158565b6040513d5f823e3d90fd5b3461009a575f36600319011261009a57602047604051908152f35b3461009a576101b236610772565b60405163a9059cbb60e01b81526001600160a01b0385811660048301526024820185905290951691906020866044815f875af191821561017e5761020360209361023d985f91610359575b50610833565b5f516020610a755f395f51905f526040518061021e81610877565b0390a16040516353266bbb60e01b8152968792839230600485016108a2565b03815f6108005af192831561017e576102ae9460209461033e575b505f516020610a755f395f51905f5260405180610274816108e3565b0390a160405163a9059cbb60e01b81526001600160a01b0390911660048201526024810192909252909283919082905f9082906044820190565b03925af1801561017e576102c9915f9161030f575b50610936565b5f516020610a755f395f51905f526040518061030a81906040825260096040830152683a3930b739b332b91960b91b60608301526001602060808401930152565b0390a1005b610331915060203d602011610337575b61032981836106da565b81019061081b565b826102c3565b503d61031f565b61035490853d87116103375761032981836106da565b610258565b6103709150853d87116103375761032981836106da565b896101fd565b6104355f80808060206103ef61038b366107d1565b91946001600160a01b03909316939291906103b5878080808a8a5af16103af61097b565b506109aa565b5f516020610a755f395f51905f52604051806103d0816109f6565b0390a16040516353266bbb60e01b8152938492839230600485016108a2565b0381876108005af190816104a0575b5015831461047d575f516020610a755f395f51905f52604051806104218161090d565b0390a15b5af161042f61097b565b50610a28565b5f516020610a755f395f51905f526040518061030a819060408252601060408301526f3730ba34bb32afba3930b739b332b91960811b60608301526001602060808401930152565b5f516020610a755f395f51905f5260405180610498816108e3565b0390a1610425565b6104b89060203d6020116103375761032981836106da565b6103fe565b61052860206104cb366107d1565b91936001600160a01b039093169291906104ee5f80808089895af16103af61097b565b5f516020610a755f395f51905f5260405180610509816109f6565b0390a16040516353266bbb60e01b8152958692839230600485016108a2565b03815f6108005af192831561017e575f80938193829361043597610563575b505f516020610a755f395f51905f5260405180610421816108e3565b61057b9060203d6020116103375761032981836106da565b610547565b3461009a5761058e36610772565b60405163a9059cbb60e01b81526001600160a01b03858116600483015260248201859052919592949290911691906020816044815f875af1801561017e576102ae966020966105e88893610603955f916106a75750610833565b5f516020610a755f395f51905f52604051806103d081610877565b03815f6108005af1908161068c575b50610669575f516020610a755f395f51905f52604051806102748161090d565b60405163a9059cbb60e01b81526001600160a01b0390911660048201526024810192909252909283919082905f9082906044820190565b5f516020610a755f395f51905f5260405180610684816108e3565b0390a1610632565b6106a290863d88116103375761032981836106da565b610612565b6106be9150853d87116103375761032981836106da565b8b6101fd565b600435906001600160a01b038216820361009a57565b90601f8019910116810190811067ffffffffffffffff8211176106fc57604052565b634e487b7160e01b5f52604160045260245ffd5b67ffffffffffffffff81116106fc57601f01601f191660200190565b81601f8201121561009a5780359061074382610710565b9261075160405194856106da565b8284526020838301011161009a57815f926020809301838601378301015290565b9060a060031983011261009a576004356001600160a01b038116810361009a57916024356001600160a01b038116810361009a5791604435916064359067ffffffffffffffff821161009a576107ca9160040161072c565b9060843590565b608060031982011261009a576004356001600160a01b038116810361009a5791602435916044359067ffffffffffffffff821161009a576108149160040161072c565b9060643590565b9081602091031261009a5751801515810361009a5790565b1561083a57565b60405162461bcd60e51b8152602060048201526015602482015274119a5c9cdd081d1c985b9cd9995c8819985a5b1959605a1b6044820152606490fd5b906040825260096040830152687472616e736665723160b81b60608301526001602060808401930152565b939291602060809160409360018060a01b0316875260608288015280519182918260608a0152018388015e5f828288010152601f8019910116850101930152565b9060408252600860408301526764656c656761746560c01b60608301526001602060808401930152565b9060408252600860408301526764656c656761746560c01b60608301525f602060808401930152565b1561093d57565b60405162461bcd60e51b815260206004820152601660248201527514d958dbdb99081d1c985b9cd9995c8819985a5b195960521b6044820152606490fd5b3d156109a5573d9061098c82610710565b9161099a60405193846106da565b82523d5f602084013e565b606090565b156109b157565b60405162461bcd60e51b815260206004820152601c60248201527f4669727374206e6174697665207472616e73666572206661696c6564000000006044820152606490fd5b9060408252601060408301526f6e61746976655f7472616e736665723160801b60608301526001602060808401930152565b15610a2f57565b60405162461bcd60e51b815260206004820152601d60248201527f5365636f6e64206e6174697665207472616e73666572206661696c65640000006044820152606490fdfe9f4d25774676d497fe3d8c1e43709b68b186fad01b05798c1410a178ff4ed7d0a26469706673582212206f0fe7b19e0db887c92d2d03cc0836fdd5b1786bdb94dfbd08ae4ef1af86d1a164736f6c634300081c0033",
  "linkReferences": {},
  "deployedLinkReferences": {},
  "immutableReferences": {},
  "inputSourceName": "project/solidity/SequentialOperationsTester.sol",
  "buildInfoId": "solc-0_8_28-5377d090f526bc7ac520776f37497fb4bbd650cd"
}