{
  "_format": "hh3-artifact-1",
  "contractName": "SequentialICS20Sender",
  "sourceName": "solidity/SequentialICS20Sender.sol",
  "abi": [
    {
      "anonymous": false,
      "inputs": [
        {
          "indexed": false,
          "internalType": "uint256",
          "name": "balance",
          "type": "uint256"
        }
      ],
      "name": "BalanceQueried",
      "type": "event"
    },
    {
      "anonymous": false,
      "inputs": [
        {
          "indexed": true,
          "internalType": "uint256",
          "name": "attempt",
          "type": "uint256"
        },
        {
          "indexed": false,
          "internalType": "uint256",
          "name": "amount",
          "type": "uint256"
        },
        {
          "indexed": false,
          "internalType": "bool",
          "name": "success",
          "type": "bool"
        }
      ],
      "name": "ICS20SendAttempt",
      "type": "event"
    },
    {
      "anonymous": false,
      "inputs": [
        {
          "indexed": true,
          "internalType": "uint256",
          "name": "attempt",
          "type": "uint256"
        },
        {
          "indexed": false,
          "internalType": "string",
          "name": "reason",
          "type": "string"
        }
      ],
      "name": "SequentialSendReverted",
      "type": "event"
    },
    {
      "anonymous": false,
      "inputs": [
        {
          "indexed": false,
          "internalType": "address",
          "name": "token",
          "type": "address"
        },
        {
          "indexed": false,
          "internalType": "uint256",
          "name": "amount",
          "type": "uint256"
        }
      ],
      "name": "TokensReceived",
      "type": "event"
    },
    {
      "anonymous": false,
      "inputs": [
        {
          "indexed": false,
          "internalType": "address",
          "name": "token",
          "type": "address"
        },
        {
          "indexed": false,
          "internalType": "uint256",
          "name": "amount",
          "type": "uint256"
        }
      ],
      "name": "TokensReturned",
      "type": "event"
    },
    {
      "inputs": [
        {
          "internalType": "address",
          "name": "token",
          "type": "address"
        }
      ],
      "name": "getBalance",
      "outputs": [
        {
          "internalType": "uint256",
          "name": "",
          "type": "uint256"
        }
      ],
      "stateMutability": "view",
      "type": "function"
    },
    {
      "inputs": [
        {
          "internalType": "address",
          "name": "token",
          "type": "address"
        },
        {
          "internalType": "string",
          "name": "sourcePort",
          "type": "string"
        },
        {
          "internalType": "string",
          "name": "sourceChannel",
          "type": "string"
        },
        {
          "internalType": "string",
          "name": "denom",
          "type": "string"
        },
        {
          "internalType": "string",
          "name": "receiver",
          "type": "string"
        },
        {
          "internalType": "uint64",
          "name": "timeoutHeight",
          "type": "uint64"
        },
        {
          "internalType": "uint256",
          "name": "amount",
          "type": "uint256"
        }
      ],
      "name": "receiveAndSendTwice",
      "outputs": [],
      "stateMutability": "nonpayable",
      "type": "function"
    }
  ],
  "bytecode": "0x6080806040523461001657610576908161001b8239f35b5f80fdfe60406080815260049081361015610014575f80fd5b5f90813560e01c806365ab4537146100d15763f8b2cb4f14610034575f80fd5b346100cd57602092836003193601126100c957836001600160a01b0361005861038a565b169160248451809481936370a0823160e01b835230908301525afa9283156100be578093610089575b505051908152f35b909192508382813d83116100b7575b6100a281836103d4565b810103126100b4575051905f80610081565b80fd5b503d610098565b8251903d90823e3d90fd5b8280fd5b5080fd5b508290346100c95760e03660031901126100c9576100ed61038a565b67ffffffffffffffff91906024358381116103865761010f90369086016103f6565b906044358481116103825761012790369087016103f6565b9060643585811161037e5761013f90369088016103f6565b9260843586811161037a5761015790369089016103f6565b9560a43590811680910361037a5785516323b872dd60e01b8152338982015230602482015260c43560448201819052602098909490916001600160a01b039091169089816064818f865af1908115610370578c91610336575b50156102fe578389969594938c9389938b519081528b888b8301527f5a0ebf9442637ca6e817894481a6de0c29715a73efc9e02bb7ef4ed52843362d91a18c8b516101fa816103a4565b60018152838b8201528c51948591848c8c63632535b960e01b9a8b8752309288880196610226976104aa565b03978a856108029a818a8d5af194610266956102e1575b508c519361024a856103a4565b600185528b8501528c519b8c9a8b998a988952309489016104aa565b03925af190816102b4575b506102b0575162461bcd60e51b815291820152601660248201527514d958dbdb9908151c985b9cd9995c8811985a5b195960521b604482015260649150fd5b8380f35b6102d390843d86116102da575b6102cb81836103d4565b81019061044c565b5085610271565b503d6102c1565b6102f7908c8d3d106102da576102cb81836103d4565b505f61023d565b875162461bcd60e51b8152808b018a90526012602482015271151c985b9cd9995c881a5b8819985a5b195960721b6044820152606490fd5b90508981813d8311610369575b61034d81836103d4565b8101031261036557518015158103610365578c6101b0565b8b80fd5b503d610343565b89513d8e823e3d90fd5b8880fd5b8780fd5b8680fd5b8580fd5b600435906001600160a01b03821682036103a057565b5f80fd5b6040810190811067ffffffffffffffff8211176103c057604052565b634e487b7160e01b5f52604160045260245ffd5b90601f8019910116810190811067ffffffffffffffff8211176103c057604052565b81601f820112156103a05780359067ffffffffffffffff82116103c0576040519261042b601f8401601f1916602001856103d4565b828452602083830101116103a057815f926020809301838601378301015290565b908160209103126103a0575167ffffffffffffffff811681036103a05790565b91908251928382525f5b848110610496575050825f602080949584010152601f8019910116010190565b602081830181015184830182015201610476565b949061050c94936104db60209998946104ce6104e994610140808c528b019061046c565b908982038c8b015261046c565b90878203604089015261046c565b60608601939093526001600160a01b0316608085015283820360a085015261046c565b918367ffffffffffffffff918281511660c085015201511660e08201525f6101008201526101208183039101525f8152019056fea2646970667358221220566afb2271f466e88b6e590262b3b39e7737543320c02a86a220dcca2288575164736f6c63430008140033",
  "linkReferences": {},
  "deployedLinkReferences": {},
  "immutableReferences": {},
  "inputSourceName": "project/solidity/SequentialICS20Sender.sol",
  "buildInfoId": "solc-0_8_20-fda2ffeb444d7d9486f659e7e357f970dc6ac662"
}