{
  "_format": "hh3-artifact-1",
  "contractName": "StaticCallTester",
  "sourceName": "solidity/StaticCallTester.sol",
  "abi": [
    {
      "inputs": [
        {
          "internalType": "address",
          "name": "_werc20",
          "type": "address"
        }
      ],
      "stateMutability": "nonpayable",
      "type": "constructor"
    },
    {
      "inputs": [],
      "name": "counter",
      "outputs": [
        {
          "internalType": "uint256",
          "name": "",
          "type": "uint256"
        }
      ],
      "stateMutability": "view",
      "type": "function"
    },
    {
      "inputs": [],
      "name": "doIncrement",
      "outputs": [
        {
          "internalType": "uint256",
          "name": "",
          "type": "uint256"
        }
      ],
      "stateMutability": "nonpayable",
      "type": "function"
    },
    {
      "inputs": [
        {
          "internalType": "address",
          "name": "to",
          "type": "address"
        },
        {
          "internalType": "uint256",
          "name": "amount",
          "type": "uint256"
        }
      ],
      "name": "doPrecompileTransfer",
      "outputs": [
        {
          "internalType": "bool",
          "name": "",
          "type": "bool"
        }
      ],
      "stateMutability": "nonpayable",
      "type": "function"
    },
    {
      "inputs": [],
      "name": "getCounter",
      "outputs": [
        {
          "internalType": "uint256",
          "name": "",
          "type": "uint256"
        }
      ],
      "stateMutability": "view",
      "type": "function"
    },
    {
      "inputs": [],
      "name": "nonStaticIncrement",
      "outputs": [
        {
          "internalType": "uint256",
          "name": "",
          "type": "uint256"
        }
      ],
      "stateMutability": "nonpayable",
      "type": "function"
    },
    {
      "inputs": [
        {
          "internalType": "address",
          "name": "to",
          "type": "address"
        },
        {
          "internalType": "uint256",
          "name": "amount",
          "type": "uint256"
        }
      ],
      "name": "nonStaticPrecompileTransfer",
      "outputs": [
        {
          "internalType": "bool",
          "name": "",
          "type": "bool"
        }
      ],
      "stateMutability": "nonpayable",
      "type": "function"
    },
    {
      "inputs": [],
      "name": "staticIncrement",
      "outputs": [
        {
          "internalType": "bool",
          "name": "",
          "type": "bool"
        }
      ],
      "stateMutability": "nonpayable",
      "type": "function"
    },
    {
      "inputs": [
        {
          "internalType": "address",
          "name": "to",
          "type": "address"
        },
        {
          "internalType": "uint256",
          "name": "amount",
          "type": "uint256"
        }
      ],
      "name": "staticPrecompileTransfer",
      "outputs": [
        {
          "internalType": "bool",
          "name": "",
          "type": "bool"
        }
      ],
      "stateMutability": "nonpayable",
      "type": "function"
    },
    {
      "inputs": [],
      "name": "werc20",
      "outputs": [
        {
          "internalType": "contract IWERC20",
          "name": "",
          "type": "address"
        }
      ],
      "stateMutability": "view",
      "type": "function"
    }
  ],
  "bytecode": "0x60803461007357601f61040838819003918201601f19168301916001600160401b038311848410176100775780849260209460405283398101031261007357516001600160a01b03811690819003610073575f80546001600160a01b03191691909117905560405161037c908161008c8239f35b5f80fd5b634e487b7160e01b5f52604160045260245ffdfe6040608081526004361015610012575f80fd5b5f90813560e01c80631cfa8b101461017a5780634d751fbf146101a65780634ebbe1cf146101a65780635741229c1461017f57806361bc221a1461015c578063677d4eca1461017a5780638ada066e1461015c578063dfe9a695146100f25763eae6bdeb1461007f575f80fd5b346100ee57816003193601126100ee578051634ebbe1cf60e01b6020820190815260048252929080830167ffffffffffffffff8111828210176100da57835251602093829190305afa906100d1610307565b50519015158152f35b634e487b7160e01b83526041600452602483fd5b5080fd5b50346100ee578160209261014e61014061010b366101ab565b86516301cfa8b160e41b8982019081526001600160a01b03909316602482015260448101919091529092909182906064820190565b03601f1981018352826102d1565b5190305afa906100d1610307565b50346100ee57816003193601126100ee576020906001549051908152f35b6101d5565b50346100ee57816003193601126100ee57905490516001600160a01b039091168152602090f35b610290565b60409060031901126101d1576004356001600160a01b03811681036101d1579060243590565b5f80fd5b346101d15760206102286101e8366101ab565b5f805460405163a9059cbb60e01b81526001600160a01b039485166004820152602481019390935290949193919284929116908290869082906044820190565b03925af1908115610285578291610247575b6020826040519015158152f35b90506020813d821161027d575b81610261602093836102d1565b810103126100ee575180151581036100ee57602091505f61023a565b3d9150610254565b6040513d84823e3d90fd5b346101d1575f3660031901126101d1576001545f1981146102bd5760016020910180600155604051908152f35b634e487b7160e01b5f52601160045260245ffd5b90601f8019910116810190811067ffffffffffffffff8211176102f357604052565b634e487b7160e01b5f52604160045260245ffd5b3d15610341573d9067ffffffffffffffff82116102f35760405191610336601f8201601f1916602001846102d1565b82523d5f602084013e565b60609056fea2646970667358221220bf81982b9ec32e7400e2b3d0abb097ffaa9ed7bc409745727941d68cc3f6991964736f6c63430008140033",
  "linkReferences": {},
  "deployedLinkReferences": {},
  "immutableReferences": {},
  "inputSourceName": "project/solidity/StaticCallTester.sol",
  "buildInfoId": "solc-0_8_20-fda2ffeb444d7d9486f659e7e357f970dc6ac662"
}