{
  "_format": "hh3-artifact-1",
  "contractName": "StaticCallTester",
  "sourceName": "solidity/StaticCallTester.sol",
  "abi": [
    {
      "inputs": [
        {
          "internalType": "address",
          "name": "_werc20",
          "type": "address"
        }
      ],
      "stateMutability": "nonpayable",
      "type": "constructor"
    },
    {
      "inputs": [],
      "name": "counter",
      "outputs": [
        {
          "internalType": "uint256",
          "name": "",
          "type": "uint256"
        }
      ],
      "stateMutability": "view",
      "type": "function"
    },
    {
      "inputs": [],
      "name": "doIncrement",
      "outputs": [
        {
          "internalType": "uint256",
          "name": "",
          "type": "uint256"
        }
      ],
      "stateMutability": "nonpayable",
      "type": "function"
    },
    {
      "inputs": [
        {
          "internalType": "address",
          "name": "to",
          "type": "address"
        },
        {
          "internalType": "uint256",
          "name": "amount",
          "type": "uint256"
        }
      ],
      "name": "doPrecompileTransfer",
      "outputs": [
        {
          "internalType": "bool",
          "name": "",
          "type": "bool"
        }
      ],
      "stateMutability": "nonpayable",
      "type": "function"
    },
    {
      "inputs": [],
      "name": "getCounter",
      "outputs": [
        {
          "internalType": "uint256",
          "name": "",
          "type": "uint256"
        }
      ],
      "stateMutability": "view",
      "type": "function"
    },
    {
      "inputs": [],
      "name": "nonStaticIncrement",
      "outputs": [
        {
          "internalType": "uint256",
          "name": "",
          "type": "uint256"
        }
      ],
      "stateMutability": "nonpayable",
      "type": "function"
    },
    {
      "inputs": [
        {
          "internalType": "address",
          "name": "to",
          "type": "address"
        },
        {
          "internalType": "uint256",
          "name": "amount",
          "type": "uint256"
        }
      ],
      "name": "nonStaticPrecompileTransfer",
      "outputs": [
        {
          "internalType": "bool",
          "name": "",
          "type": "bool"
        }
      ],
      "stateMutability": "nonpayable",
      "type": "function"
    },
    {
      "inputs": [],
      "name": "staticIncrement",
      "outputs": [
        {
          "internalType": "bool",
          "name": "",
          "type": "bool"
        }
      ],
      "stateMutability": "nonpayable",
      "type": "function"
    },
    {
      "inputs": [
        {
          "internalType": "address",
          "name": "to",
          "type": "address"
        },
        {
          "internalType": "uint256",
          "name": "amount",
          "type": "uint256"
        }
      ],
      "name": "staticPrecompileTransfer",
      "outputs": [
        {
          "internalType": "bool",
          "name": "",
          "type": "bool"
        }
      ],
      "stateMutability": "nonpayable",
      "type": "function"
    },
    {
      "inputs": [],
      "name": "werc20",
      "outputs": [
        {
          "internalType": "contract IWERC20",
          "name": "",
          "type": "address"
        }
      ],
      "stateMutability": "view",
      "type": "function"
    }
  ],
  "bytecode": "0x608034606f57601f6103c438819003918201601f19168301916001600160401b03831184841017607357808492602094604052833981010312606f57516001600160a01b03811690819003606f575f80546001600160a01b03191691909117905560405161033c90816100888239f35b5f80fd5b634e487b7160e01b5f52604160045260245ffdfe60806040526004361015610011575f80fd5b5f3560e01c80631cfa8b10146101455780634d751fbf146101715780634ebbe1cf146101715780635741229c1461014a57806361bc221a14610128578063677d4eca146101455780638ada066e14610128578063dfe9a695146100cc5763eae6bdeb1461007c575f80fd5b346100c8575f3660031901126100c85760205f8060405183810190634ebbe1cf60e01b8252600481526100b0602482610291565b5190305afa6100bd6102c7565b506040519015158152f35b5f80fd5b346100c85760205f806100b061011a6100e436610176565b6040516301cfa8b160e41b8882019081526001600160a01b03909316602482015260448101919091529092909182906064820190565b03601f198101835282610291565b346100c8575f3660031901126100c8576020600154604051908152f35b61019c565b346100c8575f3660031901126100c8575f546040516001600160a01b039091168152602090f35b610250565b60409060031901126100c8576004356001600160a01b03811681036100c8579060243590565b346100c8576101eb60206101af36610176565b5f805460405163a9059cbb60e01b81526001600160a01b0394851660048201526024810193909352919485939092169183919082906044820190565b03925af18015610245575f90610209575b6040519015158152602090f35b506020813d60201161023d575b8161022360209383610291565b810103126100c8575180151581036100c8576020906101fc565b3d9150610216565b6040513d5f823e3d90fd5b346100c8575f3660031901126100c8576001545f19811461027d5760016020910180600155604051908152f35b634e487b7160e01b5f52601160045260245ffd5b90601f8019910116810190811067ffffffffffffffff8211176102b357604052565b634e487b7160e01b5f52604160045260245ffd5b3d15610301573d9067ffffffffffffffff82116102b357604051916102f6601f8201601f191660200184610291565b82523d5f602084013e565b60609056fea2646970667358221220784409a612f09146bf3858554a596a7578e8c75cb93e3a1f4b93729b401c026464736f6c634300081c0033",
  "linkReferences": {},
  "deployedLinkReferences": {},
  "immutableReferences": {},
  "inputSourceName": "project/solidity/StaticCallTester.sol",
  "buildInfoId": "solc-0_8_28-e55ad96646b3bb5046840fe24a1f6856fc44be2c"
}