{
  "_format": "hh3-artifact-1",
  "contractName": "WATOM",
  "sourceName": "solidity/WATOM.sol",
  "abi": [
    {
      "anonymous": false,
      "inputs": [
        {
          "indexed": true,
          "internalType": "address",
          "name": "dst",
          "type": "address"
        },
        {
          "indexed": false,
          "internalType": "uint256",
          "name": "amount",
          "type": "uint256"
        }
      ],
      "name": "Deposit",
      "type": "event"
    },
    {
      "anonymous": false,
      "inputs": [
        {
          "indexed": true,
          "internalType": "address",
          "name": "src",
          "type": "address"
        },
        {
          "indexed": true,
          "internalType": "address",
          "name": "dst",
          "type": "address"
        },
        {
          "indexed": false,
          "internalType": "uint256",
          "name": "amount",
          "type": "uint256"
        }
      ],
      "name": "Transfer",
      "type": "event"
    },
    {
      "anonymous": false,
      "inputs": [
        {
          "indexed": true,
          "internalType": "address",
          "name": "src",
          "type": "address"
        },
        {
          "indexed": false,
          "internalType": "uint256",
          "name": "amount",
          "type": "uint256"
        }
      ],
      "name": "Withdrawal",
      "type": "event"
    },
    {
      "inputs": [
        {
          "internalType": "address",
          "name": "",
          "type": "address"
        }
      ],
      "name": "balanceOf",
      "outputs": [
        {
          "internalType": "uint256",
          "name": "",
          "type": "uint256"
        }
      ],
      "stateMutability": "view",
      "type": "function"
    },
    {
      "inputs": [],
      "name": "decimals",
      "outputs": [
        {
          "internalType": "uint8",
          "name": "",
          "type": "uint8"
        }
      ],
      "stateMutability": "view",
      "type": "function"
    },
    {
      "inputs": [],
      "name": "deposit",
      "outputs": [],
      "stateMutability": "payable",
      "type": "function"
    },
    {
      "inputs": [],
      "name": "name",
      "outputs": [
        {
          "internalType": "string",
          "name": "",
          "type": "string"
        }
      ],
      "stateMutability": "view",
      "type": "function"
    },
    {
      "inputs": [],
      "name": "symbol",
      "outputs": [
        {
          "internalType": "string",
          "name": "",
          "type": "string"
        }
      ],
      "stateMutability": "view",
      "type": "function"
    },
    {
      "inputs": [
        {
          "internalType": "address",
          "name": "to",
          "type": "address"
        },
        {
          "internalType": "uint256",
          "name": "amount",
          "type": "uint256"
        }
      ],
      "name": "transfer",
      "outputs": [
        {
          "internalType": "bool",
          "name": "",
          "type": "bool"
        }
      ],
      "stateMutability": "nonpayable",
      "type": "function"
    },
    {
      "inputs": [
        {
          "internalType": "uint256",
          "name": "amount",
          "type": "uint256"
        }
      ],
      "name": "withdraw",
      "outputs": [],
      "stateMutability": "nonpayable",
      "type": "function"
    },
    {
      "stateMutability": "payable",
      "type": "receive"
    }
  ],
  "bytecode": "0x6080604052346100ca575f61001481546100ce565b601f81116100a0575b5060186b577261707065642041746f6d60a01b01815560019061004082546100ce565b90601f8211610074575b600a645741544f4d60d81b0183556002805460ff191660121790556040516105b690816101078239f35b82815282601f60208320930160051c8301925b83811061009557505061004a565b828155018390610087565b818052601f60208320910160051c8101905b8181106100bf575061001d565b8281556001016100b2565b5f80fd5b90600182811c921680156100fc575b60208310146100e857565b634e487b7160e01b5f52602260045260245ffd5b91607f16916100dd56fe60806040908082526004918236101561002a575b5050503615610020575f80fd5b6100286104e9565b005b5f92833560e01c92836306fdde0314610397575082632e1a7d4d14610285578263313ce5671461026357826370a082311461022b57826395d89b411461014657508163a9059cbb146100a1575063d0e30db014610088578080610013565b8060031936011261009e5761009b6104e9565b80f35b80fd5b9050346101425780600319360112610142576020916100be6104ae565b8260243591338452600386526100d983838620541015610530565b338452600386528184206100ee848254610573565b90556001600160a01b0316808452600386529220805461010f9083906104c8565b905582519081527fddf252ad1be2c89b69c2b068fc378daa952ba7f163c4a11628f55a4df523b3ef843392a35160018152f35b5080fd5b91503461022757826003193601126102275780519183600180549182821c92828116801561021d575b602095868610821461020a57508488529081156101e857506001146101ae575b6101aa86866101a0828b0383610431565b5191829182610467565b0390f35b9295508083528583205b8284106101d557505050826101aa946101a092820101945f61018f565b80548685018801529286019281016101b8565b60ff191687860152505050151560051b83010192506101a0826101aa5f61018f565b634e487b7160e01b845260229052602483fd5b93607f169361016f565b8280fd5b8382346101425760203660031901126101425760209181906001600160a01b036102536104ae565b1681526003845220549051908152f35b83823461014257816003193601126101425760209060ff600254169051908152f35b915034610227576020908160031936011261039357823592338552600383526102b384838720541015610530565b338552600383528185206102c8858254610573565b90558480808087335af13d1561038e573d67ffffffffffffffff811161037b578351906102fe601f8201601f1916870183610431565b815286853d92013e5b1561033a5750907f7fcf532c15f0a6db0bd6d0e038bea71d30d808c7d98cb3bf7268a95bf5081b6591519283523392a280f35b82606492519162461bcd60e51b8352820152601c60248201527f6661696c656420746f20776974686472617720746f2073656e646572000000006044820152fd5b634e487b7160e01b875260418352602487fd5b610307565b8380fd5b9250346103935783600319360112610393578354600181811c9186908281168015610427575b602095868610821461020a57508488529081156101e857506001146103ed576101aa86866101a0828b0383610431565b8080949750528583205b82841061041457505050826101aa946101a092820101945f61018f565b80548685018801529286019281016103f7565b93607f16936103bd565b90601f8019910116810190811067ffffffffffffffff82111761045357604052565b634e487b7160e01b5f52604160045260245ffd5b602080825282518183018190529093925f5b82811061049a57505060409293505f838284010152601f8019910116010190565b818101860151848201604001528501610479565b600435906001600160a01b03821682036104c457565b5f80fd5b919082018092116104d557565b634e487b7160e01b5f52601160045260245ffd5b335f52600360205260405f206105003482546104c8565b90556040513481527fe1fffcc4923d04b559f4d29a8bfc6cda04eb5b0d3c460751c2402c5c5cc9109c60203392a2565b1561053757565b60405162461bcd60e51b8152602060048201526014602482015273696e73756666696369656e742062616c616e636560601b6044820152606490fd5b919082039182116104d55756fea2646970667358221220781d5b5262080869704ab6f061c7c08072fdbd57792f9dceaa91acc4518ce7c964736f6c63430008140033",
  "linkReferences": {},
  "deployedLinkReferences": {},
  "immutableReferences": {},
  "inputSourceName": "project/solidity/WATOM.sol",
  "buildInfoId": "solc-0_8_20-fda2ffeb444d7d9486f659e7e357f970dc6ac662"
}