{
  "_format": "hh3-artifact-1",
  "contractName": "WATOM",
  "sourceName": "solidity/WATOM.sol",
  "abi": [
    {
      "anonymous": false,
      "inputs": [
        {
          "indexed": true,
          "internalType": "address",
          "name": "dst",
          "type": "address"
        },
        {
          "indexed": false,
          "internalType": "uint256",
          "name": "amount",
          "type": "uint256"
        }
      ],
      "name": "Deposit",
      "type": "event"
    },
    {
      "anonymous": false,
      "inputs": [
        {
          "indexed": true,
          "internalType": "address",
          "name": "src",
          "type": "address"
        },
        {
          "indexed": true,
          "internalType": "address",
          "name": "dst",
          "type": "address"
        },
        {
          "indexed": false,
          "internalType": "uint256",
          "name": "amount",
          "type": "uint256"
        }
      ],
      "name": "Transfer",
      "type": "event"
    },
    {
      "anonymous": false,
      "inputs": [
        {
          "indexed": true,
          "internalType": "address",
          "name": "src",
          "type": "address"
        },
        {
          "indexed": false,
          "internalType": "uint256",
          "name": "amount",
          "type": "uint256"
        }
      ],
      "name": "Withdrawal",
      "type": "event"
    },
    {
      "inputs": [
        {
          "internalType": "address",
          "name": "",
          "type": "address"
        }
      ],
      "name": "balanceOf",
      "outputs": [
        {
          "internalType": "uint256",
          "name": "",
          "type": "uint256"
        }
      ],
      "stateMutability": "view",
      "type": "function"
    },
    {
      "inputs": [],
      "name": "decimals",
      "outputs": [
        {
          "internalType": "uint8",
          "name": "",
          "type": "uint8"
        }
      ],
      "stateMutability": "view",
      "type": "function"
    },
    {
      "inputs": [],
      "name": "deposit",
      "outputs": [],
      "stateMutability": "payable",
      "type": "function"
    },
    {
      "inputs": [],
      "name": "name",
      "outputs": [
        {
          "internalType": "string",
          "name": "",
          "type": "string"
        }
      ],
      "stateMutability": "view",
      "type": "function"
    },
    {
      "inputs": [],
      "name": "symbol",
      "outputs": [
        {
          "internalType": "string",
          "name": "",
          "type": "string"
        }
      ],
      "stateMutability": "view",
      "type": "function"
    },
    {
      "inputs": [
        {
          "internalType": "address",
          "name": "to",
          "type": "address"
        },
        {
          "internalType": "uint256",
          "name": "amount",
          "type": "uint256"
        }
      ],
      "name": "transfer",
      "outputs": [
        {
          "internalType": "bool",
          "name": "",
          "type": "bool"
        }
      ],
      "stateMutability": "nonpayable",
      "type": "function"
    },
    {
      "inputs": [
        {
          "internalType": "uint256",
          "name": "amount",
          "type": "uint256"
        }
      ],
      "name": "withdraw",
      "outputs": [],
      "stateMutability": "nonpayable",
      "type": "function"
    },
    {
      "stateMutability": "payable",
      "type": "receive"
    }
  ],
  "bytecode": "0x60806040523461010f576100135f54610113565b601f81116100c8575b507f577261707065642041746f6d00000000000000000000000000000000000000185f5560015461004c90610113565b601f8111610080575b600a645741544f4d60d81b016001556002805460ff191660121790556040516105ab908161014c8239f35b60015f52601f0160051c7fb10e2d527612073b26eecdfd717e6a320cf44b4afac2b0732d9fcbe2b7fa0cf6908101905b8181106100bd5750610055565b5f81556001016100b0565b5f8052601f0160051c7f290decd9548b62a8d60345a988386fc84ba6bc95484008f6362f93160ef3e563908101905b818110610104575061001c565b5f81556001016100f7565b5f80fd5b90600182811c92168015610141575b602083101461012d57565b634e487b7160e01b5f52602260045260245ffd5b91607f169161012256fe60806040526004361015610022575b3615610018575f80fd5b61002061052e565b005b5f3560e01c806306fdde03146103a35780632e1a7d4d1461028d578063313ce5671461026d57806370a082311461023557806395d89b4114610131578063a9059cbb1461008a5763d0e30db00361000e575f3660031901126100865761002061052e565b5f80fd5b34610086576040366003190112610086576100a36104a7565b60243590335f5260036020526100bf8260405f205410156104bd565b335f52600360205260405f206100d6838254610500565b905560018060a01b031690815f52600360205260405f206100f8828254610521565b90556040519081527fddf252ad1be2c89b69c2b068fc378daa952ba7f163c4a11628f55a4df523b3ef60203392a3602060405160018152f35b34610086575f366003190112610086576040515f6001548060011c9060018116801561022b575b602083108114610217578285529081156101f35750600114610195575b610191836101858185038261045b565b6040519182918261047d565b0390f35b60015f9081527fb10e2d527612073b26eecdfd717e6a320cf44b4afac2b0732d9fcbe2b7fa0cf6939250905b8082106101d957509091508101602001610185610175565b9192600181602092548385880101520191019092916101c1565b60ff191660208086019190915291151560051b840190910191506101859050610175565b634e487b7160e01b5f52602260045260245ffd5b91607f1691610158565b34610086576020366003190112610086576001600160a01b036102566104a7565b165f526003602052602060405f2054604051908152f35b34610086575f36600319011261008657602060ff60025416604051908152f35b3461008657602036600319011261008657600435335f5260036020526102b98160405f205410156104bd565b335f52600360205260405f206102d0828254610500565b90555f80808084335af13d1561039e573d67ffffffffffffffff811161038a5760405190610308601f8201601f19166020018361045b565b81525f60203d92013e5b15610345576040519081527f7fcf532c15f0a6db0bd6d0e038bea71d30d808c7d98cb3bf7268a95bf5081b6560203392a2005b60405162461bcd60e51b815260206004820152601c60248201527f6661696c656420746f20776974686472617720746f2073656e646572000000006044820152606490fd5b634e487b7160e01b5f52604160045260245ffd5b610312565b34610086575f366003190112610086576040515f5f548060011c90600181168015610451575b602083108114610217578285529081156101f357506001146103f557610191836101858185038261045b565b5f8080527f290decd9548b62a8d60345a988386fc84ba6bc95484008f6362f93160ef3e563939250905b80821061043757509091508101602001610185610175565b91926001816020925483858801015201910190929161041f565b91607f16916103c9565b90601f8019910116810190811067ffffffffffffffff82111761038a57604052565b602060409281835280519182918282860152018484015e5f828201840152601f01601f1916010190565b600435906001600160a01b038216820361008657565b156104c457565b60405162461bcd60e51b8152602060048201526014602482015273696e73756666696369656e742062616c616e636560601b6044820152606490fd5b9190820391821161050d57565b634e487b7160e01b5f52601160045260245ffd5b9190820180921161050d57565b335f52600360205260405f20610545348254610521565b90556040513481527fe1fffcc4923d04b559f4d29a8bfc6cda04eb5b0d3c460751c2402c5c5cc9109c60203392a256fea264697066735822122082f1891ea18bd19eece65d8f94a34104f9927661a4c01c7136b983fb66dfb79964736f6c634300081c0033",
  "linkReferences": {},
  "deployedLinkReferences": {},
  "immutableReferences": {},
  "inputSourceName": "project/solidity/WATOM.sol",
  "buildInfoId": "solc-0_8_28-e55ad96646b3bb5046840fe24a1f6856fc44be2c"
}