{
  "_format": "hh3-artifact-1",
  "contractName": "CounterWithCallbacks",
  "sourceName": "solidity/x/ibc/callbacks/testutil/CounterWithCallbacks.sol",
  "abi": [
    {
      "anonymous": false,
      "inputs": [
        {
          "indexed": false,
          "internalType": "int256",
          "name": "newValue",
          "type": "int256"
        },
        {
          "indexed": true,
          "internalType": "address",
          "name": "user",
          "type": "address"
        }
      ],
      "name": "CounterIncremented",
      "type": "event"
    },
    {
      "anonymous": false,
      "inputs": [
        {
          "indexed": true,
          "internalType": "string",
          "name": "channelId",
          "type": "string"
        },
        {
          "indexed": true,
          "internalType": "string",
          "name": "portId",
          "type": "string"
        },
        {
          "indexed": false,
          "internalType": "uint64",
          "name": "sequence",
          "type": "uint64"
        },
        {
          "indexed": false,
          "internalType": "bytes",
          "name": "data",
          "type": "bytes"
        },
        {
          "indexed": false,
          "internalType": "bytes",
          "name": "acknowledgement",
          "type": "bytes"
        }
      ],
      "name": "PacketAcknowledged",
      "type": "event"
    },
    {
      "anonymous": false,
      "inputs": [
        {
          "indexed": true,
          "internalType": "string",
          "name": "channelId",
          "type": "string"
        },
        {
          "indexed": true,
          "internalType": "string",
          "name": "portId",
          "type": "string"
        },
        {
          "indexed": false,
          "internalType": "uint64",
          "name": "sequence",
          "type": "uint64"
        },
        {
          "indexed": false,
          "internalType": "bytes",
          "name": "data",
          "type": "bytes"
        }
      ],
      "name": "PacketTimedOut",
      "type": "event"
    },
    {
      "anonymous": false,
      "inputs": [
        {
          "indexed": true,
          "internalType": "address",
          "name": "user",
          "type": "address"
        },
        {
          "indexed": true,
          "internalType": "address",
          "name": "token",
          "type": "address"
        },
        {
          "indexed": false,
          "internalType": "uint256",
          "name": "amount",
          "type": "uint256"
        },
        {
          "indexed": false,
          "internalType": "uint256",
          "name": "newBalance",
          "type": "uint256"
        }
      ],
      "name": "TokensDeposited",
      "type": "event"
    },
    {
      "inputs": [
        {
          "internalType": "address",
          "name": "token",
          "type": "address"
        },
        {
          "internalType": "uint256",
          "name": "amount",
          "type": "uint256"
        }
      ],
      "name": "add",
      "outputs": [],
      "stateMutability": "nonpayable",
      "type": "function"
    },
    {
      "inputs": [],
      "name": "counter",
      "outputs": [
        {
          "internalType": "int256",
          "name": "",
          "type": "int256"
        }
      ],
      "stateMutability": "view",
      "type": "function"
    },
    {
      "inputs": [],
      "name": "getCounter",
      "outputs": [
        {
          "internalType": "int256",
          "name": "",
          "type": "int256"
        }
      ],
      "stateMutability": "view",
      "type": "function"
    },
    {
      "inputs": [
        {
          "internalType": "address",
          "name": "user",
          "type": "address"
        },
        {
          "internalType": "address",
          "name": "token",
          "type": "address"
        }
      ],
      "name": "getTokenBalance",
      "outputs": [
        {
          "internalType": "uint256",
          "name": "",
          "type": "uint256"
        }
      ],
      "stateMutability": "view",
      "type": "function"
    },
    {
      "inputs": [
        {
          "internalType": "string",
          "name": "channelId",
          "type": "string"
        },
        {
          "internalType": "string",
          "name": "portId",
          "type": "string"
        },
        {
          "internalType": "uint64",
          "name": "sequence",
          "type": "uint64"
        },
        {
          "internalType": "bytes",
          "name": "data",
          "type": "bytes"
        },
        {
          "internalType": "bytes",
          "name": "acknowledgement",
          "type": "bytes"
        }
      ],
      "name": "onPacketAcknowledgement",
      "outputs": [],
      "stateMutability": "nonpayable",
      "type": "function"
    },
    {
      "inputs": [
        {
          "internalType": "string",
          "name": "channelId",
          "type": "string"
        },
        {
          "internalType": "string",
          "name": "portId",
          "type": "string"
        },
        {
          "internalType": "uint64",
          "name": "sequence",
          "type": "uint64"
        },
        {
          "internalType": "bytes",
          "name": "data",
          "type": "bytes"
        }
      ],
      "name": "onPacketTimeout",
      "outputs": [],
      "stateMutability": "nonpayable",
      "type": "function"
    },
    {
      "inputs": [],
      "name": "resetCounter",
      "outputs": [],
      "stateMutability": "nonpayable",
      "type": "function"
    },
    {
      "inputs": [
        {
          "internalType": "address",
          "name": "",
          "type": "address"
        },
        {
          "internalType": "address",
          "name": "",
          "type": "address"
        }
      ],
      "name": "userTokenBalances",
      "outputs": [
        {
          "internalType": "uint256",
          "name": "",
          "type": "uint256"
        }
      ],
      "stateMutability": "view",
      "type": "function"
    }
  ],
  "bytecode": "0x60808060405234610016576105d0908161001b8239f35b5f80fdfe60406080815260049081361015610014575f80fd5b5f90813560e01c80631f8ee6031461034c57806339b4073a1461024957806345f2d105146101e557806361bc221a1461022d5780638ada066e1461022d578063c489744b146101e5578063dbdf7fce146101cb5763f5d82b6b14610076575f80fd5b346101c757806003193601126101c75761008e6104d8565b6024359060018060a01b03169180516323b872dd60e01b81523386820152306024820152826044820152602090818160648189895af180156101bd57610182575b506100da8554610504565b855533855260018152818520848652815281852080549084820180921161016f57907f9d572f819ae4f4b4839dda54bcb4cc8d7c2f0a67807db864716b20eafb51535993929155855482519081527fea6fcea9210b4226b3bb7e55ffa18bf072036d64073f5553336ee9bef303c2f0823392a2338652600181528186208587528152818620549082519485528401523392a380f35b634e487b7160e01b875260118852602487fd5b8181813d83116101b6575b6101978183610431565b810103126101b25751801515036101ae575f6100cf565b8480fd5b8580fd5b503d61018d565b83513d88823e3d90fd5b5080fd5b82346101e257806003193601126101e25780805580f35b80fd5b50346101c757806003193601126101c757806020926102026104d8565b61020a6104ee565b6001600160a01b0391821683526001865283832091168252845220549051908152f35b50346101c757816003193601126101c757602091549051908152f35b5082346103485760a03660031901126103485767ffffffffffffffff9080358281116101ae5761027c9036908301610467565b916024358181116101b2576102949036908401610467565b9261029d6104c1565b90606435838111610344576102b59036908601610467565b9560843591848311610340576103216103076103016102fb7f42611285d4634f96d3f741584f4f896003f59253c3c7a40472cbf0053e726b5f9961032e97369101610467565b93610555565b98610555565b988351968796168652606060208701526060860190610575565b9184830390850152610575565b0390a361033b8154610504565b815580f35b8880fd5b8780fd5b8280fd5b508290346103485760803660031901126103485767ffffffffffffffff82358181116101ae5761037f9036908501610467565b6024358281116101b2576103969036908601610467565b9161039f6104c1565b606435828111610344577f1e0d6d3f26f1ac738b3c50c77ac3e7931853b73d3c754eba1ec9ea2dfb0442c8936103ed6103e76103e16104049436908c01610467565b92610555565b96610555565b968051948594168452806020850152830190610575565b0390a38154905f19820191821360011661041e5750815580f35b634e487b7160e01b835260119052602482fd5b90601f8019910116810190811067ffffffffffffffff82111761045357604052565b634e487b7160e01b5f52604160045260245ffd5b81601f820112156104bd5780359067ffffffffffffffff8211610453576040519261049c601f8401601f191660200185610431565b828452602083830101116104bd57815f926020809301838601378301015290565b5f80fd5b6044359067ffffffffffffffff821682036104bd57565b600435906001600160a01b03821682036104bd57565b602435906001600160a01b03821682036104bd57565b9060018201915f60018412911290801582169115161761052057565b634e487b7160e01b5f52601160045260245ffd5b5f5b8381106105455750505f910152565b8181015183820152602001610536565b61056d90602060405192828480945193849201610534565b810103902090565b9060209161058e81518092818552858086019101610534565b601f01601f191601019056fea264697066735822122017f13fc34ecfaa70f2560525cdc075dc20d8b0285fcf14aa2c4fb379653e328464736f6c63430008140033",
  "linkReferences": {},
  "deployedLinkReferences": {},
  "immutableReferences": {},
  "inputSourceName": "project/solidity/x/ibc/callbacks/testutil/CounterWithCallbacks.sol",
  "buildInfoId": "solc-0_8_20-fda2ffeb444d7d9486f659e7e357f970dc6ac662"
}