{
  "_format": "hh3-artifact-1",
  "contractName": "CounterWithCallbacks",
  "sourceName": "solidity/x/ibc/callbacks/testutil/CounterWithCallbacks.sol",
  "abi": [
    {
      "anonymous": false,
      "inputs": [
        {
          "indexed": false,
          "internalType": "int256",
          "name": "newValue",
          "type": "int256"
        },
        {
          "indexed": true,
          "internalType": "address",
          "name": "user",
          "type": "address"
        }
      ],
      "name": "CounterIncremented",
      "type": "event"
    },
    {
      "anonymous": false,
      "inputs": [
        {
          "indexed": true,
          "internalType": "string",
          "name": "channelId",
          "type": "string"
        },
        {
          "indexed": true,
          "internalType": "string",
          "name": "portId",
          "type": "string"
        },
        {
          "indexed": false,
          "internalType": "uint64",
          "name": "sequence",
          "type": "uint64"
        },
        {
          "indexed": false,
          "internalType": "bytes",
          "name": "data",
          "type": "bytes"
        },
        {
          "indexed": false,
          "internalType": "bytes",
          "name": "acknowledgement",
          "type": "bytes"
        }
      ],
      "name": "PacketAcknowledged",
      "type": "event"
    },
    {
      "anonymous": false,
      "inputs": [
        {
          "indexed": true,
          "internalType": "string",
          "name": "channelId",
          "type": "string"
        },
        {
          "indexed": true,
          "internalType": "string",
          "name": "portId",
          "type": "string"
        },
        {
          "indexed": false,
          "internalType": "uint64",
          "name": "sequence",
          "type": "uint64"
        },
        {
          "indexed": false,
          "internalType": "bytes",
          "name": "data",
          "type": "bytes"
        }
      ],
      "name": "PacketTimedOut",
      "type": "event"
    },
    {
      "anonymous": false,
      "inputs": [
        {
          "indexed": true,
          "internalType": "address",
          "name": "user",
          "type": "address"
        },
        {
          "indexed": true,
          "internalType": "address",
          "name": "token",
          "type": "address"
        },
        {
          "indexed": false,
          "internalType": "uint256",
          "name": "amount",
          "type": "uint256"
        },
        {
          "indexed": false,
          "internalType": "uint256",
          "name": "newBalance",
          "type": "uint256"
        }
      ],
      "name": "TokensDeposited",
      "type": "event"
    },
    {
      "inputs": [
        {
          "internalType": "address",
          "name": "token",
          "type": "address"
        },
        {
          "internalType": "uint256",
          "name": "amount",
          "type": "uint256"
        }
      ],
      "name": "add",
      "outputs": [],
      "stateMutability": "nonpayable",
      "type": "function"
    },
    {
      "inputs": [],
      "name": "counter",
      "outputs": [
        {
          "internalType": "int256",
          "name": "",
          "type": "int256"
        }
      ],
      "stateMutability": "view",
      "type": "function"
    },
    {
      "inputs": [],
      "name": "getCounter",
      "outputs": [
        {
          "internalType": "int256",
          "name": "",
          "type": "int256"
        }
      ],
      "stateMutability": "view",
      "type": "function"
    },
    {
      "inputs": [
        {
          "internalType": "address",
          "name": "user",
          "type": "address"
        },
        {
          "internalType": "address",
          "name": "token",
          "type": "address"
        }
      ],
      "name": "getTokenBalance",
      "outputs": [
        {
          "internalType": "uint256",
          "name": "",
          "type": "uint256"
        }
      ],
      "stateMutability": "view",
      "type": "function"
    },
    {
      "inputs": [
        {
          "internalType": "string",
          "name": "channelId",
          "type": "string"
        },
        {
          "internalType": "string",
          "name": "portId",
          "type": "string"
        },
        {
          "internalType": "uint64",
          "name": "sequence",
          "type": "uint64"
        },
        {
          "internalType": "bytes",
          "name": "data",
          "type": "bytes"
        },
        {
          "internalType": "bytes",
          "name": "acknowledgement",
          "type": "bytes"
        }
      ],
      "name": "onPacketAcknowledgement",
      "outputs": [],
      "stateMutability": "nonpayable",
      "type": "function"
    },
    {
      "inputs": [
        {
          "internalType": "string",
          "name": "channelId",
          "type": "string"
        },
        {
          "internalType": "string",
          "name": "portId",
          "type": "string"
        },
        {
          "internalType": "uint64",
          "name": "sequence",
          "type": "uint64"
        },
        {
          "internalType": "bytes",
          "name": "data",
          "type": "bytes"
        }
      ],
      "name": "onPacketTimeout",
      "outputs": [],
      "stateMutability": "nonpayable",
      "type": "function"
    },
    {
      "inputs": [],
      "name": "resetCounter",
      "outputs": [],
      "stateMutability": "nonpayable",
      "type": "function"
    },
    {
      "inputs": [
        {
          "internalType": "address",
          "name": "",
          "type": "address"
        },
        {
          "internalType": "address",
          "name": "",
          "type": "address"
        }
      ],
      "name": "userTokenBalances",
      "outputs": [
        {
          "internalType": "uint256",
          "name": "",
          "type": "uint256"
        }
      ],
      "stateMutability": "view",
      "type": "function"
    }
  ],
  "bytecode": "0x6080806040523460155761059c908161001a8239f35b5f80fdfe60806040526004361015610011575f80fd5b5f3560e01c80631f8ee6031461035f57806339b4073a1461024c57806345f2d105146101e057806361bc221a146102305780638ada066e14610230578063c489744b146101e0578063dbdf7fce146101cb5763f5d82b6b14610071575f80fd5b346101b45760403660031901126101b45761008a6104de565b6024359060018060a01b0316906040516323b872dd60e01b81523360048201523060248201528160448201526020816064815f875af180156101c057610188575b506100d65f5461054a565b5f55335f52600160205260405f20825f5260205260405f2080549082820180921161017457555f546040519081527fea6fcea9210b4226b3bb7e55ffa18bf072036d64073f5553336ee9bef303c2f060203392a2335f52600160205260405f20825f5260205260405f205460405191825260208201527f9d572f819ae4f4b4839dda54bcb4cc8d7c2f0a67807db864716b20eafb51535960403392a3005b634e487b7160e01b5f52601160045260245ffd5b6020813d6020116101b8575b816101a160209383610440565b810103126101b4575180151581146100cb575b5f80fd5b3d9150610194565b6040513d5f823e3d90fd5b346101b4575f3660031901126101b4575f8055005b346101b45760403660031901126101b4576101f96104de565b6102016104f4565b6001600160a01b039182165f908152600160209081526040808320949093168252928352819020549051908152f35b346101b4575f3660031901126101b45760205f54604051908152f35b346101b45760a03660031901126101b4576004356001600160401b0381116101b45761027c903690600401610475565b6024356001600160401b0381116101b45761029b903690600401610475565b6102a36104c8565b6064356001600160401b0381116101b4576102c2903690600401610475565b92608435916001600160401b0383116101b45761034e6001600160401b039261034061032561031f6103197f42611285d4634f96d3f741584f4f896003f59253c3c7a40472cbf0053e726b5f983690600401610475565b9361050a565b9761050a565b97604051958695168552606060208601526060850190610526565b908382036040850152610526565b0390a361035b5f5461054a565b5f55005b346101b45760803660031901126101b4576004356001600160401b0381116101b45761038f903690600401610475565b6024356001600160401b0381116101b4576103ae903690600401610475565b6103b66104c8565b6064356001600160401b0381116101b4577f1e0d6d3f26f1ac738b3c50c77ac3e7931853b73d3c754eba1ec9ea2dfb0442c89161042961040e61040861031f6001600160401b03953690600401610475565b9561050a565b95604051938493168352604060208401526040830190610526565b0390a35f545f198101908113600116610174575f55005b90601f801991011681019081106001600160401b0382111761046157604052565b634e487b7160e01b5f52604160045260245ffd5b81601f820112156101b4576020813591016001600160401b03821161046157604051926104ac601f8401601f191660200185610440565b828452828201116101b457815f92602092838601378301015290565b604435906001600160401b03821682036101b457565b600435906001600160a01b03821682036101b457565b602435906001600160a01b03821682036101b457565b602090604051918183925191829101835e81015f815203902090565b805180835260209291819084018484015e5f828201840152601f01601f1916010190565b9060018201915f6001841291129080158216911516176101745756fea26469706673582212206cb020d676bf2aeac93010faa7d37296ad9a8060da321098e9b46987d0dbd3a264736f6c634300081c0033",
  "linkReferences": {},
  "deployedLinkReferences": {},
  "immutableReferences": {},
  "inputSourceName": "project/solidity/x/ibc/callbacks/testutil/CounterWithCallbacks.sol",
  "buildInfoId": "solc-0_8_28-e55ad96646b3bb5046840fe24a1f6856fc44be2c"
}