{
  "_format": "hh3-artifact-1",
  "contractName": "ERC20TestCaller",
  "sourceName": "solidity/precompiles/erc20/testdata/ERC20TestCaller.sol",
  "abi": [
    {
      "inputs": [
        {
          "internalType": "address",
          "name": "tokenAddress",
          "type": "address"
        }
      ],
      "stateMutability": "nonpayable",
      "type": "constructor"
    },
    {
      "inputs": [
        {
          "internalType": "address",
          "name": "owner",
          "type": "address"
        },
        {
          "internalType": "address",
          "name": "spender",
          "type": "address"
        }
      ],
      "name": "allowance",
      "outputs": [
        {
          "internalType": "uint256",
          "name": "",
          "type": "uint256"
        }
      ],
      "stateMutability": "view",
      "type": "function"
    },
    {
      "inputs": [
        {
          "internalType": "address",
          "name": "spender",
          "type": "address"
        },
        {
          "internalType": "uint256",
          "name": "amount",
          "type": "uint256"
        }
      ],
      "name": "approve",
      "outputs": [
        {
          "internalType": "bool",
          "name": "",
          "type": "bool"
        }
      ],
      "stateMutability": "nonpayable",
      "type": "function"
    },
    {
      "inputs": [
        {
          "internalType": "address",
          "name": "owner",
          "type": "address"
        }
      ],
      "name": "balanceOf",
      "outputs": [
        {
          "internalType": "uint256",
          "name": "",
          "type": "uint256"
        }
      ],
      "stateMutability": "view",
      "type": "function"
    },
    {
      "inputs": [],
      "name": "counter",
      "outputs": [
        {
          "internalType": "uint256",
          "name": "",
          "type": "uint256"
        }
      ],
      "stateMutability": "view",
      "type": "function"
    },
    {
      "inputs": [],
      "name": "decimals",
      "outputs": [
        {
          "internalType": "uint8",
          "name": "",
          "type": "uint8"
        }
      ],
      "stateMutability": "view",
      "type": "function"
    },
    {
      "inputs": [],
      "name": "name",
      "outputs": [
        {
          "internalType": "string",
          "name": "",
          "type": "string"
        }
      ],
      "stateMutability": "view",
      "type": "function"
    },
    {
      "inputs": [],
      "name": "symbol",
      "outputs": [
        {
          "internalType": "string",
          "name": "",
          "type": "string"
        }
      ],
      "stateMutability": "view",
      "type": "function"
    },
    {
      "inputs": [
        {
          "internalType": "address payable",
          "name": "_source",
          "type": "address"
        },
        {
          "internalType": "uint256",
          "name": "amount_to_transfer",
          "type": "uint256"
        },
        {
          "internalType": "uint256",
          "name": "amount_to_send",
          "type": "uint256"
        },
        {
          "internalType": "uint256",
          "name": "amount_to_send_after",
          "type": "uint256"
        },
        {
          "internalType": "bool",
          "name": "_before",
          "type": "bool"
        },
        {
          "internalType": "bool",
          "name": "_after",
          "type": "bool"
        }
      ],
      "name": "testTransferAndSend",
      "outputs": [
        {
          "internalType": "bool",
          "name": "",
          "type": "bool"
        }
      ],
      "stateMutability": "payable",
      "type": "function"
    },
    {
      "inputs": [],
      "name": "token",
      "outputs": [
        {
          "internalType": "contract IERC20Metadata",
          "name": "",
          "type": "address"
        }
      ],
      "stateMutability": "view",
      "type": "function"
    },
    {
      "inputs": [],
      "name": "totalSupply",
      "outputs": [
        {
          "internalType": "uint256",
          "name": "",
          "type": "uint256"
        }
      ],
      "stateMutability": "view",
      "type": "function"
    },
    {
      "inputs": [
        {
          "internalType": "address",
          "name": "to",
          "type": "address"
        },
        {
          "internalType": "uint256",
          "name": "amount",
          "type": "uint256"
        }
      ],
      "name": "transfer",
      "outputs": [
        {
          "internalType": "bool",
          "name": "",
          "type": "bool"
        }
      ],
      "stateMutability": "nonpayable",
      "type": "function"
    },
    {
      "inputs": [
        {
          "internalType": "address",
          "name": "from",
          "type": "address"
        },
        {
          "internalType": "address",
          "name": "to",
          "type": "address"
        },
        {
          "internalType": "uint256",
          "name": "amount",
          "type": "uint256"
        }
      ],
      "name": "transferFrom",
      "outputs": [
        {
          "internalType": "bool",
          "name": "",
          "type": "bool"
        }
      ],
      "stateMutability": "nonpayable",
      "type": "function"
    },
    {
      "inputs": [
        {
          "internalType": "address",
          "name": "to",
          "type": "address"
        },
        {
          "internalType": "uint256",
          "name": "amount",
          "type": "uint256"
        },
        {
          "internalType": "bool",
          "name": "before",
          "type": "bool"
        },
        {
          "internalType": "bool",
          "name": "aft",
          "type": "bool"
        }
      ],
      "name": "transferWithRevert",
      "outputs": [
        {
          "internalType": "bool",
          "name": "",
          "type": "bool"
        }
      ],
      "stateMutability": "payable",
      "type": "function"
    },
    {
      "inputs": [
        {
          "internalType": "address payable",
          "name": "receiver",
          "type": "address"
        },
        {
          "internalType": "uint256",
          "name": "amount_to_transfer",
          "type": "uint256"
        },
        {
          "internalType": "uint256",
          "name": "amount_to_fail",
          "type": "uint256"
        }
      ],
      "name": "transfersWithTry",
      "outputs": [],
      "stateMutability": "payable",
      "type": "function"
    }
  ],
  "bytecode": "0x60803461007657601f610be538819003918201601f19168301916001600160401b0383118484101761007a5780849260209460405283398101031261007657516001600160a01b03811690819003610076575f80546001600160a01b031916919091178155600155604051610b56908161008f8239f35b5f80fd5b634e487b7160e01b5f52604160045260245ffdfe6080604081815260049182361015610015575f80fd5b5f92833560e01c9184836306fdde03146108935750508163095ea7b31461083757816318160ddd146107eb57816323b872dd14610772578163268d070a14610635578163313ce5671461059957816361bc221a1461057a5781636bc7b7cd1461046257816370a08231146103c457816395d89b4114610349578163a9059cbb146102b1578163d0fedf551461019b578163dd62ed3e146100e8575063fc0c546a146100be575f80fd5b346100e457816003193601126100e457905490516001600160a01b039091168152602090f35b5080fd5b91905034610185578060031936011261018557602061010561094a565b604461010f610964565b86548551636eb1769f60e11b81526001600160a01b0394851697810197909752908316602487015285928391165afa918215610191578392610156575b6020838351908152f35b9091506020813d8211610189575b816101716020938361097a565b81010312610185576020925051905f61014c565b8280fd5b3d9150610164565b81513d85823e3d90fd5b83915060803660031901126100e4576101b261094a565b9060443580151581036102ad576064359283151584036102a95790602061021f86936101df600154610a46565b6001558454895163a9059cbb60e01b81526001600160a01b03928316888201908152602435602082015290998a9493909216928492918391604090910190565b03925af194851561029f57829561026f575b506102575760015491821561025c5750505f190160015561025757602091519015158152f35b610a68565b634e487b7160e01b825260119052602490fd5b61029191955060203d8111610298575b610289818361097a565b8101906109b0565b9386610231565b503d61027f565b86513d84823e3d90fd5b8480fd5b8380fd5b91905034610185578060031936011261018557602061030d926102d261094a565b8554845163a9059cbb60e01b81526001600160a01b039283169381019384526024356020850152958693919092169183918891839160400190565b03925af1918215610191576020939261032a575b50519015158152f35b610342919250833d811161029857610289818361097a565b905f610321565b91905034610185578260031936011261018557825481516395d89b4160e01b815292849184919082906001600160a01b03165afa918215610191578361039b949361039f575b5050519182918261091e565b0390f35b6103bc9293503d8091833e6103b4818361097a565b8101906109e4565b905f8061038f565b8383346100e4576020928360031936011261018557836103e261094a565b845484516370a0823160e01b81526001600160a01b039283169481019490945283916024918391165afa928315610457578093610422575b505051908152f35b909192508382813d8311610450575b61043b818361097a565b8101031261044d57505190838061041a565b80fd5b503d610431565b8251903d90823e3d90fd5b828460c036600319011261044d5761047861094a565b926084359384151585036101855760a4359182151583036102ad576001600160a01b03828116969091906104bd868080806044358d5af16104b7610a9b565b50610aca565b610541578454865163a9059cbb60e01b81526001600160a01b03949094169184019182526024356020808401919091529284928390036040019183918891165af190811561057057906105169184916105525750610aca565b61054157808080602095606435905af19061052f610a9b565b5061053982610aca565b519015158152f35b61054c600154610a46565b50610a68565b61056a915060203d811161029857610289818361097a565b866104b7565b84513d85823e3d90fd5b5050346100e457816003193601126100e4576020906001549051908152f35b82843461044d578060031936011261044d578054825163313ce56760e01b81529360209185919082906001600160a01b03165afa9283156106295781936105e8575b60208460ff855191168152f35b9092506020813d8211610621575b816106036020938361097a565b8101031261018557519160ff8316830361044d575060ff60206105db565b3d91506105f6565b509051903d90823e3d90fd5b91905060603660031901126101855761064c61094a565b6001926106598454610a46565b84558454835163a9059cbb60e01b81526001600160a01b038481168483019081526024356020828101919091529691939192918791839186169082908c90829060400103925af190811561076857889161074b575b501561071657519263d0fedf5560e01b845216908201526044356024820152826044820152826064820152818160848187305af16106f8575b50506106f38154610a46565b905580f35b8161070e92903d1061029857610289818361097a565b505f806106e7565b5162461bcd60e51b8152808301859052601060248201526f3330b4b6103a37903a3930b739b332b960811b6044820152606490fd5b6107629150863d881161029857610289818361097a565b5f6106ae565b82513d8a823e3d90fd5b9190503461018557606036600319011261018557602061079061094a565b606461079a610964565b865485516323b872dd60e01b81526001600160a01b039485169781019790975290831660248701526044803590870152859283918891165af1918215610191576020939261032a5750519015158152f35b91905034610185578260031936011261018557825481516318160ddd60e01b81529260209184919082906001600160a01b03165afa918215610191578392610156576020838351908152f35b91905034610185578060031936011261018557602061030d9261085861094a565b8554845163095ea7b360e01b81526001600160a01b039283169381019384526024356020850152958693919092169183918891839160400190565b91828591346100e457816003193601126100e45781546306fdde0360e01b855284919082906001600160a01b03165afa918215610191578361039b94936108e0575050519182918261091e565b6108f59293503d8091833e6103b4818361097a565b90838061038f565b5f5b83811061090e5750505f910152565b81810151838201526020016108ff565b6040916020825261093e81518092816020860152602086860191016108fd565b601f01601f1916010190565b600435906001600160a01b038216820361096057565b5f80fd5b602435906001600160a01b038216820361096057565b90601f8019910116810190811067ffffffffffffffff82111761099c57604052565b634e487b7160e01b5f52604160045260245ffd5b90816020910312610960575180151581036109605790565b67ffffffffffffffff811161099c57601f01601f191660200190565b6020818303126109605780519067ffffffffffffffff8211610960570181601f82011215610960578051610a17816109c8565b92610a25604051948561097a565b8184526020828401011161096057610a4391602080850191016108fd565b90565b5f198114610a545760010190565b634e487b7160e01b5f52601160045260245ffd5b60405162461bcd60e51b815260206004820152600b60248201526a726576657274206865726560a81b6044820152606490fd5b3d15610ac5573d90610aac826109c8565b91610aba604051938461097a565b82523d5f602084013e565b606090565b15610ad157565b60405162461bcd60e51b815260206004820152602160248201527f4661696c656420746f2073656e6420457468657220746f2064656c656761746f6044820152603960f91b6064820152608490fdfea2646970667358221220165cd2d417c6ebfe0d0a8555c0be4f5637ea4ee27575b9d7a3540e0e9b1402aa64736f6c63430008140033",
  "linkReferences": {},
  "deployedLinkReferences": {},
  "immutableReferences": {},
  "inputSourceName": "project/solidity/precompiles/erc20/testdata/ERC20TestCaller.sol",
  "buildInfoId": "solc-0_8_20-fda2ffeb444d7d9486f659e7e357f970dc6ac662"
}