{
  "_format": "hh3-artifact-1",
  "contractName": "ERC20TestCaller",
  "sourceName": "solidity/precompiles/erc20/testdata/ERC20TestCaller.sol",
  "abi": [
    {
      "inputs": [
        {
          "internalType": "address",
          "name": "tokenAddress",
          "type": "address"
        }
      ],
      "stateMutability": "nonpayable",
      "type": "constructor"
    },
    {
      "inputs": [
        {
          "internalType": "address",
          "name": "owner",
          "type": "address"
        },
        {
          "internalType": "address",
          "name": "spender",
          "type": "address"
        }
      ],
      "name": "allowance",
      "outputs": [
        {
          "internalType": "uint256",
          "name": "",
          "type": "uint256"
        }
      ],
      "stateMutability": "view",
      "type": "function"
    },
    {
      "inputs": [
        {
          "internalType": "address",
          "name": "spender",
          "type": "address"
        },
        {
          "internalType": "uint256",
          "name": "amount",
          "type": "uint256"
        }
      ],
      "name": "approve",
      "outputs": [
        {
          "internalType": "bool",
          "name": "",
          "type": "bool"
        }
      ],
      "stateMutability": "nonpayable",
      "type": "function"
    },
    {
      "inputs": [
        {
          "internalType": "address",
          "name": "owner",
          "type": "address"
        }
      ],
      "name": "balanceOf",
      "outputs": [
        {
          "internalType": "uint256",
          "name": "",
          "type": "uint256"
        }
      ],
      "stateMutability": "view",
      "type": "function"
    },
    {
      "inputs": [],
      "name": "counter",
      "outputs": [
        {
          "internalType": "uint256",
          "name": "",
          "type": "uint256"
        }
      ],
      "stateMutability": "view",
      "type": "function"
    },
    {
      "inputs": [],
      "name": "decimals",
      "outputs": [
        {
          "internalType": "uint8",
          "name": "",
          "type": "uint8"
        }
      ],
      "stateMutability": "view",
      "type": "function"
    },
    {
      "inputs": [],
      "name": "name",
      "outputs": [
        {
          "internalType": "string",
          "name": "",
          "type": "string"
        }
      ],
      "stateMutability": "view",
      "type": "function"
    },
    {
      "inputs": [],
      "name": "symbol",
      "outputs": [
        {
          "internalType": "string",
          "name": "",
          "type": "string"
        }
      ],
      "stateMutability": "view",
      "type": "function"
    },
    {
      "inputs": [
        {
          "internalType": "address payable",
          "name": "_source",
          "type": "address"
        },
        {
          "internalType": "uint256",
          "name": "amount_to_transfer",
          "type": "uint256"
        },
        {
          "internalType": "uint256",
          "name": "amount_to_send",
          "type": "uint256"
        },
        {
          "internalType": "uint256",
          "name": "amount_to_send_after",
          "type": "uint256"
        },
        {
          "internalType": "bool",
          "name": "_before",
          "type": "bool"
        },
        {
          "internalType": "bool",
          "name": "_after",
          "type": "bool"
        }
      ],
      "name": "testTransferAndSend",
      "outputs": [
        {
          "internalType": "bool",
          "name": "",
          "type": "bool"
        }
      ],
      "stateMutability": "payable",
      "type": "function"
    },
    {
      "inputs": [],
      "name": "token",
      "outputs": [
        {
          "internalType": "contract IERC20Metadata",
          "name": "",
          "type": "address"
        }
      ],
      "stateMutability": "view",
      "type": "function"
    },
    {
      "inputs": [],
      "name": "totalSupply",
      "outputs": [
        {
          "internalType": "uint256",
          "name": "",
          "type": "uint256"
        }
      ],
      "stateMutability": "view",
      "type": "function"
    },
    {
      "inputs": [
        {
          "internalType": "address",
          "name": "to",
          "type": "address"
        },
        {
          "internalType": "uint256",
          "name": "amount",
          "type": "uint256"
        }
      ],
      "name": "transfer",
      "outputs": [
        {
          "internalType": "bool",
          "name": "",
          "type": "bool"
        }
      ],
      "stateMutability": "nonpayable",
      "type": "function"
    },
    {
      "inputs": [
        {
          "internalType": "address",
          "name": "from",
          "type": "address"
        },
        {
          "internalType": "address",
          "name": "to",
          "type": "address"
        },
        {
          "internalType": "uint256",
          "name": "amount",
          "type": "uint256"
        }
      ],
      "name": "transferFrom",
      "outputs": [
        {
          "internalType": "bool",
          "name": "",
          "type": "bool"
        }
      ],
      "stateMutability": "nonpayable",
      "type": "function"
    },
    {
      "inputs": [
        {
          "internalType": "address",
          "name": "to",
          "type": "address"
        },
        {
          "internalType": "uint256",
          "name": "amount",
          "type": "uint256"
        },
        {
          "internalType": "bool",
          "name": "before",
          "type": "bool"
        },
        {
          "internalType": "bool",
          "name": "aft",
          "type": "bool"
        }
      ],
      "name": "transferWithRevert",
      "outputs": [
        {
          "internalType": "bool",
          "name": "",
          "type": "bool"
        }
      ],
      "stateMutability": "payable",
      "type": "function"
    },
    {
      "inputs": [
        {
          "internalType": "address payable",
          "name": "receiver",
          "type": "address"
        },
        {
          "internalType": "uint256",
          "name": "amount_to_transfer",
          "type": "uint256"
        },
        {
          "internalType": "uint256",
          "name": "amount_to_fail",
          "type": "uint256"
        }
      ],
      "name": "transfersWithTry",
      "outputs": [],
      "stateMutability": "payable",
      "type": "function"
    }
  ],
  "bytecode": "0x608034607257601f610ae938819003918201601f19168301916001600160401b03831184841017607657808492602094604052833981010312607257516001600160a01b038116908190036072575f80546001600160a01b031916919091178155600155604051610a5e908161008b8239f35b5f80fd5b634e487b7160e01b5f52604160045260245ffdfe6080806040526004361015610012575f80fd5b5f3560e01c90816306fdde03146107f757508063095ea7b31461079e57806318160ddd1461075257806323b872dd146106d7578063268d070a146105a2578063313ce5671461051557806361bc221a146104f85780636bc7b7cd146103f457806370a082311461039757806395d89b411461031f578063a9059cbb1461028a578063d0fedf551461018d578063dd62ed3e146100e15763fc0c546a146100b6575f80fd5b346100dd575f3660031901126100dd575f546040516001600160a01b039091168152602090f35b5f80fd5b346100dd5760403660031901126100dd576100fa610869565b602061010461087f565b5f54604051636eb1769f60e11b81526001600160a01b0394851660048201529184166024830152909283916044918391165afa8015610182575f9061014f575b602090604051908152f35b506020813d60201161017a575b8161016960209383610895565b810103126100dd5760209051610144565b3d915061015c565b6040513d5f823e3d90fd5b60803660031901126100dd576101a1610869565b60443580151581036100dd576064359081151582036100dd5760206102095f946101cc600154610962565b600155855460405163a9059cbb60e01b81526001600160a01b03928316600482015260248035908201529687939190921691839182906044820190565b03925af1928315610182575f93610259575b50610240576001548015610245575f1901600155610240576020906040519015158152f35b6109f5565b634e487b7160e01b5f52601160045260245ffd5b61027c91935060203d602011610283575b6102748183610895565b81019061094a565b918361021b565b503d61026a565b346100dd5760403660031901126100dd575f60206102e36102a9610869565b835460405163a9059cbb60e01b81526001600160a01b03928316600482015260248035908201529485939190921691839182906044820190565b03925af18015610182576020915f91610302575b506040519015158152f35b6103199150823d8411610283576102748183610895565b826102f7565b346100dd575f3660031901126100dd575f80546040516395d89b4160e01b81529190829060049082906001600160a01b03165afa801561018257610371915f91610375575b506040519182918261083f565b0390f35b61039191503d805f833e6103898183610895565b8101906108e7565b82610364565b346100dd5760203660031901126100dd576103b0610869565b5f546040516370a0823160e01b81526001600160a01b0392831660048201529160209183916024918391165afa8015610182575f9061014f57602090604051908152f35b60c03660031901126100dd57610408610869565b6084359081151582036100dd5760a4359081151582036100dd576001600160a01b038116926104485f808080604435895af1610442610970565b5061099f565b6104c6575f805460405163a9059cbb60e01b81526001600160a01b0393841660048201526024803590820152926020928492604492849291165af1801561018257610499915f916104d9575061099f565b6104c6575f808080602094606435905af16104b2610970565b506104bc8161099f565b6040519015158152f35b6104d1600154610962565b6001556109f5565b6104f2915060203d602011610283576102748183610895565b84610442565b346100dd575f3660031901126100dd576020600154604051908152f35b346100dd575f3660031901126100dd575f5460405163313ce56760e01b815290602090829060049082906001600160a01b03165afa8015610182575f90610565575b60209060ff60405191168152f35b506020813d60201161059a575b8161057f60209383610895565b810103126100dd575160ff811681036100dd57602090610557565b3d9150610572565b60603660031901126100dd576105b6610869565b6105c1600154610962565b6001555f805460405163a9059cbb60e01b81526001600160a01b03848116600483015260248035908301529092602092849260449284929091165af1908115610182575f916106b8575b50156106805760405163d0fedf5560e01b81526001600160a01b039091166004820152604480356024830152600190820181905260648201526020816084815f305af1610663575b61065e600154610962565b600155005b61067b9060203d602011610283576102748183610895565b610653565b60405162461bcd60e51b815260206004820152601060248201526f3330b4b6103a37903a3930b739b332b960811b6044820152606490fd5b6106d1915060203d602011610283576102748183610895565b8261060b565b346100dd5760603660031901126100dd576106f0610869565b60206106fa61087f565b5f80546040516323b872dd60e01b81526001600160a01b039586166004820152928516602484015260448035908401529193849260649284929091165af18015610182576020915f9161030257506040519015158152f35b346100dd575f3660031901126100dd575f546040516318160ddd60e01b815290602090829060049082906001600160a01b03165afa8015610182575f9061014f57602090604051908152f35b346100dd5760403660031901126100dd575f60206102e36107bd610869565b835460405163095ea7b360e01b81526001600160a01b03928316600482015260248035908201529485939190921691839182906044820190565b346100dd575f3660031901126100dd575f80546306fdde0360e01b8352829060049082906001600160a01b03165afa801561018257610371915f916103755750604051918291825b602060409281835280519182918282860152018484015e5f828201840152601f01601f1916010190565b600435906001600160a01b03821682036100dd57565b602435906001600160a01b03821682036100dd57565b90601f8019910116810190811067ffffffffffffffff8211176108b757604052565b634e487b7160e01b5f52604160045260245ffd5b67ffffffffffffffff81116108b757601f01601f191660200190565b6020818303126100dd5780519067ffffffffffffffff82116100dd570181601f820112156100dd5780519061091b826108cb565b926109296040519485610895565b828452602083830101116100dd57815f9260208093018386015e8301015290565b908160209103126100dd575180151581036100dd5790565b5f1981146102455760010190565b3d1561099a573d90610981826108cb565b9161098f6040519384610895565b82523d5f602084013e565b606090565b156109a657565b60405162461bcd60e51b815260206004820152602160248201527f4661696c656420746f2073656e6420457468657220746f2064656c656761746f6044820152603960f91b6064820152608490fd5b60405162461bcd60e51b815260206004820152600b60248201526a726576657274206865726560a81b6044820152606490fdfea2646970667358221220a81469aa5125e6bccbdb8b03d07f973d80da6232339285ecac9ea3fc82e6a22364736f6c634300081c0033",
  "linkReferences": {},
  "deployedLinkReferences": {},
  "immutableReferences": {},
  "inputSourceName": "project/solidity/precompiles/erc20/testdata/ERC20TestCaller.sol",
  "buildInfoId": "solc-0_8_28-e55ad96646b3bb5046840fe24a1f6856fc44be2c"
}