{
  "_format": "hh3-artifact-1",
  "contractName": "ERC20MaliciousDelayed",
  "sourceName": "solidity/x/erc20/keeper/testdata/ERC20MaliciousDelayed.sol",
  "abi": [
    {
      "inputs": [
        {
          "internalType": "uint256",
          "name": "initialSupply",
          "type": "uint256"
        }
      ],
      "stateMutability": "nonpayable",
      "type": "constructor"
    },
    {
      "inputs": [],
      "name": "AccessControlBadConfirmation",
      "type": "error"
    },
    {
      "inputs": [
        {
          "internalType": "address",
          "name": "account",
          "type": "address"
        },
        {
          "internalType": "bytes32",
          "name": "neededRole",
          "type": "bytes32"
        }
      ],
      "name": "AccessControlUnauthorizedAccount",
      "type": "error"
    },
    {
      "inputs": [
        {
          "internalType": "address",
          "name": "spender",
          "type": "address"
        },
        {
          "internalType": "uint256",
          "name": "allowance",
          "type": "uint256"
        },
        {
          "internalType": "uint256",
          "name": "needed",
          "type": "uint256"
        }
      ],
      "name": "ERC20InsufficientAllowance",
      "type": "error"
    },
    {
      "inputs": [
        {
          "internalType": "address",
          "name": "sender",
          "type": "address"
        },
        {
          "internalType": "uint256",
          "name": "balance",
          "type": "uint256"
        },
        {
          "internalType": "uint256",
          "name": "needed",
          "type": "uint256"
        }
      ],
      "name": "ERC20InsufficientBalance",
      "type": "error"
    },
    {
      "inputs": [
        {
          "internalType": "address",
          "name": "approver",
          "type": "address"
        }
      ],
      "name": "ERC20InvalidApprover",
      "type": "error"
    },
    {
      "inputs": [
        {
          "internalType": "address",
          "name": "receiver",
          "type": "address"
        }
      ],
      "name": "ERC20InvalidReceiver",
      "type": "error"
    },
    {
      "inputs": [
        {
          "internalType": "address",
          "name": "sender",
          "type": "address"
        }
      ],
      "name": "ERC20InvalidSender",
      "type": "error"
    },
    {
      "inputs": [
        {
          "internalType": "address",
          "name": "spender",
          "type": "address"
        }
      ],
      "name": "ERC20InvalidSpender",
      "type": "error"
    },
    {
      "anonymous": false,
      "inputs": [
        {
          "indexed": true,
          "internalType": "address",
          "name": "owner",
          "type": "address"
        },
        {
          "indexed": true,
          "internalType": "address",
          "name": "spender",
          "type": "address"
        },
        {
          "indexed": false,
          "internalType": "uint256",
          "name": "value",
          "type": "uint256"
        }
      ],
      "name": "Approval",
      "type": "event"
    },
    {
      "anonymous": false,
      "inputs": [
        {
          "indexed": true,
          "internalType": "bytes32",
          "name": "role",
          "type": "bytes32"
        },
        {
          "indexed": true,
          "internalType": "bytes32",
          "name": "previousAdminRole",
          "type": "bytes32"
        },
        {
          "indexed": true,
          "internalType": "bytes32",
          "name": "newAdminRole",
          "type": "bytes32"
        }
      ],
      "name": "RoleAdminChanged",
      "type": "event"
    },
    {
      "anonymous": false,
      "inputs": [
        {
          "indexed": true,
          "internalType": "bytes32",
          "name": "role",
          "type": "bytes32"
        },
        {
          "indexed": true,
          "internalType": "address",
          "name": "account",
          "type": "address"
        },
        {
          "indexed": true,
          "internalType": "address",
          "name": "sender",
          "type": "address"
        }
      ],
      "name": "RoleGranted",
      "type": "event"
    },
    {
      "anonymous": false,
      "inputs": [
        {
          "indexed": true,
          "internalType": "bytes32",
          "name": "role",
          "type": "bytes32"
        },
        {
          "indexed": true,
          "internalType": "address",
          "name": "account",
          "type": "address"
        },
        {
          "indexed": true,
          "internalType": "address",
          "name": "sender",
          "type": "address"
        }
      ],
      "name": "RoleRevoked",
      "type": "event"
    },
    {
      "anonymous": false,
      "inputs": [
        {
          "indexed": true,
          "internalType": "address",
          "name": "from",
          "type": "address"
        },
        {
          "indexed": true,
          "internalType": "address",
          "name": "to",
          "type": "address"
        },
        {
          "indexed": false,
          "internalType": "uint256",
          "name": "value",
          "type": "uint256"
        }
      ],
      "name": "Transfer",
      "type": "event"
    },
    {
      "inputs": [],
      "name": "DEFAULT_ADMIN_ROLE",
      "outputs": [
        {
          "internalType": "bytes32",
          "name": "",
          "type": "bytes32"
        }
      ],
      "stateMutability": "view",
      "type": "function"
    },
    {
      "inputs": [
        {
          "internalType": "address",
          "name": "owner",
          "type": "address"
        },
        {
          "internalType": "address",
          "name": "spender",
          "type": "address"
        }
      ],
      "name": "allowance",
      "outputs": [
        {
          "internalType": "uint256",
          "name": "",
          "type": "uint256"
        }
      ],
      "stateMutability": "view",
      "type": "function"
    },
    {
      "inputs": [
        {
          "internalType": "address",
          "name": "spender",
          "type": "address"
        },
        {
          "internalType": "uint256",
          "name": "value",
          "type": "uint256"
        }
      ],
      "name": "approve",
      "outputs": [
        {
          "internalType": "bool",
          "name": "",
          "type": "bool"
        }
      ],
      "stateMutability": "nonpayable",
      "type": "function"
    },
    {
      "inputs": [
        {
          "internalType": "address",
          "name": "account",
          "type": "address"
        }
      ],
      "name": "balanceOf",
      "outputs": [
        {
          "internalType": "uint256",
          "name": "",
          "type": "uint256"
        }
      ],
      "stateMutability": "view",
      "type": "function"
    },
    {
      "inputs": [],
      "name": "decimals",
      "outputs": [
        {
          "internalType": "uint8",
          "name": "",
          "type": "uint8"
        }
      ],
      "stateMutability": "view",
      "type": "function"
    },
    {
      "inputs": [
        {
          "internalType": "bytes32",
          "name": "role",
          "type": "bytes32"
        }
      ],
      "name": "getRoleAdmin",
      "outputs": [
        {
          "internalType": "bytes32",
          "name": "",
          "type": "bytes32"
        }
      ],
      "stateMutability": "view",
      "type": "function"
    },
    {
      "inputs": [
        {
          "internalType": "bytes32",
          "name": "role",
          "type": "bytes32"
        },
        {
          "internalType": "address",
          "name": "account",
          "type": "address"
        }
      ],
      "name": "grantRole",
      "outputs": [],
      "stateMutability": "nonpayable",
      "type": "function"
    },
    {
      "inputs": [
        {
          "internalType": "bytes32",
          "name": "role",
          "type": "bytes32"
        },
        {
          "internalType": "address",
          "name": "account",
          "type": "address"
        }
      ],
      "name": "hasRole",
      "outputs": [
        {
          "internalType": "bool",
          "name": "",
          "type": "bool"
        }
      ],
      "stateMutability": "view",
      "type": "function"
    },
    {
      "inputs": [],
      "name": "name",
      "outputs": [
        {
          "internalType": "string",
          "name": "",
          "type": "string"
        }
      ],
      "stateMutability": "view",
      "type": "function"
    },
    {
      "inputs": [
        {
          "internalType": "bytes32",
          "name": "role",
          "type": "bytes32"
        },
        {
          "internalType": "address",
          "name": "callerConfirmation",
          "type": "address"
        }
      ],
      "name": "renounceRole",
      "outputs": [],
      "stateMutability": "nonpayable",
      "type": "function"
    },
    {
      "inputs": [
        {
          "internalType": "bytes32",
          "name": "role",
          "type": "bytes32"
        },
        {
          "internalType": "address",
          "name": "account",
          "type": "address"
        }
      ],
      "name": "revokeRole",
      "outputs": [],
      "stateMutability": "nonpayable",
      "type": "function"
    },
    {
      "inputs": [
        {
          "internalType": "bytes4",
          "name": "interfaceId",
          "type": "bytes4"
        }
      ],
      "name": "supportsInterface",
      "outputs": [
        {
          "internalType": "bool",
          "name": "",
          "type": "bool"
        }
      ],
      "stateMutability": "view",
      "type": "function"
    },
    {
      "inputs": [],
      "name": "symbol",
      "outputs": [
        {
          "internalType": "string",
          "name": "",
          "type": "string"
        }
      ],
      "stateMutability": "view",
      "type": "function"
    },
    {
      "inputs": [],
      "name": "totalSupply",
      "outputs": [
        {
          "internalType": "uint256",
          "name": "",
          "type": "uint256"
        }
      ],
      "stateMutability": "view",
      "type": "function"
    },
    {
      "inputs": [
        {
          "internalType": "address",
          "name": "recipient",
          "type": "address"
        },
        {
          "internalType": "uint256",
          "name": "amount",
          "type": "uint256"
        }
      ],
      "name": "transfer",
      "outputs": [
        {
          "internalType": "bool",
          "name": "",
          "type": "bool"
        }
      ],
      "stateMutability": "nonpayable",
      "type": "function"
    },
    {
      "inputs": [
        {
          "internalType": "address",
          "name": "from",
          "type": "address"
        },
        {
          "internalType": "address",
          "name": "to",
          "type": "address"
        },
        {
          "internalType": "uint256",
          "name": "value",
          "type": "uint256"
        }
      ],
      "name": "transferFrom",
      "outputs": [
        {
          "internalType": "bool",
          "name": "",
          "type": "bool"
        }
      ],
      "stateMutability": "nonpayable",
      "type": "function"
    }
  ],
  "bytecode": "0x6080604052346103fb57610e416020813803918261001c816103ff565b9384928339810103126103fb575161003460406103ff565b90601582527f45524332304d616c6963696f757344656c617965640000000000000000000000602083015261006960406103ff565b601581527f45524332304d414c4943494f555344454c415945440000000000000000000000602082015282519091906001600160401b03811161030c57600354600181811c911680156103f1575b60208210146102ee57601f811161038e575b506020601f821160011461032b57819293945f92610320575b50508160011b915f199060031b1c1916176003555b81516001600160401b03811161030c57600454600181811c91168015610302575b60208210146102ee57601f811161028b575b50602092601f821160011461022a57928192935f9261021f575b50508160011b915f199060031b1c1916176004555b600680546001600160a01b031916734dc6ac40af078661fc43823086e1513635eeab14179055670de0b6b3a764000060075561019433610424565b50331561020c576002548181018091116101f857600255335f525f60205260405f208181540190556040519081525f7fddf252ad1be2c89b69c2b068fc378daa952ba7f163c4a11628f55a4df523b3ef60203393a360405161097390816104ae8239f35b634e487b7160e01b5f52601160045260245ffd5b63ec442f0560e01b5f525f60045260245ffd5b015190505f80610144565b601f1982169360045f52805f20915f5b868110610273575083600195961061025b575b505050811b01600455610159565b01515f1960f88460031b161c191690555f808061024d565b9192602060018192868501518155019401920161023a565b60045f527f8a35acfbc15ff81a39ae7d344fd709f28e8600b4aa8c65c6b64bfe7fe36bd19b601f830160051c810191602084106102e4575b601f0160051c01905b8181106102d9575061012a565b5f81556001016102cc565b90915081906102c3565b634e487b7160e01b5f52602260045260245ffd5b90607f1690610118565b634e487b7160e01b5f52604160045260245ffd5b015190505f806100e2565b601f1982169060035f52805f20915f5b8181106103765750958360019596971061035e575b505050811b016003556100f7565b01515f1960f88460031b161c191690555f8080610350565b9192602060018192868b01518155019401920161033b565b60035f527fc2575a0e9e593c00f959f8c92f12db2869c3395a3b0502d05e2516446f71f85b601f830160051c810191602084106103e7575b601f0160051c01905b8181106103dc57506100c9565b5f81556001016103cf565b90915081906103c6565b90607f16906100b7565b5f80fd5b6040519190601f01601f191682016001600160401b0381118382101761030c57604052565b6001600160a01b0381165f9081525f516020610e215f395f51905f52602052604090205460ff166104a8576001600160a01b03165f8181525f516020610e215f395f51905f5260205260408120805460ff191660011790553391907f2f8788117e7eff1d82e926ec794901d17c78024a50270940304540a733656f0d8180a4600190565b505f9056fe6080806040526004361015610012575f80fd5b5f3560e01c90816301ffc9a71461062a5750806306fdde0314610557578063095ea7b31461053157806318160ddd1461051457806323b872dd14610435578063248a9ca3146104025780632f2ff15d146103c4578063313ce567146103a957806336568abe1461036557806370a082311461032e57806391d14854146102e557806395d89b41146101c9578063a217fddf146101af578063a9059cbb14610165578063d547741f146101205763dd62ed3e146100cc575f80fd5b3461011c57604036600319011261011c576100e56106a7565b6100ed6106bd565b6001600160a01b039182165f908152600160209081526040808320949093168252928352819020549051908152f35b5f80fd5b3461011c57604036600319011261011c5761016360043561013f6106bd565b9061015e610159825f526005602052600160405f20015490565b610790565b610856565b005b3461011c57604036600319011261011c576101a46101816106a7565b60065460075461019a916001600160a01b0316836108da565b60243590336106d3565b602060405160018152f35b3461011c575f36600319011261011c5760206040515f8152f35b3461011c575f36600319011261011c576040515f6004548060011c906001811680156102db575b6020831081146102c7578285529081156102ab5750600114610255575b50819003601f01601f191681019067ffffffffffffffff8211818310176102415761023d8291826040528261067d565b0390f35b634e487b7160e01b5f52604160045260245ffd5b60045f9081529091507f8a35acfbc15ff81a39ae7d344fd709f28e8600b4aa8c65c6b64bfe7fe36bd19b5b8282106102955750602091508201018261020d565b6001816020925483858801015201910190610280565b90506020925060ff191682840152151560051b8201018261020d565b634e487b7160e01b5f52602260045260245ffd5b91607f16916101f0565b3461011c57604036600319011261011c576102fe6106bd565b6004355f52600560205260405f209060018060a01b03165f52602052602060ff60405f2054166040519015158152f35b3461011c57602036600319011261011c576001600160a01b0361034f6106a7565b165f525f602052602060405f2054604051908152f35b3461011c57604036600319011261011c5761037e6106bd565b336001600160a01b0382160361039a5761016390600435610856565b63334bd91960e11b5f5260045ffd5b3461011c575f36600319011261011c57602060405160128152f35b3461011c57604036600319011261011c576101636004356103e36106bd565b906103fd610159825f526005602052600160405f20015490565b6107ca565b3461011c57602036600319011261011c57602061042d6004355f526005602052600160405f20015490565b604051908152f35b3461011c57606036600319011261011c5761044e6106a7565b6104566106bd565b6001600160a01b0382165f818152600160209081526040808320338452909152902054909260443592915f198110610494575b506101a493506106d3565b8381106104f95784156104e65733156104d3576101a4945f52600160205260405f2060018060a01b0333165f526020528360405f209103905584610489565b634a1406b160e11b5f525f60045260245ffd5b63e602df0560e01b5f525f60045260245ffd5b8390637dc7a0d960e11b5f523360045260245260445260645ffd5b3461011c575f36600319011261011c576020600254604051908152f35b3461011c57604036600319011261011c576101a461054d6106a7565b60243590336108da565b3461011c575f36600319011261011c576040515f6003548060011c90600181168015610620575b6020831081146102c7578285529081156102ab57506001146105ca5750819003601f01601f191681019067ffffffffffffffff8211818310176102415761023d8291826040528261067d565b60035f9081529091507fc2575a0e9e593c00f959f8c92f12db2869c3395a3b0502d05e2516446f71f85b5b82821061060a5750602091508201018261020d565b60018160209254838588010152019101906105f5565b91607f169161057e565b3461011c57602036600319011261011c576004359063ffffffff60e01b821680920361011c57602091637965db0b60e01b811490811561066c575b5015158152f35b6301ffc9a760e01b14905083610665565b602060409281835280519182918282860152018484015e5f828201840152601f01601f1916010190565b600435906001600160a01b038216820361011c57565b602435906001600160a01b038216820361011c57565b6001600160a01b031690811561077d576001600160a01b031691821561076a57815f525f60205260405f205481811061075157817fddf252ad1be2c89b69c2b068fc378daa952ba7f163c4a11628f55a4df523b3ef92602092855f525f84520360405f2055845f525f825260405f20818154019055604051908152a3565b8263391434e360e21b5f5260045260245260445260645ffd5b63ec442f0560e01b5f525f60045260245ffd5b634b637e8f60e11b5f525f60045260245ffd5b5f81815260056020908152604080832033845290915290205460ff16156107b45750565b63e2517d3f60e01b5f523360045260245260445ffd5b5f8181526005602090815260408083206001600160a01b038616845290915290205460ff16610850575f8181526005602090815260408083206001600160a01b0395909516808452949091528120805460ff19166001179055339291907f2f8788117e7eff1d82e926ec794901d17c78024a50270940304540a733656f0d9080a4600190565b50505f90565b5f8181526005602090815260408083206001600160a01b038616845290915290205460ff1615610850575f8181526005602090815260408083206001600160a01b0395909516808452949091528120805460ff19169055339291907ff6391f5c32d9c69d2a47ea670b442974b53935d1edc7fd64eb21e047a839171b9080a4600190565b6001600160a01b03169081156104e6576001600160a01b03169182156104d35760207f8c5be1e5ebec7d5bd14f71427d1e84f3dd0314c0f7b2291e5b200ac8c7c3b92591835f526001825260405f20855f5282528060405f2055604051908152a356fea26469706673582212204b5d5544ba635fc0d499ae14cb423964189eba4ad493964e8aacc9130d0a1c9f64736f6c634300081c003305b8ccbb9d4d8fb16ea74ce3c29a41f1b461fbdaff4714a0d9a8eb05499746bc",
  "linkReferences": {},
  "deployedLinkReferences": {},
  "immutableReferences": {},
  "inputSourceName": "project/solidity/x/erc20/keeper/testdata/ERC20MaliciousDelayed.sol",
  "buildInfoId": "solc-0_8_28-e55ad96646b3bb5046840fe24a1f6856fc44be2c"
}