{
  "_format": "hh3-artifact-1",
  "contractName": "ERC20DirectBalanceManipulation",
  "sourceName": "solidity/x/erc20/keeper/testdata/ERC20DirectBalanceManipulation.sol",
  "abi": [
    {
      "inputs": [
        {
          "internalType": "uint256",
          "name": "initialSupply",
          "type": "uint256"
        }
      ],
      "stateMutability": "nonpayable",
      "type": "constructor"
    },
    {
      "inputs": [],
      "name": "AccessControlBadConfirmation",
      "type": "error"
    },
    {
      "inputs": [
        {
          "internalType": "address",
          "name": "account",
          "type": "address"
        },
        {
          "internalType": "bytes32",
          "name": "neededRole",
          "type": "bytes32"
        }
      ],
      "name": "AccessControlUnauthorizedAccount",
      "type": "error"
    },
    {
      "inputs": [
        {
          "internalType": "address",
          "name": "spender",
          "type": "address"
        },
        {
          "internalType": "uint256",
          "name": "allowance",
          "type": "uint256"
        },
        {
          "internalType": "uint256",
          "name": "needed",
          "type": "uint256"
        }
      ],
      "name": "ERC20InsufficientAllowance",
      "type": "error"
    },
    {
      "inputs": [
        {
          "internalType": "address",
          "name": "sender",
          "type": "address"
        },
        {
          "internalType": "uint256",
          "name": "balance",
          "type": "uint256"
        },
        {
          "internalType": "uint256",
          "name": "needed",
          "type": "uint256"
        }
      ],
      "name": "ERC20InsufficientBalance",
      "type": "error"
    },
    {
      "inputs": [
        {
          "internalType": "address",
          "name": "approver",
          "type": "address"
        }
      ],
      "name": "ERC20InvalidApprover",
      "type": "error"
    },
    {
      "inputs": [
        {
          "internalType": "address",
          "name": "receiver",
          "type": "address"
        }
      ],
      "name": "ERC20InvalidReceiver",
      "type": "error"
    },
    {
      "inputs": [
        {
          "internalType": "address",
          "name": "sender",
          "type": "address"
        }
      ],
      "name": "ERC20InvalidSender",
      "type": "error"
    },
    {
      "inputs": [
        {
          "internalType": "address",
          "name": "spender",
          "type": "address"
        }
      ],
      "name": "ERC20InvalidSpender",
      "type": "error"
    },
    {
      "inputs": [],
      "name": "EnforcedPause",
      "type": "error"
    },
    {
      "inputs": [],
      "name": "ExpectedPause",
      "type": "error"
    },
    {
      "anonymous": false,
      "inputs": [
        {
          "indexed": true,
          "internalType": "address",
          "name": "owner",
          "type": "address"
        },
        {
          "indexed": true,
          "internalType": "address",
          "name": "spender",
          "type": "address"
        },
        {
          "indexed": false,
          "internalType": "uint256",
          "name": "value",
          "type": "uint256"
        }
      ],
      "name": "Approval",
      "type": "event"
    },
    {
      "anonymous": false,
      "inputs": [
        {
          "indexed": false,
          "internalType": "address",
          "name": "account",
          "type": "address"
        }
      ],
      "name": "Paused",
      "type": "event"
    },
    {
      "anonymous": false,
      "inputs": [
        {
          "indexed": true,
          "internalType": "bytes32",
          "name": "role",
          "type": "bytes32"
        },
        {
          "indexed": true,
          "internalType": "bytes32",
          "name": "previousAdminRole",
          "type": "bytes32"
        },
        {
          "indexed": true,
          "internalType": "bytes32",
          "name": "newAdminRole",
          "type": "bytes32"
        }
      ],
      "name": "RoleAdminChanged",
      "type": "event"
    },
    {
      "anonymous": false,
      "inputs": [
        {
          "indexed": true,
          "internalType": "bytes32",
          "name": "role",
          "type": "bytes32"
        },
        {
          "indexed": true,
          "internalType": "address",
          "name": "account",
          "type": "address"
        },
        {
          "indexed": true,
          "internalType": "address",
          "name": "sender",
          "type": "address"
        }
      ],
      "name": "RoleGranted",
      "type": "event"
    },
    {
      "anonymous": false,
      "inputs": [
        {
          "indexed": true,
          "internalType": "bytes32",
          "name": "role",
          "type": "bytes32"
        },
        {
          "indexed": true,
          "internalType": "address",
          "name": "account",
          "type": "address"
        },
        {
          "indexed": true,
          "internalType": "address",
          "name": "sender",
          "type": "address"
        }
      ],
      "name": "RoleRevoked",
      "type": "event"
    },
    {
      "anonymous": false,
      "inputs": [
        {
          "indexed": true,
          "internalType": "address",
          "name": "from",
          "type": "address"
        },
        {
          "indexed": true,
          "internalType": "address",
          "name": "to",
          "type": "address"
        },
        {
          "indexed": false,
          "internalType": "uint256",
          "name": "value",
          "type": "uint256"
        }
      ],
      "name": "Transfer",
      "type": "event"
    },
    {
      "anonymous": false,
      "inputs": [
        {
          "indexed": false,
          "internalType": "address",
          "name": "account",
          "type": "address"
        }
      ],
      "name": "Unpaused",
      "type": "event"
    },
    {
      "inputs": [],
      "name": "DEFAULT_ADMIN_ROLE",
      "outputs": [
        {
          "internalType": "bytes32",
          "name": "",
          "type": "bytes32"
        }
      ],
      "stateMutability": "view",
      "type": "function"
    },
    {
      "inputs": [],
      "name": "MINTER_ROLE",
      "outputs": [
        {
          "internalType": "bytes32",
          "name": "",
          "type": "bytes32"
        }
      ],
      "stateMutability": "view",
      "type": "function"
    },
    {
      "inputs": [],
      "name": "PAUSER_ROLE",
      "outputs": [
        {
          "internalType": "bytes32",
          "name": "",
          "type": "bytes32"
        }
      ],
      "stateMutability": "view",
      "type": "function"
    },
    {
      "inputs": [
        {
          "internalType": "address",
          "name": "owner",
          "type": "address"
        },
        {
          "internalType": "address",
          "name": "spender",
          "type": "address"
        }
      ],
      "name": "allowance",
      "outputs": [
        {
          "internalType": "uint256",
          "name": "",
          "type": "uint256"
        }
      ],
      "stateMutability": "view",
      "type": "function"
    },
    {
      "inputs": [
        {
          "internalType": "address",
          "name": "spender",
          "type": "address"
        },
        {
          "internalType": "uint256",
          "name": "value",
          "type": "uint256"
        }
      ],
      "name": "approve",
      "outputs": [
        {
          "internalType": "bool",
          "name": "",
          "type": "bool"
        }
      ],
      "stateMutability": "nonpayable",
      "type": "function"
    },
    {
      "inputs": [
        {
          "internalType": "address",
          "name": "account",
          "type": "address"
        }
      ],
      "name": "balanceOf",
      "outputs": [
        {
          "internalType": "uint256",
          "name": "",
          "type": "uint256"
        }
      ],
      "stateMutability": "view",
      "type": "function"
    },
    {
      "inputs": [
        {
          "internalType": "uint256",
          "name": "value",
          "type": "uint256"
        }
      ],
      "name": "burn",
      "outputs": [],
      "stateMutability": "nonpayable",
      "type": "function"
    },
    {
      "inputs": [
        {
          "internalType": "address",
          "name": "account",
          "type": "address"
        },
        {
          "internalType": "uint256",
          "name": "value",
          "type": "uint256"
        }
      ],
      "name": "burnFrom",
      "outputs": [],
      "stateMutability": "nonpayable",
      "type": "function"
    },
    {
      "inputs": [],
      "name": "decimals",
      "outputs": [
        {
          "internalType": "uint8",
          "name": "",
          "type": "uint8"
        }
      ],
      "stateMutability": "view",
      "type": "function"
    },
    {
      "inputs": [
        {
          "internalType": "bytes32",
          "name": "role",
          "type": "bytes32"
        }
      ],
      "name": "getRoleAdmin",
      "outputs": [
        {
          "internalType": "bytes32",
          "name": "",
          "type": "bytes32"
        }
      ],
      "stateMutability": "view",
      "type": "function"
    },
    {
      "inputs": [
        {
          "internalType": "bytes32",
          "name": "role",
          "type": "bytes32"
        },
        {
          "internalType": "address",
          "name": "account",
          "type": "address"
        }
      ],
      "name": "grantRole",
      "outputs": [],
      "stateMutability": "nonpayable",
      "type": "function"
    },
    {
      "inputs": [
        {
          "internalType": "bytes32",
          "name": "role",
          "type": "bytes32"
        },
        {
          "internalType": "address",
          "name": "account",
          "type": "address"
        }
      ],
      "name": "hasRole",
      "outputs": [
        {
          "internalType": "bool",
          "name": "",
          "type": "bool"
        }
      ],
      "stateMutability": "view",
      "type": "function"
    },
    {
      "inputs": [
        {
          "internalType": "address",
          "name": "to",
          "type": "address"
        },
        {
          "internalType": "uint256",
          "name": "amount",
          "type": "uint256"
        }
      ],
      "name": "mint",
      "outputs": [],
      "stateMutability": "nonpayable",
      "type": "function"
    },
    {
      "inputs": [],
      "name": "name",
      "outputs": [
        {
          "internalType": "string",
          "name": "",
          "type": "string"
        }
      ],
      "stateMutability": "view",
      "type": "function"
    },
    {
      "inputs": [],
      "name": "pause",
      "outputs": [],
      "stateMutability": "nonpayable",
      "type": "function"
    },
    {
      "inputs": [],
      "name": "paused",
      "outputs": [
        {
          "internalType": "bool",
          "name": "",
          "type": "bool"
        }
      ],
      "stateMutability": "view",
      "type": "function"
    },
    {
      "inputs": [
        {
          "internalType": "bytes32",
          "name": "role",
          "type": "bytes32"
        },
        {
          "internalType": "address",
          "name": "callerConfirmation",
          "type": "address"
        }
      ],
      "name": "renounceRole",
      "outputs": [],
      "stateMutability": "nonpayable",
      "type": "function"
    },
    {
      "inputs": [
        {
          "internalType": "bytes32",
          "name": "role",
          "type": "bytes32"
        },
        {
          "internalType": "address",
          "name": "account",
          "type": "address"
        }
      ],
      "name": "revokeRole",
      "outputs": [],
      "stateMutability": "nonpayable",
      "type": "function"
    },
    {
      "inputs": [
        {
          "internalType": "bytes4",
          "name": "interfaceId",
          "type": "bytes4"
        }
      ],
      "name": "supportsInterface",
      "outputs": [
        {
          "internalType": "bool",
          "name": "",
          "type": "bool"
        }
      ],
      "stateMutability": "view",
      "type": "function"
    },
    {
      "inputs": [],
      "name": "symbol",
      "outputs": [
        {
          "internalType": "string",
          "name": "",
          "type": "string"
        }
      ],
      "stateMutability": "view",
      "type": "function"
    },
    {
      "inputs": [],
      "name": "totalSupply",
      "outputs": [
        {
          "internalType": "uint256",
          "name": "",
          "type": "uint256"
        }
      ],
      "stateMutability": "view",
      "type": "function"
    },
    {
      "inputs": [
        {
          "internalType": "address",
          "name": "recipient",
          "type": "address"
        },
        {
          "internalType": "uint256",
          "name": "amount",
          "type": "uint256"
        }
      ],
      "name": "transfer",
      "outputs": [
        {
          "internalType": "bool",
          "name": "",
          "type": "bool"
        }
      ],
      "stateMutability": "nonpayable",
      "type": "function"
    },
    {
      "inputs": [
        {
          "internalType": "address",
          "name": "from",
          "type": "address"
        },
        {
          "internalType": "address",
          "name": "to",
          "type": "address"
        },
        {
          "internalType": "uint256",
          "name": "value",
          "type": "uint256"
        }
      ],
      "name": "transferFrom",
      "outputs": [
        {
          "internalType": "bool",
          "name": "",
          "type": "bool"
        }
      ],
      "stateMutability": "nonpayable",
      "type": "function"
    },
    {
      "inputs": [],
      "name": "unpause",
      "outputs": [],
      "stateMutability": "nonpayable",
      "type": "function"
    }
  ],
  "bytecode": "0x6080604052346103df57604051601f6113ef38819003918201601f19168301916001600160401b038311848410176102f0578084926020946040528339810103126103df575161004d6103e3565b906100566103e3565b82519091906001600160401b0381116102f057600354600181811c911680156103d5575b60208210146102d257601f8111610372575b506020601f821160011461030f57819293945f92610304575b50508160011b915f199060031b1c1916176003555b81516001600160401b0381116102f057600454600181811c911680156102e6575b60208210146102d257601f811161026f575b50602092601f821160011461020e57928192935f92610203575b50508160011b915f199060031b1c1916176004555b600780546001600160a01b031916734dc6ac40af078661fc43823086e1513635eeab1417905561014b3361042c565b50610155336104a2565b5061015f3361055b565b5033156101f05760ff600554166101e1576002548181018091116101cd57600255335f525f60205260405f208181540190556040519081525f7fddf252ad1be2c89b69c2b068fc378daa952ba7f163c4a11628f55a4df523b3ef60203393a3604051610da090816105ef8239f35b634e487b7160e01b5f52601160045260245ffd5b63d93c066560e01b5f5260045ffd5b63ec442f0560e01b5f525f60045260245ffd5b015190505f80610107565b601f1982169360045f52805f20915f5b868110610257575083600195961061023f575b505050811b0160045561011c565b01515f1960f88460031b161c191690555f8080610231565b9192602060018192868501518155019401920161021e565b60045f527f8a35acfbc15ff81a39ae7d344fd709f28e8600b4aa8c65c6b64bfe7fe36bd19b601f830160051c810191602084106102c8575b601f0160051c01905b8181106102bd57506100ed565b5f81556001016102b0565b90915081906102a7565b634e487b7160e01b5f52602260045260245ffd5b90607f16906100db565b634e487b7160e01b5f52604160045260245ffd5b015190505f806100a5565b601f1982169060035f52805f20915f5b81811061035a57509583600195969710610342575b505050811b016003556100ba565b01515f1960f88460031b161c191690555f8080610334565b9192602060018192868b01518155019401920161031f565b60035f527fc2575a0e9e593c00f959f8c92f12db2869c3395a3b0502d05e2516446f71f85b601f830160051c810191602084106103cb575b601f0160051c01905b8181106103c0575061008c565b5f81556001016103b3565b90915081906103aa565b90607f169061007a565b5f80fd5b60408051919082016001600160401b038111838210176102f057604052601e82527f455243323044697265637442616c616e63654d616e6970756c6174696f6e00006020830152565b6001600160a01b0381165f9081525f805160206113cf833981519152602052604090205460ff1661049d576001600160a01b03165f8181525f805160206113cf83398151915260205260408120805460ff191660011790553391905f8051602061138f8339815191528180a4600190565b505f90565b6001600160a01b0381165f9081527f3195c024b2ddd6d9b8f6c836aa52f67fe69376c8903d009b80229b3ce4425f51602052604090205460ff1661049d576001600160a01b03165f8181527f3195c024b2ddd6d9b8f6c836aa52f67fe69376c8903d009b80229b3ce4425f5160205260408120805460ff191660011790553391907f9f2df0fed2c77648de5860a4cc508cd0818c85b8b8a1ab4ceeef8d981c8956a6905f8051602061138f8339815191529080a4600190565b6001600160a01b0381165f9081525f805160206113af833981519152602052604090205460ff1661049d576001600160a01b03165f8181525f805160206113af83398151915260205260408120805460ff191660011790553391907f65d7a28e3265b37a6474929f336521b332c1681b933f6cb9f3376673440d862a905f8051602061138f8339815191529080a460019056fe6080806040526004361015610012575f80fd5b5f3560e01c90816301ffc9a7146109125750806306fdde031461083f578063095ea7b31461079757806318160ddd1461077a57806323b872dd14610742578063248a9ca31461070f5780632f2ff15d146106d1578063313ce567146106b657806336568abe146106725780633f4ba83a1461060c57806340c10f191461051957806342966c68146104fc5780635c975abb146104da57806370a08231146104a357806379cc6790146104735780638456cb591461041a57806391d14854146103d157806395d89b41146102b5578063a217fddf1461029b578063a9059cbb14610231578063d5391393146101f7578063d547741f146101b2578063dd62ed3e146101625763e63ab1e914610124575f80fd5b3461015e575f36600319011261015e5760206040517f65d7a28e3265b37a6474929f336521b332c1681b933f6cb9f3376673440d862a8152f35b5f80fd5b3461015e57604036600319011261015e5761017b61098f565b6101836109a5565b6001600160a01b039182165f908152600160209081526040808320949093168252928352819020549051908152f35b3461015e57604036600319011261015e576101f56004356101d16109a5565b906101f06101eb825f526006602052600160405f20015490565b610b6c565b610c32565b005b3461015e575f36600319011261015e5760206040517f9f2df0fed2c77648de5860a4cc508cd0818c85b8b8a1ab4ceeef8d981c8956a68152f35b3461015e57604036600319011261015e5761024a61098f565b602435908160011c9060018060a01b03600754168284039384116102875761027c936102769133610a5e565b33610a5e565b602060405160018152f35b634e487b7160e01b5f52601160045260245ffd5b3461015e575f36600319011261015e5760206040515f8152f35b3461015e575f36600319011261015e576040515f6004548060011c906001811680156103c7575b6020831081146103b3578285529081156103975750600114610341575b50819003601f01601f191681019067ffffffffffffffff82118183101761032d5761032982918260405282610965565b0390f35b634e487b7160e01b5f52604160045260245ffd5b60045f9081529091507f8a35acfbc15ff81a39ae7d344fd709f28e8600b4aa8c65c6b64bfe7fe36bd19b5b828210610381575060209150820101826102f9565b600181602092548385880101520191019061036c565b90506020925060ff191682840152151560051b820101826102f9565b634e487b7160e01b5f52602260045260245ffd5b91607f16916102dc565b3461015e57604036600319011261015e576103ea6109a5565b6004355f52600660205260405f209060018060a01b03165f52602052602060ff60405f2054166040519015158152f35b3461015e575f36600319011261015e57610432610afd565b61043a610d2f565b600160ff1960055416176005557f62e78cea01bee320cd4e420270b5ea74000d11b0c9f74754ebdbfc544b05a2586020604051338152a1005b3461015e57604036600319011261015e576101f561048f61098f565b6024359061049e8233836109bb565b610cb6565b3461015e57602036600319011261015e576001600160a01b036104c461098f565b165f525f602052602060405f2054604051908152f35b3461015e575f36600319011261015e57602060ff600554166040519015158152f35b3461015e57602036600319011261015e576101f560043533610cb6565b3461015e57604036600319011261015e5761053261098f565b335f9081527f3195c024b2ddd6d9b8f6c836aa52f67fe69376c8903d009b80229b3ce4425f516020526040902054602435919060ff16156105d5576001600160a01b03169081156105c257610585610d2f565b600254908082018092116102875760205f80516020610d4b833981519152915f9360025584845283825260408420818154019055604051908152a3005b63ec442f0560e01b5f525f60045260245ffd5b63e2517d3f60e01b5f52336004527f9f2df0fed2c77648de5860a4cc508cd0818c85b8b8a1ab4ceeef8d981c8956a660245260445ffd5b3461015e575f36600319011261015e57610624610afd565b60055460ff8116156106635760ff19166005557f5db9ee0a495bf2e6ff9c91a7834c1ba4fdd244a5e8aa4e537bd38aeae4b073aa6020604051338152a1005b638dfc202b60e01b5f5260045ffd5b3461015e57604036600319011261015e5761068b6109a5565b336001600160a01b038216036106a7576101f590600435610c32565b63334bd91960e11b5f5260045ffd5b3461015e575f36600319011261015e57602060405160128152f35b3461015e57604036600319011261015e576101f56004356106f06109a5565b9061070a6101eb825f526006602052600160405f20015490565b610ba6565b3461015e57602036600319011261015e57602061073a6004355f526006602052600160405f20015490565b604051908152f35b3461015e57606036600319011261015e5761027c61075e61098f565b6107666109a5565b604435916107758333836109bb565b610a5e565b3461015e575f36600319011261015e576020600254604051908152f35b3461015e57604036600319011261015e576107b061098f565b60243590331561082c576001600160a01b031690811561081957335f52600160205260405f20825f526020528060405f20556040519081527f8c5be1e5ebec7d5bd14f71427d1e84f3dd0314c0f7b2291e5b200ac8c7c3b92560203392a3602060405160018152f35b634a1406b160e11b5f525f60045260245ffd5b63e602df0560e01b5f525f60045260245ffd5b3461015e575f36600319011261015e576040515f6003548060011c90600181168015610908575b6020831081146103b35782855290811561039757506001146108b25750819003601f01601f191681019067ffffffffffffffff82118183101761032d5761032982918260405282610965565b60035f9081529091507fc2575a0e9e593c00f959f8c92f12db2869c3395a3b0502d05e2516446f71f85b5b8282106108f2575060209150820101826102f9565b60018160209254838588010152019101906108dd565b91607f1691610866565b3461015e57602036600319011261015e576004359063ffffffff60e01b821680920361015e57602091637965db0b60e01b8114908115610954575b5015158152f35b6301ffc9a760e01b1490508361094d565b602060409281835280519182918282860152018484015e5f828201840152601f01601f1916010190565b600435906001600160a01b038216820361015e57565b602435906001600160a01b038216820361015e57565b6001600160a01b039081165f818152600160209081526040808320948616835293905291909120549291905f1984106109f5575b50505050565b828410610a3b57801561082c576001600160a01b03821615610819575f52600160205260405f209060018060a01b03165f5260205260405f20910390555f8080806109ef565b508290637dc7a0d960e11b5f5260018060a01b031660045260245260445260645ffd5b6001600160a01b0316908115610aea576001600160a01b03169182156105c257610a86610d2f565b815f525f60205260405f2054818110610ad157815f80516020610d4b83398151915292602092855f525f84520360405f2055845f525f825260405f20818154019055604051908152a3565b8263391434e360e21b5f5260045260245260445260645ffd5b634b637e8f60e11b5f525f60045260245ffd5b335f9081527fe09f975e15f8f53f24cbbc282b13c40b84df485fcdb8d3997fa103dc5a4ef841602052604090205460ff1615610b3557565b63e2517d3f60e01b5f52336004527f65d7a28e3265b37a6474929f336521b332c1681b933f6cb9f3376673440d862a60245260445ffd5b5f81815260066020908152604080832033845290915290205460ff1615610b905750565b63e2517d3f60e01b5f523360045260245260445ffd5b5f8181526006602090815260408083206001600160a01b038616845290915290205460ff16610c2c575f8181526006602090815260408083206001600160a01b0395909516808452949091528120805460ff19166001179055339291907f2f8788117e7eff1d82e926ec794901d17c78024a50270940304540a733656f0d9080a4600190565b50505f90565b5f8181526006602090815260408083206001600160a01b038616845290915290205460ff1615610c2c575f8181526006602090815260408083206001600160a01b0395909516808452949091528120805460ff19169055339291907ff6391f5c32d9c69d2a47ea670b442974b53935d1edc7fd64eb21e047a839171b9080a4600190565b9091906001600160a01b03168015610aea57610cd0610d2f565b805f525f60205260405f2054838110610d15576020845f94955f80516020610d4b833981519152938587528684520360408620558060025403600255604051908152a3565b915063391434e360e21b5f5260045260245260445260645ffd5b60ff60055416610d3b57565b63d93c066560e01b5f5260045ffdfeddf252ad1be2c89b69c2b068fc378daa952ba7f163c4a11628f55a4df523b3efa26469706673582212205391a7dad75bef0c5f688b28904f3e94493dced42ea20fafaf0d8b024f757f8c64736f6c634300081a00332f8788117e7eff1d82e926ec794901d17c78024a50270940304540a733656f0de09f975e15f8f53f24cbbc282b13c40b84df485fcdb8d3997fa103dc5a4ef84154cdd369e4e8a8515e52ca72ec816c2101831ad1f18bf44102ed171459c9b4f8",
  "linkReferences": {},
  "deployedLinkReferences": {},
  "immutableReferences": {},
  "inputSourceName": "project/solidity/x/erc20/keeper/testdata/ERC20DirectBalanceManipulation.sol",
  "buildInfoId": "solc-0_8_26-6ec4f0c6b3691526d7b3a3a19b37097670fc2b6e"
}