{
  "_format": "hh3-artifact-1",
  "contractName": "ERC20MaliciousDelayed",
  "sourceName": "solidity/x/erc20/keeper/testdata/ERC20MaliciousDelayed.sol",
  "abi": [
    {
      "inputs": [
        {
          "internalType": "uint256",
          "name": "initialSupply",
          "type": "uint256"
        }
      ],
      "stateMutability": "nonpayable",
      "type": "constructor"
    },
    {
      "inputs": [],
      "name": "AccessControlBadConfirmation",
      "type": "error"
    },
    {
      "inputs": [
        {
          "internalType": "address",
          "name": "account",
          "type": "address"
        },
        {
          "internalType": "bytes32",
          "name": "neededRole",
          "type": "bytes32"
        }
      ],
      "name": "AccessControlUnauthorizedAccount",
      "type": "error"
    },
    {
      "inputs": [
        {
          "internalType": "address",
          "name": "spender",
          "type": "address"
        },
        {
          "internalType": "uint256",
          "name": "allowance",
          "type": "uint256"
        },
        {
          "internalType": "uint256",
          "name": "needed",
          "type": "uint256"
        }
      ],
      "name": "ERC20InsufficientAllowance",
      "type": "error"
    },
    {
      "inputs": [
        {
          "internalType": "address",
          "name": "sender",
          "type": "address"
        },
        {
          "internalType": "uint256",
          "name": "balance",
          "type": "uint256"
        },
        {
          "internalType": "uint256",
          "name": "needed",
          "type": "uint256"
        }
      ],
      "name": "ERC20InsufficientBalance",
      "type": "error"
    },
    {
      "inputs": [
        {
          "internalType": "address",
          "name": "approver",
          "type": "address"
        }
      ],
      "name": "ERC20InvalidApprover",
      "type": "error"
    },
    {
      "inputs": [
        {
          "internalType": "address",
          "name": "receiver",
          "type": "address"
        }
      ],
      "name": "ERC20InvalidReceiver",
      "type": "error"
    },
    {
      "inputs": [
        {
          "internalType": "address",
          "name": "sender",
          "type": "address"
        }
      ],
      "name": "ERC20InvalidSender",
      "type": "error"
    },
    {
      "inputs": [
        {
          "internalType": "address",
          "name": "spender",
          "type": "address"
        }
      ],
      "name": "ERC20InvalidSpender",
      "type": "error"
    },
    {
      "inputs": [],
      "name": "EnforcedPause",
      "type": "error"
    },
    {
      "inputs": [],
      "name": "ExpectedPause",
      "type": "error"
    },
    {
      "anonymous": false,
      "inputs": [
        {
          "indexed": true,
          "internalType": "address",
          "name": "owner",
          "type": "address"
        },
        {
          "indexed": true,
          "internalType": "address",
          "name": "spender",
          "type": "address"
        },
        {
          "indexed": false,
          "internalType": "uint256",
          "name": "value",
          "type": "uint256"
        }
      ],
      "name": "Approval",
      "type": "event"
    },
    {
      "anonymous": false,
      "inputs": [
        {
          "indexed": false,
          "internalType": "address",
          "name": "account",
          "type": "address"
        }
      ],
      "name": "Paused",
      "type": "event"
    },
    {
      "anonymous": false,
      "inputs": [
        {
          "indexed": true,
          "internalType": "bytes32",
          "name": "role",
          "type": "bytes32"
        },
        {
          "indexed": true,
          "internalType": "bytes32",
          "name": "previousAdminRole",
          "type": "bytes32"
        },
        {
          "indexed": true,
          "internalType": "bytes32",
          "name": "newAdminRole",
          "type": "bytes32"
        }
      ],
      "name": "RoleAdminChanged",
      "type": "event"
    },
    {
      "anonymous": false,
      "inputs": [
        {
          "indexed": true,
          "internalType": "bytes32",
          "name": "role",
          "type": "bytes32"
        },
        {
          "indexed": true,
          "internalType": "address",
          "name": "account",
          "type": "address"
        },
        {
          "indexed": true,
          "internalType": "address",
          "name": "sender",
          "type": "address"
        }
      ],
      "name": "RoleGranted",
      "type": "event"
    },
    {
      "anonymous": false,
      "inputs": [
        {
          "indexed": true,
          "internalType": "bytes32",
          "name": "role",
          "type": "bytes32"
        },
        {
          "indexed": true,
          "internalType": "address",
          "name": "account",
          "type": "address"
        },
        {
          "indexed": true,
          "internalType": "address",
          "name": "sender",
          "type": "address"
        }
      ],
      "name": "RoleRevoked",
      "type": "event"
    },
    {
      "anonymous": false,
      "inputs": [
        {
          "indexed": true,
          "internalType": "address",
          "name": "from",
          "type": "address"
        },
        {
          "indexed": true,
          "internalType": "address",
          "name": "to",
          "type": "address"
        },
        {
          "indexed": false,
          "internalType": "uint256",
          "name": "value",
          "type": "uint256"
        }
      ],
      "name": "Transfer",
      "type": "event"
    },
    {
      "anonymous": false,
      "inputs": [
        {
          "indexed": false,
          "internalType": "address",
          "name": "account",
          "type": "address"
        }
      ],
      "name": "Unpaused",
      "type": "event"
    },
    {
      "inputs": [],
      "name": "DEFAULT_ADMIN_ROLE",
      "outputs": [
        {
          "internalType": "bytes32",
          "name": "",
          "type": "bytes32"
        }
      ],
      "stateMutability": "view",
      "type": "function"
    },
    {
      "inputs": [],
      "name": "MINTER_ROLE",
      "outputs": [
        {
          "internalType": "bytes32",
          "name": "",
          "type": "bytes32"
        }
      ],
      "stateMutability": "view",
      "type": "function"
    },
    {
      "inputs": [],
      "name": "PAUSER_ROLE",
      "outputs": [
        {
          "internalType": "bytes32",
          "name": "",
          "type": "bytes32"
        }
      ],
      "stateMutability": "view",
      "type": "function"
    },
    {
      "inputs": [
        {
          "internalType": "address",
          "name": "owner",
          "type": "address"
        },
        {
          "internalType": "address",
          "name": "spender",
          "type": "address"
        }
      ],
      "name": "allowance",
      "outputs": [
        {
          "internalType": "uint256",
          "name": "",
          "type": "uint256"
        }
      ],
      "stateMutability": "view",
      "type": "function"
    },
    {
      "inputs": [
        {
          "internalType": "address",
          "name": "spender",
          "type": "address"
        },
        {
          "internalType": "uint256",
          "name": "value",
          "type": "uint256"
        }
      ],
      "name": "approve",
      "outputs": [
        {
          "internalType": "bool",
          "name": "",
          "type": "bool"
        }
      ],
      "stateMutability": "nonpayable",
      "type": "function"
    },
    {
      "inputs": [
        {
          "internalType": "address",
          "name": "account",
          "type": "address"
        }
      ],
      "name": "balanceOf",
      "outputs": [
        {
          "internalType": "uint256",
          "name": "",
          "type": "uint256"
        }
      ],
      "stateMutability": "view",
      "type": "function"
    },
    {
      "inputs": [
        {
          "internalType": "uint256",
          "name": "value",
          "type": "uint256"
        }
      ],
      "name": "burn",
      "outputs": [],
      "stateMutability": "nonpayable",
      "type": "function"
    },
    {
      "inputs": [
        {
          "internalType": "address",
          "name": "account",
          "type": "address"
        },
        {
          "internalType": "uint256",
          "name": "value",
          "type": "uint256"
        }
      ],
      "name": "burnFrom",
      "outputs": [],
      "stateMutability": "nonpayable",
      "type": "function"
    },
    {
      "inputs": [],
      "name": "decimals",
      "outputs": [
        {
          "internalType": "uint8",
          "name": "",
          "type": "uint8"
        }
      ],
      "stateMutability": "view",
      "type": "function"
    },
    {
      "inputs": [
        {
          "internalType": "bytes32",
          "name": "role",
          "type": "bytes32"
        }
      ],
      "name": "getRoleAdmin",
      "outputs": [
        {
          "internalType": "bytes32",
          "name": "",
          "type": "bytes32"
        }
      ],
      "stateMutability": "view",
      "type": "function"
    },
    {
      "inputs": [
        {
          "internalType": "bytes32",
          "name": "role",
          "type": "bytes32"
        },
        {
          "internalType": "address",
          "name": "account",
          "type": "address"
        }
      ],
      "name": "grantRole",
      "outputs": [],
      "stateMutability": "nonpayable",
      "type": "function"
    },
    {
      "inputs": [
        {
          "internalType": "bytes32",
          "name": "role",
          "type": "bytes32"
        },
        {
          "internalType": "address",
          "name": "account",
          "type": "address"
        }
      ],
      "name": "hasRole",
      "outputs": [
        {
          "internalType": "bool",
          "name": "",
          "type": "bool"
        }
      ],
      "stateMutability": "view",
      "type": "function"
    },
    {
      "inputs": [
        {
          "internalType": "address",
          "name": "to",
          "type": "address"
        },
        {
          "internalType": "uint256",
          "name": "amount",
          "type": "uint256"
        }
      ],
      "name": "mint",
      "outputs": [],
      "stateMutability": "nonpayable",
      "type": "function"
    },
    {
      "inputs": [],
      "name": "name",
      "outputs": [
        {
          "internalType": "string",
          "name": "",
          "type": "string"
        }
      ],
      "stateMutability": "view",
      "type": "function"
    },
    {
      "inputs": [],
      "name": "pause",
      "outputs": [],
      "stateMutability": "nonpayable",
      "type": "function"
    },
    {
      "inputs": [],
      "name": "paused",
      "outputs": [
        {
          "internalType": "bool",
          "name": "",
          "type": "bool"
        }
      ],
      "stateMutability": "view",
      "type": "function"
    },
    {
      "inputs": [
        {
          "internalType": "bytes32",
          "name": "role",
          "type": "bytes32"
        },
        {
          "internalType": "address",
          "name": "callerConfirmation",
          "type": "address"
        }
      ],
      "name": "renounceRole",
      "outputs": [],
      "stateMutability": "nonpayable",
      "type": "function"
    },
    {
      "inputs": [
        {
          "internalType": "bytes32",
          "name": "role",
          "type": "bytes32"
        },
        {
          "internalType": "address",
          "name": "account",
          "type": "address"
        }
      ],
      "name": "revokeRole",
      "outputs": [],
      "stateMutability": "nonpayable",
      "type": "function"
    },
    {
      "inputs": [
        {
          "internalType": "bytes4",
          "name": "interfaceId",
          "type": "bytes4"
        }
      ],
      "name": "supportsInterface",
      "outputs": [
        {
          "internalType": "bool",
          "name": "",
          "type": "bool"
        }
      ],
      "stateMutability": "view",
      "type": "function"
    },
    {
      "inputs": [],
      "name": "symbol",
      "outputs": [
        {
          "internalType": "string",
          "name": "",
          "type": "string"
        }
      ],
      "stateMutability": "view",
      "type": "function"
    },
    {
      "inputs": [],
      "name": "totalSupply",
      "outputs": [
        {
          "internalType": "uint256",
          "name": "",
          "type": "uint256"
        }
      ],
      "stateMutability": "view",
      "type": "function"
    },
    {
      "inputs": [
        {
          "internalType": "address",
          "name": "recipient",
          "type": "address"
        },
        {
          "internalType": "uint256",
          "name": "amount",
          "type": "uint256"
        }
      ],
      "name": "transfer",
      "outputs": [
        {
          "internalType": "bool",
          "name": "",
          "type": "bool"
        }
      ],
      "stateMutability": "nonpayable",
      "type": "function"
    },
    {
      "inputs": [
        {
          "internalType": "address",
          "name": "from",
          "type": "address"
        },
        {
          "internalType": "address",
          "name": "to",
          "type": "address"
        },
        {
          "internalType": "uint256",
          "name": "value",
          "type": "uint256"
        }
      ],
      "name": "transferFrom",
      "outputs": [
        {
          "internalType": "bool",
          "name": "",
          "type": "bool"
        }
      ],
      "stateMutability": "nonpayable",
      "type": "function"
    },
    {
      "inputs": [],
      "name": "unpause",
      "outputs": [],
      "stateMutability": "nonpayable",
      "type": "function"
    }
  ],
  "bytecode": "0x6080604052346104285761140f6020813803918261001c8161042c565b9384928339810103126104285751610034604061042c565b90601582527f45524332304d616c6963696f757344656c6179656400000000000000000000006020830152610069604061042c565b601581527f45524332304d414c4943494f555344454c415945440000000000000000000000602082015282519091906001600160401b03811161033957600354600181811c9116801561041e575b602082101461031b57601f81116103bb575b506020601f821160011461035857819293945f9261034d575b50508160011b915f199060031b1c1916176003555b81516001600160401b03811161033957600454600181811c9116801561032f575b602082101461031b57601f81116102b8575b50602092601f821160011461025757928192935f9261024c575b50508160011b915f199060031b1c1916176004555b600780546001600160a01b031916734dc6ac40af078661fc43823086e1513635eeab14179055670de0b6b3a764000060085561019433610451565b5061019e336104c7565b506101a833610580565b5033156102395760ff6005541661022a5760025481810180911161021657600255335f525f60205260405f208181540190556040519081525f7fddf252ad1be2c89b69c2b068fc378daa952ba7f163c4a11628f55a4df523b3ef60203393a3604051610d9b90816106148239f35b634e487b7160e01b5f52601160045260245ffd5b63d93c066560e01b5f5260045ffd5b63ec442f0560e01b5f525f60045260245ffd5b015190505f80610144565b601f1982169360045f52805f20915f5b8681106102a05750836001959610610288575b505050811b01600455610159565b01515f1960f88460031b161c191690555f808061027a565b91926020600181928685015181550194019201610267565b60045f527f8a35acfbc15ff81a39ae7d344fd709f28e8600b4aa8c65c6b64bfe7fe36bd19b601f830160051c81019160208410610311575b601f0160051c01905b818110610306575061012a565b5f81556001016102f9565b90915081906102f0565b634e487b7160e01b5f52602260045260245ffd5b90607f1690610118565b634e487b7160e01b5f52604160045260245ffd5b015190505f806100e2565b601f1982169060035f52805f20915f5b8181106103a35750958360019596971061038b575b505050811b016003556100f7565b01515f1960f88460031b161c191690555f808061037d565b9192602060018192868b015181550194019201610368565b60035f527fc2575a0e9e593c00f959f8c92f12db2869c3395a3b0502d05e2516446f71f85b601f830160051c81019160208410610414575b601f0160051c01905b81811061040957506100c9565b5f81556001016103fc565b90915081906103f3565b90607f16906100b7565b5f80fd5b6040519190601f01601f191682016001600160401b0381118382101761033957604052565b6001600160a01b0381165f9081525f805160206113ef833981519152602052604090205460ff166104c2576001600160a01b03165f8181525f805160206113ef83398151915260205260408120805460ff191660011790553391905f805160206113af8339815191528180a4600190565b505f90565b6001600160a01b0381165f9081527f3195c024b2ddd6d9b8f6c836aa52f67fe69376c8903d009b80229b3ce4425f51602052604090205460ff166104c2576001600160a01b03165f8181527f3195c024b2ddd6d9b8f6c836aa52f67fe69376c8903d009b80229b3ce4425f5160205260408120805460ff191660011790553391907f9f2df0fed2c77648de5860a4cc508cd0818c85b8b8a1ab4ceeef8d981c8956a6905f805160206113af8339815191529080a4600190565b6001600160a01b0381165f9081525f805160206113cf833981519152602052604090205460ff166104c2576001600160a01b03165f8181525f805160206113cf83398151915260205260408120805460ff191660011790553391907f65d7a28e3265b37a6474929f336521b332c1681b933f6cb9f3376673440d862a905f805160206113af8339815191529080a460019056fe6080806040526004361015610012575f80fd5b5f3560e01c90816301ffc9a7146108845750806306fdde03146107b1578063095ea7b31461078b57806318160ddd1461076e57806323b872dd14610736578063248a9ca3146107035780632f2ff15d146106c5578063313ce567146106aa57806336568abe146106665780633f4ba83a1461060057806340c10f19146104f957806342966c68146104dc5780635c975abb146104ba57806370a082311461048357806379cc6790146104535780638456cb59146103fa57806391d14854146103b157806395d89b4114610295578063a217fddf1461027b578063a9059cbb14610231578063d5391393146101f7578063d547741f146101b2578063dd62ed3e146101625763e63ab1e914610124575f80fd5b3461015e575f36600319011261015e5760206040517f65d7a28e3265b37a6474929f336521b332c1681b933f6cb9f3376673440d862a8152f35b5f80fd5b3461015e57604036600319011261015e5761017b610901565b610183610917565b6001600160a01b039182165f908152600160209081526040808320949093168252928352819020549051908152f35b3461015e57604036600319011261015e576101f56004356101d1610917565b906101f06101eb825f526006602052600160405f20015490565b610b04565b610bca565b005b3461015e575f36600319011261015e5760206040517f9f2df0fed2c77648de5860a4cc508cd0818c85b8b8a1ab4ceeef8d981c8956a68152f35b3461015e57604036600319011261015e5761027061024d610901565b600754600854610266916001600160a01b031683610cc7565b60243590336109f6565b602060405160018152f35b3461015e575f36600319011261015e5760206040515f8152f35b3461015e575f36600319011261015e576040515f6004548060011c906001811680156103a7575b602083108114610393578285529081156103775750600114610321575b50819003601f01601f191681019067ffffffffffffffff82118183101761030d57610309829182604052826108d7565b0390f35b634e487b7160e01b5f52604160045260245ffd5b60045f9081529091507f8a35acfbc15ff81a39ae7d344fd709f28e8600b4aa8c65c6b64bfe7fe36bd19b5b828210610361575060209150820101826102d9565b600181602092548385880101520191019061034c565b90506020925060ff191682840152151560051b820101826102d9565b634e487b7160e01b5f52602260045260245ffd5b91607f16916102bc565b3461015e57604036600319011261015e576103ca610917565b6004355f52600660205260405f209060018060a01b03165f52602052602060ff60405f2054166040519015158152f35b3461015e575f36600319011261015e57610412610a95565b61041a610d2a565b600160ff1960055416176005557f62e78cea01bee320cd4e420270b5ea74000d11b0c9f74754ebdbfc544b05a2586020604051338152a1005b3461015e57604036600319011261015e576101f561046f610901565b6024359061047e82338361092d565b610c4e565b3461015e57602036600319011261015e576001600160a01b036104a4610901565b165f525f602052602060405f2054604051908152f35b3461015e575f36600319011261015e57602060ff600554166040519015158152f35b3461015e57602036600319011261015e576101f560043533610c4e565b3461015e57604036600319011261015e57610512610901565b335f9081527f3195c024b2ddd6d9b8f6c836aa52f67fe69376c8903d009b80229b3ce4425f516020526040902054602435919060ff16156105c9576001600160a01b03169081156105b657610565610d2a565b600254908082018092116105a25760205f80516020610d46833981519152915f9360025584845283825260408420818154019055604051908152a3005b634e487b7160e01b5f52601160045260245ffd5b63ec442f0560e01b5f525f60045260245ffd5b63e2517d3f60e01b5f52336004527f9f2df0fed2c77648de5860a4cc508cd0818c85b8b8a1ab4ceeef8d981c8956a660245260445ffd5b3461015e575f36600319011261015e57610618610a95565b60055460ff8116156106575760ff19166005557f5db9ee0a495bf2e6ff9c91a7834c1ba4fdd244a5e8aa4e537bd38aeae4b073aa6020604051338152a1005b638dfc202b60e01b5f5260045ffd5b3461015e57604036600319011261015e5761067f610917565b336001600160a01b0382160361069b576101f590600435610bca565b63334bd91960e11b5f5260045ffd5b3461015e575f36600319011261015e57602060405160128152f35b3461015e57604036600319011261015e576101f56004356106e4610917565b906106fe6101eb825f526006602052600160405f20015490565b610b3e565b3461015e57602036600319011261015e57602061072e6004355f526006602052600160405f20015490565b604051908152f35b3461015e57606036600319011261015e57610270610752610901565b61075a610917565b6044359161076983338361092d565b6109f6565b3461015e575f36600319011261015e576020600254604051908152f35b3461015e57604036600319011261015e576102706107a7610901565b6024359033610cc7565b3461015e575f36600319011261015e576040515f6003548060011c9060018116801561087a575b6020831081146103935782855290811561037757506001146108245750819003601f01601f191681019067ffffffffffffffff82118183101761030d57610309829182604052826108d7565b60035f9081529091507fc2575a0e9e593c00f959f8c92f12db2869c3395a3b0502d05e2516446f71f85b5b828210610864575060209150820101826102d9565b600181602092548385880101520191019061084f565b91607f16916107d8565b3461015e57602036600319011261015e576004359063ffffffff60e01b821680920361015e57602091637965db0b60e01b81149081156108c6575b5015158152f35b6301ffc9a760e01b149050836108bf565b602060409281835280519182918282860152018484015e5f828201840152601f01601f1916010190565b600435906001600160a01b038216820361015e57565b602435906001600160a01b038216820361015e57565b6001600160a01b039081165f818152600160209081526040808320948616835293905291909120549291905f198410610967575b50505050565b8284106109d35780156109c0576001600160a01b038216156109ad575f52600160205260405f209060018060a01b03165f5260205260405f20910390555f808080610961565b634a1406b160e11b5f525f60045260245ffd5b63e602df0560e01b5f525f60045260245ffd5b508290637dc7a0d960e11b5f5260018060a01b031660045260245260445260645ffd5b6001600160a01b0316908115610a82576001600160a01b03169182156105b657610a1e610d2a565b815f525f60205260405f2054818110610a6957815f80516020610d4683398151915292602092855f525f84520360405f2055845f525f825260405f20818154019055604051908152a3565b8263391434e360e21b5f5260045260245260445260645ffd5b634b637e8f60e11b5f525f60045260245ffd5b335f9081527fe09f975e15f8f53f24cbbc282b13c40b84df485fcdb8d3997fa103dc5a4ef841602052604090205460ff1615610acd57565b63e2517d3f60e01b5f52336004527f65d7a28e3265b37a6474929f336521b332c1681b933f6cb9f3376673440d862a60245260445ffd5b5f81815260066020908152604080832033845290915290205460ff1615610b285750565b63e2517d3f60e01b5f523360045260245260445ffd5b5f8181526006602090815260408083206001600160a01b038616845290915290205460ff16610bc4575f8181526006602090815260408083206001600160a01b0395909516808452949091528120805460ff19166001179055339291907f2f8788117e7eff1d82e926ec794901d17c78024a50270940304540a733656f0d9080a4600190565b50505f90565b5f8181526006602090815260408083206001600160a01b038616845290915290205460ff1615610bc4575f8181526006602090815260408083206001600160a01b0395909516808452949091528120805460ff19169055339291907ff6391f5c32d9c69d2a47ea670b442974b53935d1edc7fd64eb21e047a839171b9080a4600190565b9091906001600160a01b03168015610a8257610c68610d2a565b805f525f60205260405f2054838110610cad576020845f94955f80516020610d46833981519152938587528684520360408620558060025403600255604051908152a3565b915063391434e360e21b5f5260045260245260445260645ffd5b6001600160a01b03169081156109c0576001600160a01b03169182156109ad5760207f8c5be1e5ebec7d5bd14f71427d1e84f3dd0314c0f7b2291e5b200ac8c7c3b92591835f526001825260405f20855f5282528060405f2055604051908152a3565b60ff60055416610d3657565b63d93c066560e01b5f5260045ffdfeddf252ad1be2c89b69c2b068fc378daa952ba7f163c4a11628f55a4df523b3efa26469706673582212202f9b86cfcf530bd9ec296a99086d465963963328007fa438d36ffe0648c4ecaf64736f6c634300081a00332f8788117e7eff1d82e926ec794901d17c78024a50270940304540a733656f0de09f975e15f8f53f24cbbc282b13c40b84df485fcdb8d3997fa103dc5a4ef84154cdd369e4e8a8515e52ca72ec816c2101831ad1f18bf44102ed171459c9b4f8",
  "linkReferences": {},
  "deployedLinkReferences": {},
  "immutableReferences": {},
  "inputSourceName": "project/solidity/x/erc20/keeper/testdata/ERC20MaliciousDelayed.sol",
  "buildInfoId": "solc-0_8_26-6ec4f0c6b3691526d7b3a3a19b37097670fc2b6e"
}