{
  "_format": "hh3-artifact-1",
  "contractName": "ERC20DirectBalanceManipulation",
  "sourceName": "solidity/x/erc20/keeper/testdata/ERC20DirectBalanceManipulation.sol",
  "abi": [
    {
      "inputs": [
        {
          "internalType": "uint256",
          "name": "initialSupply",
          "type": "uint256"
        }
      ],
      "stateMutability": "nonpayable",
      "type": "constructor"
    },
    {
      "inputs": [],
      "name": "AccessControlBadConfirmation",
      "type": "error"
    },
    {
      "inputs": [
        {
          "internalType": "address",
          "name": "account",
          "type": "address"
        },
        {
          "internalType": "bytes32",
          "name": "neededRole",
          "type": "bytes32"
        }
      ],
      "name": "AccessControlUnauthorizedAccount",
      "type": "error"
    },
    {
      "inputs": [
        {
          "internalType": "address",
          "name": "spender",
          "type": "address"
        },
        {
          "internalType": "uint256",
          "name": "allowance",
          "type": "uint256"
        },
        {
          "internalType": "uint256",
          "name": "needed",
          "type": "uint256"
        }
      ],
      "name": "ERC20InsufficientAllowance",
      "type": "error"
    },
    {
      "inputs": [
        {
          "internalType": "address",
          "name": "sender",
          "type": "address"
        },
        {
          "internalType": "uint256",
          "name": "balance",
          "type": "uint256"
        },
        {
          "internalType": "uint256",
          "name": "needed",
          "type": "uint256"
        }
      ],
      "name": "ERC20InsufficientBalance",
      "type": "error"
    },
    {
      "inputs": [
        {
          "internalType": "address",
          "name": "approver",
          "type": "address"
        }
      ],
      "name": "ERC20InvalidApprover",
      "type": "error"
    },
    {
      "inputs": [
        {
          "internalType": "address",
          "name": "receiver",
          "type": "address"
        }
      ],
      "name": "ERC20InvalidReceiver",
      "type": "error"
    },
    {
      "inputs": [
        {
          "internalType": "address",
          "name": "sender",
          "type": "address"
        }
      ],
      "name": "ERC20InvalidSender",
      "type": "error"
    },
    {
      "inputs": [
        {
          "internalType": "address",
          "name": "spender",
          "type": "address"
        }
      ],
      "name": "ERC20InvalidSpender",
      "type": "error"
    },
    {
      "anonymous": false,
      "inputs": [
        {
          "indexed": true,
          "internalType": "address",
          "name": "owner",
          "type": "address"
        },
        {
          "indexed": true,
          "internalType": "address",
          "name": "spender",
          "type": "address"
        },
        {
          "indexed": false,
          "internalType": "uint256",
          "name": "value",
          "type": "uint256"
        }
      ],
      "name": "Approval",
      "type": "event"
    },
    {
      "anonymous": false,
      "inputs": [
        {
          "indexed": true,
          "internalType": "bytes32",
          "name": "role",
          "type": "bytes32"
        },
        {
          "indexed": true,
          "internalType": "bytes32",
          "name": "previousAdminRole",
          "type": "bytes32"
        },
        {
          "indexed": true,
          "internalType": "bytes32",
          "name": "newAdminRole",
          "type": "bytes32"
        }
      ],
      "name": "RoleAdminChanged",
      "type": "event"
    },
    {
      "anonymous": false,
      "inputs": [
        {
          "indexed": true,
          "internalType": "bytes32",
          "name": "role",
          "type": "bytes32"
        },
        {
          "indexed": true,
          "internalType": "address",
          "name": "account",
          "type": "address"
        },
        {
          "indexed": true,
          "internalType": "address",
          "name": "sender",
          "type": "address"
        }
      ],
      "name": "RoleGranted",
      "type": "event"
    },
    {
      "anonymous": false,
      "inputs": [
        {
          "indexed": true,
          "internalType": "bytes32",
          "name": "role",
          "type": "bytes32"
        },
        {
          "indexed": true,
          "internalType": "address",
          "name": "account",
          "type": "address"
        },
        {
          "indexed": true,
          "internalType": "address",
          "name": "sender",
          "type": "address"
        }
      ],
      "name": "RoleRevoked",
      "type": "event"
    },
    {
      "anonymous": false,
      "inputs": [
        {
          "indexed": true,
          "internalType": "address",
          "name": "from",
          "type": "address"
        },
        {
          "indexed": true,
          "internalType": "address",
          "name": "to",
          "type": "address"
        },
        {
          "indexed": false,
          "internalType": "uint256",
          "name": "value",
          "type": "uint256"
        }
      ],
      "name": "Transfer",
      "type": "event"
    },
    {
      "inputs": [],
      "name": "DEFAULT_ADMIN_ROLE",
      "outputs": [
        {
          "internalType": "bytes32",
          "name": "",
          "type": "bytes32"
        }
      ],
      "stateMutability": "view",
      "type": "function"
    },
    {
      "inputs": [
        {
          "internalType": "address",
          "name": "owner",
          "type": "address"
        },
        {
          "internalType": "address",
          "name": "spender",
          "type": "address"
        }
      ],
      "name": "allowance",
      "outputs": [
        {
          "internalType": "uint256",
          "name": "",
          "type": "uint256"
        }
      ],
      "stateMutability": "view",
      "type": "function"
    },
    {
      "inputs": [
        {
          "internalType": "address",
          "name": "spender",
          "type": "address"
        },
        {
          "internalType": "uint256",
          "name": "value",
          "type": "uint256"
        }
      ],
      "name": "approve",
      "outputs": [
        {
          "internalType": "bool",
          "name": "",
          "type": "bool"
        }
      ],
      "stateMutability": "nonpayable",
      "type": "function"
    },
    {
      "inputs": [
        {
          "internalType": "address",
          "name": "account",
          "type": "address"
        }
      ],
      "name": "balanceOf",
      "outputs": [
        {
          "internalType": "uint256",
          "name": "",
          "type": "uint256"
        }
      ],
      "stateMutability": "view",
      "type": "function"
    },
    {
      "inputs": [],
      "name": "decimals",
      "outputs": [
        {
          "internalType": "uint8",
          "name": "",
          "type": "uint8"
        }
      ],
      "stateMutability": "view",
      "type": "function"
    },
    {
      "inputs": [
        {
          "internalType": "bytes32",
          "name": "role",
          "type": "bytes32"
        }
      ],
      "name": "getRoleAdmin",
      "outputs": [
        {
          "internalType": "bytes32",
          "name": "",
          "type": "bytes32"
        }
      ],
      "stateMutability": "view",
      "type": "function"
    },
    {
      "inputs": [
        {
          "internalType": "bytes32",
          "name": "role",
          "type": "bytes32"
        },
        {
          "internalType": "address",
          "name": "account",
          "type": "address"
        }
      ],
      "name": "grantRole",
      "outputs": [],
      "stateMutability": "nonpayable",
      "type": "function"
    },
    {
      "inputs": [
        {
          "internalType": "bytes32",
          "name": "role",
          "type": "bytes32"
        },
        {
          "internalType": "address",
          "name": "account",
          "type": "address"
        }
      ],
      "name": "hasRole",
      "outputs": [
        {
          "internalType": "bool",
          "name": "",
          "type": "bool"
        }
      ],
      "stateMutability": "view",
      "type": "function"
    },
    {
      "inputs": [],
      "name": "name",
      "outputs": [
        {
          "internalType": "string",
          "name": "",
          "type": "string"
        }
      ],
      "stateMutability": "view",
      "type": "function"
    },
    {
      "inputs": [
        {
          "internalType": "bytes32",
          "name": "role",
          "type": "bytes32"
        },
        {
          "internalType": "address",
          "name": "callerConfirmation",
          "type": "address"
        }
      ],
      "name": "renounceRole",
      "outputs": [],
      "stateMutability": "nonpayable",
      "type": "function"
    },
    {
      "inputs": [
        {
          "internalType": "bytes32",
          "name": "role",
          "type": "bytes32"
        },
        {
          "internalType": "address",
          "name": "account",
          "type": "address"
        }
      ],
      "name": "revokeRole",
      "outputs": [],
      "stateMutability": "nonpayable",
      "type": "function"
    },
    {
      "inputs": [
        {
          "internalType": "bytes4",
          "name": "interfaceId",
          "type": "bytes4"
        }
      ],
      "name": "supportsInterface",
      "outputs": [
        {
          "internalType": "bool",
          "name": "",
          "type": "bool"
        }
      ],
      "stateMutability": "view",
      "type": "function"
    },
    {
      "inputs": [],
      "name": "symbol",
      "outputs": [
        {
          "internalType": "string",
          "name": "",
          "type": "string"
        }
      ],
      "stateMutability": "view",
      "type": "function"
    },
    {
      "inputs": [],
      "name": "totalSupply",
      "outputs": [
        {
          "internalType": "uint256",
          "name": "",
          "type": "uint256"
        }
      ],
      "stateMutability": "view",
      "type": "function"
    },
    {
      "inputs": [
        {
          "internalType": "address",
          "name": "recipient",
          "type": "address"
        },
        {
          "internalType": "uint256",
          "name": "amount",
          "type": "uint256"
        }
      ],
      "name": "transfer",
      "outputs": [
        {
          "internalType": "bool",
          "name": "",
          "type": "bool"
        }
      ],
      "stateMutability": "nonpayable",
      "type": "function"
    },
    {
      "inputs": [
        {
          "internalType": "address",
          "name": "from",
          "type": "address"
        },
        {
          "internalType": "address",
          "name": "to",
          "type": "address"
        },
        {
          "internalType": "uint256",
          "name": "value",
          "type": "uint256"
        }
      ],
      "name": "transferFrom",
      "outputs": [
        {
          "internalType": "bool",
          "name": "",
          "type": "bool"
        }
      ],
      "stateMutability": "nonpayable",
      "type": "function"
    }
  ],
  "bytecode": "0x6080604052346103b257604051601f610e3538819003918201601f19168301916001600160401b038311848410176102c3578084926020946040528339810103126103b2575161004d6103b6565b906100566103b6565b82519091906001600160401b0381116102c357600354600181811c911680156103a8575b60208210146102a557601f8111610345575b506020601f82116001146102e257819293945f926102d7575b50508160011b915f199060031b1c1916176003555b81516001600160401b0381116102c357600454600181811c911680156102b9575b60208210146102a557601f8111610242575b50602092601f82116001146101e157928192935f926101d6575b50508160011b915f199060031b1c1916176004555b600680546001600160a01b031916734dc6ac40af078661fc43823086e1513635eeab1417905561014b336103ff565b5033156101c3576002548181018091116101af57600255335f525f60205260405f208181540190556040519081525f7fddf252ad1be2c89b69c2b068fc378daa952ba7f163c4a11628f55a4df523b3ef60203393a360405161098c90816104898239f35b634e487b7160e01b5f52601160045260245ffd5b63ec442f0560e01b5f525f60045260245ffd5b015190505f80610107565b601f1982169360045f52805f20915f5b86811061022a5750836001959610610212575b505050811b0160045561011c565b01515f1960f88460031b161c191690555f8080610204565b919260206001819286850151815501940192016101f1565b60045f527f8a35acfbc15ff81a39ae7d344fd709f28e8600b4aa8c65c6b64bfe7fe36bd19b601f830160051c8101916020841061029b575b601f0160051c01905b81811061029057506100ed565b5f8155600101610283565b909150819061027a565b634e487b7160e01b5f52602260045260245ffd5b90607f16906100db565b634e487b7160e01b5f52604160045260245ffd5b015190505f806100a5565b601f1982169060035f52805f20915f5b81811061032d57509583600195969710610315575b505050811b016003556100ba565b01515f1960f88460031b161c191690555f8080610307565b9192602060018192868b0151815501940192016102f2565b60035f527fc2575a0e9e593c00f959f8c92f12db2869c3395a3b0502d05e2516446f71f85b601f830160051c8101916020841061039e575b601f0160051c01905b818110610393575061008c565b5f8155600101610386565b909150819061037d565b90607f169061007a565b5f80fd5b60408051919082016001600160401b038111838210176102c357604052601e82527f455243323044697265637442616c616e63654d616e6970756c6174696f6e00006020830152565b6001600160a01b0381165f9081525f516020610e155f395f51905f52602052604090205460ff16610483576001600160a01b03165f8181525f516020610e155f395f51905f5260205260408120805460ff191660011790553391907f2f8788117e7eff1d82e926ec794901d17c78024a50270940304540a733656f0d8180a4600190565b505f9056fe6080806040526004361015610012575f80fd5b5f3560e01c90816301ffc9a7146106a65750806306fdde03146105d3578063095ea7b31461055157806318160ddd1461053457806323b872dd14610455578063248a9ca3146104225780632f2ff15d146103e4578063313ce567146103c957806336568abe1461038557806370a082311461034e57806391d148541461030557806395d89b41146101e9578063a217fddf146101cf578063a9059cbb14610165578063d547741f146101205763dd62ed3e146100cc575f80fd5b3461011c57604036600319011261011c576100e5610723565b6100ed610739565b6001600160a01b039182165f908152600160209081526040808320949093168252928352819020549051908152f35b5f80fd5b3461011c57604036600319011261011c5761016360043561013f610739565b9061015e610159825f526005602052600160405f20015490565b61080c565b6108d2565b005b3461011c57604036600319011261011c5761017e610723565b602435908160011c9060018060a01b03600654168284039384116101bb576101b0936101aa913361074f565b3361074f565b602060405160018152f35b634e487b7160e01b5f52601160045260245ffd5b3461011c575f36600319011261011c5760206040515f8152f35b3461011c575f36600319011261011c576040515f6004548060011c906001811680156102fb575b6020831081146102e7578285529081156102cb5750600114610275575b50819003601f01601f191681019067ffffffffffffffff8211818310176102615761025d829182604052826106f9565b0390f35b634e487b7160e01b5f52604160045260245ffd5b60045f9081529091507f8a35acfbc15ff81a39ae7d344fd709f28e8600b4aa8c65c6b64bfe7fe36bd19b5b8282106102b55750602091508201018261022d565b60018160209254838588010152019101906102a0565b90506020925060ff191682840152151560051b8201018261022d565b634e487b7160e01b5f52602260045260245ffd5b91607f1691610210565b3461011c57604036600319011261011c5761031e610739565b6004355f52600560205260405f209060018060a01b03165f52602052602060ff60405f2054166040519015158152f35b3461011c57602036600319011261011c576001600160a01b0361036f610723565b165f525f602052602060405f2054604051908152f35b3461011c57604036600319011261011c5761039e610739565b336001600160a01b038216036103ba57610163906004356108d2565b63334bd91960e11b5f5260045ffd5b3461011c575f36600319011261011c57602060405160128152f35b3461011c57604036600319011261011c57610163600435610403610739565b9061041d610159825f526005602052600160405f20015490565b610846565b3461011c57602036600319011261011c57602061044d6004355f526005602052600160405f20015490565b604051908152f35b3461011c57606036600319011261011c5761046e610723565b610476610739565b6001600160a01b0382165f818152600160209081526040808320338452909152902054909260443592915f1981106104b4575b506101b0935061074f565b8381106105195784156105065733156104f3576101b0945f52600160205260405f2060018060a01b0333165f526020528360405f2091039055846104a9565b634a1406b160e11b5f525f60045260245ffd5b63e602df0560e01b5f525f60045260245ffd5b8390637dc7a0d960e11b5f523360045260245260445260645ffd5b3461011c575f36600319011261011c576020600254604051908152f35b3461011c57604036600319011261011c5761056a610723565b602435903315610506576001600160a01b03169081156104f357335f52600160205260405f20825f526020528060405f20556040519081527f8c5be1e5ebec7d5bd14f71427d1e84f3dd0314c0f7b2291e5b200ac8c7c3b92560203392a3602060405160018152f35b3461011c575f36600319011261011c576040515f6003548060011c9060018116801561069c575b6020831081146102e7578285529081156102cb57506001146106465750819003601f01601f191681019067ffffffffffffffff8211818310176102615761025d829182604052826106f9565b60035f9081529091507fc2575a0e9e593c00f959f8c92f12db2869c3395a3b0502d05e2516446f71f85b5b8282106106865750602091508201018261022d565b6001816020925483858801015201910190610671565b91607f16916105fa565b3461011c57602036600319011261011c576004359063ffffffff60e01b821680920361011c57602091637965db0b60e01b81149081156106e8575b5015158152f35b6301ffc9a760e01b149050836106e1565b602060409281835280519182918282860152018484015e5f828201840152601f01601f1916010190565b600435906001600160a01b038216820361011c57565b602435906001600160a01b038216820361011c57565b6001600160a01b03169081156107f9576001600160a01b03169182156107e657815f525f60205260405f20548181106107cd57817fddf252ad1be2c89b69c2b068fc378daa952ba7f163c4a11628f55a4df523b3ef92602092855f525f84520360405f2055845f525f825260405f20818154019055604051908152a3565b8263391434e360e21b5f5260045260245260445260645ffd5b63ec442f0560e01b5f525f60045260245ffd5b634b637e8f60e11b5f525f60045260245ffd5b5f81815260056020908152604080832033845290915290205460ff16156108305750565b63e2517d3f60e01b5f523360045260245260445ffd5b5f8181526005602090815260408083206001600160a01b038616845290915290205460ff166108cc575f8181526005602090815260408083206001600160a01b0395909516808452949091528120805460ff19166001179055339291907f2f8788117e7eff1d82e926ec794901d17c78024a50270940304540a733656f0d9080a4600190565b50505f90565b5f8181526005602090815260408083206001600160a01b038616845290915290205460ff16156108cc575f8181526005602090815260408083206001600160a01b0395909516808452949091528120805460ff19169055339291907ff6391f5c32d9c69d2a47ea670b442974b53935d1edc7fd64eb21e047a839171b9080a460019056fea2646970667358221220c4b7d040240ec43bc90525c9ae861eb3a11a92f1ced6a11383fd95e7757d772664736f6c634300081c003305b8ccbb9d4d8fb16ea74ce3c29a41f1b461fbdaff4714a0d9a8eb05499746bc",
  "linkReferences": {},
  "deployedLinkReferences": {},
  "immutableReferences": {},
  "inputSourceName": "project/solidity/x/erc20/keeper/testdata/ERC20DirectBalanceManipulation.sol",
  "buildInfoId": "solc-0_8_28-e55ad96646b3bb5046840fe24a1f6856fc44be2c"
}