{
  "_format": "hh-sol-artifact-1",
  "contractName": "SimpleSmartWallet",
  "sourceName": "solidity/tests/contracts/account_abstraction/smartwallet/SimpleSmartWallet.sol",
  "abi": [
    {
      "inputs": [],
      "name": "entryPoint",
      "outputs": [
        {
          "internalType": "contract EntryPoint",
          "name": "",
          "type": "address"
        }
      ],
      "stateMutability": "view",
      "type": "function"
    },
    {
      "inputs": [
        {
          "internalType": "address",
          "name": "target",
          "type": "address"
        },
        {
          "internalType": "uint256",
          "name": "value",
          "type": "uint256"
        },
        {
          "internalType": "bytes",
          "name": "data",
          "type": "bytes"
        }
      ],
      "name": "execute",
      "outputs": [],
      "stateMutability": "nonpayable",
      "type": "function"
    },
    {
      "inputs": [
        {
          "internalType": "address",
          "name": "_owner",
          "type": "address"
        },
        {
          "internalType": "contract EntryPoint",
          "name": "_entryPoint",
          "type": "address"
        }
      ],
      "name": "initialize",
      "outputs": [],
      "stateMutability": "nonpayable",
      "type": "function"
    },
    {
      "inputs": [],
      "name": "owner",
      "outputs": [
        {
          "internalType": "address",
          "name": "",
          "type": "address"
        }
      ],
      "stateMutability": "view",
      "type": "function"
    },
    {
      "inputs": [
        {
          "components": [
            {
              "internalType": "address",
              "name": "sender",
              "type": "address"
            },
            {
              "internalType": "uint256",
              "name": "nonce",
              "type": "uint256"
            },
            {
              "internalType": "bytes",
              "name": "initCode",
              "type": "bytes"
            },
            {
              "internalType": "bytes",
              "name": "callData",
              "type": "bytes"
            },
            {
              "internalType": "uint256",
              "name": "callGasLimit",
              "type": "uint256"
            },
            {
              "internalType": "uint256",
              "name": "verificationGasLimit",
              "type": "uint256"
            },
            {
              "internalType": "uint256",
              "name": "preVerificationGas",
              "type": "uint256"
            },
            {
              "internalType": "uint256",
              "name": "maxFeePerGas",
              "type": "uint256"
            },
            {
              "internalType": "uint256",
              "name": "maxPriorityFeePerGas",
              "type": "uint256"
            },
            {
              "internalType": "bytes",
              "name": "paymasterAndData",
              "type": "bytes"
            },
            {
              "internalType": "bytes",
              "name": "signature",
              "type": "bytes"
            }
          ],
          "internalType": "struct UserOperation",
          "name": "userOp",
          "type": "tuple"
        },
        {
          "internalType": "bytes32",
          "name": "userOpHash",
          "type": "bytes32"
        },
        {
          "internalType": "uint256",
          "name": "",
          "type": "uint256"
        }
      ],
      "name": "validateUserOp",
      "outputs": [
        {
          "internalType": "uint256",
          "name": "validationData",
          "type": "uint256"
        }
      ],
      "stateMutability": "view",
      "type": "function"
    },
    {
      "stateMutability": "payable",
      "type": "receive"
    }
  ],
  "bytecode": "0x608080604052346100165761051e908161001c8239f35b600080fdfe6080604052600436101561001b575b361561001957600080fd5b005b6000803560e01c9081633a871cdd1461006e57508063485cc955146100695780638da5cb5b14610064578063b0d691fe1461005f5763b61d27f60361000e5761027a565b610251565b610228565b610186565b3461016d576003199060603683011261016d576004359167ffffffffffffffff908184116101655761016084360391820112610165576001546001600160a01b0394906100be90861633146102e0565b610144810135916022190182121561016957016004810135918211610165576024019080360382136101655761012c6101046100ff6020948694369161037b565b610489565b60408051602435815260ff909416602085015283019190915260608201529081906080820190565b838052039060015afa15610160578051905461015492906001600160a01b03169116146103b8565b60405160008152602090f35b6103ac565b8280fd5b8380fd5b80fd5b6001600160a01b0381160361018157565b600080fd5b34610181576040366003190112610181576004356101a381610170565b6024356101af81610170565b6000546001600160a01b038082166101ed579092166001600160a01b031992831617600055600180546001600160a01b039290921691909216179055005b60405162461bcd60e51b8152602060048201526013602482015272185b1c9958591e481a5b9a5d1a585b1a5e9959606a1b6044820152606490fd5b34610181576000366003190112610181576000546040516001600160a01b039091168152602090f35b34610181576000366003190112610181576001546040516001600160a01b039091168152602090f35b346101815760603660031901126101815760043561029781610170565b6044359067ffffffffffffffff908183116101815736602384011215610181578260040135918211610181573660248385010111610181576024610019930190602435906103f8565b156102e757565b60405162461bcd60e51b815260206004820152600f60248201526e1bdb9b1e48115b9d1c9e541bda5b9d608a1b6044820152606490fd5b634e487b7160e01b600052604160045260246000fd5b6040519190601f01601f1916820167ffffffffffffffff81118382101761035a57604052565b61031e565b67ffffffffffffffff811161035a57601f01601f191660200190565b92919261038f61038a8361035f565b610334565b938285528282011161018157816000926020928387013784010152565b6040513d6000823e3d90fd5b156103bf57565b60405162461bcd60e51b8152602060048201526011602482015270496e76616c6964207369676e617475726560781b6044820152606490fd5b9092600093849361041460018060a01b036001541633146102e0565b826040519384928337810185815203925af13d15610484573d61043961038a8261035f565b908152600060203d92013e5b1561044c57565b60405162461bcd60e51b815260206004820152601060248201526f115e1958dd5d1a5bdb8819985a5b195960821b6044820152606490fd5b610445565b60418151036104a8576020810151906060604082015191015160001a92565b60405162461bcd60e51b81526020600482015260186024820152770d2dcecc2d8d2c840e6d2cedcc2e8eae4ca40d8cadccee8d60431b6044820152606490fdfea2646970667358221220eef8b3d4aa9415a07c4bf9f37007d84382a31d694b58ef780fe479873f606f6f64736f6c63430008140033",
  "linkReferences": {},
  "deployedLinkReferences": {}
}