{
  "_format": "hh3-artifact-1",
  "contractName": "SimpleSmartWallet",
  "sourceName": "solidity/tests/contracts/account_abstraction/smartwallet/SimpleSmartWallet.sol",
  "abi": [
    {
      "inputs": [],
      "name": "entryPoint",
      "outputs": [
        {
          "internalType": "address",
          "name": "",
          "type": "address"
        }
      ],
      "stateMutability": "view",
      "type": "function"
    },
    {
      "inputs": [
        {
          "internalType": "address",
          "name": "target",
          "type": "address"
        },
        {
          "internalType": "uint256",
          "name": "value",
          "type": "uint256"
        },
        {
          "internalType": "bytes",
          "name": "data",
          "type": "bytes"
        }
      ],
      "name": "execute",
      "outputs": [],
      "stateMutability": "nonpayable",
      "type": "function"
    },
    {
      "inputs": [
        {
          "internalType": "address",
          "name": "_owner",
          "type": "address"
        },
        {
          "internalType": "address",
          "name": "_entryPoint",
          "type": "address"
        }
      ],
      "name": "initialize",
      "outputs": [],
      "stateMutability": "nonpayable",
      "type": "function"
    },
    {
      "inputs": [],
      "name": "owner",
      "outputs": [
        {
          "internalType": "address",
          "name": "",
          "type": "address"
        }
      ],
      "stateMutability": "view",
      "type": "function"
    },
    {
      "inputs": [
        {
          "components": [
            {
              "internalType": "address",
              "name": "sender",
              "type": "address"
            },
            {
              "internalType": "uint256",
              "name": "nonce",
              "type": "uint256"
            },
            {
              "internalType": "bytes",
              "name": "initCode",
              "type": "bytes"
            },
            {
              "internalType": "bytes",
              "name": "callData",
              "type": "bytes"
            },
            {
              "internalType": "uint256",
              "name": "callGasLimit",
              "type": "uint256"
            },
            {
              "internalType": "uint256",
              "name": "verificationGasLimit",
              "type": "uint256"
            },
            {
              "internalType": "uint256",
              "name": "preVerificationGas",
              "type": "uint256"
            },
            {
              "internalType": "uint256",
              "name": "maxFeePerGas",
              "type": "uint256"
            },
            {
              "internalType": "uint256",
              "name": "maxPriorityFeePerGas",
              "type": "uint256"
            },
            {
              "internalType": "bytes",
              "name": "paymasterAndData",
              "type": "bytes"
            },
            {
              "internalType": "bytes",
              "name": "signature",
              "type": "bytes"
            }
          ],
          "internalType": "struct UserOperation",
          "name": "userOp",
          "type": "tuple"
        },
        {
          "internalType": "bytes32",
          "name": "userOpHash",
          "type": "bytes32"
        },
        {
          "internalType": "uint256",
          "name": "",
          "type": "uint256"
        }
      ],
      "name": "validateUserOp",
      "outputs": [
        {
          "internalType": "uint256",
          "name": "validationData",
          "type": "uint256"
        }
      ],
      "stateMutability": "view",
      "type": "function"
    },
    {
      "stateMutability": "payable",
      "type": "receive"
    }
  ],
  "bytecode": "0x60808060405234601557610515908161001a8239f35b5f80fdfe6080604052600436101561001a575b3615610018575f80fd5b005b5f3560e01c80633a871cdd14610069578063485cc955146100645780638da5cb5b1461005f578063b0d691fe1461005a5763b61d27f60361000e57610276565b61024e565b610227565b610192565b346101625760603660031901126101625760043567ffffffffffffffff81116101625780360390610160600319830112610162576100b260018060a01b036001541633146102de565b6101448101359160221901821215610162570160048101359067ffffffffffffffff8211610162576024018136038113610162576101286101006100fb5f936020953691610377565b610481565b60408051602435815260ff909416602085015283019190915260608201529081906080820190565b838052039060015afa1561015d575f80519054610152916001600160a01b039081169116146103b2565b6040515f8152602090f35b6103a7565b5f80fd5b600435906001600160a01b038216820361016257565b602435906001600160a01b038216820361016257565b34610162576040366003190112610162576101ab610166565b6101b361017c565b5f546001600160a01b0381166101ec576001600160a01b039283166001600160a01b0319918216175f5560018054929093169116179055005b60405162461bcd60e51b8152602060048201526013602482015272185b1c9958591e481a5b9a5d1a585b1a5e9959606a1b6044820152606490fd5b34610162575f366003190112610162575f546040516001600160a01b039091168152602090f35b34610162575f366003190112610162576001546040516001600160a01b039091168152602090f35b346101625760603660031901126101625761028f610166565b6024356044359167ffffffffffffffff831161016257366023840112156101625782600401359167ffffffffffffffff83116101625736602484860101116101625760246100189401916103f2565b156102e557565b60405162461bcd60e51b815260206004820152600f60248201526e1bdb9b1e48115b9d1c9e541bda5b9d608a1b6044820152606490fd5b634e487b7160e01b5f52604160045260245ffd5b6040519190601f01601f1916820167ffffffffffffffff81118382101761035657604052565b61031c565b67ffffffffffffffff811161035657601f01601f191660200190565b92919261038b6103868361035b565b610330565b938285528282011161016257815f926020928387013784010152565b6040513d5f823e3d90fd5b156103b957565b60405162461bcd60e51b8152602060048201526011602482015270496e76616c6964207369676e617475726560781b6044820152606490fd5b90925f93849361040d60018060a01b036001541633146102de565b826040519384928337810185815203925af13d1561047c573d6104326103868261035b565b9081525f60203d92013e5b1561044457565b60405162461bcd60e51b815260206004820152601060248201526f115e1958dd5d1a5bdb8819985a5b195960821b6044820152606490fd5b61043d565b604181510361049f57602081015190606060408201519101515f1a92565b60405162461bcd60e51b81526020600482015260186024820152770d2dcecc2d8d2c840e6d2cedcc2e8eae4ca40d8cadccee8d60431b6044820152606490fdfea26469706673582212208ed88bc6ac325b24a1faa109d082438af9861c54b2ae16cc569727e91e24503264736f6c634300081a0033",
  "linkReferences": {},
  "deployedLinkReferences": {},
  "immutableReferences": {},
  "inputSourceName": "project/solidity/tests/contracts/account_abstraction/smartwallet/SimpleSmartWallet.sol",
  "buildInfoId": "solc-0_8_26-6ec4f0c6b3691526d7b3a3a19b37097670fc2b6e"
}